:020000040800F2
:10000000000003205D060008C5230008C723000880
:10001000C9230008CB230008CD23000800000000FE
:10002000000000000000000000000000E1C0000827
:10003000CF2300080000000071C10008FFB90008CC
:10004000AD060008AD060008AD060008AD060008C4
:10005000AD060008AD060008AD060008AD060008B4
:10006000AD060008AD060008AD060008AD060008A4
:10007000AD060008AD060008AD060008AD06000894
:10008000AD060008AD060008AD060008AD06000884
:10009000AD060008AD060008AD060008AD06000874
:1000A000AD060008AD060008AD060008AD06000864
:1000B000AD060008AD060008AD060008AD06000854
:1000C000AD060008AD060008AD060008AD06000844
:1000D000AD060008AD060008AD060008AD06000834
:1000E000AD060008AD060008AD060008AD06000824
:1000F000AD060008AD060008AD060008AD06000814
:10010000AD060008AD060008AD060008AD06000803
:10011000AD060008AD060008D1230008AD060008B2
:10012000AD060008AD060008AD060008AD060008E3
:10013000AD060008AD060008AD060008AD060008D3
:10014000AD060008AD060008AD060008AD060008C3
:10015000AD060008AD060008AD060008AD060008B3
:10016000AD060008AD060008AD060008AD060008A3
:10017000AD060008AD060008AD060008000000004E
:10018000AD060008AD060008AD060008AD06000883
:10019000AD060008AD060008AD060008AD06000873
:0C01A000DD230008AD060008E92300087C
:1001B00010B5054C237833B9044B13B10448AFF3A1
:1001C00000800123237010BD800300200000000088
:1001D000AC8E020808B5034B1BB103490348AFF3CB
:1001E000008008BD0000000084030020AC8E0208DF
:1001F00001F0FF01102A2BDB10F0070F08D010F8D8
:10020000013B013A8B422DD010F0070F42B3F6D1DB
:10021000F0B441EA012141EA014122F007047FF0F4
:1002200000070023F0E80256083C85EA010586EA4B
:10023000010685FA47F5A3FA87F586FA47F6A5FA87
:1002400087F68EB9EED1F0BC01F0FF0102F0070293
:1002500032B110F8013B013A83EA010313B1F8D13E
:100260000020704701387047002D06BF354603381F
:10027000073815F0010F07D1013015F4807F02BF58
:10028000013015F4C03F0130F0BC0138704700BFA9
:100290007BB972B90029BEBF00204FF0004106E0D3
:1002A00008BF00281CBF6FF000414FF0FF3000F086
:1002B000D3B9ADF1080C6DE904CE002909DB002BA0
:1002C0001ADB00F04DF8DDF804E0DDE9022304B0AC
:1002D0007047404261EB4101002B1BDB00F040F80E
:1002E000DDF804E0DDE9022304B0404261EB4101A6
:1002F000524263EB43037047524263EB430300F007
:100300002FF8DDF804E0DDE9022304B0404261EBA0
:1003100041017047524263EB430300F021F8DDF8DE
:1003200004E0DDE9022304B0524263EB430370476B
:1003300053B94AB9002908BF00281CBF4FF0FF314C
:100340004FF0FF3000F088B9ADF1080C6DE904CE34
:1003500000F006F8DDF804E0DDE9022304B07047A0
:100360002DE9F047089D8E4604468846002B4AD169
:100370008A42174662D9B2FA82F64EB1C6F120031C
:1003800001FA06F820FA03F3B74043EA0808B4403C
:100390004FEA174E1FFA87FCB8FBFEF1230C0EFB49
:1003A000118843EA084301FB0CF29A4209D9FB1871
:1003B00001F1FF3080F0EA809A4240F2E780023992
:1003C0003B449A1AA3B2B2FBFEF00EFB102243EAA2
:1003D000024300FB0CFC9C4509D9FB1800F1FF32DD
:1003E00080F0D6809C4540F2D3803B44023840EAFE
:1003F0000140A3EB0C0300211DB1F3400022C5E92D
:100400000032BDE8F0878B4205D90DB1C5E9000186
:1004100000210846F5E7B3FA83F1002946D1734578
:1004200002D3824200F20581841A6EEB030201209E
:100430009046002DE5D0C5E90048E2E7002A00F02B
:100440009080B2FA82F6002E40F0A4808A1A030C43
:100450004FEA174E80B2BCB20121B2FBFEFC0EFB8C
:100460001C2243EA024304FB0CF29A4207D9FB1810
:100470000CF1FF3802D29A4200F2E080C4469B1A87
:10048000B3FBFEF20EFB123340EA034302FB04F41B
:100490009C4207D9FB1802F1FF3002D29C4200F2C5
:1004A000CA8002461B1B42EA0C40A5E7C1F12006A8
:1004B0008B4022FA06F71F430EFA01F420FA06F3E6
:1004C0002EFA06FE4FEA1749234300FA01F81FFAF5
:1004D00087FCBEFBF9F01C0C09FB10EE44EA0E444D
:1004E00000FB0CFEA64502FA01F209D93C1900F105
:1004F000FF3A80F09C80A64540F2998002383C4447
:10050000A4EB0E041FFA83FEB4FBF9F309FB1344BA
:100510004EEA044403FB0CFCA44508D93C1903F142
:10052000FF3E80F08280A4457FD9023B3C4443EAF1
:100530000040A4EB0C04A0FB02EC64457346E146CA
:1005400062D35FD05DB1B8EB030264EB090404FA37
:1005500006F622FA01F31E43CC40C5E900640021EF
:100560004FE7B1FBF2FC010C41EA0E4180B240EAD8
:1005700001423B4638463C46B846BE462026B1FBC3
:10058000F7F1A2EB080241EA0C4166E7014618E7E1
:1005900010462CE7C6F120022EFA02F3B740B14014
:1005A00020FA02F24FEA174E0A43B3FBFEF8BCB240
:1005B0000EFB1833110C41EA034108FB04F9B0406B
:1005C00089454FEA104380B23ED9791808F1FF3CC3
:1005D00001D289451FD8A1EB0901B1FBFEF909FB46
:1005E00004F80EFB191192B242EA0142424529D2A7
:1005F000BA1809F1FF31C4D24245C2D2A9F10201B1
:100600003A44BEE7F0459DD2BEEB02036CEB070C0B
:100610000138E14696E7A7EB09094944A8F1020C25
:10062000B1FBFEF909FB04F8DBE773467FE75046B0
:1006300066E70846FDE63B44023A33E7ACF1020CBC
:100640003B441CE749469CE7A1EB0901C446B1FBCA
:10065000FEF909FB04F8C4E7704700BFDFF834D0A7
:10066000002103E00C4B5B58435004310B480C4B0A
:1006700042189A42F6D30B4A02E0002342F8043BA8
:10068000094B9A42F9D308F019FB27F0A1FE01F0BB
:100690003FF9704700000320D4BC0408000000208C
:1006A0006401002080030020A04C0120FEE7704779
:1006B00008B500F0A7FDBDE8084000F029BD00F036
:1006C000A3BD704710B50421044626F083FC2046E4
:1006D00010BD000038B50C4B0C4C18800C4B822020
:1006E00019806368984740F6110398420AD1094D72
:1006F00023682C60822098472B688220DB6898470B
:10070000002038BD0120FCE7A60300204C0000209B
:10071000A4030020A80300204FF4A071F020FFF7ED
:10072000D9BF0000F7B52F4D2B6804461B69822006
:1007300098472080002844D02B680DF106025B69A1
:1007400001A982209847BDF80620A2F5B47292B2A2
:100750000A2A38D90B23B2FBF3F2234B1B889A42A7
:1007600001D9013B9AB2BDF80430204840F6B831B7
:100770008B422AD8C3F571630E3301689BB20F25F3
:10078000B3FBF5F31A4D2D88AB4284BF05F1FF355D
:10079000ABB28B421D468EB220D99B1B99B2154E2F
:1007A0003768BBB2BA428CBFD31A9B1A9BB21944AA
:1007B0000529C8BF05600368C8BF3260638033681D
:1007C000A38003B0F0BD0022CDE7C3F56D6308330D
:1007D0009BB20E2B0168D2D800252B46C91A89B2CC
:1007E000DDE700BFA8030020A4030020A003002031
:1007F000A60300209C03002037B568460D4614462A
:10080000FFF790FFBDF8000040B1BDF802302B604B
:10081000BDF80430C3F5A0732360012003B030BDE0
:10082000032821D8DFE800F0020B12190F4B1A68D9
:10083000B2FA82F2520904210D4808F007BF0B4BAF
:100840005A68B2FA82F252090821F5E7074B9A6812
:10085000B2FA82F252091021EEE7044BDA68B2FADA
:1008600082F252092021E7E7704700BFAC03002065
:1008700000100240032821D8DFE800F0020B121913
:100880000F4B1A68003A18BF012204210D4808F0E6
:10089000DDBE0B4B5A68003A18BF01220821F5E76C
:1008A000074B9A68003A18BF01221021EEE7044B6B
:1008B000DA68003A18BF01222021E7E7704700BF3D
:1008C000AC0300200010024003280DD8DFE800F040
:1008D0000206080A0421054808F0BDBE0821FAE70F
:1008E0001021F8E72021F6E7704700BF0010024012
:1008F00008B5032811D8DFE800F0020A0C0E042125
:10090000074808F09DFE431E5842584108BD082183
:10091000F6E71021F4E72021F2E70020F3E700BF1B
:100920000010024070B5084D00240126E0B2FFF728
:10093000DFFF18B12B68012B18BF2E600134052C86
:1009400005F10405F2D170BDAC030020012380F84D
:10095000781080F87930704700207047034B41646D
:10096000003918BF01211970704700BF5F3F012097
:1009700000207047836B0BB10846184770474FF64D
:10098000FF707047406803689B691847704770475D
:100990007047000010B5044600F044FD2368034989
:1009A000D3F88C302046BDE810401847000000D036
:1009B00008B503680446D3F880309847236820467A
:1009C0009B6F984700F0ECF8236820461B6F984710
:1009D000292001F017FA00F0E3F8236820461B6F86
:1009E0009847F8E710B504460EF034F9236820461E
:1009F000D3F8AC30BDE81040184700F0F7BC00F069
:100A0000FBBC00F02DBD00F0CDBC00F03DBD00F002
:100A100045BD00F0D1BC0DF089BB10B57C2104466A
:100A200026F0D8FA204610BD10B590F8341090F892
:100A300078400C4B8C421A7809D03AB90A4A0B49D3
:100A40001488088810800C8001221A7010BD002ABA
:100A5000FCD0054A05491488088810800C800022C3
:100A6000F3E700BF583F0120543F0120563F0120CB
:100A700070B50D46194635B9094B0A4A0A4840F285
:100A8000D22127F0E3F9C0E90F52084B003A18BF12
:100A900001221A700368BDE87040D3F88C30184703
:100AA0001C8F0208548F0208A28F02085E3F0120AB
:100AB00008B5094B1B888B4203D8084B1B8893420F
:100AC00005D9074B074A08489E2127F0BFF9074B75
:100AD0001980074B1A8008BD543F0120563F012062
:100AE000E78F02084A900208A28F02085A3F0120AD
:100AF0005C3F0120034690F87A0018B158680368FB
:100B00001B68184770470000012108B500220846FD
:100B10000AF0FEFF0A4B186028B90A4B0A4A28213E
:100B20000A4827F093F90022042101200BF08FF8E6
:100B3000074B186018B9074B034A2C21F0E708BD92
:100B4000C00300208D900208D6900208059102088B
:100B5000BC03002043910208024B4FF0FF3118689C
:100B60000BF020B8C0030020014B18680BF046B80A
:100B7000C0030020024B002118680BF013B800BF1F
:100B8000C0030020FFF7F0BF0348044900680023BA
:100B90001A460BF097B800BFBC03002004000020E9
:100BA00013B5084C00231A4601A920680BF0BBF8C6
:100BB00020684FF0FF33002201A90BF0B4F802B017
:100BC00010BD00BFBC03002003685B6C1847012008
:100BD000704703689B6A1847FEE740F2EF307047A2
:100BE000054B0360054B4FF08062C3F88820BFF3CC
:100BF0004F8FBFF36F8F7047E8A2020800E100E05B
:100C000010B504464FF45A61FFF7EAFF204626F07C
:100C1000E1F9204610BD000082B0002301930E4B85
:100C20001A6B42F400021A631A6B02F4000201927A
:100C3000019A1A6942F400021A611A6922F4000248
:100C40001A61064B064A1A61064A5A61064B4FF072
:100C500080629A6002B0704700380240E02F0020A6
:100C6000B90E0008D90B000800E100E008B50A2819
:100C700009D8DFE800F006100E0808080810101068
:100C80001000022008BD054B054A0648902127F0B8
:100C9000DDF80020F6E70120F4E700BF85910208A7
:100CA000A0910208EB91020838B50C46887FFFF747
:100CB000DDFFA58AE28A164B2169586342EA0542A4
:100CC0005A64628BD963521B1A642568082D0ED1B1
:100CD0009A611A615862207F0E4A42EA0062DA6124
:100CE000E2681A620C4A5961D9601A6038BD002264
:100CF000D8611A61E1680A0A480902F4784200F4EE
:100D0000FC600243C1F3C4010A439A63034AECE75F
:100D100000B002400900010001230200012303008A
:100D200008B50B280BD8DFE800F00612100A0A0AF3
:100D30000A0808080808022008BD0520FCE7054B42
:100D4000054A06486F2127F081F80020F4E70120CA
:100D5000F2E700BF8591020827920208EB91020892
:100D60002DE9F04191F81D800C464046FFF7D8FF71
:100D7000A77F05463846FFF7D3FF06463846FFF7FC
:100D800075FFA18A628B444B521A1A649A61228BB6
:100D9000521A1A61E28A586342EA01425A6421698E
:100DA0006268D963DA602068802828D0227F0FD853
:100DB000202867D0402865D004281AD0364B45EA51
:100DC000026545F40035B845DD6161D0334A44E041
:100DD000B0F5807F04D0B0F5007FEFD1304800E05F
:100DE000304840EA0262DA61E2681A625E62596182
:100DF00032E045EA026242F40032DA61F6E7A068C6
:100E0000021DDA62227F45EA026545F40035DD61A4
:100E10005E625961017841B1012921D0224B234AF8
:100E200023484FF48D7127F011F8DA69418822F4D4
:100E30007F42013922F0100242EA0122DA610121E7
:100E4000154BDA6942F02002DA61DA699206FCD4C5
:100E500010229A600029B9D0164A1A60BDE8F081C4
:100E6000B2F1FF01DA69408822F47F4200F1FF30DD
:100E700022F0100242EA002242F0100218BF0121C3
:100E8000DA61DDE745EA0262034B42F40032B4E77F
:100E900042F20132E1E700BF00B00240012301004D
:100EA000090002000A000200719202088B920208F7
:100EB000EB91020801230200024B1B68586803688B
:100EC0005B691847603F012070B5044625460A4B10
:100ED0000C30002660602672667245F8203B602266
:100EE00029460EF00FF804F55A63EE6024359D4252
:100EF000FBD1204670BD00BFE8A20208034B1A6870
:100F0000D207FCD423229A60704700BF00B0024091
:100F10007047000030B50F4C2568ED07FCD4232541
:100F20000904A56041F001010225FF2B656361649E
:100F3000E0630AD00849656241EA0363E361074B55
:100F400022626061E060236030BDE561039BA363C2
:100F5000034BF8E700B00240090001000100020065
:100F60000100030030B50E4C2568ED07FCD42325A5
:100F70001204A56042F001020225FF2B6563626442
:100F8000E063E16008D01B0643F00213E361054B08
:100F900065626061236030BD034BE3610123F9E7C3
:100FA00000B0024001000200020002FF30B50B4C0D
:100FB0002568ED07FCD4232512041B06A56043F425
:100FC0000033022542F0010265636264E063E16080
:100FD000E361034B65626061236030BD00B0024095
:100FE000010002000120704738207047382303FBBE
:100FF000010008307047382303FB010008307047B8
:101000000120704741F67C00704741F67C0303FBEA
:1010100001000830704741F67C0303FB01000830F3
:101020007047012070471020704700EB0110083016
:10103000704700EB011008307047084602F0F4BA20
:1010400010B5034B036004460CF0C5FD204610BDEF
:10105000A0A3020810B50446FFF7F2FF2046402186
:1010600025F0B8FF204610BD10B5034B03600446C1
:101070000CF0B1FD204610BD6CA3020810B504466B
:10108000FFF7F2FF204641F6840125F0A3FF20463A
:1010900010BD000010B5034B036004460CF09BFD2F
:1010A000204610BD38A3020810B50446FFF7F2FF32
:1010B0002046182125F08EFF204610BD10B5094BA3
:1010C0000360044600F5C5501030FFF7B9FF04F186
:1010D0002C00FFF7C9FF04F11400FFF7DBFF2046E7
:1010E00010BD00BFD4A3020808B50248FFF7E6FF11
:1010F00008BD00BF9412002010B50446FFF7DEFFC4
:1011000020464FF4D35125F065FF204610BD000066
:101110002DE9F34101F0F0F9054601F0F1F9002461
:101120000146234628462246009416F0F7FE274B38
:10113000274A1A60204605F0ABFA264D264B274A6F
:1011400027489A6016F052FE2B68BFF35B8FDB07CF
:1011500036D4284625F040FF90B3224C224F234B33
:10116000236007F1540604F1140004F12C086060B8
:10117000C4F80880E76026610CF02EFD1C4B63610B
:1011800040460CF029FD1B4BE36238460CF024FD71
:1011900004F5805303F50F60174AC3F8B02807F031
:1011A00089FA224607F14001304605F0B5FF304686
:1011B00002F03AFA114826F067FE284625F018FF9B
:1011C0000F4802B0BDE8F041FFF7E4BBC43F012087
:1011D00040040020901200206004002044040020FD
:1011E0000800002094120020442B0020D4A3020801
:1011F00038A302086CA30208A0A30208E9100008A3
:10120000C4030020704700000148FFF7D1BB00BFB6
:10121000C403002070B5244E244C254D254B23607B
:101220003046FFF751FE28461BF07EFF224814F09F
:101230004DFB224B2248DC6000224FF48071C3E951
:10124000121220491A86C3E91A121F4999671F49C9
:1012500083F858200B60F02101801D485A660180F8
:101260001C4883F870204FF4A071C3E90422C3E93D
:101270000622C3E90822C3E90A22C3E90E22C3E910
:101280001022C3E91422C3E917225A67C3E9016592
:1012900001801148018011490A70012283F834202D
:1012A0000F4A1A6070BD00BFEC0400208C120020B1
:1012B000600400200C8F020844040020C4030020B6
:1012C000543F01200100000100000101603F0120A6
:1012D0005A3F0120563F01205C3F0120583F01202A
:1012E00010A202080148FFF77BBC00BFEC040020FD
:1012F0000020704781807047C1807047018170472E
:10130000418170477047704770477047704710B40D
:10131000C4880368121B84885B6D091B12B25DF8D8
:10132000044B09B218474FF6FF7383814FF0FF3328
:1013300003621368C36110607047002070478B8898
:10134000838001207047704780F82610704790F81E
:101350002600704710B50022B1F90840B1F90A1013
:10136000028042808480C18010BD002202804280C1
:101370008280C28070470177704780ED080A70470D
:1013800080F82410704780F82510704701207047BE
:10139000983070478C307047843070477047704782
:1013A00070470000034B902283F85A2383F8582398
:1013B000704700BF00E100E0094A0A49D3680A48C3
:1013C000C3F30A03013B9BB20B801169C1F30A010D
:1013D000013901801364536B43F001035363704779
:1013E00000680140F62C0020F42C0020014BD3F8BB
:1013F000AC00704700680140024B0122C3F8AC10FA
:101400005A6270470068014010B52C21044625F04F
:10141000E1FD204610BD10B5BC21044625F0DAFDE3
:10142000204610BD70B504460CF0D5FE23685D6EF5
:1014300013F0F8F801462046A8472368054AD3F878
:1014400088502046AC460023BDE87040A2F5163116
:10145000604700BF00B004D00CF0A4BE0CF0AEBEDC
:101460000CF06ABE0CF0CBBF90F8252012B10368D7
:101470005B691847704790F825201AB190F824202E
:1014800002B1186070470000034B4FF080629A6011
:101490004FF080729A60704700E100E0084B4FF017
:1014A0008062C3F88820BFF34F8FBFF36F8F4FF078
:1014B0008072C3F88820BFF34F8FBFF36F8F7047E0
:1014C00000E100E070B50023124E8380124B0360F0
:1014D000336893F8582005460AB1D86C00B998686B
:1014E0000368DB6A98473368B0FA80F4D86C640903
:1014F00030B10368DB6A9847002808BF44F0010454
:101500002CB9064B064A07482C2126F09FFC28469A
:1015100070BD00BF603F0120E8A30208C992020825
:10152000279302086093020870B5244E3568BFF314
:101530005B8F15F001053FD1304625F04DFD0028A9
:101540003AD01F4C1F4B256104F13400C4E900352B
:10155000C4E90255E584A562A58514F016FC04F1E2
:1015600058000FF09DFD184BA3652046174B40F81F
:10157000843BFFF7A7FF164BC4F884302433C4F82C
:101580008C306423C4E928350023C4F8AC30C4F897
:10159000B030C4F8B430C4F8B8300E480E4BC4F8BC
:1015A0009050C4F89C50C4F8A850C4F8983026F065
:1015B0006BFC304625F01CFD014870BDF82C002066
:1015C000FC2C002018B0020808A4020880A402081D
:1015D000CCAF0208A1130008ACAF020810B5144C40
:1015E000236823B3134B144A1B6C11888B4213D10D
:1015F000124B198808F032FE226892F86A300133E3
:1016000082F86A30FFF7C0FA20680DF023FBBDE8CE
:1016100010400020FFF704B908F020FE206803689E
:101620001B6A9847BDE810400020FFF723B910BDA2
:10163000603F012000680140F62C0020F42C0020BF
:101640002DE9F04FDFF85891534DDFF858A1534F73
:1016500087B01022002102A800244FF0010826F0D4
:101660000EFEC346C9F800400123002C50D10622CB
:1016700002A92846CDE90243049207F005FD284659
:1016800007F012FC4FF0FF31284607F0A6FC284671
:1016900007F0F6FC0646284607F084FCB6F57A7F8C
:1016A0004FF001032DD28DF80740386823462246BB
:1016B0000DF107010AF006FB0421504607F0C0FFB8
:1016C000064660B9BBF1010F09D104238DF807303C
:1016D000024603460DF1070138680AF0F3FAD9F81B
:1016E00000301433B3F5FA7F28BF00234FF00A000F
:1016F00028BF84F00104C9F80030B3460AF0FCF9B1
:10170000B2E740F6B8329642D6D98DF80730CCE72A
:101710000522CDE9022302A906232846049307F0F7
:10172000B3FC284607F0C0FB4FF0FF31284607F016
:1017300054FC284607F0A4FC0646284607F032FC75
:10174000B6F57A7F16D202238DF807300023386869
:101750001A460DF107010AF0B5FA0821504607F0C4
:101760006FFF0346B0B9B8F1010F09D04FF0000880
:101770005E46B4E740F6B8339E42EED90323E3E772
:1017800005228DF807200DF10701024638680AF09E
:1017900099FAEBE78046EBE7102E0020C02D0020E1
:1017A000B82D00200018024007B5064BADF8060022
:1017B0001B68054801220DF1060109F0FFFA03B08C
:1017C0005DF804FB0C0000208C2E002008B564207E
:1017D0000AF092F9FBE7000030B595B01022002125
:1017E0000AA826F04CFD1422002103A826F047FD8C
:1017F00000241E4B01941A6C42F080521A641B6C38
:1018000003F080530193019B194B02941A6842F430
:1018100040421A601B6803F4404302930122029B7A
:101820004FF48033CDE9082302254FF480030821CB
:10183000CDE90E534FF4B473CDE9101308A8042377
:101840001393129508F062FD08F026FD0F23CDE9F1
:1018500003354FF4A0504FF48053CDE90603052122
:1018600003A8059408F02EFF15B030BD00380240E3
:101870000070004082B000230F4A0193516C0F4862
:1018800041F480715164526C836002F48072019261
:10189000019A0B4A0361C0E900230A4A82620122CD
:1018A000037680F82030C362C360C26180F83030B4
:1018B000426102B007F052BA00380240102E0020F8
:1018C000002001400100000F82B000230D4A019367
:1018D000516C0D4841F010015164526C0B49036189
:1018E00002F010020192019AC3614FF4E132C0E9A3
:1018F00000120C22C0E90233C0E9052302B009F04E
:101900005CBF00BF00380240D02D00200010014015
:101910002DE980489BB007F0DFF9FFF7ABFFFFF739
:101920005BFF142200210DA8002426F0A8FCC64B62
:1019300000941A6BC548C64D42F010021A631A6B28
:1019400002F010020092009A01941A6B42F02002F9
:101950001A631A6B02F020020192019A02941A6B28
:1019600042F080021A631A6B02F080020292029A1D
:1019700003941A6B42F004021A631A6B02F0040219
:101980000392039A04941A6B42F001021A631A6BD1
:1019900002F001020492049A05941A6B42F00202CA
:1019A0001A631A6B02F002020592059A06941A6BEA
:1019B00042F040021A631A6B02F040020692069A45
:1019C00007941A6B42F008021A631B6B03F00803BA
:1019D000079322463C21079B07F038FE9D4822468C
:1019E000042107F033FE22469B484FF4405107F094
:1019F0002DFE01264FF003083C239448CDF840808B
:101A00000DA902274FF0040ACDE90D360F9407F017
:101A100033FD90480F940DA9CDE90DA6109707F05E
:101A20002BFD4FF440538C480DA9CDE90D36CDE97F
:101A30000F4707F021FD212388480F940DA9CDE918
:101A40000D3807F019FD0C2385480F960DA94FF0AE
:101A5000070BCDE90D3407F00FFD0DA94FF4C0635E
:101A60007E48CDF844B0CDE90D37CDE90F4807F0F9
:101A700003FD7C487C4B036007F0F4FB7B4A7C4B06
:101A80002C62C5E9002328464FF48043C5E904349D
:101A9000C5E90244C5E9064407F0E6FF10212846DF
:101AA00008F02AFA2146284608F045FA714872499A
:101AB00084624FF48273C0E900134FF40075182359
:101AC0004FF00A09C0E90653C0E902446B4DC0F863
:101AD0002C90C0E90444C0E9084409F013F9684BAC
:101AE00013974FF0100CC5E900364023C5E904C335
:101AF0004FF4C073C5E906344FF40063C5E90834F8
:101B00000DA94FF400532846AB62C5E9024ACDE95E
:101B10000FABCDE90D7BCDE911874FF0080B08F035
:101B2000D5FF4FF6FF7209A92846CDE90AB60894F9
:101B300009960C9408F0EAFF304607F0F9F84FF6E2
:101B4000FF7209A92846CDE9097BCDE90B6408F0AD
:101B5000DDFF4FF6FF7209A92846CDE9098BCDE9D3
:101B60000BA408F0D3FF4FF40C730893089B0C935D
:101B70004FF6FF7209A92846CDE909AB0B9608F08C
:101B8000C5FF40F26A51284608F0DEFF34222146A4
:101B90000DEB020026F073FB3A4D3B4B2C61C5E97F
:101BA00000340923C5E905361D2340F20D1EC5E9A1
:101BB000073840F24313C5E909E3284640F24713CA
:101BC00040F21718C5E90B83C5E90244AC8685F8D5
:101BD000364008F04BFAFF21F022CDE912144FF401
:101BE000806A05214FF4A073CDE90E24CDE914A13C
:101BF000CDE916420DA922462846CDE91037234DDE
:101C000018930D94ADF864408DF8664008F0F9FA29
:101C10001F4B2B601B6898472B681E4DDB6898474D
:101C20001D4B2846C5E90034C5E90274C5E90A47D9
:101C3000C5E90C4407F026FB3146284607F0D8FBDF
:101C4000FEF736FD2AE000BF0038024000100240D7
:101C50008C2F002000080240000C024000000240CF
:101C6000001802402030002000300240005C00409C
:101C7000A08601008C2E002000500140582E00202C
:101C8000400100A0E42E002000680140BC2D00208F
:101C900014000020E02F002000B00240FEF707FDF6
:101CA000FFF712FE09F0B8FE0F4A3146484609F028
:101CB000CEFF0E4B0E4A186021460E4809F0D8FEA2
:101CC0000D4B0E4A186021460D4809F0D1FE0D4B10
:101CD0000D4A186021460D4809F0CAFE0C4B1860E9
:101CE00009F0ACFEFEE700BFC4A40208C02D00202E
:101CF00024A50208CD170008CC2D002000A502085D
:101D0000BF060008C82D0020DCA402084116000808
:101D1000C42D0020704770477FB5094B8DF8172000
:101D20001B6802930DF117020123009201930A46EA
:101D30000146044807F040FF07B05DF804FB00BF10
:101D4000100000208C2F00207FB500238DF8173065
:101D5000084B1B6802930A4601230DF117010091FD
:101D600001930146044807F0B7FF9DF8170007B03C
:101D70005DF804FB100000208C2F00201FB5084CDC
:101D800024680092CDE901340A4601230146054842
:101D900007F0A2FF003818BF012004B010BD00BF3B
:101DA000100000208C2F002006F0C2BF10B5064C9A
:101DB00000222046042107F049FC20460122BDE80C
:101DC0001040042107F042BC0008024038B50B4D1A
:101DD000044601220A484FF4005107F037FC002264
:101DE0000421284607F032FC2046FFF7DDFC284698
:101DF0000122BDE83840042107F028BC0008024059
:101E0000000C024038B50B4D044600220A484FF43E
:101E1000005107F01BFC00220421284607F016FCA5
:101E20002046FFF7C1FC28460122BDE838400421C6
:101E300007F00CBC00080240000C0240F7B5144E3D
:101E4000144F05460C4630460022042107F0FEFBE5
:101E500000224FF40051384607F0F8FB2846FFF700
:101E6000A3FC0D4B0D481B68224601A909F052F94D
:101E7000384601224FF40051019C07F0E7FB304641
:101E80000122042107F0E2FB204603B0F0BD00BFB1
:101E900000080240000C02400C0000208C2E0020A4
:101EA00006F046BF0268034B9A4201D106F02EBFEE
:101EB000704700BF001000407047000082B00E4B1A
:101EC00000220092596C41F480415964596C01F42C
:101ED0008041009100990192196C41F08051196480
:101EE0001B6C03F080530193019B0F216FF00100E5
:101EF00002B007F077B900BF003802400268094B12
:101F00009A4282B00BD100230193074B1A6B42F423
:101F100080521A631B6B03F480530193019B02B040
:101F2000704700BF003002400038024007B50F4B39
:101F300002689A4216D10022A3F5F0430192196B70
:101F400041F4000119631B6B03F4000301930521A5
:101F50005A20019B07F046F95A2003B05DF804EBC4
:101F600007F072B903B05DF804FB00BF00B0024097
:101F70002DE9F043044689B01422002103A826F07D
:101F80007EF92268244B9A4243D1244C24480025F0
:101F90000095236B43F004032363236B03F00403D6
:101FA0000093009B0195236B43F001032363236B94
:101FB00003F001030193019B4FF012094FF40073EA
:101FC0004FF001080327042603A9CDE90339CDE921
:101FD0000587079607F050FA4FF48073114807966B
:101FE00003A9CDE90339CDE9058707F045FA029544
:101FF000236C43F400032364236C03F40003029373
:10200000029B236A43F400032362236A23F4000340
:10201000236209B0BDE8F083005C00400038024054
:102020000008024000000240F0B599B004461422B6
:10203000002107A826F023F930220DEB0200002131
:1020400026F01DF922685E4B9A4240F0B7800823C3
:102050000C93C0231093042312930CA84FF4003365
:10206000159308F007FC08B1FFF726FF554B5648BB
:10207000002400945A6C42F080625A645A6C02F058
:1020800080620092009A01941A6B42F020021A6357
:102090001A6B02F020020192019A02941A6B42F02C
:1020A00001021A631A6B02F001020292029A03946F
:1020B0001A6B42F002021A631A6B02F002020392D8
:1020C000039A04941A6B42F040021A631A6B02F0EE
:1020D00040020492049A05941A6B42F004021A63B7
:1020E0001A6B02F004020592059A06941A6B42F0EC
:1020F00008021A631B6B03F00803069302250E26E1
:10210000069B0B964FF4806307A9CDE90735CDE90F
:10211000094507F0B1F941F658032C480B9607A979
:10212000CDE907350927CDE9094507F0A5F90323CE
:1021300027480B9707A9CDE90735CDE9094507F0F1
:102140009BF94FF4706322480B9607A9CDE9073538
:10215000CDE9094507F090F94FF40C631D480B9643
:1021600007A9CDE90735CDE9094507F085F9C02371
:1021700019480B9607A9CDE90735CDE9094507F0C0
:102180007BF9082315480B9607A9CDE90735CDE95A
:10219000094507F071F94FF4A0530E480B9707A9B2
:1021A000CDE90735CDE9094507F066F95820224603
:1021B000052107F017F8582007F046F819B0F0BDD0
:1021C0000068014000380240001402400000024054
:1021D000000402400018024000080240000C0240C7
:1021E00010B5044688B01422002103A826F047F851
:1021F0002268144B9A4223D103F5684300210191D0
:102200005A6C114842F480125A645A6C02F48012DB
:102210000192019A02911A6B42F020021A631B6B21
:1022200003F020030293029B4FF460720223032108
:10223000CDE903230523CDE9061303A907F01CF913
:1022400008B010BD00500140001402402DE9F041DB
:1022500086B0002303932B4B1C68002C4FD14FF00A
:102260000108C3F80080284B00949A6B274842EA83
:1022700008029A639B6B03EA080300930227032674
:102280000C25009B01A94FF63F03CDE90137CDE9AD
:10229000046507F0F1F81E48059501A9CDE901870D
:1022A000CDE9034607F0E8F848F2331319480595DD
:1022B00001A9CDE90137CDE9034607F0DDF84FF676
:1022C00083731548059501A9CDE90137CDE903468A
:1022D00007F0D2F84CF203731048059501A9CDE937
:1022E0000137CDE9034607F0C7F860230C48059590
:1022F00001A9CDE90137CDE9034607F0BDF806B0E5
:10230000BDE8F0812830002000380240001402406F
:10231000000802400018024000100240000C024079
:102320000004024070B588B000230293204B1A6C61
:1023300042F010021A641B6C03F01003029305466E
:1023400001A903A8029B08F077FA069B4BBB08F093
:1023500053FA184E184B336040F2E733F360174BD3
:10236000B0FBF3F3013B7360304600233361B3608D
:10237000B36109F09FF8044680B9304608F070FF59
:10238000044658B9362006F05FFF0F2D0DD82246BF
:102390002946362006F026FF094B1D60204608B06E
:1023A00070BD08F029FA4000D3E70124F6E700BF2A
:1023B000003802402C3000200010004040420F0046
:1023C0007C0000207047FEE7FEE7FEE7FEE770476F
:1023D000014808F083BF00BF2C300020014807F0FF
:1023E000B3BE00BFE42E0020014806F077BF00BF57
:1023F000E02F00200120704708B525F0E3FF1623E9
:1024000003604FF0FF3008BD08B525F0DBFF162351
:102410000360FEE770B50D4614460E46731B9C42E2
:1024200001DC204670BDAFF3008006F8010BF5E734
:102430004FF0FF3070474FF400534B60002070475F
:10244000012070470020704710B54FF0FF3314464D
:10245000024892B209F0DFF9204610BDD02D0020CD
:102460000A4A116808B5034609B90949116010689C
:10247000694603448B4206D925F0A4FF0C23036070
:102480004FF0FF3008BD1360FCE700BF7430002040
:10249000A04C0120704708B50C2924D8DFE801F0D2
:1024A000070B0F13171F1F1F1F1B1F1F1F0004F0F9
:1024B0003BF9006808BD04F037F94068FAE704F01A
:1024C00033F98068F6E704F02FF9C068F2E704F00A
:1024D0002BF90069EEE704F027F98069EAE704F0D8
:1024E00023F94069E6E70020E4E710B5042104463B
:1024F00024F070FD204610BD004870475CA502081E
:102500000520704713B5002451B1036801948DF87C
:10251000034001AA9C680DF10303A04702B010BD5F
:102520000846FBE7C0897047008A7047C08870473B
:1025300080887047807A00F07F007047807AC009F9
:1025400070470020704700009FED010A704700BFF0
:102550000000000070477047704770477047704731
:1025600030B5036885B06D460181D3F884300146EB
:1025700004462846984795E807003C3484E807005D
:1025800005B030BD30B5036885B06D464181D3F8E4
:102590008430014604462846984795E807003C34B5
:1025A00084E8070005B030BD0022028042808280AE
:1025B000C280704780F83610704770B503680446D3
:1025C0001B6B154698472368294620465B6EBDE87D
:1025D0007040184700207047806C70477047704704
:1025E000704710B50821044624F0F4FC204610BDC5
:1025F00010B54C21044624F0EDFC204610BD10B56A
:102600002C21044624F0E6FC204610BD0B898A8963
:10261000D21A4B89C988591A12B209B213F022B9D9
:1026200010B5034B0360044610F002FB204610BDBA
:10263000D0A6020810B5064B0360044610F0F8FA65
:10264000204641F2B85124F0C5FC204610BD00BF21
:10265000D0A6020808B590F826300BB1FEF704FFAB
:1026600008BD08B5FEF700FF08BD0000036870B59F
:102670005E6B124B1B6804468DB22BB9104B114A8E
:102680006C21114825F0E2FB1049828D09889142A6
:1026900003D80F4B0B4A6D21F3E713F812200D4BB3
:1026A0001B6853F8220003681B6B9847291A3346AE
:1026B000204609B2BDE87040184700BFB83F01206E
:1026C000F2930208349402086F940208BC3F012080
:1026D000B6940208C03F012010B500F58054D4F82C
:1026E000B4350133B42BC4F8B43506D111F09AFFD8
:1026F00000F0FAFF0023C4F8B43510BD00224FF0FB
:10270000FF31C0E900218260704770B5036804465C
:102710001B6B154698472368294620465B6BBDE82E
:102720007040184770B504461D46BDF91060FFF7AC
:10273000ECFF2368294620469B6B98472368314667
:102740002046DB6BBDE8704018470000094A026074
:102750004FF4807100228184FF21C0E90122C0E989
:102760000322C0E90522C0E9072280F82610826210
:10277000704700BF9CB202084FF4807181840D49FC
:1027800001600D4981624FF6FF7181854FF47F0131
:10279000002241634FF0FF31C0E90122C0E903226A
:1027A000C0E90522C0E90722C0E9101202630287CE
:1027B000C26370470CB20208C8A502082DE9F04FA9
:1027C000044691B027464FF0000B13F021FED44B86
:1027D000C4F83CB047F8403B04F16C063846FFF7BC
:1027E000B5FF04F198083046FFF7B0FF4046FFF709
:1027F000ADFF04F1C40318460593FFF7A7FF04F1EA
:10280000F003184606930DF03DFF04F59C7318463F
:102810000993FEF757FEC34BC4F838312433C4F88C
:10282000403104F5A6731846C4F844B1BE4D089370
:102830004FF00109FFF78AFF04F5BC7304F5D27A63
:102840001846C4F84C5184F870910793FFF77EFF47
:10285000C4F8785184F89C915046FFF78DFF04F539
:10286000F67318460293FFF787FF04F50D731846B9
:10287000AE4D0393FFF780FF04F52073C4F8345284
:102880001846C4F87CB20493FFF776FF04F5805332
:10289000C4F88052C4F8C8B2F025C3F8B4B54FF4F8
:1028A000965104F53D7010F0B9F95A463846009536
:1028B0004FF4A073594604F10409FFF733FF4FF0BA
:1028C0007F433946A36648460BF09AF94FF0FF372D
:1028D0004FF4A0735A46304600955946FFF722FF41
:1028E0003146C4F8947048460BF08AF90222EC2372
:1028F0001146404600934FF49F73FFF713FF8C4B34
:10290000C4F8C030414648460BF07AF95A4605985B
:1029100000950323A021FFF705FFDC230599C4F8E8
:10292000EC7084F8EA3048460BF06AF90E23722204
:10293000069800939B21FFF7F5FEC023C4F82431CD
:102940004FF43453C4F82C317A4BC4F8443149F66F
:102950006103A4F84831099B0699C4F81831C4E909
:10296000475548462825C4F830B1C4F828B10BF0C3
:1029700047F905236422089800950821FFF7D2FE45
:102980000899C4F8747148460BF03AF9052364229B
:10299000079800954FF49A71FFF7C4FE4FF0340882
:1029A0000799C4F8A07148466D440BF029F9132328
:1029B0005F225046CDF800807421FFF7B3FE5146E8
:1029C000C4F8D4712846A4F8D8B10EF067FC95E895
:1029D000070004F5F07686E807004FF00302514641
:1029E00084F8DD2128460EF059FC95E807004FF0E9
:1029F000010386E80700514684F8DC3128460EF0D2
:102A00004DFC95E80700152386E8070050464A4E1E
:102A1000ADF83C300EA90E960EF0E8FE6FF04101C5
:102A200084F8DA11484651460BF0EAF813235F2286
:102A30000298CDF80080BB21FFF774FE0299C4F81C
:102A40001C722846A4F820B20EF028FC95E8070076
:102A500004F50A7888E807004FF00302029984F829
:102A60002522284617460EF019FC95E8070088E84D
:102A70000700029984F8247228460EF00FFC95E8AE
:102A8000070088E807000EAA122311460298ADF845
:102A90003C300E960EF0AAFE6FF0410184F822122F
:102AA00048460299DFF8ACA00BF0AAF87022039810
:102AB0003521FFF72AFE214BC4F86432D4F83432B2
:102AC0000399D3F88430A4F868B22846984795E86B
:102AD000070004F51C774FF0010387E8070084F82E
:102AE0006C32D4F834320399D3F8843028469847AE
:102AF00095E80700DAF8003087E8070004F5337737
:102B00002BB90F4B0F4A60210F4825F09FF90F4B4F
:102B10001B88092B20D80E4B0A4A6121F4E700BF1D
:102B2000D0A60208CCAF020868A60208D8A5020801
:102B300037380CFF0C0C99FFC8A502085FABDEFF0D
:102B4000F2930208F49402086F940208BC3F01203B
:102B5000B6940208B83F0120DFF8F0800921D8F8C8
:102B6000000003F0D1FD364A03460A21384615F02D
:102B70002FF90398C4F87C720EF018FED2271423A4
:102B80000398ADF83C300EA90E960EF02FFE039977
:102B900084F86A7248460BF033F86F220498F321E8
:102BA000FFF7B3FD274BC4F8B032D4F88032049954
:102BB000D3F88430A4F8B4B22846984795E80700C3
:102BC00004F52F7B4FF003038BE8070084F8B8323D
:102BD000D4F880320499D3F884302846984795E891
:102BE0000700DAF800308BE8070004F53875002B91
:102BF00087D0154B1B88092B8DD9D8F800000921E7
:102C000003F082FD0E4A03460A21284615F0E0F83B
:102C10000498C4F8C8520EF0C9FD13230498ADF807
:102C20003C300EA90E960EF0E1FD4846049984F85A
:102C3000B6720AF0E5FF204611B0BDE8F08F00BF84
:102C40003F9502085FABDEFFBC3F0120C43F01207F
:102C50007047000010B5034B036004460FF0E8FF17
:102C6000204610BD04A7020810B5064B03600446B9
:102C70000FF0DEFF204641F2B45124F0ABF92046BC
:102C800010BD00BF04A702082DE9F04F044691B023
:102C90002546002613F0BCFB834BE66345F8403B1A
:102CA0002846FFF753FD04F16C03184604F1980A17
:102CB000059304F1C409FFF749FD5046FFF746FDAF
:102CC0004846FFF743FD04F1F0031846774F089399
:102CD0004FF00108FFF73AFD04F58E731846C4F86B
:102CE000F07084F814810793FFF730FD84F8408179
:102CF00004F5A478C4F81C7140466D4F04F5CA7BF6
:102D0000FFF73AFDC4F84871C4F890615846FFF7E0
:102D100033FD04F5F073C4F894711846C4F8DC610F
:102D20000393FFF729FD04F50A7318460493FFF790
:102D300023FD04F51C73184606930DF0A3FC04F55F
:102D40002E7318460993FEF7BDFB5A4BC4F8B832F0
:102D50002433C4F8C0324FF4965104F53D70C4F8E2
:102D6000C4620FF05BFFF0233246284600933146E1
:102D70004FF4A073FFF7D6FC271D4FF07F43294681
:102D8000A36638460AF03CFFF023324605980093CC
:102D900031464FF4A073FFF7C5FC4FF0FF330599A0
:102DA000C4F8943038460AF02BFF0222EC23114677
:102DB000504600934FF49E73FFF7B4FC3E4BC4F8AB
:102DC000C030514638460AF01BFFF02332464846D1
:102DD0000093A0210323FFF7A5FC4FF0FF33C4F8B5
:102DE000EC30DC234946282584F8EA3038460AF0DE
:102DF00007FF64220898009505230821FFF792FC3D
:102E00004FF0FF330899C4F8183138460AF0F8FE3D
:102E1000642207980095052340F23311FFF782FCE6
:102E20004FF0FF33C4F844310799DFF8A8A03846C3
:102E30000AF0E6FE1622B8214046FFF766FC1F4B5B
:102E4000C4F87831D4F84831A4F87C616D44D3F8E3
:102E5000843041462846984795E8070004F5C27932
:102E60004FF0030389E8070084F88031D4F8483133
:102E70004146D3F884302846984795E80700DAF8A9
:102E8000003089E8070004F533792BB90C4B0D4A63
:102E900060210D4824F0DAFF0C4B1B88062B1BD851
:102EA0000B4B084A6121F4E704A7020868A6020850
:102EB000D8A50208CCAF020837380CFF565659FF88
:102EC000F2930208F49402086F940208BC3F0120B8
:102ED000B6940208B83F01207E4B0621186803F023
:102EE00013FC7D4A03460A21484614F071FF404610
:102EF000C4F890910EF05AFCDFF8EC91CDF83890C0
:102F0000212340460EA9ADF83C300EF06FFC41463F
:102F100038460AF075FEC32275215846FFF7F5FBC7
:102F2000D4F894316D4AD3F88430C4F8C42159469A
:102F30002846A4F8C861984795E8070004F5E878A2
:102F4000D4F8943188E807004FF00102D3F88430B8
:102F500084F8CC2159462846984795E80700DAF8C6
:102F6000003088E8070004F53878002B8ED05C4AE2
:102F70001388052B94D9574B0521186803F0C4FB1F
:102F8000554A03460A21404614F022FFC4F8DC816A
:102F900058460EF00BFC20230EA95846ADF83C30E5
:102FA0004FF0340ACDF838900EF020FC59463846E0
:102FB0000AF026FE0398CDF800A0B42213238C213A
:102FC000FFF7B0FB4FF0FF33C4F810320399A4F8B9
:102FD000146228460EF062F995E8070004F50778B8
:102FE00088E807004FF00102039984F81822284668
:102FF0000EF054F995E807001F2388E807000398AE
:10300000ADF83C300EA94FF0BE08CDF838900EF068
:10301000EDFB039984F8168238460AF0F1FD049816
:10302000CDF800A007221323A521FFF77BFB4FF06B
:10303000FF330499C4F858322846A4F85C620EF0B5
:103040002DF995E8070004F5197A4FF003038AE893
:103050000700049984F8603228460EF01FF995E8BD
:1030600007001E238AE807000498ADF83C300EA93B
:10307000CDF838900EF0BAFB049984F85E82384699
:103080000AF0BEFD0E230698009372229A21FFF7E4
:1030900049FBF023C4E9A733C023C4F8A4324FF49A
:1030A0003453C4F8AC320F4BC4F8C43249F6610350
:1030B000A4F8C832099B0699C4F8B0623846C4F82F
:1030C000A862C4F898320AF09BFD204611B0BDE812
:1030D000F08F00BFC43F01203F950208565659FFAC
:1030E000BC3F01200C0C99FFC8A50208704770472F
:1030F000704730B4C26844685510034604EB620060
:10310000D20748BF62599B6830BC48BFD3581847A4
:103110000346406830B19A681AB9D86800F00100D7
:1031200070470120704710B51021044623F052FF6C
:10313000204610BD10B54FF4CC71044623F04AFF71
:10314000204610BD9830884208B505D111F06AFAC2
:10315000BDE8084000F078BA08BD0000F8B5194B8A
:10316000018F1B888B4206462AD9174B1B682BB947
:10317000164B174A17486C2124F068FE13F81120EB
:10318000154B1B6853F82250144B186803F0BCFA17
:103190002B6807469B6B284698472B6804469B6C18
:1031A0003946284698472B6814FB00F45B6A394679
:1031B00028469847A4B223181BB2A6F84630F8BD9B
:1031C0000023FAE7BC3F0120B83F0120F293020838
:1031D000349402086F940208C03F0120C43F0120CC
:1031E0002DE9F04F04468BB0A246002513F010F9EC
:1031F0006B4BE5634AF8403B04F16C0B504604F11D
:103200009809FFF7A3FA5846FFF7A0FA04F1E00681
:1032100048460EF047FE3046FFF7AEFA04F59678C2
:10322000604BC4F8E030C4F828514046FFF7A4FAD8
:103230005D4BC4E962345D4BC4E96435F0232A4632
:103240005046009329464FF4A073FFF76BFA271DF1
:103250004FF07F435146A36638460AF0D1FCF02375
:103260002A465846009329464FF4A073FFF75AFAAE
:103270004F4BC4F89430594638460AF0C1FC4846D2
:10328000A4225B21FFF741FA08AA07A94846ADF836
:103290001C50ADF820500EF0FCFA23234846A4F849
:1032A000D030FFF75BFF434ADFF82CA14FF0FF332C
:1032B000C4E9352304F5C473C4F8C0304946384620
:1032C0000AF09EFC5D2269213046FFF71EFAD4F811
:1032D000E030C4F810A10DF10809D3F88430A4F847
:1032E000145131464846984799E8070004F58E7313
:1032F00083E80700304B1B6804F5BA7B2BB92F4BD2
:103300002F4A60212F4824F0A1FD2F4B1B881BB9A9
:103310002E4B2B4A6121F5E72D4B2946186803F007
:10332000F3F92C4A03460A21584614F051FDC4F81B
:1033300028B130460EF03AFADFF8A0B0CDF820B050
:10334000282308A93046ADF824300EF04FFA314654
:1033500038460AF055FC1C2240465B21FFF7D5F9A0
:1033600041464846C4F85CA1A4F860510DF096FFB0
:1033700099E8070004F5B47383E80700222308A93D
:103380004046ADF82430CDF820B00EF02FFA384684
:1033900041460AF035FC20460BB0BDE8F08F00BF77
:1033A00050A70208D8A5020838A70208453100082E
:1033B000EDDCADFFF5F1EDFFB83F0120F29302081F
:1033C000F49402086F940208BC3F0120B6940208EE
:1033D000C43F01203F95020869463FFFC8A5020887
:1033E0007047704700F598730868496803C37047D1
:1033F000704770474160704710B50022B1F908402E
:10340000B1F90A10028042808480C18010BD7047EB
:1034100070477047064BC0F84C310023C0F850315C
:1034200000F5A273C0F84801C0F84031704700BFF2
:103430007D3C000801230372704770477047704756
:1034400001464068036810315B6E184701464068CA
:10345000036810311B6E1847704710B4C26841688A
:103460005410034601EB6200D20748BF0A599B681B
:103470005DF8044B48BFD35818470346406830B145
:103480009A681AB9D86800F00100704701207047A7
:1034900010B50C21044623F09DFD204610BD10B54B
:1034A0001021044623F096FD204610BD10B54FF4C0
:1034B000AE71044623F08EFD204610BD10B53821B4
:1034C000044623F087FD204610BD10B52821044690
:1034D00023F080FD204610BD10B511F0A3F803685D
:1034E000BDE81040DB6B184737B50446807A637A35
:1034F0000130C0B29842A07205D901232372002383
:10350000A37203B030BDB4F90C20002113F032F9DE
:10351000C30707D500284FF6FF73C8BF012313FA6E
:1035200080F000B2144BE0811988258B83B21348D8
:10353000B0F90000ADF80600CA1A60682B445B1AA7
:1035400012B2ADF8043003682283ADF800200022E7
:103550001B69ADF8022069469847A37A012BD0D1A8
:10356000074B1B78002BCCD011F05CF803B0BDE802
:10357000304011F05DB800BF543F0120563F01209C
:103580005E3F012010B50446D0F8400158B10368F1
:10359000DB68984738B1D4F8400103689B689847C6
:1035A0000023C4F8403110BD044B1B6893F8582029
:1035B0000AB1D86C00B99868704700BF603F01201D
:1035C000F8B5174604460E4611F016F9124B1C606A
:1035D000124B2360124B0025C4E95135114BC4E94D
:1035E00053551868036829469B68C4E94F55C4E9D8
:1035F00055769847284603F04BF8FFF7D5FF1BF0A8
:10360000E6FBFFF7D1FF1BF05DFCFFF7CDFF1BF0E2
:1036100065FC2046F8BD00BFB43F012004A80208A5
:10362000ECA70208603F0120064BC0F84C31002394
:10363000C0F8503100F5A273C0F84801C0F840311D
:10364000704700BF7D3C0008064BC0F84C3100239A
:10365000C0F8503100F5A273C0F84801C0F84031FD
:10366000704700BFE5410008064BC0F84C3100230D
:10367000C0F8503100F5A273C0F84801C0F84031DD
:10368000704700BF313B0008064BC0F84C310023A7
:10369000C0F8503100F5A273C0F84801C0F84031BD
:1036A000704700BFAD400008064BC0F84C31002306
:1036B000C0F8503100F5A273C0F84801C0F840319D
:1036C000704700BFE5390008064BC0F84C310023B5
:1036D000C0F8503100F5A273C0F84801C0F840317D
:1036E000704700BF713F0008064BC0F84C31002303
:1036F000C0F8503100F5A273C0F84801C0F840315D
:10370000704700BF99380008064BC0F84C310023C1
:10371000C0F8503100F5A273C0F84801C0F840313C
:10372000704700BF353E0008064BC0F84C310023FF
:10373000C0F8503100F5A273C0F84801C0F840311C
:10374000704700BF5137000803685B6A18470000E4
:103750002DE9F14FD0E9556A0746B06803681B6A46
:103760009847B0F5CC7F05D2434B444AA321444847
:1037700024F06CFB706803681B6A98470F2803D815
:10378000404B3E4AA421F2E7F06803681B6A984761
:103790000B2803D83C4B394AA521E8E710F042FF3B
:1037A000DFF8EC90043010F08AFFD9F8000010B177
:1037B0000368DB689847D9F8000010B103681B68FC
:1037C0009847DFF8D080D8F8000010B103685B6933
:1037D0009847D7F83C0110B103685B689847D8F860
:1037E000000010B103681B689847D7F83C0110B17E
:1037F00003689B689847F0680021FFF7A5FF4FF02A
:10380000000B224BC0F804B0044680F808B00360F7
:10381000B068036859465B6A9847054603F030FC78
:103820007068036859465B6A98472946064603F064
:1038300003FC331DC7F83C61C9F80040C8F80050CC
:10384000CAF800302B68C6F808A02846DB68EE638B
:103850009847336830461B6898472146284612F03F
:1038600083FF236820461B69984723685B692046CD
:1038700001B0BDE8F04F184742950208D095020804
:10388000A6960208ED9602089097020858A802082A
:10389000A83F0120A43F01202DE9F14FD0E9556A4E
:1038A0000746B06803681B6A984741F2E3539842A1
:1038B00005D8444B444AA321444824F0C7FA706811
:1038C00003681B6A98470F2803D8414B3E4AA4213E
:1038D000F2E7F06803681B6A98470B2803D83D4B52
:1038E000394AA521E8E710F09DFEDFF8F09004309A
:1038F00010F0E5FED9F8000010B10368DB689847C6
:10390000D9F8000010B103681B689847DFF8D08031
:10391000D8F8000010B103685B699847D7F83C01FC
:1039200010B103685B689847D8F8000010B10368CD
:103930001B689847D7F83C0110B103689B6898470B
:10394000F0680021FFF700FF4FF0000B224BC0F89A
:1039500004B0044680F808B00360B06803685946B4
:103960005B6A9847054602F0D9FF706803685946BC
:103970005B6A98472946064602F0A4FF331DC7F844
:103980003C61C9F80040C8F80050CAF800302B6804
:10399000C6F808A02846DB68EE63984733683046CF
:1039A0001B6898472146284612F0DEFE2368204611
:1039B0001B69984723685B69204601B0BDE8F04F5A
:1039C000184700BF4295020833980208A6960208DD
:1039D000ED9602089097020858A80208A83F012017
:1039E000A43F01202DE9F14FD0E9556A0746B068A0
:1039F00003681B6A984741F24B63984205D8444BD1
:103A0000444AA321444824F021FA706803681B6AE1
:103A100098470F2803D8414B3E4AA421F2E7F068AB
:103A200003681B6A98470B2803D83D4B394AA521E8
:103A3000E8E710F0F7FDDFF8F090043010F03FFEFB
:103A4000D9F8000010B10368DB689847D9F8000086
:103A500010B103681B689847DFF8D080D8F80000E1
:103A600010B103685B699847D7F83C0110B103684F
:103A70005B689847D8F8000010B103681B68984746
:103A8000D7F83C0110B103689B689847F0680021A3
:103A9000FFF75AFE4FF0000B224BC0F804B004466B
:103AA00080F808B00360B068036859465B6A9847BD
:103AB000054604F05BFA7068036859465B6A9847EC
:103AC0002946064604F026FA331DC7F83C61C9F8BA
:103AD0000040C8F80050CAF800302B68C6F808A0AB
:103AE0002846DB68EE639847336830461B68984782
:103AF0002146284612F038FE236820461B69984765
:103B000023685B69204601B0BDE8F04F184700BF4D
:103B1000429502080B990208A6960208ED96020843
:103B20009097020858A80208A83F0120A43F01204E
:103B30002DE9F14FD0E9556A0746B06803681B6A62
:103B4000984741F2FB63984205D8444B444AA3216D
:103B5000444824F07BF9706803681B6A98470F2873
:103B600003D8414B3E4AA421F2E7F06803681B6A80
:103B700098470B2803D83D4B394AA521E8E710F0B8
:103B800051FDDFF8F090043010F099FDD9F80000F5
:103B900010B10368DB689847D9F8000010B10368DA
:103BA0001B689847DFF8D080D8F8000010B1036890
:103BB0005B699847D7F83C0110B103685B68984788
:103BC000D8F8000010B103681B689847D7F83C018B
:103BD00010B103689B689847F0680021FFF7B4FDB7
:103BE0004FF0000B224BC0F804B0044680F808B038
:103BF0000360B068036859465B6A9847054603F05E
:103C00005FFB7068036859465B6A98472946064619
:103C100003F02AFB331DC7F83C61C9F80040C8F81F
:103C20000050CAF800302B68C6F808A02846DB68A8
:103C3000EE639847336830461B689847214628460C
:103C400012F092FD236820461B69984723685B6940
:103C5000204601B0BDE8F04F184700BF429502086A
:103C6000E7990208A6960208ED96020890970208C6
:103C700058A80208A83F0120A43F01202DE9F14FD8
:103C8000D0E9556A0746B06803681B6A984741F651
:103C90007B03984205D8444B444AA321444824F06E
:103CA000D5F8706803681B6A98470F2803D8414B02
:103CB0003E4AA421F2E7F06803681B6A98470B2884
:103CC00003D83D4B394AA521E8E710F0ABFCDFF8FB
:103CD000F090043010F0F3FCD9F8000010B1036844
:103CE000DB689847D9F8000010B103681B68984753
:103CF000DFF8D080D8F8000010B103685B699847FE
:103D0000D7F83C0110B103685B689847D8F8000009
:103D100010B103681B689847D7F83C0110B10368DD
:103D20009B689847F0680021FFF70EFD4FF0000BED
:103D3000224BC0F804B0044680F808B00360B068B5
:103D4000036859465B6A9847054604F00BFD7068A6
:103D5000036859465B6A98472946064604F0E0FC2A
:103D6000331DC7F83C61C9F80040C8F80050CAF8D4
:103D700000302B68C6F808A02846DB68EE63984739
:103D8000336830461B6898472146284612F0ECFC01
:103D9000236820461B69984723685B69204601B069
:103DA000BDE8F04F184700BF42950208BF9A0208CD
:103DB000A6960208ED9602089097020858A80208F5
:103DC000A83F0120A43F012003685B6A1847000058
:103DD000002370B5C0E90533C0E90733C0E90933F2
:103DE000C0E90B33436003728372C3814FF4807365
:103DF00043630C4B03610C4B4172B3F900100B4B46
:103E00000B4AB3F90060026000F11005044681819D
:103E10002846FDF773FA28463146FDF771FA204629
:103E200070BD00BF84A70208543F0120563F012007
:103E30007CA802082DE9F047D0E9556A0746B0682A
:103E400003681B6A984741F2BB53984205D8414B1F
:103E5000414AA321414823F0F9FF706803681B6AB7
:103E600098470F2803D83E4B3B4AA421F2E7F0685D
:103E700003681B6A9847372803D83A4B364AA5216E
:103E8000E8E710F0CFFBDFF8E090043010F017FC0B
:103E9000D9F8000010B10368DB689847D9F8000032
:103EA00010B103681B689847DFF8C080D8F800009D
:103EB00010B103685B699847D7F83C0110B10368FB
:103EC0005B689847D8F8000010B103681B689847F2
:103ED000D7F83C0110B103689B689847F06800214F
:103EE000FFF772FF14210446FFF772FFB068036802
:103EF00000215B6A9847054602F086FC70680368FB
:103F000000215B6A98472946064602F047FC331DAC
:103F1000C7F83C61C9F80040C8F80050CAF8003042
:103F20002B68C6F808A02846DB68EE63984733681C
:103F300030461B6898472146284612F015FC236836
:103F400020461B699847236820465B69BDE8F04717
:103F5000184700BF42950208999B0208A6960208DE
:103F6000ED96020890970208A83F0120A43F012087
:103F70002DE9F047D0E9556A0746B06803681B6A27
:103F8000984741F22363984205D8414B414AA32107
:103F9000414823F05BFF706803681B6A98470F284D
:103FA00003D83E4B3B4AA421F2E7F06803681B6A42
:103FB0009847372803D83A4B364AA521E8E710F04E
:103FC00031FBDFF8E090043010F079FBD9F8000005
:103FD00010B10368DB689847D9F8000010B1036896
:103FE0001B689847DFF8C080D8F8000010B103685C
:103FF0005B699847D7F83C0110B103685B68984744
:10400000D8F8000010B103681B689847D7F83C0146
:1040100010B103689B689847F0680021FFF7D4FE51
:1040200014210446FFF7D4FEB068036800215B6AE0
:104030009847054603F010FF7068036800215B6A2B
:1040400098472946064603F0D1FE331DC7F83C6168
:10405000C9F80040C8F80050CAF800302B68C6F80C
:1040600008A02846DB68EE639847336830461B6833
:1040700098472146284612F077FB236820461B69A3
:104080009847236820465B69BDE8F047184700BFA2
:10409000429502088D9C0208A6960208ED96020839
:1040A00090970208A83F0120A43F01202DE9F04786
:1040B000D0E9556A0746B06803681B6A9847B0F5AF
:1040C000B85F05D2404B414AA321414823F0BEFED0
:1040D000706803681B6A98470F2803D83D4B3B4A1A
:1040E000A421F2E7F06803681B6A9847372803D8D1
:1040F000394B364AA521E8E710F094FADFF8DC9056
:10410000043010F0DCFAD9F8000010B10368DB6865
:104110009847D9F8000010B103681B689847DFF88A
:10412000C080D8F8000010B103685B699847D7F8E1
:104130003C0110B103685B689847D8F8000010B1E3
:1041400003681B689847D7F83C0110B103689B6867
:104150009847F0680021FFF737FE14210446FFF767
:1041600037FEB068036800215B6A9847054603F094
:1041700021F87068036800215B6A98472946064663
:1041800002F0E2FF331DC7F83C61C9F80040C8F8EF
:104190000050CAF800302B68C6F808A02846DB6833
:1041A000EE639847336830461B6898472146284697
:1041B00012F0DAFA236820461B69984723682046E4
:1041C0005B69BDE8F047184742950208859D0208E3
:1041D000A6960208ED96020890970208A83F0120D3
:1041E000A43F01202DE9F047D0E9556A0746B068A1
:1041F00003681B6A984741F67B03984205D8414BF8
:10420000414AA321414823F021FE706803681B6ADC
:1042100098470F2803D83E4B3B4AA421F2E7F068A9
:1042200003681B6A9847372803D83A4B364AA521BA
:10423000E8E710F0F7F9DFF8E090043010F03FFA0B
:10424000D9F8000010B10368DB689847D9F800007E
:1042500010B103681B689847DFF8C080D8F80000E9
:1042600010B103685B699847D7F83C0110B1036847
:104270005B689847D8F8000010B103681B6898473E
:10428000D7F83C0110B103689B689847F06800219B
:10429000FFF79AFD14210446FFF79AFDB068036802
:1042A00000215B6A9847054604F05CFA7068036871
:1042B00000215B6A98472946064604F031FA331D0F
:1042C000C7F83C61C9F80040C8F80050CAF800308F
:1042D0002B68C6F808A02846DB68EE639847336869
:1042E00030461B6898472146284612F03DFA23685D
:1042F00020461B699847236820465B69BDE8F04764
:10430000184700BF42950208799E0208A696020847
:10431000ED96020890970208A83F0120A43F0120D3
:10432000406A7047806A704770478B88C0690A6826
:10433000DB0A50F823001044704710B50446BAB1A8
:10434000107B68B1537BD27A1B0203F4E0631A43FB
:10435000236A03EB82031A888A4202D193F902008E
:1043600010BD05D8013880B204330028F3D1F7E737
:104370000020F5E710B52C21044622F02BFE204644
:1043800010BD000030B58BB00446BDF860500895F4
:10439000BDF85C5007959DF8505006959DF84C501F
:1043A00005959DF8485004959DF8445003959DF857
:1043B000405002959DF83C500195BDF8385000954D
:1043C00011F0A0FD064B2360159BE361169B236251
:1043D000199B63621A9BA36220460BB030BD00BFDD
:1043E000A0A802087047000010B5034B0360044604
:1043F0000EF01EFC204610BD70A9020810B5064B39
:10440000036004460EF014FC204641F2FC6122F0E9
:10441000E1FD204610BD00BF70A9020810B500F5EF
:104420008054D4F8F8360133B42BC4F8F83606D1EA
:1044300010F0F8F8FFF718F90023C4F8F83610BDAB
:104440000022C0E90122C0E90322C0E90522C0E937
:1044500007224FF480728284014A0260704700BFD5
:1044600008A9020838B5262204460D46002123F08B
:1044700006FF2046FFF7E4FF064B23602B88E3840A
:10448000FF23204684F8283029460DF0C9FB20463A
:1044900038BD00BF6CB302082DE9F04F044699B057
:1044A000A046002511F0B4FFE04BE56348F8403B1F
:1044B00004F16C094046FEF749F94FF6FF7616A95C
:1044C0004846ADF85860FFF7CDFF04F19803184651
:1044D0000993FEF73BF904F1C40318460A93FEF76B
:1044E00035F904F1F00318460B93FEF72FF904F5A4
:1044F0008E7318460C930CF0C5F804F5B273184689
:104500001193FCF7DFFFCA4BC4F864312433C4F8BD
:104510006C3104F5BC731846C4F87051C54F109344
:104520004FF0010AFEF712F904F5D27304F5E87BA7
:104530001846C4F8787184F89CA10F93FEF706F929
:10454000C4F8A47184F8C8A1584604F5067AFEF7A9
:1045500013F95046FEF710F904F518731846B64FD4
:104560000E93FEF7F3F804F52573C4F8607218464D
:10457000C4F88C52A4F890520D93FEF7E7F804F5B6
:104580003273C4F894721846C4F8C052A4F8C452E6
:10459000AA4F0393FEF7F0F804F54573C4F8C87208
:1045A00016A91846C4F810530593ADF85860FFF7E4
:1045B00059FF04F5507316A918460693ADF85860D4
:1045C000FFF750FF04F55B7316A918460793ADF883
:1045D0005860FFF747FF04F5667318460493FEF72B
:1045E000CBF804F57973C4F8987316A91846C4F883
:1045F000E0530893ADF85860FFF734FF04F580539B
:10460000F027C3F8F8564FF4965104F587600EF082
:1046100005FB2A46404600974FF4A0732946261D05
:10462000FEF780F84FF07F43A3664146304609F01D
:10463000E7FA48462A463821FEF767F84FF00402A9
:10464000484616A9ADF858200DF0EAFA494630461A
:1046500009F0D6FA2A46099800974FF4A073294624
:10466000FEF760F84FF0FF330999C4F8C0303046C8
:1046700009F0C6FA0222EC2311460A9800934FF47F
:104680009E73FEF74FF86E4B0A99C4F8EC30304633
:1046900009F0B6FA2A460B9800970323A021FEF7EB
:1046A00041F84FF0FF33C4F81831DC230B9984F83C
:1046B0001631304609F0A4FA0E2372220C980093AA
:1046C0009A21FEF72FF8C023C4F850314FF4345329
:1046D000C4F858315B4BC4F8703149F66103A4F853
:1046E0007431119B0C99C4F84431C4E952773046B7
:1046F0001427C4F85C51C4F8545109F081FA6E22B1
:104700001098009705230721FEF70CF84FF0FF33B0
:104710001099C4F8A031304609F072FA6E220F9851
:10472000009705234FF49A71FDF7FCFF4FF0FF331C
:104730000F99C4F8CC31304609F062FA4FF03409D1
:104740005E2211465846CDF80090132312AFFDF7B4
:10475000E9FF4FF0FF335946C4F800323846A4F859
:1047600004520CF09BFD97E8070004F503784FF026
:10477000010388E80700594684F8083238460CF0EF
:104780008DFD97E80700304B169388E807000D234E
:1047900058464FF0BE0816A9ADF85C300DF026F86B
:1047A000594684F80682304609F02AFA1323504607
:1047B000CDF800905D22CC21FDF7B4FF4FF0FF3221
:1047C0005146C4F848223846A4F84C520CF066FD15
:1047D00097E8070004F515794FF0030B89E8070007
:1047E0005146384684F850B20CF058FD97E807005F
:1047F000154B169389E807000C23504616A9DFF8DD
:104800004C90ADF85C300CF0F1FF514684F84E82CC
:104810003046DFF83C804FF0780A09F0F1F90223C6
:104820003D220E98CDF800A0294613E070A9020899
:10483000CCAF020868A6020804B30208D8A5020893
:1048400037380CFF0C0C99FFC8A502086E0B00FF4F
:104850003493ADFFFDF766FFC4E9A2980E99A4F862
:104860009052304609F0CCF902233C220D98CDF845
:1048700000A04FF49F71FDF755FFC4E9AF980D9963
:10488000A4F8C452304609F0BBF96F220398DFF850
:10489000F4912E21FDF739FF724BC4F8F832D4F8A9
:1048A000C8320399D3F88430A4F8FC5238469847AC
:1048B00097E8070004F541784FF0010388E8070006
:1048C00084F80033D4F8C8320399D3F884303846DA
:1048D000984797E80700D9F8003088E8070004F502
:1048E00082682BB9604B614A6021614823F0AEFABF
:1048F000DFF894A1BAF80030082B03D85D4B5B4A6F
:104900006121F2E75C4B0821186801F0FDFE5B4A6B
:1049100003460A21404613F05BFA0398C4F810835B
:104920000CF044FF4FF0D2080B23554A0398ADF822
:104930005C3016A916920CF059FF039984F8FE8298
:10494000304609F05DF9E62205983821FDF7DDFED5
:104950000598ADF858B016A90DF062F905993046E2
:1049600009F04EF9E5220698DF21FDF7CEFE069804
:10497000ADF858B016A90DF053F90699304609F074
:104980003FF92A4607983821FDF7BFFE4FF0040192
:1049900016A8ADF85810014607980DF041F907998F
:1049A000304609F02DF96F220498F521FDF7ADFE90
:1049B000D4F898332B49D3F88430C4F8C813A4F83A
:1049C000CC5304993846984797E8070004F5757367
:1049D00083E80700D9F80030C4F8D4534FF0FF3013
:1049E000C4E9F60584F8D0B304F22445002B3FF463
:1049F00079AFBAF80030082B80D91F4B082118680E
:104A000001F082FE1D4A03460A21284613F0E0F910
:104A10000498C4F8E0530CF0C9FE0A23ADF85C30EA
:104A200016AB1946164A049816920CF0DFFE04994C
:104A300084F8CE83304609F0E3F802220898DF219B
:104A4000FDF763FE4FF004010898ADF8581016A961
:104A50000DF0E6F83046089909F0D2F8204619B072
:104A6000BDE8F08F5FABDEFFF2930208F49402081A
:104A70006F940208B6940208C43F01203F950208D3
:104A8000C8A50208B83F0120BC3F012070470000C4
:104A900010B5034B036004460EF0CAF8204610BD63
:104AA000A4A9020810B5064B036004460EF0C0F836
:104AB000204641F2CC6122F08DFA204610BD00BFA5
:104AC000A4A902082DE9F04F044697B0A24600269B
:104AD00011F09EFCA04BE6634AF8403B5046FDF7C0
:104AE00035FE04F16C03184604F19808099304F1AB
:104AF000C405FDF72BFE4046FDF728FE2846FDF7CE
:104B000025FE04F1F0031846944F0E934FF001096F
:104B1000FDF71CFE04F58E73184604F5A47BC4F85B
:104B2000F07084F814910D93FDF710FEC4F81C7119
:104B300084F840918A4F584604F5CA79FDF71CFE67
:104B4000C4F84871C4F890614846FDF715FE04F5B5
:104B5000F073C4F894711846C4F8DC610393FDF750
:104B60000BFE04F50A7318460493FDF705FE04F5E1
:104B70001C7318467B4F0C93FDF7E8FD04F5297371
:104B8000C4F870721846C4F89C62A4F8A0620B9333
:104B9000FDF7DCFD04F53673C4F8A47214A94FF6D2
:104BA000FF771846C4F8D062A4F8D4620593ADF834
:104BB0005070FFF757FC04F5417314A9184606938B
:104BC000ADF85070FFF74EFC04F54C7314A918466D
:104BD0000793ADF85070FFF745FC04F5577314A91F
:104BE00018460893ADF85070FFF73CFC04F562736B
:104BF00018460A930BF046FD04F5747318460F939C
:104C0000FCF760FC584BC4F8D0332433C4F8D833D5
:104C10004FF4965104F20C40C4F8DC630DF0FEFF33
:104C2000F02332465046009331464FF4A073FDF70F
:104C300079FD271D4FF07F435146A366384608F0A3
:104C4000DFFFF0234FF0FF3A3246099800933146D8
:104C50004FF4A073FDF766FD0999C4F894A0384697
:104C600008F0CEFF0222EC231146404600934FF499
:104C70009E73FDF757FD3D4BC4F8C03041463846A2
:104C800008F0BEFFF023324628460093A0210323FC
:104C9000FDF748FDDC23294684F8EA301425384620
:104CA000C4F8ECA008F0ACFF05236E220E98009526
:104CB0000721FDF737FD0E99C4F818A1384608F012
:104CC0009FFF05236E220D9800954FF49A71FDF712
:104CD00029FD0D99C4F844A1384608F091FF162229
:104CE000B8215846FDF711FD214BC4F87831D4F8AE
:104CF0004831A4F87C6110ADD3F884305946284679
:104D0000984795E8070004F5C2784FF0030388E858
:104D1000070084F88031D4F848315946D3F88430FC
:104D20002846984795E8070088E80700DFF858808C
:104D300004F579730993D8F800302BB90D4B0E4A5E
:104D400060210E4823F082F80D4B1B88012B1DD8E3
:104D50000C4B094A6121F4E7A4A9020868A60208DD
:104D6000D8A5020804B30208CCAF020837380CFFFC
:104D7000565659FFF2930208F49402086F94020801
:104D8000BC3F0120B6940208B83F0120AE4B012180
:104D9000186801F0B9FCAD4A03460A21099813F0DE
:104DA00017F80999C4F8901158460CF0FFFCA84B6D
:104DB00014935846192314A9ADF854300CF016FD7D
:104DC0005946384608F01CFFC32275214846FDF7B6
:104DD0009CFCD4F894319F49D3F88430C4F8C411B2
:104DE00028464946A4F8C861984795E8070004F5A5
:104DF000E87BD4F894318BE807004FF00101D3F839
:104E0000843084F8CC1128464946984795E8070035
:104E1000D8F800308BE8070004F57E7B002B8DD09E
:104E20008D490B88022B93D9874A0221106801F023
:104E30006BFC864A03460A21584612F0C9FF4846D1
:104E4000C4F8DCB10CF0B2FC14AA814B14931146E7
:104E500018234846ADF854300CF0C8FC4946384693
:104E60004FF0340908F0CCFE13230398CDF80090DE
:104E7000B4228C21FDF756FC0399C4F810A22846F1
:104E8000A4F814620CF00AFA95E8070004F5077814
:104E900088E807004FF0010184F8181228460399AA
:104EA0000CF0FCF995E80700694B149388E80700BB
:104EB00017230398ADF8543014A94FF0BE080CF036
:104EC00095FC039984F81682384608F099FE13235E
:104ED0000498CDF800900722A521FDF723FC049942
:104EE000C4F858A22846A4F85C620CF0D7F995E8FB
:104EF000070004F5197989E807004FF003020499C7
:104F000084F8602228460CF0C9F995E80700504B58
:104F1000149389E8070016230498ADF8543014A9B7
:104F20000CF064FC4D4D049984F85E823846DFF83D
:104F300034814FF0780908F063FE0C98CDF80090AA
:104F400002233C223146FDF7EDFBC4E9A6850C990E
:104F5000A4F8A062384608F053FE02230B98CDF85F
:104F600000903C224FF49F71FDF7DCFBC4E9B38550
:104F70000B99A4F8D462384608F042FEE622059860
:104F80003821FDF7C2FB4FF003050598ADF85050EE
:104F900014A90CF045FE0599384608F031FEE522CB
:104FA0000698DF21FDF7B1FB0698ADF8505014A923
:104FB0000CF036FE0699384608F022FE3246079875
:104FC0003821FDF7A2FB04250798ADF8505014A92D
:104FD0000CF026FE0799384608F012FE02220898C7
:104FE000DF21FDF792FB0898ADF8505014A90CF0A2
:104FF00017FE0899384608F003FE0E230A9800931E
:1050000072229A21FDF78EFBF023C4E9ED33C02311
:10501000C4F8BC334FF43453C4F8C433104BC4F851
:10502000DC3349F66103A4F8E0330F9B0A99C4F816
:10503000C8633846C4F8C063C4F8B03308F0E0FD74
:10504000204617B0BDE8F08FC43F01203F9502080D
:10505000C8A50208565659FFBC3F01203493ADFF46
:105060000C0C99FF6E0B00FF7047000010B5034B4E
:10507000036004460DF0DCFD204610BDD8A90208EF
:1050800010B5064B036004460DF0D2FD20464FF4E8
:10509000B15121F09FFF204610BD00BFD8A90208E2
:1050A00010B500F58054D4F81C360133B42BC4F885
:1050B0001C3606D10FF0B6FAFEF7F6FA0023C4F854
:1050C0001C3610BD2DE9F04F044693B0A1460026D2
:1050D00011F09EF9DE4BE66349F8403B4846FDF788
:1050E00035FB04F16C0304F1980A18460493FDF7AC
:1050F0002DFB5046FDF72AFB04F1C4031846059327
:10510000FDF724FB04F1F003184606930BF0BAFAFE
:1051100004F59C7318460B93FCF7D4F9CD4BC4F8F7
:1051200038312433C4F8403104F5A6731846C4F866
:105130004461C94D0A934FF00107FDF707FB04F5E1
:10514000BC7304F5D2781846C4F84C5184F87071D9
:1051500004F5F67B0993FDF7F9FAC4F8785184F861
:105160009C714046FDF708FB5846FDF705FB04F52A
:105170000D731846B94D0293FDF7FEFA04F520733E
:10518000C4F834521846C4F87C62B54F0893FDF752
:10519000DDFA04F52D73C4F880721846C4F8AC62C9
:1051A000A4F8B0620793FDF7D1FA04F53A73C4F896
:1051B000B4721846C4F8E062A4F8E4620393FDF701
:1051C000DBFA04F58053C4F8E852C4F83063F025E4
:1051D000C3F81C664FF4965104F557700DF01EFD90
:1051E0003246484600954FF4A0733146271DFDF71F
:1051F00099FA4FF07F434946A366384608F000FD10
:105200004FF0FF394FF4A0733246049800953146B1
:10521000FDF788FA0499C4F89490384608F0F0FC39
:105220000222EC231146504600934FF49F73FDF782
:1052300079FA8C4BC4F8C0305146384608F0E0FC8F
:105240003246059800950323A021FDF76BFADC2375
:105250000599C4F8EC9084F8EA30384608F0D0FCA0
:105260000E237222069800939B21FDF75BFAC02360
:10527000C4F824314FF43453C4F82C317A4BC4F8B9
:10528000443149F66103A4F848310B9B0699C4F8F0
:105290001831C4E9475538462825C4F83061C4F8A8
:1052A000286108F0ADFC052364220A9800950A21C4
:1052B000FDF738FA0A99C4F87491384608F0A0FC52
:1052C000052364220998009540F23311FDF72AFA6C
:1052D0000999C4F8A091384608F092FC34230CAD2B
:1052E0005F224046009374211323FDF71BFA4146C9
:1052F000C4F8D4912846A4F8D8610BF0CFFF95E804
:10530000070004F5F07A8AE807004FF003024146EF
:1053100084F8DD2128460BF0C1FF95E807004FF027
:1053200001038AE80700414684F8DC3128460BF087
:10533000B5FF95E807004D4B10938AE8070011234D
:10534000404610A94FF0BE0AADF844300CF04EFABA
:105350004146384684F8DAA108F052FC3421132380
:105360005F2258460091BB21FDF7DCF95946C4F88D
:105370001C922846A4F820620BF090FF95E80700E5
:1053800004F50A7888E807004FF00302594684F8CC
:105390002522284691460BF081FF95E8070088E812
:1053A00007005946284684F824920BF077FF95E8C9
:1053B00007002E4B109388E807001023584610A9C9
:1053C000ADF844300CF012FA5946384684F822A25F
:1053D00008F016FC71220298DFF8A8B03521FDF71D
:1053E00094F9234BC4F86432D4F834320299D3F8D8
:1053F0008430A4F868622846984795E8070004F5C9
:105400001C784FF0010388E8070084F86C32D4F868
:1054100034320299D3F884302846984795E807003B
:10542000DBF8003088E8070004F54D782BB9114B04
:10543000114A6021114822F009FDDFF84CA0BAF8AA
:105440000030072B22D80E4B0B4A6121F2E700BF38
:10545000D8A90208CCAF020868A60208D8A502089D
:1054600004B3020837380CFF0C0C99FFC8A50208DA
:105470005FABDEFFF2930208F49402086F94020817
:10548000B6940208B83F0120BC3F0120DFF84C91E0
:105490000721D9F8000001F037F94B4A03460A21E9
:1054A000404612F095FC0298C4F87C820CF07EF91C
:1054B000464B0298109310A90F234FF0D208ADF875
:1054C00044300CF093F9029984F86A82384608F067
:1054D00097FB78220223089800924FF49F713C2298
:1054E000FDF720F93A4A3B49A4F8B062C4E9AA2181
:1054F0003846089908F084FB782002233146009052
:105500003C220798FDF70EF9314A3249A4F8E462CB
:10551000C4E9B7213846079908F072FB03986F2257
:10552000F321FDF7F2F8D4F8E8322B4AD3F88430AF
:105530000399C4F818232846A4F81C63984795E8F3
:105540000700D4F8E83204F5497686E807004FF002
:1055500003022846D3F88430039984F8202398471F
:1055600095E80700DBF8003086E8070004F552757F
:10557000002B3FF45CAFBAF80030072B7FF663AF27
:10558000D9F80000072101F0BFF80F4A03460A21AD
:10559000284612F01DFC0398C4F830530CF006F9AD
:1055A0000A4B0398109310A94FF00E03ADF8443046
:1055B0000CF01CF93846039984F81E8308F020FB90
:1055C000204613B0BDE8F08F3F950208C8A5020839
:1055D0006E0B00FF3493ADFF5FABDEFFC43F0120D5
:1055E0007047000010B5034B036004460DF020FB2C
:1055F000204610BD0CAA020810B5064B03600446F5
:105600000DF016FB204641F21C6121F0E3FC204620
:1056100010BD00BF0CAA02082DE9F04F044693B05C
:105620002546002610F0F4FE904BE66345F8403B1B
:1056300004F16C0A2846FDF789F85046FDF786F814
:1056400004F1980304F1C40818460593FDF77EF8A9
:105650004046FDF77BF804F1F0031846844F0A93A7
:105660004FF00109FDF772F804F58E73184604F542
:10567000A47BC4F8F07084F814910993FDF766F8E0
:10568000C4F81C7184F840917A4F584604F5CA79E1
:10569000FDF772F8C4F84871C4F890614846FDF708
:1056A0006BF804F5F073C4F894711846C4F8DC6123
:1056B0000393FDF761F804F50A7318460493FDF7A8
:1056C0005BF804F51C7318466B4F0893FDF73EF822
:1056D00004F52973C4F870721846C4F89C62A4F8E3
:1056E000A0620793FDF732F804F53673C4F8A4728C
:1056F0001846C4F8D062A4F8D46206930AF0C2FF38
:1057000004F5487318460B93FBF7DCFE5B4BC4F8BB
:1057100020332433C4F828334FF4965104F55770DE
:10572000C4F82C630DF07AFAF02332462846009331
:1057300031464FF4A073FCF7F5FF271D4FF07F4370
:105740002946A366384608F05BFAF02332465046F5
:10575000009331464FF4A073FCF7E4FF4FF0FF33A2
:105760005146C4F89430384608F04AFA0222EC2335
:105770001146059800934FF49E73FCF7D3FF404BFE
:105780000599C4F8C030384608F03AFAF02332469A
:1057900040460093A0210323FCF7C4FF4FF0FF33E2
:1057A000C4F8EC30DC234146282584F8EA3038463A
:1057B00008F026FA65220A98009505230721FCF7D0
:1057C000B1FF4FF0FF330A99C4F81831384608F09A
:1057D00017FA65220998009505234FF49A71FCF792
:1057E000A1FF4FF0FF33C4F844310999384608F05F
:1057F00007FA1622B8215846FCF787FF214BC4F858
:105800007831D4F84831A4F87C610CADD3F88430F9
:1058100059462846984795E8070004F5C2784FF0A6
:10582000030388E8070084F88031D4F848315946EA
:10583000D3F884302846984795E8070088E80700A1
:10584000DFF85880D8F8003004F54D7A2BB90E4BAC
:105850000E4A60210E4822F0F9FA0E4B1B88032BEA
:105860001ED80D4B094A6121F4E700BF0CAA0208BB
:1058700068A60208D8A5020804B30208CCAF020843
:1058800037380CFF565659FFF2930208F494020879
:105890006F940208BC3F0120B6940208B83F012073
:1058A000924B0321186800F02FFF914A03460A210A
:1058B000504612F08DFA5846C4F890A10BF076FFCE
:1058C000DFF848A2CDF840A01D23584610A9ADF836
:1058D00044300BF08BFF5946384608F091F9C3224B
:1058E00075214846FCF711FFD4F89431814AD3F86A
:1058F0008430C4F8C42149462846A4F8C8619847B2
:1059000095E8070004F5E87BD4F894318BE80700AC
:105910004FF00102D3F8843084F8CC214946284660
:10592000984795E80700D8F800308BE8070004F5A1
:10593000527B002B8BD0704A1388042B91D96B4B70
:105940000421186800F0E0FE694A03460A2158461F
:1059500012F03EFA4846C4F8DCB10BF027FF1C23D6
:1059600010A94846ADF84430CDF840A00BF03EFFFA
:10597000494638464FF0340908F042F90398CDF80B
:105980000090B42213238C21FCF7CCFE4FF0FF33A0
:10599000C4F810320399A4F8146228460BF07EFC78
:1059A00095E8070004F5077888E807004FF0010242
:1059B000039984F8182228460BF070FC95E807003C
:1059C0001B2388E807000398ADF8443010A94FF076
:1059D000BE08CDF840A00BF009FF039984F81682A9
:1059E000384608F00DF90498CDF8009007221323EB
:1059F000A521FCF797FE4FF0FF330499C4F8583205
:105A00002846A4F85C620BF049FC95E8070004F511
:105A100019794FF0030389E80700049984F860328C
:105A200028460BF03BFC95E807001A2389E807009D
:105A30000498ADF8443010A9CDF840A00BF0D6FE84
:105A4000049984F85E8238464FF0780808F0D8F858
:105A50000898CDF800803C2202234FF49F71FCF798
:105A600061FE264D264B0899A4F8A062C4E9A6530E
:105A7000384608F0C5F80798CDF800803C2231463A
:105A80000223FCF74FFE1F4B0799C4F8D03238466B
:105A9000C4F8CC52A4F8D46208F0B2F80E230698E9
:105AA000009372229A21FCF73DFEF023C4E9C13332
:105AB000C023C4F80C334FF43453C4F81433124BDE
:105AC000C4F82C3349F66103A4F830330B9B0699D4
:105AD000C4F818633846C4F81063C4F8003308F0FB
