:020000040800F2
:10000000000003205D060008392100083B2100089C
:100010003D2100083F2100084121000800000000A8
:10002000000000000000000000000000B187000890
:10003000432100080000000041880008D18000082A
:10004000AD060008AD060008AD060008AD060008C4
:10005000AD060008AD060008AD060008AD060008B4
:10006000AD060008AD060008AD060008AD060008A4
:10007000AD060008AD060008AD060008AD06000894
:10008000AD060008AD060008AD060008AD06000884
:10009000AD060008AD060008AD060008AD06000874
:1000A000AD060008AD060008AD060008AD06000864
:1000B000AD060008AD060008AD060008AD06000854
:1000C000AD060008AD060008AD060008AD06000844
:1000D000AD060008AD060008AD060008AD06000834
:1000E000AD060008AD060008AD060008AD06000824
:1000F000AD060008AD060008AD060008AD06000814
:10010000AD060008AD060008AD060008AD06000803
:10011000AD060008AD06000845210008AD06000840
:10012000AD060008AD060008AD060008AD060008E3
:10013000AD060008AD060008AD060008AD060008D3
:10014000AD060008AD060008AD060008AD060008C3
:10015000AD060008AD060008AD060008AD060008B3
:10016000AD060008AD060008AD060008AD060008A3
:10017000AD060008AD060008AD060008000000004E
:10018000AD060008AD060008AD060008AD06000883
:10019000AD060008AD060008AD060008AD06000873
:0C01A00051210008AD0600085D21000898
:1001B00010B5054C237833B9044B13B10448AFF3A1
:1001C00000800123237010BD800300200000000088
:1001D000604E020808B5034B1BB103490348AFF357
:1001E000008008BD0000000084030020604E02086B
:1001F00001F0FF01102A2BDB10F0070F08D010F8D8
:10020000013B013A8B422DD010F0070F42B3F6D1DB
:10021000F0B441EA012141EA014122F007047FF0F4
:1002200000070023F0E80256083C85EA010586EA4B
:10023000010685FA47F5A3FA87F586FA47F6A5FA87
:1002400087F68EB9EED1F0BC01F0FF0102F0070293
:1002500032B110F8013B013A83EA010313B1F8D13E
:100260000020704701387047002D06BF354603381F
:10027000073815F0010F07D1013015F4807F02BF58
:10028000013015F4C03F0130F0BC0138704700BFA9
:100290007BB972B90029BEBF00204FF0004106E0D3
:1002A00008BF00281CBF6FF000414FF0FF3000F086
:1002B000D3B9ADF1080C6DE904CE002909DB002BA0
:1002C0001ADB00F04DF8DDF804E0DDE9022304B0AC
:1002D0007047404261EB4101002B1BDB00F040F80E
:1002E000DDF804E0DDE9022304B0404261EB4101A6
:1002F000524263EB43037047524263EB430300F007
:100300002FF8DDF804E0DDE9022304B0404261EBA0
:1003100041017047524263EB430300F021F8DDF8DE
:1003200004E0DDE9022304B0524263EB430370476B
:1003300053B94AB9002908BF00281CBF4FF0FF314C
:100340004FF0FF3000F088B9ADF1080C6DE904CE34
:1003500000F006F8DDF804E0DDE9022304B07047A0
:100360002DE9F047089D8E4604468846002B4AD169
:100370008A42174662D9B2FA82F64EB1C6F120031C
:1003800001FA06F820FA03F3B74043EA0808B4403C
:100390004FEA174E1FFA87FCB8FBFEF1230C0EFB49
:1003A000118843EA084301FB0CF29A4209D9FB1871
:1003B00001F1FF3080F0EA809A4240F2E780023992
:1003C0003B449A1AA3B2B2FBFEF00EFB102243EAA2
:1003D000024300FB0CFC9C4509D9FB1800F1FF32DD
:1003E00080F0D6809C4540F2D3803B44023840EAFE
:1003F0000140A3EB0C0300211DB1F3400022C5E92D
:100400000032BDE8F0878B4205D90DB1C5E9000186
:1004100000210846F5E7B3FA83F1002946D1734578
:1004200002D3824200F20581841A6EEB030201209E
:100430009046002DE5D0C5E90048E2E7002A00F02B
:100440009080B2FA82F6002E40F0A4808A1A030C43
:100450004FEA174E80B2BCB20121B2FBFEFC0EFB8C
:100460001C2243EA024304FB0CF29A4207D9FB1810
:100470000CF1FF3802D29A4200F2E080C4469B1A87
:10048000B3FBFEF20EFB123340EA034302FB04F41B
:100490009C4207D9FB1802F1FF3002D29C4200F2C5
:1004A000CA8002461B1B42EA0C40A5E7C1F12006A8
:1004B0008B4022FA06F71F430EFA01F420FA06F3E6
:1004C0002EFA06FE4FEA1749234300FA01F81FFAF5
:1004D00087FCBEFBF9F01C0C09FB10EE44EA0E444D
:1004E00000FB0CFEA64502FA01F209D93C1900F105
:1004F000FF3A80F09C80A64540F2998002383C4447
:10050000A4EB0E041FFA83FEB4FBF9F309FB1344BA
:100510004EEA044403FB0CFCA44508D93C1903F142
:10052000FF3E80F08280A4457FD9023B3C4443EAF1
:100530000040A4EB0C04A0FB02EC64457346E146CA
:1005400062D35FD05DB1B8EB030264EB090404FA37
:1005500006F622FA01F31E43CC40C5E900640021EF
:100560004FE7B1FBF2FC010C41EA0E4180B240EAD8
:1005700001423B4638463C46B846BE462026B1FBC3
:10058000F7F1A2EB080241EA0C4166E7014618E7E1
:1005900010462CE7C6F120022EFA02F3B740B14014
:1005A00020FA02F24FEA174E0A43B3FBFEF8BCB240
:1005B0000EFB1833110C41EA034108FB04F9B0406B
:1005C00089454FEA104380B23ED9791808F1FF3CC3
:1005D00001D289451FD8A1EB0901B1FBFEF909FB46
:1005E00004F80EFB191192B242EA0142424529D2A7
:1005F000BA1809F1FF31C4D24245C2D2A9F10201B1
:100600003A44BEE7F0459DD2BEEB02036CEB070C0B
:100610000138E14696E7A7EB09094944A8F1020C25
:10062000B1FBFEF909FB04F8DBE773467FE75046B0
:1006300066E70846FDE63B44023A33E7ACF1020CBC
:100640003B441CE749469CE7A1EB0901C446B1FBCA
:10065000FEF909FB04F8C4E7704700BFDFF834D0A7
:10066000002103E00C4B5B58435004310B480C4B0A
:1006700042189A42F6D30B4A02E0002342F8043BA8
:10068000094B9A42F9D305F0A5FA23F07BFE01F05D
:100690003BF8704700000320346504080000002088
:1006A0006401002080030020F84B0120FEE7704722
:1006B00008B500F0A5FDBDE8084000F027BD00F03A
:1006C000A1BD704710B50421044622F06FFC2046FE
:1006D00010BD000038B50C4B0C4C18800C4B822020
:1006E00019806368984740F6110398420AD1094D72
:1006F00023682C60822098472B688220DB6898470B
:10070000002038BD0120FCE7A60300204C0000209B
:10071000A4030020A80300204FF4A071F020FFF7ED
:10072000D9BF0000F7B52F4D2B6804461B69822006
:1007300098472080002844D02B680DF106025B69A1
:1007400001A982209847BDF80620A2F5B47292B2A2
:100750000A2A38D90B23B2FBF3F2234B1B889A42A7
:1007600001D9013B9AB2BDF80430204840F6B831B7
:100770008B422AD8C3F571630E3301689BB20F25F3
:10078000B3FBF5F31A4D2D88AB4284BF05F1FF355D
:10079000ABB28B421D468EB220D99B1B99B2154E2F
:1007A0003768BBB2BA428CBFD31A9B1A9BB21944AA
:1007B0000529C8BF05600368C8BF3260638033681D
:1007C000A38003B0F0BD0022CDE7C3F56D6308330D
:1007D0009BB20E2B0168D2D800252B46C91A89B2CC
:1007E000DDE700BFA8030020A4030020A003002031
:1007F000A60300209C03002037B568460D4614462A
:10080000FFF790FFBDF8000030B1BDF802302B605B
:10081000BDF804302360012003B030BD032821D887
:10082000DFE800F0020B12190F4B1A68B2FA82F2DD
:10083000520904210D4805F061BC0B4B5A68B2FA0D
:1008400082F252090821F5E7074B9A68B2FA82F260
:1008500052091021EEE7044BDA68B2FA82F252092B
:100860002021E7E7704700BFAC03002000100240E2
:10087000032821D8DFE800F0020B12190F4B1A6889
:10088000003A18BF012204210D4805F037BC0B4B7C
:100890005A68003A18BF01220821F5E7074B9A6809
:1008A000003A18BF01221021EEE7044BDA68003A43
:1008B00018BF01222021E7E7704700BFAC030020EA
:1008C0000010024003280DD8DFE800F00206080AF5
:1008D0000421054805F017BC0821FAE71021F8E7C4
:1008E0002021F6E7704700BF0010024008B503283A
:1008F00011D8DFE800F0020A0C0E0421074805F0C9
:10090000F7FB431E5842584108BD0821F6E7102165
:10091000F4E72021F2E70020F3E700BF00100240D7
:1009200070B5084D00240126E0B2FFF7DFFF18B1D3
:100930002B68012B18BF2E600134052C05F104052E
:10094000F2D170BDAC030020012380F8781080F84C
:100950007930704700207047034B4164003918BF5D
:1009600001211970704700BFB73E01200020704779
:10097000836B0BB10846184770474FF6FF707047FE
:10098000406803689B6918477047704770470000CC
:1009900010B5044600F044FD23680349D3F88C30B9
:1009A0002046BDE810401847000000D008B5036895
:1009B0000446D3F880309847236820469B6F9847B9
:1009C00000F0ECF8236820461B6F9847292001F0BF
:1009D000D3F800F0E3F8236820461B6F9847F8E748
:1009E00010B504460AF09EFC23682046D3F8AC30CC
:1009F000BDE81040184700F0F7BC00F0FBBC00F069
:100A00002DBD00F0CDBC00F03DBD00F045BD00F0B7
:100A1000D1BC09F0F3BE10B57C21044622F0C6FA21
:100A2000204610BD10B590F8341090F878400C4B6B
:100A30008C421A7809D03AB90A4A0B4914880888B6
:100A400010800C8001221A7010BD002AFCD0054ACB
:100A500005491488088810800C800022F3E700BF45
:100A6000B03E0120AC3E0120AE3E012070B50D46E7
:100A7000194635B9094B0A4A0A4840F2D22123F0F7
:100A8000D1F9C0E90F52084B003A18BF01221A7081
:100A90000368BDE87040D3F88C301847D04E020888
:100AA000084F0208564F0208B63E012008B5094B10
:100AB0001B888B4203D8084B1B88934205D9074BF0
:100AC000074A08489E2123F0ADF9074B1980074BD0
:100AD0001A8008BDAC3E0120AE3E01209B4F0208AB
:100AE000FE4F0208564F0208B23E0120B43E0120DC
:100AF000034690F87A0018B1586803681B681847D5
:100B000070470000012108B50022084607F06AFB83
:100B10000A4B186028B90A4B0A4A28210A4823F0D0
:100B200081F900220421012007F0FBFB074B18602C
:100B300018B9074B034A2C21F0E708BDC003002079
:100B4000415002088A500208B9500208BC03002034
:100B500005510208024B4FF0FF31186807F08CBBBB
:100B6000C0030020014B186807F0B2BBC00300208F
:100B7000024B0021186807F07FBB00BFC0030020B4
:100B8000FFF7F0BF03480449006800231A4607F046
:100B900003BC00BFBC0300200400002013B5084CB8
:100BA00000231A4601A9206807F027FC20684FF0AF
:100BB000FF33002201A907F020FC02B010BD00BFE6
:100BC000BC03002003685B6C184701207047036872
:100BD0009B6A1847FEE740F2EF307047054B036011
:100BE000054B4FF08062C3F88820BFF34F8FBFF3EF
:100BF0006F8F70476060020800E100E010B50446A6
:100C00004FF45A61FFF7EAFF204622F0CFF9204661
:100C100010BD000082B0002301930E4B1A6B42F40A
:100C200000021A631A6B02F400020192019A1A6917
:100C300042F400021A611A6922F400021A61064B9A
:100C4000064A1A61064A5A61064B4FF080629A6062
:100C500002B07047003802403C2F0020B50E00085B
:100C6000D50B000800E100E008B50A2809D8DFE844
:100C700000F006100E0808080810101010000220DE
:100C800008BD054B054A0648902123F0CBF800200B
:100C9000F6E70120F4E700BF47510208625102085D
:100CA000AD51020838B50C46887FFFF7DDFFA58AF5
:100CB000E28A164B2169586342EA05425A64628B04
:100CC000D963521B1A642568082D0ED19A611A61E6
:100CD0005862207F0E4A42EA0062DA61E2681A62D4
:100CE0000C4A5961D9601A6038BD0022D8611A6176
:100CF000E1680A0A480902F4784200F4FC60024301
:100D0000C1F3C4010A439A63034AECE700B002400E
:100D100009000100012302000123030008B50B288C
:100D20000BD8DFE800F00612100A0A0A0A080808C1
:100D30000808022008BD0520FCE7054B054A0648C7
:100D40006F2123F06FF80020F4E70120F2E700BFE5
:100D500047510208F7510208AD5102082DE9F04150
:100D600091F81D800C464046FFF7D8FFA77F054647
:100D70003846FFF7D3FF06463846FFF775FFA18ACE
:100D8000628B444B521A1A649A61228B521A1A616E
:100D9000E28A586342EA01425A6421696268D9636F
:100DA000DA602068802828D0227F0FD8202867D0DA
:100DB000402865D004281AD0364B45EA026545F430
:100DC0000035B845DD6161D0334A44E0B0F5807F3D
:100DD00004D0B0F5007FEFD1304800E0304840EA61
:100DE0000262DA61E2681A625E62596132E045EAE3
:100DF000026242F40032DA61F6E7A068021DDA62AC
:100E0000227F45EA026545F40035DD615E62596185
:100E1000017841B1012921D0224B234A23484FF4C4
:100E20008D7122F0FFFFDA69418822F47F42013997
:100E300022F0100242EA0122DA610121154BDA693F
:100E400042F02002DA61DA699206FCD410229A603C
:100E50000029B9D0164A1A60BDE8F081B2F1FF014D
:100E6000DA69408822F47F4200F1FF3022F010025C
:100E700042EA002242F0100218BF0121DA61DDE7E8
:100E800045EA0262034B42F40032B4E742F2013217
:100E9000E1E700BF00B002400123010009000200A9
:100EA0000A000200415202085B520208AD510208DA
:100EB00001230200024B1B68586803685B691847EE
:100EC000B83E012070B5044625460A4B0C3000267A
:100ED00060602672667245F8203B602229460AF05F
:100EE00079FB04F55A63EE6024359D42FBD1204620
:100EF00070BD00BF60600208034B1A68D207FCD4C3
:100F000023229A60704700BF00B002407047000083
:100F100030B50F4C2568ED07FCD423250904A560E6
:100F200041F001010225FF2B65636164E0630AD093
:100F30000849656241EA0363E361074B226260612D
:100F4000E060236030BDE561039BA363034BF8E7DA
:100F500000B002400900010001000200010003008E
:100F600030B50E4C2568ED07FCD423251204A5608E
:100F700042F001020225FF2B65636264E063E160D9
:100F800008D01B0643F00213E361054B6562606104
:100F9000236030BD034BE3610123F9E700B0024059
:100FA00001000200020002FF30B50B4C2568ED077E
:100FB000FCD4232512041B06A56043F4003302254C
:100FC00042F0010265636264E063E160E361034B48
:100FD00065626061236030BD00B002400100020024
:100FE0000120704738207047382303FB0100083088
:100FF0007047382303FB0100083070470120704719
:1010000041F67C00704741F67C0303FB0100083089
:10101000704741F67C0303FB010008307047012054
:1010200070471020704700EB01100830704700EB4C
:10103000011008307047084601F0C6BD10B5034BDB
:101040000360044609F02FF9204610BD186102081C
:1010500010B50446FFF7F2FF2046402121F0A6FF1D
:10106000204610BD10B5034B0360044609F01BF980
:10107000204610BDE460020810B50446FFF7F2FFF9
:10108000204641F6840121F091FF204610BD00006A
:1010900010B5034B0360044609F005F9204610BD66
:1010A000B060020810B50446FFF7F2FF2046182191
:1010B00021F07CFF204610BD10B5094B03600446AB
:1010C00000F5C5501030FFF7B9FF04F12C00FFF711
:1010D000C9FF04F11400FFF7DBFF204610BD00BF7D
:1010E0004C61020808B50248FFF7E6FF08BD00BFE3
:1010F0009412002010B50446FFF7DEFF204641F6AB
:10110000502121F053FF204610BD00002DE9F3418E
:1011100001F0AEF8054601F0AFF800240146234681
:1011200028462246009412F0E5FE274B274A1A6013
:10113000204604F0EFF8264D264B274A27489A60B0
:1011400012F040FE2B68BFF35B8FDB0735D42846D7
:1011500021F02EFF88B3224C224B234F236004F151
:10116000140000F5C75604F12C086060C4F808802C
:10117000E760266109F098F81C4B6361404609F06E
:1011800093F81B4BE362384609F08EF804F5805360
:1011900003F50F60174AC3F8B02804F03BFA224663
:1011A000311F304604F078F9304601F00DFD124849
:1011B00022F056FE284621F007FF104802B0BDE895
:1011C000F041FFF7E5BB00BF1C3F012040040020B9
:1011D0009012002060040020440400200800002039
:1011E000941200204C610208442B0020B0600208D9
:1011F000E460020818610208E5100008C40300203A
:10120000704700000148FFF7D1BB00BFC4030020B6
:1012100070B5244E244C254D254B23603046FFF7F6
:1012200051FE284617F06CFF224810F0B7FE224B03
:101230002248DC6000224FF48071C3E91212204979
:101240001A86C3E91A121F4999671F4983F8582063
:101250000B60F02101801D485A6601801C4883F80C
:1012600070204FF4A071C3E90422C3E90622C3E948
:101270000822C3E90A22C3E90E22C3E91022C3E906
:101280001422C3E917225A67C3E901650180114896
:10129000018011490A70012283F834200F4A1A6034
:1012A00070BD00BFEC0400208C1200206004002000
:1012B000C04E020844040020C4030020AC3E0120BC
:1012C0000100000100000101B83E0120B23E0120F2
:1012D000AE3E0120B43E0120B03E0120885F0208EE
:1012E0000148FFF77BBC00BFEC04002000207047E2
:1012F00081807047C180704701817047418170478C
:101300007047704770477047704710B4C4880368CF
:10131000121B84885B6D091B12B25DF8044B09B285
:1013200018474FF6FF7383814FF0FF330362136852
:10133000C36110607047002070478B888380012054
:101340007047704780F82610704790F82600704765
:1013500010B50022B1F90840B1F90A1002804280AC
:101360008480C18010BD0022028042808280C280C1
:1013700070470177704780ED080A704780F82410A5
:10138000704780F8251070470120704798307047EB
:101390008C3070478430704770477047704700004A
:1013A000034B902283F85A2383F85823704700BFD9
:1013B00000E100E0094A0A49D3680A48C3F30A0376
:1013C000013B9BB20B801169C1F30A010139018015
:1013D0001364536B43F0010353637047006801408B
:1013E000E62C0020E42C0020014BD3F8AC00704721
:1013F00000680140024B0122C3F8AC105A627047EA
:101400000068014010B52C21044621F0CFFD204694
:1014100010BD10B5BC21044621F0C8FD204610BD0A
:1014200070B5044609F03FFA23685D6E0FF062FC68
:1014300001462046A8472368054AD3F8885020462D
:10144000AC460023BDE87040A2F51631604700BFEE
:1014500000B004D009F00EBA09F018BA09F0D4B9F6
:1014600009F035BB90F8252012B103685B69184775
:10147000704790F825201AB190F8242002B1186026
:1014800070470000034B4FF080629A604FF080720B
:101490009A60704700E100E0084B4FF08062C3F8AB
:1014A0008820BFF34F8FBFF36F8F4FF08072C3F868
:1014B0008820BFF34F8FBFF36F8F704700E100E0CC
:1014C00070B50023124E8380124B0360336893F88B
:1014D000582005460AB1D86C00B998680368DB6AE1
:1014E00098473368B0FA80F4D86C640930B1036867
:1014F000DB6A9847002808BF44F001042CB9064B6A
:10150000064A07482C2122F08DFC284670BD00BFFA
:10151000B83E01206061020899520208F7520208A1
:101520003053020870B5244E3568BFF35B8F15F059
:1015300001053FD1304621F03BFD00283AD01F4C39
:101540001F4B256104F13400C4E90035C4E902559C
:10155000E584A562A58510F080FF04F158000CF029
:1015600007F9184BA3652046174B40F8843BFFF75B
:10157000A7FF164BC4F884302433C4F88C3064239E
:10158000C4E928350023C4F8AC30C4F8B030C4F83E
:10159000B430C4F8B8300E480E4BC4F89050C4F8BC
:1015A0009C50C4F8A850C4F8983022F059FC30463A
:1015B00021F00AFD014870BDE82C0020EC2C002031
:1015C000BC6A020880610208F8610208706A0208B9
:1015D0009D130008506A020810B5144C236823B309
:1015E000134B144A1B6C11888B4213D1124B198870
:1015F00005F08CFB226892F86A30013382F86A3079
:10160000FFF7C0FA206809F08DFEBDE81040002009
:10161000FFF704B905F07AFB206803681B6A984756
:10162000BDE810400020FFF723B910BDB83E0120EF
:1016300000680140E62C0020E42C002007B5064B92
:10164000ADF806001B68054801220DF1060106F001
:10165000FDF803B05DF804FB0C000020E82D00202D
:1016600008B5642006F0B2FDFBE7000030B595B088
:10167000102200210AA822F0DCFD1422002103A878
:1016800022F0D7FD00241E4B01941A6C42F08052C8
:101690001A641B6C03F080530193019B194B029455
:1016A0001A6842F440421A601B6803F440430293F4
:1016B0000122029B4FF48033CDE9082302254FF429
:1016C00080030821CDE90E534FF4B473CDE9101314
:1016D00008A804231393129505F070FB05F034FB62
:1016E0000F23CDE903354FF4A0504FF48053CDE9DB
:1016F0000603052103A8059405F03CFD15B030BD97
:10170000003802400070004080B59AB004F070FAD2
:10171000FFF7ACFF142200210DA8002422F089FD60
:10172000C04B00941A6BC048C04D42F010021A63BF
:101730001A6B02F010020092009A01941A6B42F0A8
:1017400020021A631A6B02F020020192019A02949D
:101750001A6B42F080021A631A6B02F08002029246
:10176000029A03941A6B42F004021A631A6B02F095
:1017700004020392039A04941A6B42F001021A6362
:101780001A6B02F001020492049A05941A6B42F05B
:1017900002021A631A6B02F002020592059A06947D
:1017A0001A6B42F040021A631A6B02F04002069272
:1017B000069A07941A6B42F008021A631B6B03F037
:1017C0000803079322463C21079B04F097FC9848A6
:1017D0002246042104F092FC224696484FF44051E0
:1017E00004F08CFC01264FF003083C238E48CDF812
:1017F00040800DA902274FF00409CDE90D360F9462
:1018000004F092FB8A480F940DA9CDE90D9610972C
:1018100004F08AFB0DA94FF440538648CDE90D36FC
:10182000CDE90F4704F080FB8348844B036004F04C
:1018300071FA834A834B2C62C5E9002328464FF492
:101840008043C5E90434C5E90244C5E9064404F00F
:1018500063FE1021284605F0A7F82146284605F02A
:10186000C2F87948794984624FF48273C0E9001361
:101870004FF400751823C0E906530A23744DC36260
:10188000C0E90244C0E90444C0E9084405F082FF0D
:10189000704B0D974FF0100CC5E900364023C5E999
:1018A00004C34FF4C073C5E906344FF40063C5E9BF
:1018B00008344FF40053AB620DA907232846CDE945
:1018C0000E39CDE910384FF0080AC5E90249CDE9D3
:1018D000127705F043FE4FF6FF7209A92846CDE9BD
:1018E0000AA6089409960C9405F058FE304604F0B8
:1018F000ABF94FF6FF7209A92846CDE9097ACDE97F
:101900000B6405F04BFE4FF6FF7209A92846CDE99E
:10191000098ACDE90B9405F041FE4FF40C7308934E
:10192000089B0C934FF6FF7209A92846CDE9099A46
:101930000B9605F033FE40F26A51284605F04CFE46
:10194000342221460DEB020022F073FC424D434B42
:101950002C61C5E900340923C5E905361D2340F291
:101960000D1EC5E9073840F24313C5E909E32846CF
:1019700040F2471340F21718C5E90B83C5E902444A
:10198000AC8685F8364005F0C9F8FF21F022CDE994
:1019900012144FF4806905214FF4A073CDE90E2491
:1019A000CDE91491CDE916420DA922462846CDE98C
:1019B00010372B4D18930D94ADF864408DF86640A8
:1019C00005F077F9274B2B601B6898472B68264D4D
:1019D000DB689847254B2846C5E90034C5E9027401
:1019E000C5E90A47C5E90C4404F0A4F93146284684
:1019F00004F056FAFEF75CFEFEF759FE06F076FBA1
:101A00001B4A1C48214606F09DFB1B4B1B4A1860D5
:101A100021461B4806F096FB1A4B186006F078FB2F
:101A2000FEE700BF0038024000100240E82E002010
:101A300000080240000C02407C2F002000300240D1
:101A4000005C0040A0860100E82D0020005001400D
:101A5000B42D0020400100A0402E0020006801406D
:101A6000A82D0020140000203C2F002000B00240D0
:101A70006062020861160008B02D00203C62020876
:101A8000BF060008AC2D0020704770477FB5094B9A
:101A90008DF817201B6802930DF1170201230092A5
:101AA00001930A460146044804F0DEFD07B05DF8E4
:101AB00004FB00BF10000020E82E00207FB50023AB
:101AC0008DF81730084B1B6802930A4601230DF16D
:101AD0001701009101930146044804F055FE9DF85A
:101AE000170007B05DF804FB10000020E82E00206E
:101AF0001FB5084C24680092CDE901340A46012341
:101B00000146054804F040FE003818BF012004B02B
:101B100010BD00BF10000020E82E002004F094B893
:101B200010B5064C00222046042104F0E7FA2046B6
:101B30000122BDE81040042104F0E0BA0008024090
:101B400038B50B4D044601220A484FF4005104F009
:101B5000D5FA00220421284604F0D0FA2046FFF7E7
:101B60006DFD28460122BDE83840042104F0C6BAC4
:101B700000080240000C024038B50B4D044600221C
:101B80000A484FF4005104F0B9FA00220421284613
:101B900004F0B4FA2046FFF751FD28460122BDE8C3
:101BA0003840042104F0AABA00080240000C0240A8
:101BB000F7B5144E144F05460C463046002204215A
:101BC00004F09CFA00224FF40051384604F096FAD3
:101BD0002846FFF733FD0D4B0D481B68224601A92F
:101BE00005F0E0FF384601224FF40051019C04F05B
:101BF00085FA30460122042104F080FA204603B021
:101C0000F0BD00BF00080240000C02400C000020A4
:101C1000E82D002004F018B80268034B9A4201D165
:101C200004F000B8704700BF00100040704700008B
:101C300082B00E4B00220092596C41F480415964ED
:101C4000596C01F48041009100990192196C41F0A6
:101C5000805119641B6C03F080530193019B0F2189
:101C60006FF0010002B004F015B800BF0038024068
:101C70000268094B9A4282B00BD100230193074BB3
:101C80001A6B42F480521A631B6B03F48053019366
:101C9000019B02B0704700BF003002400038024094
:101CA00007B50F4B02689A4216D10022A3F5F04304
:101CB0000192196B41F4000119631B6B03F40003DB
:101CC000019305215A20019B03F0E4FF5A2003B041
:101CD0005DF804EB04F010B803B05DF804FB00BF3E
:101CE00000B002402DE9F043044689B014220021DF
:101CF00003A822F09EFA2268244B9A4243D1244C36
:101D0000244800250095236B43F004032363236BD1
:101D100003F004030093009B0195236B43F0010340
:101D20002363236B03F001030193019B4FF012091E
:101D30004FF400734FF001080327042603A9CDE9EF
:101D40000339CDE90587079604F0EEF84FF4807368
:101D50001148079603A9CDE90339CDE9058704F0B9
:101D6000E3F80295236C43F400032364236C03F42B
:101D700000030293029B236A43F400032362236A55
:101D800023F40003236209B0BDE8F083005C004047
:101D9000003802400008024000000240F0B599B04F
:101DA00004461422002107A822F043FA30220DEB4A
:101DB0000200002122F03DFA22685E4B9A4240F078
:101DC000B78008230C93C0231093042312930CA80C
:101DD0004FF40033159305F095FA08B1FFF726FF8D
:101DE000554B5648002400945A6C42F080625A6465
:101DF0005A6C02F080620092009A01941A6B42F0D1
:101E000020021A631A6B02F020020192019A0294D6
:101E10001A6B42F001021A631A6B02F0010202927D
:101E2000029A03941A6B42F002021A631A6B02F0D0
:101E300002020392039A04941A6B42F040021A635E
:101E40001A6B02F040020492049A05941A6B42F055
:101E500004021A631A6B02F004020592059A0694B2
:101E60001A6B42F008021A631B6B03F00803069317
:101E700002250E26069B0B964FF4806307A9CDE939
:101E80000735CDE9094504F04FF841F658032C48D1
:101E90000B9607A9CDE907350927CDE9094504F0D7
:101EA00043F8032327480B9707A9CDE90735CDE968
:101EB000094504F039F84FF4706322480B9607A9DE
:101EC000CDE90735CDE9094504F02EF84FF40C6350
:101ED0001D480B9607A9CDE90735CDE9094504F062
:101EE00023F8C02319480B9607A9CDE90735CDE99A
:101EF000094504F019F8082315480B9607A9CDE900
:101F00000735CDE9094504F00FF84FF4A0530E480A
:101F10000B9707A9CDE90735CDE9094504F004F889
:101F200058202246052103F0B5FE582003F0E4FEB8
:101F300019B0F0BD006801400038024000140240B2
:101F40000000024000040240001802400008024065
:101F5000000C024010B5044688B01422002103A8EA
:101F600022F067F92268144B9A4223D103F56843A3
:101F7000002101915A6C114842F480125A645A6C43
:101F800002F480120192019A02911A6B42F020022F
:101F90001A631B6B03F020030293029B4FF46072E1
:101FA00002230321CDE903230523CDE9061303A969
:101FB00003F0BAFF08B010BD005001400014024009
:101FC0002DE9F04186B0002303932B4B1C68002CB5
:101FD0004FD14FF00108C3F80080284B00949A6B52
:101FE000274842EA08029A639B6B03EA08030093BE
:101FF000022703260C25009B01A94FF63F03CDE9DC
:102000000137CDE9046503F08FFF1E48059501A94E
:10201000CDE90187CDE9034603F086FF48F233138B
:102020001948059501A9CDE90137CDE9034603F02B
:102030007BFF4FF683731548059501A9CDE901375C
:10204000CDE9034603F070FF4CF203731048059589
:1020500001A9CDE90137CDE9034603F065FF60230F
:102060000C48059501A9CDE90137CDE9034603F0F8
:102070005BFF06B0BDE8F081842F002000380240ED
:102080000014024000080240001802400010024004
:10209000000C02400004024070B588B00023029397
:1020A000204B1A6C42F010021A641B6C03F01003F0
:1020B0000293054601A903A8029B05F005F9069BBA
:1020C0004BBB05F0F1F8184E184B336040F2E73384
:1020D000F360174BB0FBF3F3013B73603046002312
:1020E0003361B360B36105F02DFF044680B930461B
:1020F00005F0FEFD044658B9362003F0FDFD0F2D16
:102100000DD822462946362003F0C4FD094B1D6038
:10211000204608B070BD05F0C7F84000D3E70124A1
:10212000F6E700BF00380240882F00200010004072
:1021300040420F007C0000207047FEE7FEE7FEE70C
:10214000FEE77047014805F011BE00BF882F002050
:10215000014804F051BD00BF402E0020014803F0AB
:1021600015BE00BF3C2F00200120704708B522F0AB
:1021700003F9162303604FF0FF3008BD08B522F0C5
:10218000FBF816230360FEE770B50D4614460E46B5
:10219000731B9C4201DC204670BDAFF3008006F843
:1021A000010BF5E770B50D4614460E46731B9C42B5
:1021B00001DC204670BD16F8010BAFF30080F5E797
:1021C0004FF0FF3070474FF400534B6000207047D2
:1021D00001207047002070470A4A116808B503467D
:1021E00009B9094911601068694603448B4206D950
:1021F00022F0C2F80C2303604FF0FF3008BD1360DB
:10220000FCE700BFD02F0020F84B0120704708B535
:102210000C2924D8DFE801F0070B0F13171F1F1F2D
:102220001F1B1F1F1F0003F0C1F8006808BD03F04B
:10223000BDF84068FAE703F0B9F88068F6E703F004
:10224000B5F8C068F2E703F0B1F80069EEE703F013
:10225000ADF88069EAE703F0A9F84069E6E70020F5
:10226000E4E710B50421044620F0A0FE204610BD8E
:1022700000487047986202080520704713B5002493
:1022800051B1036801948DF8034001AA9C680DF1D7
:102290000303A04702B010BD0846FBE7C0897047A2
:1022A000008A7047C088704780887047807A00F045
:1022B0007F007047807AC009704700207047000097
:1022C0009FED010A704700BF000000007047704793
:1022D000704770477047704730B5036885B06D46EA
:1022E0000181D3F88430014604462846984795E892
:1022F00007003C3484E8070005B030BD30B5036802
:1023000085B06D464181D3F88430014604462846A5
:10231000984795E807003C3484E8070005B030BDD5
:102320000022028042808280C280704780F836108E
:10233000704770B5036804461B6B154698472368C1
:10234000294620465B6EBDE8704018470020704764
:10235000806C704770477047704710B5082104467D
:1023600020F024FE204610BD10B54C21044620F07C
:102370001DFE204610BD10B52C21044620F016FE8F
:10238000204610BD0B898A89D21A4B89C988591AEF
:1023900012B209B20FF0CEBD10B5034B0360044674
:1023A0000CF0AEFF204610BD0C64020810B5064BC1
:1023B000036004460CF0A4FF204641F28C5120F04B
:1023C000F5FD204610BD00BF0C64020808B50EF0F4
:1023D00091FCBDE8084000F057BC08B590F82630E5
:1023E0000BB1FFF73FF808BD08B5FFF73BF808BD94
:1023F000036870B55E6B124B1B6804468DB22BB937
:10240000104B114A6C21114821F00CFD1049828DAE
:102410000988914203D80F4B0B4A6D21F3E713F85B
:1024200012200D4B1B6853F8220003681B6B984762
:10243000291A3346204609B2BDE87040184700BF4C
:10244000103F0120A7530208E95302082454020850
:10245000143F01206B540208183F012000224FF066
:10246000FF31C0E900218260704770B503680446FF
:102470001B6B154698472368294620465B6BBDE8D1
:102480007040184770B504461D46BDF91060FFF74F
:10249000ECFF2368294620469B6B9847236831460A
:1024A0002046DB6BBDE8704018470000094A026017
:1024B0004FF4807100228184FF21C0E90122C0E92C
:1024C0000322C0E90522C0E9072280F826108262B3
:1024D000704700BF406D02084FF4807181840D4940
:1024E00001600D4981624FF6FF7181854FF47F01D4
:1024F000002241634FF0FF31C0E90122C0E903220D
:10250000C0E90522C0E90722C0E910120263028770
:10251000C2637047B06C0208046302082DE9F04FF3
:10252000044691B0A146002610F0DAFAE34BE663C8
:1025300049F8403B04F16C084846FFF7B7FF4046B6
:10254000FFF7B4FF04F1980318460493FFF7AEFFBA
:1025500004F1C40318460593FFF7A8FF04F1F00344
:10256000184606930AF0F6FB04F59C731846099387
:10257000FEF7A6FFD24BC4F838312433C4F84031FB
:1025800004F5A673C4F844611846CE4D08934FF085
:102590000107FFF78BFF04F5BC7304F5D27B1846E7
:1025A000C4F84C5184F8707104F5F67A0793FFF77C
:1025B0007DFFC4F8785184F89C715846FFF78CFF72
:1025C0005046FFF789FF04F50D731846BE4D029380
:1025D000FFF782FF04F52073C4F83452C4F87C621C
:1025E00018460393FFF778FFC4F88052C4F8C86216
:1025F000F02504F533704FF496510CF077FE324617
:102600000095314648464FF4A073271DFFF73AFF67
:102610004FF07F43A3664946384607F059FE4FF016
:10262000FF39324600954FF4A07331464046FFF71C
:1026300029FFC4F894904146384607F049FE02222B
:10264000EC231146049800934FF49F73FFF71AFF91
:102650009E4B0499C4F8C030384607F039FE324624
:10266000059800950323A021FFF70CFFDC230599B3
:10267000C4F8EC9084F8EA30384607F029FE0E23BF
:102680000698009372229B21FFF7FCFEC023C4F83A
:1026900024314FF43453C4F82C318D4BC4F84431F9
:1026A00049F66103A4F84831099B0699C4F83061E2
:1026B000C4E94755C4F82861C4F8183138462825BC
:1026C00007F006FE08980095052364220821FFF70D
:1026D000D9FE0899C4F87491384607F0F9FD0798B7
:1026E0000095052364224FF49A71FFF7CBFE0799FA
:1026F000C4F8A091384607F0EBFD34236D440093F5
:102700005F22132358467421FFF7BCFEC4F8D4910E
:10271000A4F8D861594628460BF028F995E8070037
:1027200004F5F07888E807004FF0030284F8DD2113
:10273000594628460BF01AF995E807004FF00103B7
:1027400088E8070084F8DC31594628460BF00EF97A
:1027500095E807000C2388E80700DFF87881ADF8DA
:102760003C300EA95846CDF838800BF0A7FB6FF02F
:10277000410184F8DA113846594607F0A9FD3420A2
:10278000132300905F225046BB21FFF77BFEC4F865
:102790001C92A4F82062514628460BF0E7F895E811
:1027A000070004F50A7B8BE807004FF0030284F86A
:1027B00025225146284691460BF0D8F895E80700A7
:1027C0008BE807005146284684F824920BF0CEF897
:1027D00095E807008BE807000EAA0823114650462B
:1027E000ADF83C30CDF838800BF068FB6FF041015C
:1027F00084F822123846514607F06AFD0298DFF845
:10280000D8B06F223521FFF730FED4F83432029968
:10281000A4F868622846D3F88430C4F864B29847B4
:1028200095E8070004F51C7A4FF001038AE80700D9
:1028300084F86C32D4F834320299D3F884302846C4
:10284000984795E807000A238AE807000298ADF840
:102850003C300EA94FF0D20ACDF838800BF02EFB99
:10286000029984F86AA2384607F032FD03986F2275
:10287000F321FFF7FAFDD4F880320399A4F8B4628B
:102880002846D3F88430C4F8B0B2984795E80700DA
:10289000D4F8803204F52F7686E80700D3F8843028
:1028A000039984F8B8922846984795E807000923C9
:1028B00086E807000398ADF83C300FE00C6402088E
:1028C000706A0208A46302081463020837380CFF18
:1028D0000C0C99FF046302085FABDEFF0EA9CDF874
:1028E00038800BF0EBFA3846039984F8B6A207F06B
:1028F000EFFC204611B0BDE8F08F00BFF8B5194BD2
:10290000018F1B888B4206462AD9174B1B682BB9AF
:10291000164B174A17486C2121F084FA13F811203E
:10292000154B1B6853F82250144B186802F02EFD0B
:102930002B6807469B6B284698472B6804469B6C80
:102940003946284698472B6814FB00F45B6A3946E1
:1029500028469847A4B223181BB2A6F84630F8BD03
:102960000023FAE7143F0120103F0120A75302087B
:10297000E953020824540208183F01201C3F01209B
:102980007047704700F598730868496803C370473B
:10299000704770474160704710B50022B1F9084098
:1029A000B1F90A10028042808480C18010BD704756
:1029B00070477047064BC0F84C310023C0F85031C7
:1029C00000F5A273C0F84801C0F84031704700BF5D
:1029D00095300008012303727047704770477047B5
:1029E00001464068036810315B6E18470146406835
:1029F000036810311B6E1847704710B4C2684168F5
:102A00005410034601EB6200D20748BF0A599B6885
:102A10005DF8044B48BFD35818470346406830B1AF
:102A20009A681AB9D86800F0010070470120704711
:102A300010B50C21044620F0B9FA204610BD10B59F
:102A40001021044620F0B2FA204610BD10B54FF414
:102A5000AE71044620F0AAFA204610BD10B5382108
:102A6000044620F0A3FA204610BD10B528210446E4
:102A700020F09CFA204610BD10B50EF03BF903681B
:102A8000BDE81040DB6B184737B50446807A637A9F
:102A90000130C0B29842A07205D9012323720023ED
:102AA000A37203B030BDB4F90C20002110F0CAF9B4
:102AB000C30707D500284FF6FF73C8BF012313FAD9
:102AC00080F000B2144BE0811988258B83B2134843
:102AD000B0F90000ADF80600CA1A60682B445B1A12
:102AE00012B2ADF8043003682283ADF80020002252
:102AF0001B69ADF8022069469847A37A012BD0D113
:102B0000074B1B78002BCCD00EF0F4F803B0BDE8D7
:102B100030400EF0F5B800BFAC3E0120AE3E0120C3
:102B2000B63E012010B50446D0F8400158B1036804
:102B3000DB68984738B1D4F8400103689B68984730
:102B40000023C4F8403110BD044B1B6893F8582093
:102B50000AB1D86C00B99868704700BFB83E012030
:102B6000F8B5174604460E460EF0AEF9124B1C603F
:102B7000124B2360124B0025C4E95135114BC4E9B7
:102B800053551868036829469B68C4E94F55C4E942
:102B900055769847284602F0BDFBFFF7D5FF18F0A1
:102BA00002F9FFF7D1FF18F079F9FFF7CDFF18F020
:102BB00081F92046F8BD00BF0C3F0120C064020827
:102BC000A8640208B83E0120064BC0F84C3100232F
:102BD000C0F8503100F5A273C0F84801C0F8403188
:102BE000704700BF95300008064BC0F84C310023F9
:102BF000C0F8503100F5A273C0F84801C0F8403168
:102C0000704700BF492F0008064BC0F84C31002325
:102C1000C0F8503100F5A273C0F84801C0F8403147
:102C2000704700BFC5340008064BC0F84C31002384
:102C3000C0F8503100F5A273C0F84801C0F8403127
:102C4000704700BF89330008064BC0F84C310023A1
:102C5000C0F8503100F5A273C0F84801C0F8403107
:102C6000704700BFFD2D0008064BC0F84C31002313
:102C7000C0F8503100F5A273C0F84801C0F84031E7
:102C8000704700BF4D320008064BC0F84C3100239E
:102C9000C0F8503100F5A273C0F84801C0F84031C7
:102CA000704700BFB12C000803685B6A184700003A
:102CB0002DE9F14FD0E9556A0746B06803681B6AF1
:102CC000984741F28B53984205D8444B444AA3217C
:102CD000444821F0A7F8706803681B6A98470F28DA
:102CE00003D8414B3E4AA421F2E7F06803681B6A0F
:102CF00098470B2803D83D4B394AA521E8E70DF04A
:102D0000F9FFDFF8F09004300EF041F8D9F8000038
:102D100010B10368DB689847D9F8000010B1036868
:102D20001B689847DFF8D080D8F8000010B103681E
:102D30005B699847D7F83C0110B103685B68984716
:102D4000D8F8000010B103681B689847D7F83C0119
:102D500010B103689B689847F0680021FFF7A4FF53
:102D60004FF0000B224BC0F804B0044680F808B0C6
:102D70000360B068036859465B6A9847054602F0ED
:102D80006BFB7068036859465B6A9847294606469C
:102D900002F040FB331DC7F83C61C9F80040C8F899
:102DA0000050CAF800302B68C6F808A02846DB6837
:102DB000EE639847336830461B689847214628469B
:102DC00010F03AF8236820461B69984723685B692E
:102DD000204601B0BDE8F04F184700BFA9540208D3
:102DE00037550208195602086056020803570208B0
:102DF00014650208003F0120FC3E01202DE9F14F3F
:102E0000D0E9556A0746B06803681B6A984741F2E3
:102E1000F353984205D8444B444AA321444821F037
:102E200001F8706803681B6A98470F2803D8414B64
:102E30003E4AA421F2E7F06803681B6A98470B2812
:102E400003D83D4B394AA521E8E70DF053FFDFF8E1
:102E5000F09004300DF09BFFD9F8000010B103682A
:102E6000DB689847D9F8000010B103681B689847E1
:102E7000DFF8D080D8F8000010B103685B6998478C
:102E8000D7F83C0110B103685B689847D8F8000098
:102E900010B103681B689847D7F83C0110B103686C
:102EA0009B689847F0680021FFF7FEFE4FF0000B8B
:102EB000224BC0F804B0044680F808B00360B06844
:102EC000036859465B6A9847054602F097FB7068AD
:102ED000036859465B6A98472946064602F06CFB30
:102EE000331DC7F83C61C9F80040C8F80050CAF863
:102EF00000302B68C6F808A02846DB68EE639847C8
:102F0000336830461B689847214628460FF094FFE7
:102F1000236820461B69984723685B69204601B0F7
:102F2000BDE8F04F184700BFA9540208A657020891
:102F30001956020860560208035702081465020871
:102F4000003F0120FC3E01202DE9F14FD0E9556AF8
:102F50000746B06803681B6A984741F21B739842A2
:102F600005D8444B444AA321444820F05BFF7068D5
:102F700003681B6A98470F2803D8414B3E4AA42197
:102F8000F2E7F06803681B6A98470B2803D83D4BAB
:102F9000394AA521E8E70DF0ADFEDFF8F0900430E6
:102FA0000DF0F5FED9F8000010B10368DB68984712
:102FB000D9F8000010B103681B689847DFF8D0808B
:102FC000D8F8000010B103685B699847D7F83C0156
:102FD00010B103685B689847D8F8000010B1036827
:102FE0001B689847D7F83C0110B103689B68984765
:102FF000F0680021FFF758FE4FF0000B224BC0F89D
:1030000004B0044680F808B00360B068036859460D
:103010005B6A9847054602F0B5FA7068036859463E
:103020005B6A98472946064602F08AFA331DC7F8BC
:103030003C61C9F80040C8F80050CAF800302B685D
:10304000C6F808A02846DB68EE6398473368304628
:103050001B689847214628460FF0EEFE236820465D
:103060001B69984723685B69204601B0BDE8F04FB3
:10307000184700BFA95402088C58020819560208C4
:10308000605602080357020814650208003F012039
:10309000FC3E01202DE9F14FD0E9556A0746B068A2
:1030A00003681B6A984741F67B03984205D8444B56
:1030B000444AA321444820F0B5FE706803681B6AA7
:1030C00098470F2803D8414B3E4AA421F2E7F06805
:1030D00003681B6A98470B2803D83D4B394AA52142
:1030E000E8E70DF007FEDFF8F09004300DF04FFE3A
:1030F000D9F8000010B10368DB689847D9F80000E0
:1031000010B103681B689847DFF8D080D8F800003A
:1031100010B103685B699847D7F83C0110B10368A8
:103120005B689847D8F8000010B103681B6898479F
:10313000D7F83C0110B103689B689847F0680021FC
:10314000FFF7B2FD4FF0000B224BC0F804B004466D
:1031500080F808B00360B068036859465B6A984716
:10316000054602F08BFA7068036859465B6A984717
:103170002946064602F060FA331DC7F83C61C9F8DB
:103180000040C8F80050CAF800302B68C6F808A004
:103190002846DB68EE639847336830461B689847DB
:1031A000214628460FF048FE236820461B699847B1
:1031B00023685B69204601B0BDE8F04F184700BFA7
:1031C000A9540208645902081956020860560208F8
:1031D0000357020814650208003F0120FC3E01204D
:1031E00003685B6A18470000002370B5C0E9053327
:1031F000C0E90733C0E90933C0E90B334360037208
:103200008372C3814FF4807343630C4B03610C4B97
:103210004172B3F900100B4B0B4AB3F90060026026
:1032200000F11005044681812846FEF765F828461E
:103230003146FEF763F8204670BD00BF40640208C7
:10324000AC3E0120AE3E0120386502082DE9F04772
:10325000D0E9556A0746B06803681B6A984741F28F
:103260008B53984205D8414B414AA321414820F055
:10327000D9FD706803681B6A98470F2803D83E4B36
:103280003B4AA421F2E7F06803681B6A9847372895
:1032900003D83A4B364AA521E8E70DF02BFDDFF8BD
:1032A000E09004300DF073FDD9F8000010B1036810
:1032B000DB689847D9F8000010B103681B6898478D
:1032C000DFF8C080D8F8000010B103685B69984748
:1032D000D7F83C0110B103685B689847D8F8000044
:1032E00010B103681B689847D7F83C0110B1036818
:1032F0009B689847F0680021FFF772FF142104468D
:10330000FFF772FFB068036800215B6A98470546C3
:1033100002F0A2F87068036800215B6A98472946AA
:10332000064602F077F8331DC7F83C61C9F8004043
:10333000C8F80050CAF800302B68C6F808A0284624
:10334000DB68EE639847336830461B689847214630
:1033500028460FF071FD236820461B6998472368B3
:1033600020465B69BDE8F047184700BFA954020832
:103370003E5A02081956020860560208035702080E
:10338000003F0120FC3E01202DE9F047D0E9556ABD
:103390000746B06803681B6A984741F2F3539842A6
:1033A00005D8414B414AA321414820F03BFD7068BC
:1033B00003681B6A98470F2803D83E4B3B4AA42159
:1033C000F2E7F06803681B6A9847372803D83A4B3E
:1033D000364AA521E8E70DF08DFCDFF8E0900430D7
:1033E0000DF0D5FCD9F8000010B10368DB689847F0
:1033F000D9F8000010B103681B689847DFF8C08057
:10340000D8F8000010B103685B699847D7F83C0111
:1034100010B103685B689847D8F8000010B10368E2
:103420001B689847D7F83C0110B103689B68984720
:10343000F0680021FFF7D4FE14210446FFF7D4FE04
:10344000B068036800215B6A9847054602F0D6F829
:103450007068036800215B6A98472946064602F0B7
:10346000ABF8331DC7F83C61C9F80040C8F80050FC
:10347000CAF800302B68C6F808A02846DB68EE635F
:103480009847336830461B689847214628460FF016
:10349000D3FC236820461B699847236820465B6954
:1034A000BDE8F047184700BFA9540208325B020884
:1034B000195602086056020803570208003F01200F
:1034C000FC3E01202DE9F047D0E9556A0746B06877
:1034D00003681B6A984741F2CF63984205D8414B75
:1034E000414AA321414820F09DFC706803681B6A93
:1034F00098470F2803D83E4B3B4AA421F2E7F068D7
:1035000003681B6A9847372803D83A4B364AA521E7
:10351000E8E70DF0EFFBDFF8E09004300DF037FC4A
:10352000D9F8000010B10368DB689847D9F80000AB
:1035300010B103681B689847DFF8C080D8F8000016
:1035400010B103685B699847D7F83C0110B1036874
:103550005B689847D8F8000010B103681B6898476B
:10356000D7F83C0110B103689B689847F0680021C8
:10357000FFF736FE14210446FFF736FEB0680368F5
:1035800000215B6A9847054601F0C0FF7068036838
:1035900000215B6A98472946064601F095FF331DD6
:1035A000C7F83C61C9F80040C8F80050CAF80030BC
:1035B0002B68C6F808A02846DB68EE639847336896
:1035C00030461B689847214628460FF035FC236893
:1035D00020461B699847236820465B69BDE8F04791
:1035E000184700BFA95402082A5C020819560208AD
:1035F0006056020803570208003F0120FC3E0120EC
:10360000406A7047806A704770478B88C0690A6853
:10361000DB0A50F823001044704710B50446BAB1D5
:10362000107B68B1537BD27A1B0203F4E0631A4328
:10363000236A03EB82031A888A4202D193F90200BB
:1036400010BD05D8013880B204330028F3D1F7E764
:103650000020F5E710B52C2104461FF0A7FC2046FA
:1036600010BD000030B58BB00446BDF86050089521
:10367000BDF85C5007959DF8505006959DF84C504C
:1036800005959DF8485004959DF8445003959DF884
:10369000405002959DF83C500195BDF8385000957A
:1036A0000EF098FF064B2360159BE361169B236287
:1036B000199B63621A9BA36220460BB030BD00BF0A
:1036C0005C6502087047000010B5034B03600446B8
:1036D0000BF016FE204610BD2C66020810B5064BF6
:1036E000036004460BF00CFE204641F2D0611FF04F
:1036F0005DFC204610BD00BF2C66020808B50DF029
:10370000F9FABDE80840FFF76FBA00000022C0E9EF
:103710000122C0E90322C0E90522C0E907224FF4D3
:1037200080728284014A0260704700BFC46502084B
:1037300038B5262204460D46002120F07AFD2046A9
:10374000FFF7E4FF064B23602B88E384FF2320462A
:1037500084F8283029460AF0CBFD204638BD00BF4A
:10376000106E02082DE9F04F044699B02546002658
:103770000FF0B6F9DC4BE66345F8403B04F16C0909
:10378000284604F1B808FEF791FED84FDFF874A37D
:103790004846FEF7A1FEE766C4F8B4604046FEF76F
:1037A0009BFE04F5827316A9C4F8B870C4F80061D2
:1037B0004FF6FF7718460493ADF85870FFF7B8FF3F
:1037C00004F5987318460993FEF770FE04F5AE737E
:1037D00018460A93FEF76AFE04F5C47318460B9365
:1037E000FEF764FE04F5DA7318460C9309F0B2FA9A
:1037F00004F5FE7318461193FDF762FEBC4BC4F846
:10380000FC312433C4F8043204F50473C4F80862AC
:1038100018464FF0010B1093FEF748FE04F50F73A6
:10382000C4F810A284F834B218460F93FEF73EFE97
:1038300004F51A73C4F83CA284F860B218460293E7
:10384000FEF74AFE04F52C7318460393FEF744FE78
:1038500004F53E731846DFF8B0A20E93FEF726FE7D
:1038600004F54B73C4F8F8A2C4F82463A4F82863E1
:1038700018460D93FEF71AFE04F55873C4F82CA3EE
:10388000C4F85863A4F85C6316A918460593ADF80C
:103890005870FFF74DFF04F5637316A91846069399
:1038A000ADF85870FFF744FF04F56E7316A918467B
:1038B0000793ADF85870FFF73BFF04F5797316A92D
:1038C00018460893ADF85870FFF732FF04F5826090
:1038D0004FF496510BF00AFDF02332460093314627
:1038E00028464FF4A073271DFEF7CCFD4FF07F4311
:1038F000A3662946384606F0EBFC48466F22F521C0
:10390000FEF7B3FDE26E7B4BC4F89C3012ADA4F819
:10391000A06049462846D2F88420904795E80700E1
:1039200004F1A80A8AE80700E26E4FF0030384F866
:10393000A43049462846D2F88420904795E80700ED
:103940006D4B16938AE8070016A948464FF0D20A35
:10395000ADF85C600AF0B2FA84F8A2A04946384695
:1039600006F0B6FC6F2240462E21FEF77EFD614B2D
:10397000C4F8E830D4F8B830A4F8EC6041462846E2
:10398000D3F88430984795E80700D4F8B83004F1AC
:10399000F40989E80700D3F8843084F8F0B0414690
:1039A0002846984795E80700534B169389E8070087
:1039B00016A94046ADF85CB00AF080FA84F8EEA093
:1039C0004146384606F084FC049832463821FEF71A
:1039D0004CFD4FF004020498ADF8582016A90AF0E7
:1039E00087FC0499384606F073FCF0224FF0FF384C
:1039F000099800924FF4A07332463146FEF742FD1B
:103A00000999C4F85881384606F062FC0222EC237A
:103A100011460A9800934FF49E73FEF733FD374B1F
:103A20000A99C4F88431384606F052FCF0220B980B
:103A3000009203233246A021FEF724FDDC230B99DC
:103A4000C4F8B08184F8AE31384606F041FC0E234C
:103A50000C98009372229A21FEF714FDC023C4F83B
:103A6000E8314FF43453C4F8F031F022244BC4F859
:103A70000832C4E9782249F66103119A0C99C4F816
:103A8000F461C4F8EC61A4F80C32C4F8DC213846C7
:103A90004FF0140906F01CFC1098CDF80090052397
:103AA0006E222321FEF7EEFC1099C4F838823846C6
:103AB00006F00EFC0F98CDF8009005236E224FF40F
:103AC0008D71FEF7DFFC0F99C4F86482384606F06A
:103AD000FFFB4FF0340A5E22132311460298CDF803
:103AE00000A0FEF7CFFC11E02C6602081463020868
:103AF000706A02085FABDEFF0463020837380CFF10
:103B00000C0C99FFA4630208A86D02080299C4F87E
:103B10009882A4F89C62284609F028FF95E80700DF
:103B200004F5297989E80700029984F8A0B22846AB
:103B300009F01CFF95E8070089E807004FF0030132
:103B40005A4B0298ADF85C104FF0BE0916A91693B7
:103B50000AF0B4F9029984F89E92384606F0B8FB50
:103B600013230398CDF800A05D22CC21FEF78AFC38
:103B70000399C4F8E082A4F8E462284609F0F6FE4E
:103B800095E8070004F53B7A8AE807004FF0030147
:103B900084F8E8122846039909F0E8FE95E8070042
:103BA000424B16938AE8070002250398ADF85C5053
:103BB00016A90AF083F94FF0780A039984F8E6927F
:103BC000384606F085FB0E98CDF800A03D22294628
:103BD0000F23FEF757FC4FF03C0BDFF8D4900E9903
:103BE000C4F820834FF00303A4F828333846C4F800
:103BF000249384F81EB306F06BFB5A460D98CDF85B
:103C000000A00F234FF49771FEF73CFC4FF0030325
:103C1000A4F85C33C4E9D5890D9984F852B33846C9
:103C2000984606F055FBE62205983821FEF71DFC64
:103C30000598ADF8588016A90AF05AFB0599384640
:103C400006F046FBE5220698DF21FEF70EFC0698FB
:103C5000ADF8588016A90AF04BFB0699384606F0D5
:103C600037FB324607983821FEF7FFFB4FF004067A
:103C70000798ADF8586016A90AF03AFB079938463C
:103C800006F026FB2A460898DF21FEF7EEFB08988F
:103C9000ADF8586016A90AF02BFB3846089906F0D3
:103CA00017FB204619B0BDE8F08F00BF046302087F
:103CB0003493ADFF7047000010B5034B036004461A
:103CC0000BF01EFB204610BD6066020810B5064BC7
:103CD000036004460BF014FB204641F21C711FF0F8
:103CE00065F9204610BD00BF6066020800F58052ED
:103CF000B2F8183753B1013B9BB2A2F818372BB971
:103D000080F81D3300F53E700EF092B87047000049
:103D10002DE9F04F044699B0A04600260EF0E0FED3
:103D2000DE4BE66348F8403B04F16C0B4046FEF77F
:103D3000BDFB4FF6FF7516A904F1980A584604F129
:103D4000C409ADF85850FFF7F3FC5046FEF7AEFB40
:103D50004846FEF7ABFB04F1F00318460B93FEF761
:103D6000A5FB04F58E7318460C9308F0F3FF04F5D9
:103D7000B27318461193FDF7A3FBC94BC4F8643125
:103D80002433C4F86C3104F5BC73C4F87061184670
:103D9000C44F1093FEF78AFB04F5D2724FF0010373
:103DA000C4F8787184F89C3110460F92FEF77EFBC0
:103DB0004FF0010304F5E87284F8C831C4F8A47127
:103DC0001046B94F0492FEF787FB04F50772C4F85A
:103DD000D071C4F8186210460592FEF77DFB04F519
:103DE0001A72C4F81C72C4F8646210460292FEF79C
:103DF00073FB04F52C7210460392FEF76DFB04F57D
:103E00003E7210460692FEF767FB04F550721046AC
:103E1000A64F0E92FEF74AFB04F55D72C4F840739C
:103E2000C4F86C63A4F8706310460D92FEF73EFB75
:103E300004F56A72C4F8747316A9C4F8A063A4F8F0
:103E4000A46310460792ADF85850FFF771FC04F5D3
:103E5000757216A910460892ADF85850FFF768FC25
:103E600004F5806216A910460992ADF85850FFF784
:103E70005FFC04F22C4216A910460A92ADF8585085
:103E8000FFF756FC04F58053F025A3F8186704F5F6
:103E90008B604FF496510BF029FA3246009531466B
:103EA00040464FF4A073271DFEF7ECFA4FF07F4316
:103EB000A3664146384606F00BFA3246584638218A
:103EC000FEF7D3FA4FF0040216A95846ADF8582071
:103ED0000AF00EFA594638464FF0FF3B06F0F8F963
:103EE000324600954FF4A07331465046FEF7CAFAA9
:103EF00051463846C4F8C0B006F0EAF90222EC2375
:103F00001146009348464FF49E73FEF7BBFA684B88
:103F1000C4F8EC304946384606F0DAF932460B98D8
:103F200000950323A021FEF7ADFADC234FF00E0A23
:103F30000B9984F816313846C4F818B106F0C8F960
:103F40000C98CDF800A0534672229A21FEF79AFAF7
:103F5000C023C4F850314FF43453C4F85831554B92
:103F6000C4F8703149F66103A4F87431119B0C99BF
:103F7000C4F84431C4E9525538461425C4F85C618C
:103F8000C4F8546106F0A4F91098009505236E2238
:103F90001D21FEF777FA1099C4F8A0B1384606F053
:103FA00097F905230F9800956E224FF48F71FEF755
:103FB00069FA0F99C4F8CCB1384606F089F92A4657
:103FC0000498DFF8F490BE21FEF74FFAD4F8D03110
:103FD0000499C4F8009212AD2846D3F88430A4F8AE
:103FE0000462984795E8070004F50378D4F8D031C7
:103FF00088E807004FF0030184F808122846049966
:10400000D3F88430984795E8070088E8070016A899
:10401000DFF8A880CDF85880112301460498ADF848
:104020005C3009F04BFF0499384606F051F90598C9
:10403000C8227D21FEF719FAD4F81C320599C4F87C
:104040004C922846D3F88430A4F85062984795E8FB
:10405000070004F516794FF0010389E8070084F89A
:104060005432D4F81C320599D3F884302846984746
:1040700095E8070089E8070016A81023014605986F
:10408000ADF85C30CDF8588009F018FF0599384636
:1040900006F01EF93420009012E000BF60660208AE
:1040A000706A0208A463020814630208A86D02087B
:1040B00037380CFF0C0C99FF565659FF0463020861
:1040C00013230298B4228C21FEF7DCF90299C4F87C
:1040D00098B22846A4F89C6209F048FC95E80700CD
:1040E00004F529794FF0010389E80700029984F863
:1040F000A032284609F03AFC95E8070016AB89E89B
:1041000007004FF00F090298CDF858801946ADF816
:104110005C9009F0D3FE6FF04103029984F89E325F
:10412000384606F0D5F83420009013230398052272
:10413000A521FEF7A7F90399C4F8E0B22846A4F830
:10414000E46209F013FC95E8070004F53B7383E88B
:1041500007004FF0030184F8E81228460399029300
:1041600009F004FC95E80700029BCDF8588083E82D
:1041700007000398ADF85CA016A909F09FFE6FF048
:10418000410384F8E6320399384606F0A1F8069810
:104190006A225D21FEF769F9484B0699C4F8283375
:1041A0002846A4F82C6309F0E1FB95E8070004F524
:1041B0004D7383E807000698CDF858800D2316A9A3
:1041C000ADF85C3009F07AFED223069984F82E33DC
:1041D00038464FF0780806F07BF80E98CDF800804E
:1041E0004B463D220221FEF74DF94FF03C0A344D7B
:1041F0000E99C4F86C534FF00303A4F8703338469B
:10420000C4F868B384F866A306F062F852460D98C5
:10421000CDF800804B464FF49771FEF733F94FF01D
:104220000303A4F8A433C4E9E7B50D9984F89AA36D
:1042300038461D4606F04CF8E62207983821FEF76E
:1042400014F90798ADF8585016A90AF051F80799D3
:10425000384606F03DF8E5220898DF21FEF705F91B
:104260000898ADF8585016A90AF042F8089938464F
:1042700006F02EF8324609983821FEF7F6F84FF08E
:1042800004050998ADF8585016A90AF031F80999B3
:10429000384606F01DF802220A98DF21FEF7E5F8FD
:1042A0000A98ADF8585016A90AF022F838460A992B
:1042B00006F00EF8204619B0BDE8F08F5FABDEFFC8
:1042C0003493ADFF7047000010B5034B0360044604
:1042D0000BF016F8204610BD9466020810B5064B88
:1042E000036004460BF00CF8204641F2F4511EF036
:1042F0005DFE204610BD00BF9466020808B50CF0B4
:10430000F9FCBDE80840FEF79FBC00002DE9F04F26
:10431000044693B0A24600260EF0E2FBE04BE663B3
:104320004AF8403B04F16C085046FEF7BFF804F130
:1043300098074046FEF7BAF83846FEF7B7F804F19A
:10434000C40318460593FEF7B1F804F1F0031846CC
:10435000069308F0FFFC04F59C7318460B93FDF7D9
:10436000AFF8D04BC4F838312433C4F8403104F5E9
:10437000A673C4F844611846CB4D0A934FF0010967
:10438000FEF794F804F5BC73C4F84C5184F87091AE
:1043900018460993FEF78AF884F89C9104F5D279BF
:1043A000C4F878514846FEF797F804F5F6731846B6
:1043B0000293FEF791F804F50D731846BB4D039375
:1043C000FEF78AF804F52073C4F83452C4F87C620E
:1043D0001846DFF8ECB20893FEF768F804F52D7381
:1043E000C4F880B2C4F8AC62A4F8B062184607936F
:1043F000FEF75CF804F53A73C4F8B4B2C4F8E062AE
:10440000A4F8E46218460493FEF766F8C4F8E8528C
:10441000C4F83063F02504F54D704FF496510AF05E
:1044200065FF32460095314650464FF4A07304F1C3
:10443000040BFEF727F84FF07F43A366514658461A
:104440004FF0FF3A05F044FF324600954FF4A07359
:1044500031464046FEF716F841465846C4F894A047
:1044600005F036FF0222EC231146009338464FF444
:104470009F73FEF707F88E4BC4F8C0303946584694
:1044800005F026FF3246059800950323A021FDF78D
:10449000F9FFDC23059984F8EA305846C4F8ECA00B
:1044A00005F016FF0E230698009372229B21FDF75C
:1044B000E9FFC023C4F824314FF43453C4F82C313D
:1044C0007C4BC4F8443149F66103A4F848310B9B96
:1044D0000699C4F83061C4E94755C4F82861C4F8A6
:1044E00018315846282505F0F3FE0A980095052353
:1044F00065221321FDF7C6FF0A99C4F874A1584636
:1045000005F0E6FE09980095052364224FF49571A5
:10451000FDF7B8FF4FF034080999C4F8A0A1584638
:104520000CAD05F0D5FE1323CDF800805F22484680
:104530007421FDF7A7FFA4F8D86149462846C4F8BE
:10454000D4A109F013FA95E8070004F5F07787E89D
:1045500007004FF0030284F8DD214946284609F0A0
:1045600005FA95E807004FF0010387E8070084F893
:10457000DC314946284609F0F9F995E807004E4B29
:10458000109387E80700072310A94846BE27ADF817
:10459000443009F093FC84F8DA714946584605F036
:1045A00097FE13230298CDF800805F22BB21FDF710
:1045B00069FF0299A4F820622846C4F81CA209F0F9
:1045C000D5F995E8070004F50A7888E807004FF068
:1045D0000302029984F825222846914609F0C6F97B
:1045E00095E8070088E80700029984F82492284695
:1045F00009F0BCF995E807002F4B109388E80700F5
:1046000006230298ADF8443010A909F057FC02992E
:1046100084F82272584605F05BFE03986F2235211C
:10462000FDF723FFD4F83432244A0399C4F86422F6
:10463000A4F868622846D3F88430984795E80700C4
:10464000D4F8343204F51C774FF0010987E80700ED
:10465000D3F88430039984F86C922846984795E8FB
:104660000700154B109387E8070005230398ADF862
:10467000443010A9D22709F021FC4FF078080399A3
:1046800084F86A72584605F023FE0898CDF8008039
:104690000A233C224FF49B71FDF7F4FE12E000BFA9
:1046A00094660208706A0208A46302081463020890
:1046B00037380CFF0C0C99FF046302085FABDEFF78
:1046C000A86D02084FF03C092F49C4F8AC124FF016
:1046D00003000899A4F8B002C4F8A8A2584684F8C8
:1046E000A69205F0F5FD0A230798CDF800803D223B
:1046F0000221FDF7C7FE2449C4F8E0124FF0030081
:104700000799A4F8E402C4F8DCA2584684F8DA92C7
:1047100005F0DEFD04986F22F321FDF7A6FED4F824
:10472000E8321A4A0499C4F81823A4F81C632846EE
:10473000D3F88430984795E80700D4F8E83204F5B8
:10474000497686E807004FF00302049984F8202395
:104750002846D3F88430984795E807000C4B10930F
:1047600086E8070004230498ADF8443010A909F046
:10477000A5FB5846049984F81E7305F0A9FD204650
:1047800013B0BDE8F08F00BF3493ADFF5FABDEFF29
:104790000463020870477047704730B4C2684468C9
:1047A0005510034604EB6200D20748BF62599B686C
:1047B00030BC48BFD35818470346406830B19A68A8
:1047C0001AB9D86800F0010070470120704710B591
:1047D000102104461EF0EAFB204610BD10B5034B25
:1047E000036004460AF08CFD204610BDE066020816
:1047F00010B5064B036004460AF082FD204641F6E0
:104800007C011EF0D3FB204610BD00BFE06602080D
:1048100038B500F1E003994204460D4603D10CF08F
:1048200069FAFEF721FA04F264539D4203D10CF0B9
:1048300061FAFEF7F9F99834A54205D10CF05AFA5D
:10484000BDE83840FEF7E0B938BD000038B5044691
:104850000D46FCF735FE034B23602433E560A3606F
:10486000204638BD706A02082DE9F04F0446A5B015
:10487000A14600250EF034F9E24BE56349F8403BD0
:1048800004F16C0A4846FDF711FE04F19808504601
:10489000FDF70CFE04F1E007404609F06BFE3846D8
:1048A00009F068FE04F594731846069308F052FA6E
:1048B00004F5B873294618461193FFF7C7FF04F5AE
:1048C000C2731846079308F045FA04F5E6732946C3
:1048D00018461293FFF7BAFF04F5F07318460893D1
:1048E00008F038FA04F50A73294618461393FFF7BF
:1048F000ADFF04F50F731846099308F02BFA04F581
:104900002173294618461493FFF7A0FF04F5267378
:1049100018460A9308F01EFA04F53873294618461B
:104920001593FFF793FF04F53D7318460B9308F0BA
:1049300011FA04F54F73294618461693FFF786FFC0
:1049400004F5547318460C9308F004FA04F56673E2
:10495000294618461793FFF779FF04F56B73059303
:104960004FF48073A4F8D033A74BC4F8AC33A74BF3
:10497000C4F8D4334FF0FF314FF47F034FF0FF30D2
:10498000C4F8E033C4E9FB05A4F8D81304F57D703E
:10499000C4E9EC55C4E9EE55C4E9F055C4E9F25553
:1049A000C4F8DC53A4F8E453C4F8E8530D9008F0BD
:1049B000D1F9294604F23C401890FFF747FF04F56F
:1049C0008A600E9008F0C6F9294604F593601990A4
:1049D000FFF73CFF04F2AC400F9008F0BBF929460A
:1049E00004F2F4401A90FFF731FF04F5A160109033
:1049F00008F0B0F9294604F5AA601B90FFF726FFDE
:104A000004F26450039009F0B5FD04F58053804A28
:104A1000C3F86C287F4AC3F87048C3F87428C3F8F9
:104A2000785804F2AC504FF0F00B4FF496510AF066
:104A30005DFC2A46CDF800B0294648464FF4A073E5
:104A4000261DFDF71FFD4FF07F43A3664946304604
:104A500005F03EFC2A46CDF800B0294650464FF4FA
:104A6000A073FDF70FFD6C4BC4F8943051463046EF
:104A700005F02EFC404666225521FDF7F6FC21A8E4
:104A80004FF01D0A4FF0010B22AA01464FF0020918
:104A90004046ADF88890ADF884B009F062FAA4F809
:104AA000D0A04046FDF72AFF4FF0FF30C4F8D800F1
:104AB00004F5C350594BC4F8D4300C300490C4F8FA
:104AC000C0004146304605F003FC594638463222C4
:104AD000FDF7CBFC21A822AA01463846ADF8889004
:104AE000ADF884B009F03DFA1E23A4F81831384619
:104AF000FDF704FF0499494BC4F81C314FF0FF3017
:104B0000C4F82001C4F808113046394605F0E0FB2E
:104B10000698CDF800A05346C522CF21FDF7B2FC80
:104B20003F4B1199C4F87C314FF434584FF4F0776F
:104B30004FF4A0794DF21443C4E95577C4F85C9161
:104B4000A4F88031C4F8501130460699C4F8685171
:104B5000C4F86051C4F8648105F0BAFB0798CDF839
:104B600000A05346C5225B21FDF78CFC2D4B12990A
:104B7000C4F8D8314AF23A53C4E96C77C4F8B89112
:104B8000A4F8DC31C4F8AC1130460799C4F8C4511C
:104B9000C4E96F5805F09CFB0898CDF800A0534677
:104BA000C5229521FDF76EFC1F4B1399C4F83432D2
:104BB0004DF6B953C4E98377C4F81492A4F8383297
:104BC000C4F8081230460899C4F82052C4E986583F
:104BD00005F07EFB0998CDF800A05346A822EC21F1
:104BE000FDF750FC114B1499C4F8903248F216634B
:104BF000C4E99A77C4F87092A4F89432C4F86412A5
:104C0000304615E0E0660208B06C02080463020852
:104C1000C866020811480008EDDCADFF805039FF7E
:104C2000A583D4FFD1A4A1FFCAB4DEFFB7C286FF1B
:104C30000999C4F87C52C4E99D5805F049FB0A98CB
:104C4000CDF800A05346A8227521FDF71BFC994B17
:104C50001599C4F8EC324EF67363C4E9B177C4F821
:104C6000CC92A4F8F032C4F8C01230460A99C4F8C5
:104C7000D852C4E9B45805F02BFB0B98CDF800A02E
:104C80005346A822B221FDF7FDFB8B4B1699C4F8C1
:104C9000483349F63263C4E9C877C4F82893A4F8C6
:104CA0004C33C4F81C1330460B99C4F83453C4E990
:104CB000CB5805F00DFB0C98CDF800A05346A82268
:104CC0003E21FDF7DFFB7D4B1799C4F8A4334EF668
:104CD0009243C4E9DF77C4F88493A4F8A833C4F8F6
:104CE000781330460C99C4F89053C4E9E25805F0A3
:104CF000EFFA3123059800930A229F235921FDF7EB
:104D0000C1FB1CAF6E4B0599C4F8DC333846A4F8E0
:104D1000E0B308F02BFE97E8070004F57A7383E808
:104D20000700684A229222AA202311460598ADF86E
:104D30008C304FF0500A09F0C1F80599304605F063
:104D4000C7FA53460D98CDF800A06FF01D026FF022
:104D50001901FDF797FB4FF0FF324FF4A067C4F83D
:104D600048244FF0FF31189AA4F84C14C4F81C24BE
:104D70000D99C4F820743046C4F82474C4F828741B
:104D8000C4F83454C4F82C54C4F8308405F0A0FAA4
:104D900053460E98CDF800A06FF01D024FF48771B6
:104DA000FDF770FB48F65D691999474AC4F8A424D9
:104DB000A4F8A894C4F8781430460E99C4F87C740A
:104DC000C4F88074C4F88474C4F89054C4F8885447
:104DD000C4F88C8405F07CFA53460F98CDF800A0F7
:104DE000BD226FF01901FDF74DFB374AC4F80025CD
:104DF0001A9A0F99A4F80495C4F8D4243046C4F83C
:104E0000D874C4F8DC74C4F8E074C4F8EC54C4F882
:104E1000E454C4F8E88405F05BFA53461098CDF8E2
:104E200000A0BD224FF48771FDF72CFB4FF0FF323D
:104E3000C4F85C254FF0FF311B9AA4F86015C4F844
:104E400030251099C4F834753046C4F83875C4F864
:104E50003C75C4F84855C4F84055C4F8448505F07D
:104E600037FA03983222AA21FDF7FFFA4FF0020920
:104E700022AA21A90398ADF884B0ADF8889009F072
:104E800070F81F230398A4F89C35FDF737FD0F4BEE
:104E9000C4F8A0354FF0FF33C4F8A435049B039940
:104EA000C4F88C35304605F013FA204625B0BDE82D
:104EB000F08F00BF9BCFEBFF93C799FF9191EBFF62
:104EC0008F5D32FF04630208EBCA88FF805039FF10
:104ED0007047000030B5174D2C6814F001048FB0F6
:104EE000BFF35B8F22D128461EF062F8F0B13F235A
:104EF0000993114B0893114B07930123CDE9054307
:104F000004930423CDE902430F230D4900930922A2
:104F10001323CDE90B440B480A940194FEF7A2FB3E
:104F200009481EF09DFF28461EF04EF805480FB0B8
:104F300030BD00BFD42F0020E49202080093020885
:104F4000BC8F0208D82F0020D14E00087047000007
:104F500030B5174D2C6814F001048FB0BFF35B8F90
:104F600022D128461EF024F8F0B13F230993114BBB
:104F70000893114B07930123CDE9054304930423C0
:104F8000CDE902431223009317230C490C480A94DD
:104F90001A46CDE90B440194FEF764FB09481EF064
:104FA0005FFF28461EF010F805480FB030BD00BF67
:104FB00004300020E8920208049302083C900208A2
:104FC000083000204D4F00087047000030B5164DE6
:104FD0002C6814F001048FB0BFF35B8F21D12846F9
:104FE0001DF0E6FFE8B13F230993104B0893104BE7
:104FF000104911480A940122CDE906430423CDE962
:10500000033214230093CDE90B441523CDE9014469
:105010000594FEF727FB09481EF022FF28461DF0E5
:10502000D3FF05480FB030BD34300020EC920208A9
:10503000089302088091020838300020C94F000808
:105040007047000030B5174D2C6814F001048FB084
:10505000BFF35B8F22D128461DF0AAFFF0B13F239A
:105060000993114B0893114B07930123CDE9054395
:1050700004930423CDE902431C230D4900930A2223
:105080001D23CDE90B440B480A940194FEF7EAFA7C
:1050900009481EF0E5FE28461DF096FF05480FB0B2
:1050A00030BD00BF64300020F09202080C9302086B
:1050B00090910208683000204150000870470000BD
:1050C00030B5174D2C6814F001048FB0BFF35B8F1F
:1050D00022D128461DF06CFFF0B13F230993114BFC
:1050E0000893114B079301220423CDE90523CDE951
:1050F00003321F230D4900930C222823CDE90B44D2
:10510000CDE901440A480A94FEF7ACFA09481EF0BA
:10511000A7FE28461DF058FF05480FB030BD00BF60
:1051200094300020F4920208109302081C920208A6
:1051300098300020BD5000087047000030B5164D73
:105140002C6814F001048FB0BFF35B8F20D1284688
:105150001DF02EFFE0B13F230993104B0893104B35
:10516000104911480A940122CDE906430423CDE9F0
:10517000033211230093CDE90B44CDE9014405949A
:10518000FEF770FA09481EF06BFE28461DF01CFF62
:1051900005480FB030BD00BFC4300020F8920208AF
:1051A00014930208C4920208C83000203951000844
:1051B0007047000030B5164D2C6814F001048FB014
:1051C000BFF35B8F20D128461DF0F2FEE0B13F23F4
:1051D0000993104B0893104B104911480A9401226F
:1051E000CDE906430423CDE9033214230093CDE92E
:1051F0000B44CDE901440594FEF734FA09481EF04A
:105200002FFE28461DF0E0FE05480FB030BD00BF60
:10521000F4300020FC92020818930208D49202088D
:10522000F8300020B151000800207047002070477E
:105230000EB403B503AB002153F8042B01930CF01B
:10524000CDFC02B05DF804EB03B070470CB407B5B9
:1052500004AB53F8042B01930CF0C0FC03B05DF8D1
:1052600004EB02B070470000436C10B5044673B302
:10527000038F2BB9184B194AC52119481EF0D2FDCE
:10528000C38E00EB43035B8C0BB30EF060FB238FEC
:10529000012B03D8134B144ACB21EEE7E28E531CAB
:1052A0009BB2092B194688BFA3F10A0104EB410107
:1052B00040F63F10498C814209D10A2B04EB42028F
:1052C00028BF002304EB4303508C588451842046AC
:1052D000BDE810400EF03EBA1E5D0208275D0208D0
:1052E000D25D02081C5E02082A5E02080EF0F9B9BF
:1052F00010B586B002AC84E806001A460AAB0593E6
:105300000193099B00932146089B0BF091F806B08E
:1053100010BD000038B518BB124B13481C68134968
:10532000B4B1226822440260626822440A60A26822
:1053300014440F4B00221A8000F038F8054600F0A4
:1053400033F80C4B1C600C4B1D600C4B188007E0B5
:105350000B4B03600B4B0B600B4B1C68002CE8D114
:1053600038BD00BF3031002028310020243100201A
:105370002C310020103F0120183F0120143F012054
:10538000A89302081C93020844940208044B1B686B
:1053900053F82100034B1B6803EB4000704700BF2C
:1053A0002431002028310020232070470048704716
:1053B0003431002010B5FFF7C1FE0A4C2060FFF722
:1053C0007FFE6060FFF7C4FDA060FFF7FFFDE060B7
:1053D000FFF738FE2061FFF7EDFE6061FFF77AFD11
:1053E000A06110BD3431002010B5002404600C60B1
:1053F00014601C6010BD704704387047704710B5CA
:10540000102104461DF0D2FD204610BDA0F104007D
:10541000F5E7000000228260024A02601832426012
:10542000C1607047186702087047000010B5034B51
:1054300003600446FCF7B0FF204610BD4067020839
:1054400010B50446FFF7F2FF204641F28C511DF0E3
:10545000ADFD204610BD000010B50446FDF75EF816
:10546000014B2360204610BD40670208FCF774BF63
:10547000704710B54FF4AE7104461DF097FD2046FD
:1054800010BD10B50446D0F8580100F0C6F820460B
:10549000BDE810400BF0D8BC10B50446FDF760FB2A
:1054A000014B2360204610BD746702087047043822
:1054B0007047704710B5102104461DF077FD204657
:1054C00010BDA0F10400F5E700228260024A0260EC
:1054D00018324260C1607047C86702087047000018
:1054E00010B5034B03600446FEF7EEF8204610BDEE
:1054F000F067020810B50446FFF7F2FF204641F2BC
:10550000D0611DF053FD204610BD000010B50446CB
:10551000FEF728F9014B2360204610BDF067020812
:10552000FEF7D0B8704704387047704710B51021A7
:1055300004461DF03BFD204610BDA0F10400F5E738
:1055400000228260024A026018324260C1607047E5
:10555000246802087047000010B5034B036004463E
:10556000FEF7AAFB204610BD4C68020810B50446A1
:10557000FFF7F2FF204641F21C711DF017FD204697
:1055800010BD000010B50446FEF7C2FB014B2360BE
:10559000204610BD4C680208FEF78CBB70470438EB
:1055A0007047704710B5102104461DF0FFFC2046DF
:1055B00010BDA0F10400F5E700228260024A0260FB
:1055C00018324260C160704780680208704700006E
:1055D00010B5034B03600446FEF776FE204610BD6F
:1055E000A868020810B50446FFF7F2FF204641F212
:1055F000F4511DF0DBFC204610BD000010B5044640
:10560000FEF784FE014B2360204610BDA868020807
:10561000FEF758BE0022026070477047704704389A
:105620007047704710B5102104461DF0BFFC20469E
:1056300010BDA0F10400F5E700228260024A02607A
:1056400018324260C1607047DC6802087047000091
:1056500010B5034B03600446FFF7C0F8204610BDA9
:105660000469020810B50446FFF7F2FF204641F630
:105670007C011DF09BFC204610BD000010B50446C7
:10568000FFF7F2F8014B2360204610BD04690208C1
:10569000FFF782B8F02070474FF4A07070472920C0
:1056A000FCF76ABA2820FCF767BA08B5FCF738FAA5
:1056B000CA20FCF761FAC320FCF742FA0820FCF785
:1056C0003FFA5020FCF73CFACF20FCF755FA0020B7
:1056D000FCF736FAC120FCF733FA3020FCF730FA39
:1056E000ED20FCF749FA6420FCF72AFA0320FCF7C6
:1056F00027FA1220FCF724FA8120FCF721FAE8208F
:10570000FCF73AFA8520FCF71BFA0020FCF718FAA0
:105710007820FCF715FACB20FCF72EFA3920FCF79D
:105720000FFA2C20FCF70CFA0020FCF709FA3420C1
:10573000FCF706FA0220FCF703FAF720FCF71CFA44
:105740002020FCF7FDF9EA20FCF716FA0020FCF710
:10575000F7F90020FCF7F4F9B120FCF70DFA00206E
:10576000FCF7EEF91B20FCF7EBF9B620FCF704FA86
:105770000A20FCF7E5F9A220FCF7E2F9C020FCF7CB
:10578000FBF91020FCF7DCF9C120FCF7F5F910203B
:10579000FCF7D6F9C520FCF7EFF94520FCF7D0F966
:1057A0001520FCF7CDF9C720FCF7E6F99020FCF7AF
:1057B000C7F93620FCF7E0F9C820FCF7C1F9F22060
:1057C000FCF7DAF90020FCF7BBF9B020FCF7D4F9BC
:1057D000C220FCF7B5F9B620FCF7CEF90A20FCF799
:1057E000AFF9A720FCF7ACF92720FCF7A9F90420B2
:1057F000FCF7A6F92A20FCF7BFF90020FCF7A0F976
:105800000020FCF79DF90020FCF79AF9EF20FCF747
:1058100097F92B20FCF7B0F90020FCF791F9002054
:10582000FCF78EF90120FCF78BF93F20FCF788F993
:10583000F620FCF7A1F90120FCF782F90020FCF723
:105840007FF90620FCF77CF92C20FCF795F9C8209D
:10585000FCF7E0F92620FCF78FF90120FCF770F93E
:10586000E020FCF789F90F20FCF76AF92920FCF702
:1058700067F92420FCF764F90C20FCF761F90E208D
:10588000FCF75EF90920FCF75BF94E20FCF758F9AC
:105890007820FCF755F93C20FCF752F90920FCF779
:1058A0004FF91320FCF74CF90520FCF749F91720B4
:1058B000FCF746F91120FCF743F90020FCF740F90A
:1058C000E120FCF759F90020FCF73AF91620FCF723
:1058D00037F91B20FCF734F90420FCF731F91120CB
:1058E000FCF72EF90720FCF72BF93120FCF728F9FB
:1058F0003320FCF725F94220FCF722F90520FCF7BC
:105900001FF90C20FCF71CF90A20FCF719F92820D4
:10591000FCF716F92F20FCF713F90F20FCF710F90C
:105920001120FCF729F9C820FCF774F92920FCF7AD
:1059300023F9BDE808402C20FCF71EB908B5FCF798
:10594000EFF80321D320FCF733F980B208BD10B57E
:10595000C4B2022203212046FCF798F80A20FCF783
:10596000DDF8204600220321FCF790F8BDE8104046
:105970000220FCF7D3B838B50446E4B2FCF784F84B
:1059800000212046FCF79AF8012105462046FCF745
:1059900095F840EA052080B238BD10B5C4B2402168
:1059A0002046FCF78BF8030607D54C212046FCF770
:1059B00085F8003818BF012010BD01224B21204678
:1059C000FCF764F8204600224B21FCF75FF800202A
:1059D000F2E773B50423C4B20E461546D7210DEB8A
:1059E00003022046FCF784F8019B1BBA1A0DC3F38F
:1059F0000B23328020462B8001224B21FCF746F8F6
:105A000000224B212046FCF741F802B070BD000097
:105A100010B50A4A1378984204460DD0517888424E
:105A20000AD00BB141B90123D454FCF72DF820461C
:105A3000BDE81040FFF78BBF10BD00BF5031002004
:105A400010B5C4B209212046FCF738F840F0010235
:105A5000D2B220460921BDE81040FCF717B810B5B6
:105A6000C4B209212046FCF729F8092100F0FE0202
:105A70002046BDE81040FCF709B838B5C4B20D4661
:105A800020460A21FCF71AF840EA0502D2B2204665
:105A90000A21BDE83840FBF7F9BF10B50446FBF713
:105AA000F4FF20461F21FFF7E8FF2046BDE8104025
:105AB000FFF7C6BF38B5C4B20D4620460A21FBF732
:105AC000FDFF20EA0502D2B220460A21BDE8384097
:105AD000FBF7DCBF10B50446FFF7C1FF20461F21CE
