:020000040800F2
:10000000000003205D060008C5230008C723000880
:10001000C9230008CB230008CD23000800000000FE
:10002000000000000000000000000000B1C0000857
:10003000CF2300080000000041C10008CBB9000830
:10004000AD060008AD060008AD060008AD060008C4
:10005000AD060008AD060008AD060008AD060008B4
:10006000AD060008AD060008AD060008AD060008A4
:10007000AD060008AD060008AD060008AD06000894
:10008000AD060008AD060008AD060008AD06000884
:10009000AD060008AD060008AD060008AD06000874
:1000A000AD060008AD060008AD060008AD06000864
:1000B000AD060008AD060008AD060008AD06000854
:1000C000AD060008AD060008AD060008AD06000844
:1000D000AD060008AD060008AD060008AD06000834
:1000E000AD060008AD060008AD060008AD06000824
:1000F000AD060008AD060008AD060008AD06000814
:10010000AD060008AD060008AD060008AD06000803
:10011000AD060008AD060008D1230008AD060008B2
:10012000AD060008AD060008AD060008AD060008E3
:10013000AD060008AD060008AD060008AD060008D3
:10014000AD060008AD060008AD060008AD060008C3
:10015000AD060008AD060008AD060008AD060008B3
:10016000AD060008AD060008AD060008AD060008A3
:10017000AD060008AD060008AD060008000000004E
:10018000AD060008AD060008AD060008AD06000883
:10019000AD060008AD060008AD060008AD06000873
:0C01A000DD230008AD060008E92300087C
:1001B00010B5054C237833B9044B13B10448AFF3A1
:1001C00000800123237010BD800300200000000088
:1001D0007C8E020808B5034B1BB103490348AFF3FB
:1001E000008008BD00000000840300207C8E02080F
:1001F00001F0FF01102A2BDB10F0070F08D010F8D8
:10020000013B013A8B422DD010F0070F42B3F6D1DB
:10021000F0B441EA012141EA014122F007047FF0F4
:1002200000070023F0E80256083C85EA010586EA4B
:10023000010685FA47F5A3FA87F586FA47F6A5FA87
:1002400087F68EB9EED1F0BC01F0FF0102F0070293
:1002500032B110F8013B013A83EA010313B1F8D13E
:100260000020704701387047002D06BF354603381F
:10027000073815F0010F07D1013015F4807F02BF58
:10028000013015F4C03F0130F0BC0138704700BFA9
:100290007BB972B90029BEBF00204FF0004106E0D3
:1002A00008BF00281CBF6FF000414FF0FF3000F086
:1002B000D3B9ADF1080C6DE904CE002909DB002BA0
:1002C0001ADB00F04DF8DDF804E0DDE9022304B0AC
:1002D0007047404261EB4101002B1BDB00F040F80E
:1002E000DDF804E0DDE9022304B0404261EB4101A6
:1002F000524263EB43037047524263EB430300F007
:100300002FF8DDF804E0DDE9022304B0404261EBA0
:1003100041017047524263EB430300F021F8DDF8DE
:1003200004E0DDE9022304B0524263EB430370476B
:1003300053B94AB9002908BF00281CBF4FF0FF314C
:100340004FF0FF3000F088B9ADF1080C6DE904CE34
:1003500000F006F8DDF804E0DDE9022304B07047A0
:100360002DE9F047089D8E4604468846002B4AD169
:100370008A42174662D9B2FA82F64EB1C6F120031C
:1003800001FA06F820FA03F3B74043EA0808B4403C
:100390004FEA174E1FFA87FCB8FBFEF1230C0EFB49
:1003A000118843EA084301FB0CF29A4209D9FB1871
:1003B00001F1FF3080F0EA809A4240F2E780023992
:1003C0003B449A1AA3B2B2FBFEF00EFB102243EAA2
:1003D000024300FB0CFC9C4509D9FB1800F1FF32DD
:1003E00080F0D6809C4540F2D3803B44023840EAFE
:1003F0000140A3EB0C0300211DB1F3400022C5E92D
:100400000032BDE8F0878B4205D90DB1C5E9000186
:1004100000210846F5E7B3FA83F1002946D1734578
:1004200002D3824200F20581841A6EEB030201209E
:100430009046002DE5D0C5E90048E2E7002A00F02B
:100440009080B2FA82F6002E40F0A4808A1A030C43
:100450004FEA174E80B2BCB20121B2FBFEFC0EFB8C
:100460001C2243EA024304FB0CF29A4207D9FB1810
:100470000CF1FF3802D29A4200F2E080C4469B1A87
:10048000B3FBFEF20EFB123340EA034302FB04F41B
:100490009C4207D9FB1802F1FF3002D29C4200F2C5
:1004A000CA8002461B1B42EA0C40A5E7C1F12006A8
:1004B0008B4022FA06F71F430EFA01F420FA06F3E6
:1004C0002EFA06FE4FEA1749234300FA01F81FFAF5
:1004D00087FCBEFBF9F01C0C09FB10EE44EA0E444D
:1004E00000FB0CFEA64502FA01F209D93C1900F105
:1004F000FF3A80F09C80A64540F2998002383C4447
:10050000A4EB0E041FFA83FEB4FBF9F309FB1344BA
:100510004EEA044403FB0CFCA44508D93C1903F142
:10052000FF3E80F08280A4457FD9023B3C4443EAF1
:100530000040A4EB0C04A0FB02EC64457346E146CA
:1005400062D35FD05DB1B8EB030264EB090404FA37
:1005500006F622FA01F31E43CC40C5E900640021EF
:100560004FE7B1FBF2FC010C41EA0E4180B240EAD8
:1005700001423B4638463C46B846BE462026B1FBC3
:10058000F7F1A2EB080241EA0C4166E7014618E7E1
:1005900010462CE7C6F120022EFA02F3B740B14014
:1005A00020FA02F24FEA174E0A43B3FBFEF8BCB240
:1005B0000EFB1833110C41EA034108FB04F9B0406B
:1005C00089454FEA104380B23ED9791808F1FF3CC3
:1005D00001D289451FD8A1EB0901B1FBFEF909FB46
:1005E00004F80EFB191192B242EA0142424529D2A7
:1005F000BA1809F1FF31C4D24245C2D2A9F10201B1
:100600003A44BEE7F0459DD2BEEB02036CEB070C0B
:100610000138E14696E7A7EB09094944A8F1020C25
:10062000B1FBFEF909FB04F8DBE773467FE75046B0
:1006300066E70846FDE63B44023A33E7ACF1020CBC
:100640003B441CE749469CE7A1EB0901C446B1FBCA
:10065000FEF909FB04F8C4E7704700BFDFF834D0A7
:10066000002103E00C4B5B58435004310B480C4B0A
:1006700042189A42F6D30B4A02E0002342F8043BA8
:10068000094B9A42F9D308F0FFFA27F089FE01F0EE
:100690003FF9704700000320A4BC040800000020BC
:1006A0006401002080030020A04C0120FEE7704779
:1006B00008B500F0A7FDBDE8084000F029BD00F036
:1006C000A3BD704710B50421044626F06BFC2046FC
:1006D00010BD000038B50C4B0C4C18800C4B822020
:1006E00019806368984740F6110398420AD1094D72
:1006F00023682C60822098472B688220DB6898470B
:10070000002038BD0120FCE7A60300204C0000209B
:10071000A4030020A80300204FF4A071F020FFF7ED
:10072000D9BF0000F7B52F4D2B6804461B69822006
:1007300098472080002844D02B680DF106025B69A1
:1007400001A982209847BDF80620A2F5B47292B2A2
:100750000A2A38D90B23B2FBF3F2234B1B889A42A7
:1007600001D9013B9AB2BDF80430204840F6B831B7
:100770008B422AD8C3F571630E3301689BB20F25F3
:10078000B3FBF5F31A4D2D88AB4284BF05F1FF355D
:10079000ABB28B421D468EB220D99B1B99B2154E2F
:1007A0003768BBB2BA428CBFD31A9B1A9BB21944AA
:1007B0000529C8BF05600368C8BF3260638033681D
:1007C000A38003B0F0BD0022CDE7C3F56D6308330D
:1007D0009BB20E2B0168D2D800252B46C91A89B2CC
:1007E000DDE700BFA8030020A4030020A003002031
:1007F000A60300209C03002037B568460D4614462A
:10080000FFF790FFBDF8000040B1BDF802302B604B
:10081000BDF80430C3F5A0732360012003B030BDE0
:10082000032821D8DFE800F0020B12190F4B1A68D9
:10083000B2FA82F2520904210D4808F0EDBE0B4BCA
:100840005A68B2FA82F252090821F5E7074B9A6812
:10085000B2FA82F252091021EEE7044BDA68B2FADA
:1008600082F252092021E7E7704700BFAC03002065
:1008700000100240032821D8DFE800F0020B121913
:100880000F4B1A68003A18BF012204210D4808F0E6
:10089000C3BE0B4B5A68003A18BF01220821F5E786
:1008A000074B9A68003A18BF01221021EEE7044B6B
:1008B000DA68003A18BF01222021E7E7704700BF3D
:1008C000AC0300200010024003280DD8DFE800F040
:1008D0000206080A0421054808F0A3BE0821FAE729
:1008E0001021F8E72021F6E7704700BF0010024012
:1008F00008B5032811D8DFE800F0020A0C0E042125
:10090000074808F083FE431E5842584108BD08219D
:10091000F6E71021F4E72021F2E70020F3E700BF1B
:100920000010024070B5084D00240126E0B2FFF728
:10093000DFFF18B12B68012B18BF2E600134052C86
:1009400005F10405F2D170BDAC030020012380F84D
:10095000781080F87930704700207047034B41646D
:10096000003918BF01211970704700BF5F3F012097
:1009700000207047836B0BB10846184770474FF64D
:10098000FF707047406803689B691847704770475D
:100990007047000010B5044600F044FD2368034989
:1009A000D3F88C302046BDE810401847000000D036
:1009B00008B503680446D3F880309847236820467A
:1009C0009B6F984700F0ECF8236820461B6F984710
:1009D000292001F017FA00F0E3F8236820461B6F86
:1009E0009847F8E710B504460EF01CF92368204636
:1009F000D3F8AC30BDE81040184700F0F7BC00F069
:100A0000FBBC00F02DBD00F0CDBC00F03DBD00F002
:100A100045BD00F0D1BC0DF071BB10B57C21044682
:100A200026F0C0FA204610BD10B590F8341090F8AA
:100A300078400C4B8C421A7809D03AB90A4A0B49D3
:100A40001488088810800C8001221A7010BD002ABA
:100A5000FCD0054A05491488088810800C800022C3
:100A6000F3E700BF583F0120543F0120563F0120CB
:100A700070B50D46194635B9094B0A4A0A4840F285
:100A8000D22127F0CBF9C0E90F52084B003A18BF2A
:100A900001221A700368BDE87040D3F88C30184703
:100AA000EC8E0208248F0208728F02085E3F01203C
:100AB00008B5094B1B888B4203D8084B1B8893420F
:100AC00005D9074B074A08489E2127F0A7F9074B8D
:100AD0001980074B1A8008BD543F0120563F012062
:100AE000B78F02081A900208728F02085A3F01203D
:100AF0005C3F0120034690F87A0018B158680368FB
:100B00001B68184770470000012108B500220846FD
:100B10000AF0E4FF0A4B186028B90A4B0A4A282158
:100B20000A4827F07BF90022042101200BF075F818
:100B3000074B186018B9074B034A2C21F0E708BD92
:100B4000C00300205D900208A6900208D59002081C
:100B5000BC03002013910208024B4FF0FF311868CC
:100B60000BF006B8C0030020014B18680BF02CB83E
:100B7000C0030020024B002118680AF0F9BF00BF33
:100B8000C0030020FFF7F0BF0348044900680023BA
:100B90001A460BF07DB800BFBC0300200400002003
:100BA00013B5084C00231A4601A920680BF0A1F8E0
:100BB00020684FF0FF33002201A90BF09AF802B031
:100BC00010BD00BFBC03002003685B6C1847012008
:100BD000704703689B6A1847FEE740F2EF307047A2
:100BE000054B0360054B4FF08062C3F88820BFF3CC
:100BF0004F8FBFF36F8F7047B8A2020800E100E08B
:100C000010B504464FF45A61FFF7EAFF204626F07C
:100C1000C9F9204610BD000082B0002301930E4B9D
:100C20001A6B42F400021A631A6B02F4000201927A
:100C3000019A1A6942F400021A611A6922F4000248
:100C40001A61064B064A1A61064A5A61064B4FF072
:100C500080629A6002B0704700380240E02F0020A6
:100C6000B90E0008D90B000800E100E008B50A2819
:100C700009D8DFE800F006100E0808080810101068
:100C80001000022008BD054B054A0648902127F0B8
:100C9000C5F80020F6E70120F4E700BF55910208EF
:100CA00070910208BB91020838B50C46887FFFF7A7
:100CB000DDFFA58AE28A164B2169586342EA0542A4
:100CC0005A64628BD963521B1A642568082D0ED1B1
:100CD0009A611A615862207F0E4A42EA0062DA6124
:100CE000E2681A620C4A5961D9601A6038BD002264
:100CF000D8611A61E1680A0A480902F4784200F4EE
:100D0000FC600243C1F3C4010A439A63034AECE75F
:100D100000B002400900010001230200012303008A
:100D200008B50B280BD8DFE800F00612100A0A0AF3
:100D30000A0808080808022008BD0520FCE7054B42
:100D4000054A06486F2127F069F80020F4E70120E2
:100D5000F2E700BF55910208F7910208BB91020823
:100D60002DE9F04191F81D800C464046FFF7D8FF71
:100D7000A77F05463846FFF7D3FF06463846FFF7FC
:100D800075FFA18A628B444B521A1A649A61228BB6
:100D9000521A1A61E28A586342EA01425A6421698E
:100DA0006268D963DA602068802828D0227F0FD853
:100DB000202867D0402865D004281AD0364B45EA51
:100DC000026545F40035B845DD6161D0334A44E041
:100DD000B0F5807F04D0B0F5007FEFD1304800E05F
:100DE000304840EA0262DA61E2681A625E62596182
:100DF00032E045EA026242F40032DA61F6E7A068C6
:100E0000021DDA62227F45EA026545F40035DD61A4
:100E10005E625961017841B1012921D0224B234AF8
:100E200023484FF48D7126F0F9FFDA69418822F4E6
:100E30007F42013922F0100242EA0122DA610121E7
:100E4000154BDA6942F02002DA61DA699206FCD4C5
:100E500010229A600029B9D0164A1A60BDE8F081C4
:100E6000B2F1FF01DA69408822F47F4200F1FF30DD
:100E700022F0100242EA002242F0100218BF0121C3
:100E8000DA61DDE745EA0262034B42F40032B4E77F
:100E900042F20132E1E700BF00B00240012301004D
:100EA000090002000A000200419202085B92020857
:100EB000BB91020801230200024B1B6858680368BB
:100EC0005B691847603F012070B5044625460A4B10
:100ED0000C30002660602672667245F8203B602266
:100EE00029460DF0F7FF04F55A63EE6024359D4264
:100EF000FBD1204670BD00BFB8A20208034B1A68A0
:100F0000D207FCD423229A60704700BF00B0024091
:100F10007047000030B50F4C2568ED07FCD4232541
:100F20000904A56041F001010225FF2B656361649E
:100F3000E0630AD00849656241EA0363E361074B55
:100F400022626061E060236030BDE561039BA363C2
:100F5000034BF8E700B00240090001000100020065
:100F60000100030030B50E4C2568ED07FCD42325A5
:100F70001204A56042F001020225FF2B6563626442
:100F8000E063E16008D01B0643F00213E361054B08
:100F900065626061236030BD034BE3610123F9E7C3
:100FA00000B0024001000200020002FF30B50B4C0D
:100FB0002568ED07FCD4232512041B06A56043F425
:100FC0000033022542F0010265636264E063E16080
:100FD000E361034B65626061236030BD00B0024095
:100FE000010002000120704738207047382303FBBE
:100FF000010008307047382303FB010008307047B8
:101000000120704741F67C00704741F67C0303FBEA
:1010100001000830704741F67C0303FB01000830F3
:101020007047012070471020704700EB0110083016
:10103000704700EB011008307047084602F0F4BA20
:1010400010B5034B036004460CF0ADFD204610BD07
:1010500070A3020810B50446FFF7F2FF20464021B6
:1010600025F0A0FF204610BD10B5034B03600446D9
:101070000CF099FD204610BD3CA3020810B50446B3
:10108000FFF7F2FF204641F6840125F08BFF204652
:1010900010BD000010B5034B036004460CF083FD47
:1010A000204610BD08A3020810B50446FFF7F2FF62
:1010B0002046182125F076FF204610BD10B5094BBB
:1010C0000360044600F5C5501030FFF7B9FF04F186
:1010D0002C00FFF7C9FF04F11400FFF7DBFF2046E7
:1010E00010BD00BFA4A3020808B50248FFF7E6FF41
:1010F00008BD00BF9412002010B50446FFF7DEFFC4
:1011000020464FF4D35125F04DFF204610BD00007E
:101110002DE9F34101F0F0F9054601F0F1F9002461
:101120000146234628462246009416F0DFFE274B50
:10113000274A1A60204605F091FA264D264B274A89
:1011400027489A6016F03AFE2B68BFF35B8FDB07E7
:1011500036D4284625F028FF90B3224C224F234B4B
:10116000236007F1540604F1140004F12C086060B8
:10117000C4F80880E76026610CF016FD1C4B636123
:1011800040460CF011FD1B4BE36238460CF00CFDA1
:1011900004F5805303F50F60174AC3F8B02807F031
:1011A0006FFA224607F14001304605F09BFF3046BA
:1011B00002F03AFA114826F04FFE284625F000FFCB
:1011C0000F4802B0BDE8F041FFF7E4BBC43F012087
:1011D00040040020901200206004002044040020FD
:1011E0000800002094120020442B0020A4A3020831
:1011F00008A302083CA3020870A30208E910000833
:10120000C4030020704700000148FFF7D1BB00BFB6
:10121000C403002070B5244E244C254D254B23607B
:101220003046FFF751FE28461BF066FF224814F0B7
:1012300035FB224B2248DC6000224FF48071C3E969
:10124000121220491A86C3E91A121F4999671F49C9
:1012500083F858200B60F02101801D485A660180F8
:101260001C4883F870204FF4A071C3E90422C3E93D
:101270000622C3E90822C3E90A22C3E90E22C3E910
:101280001022C3E91422C3E917225A67C3E9016592
:1012900001801148018011490A70012283F834202D
:1012A0000F4A1A6070BD00BFEC0400208C120020B1
:1012B00060040020DC8E020844040020C4030020E7
:1012C000543F01200100000100000101603F0120A6
:1012D0005A3F0120563F01205C3F0120583F01202A
:1012E000E0A102080148FFF77BBC00BFEC0400202E
:1012F0000020704781807047C1807047018170472E
:10130000418170477047704770477047704710B40D
:10131000C4880368121B84885B6D091B12B25DF8D8
:10132000044B09B218474FF6FF7383814FF0FF3328
:1013300003621368C36110607047002070478B8898
:10134000838001207047704780F82610704790F81E
:101350002600704710B50022B1F90840B1F90A1013
:10136000028042808480C18010BD002202804280C1
:101370008280C28070470177704780ED080A70470D
:1013800080F82410704780F82510704701207047BE
:10139000983070478C307047843070477047704782
:1013A00070470000034B902283F85A2383F8582398
:1013B000704700BF00E100E0094A0A49D3680A48C3
:1013C000C3F30A03013B9BB20B801169C1F30A010D
:1013D000013901801364536B43F001035363704779
:1013E00000680140F62C0020F42C0020014BD3F8BB
:1013F000AC00704700680140024B0122C3F8AC10FA
:101400005A6270470068014010B52C21044625F04F
:10141000C9FD204610BD10B5BC21044625F0C2FD13
:10142000204610BD70B504460CF0BDFE23685D6E0D
:1014300013F0E0F801462046A8472368054AD3F890
:1014400088502046AC460023BDE87040A2F5163116
:10145000604700BF00B004D00CF08CBE0CF096BE0C
:101460000CF052BE0CF0B3BF90F8252012B1036807
:101470005B691847704790F825201AB190F824202E
:1014800002B1186070470000034B4FF080629A6011
:101490004FF080729A60704700E100E0084B4FF017
:1014A0008062C3F88820BFF34F8FBFF36F8F4FF078
:1014B0008072C3F88820BFF34F8FBFF36F8F7047E0
:1014C00000E100E070B50023124E8380124B0360F0
:1014D000336893F8582005460AB1D86C00B998686B
:1014E0000368DB6A98473368B0FA80F4D86C640903
:1014F00030B10368DB6A9847002808BF44F0010454
:101500002CB9064B064A07482C2126F087FC2846B2
:1015100070BD00BF603F0120B8A302089992020885
:10152000F79202083093020870B5244E3568BFF375
:101530005B8F15F001053FD1304625F035FD0028C1
:101540003AD01F4C1F4B256104F13400C4E900352B
:10155000C4E90255E584A562A58514F0FEFB04F1FB
:1015600058000FF085FD184BA3652046174B40F837
:10157000843BFFF7A7FF164BC4F884302433C4F82C
:101580008C306423C4E928350023C4F8AC30C4F897
:10159000B030C4F8B430C4F8B8300E480E4BC4F8BC
:1015A0009050C4F89C50C4F8A850C4F8983026F065
:1015B00053FC304625F004FD014870BDF82C002096
:1015C000FC2C0020E8AF0208D8A3020850A40208AF
:1015D0009CAF0208A11300087CAF020810B5144CA0
:1015E000236823B3134B144A1B6C11888B4213D10D
:1015F000124B198808F018FE226892F86A300133FD
:1016000082F86A30FFF7C0FA20680DF00BFBBDE8E6
:1016100010400020FFF704B908F006FE20680368B8
:101620001B6A9847BDE810400020FFF723B910BDA2
:10163000603F012000680140F62C0020F42C0020BF
:101640002DE9F04FDFF85891534DDFF858A1534F73
:1016500087B01022002102A800244FF0010826F0D4
:10166000F6FDC346C9F800400123002C50D10622E4
:1016700002A92846CDE90243049207F0EBFC284674
:1016800007F0F8FB4FF0FF31284607F08CFC2846A6
:1016900007F0DCFC0646284607F06AFCB6F57A7FC0
:1016A0004FF001032DD28DF80740386823462246BB
:1016B0000DF107010AF0ECFA0421504607F0A6FFED
:1016C000064660B9BBF1010F09D104238DF807303C
:1016D000024603460DF1070138680AF0D9FAD9F835
:1016E00000301433B3F5FA7F28BF00234FF00A000F
:1016F00028BF84F00104C9F80030B3460AF0E2F9CB
:10170000B2E740F6B8329642D6D98DF80730CCE72A
:101710000522CDE9022302A906232846049307F0F7
:1017200099FC284607F0A6FB4FF0FF31284607F04A
:101730003AFC284607F08AFC0646284607F018FCC3
:10174000B6F57A7F16D202238DF807300023386869
:101750001A460DF107010AF09BFA0821504607F0DE
:1017600055FF0346B0B9B8F1010F09D04FF000089A
:101770005E46B4E740F6B8339E42EED90323E3E772
:1017800005228DF807200DF10701024638680AF09E
:101790007FFAEBE78046EBE7102E0020C02D0020FB
:1017A000B82D00200018024007B5064BADF8060022
:1017B0001B68054801220DF1060109F0E5FA03B0A6
:1017C0005DF804FB0C0000208C2E002008B564207E
:1017D0000AF078F9FBE7000030B595B0102200213F
:1017E0000AA826F034FD1422002103A826F02FFDBC
:1017F00000241E4B01941A6C42F080521A641B6C38
:1018000003F080530193019B194B02941A6842F430
:1018100040421A601B6803F4404302930122029B7A
:101820004FF48033CDE9082302254FF480030821CB
:10183000CDE90E534FF4B473CDE9101308A8042377
:101840001393129508F048FD08F00CFD0F23CDE925
:1018500003354FF4A0504FF48053CDE90603052122
:1018600003A8059408F014FF15B030BD00380240FD
:101870000070004082B000230F4A0193516C0F4862
:1018800041F480715164526C836002F48072019261
:10189000019A0B4A0361C0E900230A4A82620122CD
:1018A000037680F82030C362C360C26180F83030B4
:1018B000426102B007F038BA00380240102E002012
:1018C000002001400100000F82B000230D4A019367
:1018D000516C0D4841F010015164526C0B49036189
:1018E00002F010020192019AC3614FF4E132C0E9A3
:1018F00000120C22C0E90233C0E9052302B009F04E
:1019000042BF00BF00380240D02D0020001001402F
:101910002DE980489BB007F0C5F9FFF7ABFFFFF753
:101920005BFF142200210DA8002426F090FCC64B7A
:1019300000941A6BC548C64D42F010021A631A6B28
:1019400002F010020092009A01941A6B42F02002F9
:101950001A631A6B02F020020192019A02941A6B28
:1019600042F080021A631A6B02F080020292029A1D
:1019700003941A6B42F004021A631A6B02F0040219
:101980000392039A04941A6B42F001021A631A6BD1
:1019900002F001020492049A05941A6B42F00202CA
:1019A0001A631A6B02F002020592059A06941A6BEA
:1019B00042F040021A631A6B02F040020692069A45
:1019C00007941A6B42F008021A631B6B03F00803BA
:1019D000079322463C21079B07F01EFE9D482246A6
:1019E000042107F019FE22469B484FF4405107F0AE
:1019F00013FE01264FF003083C239448CDF84080A5
:101A00000DA902274FF0040ACDE90D360F9407F017
:101A100019FD90480F940DA9CDE90DA6109707F078
:101A200011FD4FF440538C480DA9CDE90D36CDE999
:101A30000F4707F007FD212388480F940DA9CDE932
:101A40000D3807F0FFFC0C2385480F960DA94FF0C9
:101A5000070BCDE90D3407F0F5FC0DA94FF4C06379
:101A60007E48CDF844B0CDE90D37CDE90F4807F0F9
:101A7000E9FC7C487C4B036007F0DAFB7B4A7C4B3B
:101A80002C62C5E9002328464FF48043C5E904349D
:101A9000C5E90244C5E9064407F0CCFF10212846F9
:101AA00008F010FA2146284608F02BFA71487249CE
:101AB00084624FF48273C0E900134FF40075182359
:101AC0004FF00A09C0E90653C0E902446B4DC0F863
:101AD0002C90C0E90444C0E9084409F0F9F8684BC7
:101AE00013974FF0100CC5E900364023C5E904C335
:101AF0004FF4C073C5E906344FF40063C5E90834F8
:101B00000DA94FF400532846AB62C5E9024ACDE95E
:101B10000FABCDE90D7BCDE911874FF0080B08F035
:101B2000BBFF4FF6FF7209A92846CDE90AB6089413
:101B300009960C9408F0D0FF304607F0DFF84FF616
:101B4000FF7209A92846CDE9097BCDE90B6408F0AD
:101B5000C3FF4FF6FF7209A92846CDE9098BCDE9ED
:101B60000BA408F0B9FF4FF40C730893089B0C9377
:101B70004FF6FF7209A92846CDE909AB0B9608F08C
:101B8000ABFF40F26A51284608F0C4FF34222146D8
:101B90000DEB020026F05BFB3A4D3B4B2C61C5E997
:101BA00000340923C5E905361D2340F20D1EC5E9A1
:101BB000073840F24313C5E909E3284640F24713CA
:101BC00040F21718C5E90B83C5E90244AC8685F8D5
:101BD000364008F031FAFF21F022CDE912144FF41B
:101BE000806A05214FF4A073CDE90E24CDE914A13C
:101BF000CDE916420DA922462846CDE91037234DDE
:101C000018930D94ADF864408DF8664008F0DFFA43
:101C10001F4B2B601B6898472B681E4DDB6898474D
:101C20001D4B2846C5E90034C5E90274C5E90A47D9
:101C3000C5E90C4407F00CFB3146284607F0BEFB13
:101C4000FEF736FD2AE000BF0038024000100240D7
:101C50008C2F002000080240000C024000000240CF
:101C6000001802402030002000300240005C00409C
:101C7000A08601008C2E002000500140582E00202C
:101C8000400100A0E42E002000680140BC2D00208F
:101C900014000020E02F002000B00240FEF707FDF6
:101CA000FFF712FE09F09EFE0F4A3146484609F042
:101CB000B4FF0E4B0E4A186021460E4809F0BEFED6
:101CC0000D4B0E4A186021460D4809F0B7FE0D4B2A
:101CD0000D4A186021460D4809F0B0FE0C4B186003
:101CE00009F092FEFEE700BF94A40208C02D002078
:101CF000F4A40208CD170008CC2D0020D0A40208BF
:101D0000BF060008C82D0020ACA402084116000838
:101D1000C42D0020704770477FB5094B8DF8172000
:101D20001B6802930DF117020123009201930A46EA
:101D30000146044807F026FF07B05DF804FB00BF2A
:101D4000100000208C2F00207FB500238DF8173065
:101D5000084B1B6802930A4601230DF117010091FD
:101D600001930146044807F09DFF9DF8170007B056
:101D70005DF804FB100000208C2F00201FB5084CDC
:101D800024680092CDE901340A4601230146054842
:101D900007F088FF003818BF012004B010BD00BF55
:101DA000100000208C2F002006F0A8BF10B5064CB4
:101DB00000222046042107F02FFC20460122BDE826
:101DC0001040042107F028BC0008024038B50B4D34
:101DD000044601220A484FF4005107F01DFC00227E
:101DE0000421284607F018FC2046FFF7DDFC2846B2
:101DF0000122BDE83840042107F00EBC0008024073
:101E0000000C024038B50B4D044600220A484FF43E
:101E1000005107F001FC00220421284607F0FCFBDA
:101E20002046FFF7C1FC28460122BDE838400421C6
:101E300007F0F2BB00080240000C0240F7B5144E58
:101E4000144F05460C4630460022042107F0E4FBFF
:101E500000224FF40051384607F0DEFB2846FFF71A
:101E6000A3FC0D4B0D481B68224601A909F038F967
:101E7000384601224FF40051019C07F0CDFB30465B
:101E80000122042107F0C8FB204603B0F0BD00BFCB
:101E900000080240000C02400C0000208C2E0020A4
:101EA00006F02CBF0268034B9A4201D106F014BF22
:101EB000704700BF001000407047000082B00E4B1A
:101EC00000220092596C41F480415964596C01F42C
:101ED0008041009100990192196C41F08051196480
:101EE0001B6C03F080530193019B0F216FF00100E5
:101EF00002B007F05DB900BF003802400268094B2C
:101F00009A4282B00BD100230193074B1A6B42F423
:101F100080521A631B6B03F480530193019B02B040
:101F2000704700BF003002400038024007B50F4B39
:101F300002689A4216D10022A3F5F0430192196B70
:101F400041F4000119631B6B03F4000301930521A5
:101F50005A20019B07F02CF95A2003B05DF804EBDE
:101F600007F058B903B05DF804FB00BF00B00240B1
:101F70002DE9F043044689B01422002103A826F07D
:101F800066F92268244B9A4243D1244C2448002508
:101F90000095236B43F004032363236B03F00403D6
:101FA0000093009B0195236B43F001032363236B94
:101FB00003F001030193019B4FF012094FF40073EA
:101FC0004FF001080327042603A9CDE90339CDE921
:101FD0000587079607F036FA4FF480731148079685
:101FE00003A9CDE90339CDE9058707F02BFA02955E
:101FF000236C43F400032364236C03F40003029373
:10200000029B236A43F400032362236A23F4000340
:10201000236209B0BDE8F083005C00400038024054
:102020000008024000000240F0B599B004461422B6
:10203000002107A826F00BF930220DEB0200002149
:1020400026F005F922685E4B9A4240F0B7800823DB
:102050000C93C0231093042312930CA84FF4003365
:10206000159308F0EDFB08B1FFF726FF554B5648D6
:10207000002400945A6C42F080625A645A6C02F058
:1020800080620092009A01941A6B42F020021A6357
:102090001A6B02F020020192019A02941A6B42F02C
:1020A00001021A631A6B02F001020292029A03946F
:1020B0001A6B42F002021A631A6B02F002020392D8
:1020C000039A04941A6B42F040021A631A6B02F0EE
:1020D00040020492049A05941A6B42F004021A63B7
:1020E0001A6B02F004020592059A06941A6B42F0EC
:1020F00008021A631B6B03F00803069302250E26E1
:10210000069B0B964FF4806307A9CDE90735CDE90F
:10211000094507F097F941F658032C480B9607A993
:10212000CDE907350927CDE9094507F08BF90323E8
:1021300027480B9707A9CDE90735CDE9094507F0F1
:1021400081F94FF4706322480B9607A9CDE9073552
:10215000CDE9094507F076F94FF40C631D480B965D
:1021600007A9CDE90735CDE9094507F06BF9C0238B
:1021700019480B9607A9CDE90735CDE9094507F0C0
:1021800061F9082315480B9607A9CDE90735CDE974
:10219000094507F057F94FF4A0530E480B9707A9CC
:1021A000CDE90735CDE9094507F04CF9582022461D
:1021B000052106F0FDFF582007F02CF819B0F0BDFE
:1021C0000068014000380240001402400000024054
:1021D000000402400018024000080240000C0240C7
:1021E00010B5044688B01422002103A826F02FF869
:1021F0002268144B9A4223D103F5684300210191D0
:102200005A6C114842F480125A645A6C02F48012DB
:102210000192019A02911A6B42F020021A631B6B21
:1022200003F020030293029B4FF460720223032108
:10223000CDE903230523CDE9061303A907F002F92D
:1022400008B010BD00500140001402402DE9F041DB
:1022500086B0002303932B4B1C68002C4FD14FF00A
:102260000108C3F80080284B00949A6B274842EA83
:1022700008029A639B6B03EA080300930227032674
:102280000C25009B01A94FF63F03CDE90137CDE9AD
:10229000046507F0D7F81E48059501A9CDE9018727
:1022A000CDE9034607F0CEF848F2331319480595F7
:1022B00001A9CDE90137CDE9034607F0C3F84FF690
:1022C00083731548059501A9CDE90137CDE903468A
:1022D00007F0B8F84CF203731048059501A9CDE951
:1022E0000137CDE9034607F0ADF860230C480595AA
:1022F00001A9CDE90137CDE9034607F0A3F806B0FF
:10230000BDE8F0812830002000380240001402406F
:10231000000802400018024000100240000C024079
:102320000004024070B588B000230293204B1A6C61
:1023300042F010021A641B6C03F01003029305466E
:1023400001A903A8029B08F05DFA069B4BBB08F0AD
:1023500039FA184E184B336040F2E733F360174BED
:10236000B0FBF3F3013B7360304600233361B3608D
:10237000B36109F085F8044680B9304608F056FF8D
:10238000044658B9362006F045FF0F2D0DD82246D9
:102390002946362006F00CFF094B1D60204608B088
:1023A00070BD08F00FFA4000D3E70124F6E700BF44
:1023B000003802402C3000200010004040420F0046
:1023C0007C0000207047FEE7FEE7FEE7FEE770476F
:1023D000014808F069BF00BF2C300020014807F019
:1023E00099BE00BFE42E0020014806F05DBF00BF8B
:1023F000E02F00200120704708B525F0CBFF162301
:1024000003604FF0FF3008BD08B525F0C3FF162369
:102410000360FEE770B50D4614460E46731B9C42E2
:1024200001DC204670BDAFF3008006F8010BF5E734
:102430004FF0FF3070474FF400534B60002070475F
:10244000012070470020704710B54FF0FF3314464D
:10245000024892B209F0C5F9204610BDD02D0020E7
:102460000A4A116808B5034609B90949116010689C
:10247000694603448B4206D925F08CFF0C23036088
:102480004FF0FF3008BD1360FCE700BF7430002040
:10249000A04C0120704708B50C2924D8DFE801F0D2
:1024A000070B0F13171F1F1F1F1B1F1F1F0004F0F9
:1024B00021F9006808BD04F01DF94068FAE704F04E
:1024C00019F98068F6E704F015F9C068F2E704F03E
:1024D00011F90069EEE704F00DF98069EAE704F00C
:1024E00009F94069E6E70020E4E710B50421044655
:1024F00024F058FD204610BD004870472CA5020866
:102500000520704713B5002451B1036801948DF87C
:10251000034001AA9C680DF10303A04702B010BD5F
:102520000846FBE7C0897047008A7047C08870473B
:1025300080887047807A00F07F007047807AC009F9
:1025400070470020704700009FED010A704700BFF0
:102550000000000070477047704770477047704731
:1025600030B5036885B06D460181D3F884300146EB
:1025700004462846984795E807003C3484E807005D
:1025800005B030BD30B5036885B06D464181D3F8E4
:102590008430014604462846984795E807003C34B5
:1025A00084E8070005B030BD0022028042808280AE
:1025B000C280704780F83610704770B503680446D3
:1025C0001B6B154698472368294620465B6EBDE87D
:1025D0007040184700207047806C70477047704704
:1025E000704710B50821044624F0DCFC204610BDDD
:1025F00010B54C21044624F0D5FC204610BD10B582
:102600002C21044624F0CEFC204610BD0B898A897B
:10261000D21A4B89C988591A12B209B213F00AB9F1
:1026200010B5034B0360044610F0EAFA204610BDD3
:10263000A0A6020810B5064B0360044610F0E0FAAD
:10264000204641F2B85124F0ADFC204610BD00BF39
:10265000A0A6020808B590F826300BB1FEF704FFDB
:1026600008BD08B5FEF700FF08BD0000036870B59F
:102670005E6B124B1B6804468DB22BB9104B114A8E
:102680006C21114825F0CAFB1049828D09889142BE
:1026900003D80F4B0B4A6D21F3E713F812200D4BB3
:1026A0001B6853F8220003681B6B9847291A3346AE
:1026B000204609B2BDE87040184700BFB83F01206E
:1026C000C2930208049402083F940208BC3F012010
:1026D00086940208C03F012010B500F58054D4F85C
:1026E000B4350133B42BC4F8B43506D111F082FFF0
:1026F00000F0FAFF0023C4F8B43510BD00224FF0FB
:10270000FF31C0E900218260704770B5036804465C
:102710001B6B154698472368294620465B6BBDE82E
:102720007040184770B504461D46BDF91060FFF7AC
:10273000ECFF2368294620469B6B98472368314667
:102740002046DB6BBDE8704018470000094A026074
:102750004FF4807100228184FF21C0E90122C0E989
:102760000322C0E90522C0E9072280F82610826210
:10277000704700BF6CB202084FF4807181840D492C
:1027800001600D4981624FF6FF7181854FF47F0131
:10279000002241634FF0FF31C0E90122C0E903226A
:1027A000C0E90522C0E90722C0E9101202630287CE
:1027B000C2637047DCB1020898A502082DE9F04F0A
:1027C000044691B027464FF0000B13F009FED44B9E
:1027D000C4F83CB047F8403B04F16C063846FFF7BC
:1027E000B5FF04F198083046FFF7B0FF4046FFF709
:1027F000ADFF04F1C40318460593FFF7A7FF04F1EA
:10280000F003184606930DF025FF04F59C73184657
:102810000993FEF757FEC34BC4F838312433C4F88C
:10282000403104F5A6731846C4F844B1BE4D089370
:102830004FF00109FFF78AFF04F5BC7304F5D27A63
:102840001846C4F84C5184F870910793FFF77EFF47
:10285000C4F8785184F89C915046FFF78DFF04F539
:10286000F67318460293FFF787FF04F50D731846B9
:10287000AE4D0393FFF780FF04F52073C4F8345284
:102880001846C4F87CB20493FFF776FF04F5805332
:10289000C4F88052C4F8C8B2F025C3F8B4B54FF4F8
:1028A000965104F53D7010F0A1F95A46384600954E
:1028B0004FF4A073594604F10409FFF733FF4FF0BA
:1028C0007F433946A36648460BF082F94FF0FF3745
:1028D0004FF4A0735A46304600955946FFF722FF41
:1028E0003146C4F8947048460BF072F90222EC238A
:1028F0001146404600934FF49F73FFF713FF8C4B34
:10290000C4F8C030414648460BF062F95A46059873
:1029100000950323A021FFF705FFDC230599C4F8E8
:10292000EC7084F8EA3048460BF052F90E2372221C
:10293000069800939B21FFF7F5FEC023C4F82431CD
:102940004FF43453C4F82C317A4BC4F8443149F66F
:102950006103A4F84831099B0699C4F81831C4E909
:10296000475548462825C4F830B1C4F828B10BF0C3
:102970002FF905236422089800950821FFF7D2FE5D
:102980000899C4F8747148460BF022F905236422B3
:10299000079800954FF49A71FFF7C4FE4FF0340882
:1029A0000799C4F8A07148466D440BF011F9132340
:1029B0005F225046CDF800807421FFF7B3FE5146E8
:1029C000C4F8D4712846A4F8D8B10EF04FFC95E8AD
:1029D000070004F5F07686E807004FF00302514641
:1029E00084F8DD2128460EF041FC95E807004FF001
:1029F000010386E80700514684F8DC3128460EF0D2
:102A000035FC95E80700152386E8070050464A4E36
:102A1000ADF83C300EA90E960EF0D0FE6FF04101DD
:102A200084F8DA11484651460BF0D2F813235F229E
:102A30000298CDF80080BB21FFF774FE0299C4F81C
:102A40001C722846A4F820B20EF010FC95E807008E
:102A500004F50A7888E807004FF00302029984F829
:102A60002522284617460EF001FC95E8070088E865
:102A70000700029984F8247228460EF0F7FB95E8C7
:102A8000070088E807000EAA122311460298ADF845
:102A90003C300E960EF092FE6FF0410184F8221247
:102AA00048460299DFF8ACA00BF092F87022039828
:102AB0003521FFF72AFE214BC4F86432D4F83432B2
:102AC0000399D3F88430A4F868B22846984795E86B
:102AD000070004F51C774FF0010387E8070084F82E
:102AE0006C32D4F834320399D3F8843028469847AE
:102AF00095E80700DAF8003087E8070004F5337737
:102B00002BB90F4B0F4A60210F4825F087F90F4B67
:102B10001B88092B20D80E4B0A4A6121F4E700BF1D
:102B2000A0A602089CAF020838A60208A8A50208C1
:102B300037380CFF0C0C99FF98A502085FABDEFF3D
:102B4000C2930208C49402083F940208BC3F0120CB
:102B500086940208B83F0120DFF8F0800921D8F8F8
:102B6000000003F0B7FD364A03460A21384615F047
:102B700017F90398C4F87C720EF000FED2271423D4
:102B80000398ADF83C300EA90E960EF017FE03998F
:102B900084F86A7248460BF01BF86F220498F32100
:102BA000FFF7B3FD274BC4F8B032D4F88032049954
:102BB000D3F88430A4F8B4B22846984795E80700C3
:102BC00004F52F7B4FF003038BE8070084F8B8323D
:102BD000D4F880320499D3F884302846984795E891
:102BE0000700DAF800308BE8070004F53875002B91
:102BF00087D0154B1B88092B8DD9D8F800000921E7
:102C000003F068FD0E4A03460A21284615F0C8F86D
:102C10000498C4F8C8520EF0B1FD13230498ADF81F
:102C20003C300EA90E960EF0C9FD4846049984F872
:102C3000B6720AF0CDFF204611B0BDE8F08F00BF9C
:102C40000F9502085FABDEFFBC3F0120C43F0120AF
:102C50007047000010B5034B036004460FF0D0FF2F
:102C6000204610BDD4A6020810B5064B03600446EA
:102C70000FF0C6FF204641F2B45124F093F92046EC
:102C800010BD00BFD4A602082DE9F04F044691B054
:102C90002546002613F0A4FB834BE66345F8403B32
:102CA0002846FFF753FD04F16C03184604F1980A17
:102CB000059304F1C409FFF749FD5046FFF746FDAF
:102CC0004846FFF743FD04F1F0031846774F089399
:102CD0004FF00108FFF73AFD04F58E731846C4F86B
:102CE000F07084F814810793FFF730FD84F8408179
:102CF00004F5A478C4F81C7140466D4F04F5CA7BF6
:102D0000FFF73AFDC4F84871C4F890615846FFF7E0
:102D100033FD04F5F073C4F894711846C4F8DC610F
:102D20000393FFF729FD04F50A7318460493FFF790
:102D300023FD04F51C73184606930DF08BFC04F577
:102D40002E7318460993FEF7BDFB5A4BC4F8B832F0
:102D50002433C4F8C0324FF4965104F53D70C4F8E2
:102D6000C4620FF043FFF0233246284600933146F9
:102D70004FF4A073FFF7D6FC271D4FF07F43294681
:102D8000A36638460AF024FFF023324605980093E4
:102D900031464FF4A073FFF7C5FC4FF0FF330599A0
:102DA000C4F8943038460AF013FF0222EC2311468F
:102DB000504600934FF49E73FFF7B4FC3E4BC4F8AB
:102DC000C030514638460AF003FFF02332464846E9
:102DD0000093A0210323FFF7A5FC4FF0FF33C4F8B5
:102DE000EC30DC234946282584F8EA3038460AF0DE
:102DF000EFFE64220898009505230821FFF792FC56
:102E00004FF0FF330899C4F8183138460AF0E0FE55
:102E1000642207980095052340F23311FFF782FCE6
:102E20004FF0FF33C4F844310799DFF8A8A03846C3
:102E30000AF0CEFE1622B8214046FFF766FC1F4B73
:102E4000C4F87831D4F84831A4F87C616D44D3F8E3
:102E5000843041462846984795E8070004F5C27932
:102E60004FF0030389E8070084F88031D4F8483133
:102E70004146D3F884302846984795E80700DAF8A9
:102E8000003089E8070004F533792BB90C4B0D4A63
:102E900060210D4824F0C2FF0C4B1B88062B1BD869
:102EA0000B4B084A6121F4E7D4A6020838A60208B1
:102EB000A8A502089CAF020837380CFF565659FFE8
:102EC000C2930208C49402083F940208BC3F012048
:102ED00086940208B83F01207E4B0621186803F053
:102EE000F9FB7D4A03460A21484614F059FF404643
:102EF000C4F890910EF042FCDFF8EC91CDF83890D8
:102F0000212340460EA9ADF83C300EF057FC414657
:102F100038460AF05DFEC32275215846FFF7F5FBDF
:102F2000D4F894316D4AD3F88430C4F8C42159469A
:102F30002846A4F8C861984795E8070004F5E878A2
:102F4000D4F8943188E807004FF00102D3F88430B8
:102F500084F8CC2159462846984795E80700DAF8C6
:102F6000003088E8070004F53878002B8ED05C4AE2
:102F70001388052B94D9574B0521186803F0AAFB39
:102F8000554A03460A21404614F00AFFC4F8DC8182
:102F900058460EF0F3FB20230EA95846ADF83C30FE
:102FA0004FF0340ACDF838900EF008FC59463846F8
:102FB0000AF00EFE0398CDF800A0B42213238C2152
:102FC000FFF7B0FB4FF0FF33C4F810320399A4F8B9
:102FD000146228460EF04AF995E8070004F50778D0
:102FE00088E807004FF00102039984F81822284668
:102FF0000EF03CF995E807001F2388E807000398C6
:10300000ADF83C300EA94FF0BE08CDF838900EF068
:10301000D5FB039984F8168238460AF0D9FD049846
:10302000CDF800A007221323A521FFF77BFB4FF06B
:10303000FF330499C4F858322846A4F85C620EF0B5
:1030400015F995E8070004F5197A4FF003038AE8AB
:103050000700049984F8603228460EF007F995E8D5
:1030600007001E238AE807000498ADF83C300EA93B
:10307000CDF838900EF0A2FB049984F85E823846B1
:103080000AF0A6FD0E230698009372229A21FFF7FC
:1030900049FBF023C4E9A733C023C4F8A4324FF49A
:1030A0003453C4F8AC320F4BC4F8C43249F6610350
:1030B000A4F8C832099B0699C4F8B0623846C4F82F
:1030C000A862C4F898320AF083FD204611B0BDE82A
:1030D000F08F00BFC43F01200F950208565659FFDC
:1030E000BC3F01200C0C99FF98A50208704770475F
:1030F000704730B4C26844685510034604EB620060
:10310000D20748BF62599B6830BC48BFD3581847A4
:103110000346406830B19A681AB9D86800F00100D7
:1031200070470120704710B51021044623F03AFF84
:10313000204610BD10B54FF4CC71044623F032FF89
:10314000204610BD9830884208B505D111F052FADA
:10315000BDE8084000F078BA08BD0000F8B5194B8A
:10316000018F1B888B4206462AD9174B1B682BB947
:10317000164B174A17486C2124F050FE13F8112003
:10318000154B1B6853F82250144B186803F0A2FA31
:103190002B6807469B6B284698472B6804469B6C18
:1031A0003946284698472B6814FB00F45B6A394679
:1031B00028469847A4B223181BB2A6F84630F8BD9B
:1031C0000023FAE7BC3F0120B83F0120C293020868
:1031D000049402083F940208C03F0120C43F01202C
:1031E0002DE9F04F04468BB0A246002513F0F8F805
:1031F0006B4BE5634AF8403B04F16C0B504604F11D
:103200009809FFF7A3FA5846FFF7A0FA04F1E00681
:1032100048460EF02FFE3046FFF7AEFA04F59678DA
:10322000604BC4F8E030C4F828514046FFF7A4FAD8
:103230005D4BC4E962345D4BC4E96435F0232A4632
:103240005046009329464FF4A073FFF76BFA271DF1
:103250004FF07F435146A36638460AF0B9FCF0238D
:103260002A465846009329464FF4A073FFF75AFAAE
:103270004F4BC4F89430594638460AF0A9FC4846EA
:10328000A4225B21FFF741FA08AA07A94846ADF836
:103290001C50ADF820500EF0E4FA23234846A4F861
:1032A000D030FFF75BFF434ADFF82CA14FF0FF332C
:1032B000C4E9352304F5C473C4F8C0304946384620
:1032C0000AF086FC5D2269213046FFF71EFAD4F829
:1032D000E030C4F810A10DF10809D3F88430A4F847
:1032E000145131464846984799E8070004F58E7313
:1032F00083E80700304B1B6804F5BA7B2BB92F4BD2
:103300002F4A60212F4824F089FD2F4B1B881BB9C1
:103310002E4B2B4A6121F5E72D4B2946186803F007
:10332000D9F92C4A03460A21584614F039FDC4F84D
:1033300028B130460EF022FADFF8A0B0CDF820B068
:10334000282308A93046ADF824300EF037FA31466C
:1033500038460AF03DFC1C2240465B21FFF7D5F9B8
:1033600041464846C4F85CA1A4F860510DF07EFFC8
:1033700099E8070004F5B47383E80700222308A93D
:103380004046ADF82430CDF820B00EF017FA38469C
:1033900041460AF01DFC20460BB0BDE8F08F00BF8F
:1033A00020A70208A8A5020808A7020845310008BE
:1033B000EDDCADFFF5F1EDFFB83F0120C29302084F
:1033C000C49402083F940208BC3F0120869402087E
:1033D000C43F01200F95020869463FFF98A50208E7
:1033E0007047704700F598730868496803C37047D1
:1033F000704770474160704710B50022B1F908402E
:10340000B1F90A10028042808480C18010BD7047EB
:1034100070477047064BC0F84C310023C0F850315C
:1034200000F5A273C0F84801C0F84031704700BFF2
:103430007D3C000801230372704770477047704756
:1034400001464068036810315B6E184701464068CA
:10345000036810311B6E1847704710B4C26841688A
:103460005410034601EB6200D20748BF0A599B681B
:103470005DF8044B48BFD35818470346406830B145
:103480009A681AB9D86800F00100704701207047A7
:1034900010B50C21044623F085FD204610BD10B563
:1034A0001021044623F07EFD204610BD10B54FF4D8
:1034B000AE71044623F076FD204610BD10B53821CC
:1034C000044623F06FFD204610BD10B528210446A8
:1034D00023F068FD204610BD10B511F08BF803688D
:1034E000BDE81040DB6B184737B50446807A637A35
:1034F0000130C0B29842A07205D901232372002383
:10350000A37203B030BDB4F90C20002113F01AF9F6
:10351000C30707D500284FF6FF73C8BF012313FA6E
:1035200080F000B2144BE0811988258B83B21348D8
:10353000B0F90000ADF80600CA1A60682B445B1AA7
:1035400012B2ADF8043003682283ADF800200022E7
:103550001B69ADF8022069469847A37A012BD0D1A8
:10356000074B1B78002BCCD011F044F803B0BDE81A
:10357000304011F045B800BF543F0120563F0120B4
:103580005E3F012010B50446D0F8400158B10368F1
:10359000DB68984738B1D4F8400103689B689847C6
:1035A0000023C4F8403110BD044B1B6893F8582029
:1035B0000AB1D86C00B99868704700BF603F01201D
:1035C000F8B5174604460E4611F0FEF8124B1C6083
:1035D000124B2360124B0025C4E95135114BC4E94D
:1035E00053551868036829469B68C4E94F55C4E9D8
:1035F00055769847284603F031F8FFF7D5FF1BF0C2
:10360000CEFBFFF7D1FF1BF045FCFFF7CDFF1BF012
:103610004DFC2046F8BD00BFB43F0120D4A70208EE
:10362000BCA70208603F0120064BC0F84C310023C4
:10363000C0F8503100F5A273C0F84801C0F840311D
:10364000704700BF7D3C0008064BC0F84C3100239A
:10365000C0F8503100F5A273C0F84801C0F84031FD
:10366000704700BFE9410008064BC0F84C31002309
:10367000C0F8503100F5A273C0F84801C0F84031DD
:10368000704700BF313B0008064BC0F84C310023A7
:10369000C0F8503100F5A273C0F84801C0F84031BD
:1036A000704700BFAD400008064BC0F84C31002306
:1036B000C0F8503100F5A273C0F84801C0F840319D
:1036C000704700BFE5390008064BC0F84C310023B5
:1036D000C0F8503100F5A273C0F84801C0F840317D
:1036E000704700BF713F0008064BC0F84C31002303
:1036F000C0F8503100F5A273C0F84801C0F840315D
:10370000704700BF99380008064BC0F84C310023C1
:10371000C0F8503100F5A273C0F84801C0F840313C
:10372000704700BF353E0008064BC0F84C310023FF
:10373000C0F8503100F5A273C0F84801C0F840311C
:10374000704700BF5137000803685B6A18470000E4
:103750002DE9F14FD0E9556A0746B06803681B6A46
:103760009847B0F5CC7F05D2434B444AA321444847
:1037700024F054FB706803681B6A98470F2803D82D
:10378000404B3E4AA421F2E7F06803681B6A984761
:103790000B2803D83C4B394AA521E8E710F02AFF53
:1037A000DFF8EC90043010F072FFD9F8000010B18F
:1037B0000368DB689847D9F8000010B103681B68FC
:1037C0009847DFF8D080D8F8000010B103685B6933
:1037D0009847D7F83C0110B103685B689847D8F860
:1037E000000010B103681B689847D7F83C0110B17E
:1037F00003689B689847F0680021FFF7A5FF4FF02A
:10380000000B224BC0F804B0044680F808B00360F7
:10381000B068036859465B6A9847054603F016FC92
:103820007068036859465B6A98472946064603F064
:10383000E9FB331DC7F83C61C9F80040C8F80050E7
:10384000CAF800302B68C6F808A02846DB68EE638B
:103850009847336830461B6898472146284612F03F
:103860006BFF236820461B69984723685B692046E5
:1038700001B0BDE8F04F184712950208A095020864
:1038800076960208BD9602086097020828A80208EA
:10389000A83F0120A43F01202DE9F14FD0E9556A4E
:1038A0000746B06803681B6A984741F2E3539842A1
:1038B00005D8444B444AA321444824F0AFFA706829
:1038C00003681B6A98470F2803D8414B3E4AA4213E
:1038D000F2E7F06803681B6A98470B2803D83D4B52
:1038E000394AA521E8E710F085FEDFF8F0900430B2
:1038F00010F0CDFED9F8000010B10368DB689847DE
:10390000D9F8000010B103681B689847DFF8D08031
:10391000D8F8000010B103685B699847D7F83C01FC
:1039200010B103685B689847D8F8000010B10368CD
:103930001B689847D7F83C0110B103689B6898470B
:10394000F0680021FFF700FF4FF0000B224BC0F89A
:1039500004B0044680F808B00360B06803685946B4
:103960005B6A9847054602F0BFFF706803685946D6
:103970005B6A98472946064602F08AFF331DC7F85E
:103980003C61C9F80040C8F80050CAF800302B6804
:10399000C6F808A02846DB68EE63984733683046CF
:1039A0001B6898472146284612F0C6FE2368204629
:1039B0001B69984723685B69204601B0BDE8F04F5A
:1039C000184700BF1295020803980208769602086D
:1039D000BD9602086097020828A80208A83F0120A7
:1039E000A43F01202DE9F14FD0E9556A0746B068A0
:1039F00003681B6A984741F24B63984205D8444BD1
:103A0000444AA321444824F009FA706803681B6AF9
:103A100098470F2803D8414B3E4AA421F2E7F068AB
:103A200003681B6A98470B2803D83D4B394AA521E8
:103A3000E8E710F0DFFDDFF8F090043010F027FE2B
:103A4000D9F8000010B10368DB689847D9F8000086
:103A500010B103681B689847DFF8D080D8F80000E1
:103A600010B103685B699847D7F83C0110B103684F
:103A70005B689847D8F8000010B103681B68984746
:103A8000D7F83C0110B103689B689847F0680021A3
:103A9000FFF75AFE4FF0000B224BC0F804B004466B
:103AA00080F808B00360B068036859465B6A9847BD
:103AB000054604F041FA7068036859465B6A984706
:103AC0002946064604F00CFA331DC7F83C61C9F8D4
:103AD0000040C8F80050CAF800302B68C6F808A0AB
:103AE0002846DB68EE639847336830461B68984782
:103AF0002146284612F020FE236820461B6998477D
:103B000023685B69204601B0BDE8F04F184700BF4D
:103B100012950208DB98020876960208BD96020804
:103B20006097020828A80208A83F0120A43F0120AE
:103B30002DE9F14FD0E9556A0746B06803681B6A62
:103B4000984741F2FB63984205D8444B444AA3216D
:103B5000444824F063F9706803681B6A98470F288B
:103B600003D8414B3E4AA421F2E7F06803681B6A80
:103B700098470B2803D83D4B394AA521E8E710F0B8
:103B800039FDDFF8F090043010F081FDD9F8000025
:103B900010B10368DB689847D9F8000010B10368DA
:103BA0001B689847DFF8D080D8F8000010B1036890
:103BB0005B699847D7F83C0110B103685B68984788
:103BC000D8F8000010B103681B689847D7F83C018B
:103BD00010B103689B689847F0680021FFF7B4FDB7
:103BE0004FF0000B224BC0F804B0044680F808B038
:103BF0000360B068036859465B6A9847054603F05E
:103C000045FB7068036859465B6A98472946064633
:103C100003F010FB331DC7F83C61C9F80040C8F839
:103C20000050CAF800302B68C6F808A02846DB68A8
:103C3000EE639847336830461B689847214628460C
:103C400012F07AFD236820461B69984723685B6958
:103C5000204601B0BDE8F04F184700BF129502089A
:103C6000B799020876960208BD9602086097020886
:103C700028A80208A83F0120A43F01202DE9F14F08
:103C8000D0E9556A0746B06803681B6A984741F651
:103C90007B03984205D8444B444AA321444824F06E
:103CA000BDF8706803681B6A98470F2803D8414B1A
:103CB0003E4AA421F2E7F06803681B6A98470B2884
:103CC00003D83D4B394AA521E8E710F093FCDFF813
:103CD000F090043010F0DBFCD9F8000010B103685C
:103CE000DB689847D9F8000010B103681B68984753
:103CF000DFF8D080D8F8000010B103685B699847FE
:103D0000D7F83C0110B103685B689847D8F8000009
:103D100010B103681B689847D7F83C0110B10368DD
:103D20009B689847F0680021FFF70EFD4FF0000BED
:103D3000224BC0F804B0044680F808B00360B068B5
:103D4000036859465B6A9847054604F0F1FC7068C1
:103D5000036859465B6A98472946064604F0C6FC44
:103D6000331DC7F83C61C9F80040C8F80050CAF8D4
:103D700000302B68C6F808A02846DB68EE63984739
:103D8000336830461B6898472146284612F0D4FC19
:103D9000236820461B69984723685B69204601B069
:103DA000BDE8F04F184700BF129502088F9A02082D
:103DB00076960208BD9602086097020828A80208B5
:103DC000A83F0120A43F012003685B6A1847000058
:103DD000002370B5C0E90533C0E90733C0E90933F2
:103DE000C0E90B33436003728372C3814FF4807365
:103DF00043630C4B03610C4B4172B3F900100B4B46
:103E00000B4AB3F90060026000F11005044681819D
:103E10002846FDF773FA28463146FDF771FA204629
:103E200070BD00BF54A70208543F0120563F012037
:103E30004CA802082DE9F047D0E9556A0746B0685A
:103E400003681B6A984741F2BB53984205D8414B1F
:103E5000414AA321414823F0E1FF706803681B6ACF
:103E600098470F2803D83E4B3B4AA421F2E7F0685D
:103E700003681B6A9847372803D83A4B364AA5216E
:103E8000E8E710F0B7FBDFF8E090043010F0FFFB3C
:103E9000D9F8000010B10368DB689847D9F8000032
:103EA00010B103681B689847DFF8C080D8F800009D
:103EB00010B103685B699847D7F83C0110B10368FB
:103EC0005B689847D8F8000010B103681B689847F2
:103ED000D7F83C0110B103689B689847F06800214F
:103EE000FFF772FF14210446FFF772FFB068036802
:103EF00000215B6A9847054602F06CFC7068036815
:103F000000215B6A98472946064602F02DFC331DC6
:103F1000C7F83C61C9F80040C8F80050CAF8003042
:103F20002B68C6F808A02846DB68EE63984733681C
:103F300030461B6898472146284612F0FDFB23684F
:103F400020461B699847236820465B69BDE8F04717
:103F5000184700BF12950208699B0208769602086E
:103F6000BD96020860970208A83F0120A43F0120E7
:103F70002DE9F047D0E9556A0746B06803681B6A27
:103F8000984741F22363984205D8414B414AA32107
:103F9000414823F043FF706803681B6A98470F2865
:103FA00003D83E4B3B4AA421F2E7F06803681B6A42
:103FB0009847372803D83A4B364AA521E8E710F04E
:103FC00019FBDFF8E090043010F061FBD9F8000035
:103FD00010B10368DB689847D9F8000010B1036896
:103FE0001B689847DFF8C080D8F8000010B103685C
:103FF0005B699847D7F83C0110B103685B68984744
:10400000D8F8000010B103681B689847D7F83C0146
:1040100010B103689B689847F0680021FFF7D4FE51
:1040200014210446FFF7D4FEB068036800215B6AE0
:104030009847054603F0F6FE7068036800215B6A46
:1040400098472946064603F0B7FE331DC7F83C6182
:10405000C9F80040C8F80050CAF800302B68C6F80C
:1040600008A02846DB68EE639847336830461B6833
:1040700098472146284612F05FFB236820461B69BB
:104080009847236820465B69BDE8F047184700BFA2
:10409000129502085D9C020876960208BD960208F9
:1040A00060970208A83F0120A43F01202DE9F047B6
:1040B000D0E9556A0746B06803681B6A984741F221
:1040C000D363984205D8414B414AA321414823F08C
:1040D000A5FE706803681B6A98470F2803D83E4BFB
:1040E0003B4AA421F2E7F06803681B6A9847372827
:1040F00003D83A4B364AA521E8E710F07BFADFF8FF
:10410000E090043010F0C3FAD9F8000010B1036851
:10411000DB689847D9F8000010B103681B6898471E
:10412000DFF8C080D8F8000010B103685B699847D9
:10413000D7F83C0110B103685B689847D8F80000D5
:1041400010B103681B689847D7F83C0110B10368A9
:104150009B689847F0680021FFF736FE142104465B
:10416000FFF736FEB068036800215B6A9847054692
:1041700003F006F87068036800215B6A98472946D7
:10418000064602F0C7FF331DC7F83C61C9F800407E
:10419000C8F80050CAF800302B68C6F808A02846B6
:1041A000DB68EE639847336830461B6898472146C2
:1041B000284612F0C1FA236820461B6998472368F5
:1041C00020465B69BDE8F047184700BF129502081A
:1041D000559D020876960208BD960208609702086F
:1041E000A83F0120A43F01202DE9F047D0E9556AFE
:1041F0000746B06803681B6A984741F67B039842FC
:1042000005D8414B414AA321414823F007FE70687D
:1042100003681B6A98470F2803D83E4B3B4AA421EA
:10422000F2E7F06803681B6A9847372803D83A4BCF
:10423000364AA521E8E710F0DDF9DFF8E090043018
:1042400010F025FAD9F8000010B10368DB68984730
:10425000D9F8000010B103681B689847DFF8C080E8
:10426000D8F8000010B103685B699847D7F83C01A3
:1042700010B103685B689847D8F8000010B1036874
:104280001B689847D7F83C0110B103689B689847B2
:10429000F0680021FFF798FD14210446FFF798FD10
:1042A000B068036800215B6A9847054604F040FA4D
:1042B0007068036800215B6A98472946064604F047
:1042C00015FA331DC7F83C61C9F80040C8F8005022
:1042D000CAF800302B68C6F808A02846DB68EE63F1
:1042E0009847336830461B6898472146284612F0A5
:1042F00023FA236820461B699847236820465B6998
:10430000BDE8F047184700BF12950208499E020811
:1043100076960208BD96020860970208A83F012021
:10432000A43F0120406A7047806A704770478B88BD
:10433000C0690A68DB0A50F823001044704710B5C2
:104340000446BAB1107B68B1537BD27A1B0203F4E6
:10435000E0631A43236A03EB82031A888A4202D17C
:1043600093F9020010BD05D8013880B2043300284B
:10437000F3D1F7E70020F5E710B52C21044622F031
:1043800011FE204610BD000030B58BB00446BDF8CC
:1043900060500895BDF85C5007959DF85050069503
:1043A0009DF84C5005959DF8485004959DF8445053
:1043B00003959DF8405002959DF83C500195BDF83D
:1043C0003850009511F086FD064B2360159BE36184
:1043D000169B2362199B63621A9BA36220460BB053
:1043E00030BD00BF70A802087047000010B5034B35
:1043F000036004460EF004FC204610BD40A90208EC
:1044000010B5064B036004460EF0FAFB204641F25D
:10441000D06122F0C7FD204610BD00BF40A90208B0
:1044200010B500F58054D4F8CC360133B42BC4F861
:10443000CC3606D110F0DEF8FFF716F90023C4F8E9
:10444000CC3610BD0022C0E90122C0E90322C0E938
:104450000522C0E907224FF480728284014A02607B
:10446000704700BFD8A8020838B5262204460D467A
:10447000002123F0ECFE2046FFF7E4FF064B23600B
:104480002B88E384FF23204684F8283029460DF04A
:10449000AFFB204638BD00BF3CB302082DE9F04F0A
:1044A000044697B0A046002611F09AFFDF4BE66362
:1044B00048F8403B4046FEF749F904F16C031846C2
:1044C00004F1980A099304F1C409FEF73FF9504634
:1044D000FEF73CF94846FEF739F904F1F0031846B7
:1044E0000A930CF0B7F804F59C7318460F93FCF789
:1044F000E9FFCF4BC4F838312433C4F8403104F518
:10450000A6731846C4F84461CA4D0E934FF00107D4
:10451000FEF71CF904F5BC7304F5D27B1846C4F809
:104520004C5184F870710D93FEF710F9C4F878516E
:1045300084F89C715846FEF71FF904F5F673184687
:104540000493FEF719F904F50D731846BA4D0C9350
:10455000FEF7FCF804F51A73C4F834521846C4F890
:104560006062A4F864620B93FEF7F0F804F5277319
:10457000C4F868521846C4F89462A4F89862AF4D23
:104580000293FEF7F9F804F53A73C4F89C52184602
:10459000C4F8E4620393FEF7EFF804F54D73C4F832
:1045A000E85214A94FF6FF751846C4F83063059316
:1045B000ADF85050FFF758FF04F5587314A918468A
:1045C0000693ADF85050FFF74FFF04F5637314A93D
:1045D00018460793ADF85050FFF746FF04F56E7389
:1045E00014A918460893ADF85050FFF73DFF04F5A5
:1045F0008053F025C3F8CC664FF4965104F20C407A
:104600000EF0F4FA3246404600954FF4A07331465E
:10461000271DFEF787F84FF07F434146A3663846D3
:1046200009F0D6FA4FF0FF384FF4A07332460998DC
:1046300000953146FEF776F80999C4F8948038461B
:1046400009F0C6FA0222EC231146504600934FF4BB
:104650009E73FEF767F87A4BC4F8C030514638466F
:1046600009F0B6FA3246484600950323A021FEF72A
:1046700059F8DC234946C4F8EC8084F8EA3038461F
:1046800009F0A6FA0E2372220A9800939A21FEF7E7
:1046900049F8C023C4F824314FF43453C4F82C3102
:1046A000684BC4F8443149F66103A4F848310F9BC4
:1046B0000A99C4F81831C4E9475538461425C4F896
:1046C0003061C4F8286109F083FA05236E220E9840
:1046D00000950721FEF726F80E99C4F87481384634
:1046E00009F076FA05236E220D9800954FF49A7121
:1046F000FEF718F80D99C4F8A081384609F068FA59
:104700004FF034095E2210AD114613235846CDF800
:104710000090FEF707F85946C4F8D4812846A4F85B
:10472000D8610CF0A3FD95E8070004F5F07A4FF08E
:1047300001038AE80700594684F8DC3128460CF06A
:1047400095FD95E80700404B14938AE807000D2378
:1047500058466FF0410A14A9ADF854300DF02EF808
:10476000594684F8DAA1384609F032FA13235D225B
:104770000498CDF80090CC21FDF7D4FF0499C4F83B
:104780001C822846A4F820620CF070FD95E8070012
:1047900004F50A784FF0030B88E80700049984F8C1
:1047A00024B228460CF062FD95E80700264B1493CE
:1047B00088E807000C230498DFF89090DFF89080D9
:1047C000ADF8543014A90CF0F9FF049984F822A232
:1047D00038464FF0780A09F0FBF902233D220C9885
:1047E000CDF800A03146FDF79DFFC4E997980C99DC
:1047F000A4F86462384609F0EBF902233C220B98D6
:10480000CDF800A04FF49F71FDF78CFFC4E9A49888
:104810000B99A4F89862384609F0DAF96F220298E9
:10482000DFF830902E21FDF770FF15E040A9020857
:104830009CAF020838A60208D4B20208A8A5020854
:1048400037380CFF0C0C99FF98A502086E0B00FF7F
:104850003493ADFFB83F0120744BC4F8CC32D4F888
:104860009C320299D3F88430A4F8D0622846984745
:1048700095E8070004F536784FF0010388E8070053
:1048800084F8D432D4F89C320299D3F88430284684
:10489000984795E80700D9F8003088E8070004F544
:1048A00079782BB9624B634A6021634823F0B6FAEA
:1048B000DFF898A1BAF80030082B03D85F4B5D4AA7
:1048C0006121F2E75E4B0821186801F003FF5D4AA1
:1048D00003460A21404613F063FA0298C4F8E482C2
:1048E0000CF04CFF4FF0D2080B23574A0298ADF85A
:1048F000543014A914920CF061FF029984F8D2820A
:10490000384609F065F96F220398F521FDF7FDFEA1
:10491000D4F8E8324549D3F88430C4F8181328464F
:104920000399A4F81C63984795E80700D4F8E83287
:1049300004F5497686E80700D3F88430039984F8B3
:1049400020B32846984795E80700D9F8003086E854
:10495000070004F57E75002BA4D0BAF80030082BB0
:10496000ACD9374B0821186801F0B4FE354A03462C
:104970000A21284613F014FA0398C4F830530CF0B7
:10498000FDFE0A25304A0398149214A9ADF854503C
:104990000CF014FF039984F81E83384609F018F9C7
:1049A0002A46059840F23911FDF7AFFE0426059816
:1049B000ADF8506014A90DF01BF90599384609F0BF
:1049C00007F9BE22069840F23911FDF79EFE0698BF
:1049D000ADF8506014A90DF00BF90699384609F0AE
:1049E000F7F82A4607986FF00101FDF78EFE079849
:1049F000ADF850B014A90DF0FBF80799384609F04E
:104A0000E7F8BE2208986FF00101FDF77EFE0898D6
:104A1000ADF850B014A90DF0EBF83846089909F03C
:104A2000D7F8204617B0BDE8F08F00BF5FABDEFFC0
:104A3000C2930208C49402083F94020886940208B4
:104A4000C43F01200F95020898A50208BC3F012031
:104A50007047000010B5034B036004460EF0D0F819
:104A6000204610BD74A9020810B5064B0360044629
:104A70000EF0C6F8204641F2CC6122F093FA2046AF
:104A800010BD00BF74A902082DE9F04F044697B08D
:104A9000A246002611F0A4FCA04BE6634AF8403B76
:104AA0005046FDF753FE04F16C03184604F19808D4
:104AB000099304F1C405FDF749FE4046FDF746FEA3
:104AC0002846FDF743FE04F1F0031846944F0E9379
:104AD0004FF00109FDF73AFE04F58E73184604F510
:104AE000A47BC4F8F07084F814910D93FDF72EFEAA
:104AF000C4F81C7184F840918A4F584604F5CA796D
:104B0000FDF73AFEC4F84871C4F890614846FDF7D5
:104B100033FE04F5F073C4F894711846C4F8DC61F0
:104B20000393FDF729FE04F50A7318460493FDF775
:104B300023FE04F51C7318467B4F0C93FDF706FE0D
:104B400004F52973C4F870721846C4F89C62A4F87E
:104B5000A0620B93FDF7FAFD04F53673C4F8A47256
:104B60001846C4F8D062A4F8D4620A930BF072FD20
:104B700004F5487318460F93FCF7A4FC6B4BC4F87C
:104B800020332433C4F8283304F54D734FF6FF77F0
:104B900014A91846C4F82C630593ADF85070FFF7BC
:104BA00063FC04F5587314A918460693ADF85070C9
:104BB000FFF75AFC04F5637314A918460793ADF880
:104BC0005070FFF751FC04F56E73184614A9089352
:104BD000ADF85070FFF748FC4FF4965104F20C40CA
:104BE0000EF004F8F02332465046009331464FF45D
:104BF000A073FDF797FD271D4FF07F435146A36635
:104C0000384608F0E5FFF0234FF0FF3A32460998A6
:104C1000009331464FF4A073FDF784FD0999C4F861
:104C200094A0384608F0D4FF0222EC2311464046F7
:104C300000934FF49E73FDF775FD3D4BC4F8C030F3
:104C40004146384608F0C4FFF02332462846009318
:104C5000A0210323FDF766FDDC23294684F8EA3012
:104C600014253846C4F8ECA008F0B2FF05236E22E4
:104C70000E9800950721FDF755FD0E99C4F818A16F
:104C8000384608F0A5FF05236E220D9800954FF4D5
:104C90009A71FDF747FD0D99C4F844A1384608F014
:104CA00097FF1622B8215846FDF72FFD214BC4F877
:104CB0007831D4F84831A4F87C6110ADD3F8843051
:104CC00059462846984795E8070004F5C2784FF002
:104CD000030388E8070084F88031D4F84831594646
:104CE000D3F884302846984795E8070088E80700FD
:104CF000DFF8588004F579730993D8F800302BB9A0
:104D00000D4B0E4A60210E4823F088F80D4B1B888E
:104D1000012B1DD80C4B094A6121F4E774A9020844
:104D200038A60208A8A50208D4B202089CAF02085F
:104D300037380CFF565659FFC2930208C494020834
:104D40003F940208BC3F012086940208B83F01202E
:104D5000B04B0121186801F0BDFCAF4A03460A219F
:104D6000099813F01DF80999C4F8901158460CF0F1
:104D700005FDAA4B14935846192314A9ADF85430D5
:104D80000CF01CFD5946384608F022FFC32275215D
:104D90004846FDF7BAFCD4F89431A149D3F88430E1
:104DA000C4F8C41128464946A4F8C861984795E854
:104DB000070004F5E87BD4F894318BE807004FF046
:104DC0000101D3F8843084F8CC112846494698472D
:104DD00095E80700D8F800308BE8070004F57E7BE3
:104DE000002B8DD08F490B88022B93D9894A022141
:104DF000106801F06FFC884A03460A21584612F0F9
:104E0000CFFF4846C4F8DCB10CF0B8FC14AA834BC1
:104E10001493114618234846ADF854300CF0CEFCDC
:104E2000494638464FF0340908F0D2FE1323039860
:104E3000CDF80090B4228C21FDF774FC0399C4F8DE
:104E400010A22846A4F814620CF010FA95E80700A6
:104E500004F5077888E807004FF0010184F818127C
:104E6000284603990CF002FA95E807006B4B14935F
:104E700088E8070017230398ADF8543014A94FF0C1
:104E8000BE080CF09BFC039984F81682384608F0A3
:104E90009FFE13230498CDF800900722A521FDF76B
:104EA00041FC0499C4F858A22846A4F85C620CF0AE
:104EB000DDF995E8070004F5197989E807004FF056
:104EC0000302049984F8602228460CF0CFF995E893
:104ED0000700524B149389E8070016230498ADF895
:104EE000543014A90CF06AFC4F4D049984F85E828A
:104EF0003846DFF83C814FF0780908F069FE0C98DD
:104F0000CDF8009002233C223146FDF70BFCC4E9AA
:104F1000A6850C99A4F8A062384608F059FE0B98B3
:104F2000CDF8009002233C224FF49F71FDF7FAFB6D
:104F3000C4E9B3850B99A4F8D462384608F048FE5A
:104F40000E230A98009372229A21FDF7EBFBF023BF
:104F5000C4E9C133C023C4F80C334FF43453C4F84C
:104F60001433324BC4F82C3349F66103A4F83033C0
:104F70000F9BC4F800330A99C4F818633846C4F884
:104F8000106308F025FE0A2205986FF00201FDF774
:104F9000BCFB4FF003050598ADF8505014A90CF078
:104FA00027FE0599384608F013FEBD2206986FF0DB
:104FB0000201FDF7AAFB0698ADF8505014A90CF0B9
:104FC00017FE0699384608F003FE0A22079840F2B9
:104FD0003911FDF79AFB04250798ADF8505014A934
:104FE0000CF006FE0799384608F0F2FDBD2208983D
:104FF00040F23911FDF789FB0898ADF8505014A91B
:105000000CF0F6FD3846089908F0E2FD204617B08E
:10501000BDE8F08FC43F01200F95020898A5020853
:10502000565659FFBC3F01203493ADFF0C0C99FF3D
:105030006E0B00FF7047000010B5034B0360044681
:105040000DF0DEFD204610BDA8A9020810B5064BE4
:10505000036004460DF0D4FD20464FF4B15121F019
:10506000A1FF204610BD00BFA8A9020810B500F599
:105070008054D4F81C360133B42BC4F81C3606D146
:105080000FF0B8FAFEF710FB0023C4F81C3610BD71
:105090002DE9F04F044693B0A146002611F0A0F987
:1050A000DE4BE66349F8403B4846FDF74FFB04F111
:1050B0006C0304F1980A18460493FDF747FB504629
:1050C000FDF744FB04F1C40318460593FDF73EFBCE
:1050D00004F1F003184606930BF0BCFA04F59C7338
:1050E00018460B93FCF7EEF9CD4BC4F83831243356
:1050F000C4F8403104F5A6731846C4F84461C94D9C
:105100000A934FF00107FDF721FB04F5BC7304F58A
:10511000D2781846C4F84C5184F8707104F5F67BC7
:105120000993FDF713FBC4F8785184F89C7140464D
:10513000FDF722FB5846FDF71FFB04F50D731846DB
:10514000B94D0293FDF718FB04F52073C4F83452EF
:105150001846C4F87C62B54F0893FDF7F7FA04F5DA
:105160002D73C4F880721846C4F8AC62A4F8B0621B
:105170000793FDF7EBFA04F53A73C4F8B4721846D6
:10518000C4F8E062A4F8E4620393FDF7F5FA04F5CD
:105190008053C4F8E852C4F83063F025C3F81C66A5
:1051A0004FF4965104F557700DF020FD32464846F5
:1051B00000954FF4A0733146271DFDF7B3FA4FF069
:1051C0007F434946A366384608F002FD4FF0FF3999
:1051D0004FF4A0733246049800953146FDF7A2FAC9
:1051E0000499C4F89490384608F0F2FC0222EC23AB
:1051F0001146504600934FF49F73FDF793FA8C4B82
:10520000C4F8C0305146384608F0E2FC32460598F2
:1052100000950323A021FDF785FADC230599C4F846
:10522000EC9084F8EA30384608F0D2FC0E23722263
:10523000069800939B21FDF775FAC023C4F824312A
:105240004FF43453C4F82C317A4BC4F8443149F646
:105250006103A4F848310B9B0699C4F81831C4E9DE
:10526000475538462825C4F83061C4F8286108F04D
:10527000AFFC052364220A9800950A21FDF752FA33
:105280000A99C4F87491384608F0A2FC05236422F8
:105290000998009540F23311FDF744FA0999C4F8D2
:1052A000A091384608F094FC34230CAD5F224046B0
:1052B000009374211323FDF735FA4146C4F8D491C5
:1052C0002846A4F8D8610BF0D1FF95E8070004F553
:1052D000F07A8AE807004FF00302414684F8DD21A6
:1052E00028460BF0C3FF95E807004FF001038AE85A
:1052F0000700414684F8DC3128460BF0B7FF95E8FB
:1053000007004D4B10938AE807001123404610A96F
:105310004FF0BE0AADF844300CF050FA4146384622
:1053200084F8DAA108F054FC342113235F22584694
:105330000091BB21FDF7F6F95946C4F81C922846A6
:10534000A4F820620BF092FF95E8070004F50A78B4
:1053500088E807004FF00302594684F825222846C2
:1053600091460BF083FF95E8070088E8070059464F
:10537000284684F824920BF079FF95E807002E4B1D
:10538000109388E807001023584610A9ADF8443060
:105390000CF014FA5946384684F822A208F018FC9A
:1053A00071220298DFF8A8B03521FDF7AEF9234B42
:1053B000C4F86432D4F834320299D3F88430A4F8B3
:1053C00068622846984795E8070004F51C784FF076
:1053D000010388E8070084F86C32D4F8343202996B
:1053E000D3F884302846984795E80700DBF800306A
:1053F00088E8070004F54D782BB9114B114A60215C
:10540000114822F00BFDDFF84CA0BAF80030072B52
:1054100022D80E4B0B4A6121F2E700BFA8A902086F
:105420009CAF020838A60208A8A50208D4B2020858
:1054300037380CFF0C0C99FF98A502085FABDEFF14
:10544000C2930208C49402083F940208869402089A
:10545000B83F0120BC3F0120DFF84C910721D9F86B
:10546000000001F037F94B4A03460A21404612F08A
:1054700097FC0298C4F87C820CF080F9464B0298A5
:10548000109310A90F234FF0D208ADF844300CF060
:1054900095F9029984F86A82384608F099FB7822D7
:1054A0000223089800924FF49F713C22FDF73AF9CD
:1054B0003A4A3B49A4F8B062C4E9AA21384608999F
:1054C00008F086FB78200223314600903C220798A2
:1054D000FDF728F9314A3249A4F8E462C4E9B7215A
:1054E0003846079908F074FB03986F22F321FDF703
:1054F0000CF9D4F8E8322B4AD3F884300399C4F875
:1055000018232846A4F81C63984795E80700D4F8A8
:10551000E83204F5497686E807004FF00302284692
:10552000D3F88430039984F82023984795E807003E
:10553000DBF8003086E8070004F55275002B3FF4D5
:105540005CAFBAF80030072B7FF663AFD9F80000E4
:10555000072101F0BFF80F4A03460A21284612F03E
:105560001FFC0398C4F830530CF008F90A4B039859
:10557000109310A94FF00E03ADF844300CF01EF953
:105580003846039984F81E8308F022FB204613B0A6
:10559000BDE8F08F0F95020898A502086E0B00FF7A
:1055A0003493ADFF5FABDEFFC43F012070470000C6
:1055B00010B5034B036004460DF022FB204610BDDE
:1055C000DCA9020810B5064B036004460DF018FB79
:1055D000204641F21C6121F0E5FC204610BD00BFD1
:1055E000DCA902082DE9F04F044693B025460026B9
:1055F00010F0F6FE904BE66345F8403B04F16C0A70
:105600002846FDF7A3F85046FDF7A0F804F19803EB
:1056100004F1C40818460593FDF798F84046FDF7D5
:1056200095F804F1F0031846844F0A934FF00109EE
:10563000FDF78CF804F58E73184604F5A47BC4F8C6
:10564000F07084F814910993FDF780F8C4F81C7188
:1056500084F840917A4F584604F5CA79FDF78CF8E2
:10566000C4F84871C4F890614846FDF785F804F520
:10567000F073C4F894711846C4F8DC610393FDF725
:105680007BF804F50A7318460493FDF775F804F5E2
:105690001C7318466B4F0893FDF758F804F52973EF
:1056A000C4F870721846C4F89C62A4F8A06207930C
:1056B000FDF74CF804F53673C4F8A4721846C4F824
:1056C000D062A4F8D46206930AF0C4FF04F54873CC
:1056D00018460B93FBF7F6FE5B4BC4F820332433DC
:1056E000C4F828334FF4965104F55770C4F82C636E
:1056F0000DF07CFAF02332462846009331464FF4F1
:10570000A073FDF70FF8271D4FF07F432946A366CE
:10571000384608F05DFAF023324650460093314691
:105720004FF4A073FCF7FEFF4FF0FF335146C4F86F
:105730009430384608F04CFA0222EC2311460598C2
:1057400000934FF49E73FCF7EDFF404B0599C4F8AE
:10575000C030384608F03CFAF02332464046009309
:10576000A0210323FCF7DEFF4FF0FF33C4F8EC3039
:10577000DC234146282584F8EA30384608F028FA28
:1057800065220A98009505230721FCF7CBFF4FF00F
:10579000FF330A99C4F81831384608F019FA65221F
:1057A0000998009505234FF49A71FCF7BBFF4FF061
:1057B000FF33C4F844310999384608F009FA162233
:1057C000B8215846FCF7A1FF214BC4F87831D4F832
:1057D0004831A4F87C610CADD3F884305946284692
:1057E000984795E8070004F5C2784FF0030388E86E
:1057F000070084F88031D4F848315946D3F8843012
:105800002846984795E8070088E80700DFF85880A1
:10581000D8F8003004F54D7A2BB90E4B0E4A6021B2
:105820000E4822F0FBFA0E4B1B88032B1ED80D4BA3
:10583000094A6121F4E700BFDCA9020838A6020882
:10584000A8A50208D4B202089CAF020837380CFFA2
:10585000565659FFC2930208C49402083F940208A6
:10586000BC3F012086940208B83F0120924B0321DF
:10587000186800F02FFF914A03460A21504612F0A3
:105880008FFA5846C4F890A10BF078FFDFF848A2D1
:10589000CDF840A01D23584610A9ADF844300BF0B8
:1058A0008DFF5946384608F093F9C32275214846C2
:1058B000FCF72BFFD4F89431814AD3F88430C4F834
:1058C000C42149462846A4F8C861984795E80700CE
:1058D00004F5E87BD4F894318BE807004FF001021F
:1058E000D3F8843084F8CC2149462846984795E877
:1058F0000700D8F800308BE8070004F5527B002B36
:105900008BD0704A1388042B91D96B4B04211868F3
:1059100000F0E0FE694A03460A21584612F040FAB8
:105920004846C4F8DCB10BF029FF1C2310A94846F7
:10593000ADF84430CDF840A00BF040FF4946384662
:105940004FF0340908F044F90398CDF80090B422E0
:1059500013238C21FCF7E6FE4FF0FF33C4F810321E
:105960000399A4F8146228460BF080FC95E8070020
:1059700004F5077888E807004FF00102039984F8DE
:10598000182228460BF072FC95E807001B2388E8D4
:1059900007000398ADF8443010A94FF0BE08CDF8C9
:1059A00040A00BF00BFF039984F81682384608F0EC
:1059B0000FF90498CDF8009007221323A521FCF7D6
:1059C000B1FE4FF0FF330499C4F858322846A4F8CA
:1059D0005C620BF04BFC95E8070004F519794FF079
:1059E000030389E80700049984F8603228460BF025
:1059F0003DFC95E807001A2389E807000498ADF8F4
:105A0000443010A9CDF840A00BF0D8FE049984F8DA
:105A10005E8238464FF0780808F0DAF80898CDF83A
:105A200000803C2202234FF49F71FCF77BFE264D41
:105A3000264B0899A4F8A062C4E9A653384608F09A
:105A4000C7F80798CDF800803C2231460223FCF7C6
:105A500069FE1F4B0799C4F8D0323846C4F8CC52BF
:105A6000A4F8D46208F0B4F80E23069800937222CA
:105A70009A21FCF757FEF023C4E9C133C023C4F8D0
:105A80000C334FF43453C4F81433124BC4F82C3392
:105A900049F66103A4F830330B9B0699C4F81863E8
:105AA0003846C4F81063C4F8003308F091F8204673
:105AB00013B0BDE8F08F00BFC43F01200F9502086E
:105AC000565659FFBC3F01206E0B00FF3493ADFFCB
:105AD000052F3BFF0C0C99FF98A5020870477047F3
