:020000040800F2
:10000000000003205D0600083521000837210008A4
:10001000392100083B2100083D21000800000000B4
:100020000000000000000000000000002160000847
:100030003F21000800000000B1600008415900089D
:10004000AD060008AD060008AD060008AD060008C4
:10005000AD060008AD060008AD060008AD060008B4
:10006000AD060008AD060008AD060008AD060008A4
:10007000AD060008AD060008AD060008AD06000894
:10008000AD060008AD060008AD060008AD06000884
:10009000AD060008AD060008AD060008AD06000874
:1000A000AD060008AD060008AD060008AD06000864
:1000B000AD060008AD060008AD060008AD06000854
:1000C000AD060008AD060008AD060008AD06000844
:1000D000AD060008AD060008AD060008AD06000834
:1000E000AD060008AD060008AD060008AD06000824
:1000F000AD060008AD060008AD060008AD06000814
:10010000AD060008AD060008AD060008AD06000803
:10011000AD060008AD06000841210008AD06000844
:10012000AD060008AD060008AD060008AD060008E3
:10013000AD060008AD060008AD060008AD060008D3
:10014000AD060008AD060008AD060008AD060008C3
:10015000AD060008AD060008AD060008AD060008B3
:10016000AD060008AD060008AD060008AD060008A3
:10017000AD060008AD060008AD060008000000004E
:10018000AD060008AD060008AD060008AD06000883
:10019000AD060008AD060008AD060008AD06000873
:0C01A0004D210008AD06000859210008A0
:1001B00010B5054C237833B9044B13B10448AFF3A1
:1001C00000800123237010BD800300200000000088
:1001D0005820020808B5034B1BB103490348AFF38D
:1001E000008008BD000000008403002058200208A1
:1001F00001F0FF01102A2BDB10F0070F08D010F8D8
:10020000013B013A8B422DD010F0070F42B3F6D1DB
:10021000F0B441EA012141EA014122F007047FF0F4
:1002200000070023F0E80256083C85EA010586EA4B
:10023000010685FA47F5A3FA87F586FA47F6A5FA87
:1002400087F68EB9EED1F0BC01F0FF0102F0070293
:1002500032B110F8013B013A83EA010313B1F8D13E
:100260000020704701387047002D06BF354603381F
:10027000073815F0010F07D1013015F4807F02BF58
:10028000013015F4C03F0130F0BC0138704700BFA9
:100290007BB972B90029BEBF00204FF0004106E0D3
:1002A00008BF00281CBF6FF000414FF0FF3000F086
:1002B000D3B9ADF1080C6DE904CE002909DB002BA0
:1002C0001ADB00F04DF8DDF804E0DDE9022304B0AC
:1002D0007047404261EB4101002B1BDB00F040F80E
:1002E000DDF804E0DDE9022304B0404261EB4101A6
:1002F000524263EB43037047524263EB430300F007
:100300002FF8DDF804E0DDE9022304B0404261EBA0
:1003100041017047524263EB430300F021F8DDF8DE
:1003200004E0DDE9022304B0524263EB430370476B
:1003300053B94AB9002908BF00281CBF4FF0FF314C
:100340004FF0FF3000F088B9ADF1080C6DE904CE34
:1003500000F006F8DDF804E0DDE9022304B07047A0
:100360002DE9F047089D8E4604468846002B4AD169
:100370008A42174662D9B2FA82F64EB1C6F120031C
:1003800001FA06F820FA03F3B74043EA0808B4403C
:100390004FEA174E1FFA87FCB8FBFEF1230C0EFB49
:1003A000118843EA084301FB0CF29A4209D9FB1871
:1003B00001F1FF3080F0EA809A4240F2E780023992
:1003C0003B449A1AA3B2B2FBFEF00EFB102243EAA2
:1003D000024300FB0CFC9C4509D9FB1800F1FF32DD
:1003E00080F0D6809C4540F2D3803B44023840EAFE
:1003F0000140A3EB0C0300211DB1F3400022C5E92D
:100400000032BDE8F0878B4205D90DB1C5E9000186
:1004100000210846F5E7B3FA83F1002946D1734578
:1004200002D3824200F20581841A6EEB030201209E
:100430009046002DE5D0C5E90048E2E7002A00F02B
:100440009080B2FA82F6002E40F0A4808A1A030C43
:100450004FEA174E80B2BCB20121B2FBFEFC0EFB8C
:100460001C2243EA024304FB0CF29A4207D9FB1810
:100470000CF1FF3802D29A4200F2E080C4469B1A87
:10048000B3FBFEF20EFB123340EA034302FB04F41B
:100490009C4207D9FB1802F1FF3002D29C4200F2C5
:1004A000CA8002461B1B42EA0C40A5E7C1F12006A8
:1004B0008B4022FA06F71F430EFA01F420FA06F3E6
:1004C0002EFA06FE4FEA1749234300FA01F81FFAF5
:1004D00087FCBEFBF9F01C0C09FB10EE44EA0E444D
:1004E00000FB0CFEA64502FA01F209D93C1900F105
:1004F000FF3A80F09C80A64540F2998002383C4447
:10050000A4EB0E041FFA83FEB4FBF9F309FB1344BA
:100510004EEA044403FB0CFCA44508D93C1903F142
:10052000FF3E80F08280A4457FD9023B3C4443EAF1
:100530000040A4EB0C04A0FB02EC64457346E146CA
:1005400062D35FD05DB1B8EB030264EB090404FA37
:1005500006F622FA01F31E43CC40C5E900640021EF
:100560004FE7B1FBF2FC010C41EA0E4180B240EAD8
:1005700001423B4638463C46B846BE462026B1FBC3
:10058000F7F1A2EB080241EA0C4166E7014618E7E1
:1005900010462CE7C6F120022EFA02F3B740B14014
:1005A00020FA02F24FEA174E0A43B3FBFEF8BCB240
:1005B0000EFB1833110C41EA034108FB04F9B0406B
:1005C00089454FEA104380B23ED9791808F1FF3CC3
:1005D00001D289451FD8A1EB0901B1FBFEF909FB46
:1005E00004F80EFB191192B242EA0142424529D2A7
:1005F000BA1809F1FF31C4D24245C2D2A9F10201B1
:100600003A44BEE7F0459DD2BEEB02036CEB070C0B
:100610000138E14696E7A7EB09094944A8F1020C25
:10062000B1FBFEF909FB04F8DBE773467FE75046B0
:1006300066E70846FDE63B44023A33E7ACF1020CBC
:100640003B441CE749469CE7A1EB0901C446B1FBCA
:10065000FEF909FB04F8C4E7704700BFDFF834D0A7
:10066000002103E00C4B5B58435004310B480C4B0A
:1006700042189A42F6D30B4A02E0002342F8043BA8
:10068000094B9A42F9D302F0DDFE20F077FF01F02A
:1006900039F8704700000320E4CD04080000002072
:1006A0006401002080030020CC420120FEE7704757
:1006B00008B500F0A3FDBDE8084000F025BD00F03E
:1006C0009FBD704710B5042104461FF06AFD204607
:1006D00010BD000038B50C4B0C4C18800C4B822020
:1006E00019806368984740F6110398420AD1094D72
:1006F00023682C60822098472B688220DB6898470B
:10070000002038BD0120FCE7A60300204C0000209B
:10071000A4030020A80300204FF4A071F020FFF7ED
:10072000D9BF0000F7B52F4D2B6804461B69822006
:1007300098472080002844D02B680DF106025B69A1
:1007400001A982209847BDF80620A2F5B47292B2A2
:100750000A2A38D90B23B2FBF3F2234B1B889A42A7
:1007600001D9013B9AB2BDF80430204840F6B831B7
:100770008B422AD8C3F571630E3301689BB20F25F3
:10078000B3FBF5F31A4D2D88AB4284BF05F1FF355D
:10079000ABB28B421D468EB220D99B1B99B2154E2F
:1007A0003768BBB2BA428CBFD31A9B1A9BB21944AA
:1007B0000529C8BF05600368C8BF3260638033681D
:1007C000A38003B0F0BD0022CDE7C3F56D6308330D
:1007D0009BB20E2B0168D2D800252B46C91A89B2CC
:1007E000DDE700BFA8030020A4030020A003002031
:1007F000A60300209C03002037B568460D4614462A
:10080000FFF790FFBDF8000030B1BDF802302B605B
:10081000BDF804302360012003B030BD032821D887
:10082000DFE800F0020B12190F4B1A68B2FA82F2DD
:10083000520904210D4803F099B80B4B5A68B2FADB
:1008400082F252090821F5E7074B9A68B2FA82F260
:1008500052091021EEE7044BDA68B2FA82F252092B
:100860002021E7E7704700BFAC03002000100240E2
:10087000032821D8DFE800F0020B12190F4B1A6889
:10088000003A18BF012204210D4803F06FB80B4B4A
:100890005A68003A18BF01220821F5E7074B9A6809
:1008A000003A18BF01221021EEE7044BDA68003A43
:1008B00018BF01222021E7E7704700BFAC030020EA
:1008C0000010024003280DD8DFE800F00206080AF5
:1008D0000421054803F04FB80821FAE71021F8E792
:1008E0002021F6E7704700BF0010024008B503283A
:1008F00011D8DFE800F0020A0C0E0421074803F0CB
:100900002FF8431E5842584108BD0821F6E7102130
:10091000F4E72021F2E70020F3E700BF00100240D7
:1009200070B5084D00240126E0B2FFF7DFFF18B1D3
:100930002B68012B18BF2E600134052C05F104052E
:10094000F2D170BDAC030020012380F8781080F84C
:100950007930704700207047034B4164003918BF5D
:1009600001211970704700BF8B35012000207047AE
:10097000836B0BB10846184770474FF6FF707047FE
:10098000406803689B6918477047704770470000CC
:1009900010B5044600F042FD23680349D3F88C30BB
:1009A0002046BDE810401847000000D008B5036895
:1009B0000446D3F880309847236820469B6F9847B9
:1009C00000F0ECF8236820461B6F9847292001F0BF
:1009D000D1F800F0E3F8236820461B6F9847F8E74A
:1009E00010B5044608F0D6F823682046D3F8AC309A
:1009F000BDE81040184700F0F5BC00F0F9BC00F06D
:100A00002BBD00F0CBBC00F03BBD00F043BD00F0BF
:100A1000CFBC07F02BBB10B57C2104461FF0C1FBF7
:100A2000204610BD10B590F8341090F878400C4B6B
:100A30008C421A7809D03AB90A4A0B4914880888B6
:100A400010800C8001221A7010BD002AFCD0054ACB
:100A500005491488088810800C800022F3E700BF45
:100A600084350120803501208235012070B50D4686
:100A7000194635B9094B0A4A0A4840F2D22120F0FA
:100A8000CDFAC0E90F52084B003A18BF01221A7084
:100A90000368BDE87040D3F88C301847C8200208BE
:100AA000002102084E2102088A35012008B5094BB1
:100AB0001B888B4203D8084B1B88934205D9074BF0
:100AC000074A08489E2120F0A9FA074B1980074BD6
:100AD0001A8008BD8035012082350120932102084B
:100AE000F62102084E2102088635012088350120B2
:100AF000034690F87A0018B1586803681B681847D5
:100B000070470000012108B50022084604F0A2FF4A
:100B10000A4B186028B90A4B0A4A28210A4820F0D3
:100B20007DFA00220421012005F033F8074B1860FC
:100B300018B9074B034A2C21F0E708BDC003002079
:100B40003922020882220208B1220208BC030020D6
:100B5000EB220208024B4FF0FF31186804F0C4BFCB
:100B6000C0030020014B186804F0EABFC003002056
:100B7000024B0021186804F0B7BF00BFC00300207B
:100B8000FFF7F0BF03480449006800231A4605F048
:100B90003BB800BFBC0300200400002013B5084C84
:100BA00000231A4601A9206805F05FF820684FF07D
:100BB000FF33002201A905F058F802B010BD00BFB4
:100BC000BC03002003685B6C184701207047036872
:100BD0009B6A1847FEE740F2EF307047054B036011
:100BE000054B4FF08062C3F88820BFF34F8FBFF3EF
:100BF0006F8F7047AC2C020800E100E010B504468E
:100C00004FF45A61FFF7EAFF20461FF0CAFA204668
:100C100010BD000082B0002301930E4B1A6B42F40A
:100C200000021A631A6B02F400020192019A1A6917
:100C300042F400021A611A6922F400021A61064B9A
:100C4000064A1A61064A5A61064B4FF080629A6062
:100C500002B0704700380240E0260020B50E0008C0
:100C6000D50B000800E100E008B50A2809D8DFE844
:100C700000F006100E0808080810101010000220DE
:100C800008BD054B054A0648902120F0C7F9002011
:100C9000F6E70120F4E700BF2D23020848230208ED
:100CA0009323020838B50C46887FFFF7DDFFA58A3D
:100CB000E28A164B2169586342EA05425A64628B04
:100CC000D963521B1A642568082D0ED19A611A61E6
:100CD0005862207F0E4A42EA0062DA61E2681A62D4
:100CE0000C4A5961D9601A6038BD0022D8611A6176
:100CF000E1680A0A480902F4784200F4FC60024301
:100D0000C1F3C4010A439A63034AECE700B002400E
:100D100009000100012302000123030008B50B288C
:100D20000BD8DFE800F00612100A0A0A0A080808C1
:100D30000808022008BD0520FCE7054B054A0648C7
:100D40006F2120F06BF90020F4E70120F2E700BFEB
:100D50002D230208CB230208932302082DE9F0413A
:100D600091F81D800C464046FFF7D8FFA77F054647
:100D70003846FFF7D3FF06463846FFF775FFA18ACE
:100D8000628B444B521A1A649A61228B521A1A616E
:100D9000E28A586342EA01425A6421696268D9636F
:100DA000DA602068802828D0227F0FD8202867D0DA
:100DB000402865D004281AD0364B45EA026545F430
:100DC0000035B845DD6161D0334A44E0B0F5807F3D
:100DD00004D0B0F5007FEFD1304800E0304840EA61
:100DE0000262DA61E2681A625E62596132E045EAE3
:100DF000026242F40032DA61F6E7A068021DDA62AC
:100E0000227F45EA026545F40035DD615E62596185
:100E1000017841B1012921D0224B234A23484FF4C4
:100E20008D7120F0FBF8DA69418822F47F420139A4
:100E300022F0100242EA0122DA610121154BDA693F
:100E400042F02002DA61DA699206FCD410229A603C
:100E50000029B9D0164A1A60BDE8F081B2F1FF014D
:100E6000DA69408822F47F4200F1FF3022F010025C
:100E700042EA002242F0100218BF0121DA61DDE7E8
:100E800045EA0262034B42F40032B4E742F2013217
:100E9000E1E700BF00B002400123010009000200A9
:100EA0000A000200152402082F24020893230208D6
:100EB00001230200024B1B68586803685B691847EE
:100EC0008C35012070B5044625460A4B0C300026AF
:100ED00060602672667245F8203B6022294607F062
:100EE000B1FF04F55A63EE6024359D42FBD12046E4
:100EF00070BD00BFAC2C0208034B1A68D207FCD4AB
:100F000023229A60704700BF00B002407047000083
:100F100030B50F4C2568ED07FCD423250904A560E6
:100F200041F001010225FF2B65636164E0630AD093
:100F30000849656241EA0363E361074B226260612D
:100F4000E060236030BDE561039BA363034BF8E7DA
:100F500000B002400900010001000200010003008E
:100F600030B50E4C2568ED07FCD423251204A5608E
:100F700042F001020225FF2B65636264E063E160D9
:100F800008D01B0643F00213E361054B6562606104
:100F9000236030BD034BE3610123F9E700B0024059
:100FA00001000200020002FF30B50B4C2568ED077E
:100FB000FCD4232512041B06A56043F4003302254C
:100FC00042F0010265636264E063E160E361034B48
:100FD00065626061236030BD00B002400100020024
:100FE000012070470C2070470C2303FB01000830E0
:100FF00070470C2303FB0100083070470120704745
:1010000041F24C00704741F24C0303FB01000830F1
:10101000704741F24C0303FB010008307047012088
:1010200070471020704700EB01100830704700EB4C
:10103000011008307047084601F08CBA10B5034B18
:101040000360044606F067FD204610BD642D0208CB
:1010500010B50446FFF7F2FF204614211FF0A1F857
:10106000204610BD10B5034B0360044606F053FD47
:10107000204610BD302D020810B50446FFF7F2FFE0
:10108000204641F254011FF08CF8204610BD0000AC
:1010900010B5034B0360044606F03DFD204610BD2D
:1010A000FC2C020810B50446FFF7F2FF2046182179
:1010B0001FF077F8204610BD10B5084B03600446BA
:1010C00000F58450FFF7BAFF04F12C00FFF7CAFFC8
:1010D00004F11400FFF7DCFF204610BD982D020834
:1010E00008B50248FFF7E8FF08BD00BF94120020D2
:1010F00010B50446FFF7E0FF204641F2F4111FF05F
:1011000050F8204610BD00002DE9F34101F098F899
:10111000054601F099F80024014623462846224658
:10112000009410F001F8284B284A1A60204601F07C
:1011300025FE274D274B284A28489A600FF05CFF70
:101140002B68BFF35B8FDB0737D428461FF02BF8E3
:1011500098B3234C234B236004F5845707F11806FA
:1011600004F1140004F12C086060C4F80880E76002
:10117000266106F0D1FC1C4B6361404606F0CCFCB6
:101180001A4BE362384606F0C7FC04F5805303F1BE
:101190009400174AC3F8802001F074FE224607F13C
:1011A0001401304601F064FE304601F0D3F91148D5
:1011B0001FF052FF28461FF002F80F4802B0BDE8AA
:1011C000F041FFF7E5BB00BFF035012040040020EF
:1011D0009012002060040020440400200800002039
:1011E00094120020982D0208FC2C0208302D0208D1
:1011F000642D0208E1100008C403002070470000BD
:101200000148FFF7D3BB00BFC403002070B5244ED4
:10121000244C254D254B23603046FFF753FE2846CE
:1012200015F088F822480EF005F8224B2248DC60C1
:1012300000224FF48071C3E9121220491A86C3E9D3
:101240001A121F4999671F4983F858200B60F02133
:1012500001801D485A6601801C4883F870204FF4B5
:10126000A071C3E90422C3E90622C3E90822C3E945
:101270000A22C3E90E22C3E91022C3E91422C3E9FA
:1012800017225A67C3E9016501801148018011499D
:101290000A70012283F834200F4A1A6070BD00BF23
:1012A000EC0400208C12002060040020B82002080A
:1012B00044040020C4030020803501200100000107
:1012C000000001018C350120863501208235012086
:1012D0008835012084350120D42B02080148FFF70E
:1012E0007DBC00BFEC040020002070478180704767
:1012F000C1807047018170474181704770477047D6
:1013000070477047704710B4C4880368121B848804
:101310005B6D091B12B25DF8044B09B218474FF61A
:10132000FF7383814FF0FF3303621368C361106062
:101330007047002070478B8883800120704770477A
:1013400080F82610704790F82600704710B50022EC
:10135000B1F90840B1F90A10028042808480C1804E
:1013600010BD0022028042808280C28070470177D7
:10137000704780ED080A704780F82410704780F8A5
:101380002510704701207047983070478C307047A7
:10139000843070477047704770470000034B9022BD
:1013A00083F85A2383F85823704700BF00E100E018
:1013B000094A0A49D3680A48C3F30A03013B9BB2AE
:1013C0000B801169C1F30A01013901801364536B69
:1013D00043F0010353637047006801408A240020F2
:1013E00088240020014BD3F8AC007047006801400E
:1013F000024B0122C3F8AC105A62704700680140EA
:1014000010B52C2104461EF0CCFE204610BD10B5B0
:10141000BC2104461EF0C5FE204610BD70B5044632
:1014200006F079FE23685D6E0CF0D8FD014620467B
:10143000A8472368054AD3F888502046AC460023C5
:10144000BDE87040A2F51631604700BF00B004D07F
:1014500006F048BE06F052BE06F00EBE06F06FBFA4
:1014600090F8252012B103685B691847704790F81F
:1014700025201AB190F8242002B1186070470000AE
:10148000034B4FF080629A604FF080729A60704711
:1014900000E100E0084B4FF08062C3F88820BFF302
:1014A0004F8FBFF36F8F4FF08072C3F88820BFF368
:1014B0004F8FBFF36F8F704700E100E070B50023DE
:1014C000124E8380124B0360336893F85820054610
:1014D0000AB1D86C00B998680368DB6A984733682A
:1014E000B0FA80F4D86C640930B10368DB6A9847BD
:1014F000002808BF44F001042CB9064B064A0748EF
:101500002C211FF08BFD284670BD00BF8C350120BB
:10151000AC2D02086D240208CB2402080425020821
:1015200070B5244E3568BFF35B8F15F001053FD1D0
:1015300030461EF038FE00283AD01F4C1F4B256164
:1015400004F13400C4E90035C4E90255E584A5621C
:10155000A5850EF0CEF804F1580009F04BFD184BAC
:10156000A3652046174B40F8843BFFF7A7FF164BB7
:10157000C4F884302433C4F88C306423C4E928359B
:101580000023C4F8AC30C4F8B030C4F8B430C4F8A8
:10159000B8300E480E4BC4F89050C4F89C50C4F8B4
:1015A000A850C4F898301FF057FD30461EF007FED3
:1015B000014870BD8C24002090240020A033020834
:1015C000CC2D0208442E0208543302089913000857
:1015D0003433020810B5144C236823B3134B144A58
:1015E0001B6C11888B4213D1124B198802F0C6FF75
:1015F000226892F86A30013382F86A30FFF7C2FA43
:10160000206807F0C7FABDE810400020FFF706B9D0
:1016100002F0B4FF206803681B6A9847BDE81040D9
:101620000020FFF725B910BD8C350120006801406E
:101630008A2400208824002007B5064BADF8060058
:101640001B68054801220DF1060103F037FD03B0C8
:101650005DF804FB0C0000208C25002008B56420F8
:1016600004F0ECF9FBE7000030B595B01022002142
:101670000AA81FF0DAFE1422002103A81FF0D5FEED
:1016800000241E4B01941A6C42F080521A641B6CA9
:1016900003F080530193019B194B02941A6842F4A2
:1016A00040421A601B6803F4404302930122029BEC
:1016B0004FF48033CDE9082302254FF4800308213D
:1016C000CDE90E534FF4B473CDE9101308A80423E9
:1016D0001393129502F0AAFF02F06EFF0F23CDE9DB
:1016E00003354FF4A0504FF48053CDE90603052194
:1016F00003A8059403F076F915B030BD0038024018
:101700000070004080B59AB001F0AAFEFFF7ACFF70
:10171000142200210DA800241FF087FEC04B009466
:101720001A6BC048C04D42F010021A631A6B02F0E7
:1017300010020092009A01941A6B42F020021A6380
:101740001A6B02F020020192019A02941A6B42F085
:1017500080021A631A6B02F080020292029A0394CA
:101760001A6B42F004021A631A6B02F0040203922D
:10177000039A04941A6B42F001021A631A6B02F086
:1017800001020492049A05941A6B42F002021A6351
:101790001A6B02F002020592059A06941A6B42F047
:1017A00040021A631A6B02F040020692069A0794EE
:1017B0001A6B42F008021A631B6B03F008030793CD
:1017C00022463C21079B02F0D1F89848224604218A
:1017D00002F0CCF8224696484FF4405102F0C6F889
:1017E00001264FF003083C238E48CDF840800DA918
:1017F00002274FF00409CDE90D360F9401F0CCFF1C
:101800008A480F940DA9CDE90D96109701F0C4FFF9
:101810000DA94FF440538648CDE90D36CDE90F4769
:1018200001F0BAFF8348844B036001F0ABFE834AAA
:10183000834B2C62C5E9002328464FF48043C5E959
:101840000434C5E90244C5E9064402F09DFA1021BA
:10185000284602F0E1FC2146284602F0FCFC7948CB
:10186000794984624FF48273C0E900134FF4007524
:101870001823C0E906530A23744DC362C0E9024429
:10188000C0E90444C0E9084403F0BCFB704B0D9769
:101890004FF0100CC5E900364023C5E904C34FF4EE
:1018A000C073C5E906344FF40063C5E908344FF44A
:1018B0000053AB620DA907232846CDE90E39CDE9C7
:1018C00010384FF0080AC5E90249CDE9127703F054
:1018D0007DFA4FF6FF7209A92846CDE90AA60894B9
:1018E00009960C9403F092FA304601F0E5FD4FF6AC
:1018F000FF7209A92846CDE9097ACDE90B6403F006
:1019000085FA4FF6FF7209A92846CDE9098ACDE983
:101910000B9403F07BFA4FF40C730893089B0C9321
:101920004FF6FF7209A92846CDE9099A0B9603F0F4
:101930006DFA40F26A51284603F086FA34222146B5
:101940000DEB02001FF071FD424D434B2C61C5E9C8
:1019500000340923C5E905361D2340F20D1EC5E9F3
:10196000073840F24313C5E909E3284640F247131C
:1019700040F21718C5E90B83C5E90244AC8685F827
:10198000364002F003FDFF21F022CDE912144FF49E
:10199000806905214FF4A073CDE90E24CDE914919F
:1019A000CDE916420DA922462846CDE910372B4D28
:1019B00018930D94ADF864408DF8664002F0B1FDC7
:1019C000274B2B601B6898472B68264DDB68984790
:1019D000254B2846C5E90034C5E90274C5E90A4724
:1019E000C5E90C4401F0DEFD3146284601F090FEC9
:1019F000FEF75EFEFEF75BFE03F0B0FF1B4A1C48DD
:101A0000214603F0D7FF1B4B1B4A186021461B4899
:101A100003F0D0FF1A4B186003F0B2FFFEE700BFDF
:101A200000380240001002408C26002000080240CE
:101A3000000C02402027002000300240005C0040E3
:101A4000A08601008C250020005001405825002070
:101A5000400100A0E4250020006801404C25002042
:101A600014000020E026002000B00240AC2E020846
:101A70005D16000854250020882E0208BF060008C5
:101A800050250020704770477FB5094B8DF817200F
:101A90001B6802930DF117020123009201930A467D
:101AA0000146044802F018FA07B05DF804FB00BFD5
:101AB000100000208C2600207FB500238DF8173001
:101AC000084B1B6802930A4601230DF11701009190
:101AD00001930146044802F08FFA9DF8170007B001
:101AE0005DF804FB100000208C2600201FB5084C78
:101AF00024680092CDE901340A46012301460548D5
:101B000002F07AFA003818BF012004B010BD00BFFF
:101B1000100000208C26002001F0CEBC10B5064C31
:101B200000222046042101F021FF20460122BDE8C9
:101B30001040042101F01ABF0008024038B50B4DD7
:101B4000044601220A484FF4005101F00FFF002221
:101B50000421284601F00AFF2046FFF76DFD2846C4
:101B60000122BDE83840042101F000BF0008024016
:101B7000000C024038B50B4D044600220A484FF4D1
:101B8000005101F0F3FE00220421284601F0EEFE90
:101B90002046FFF751FD28460122BDE838400421C8
:101BA00001F0E4BE00080240000C0240F7B5144EFC
:101BB000144F05460C4630460022042101F0D6FEA3
:101BC00000224FF40051384601F0D0FE2846FFF7BE
:101BD00033FD0D4B0D481B68224601A903F01AFC8A
:101BE000384601224FF40051019C01F0BFFE3046FF
:101BF0000122042101F0BAFE204603B0F0BD00BF6F
:101C000000080240000C02400C0000208C2500203F
:101C100001F052BC0268034B9A4201D101F03ABC78
:101C2000704700BF001000407047000082B00E4BAC
:101C300000220092596C41F480415964596C01F4BE
:101C40008041009100990192196C41F08051196412
:101C50001B6C03F080530193019B0F216FF0010077
:101C600002B001F04FBC00BF003802400268094BCF
:101C70009A4282B00BD100230193074B1A6B42F4B6
:101C800080521A631B6B03F480530193019B02B0D3
:101C9000704700BF003002400038024007B50F4BCC
:101CA00002689A4216D10022A3F5F0430192196B03
:101CB00041F4000119631B6B03F400030193052138
:101CC0005A20019B01F01EFC5A2003B05DF804EB82
:101CD00001F04ABC03B05DF804FB00BF00B0024055
:101CE0002DE9F043044689B01422002103A81FF017
:101CF0009CFB2268244B9A4243D1244C2448002563
:101D00000095236B43F004032363236B03F0040368
:101D10000093009B0195236B43F001032363236B26
:101D200003F001030193019B4FF012094FF400737C
:101D30004FF001080327042603A9CDE90339CDE9B3
:101D40000587079601F028FD4FF480731148079628
:101D500003A9CDE90339CDE9058701F01DFD029501
:101D6000236C43F400032364236C03F40003029305
:101D7000029B236A43F400032362236A23F40003D3
:101D8000236209B0BDE8F083005C004000380240E7
:101D90000008024000000240F0B599B00446142249
:101DA000002107A81FF041FB30220DEB02000021AB
:101DB0001FF03BFB22685E4B9A4240F0B78008233D
:101DC0000C93C0231093042312930CA84FF40033F8
:101DD000159302F0CFFE08B1FFF726FF554B56488A
:101DE000002400945A6C42F080625A645A6C02F0EB
:101DF00080620092009A01941A6B42F020021A63EA
:101E00001A6B02F020020192019A02941A6B42F0BE
:101E100001021A631A6B02F001020292029A039401
:101E20001A6B42F002021A631A6B02F0020203926A
:101E3000039A04941A6B42F040021A631A6B02F080
:101E400040020492049A05941A6B42F004021A6349
:101E50001A6B02F004020592059A06941A6B42F07E
:101E600008021A631B6B03F00803069302250E2673
:101E7000069B0B964FF4806307A9CDE90735CDE9A2
:101E8000094501F089FC41F658032C480B9607A937
:101E9000CDE907350927CDE9094501F07DFC03238C
:101EA00027480B9707A9CDE90735CDE9094501F08A
:101EB00073FC4FF4706322480B9607A9CDE90735F0
:101EC000CDE9094501F068FC4FF40C631D480B9601
:101ED00007A9CDE90735CDE9094501F05DFCC0232F
:101EE00019480B9607A9CDE90735CDE9094501F059
:101EF00053FC082315480B9607A9CDE90735CDE912
:101F0000094501F049FC4FF4A0530E480B9707A96F
:101F1000CDE90735CDE9094501F03EFC58202246C0
:101F2000052101F0EFFA582001F01EFB19B0F0BDB9
:101F300000680140003802400014024000000240E6
:101F4000000402400018024000080240000C024059
:101F500010B5044688B01422002103A81FF065FACA
:101F60002268144B9A4223D103F568430021019162
:101F70005A6C114842F480125A645A6C02F480126E
:101F80000192019A02911A6B42F020021A631B6BB4
:101F900003F020030293029B4FF46072022303219B
:101FA000CDE903230523CDE9061303A901F0F4FBD2
:101FB00008B010BD00500140001402402DE9F0416E
:101FC00086B0002303932B4B1C68002C4FD14FF09D
:101FD0000108C3F80080284B00949A6B274842EA16
:101FE00008029A639B6B03EA080300930227032607
:101FF0000C25009B01A94FF63F03CDE90137CDE940
:10200000046501F0C9FB1E48059501A9CDE90187CA
:10201000CDE9034601F0C0FB48F23313194805959A
:1020200001A9CDE90137CDE9034601F0B5FB4FF633
:1020300083731548059501A9CDE90137CDE903461C
:1020400001F0AAFB4CF203731048059501A9CDE9F4
:102050000137CDE9034601F09FFB60230C4805954D
:1020600001A9CDE90137CDE9034601F095FB06B0A2
:10207000BDE8F0812827002000380240001402400B
:10208000000802400018024000100240000C02400C
:102090000004024070B588B000230293204B1A6CF4
:1020A00042F010021A641B6C03F010030293054601
:1020B00001A903A8029B02F03FFD069B4BBB02F067
:1020C0002BFD184E184B336040F2E733F360174B8B
:1020D000B0FBF3F3013B7360304600233361B36020
:1020E000B36103F067FB044680B9304603F038FA69
:1020F000044658B9362001F037FA0F2D0DD8224684
:102100002946362001F0FEF9094B1D60204608B033
:1021100070BD02F001FD4000D3E70124F6E700BFE7
:10212000003802402C2700200010004040420F00E1
:102130007C0000207047FEE7FEE7FEE7FEE7704701
:10214000014803F04BBA00BF2C270020014802F0E1
:102150008BB900BFE4250020014801F04FBA00BF51
:10216000E02600200120704708B51FF001FA162371
:1021700003604FF0FF3008BD08B51FF0F9F91623D2
:102180000360FEE770B50D4614460E46731B9C4275
:1021900001DC204670BDAFF3008006F8010BF5E7C7
:1021A00070B50D4614460E46731B9C4201DC20465A
:1021B00070BD16F8010BAFF30080F5E74FF0FF306C
:1021C00070474FF400534B60002070470120704768
:1021D000002070470A4A116808B5034609B9094941
:1021E00011601068694603448B4206D91FF0C0F99C
:1021F0000C2303604FF0FF3008BD1360FCE700BF05
:1022000074270020D0420120704710B504210446F5
:102210001DF0C7FF204610BD012908B506D00229D0
:1022200008D059B900F0F6FD006808BD00F0F2FDD5
:102230004068FAE700F0EEFD8068F6E70020F4E77A
:1022400000487047E42E02080420704713B50024AC
:1022500051B1036801948DF8034001AA9C680DF107
:102260000303A04702B010BD0846FBE7C0897047D2
:10227000008A7047C088704780887047807A00F075
:102280007F007047807AC0097047002070470000C7
:102290009FED010A704700BF00000000704710B5B5
:1022A000082104461DF07DFF204610BD7047704791
:1022B00000F598730868496803C370477047704712
:1022C0004160704770477047064BC0F84C3100239F
:1022D000C0F8503100F5A273C0F84801C0F8403191
:1022E000704700BF892300080123037270477047BD
:1022F00010B4C26841685410034601EB6200D20773
:1023000048BF0A599B685DF8044B48BFD35818472B
:102310000346406830B19A681AB9D86800F00100E5
:1023200070470120704710B50C2104461DF039FF9D
:10233000204610BD10B5102104461DF032FF204686
:1023400010BD10B54FF4AE7104461DF02AFF2046B3
:1023500010BD10B50BF042FE0368BDE81040DB6B0A
:10236000184710B50446D0F8400158B10368DB683F
:10237000984738B1D4F8400103689B689847002318
:10238000C4F8403110BD00002DE9F14FD0E9556A85
:102390000746B06803681B6A984741F24B039842AE
:1023A00005D8444B444AA32144481EF037FE7068C8
:1023B00003681B6A98470F2803D8414B3E4AA42163
:1023C000F2E7F06803681B6A98470B2803D83D4B77
:1023D000394AA521E8E70BF001FEDFF8F090043060
:1023E0000BF021FED9F8000010B10368DB689847B4
:1023F000D9F8000010B103681B689847DFF8D08057
:10240000D8F8000010B103685B699847D7F83C0121
:1024100010B103685B689847D8F8000010B10368F2
:102420001B689847D7F83C0110B103689B68984730
:10243000F068036800215B6A98474FF0000B224B5D
:10244000C0F804B0044680F808B00360B0680368C0
:1024500059465B6A9847054600F048FD7068036876
:1024600059465B6A98472946064600F01DFD331D14
:10247000C7F83C61C9F80040C8F80050CAF80030FD
:102480002B68C6F808A02846DB68EE6398473368D7
:1024900030461B689847214628460DF019FE2368F0
:1024A00020461B69984723685B69204601B0BDE858
:1024B000F04F18477B25020809260208DB26020890
:1024C00022270208C5270208B82F0208D4350120A8
:1024D000D0350120044B1B6893F858200AB1D86C02
:1024E00000B99868704700BF8C350120F8B51746D1
:1024F00004460E460BF034FE124B1C60124B236058
:10250000124B0025C4E95135114BC4E953551868E5
:10251000036801219B68C4E94F55C4E95576984783
:10252000284600F02BFCFFF7D5FF15F056FDFFF70E
:10253000D1FF15F0CDFDFFF7CDFF15F0D5FD2046FD
:10254000F8BD00BFE0350120642F02084C2F0208BF
:102550008C350120064BC0F84C310023C0F85031B7
:1025600000F5A273C0F84801C0F84031704700BFC1
:1025700089230008406A7047806A704770478B88DB
:10258000C0690A68DB0A50F823001044704710B590
:102590000446BAB1107B68B1537BD27A1B0203F4B4
:1025A000E0631A43236A03EB82031A888A4202D14A
:1025B00093F9020010BD05D8013880B20433002819
:1025C000F3D1F7E70020F5E710B52C2104461DF004
:1025D000E8FD204610BD000030B58BB00446BDF8C4
:1025E00060500895BDF85C5007959DF850500695D1
:1025F0009DF84C5005959DF8485004959DF8445021
:1026000003959DF8405002959DF83C500195BDF80A
:10261000385000950DF02AF9064B2360159BE361B5
:10262000169B2362199B63621A9BA36220460BB020
:1026300030BD00BFDC2F02087047704770477047FD
:10264000704770B5036804461B6B154698472368AE
:10265000294620465B6BBDE87040184770B50446BC
:102660001D46BDF91060FFF7ECFF236829462046A0
:102670009B6B9847236831462046DB6BBDE8704072
:1026800018470000094A02604FF4807100228184DB
:10269000FF21C0E90122C0E90322C0E90522C0E907
:1026A000072280F826108262704700BF2436020895
:1026B00030B5036885B06D460181D3F8843001469A
:1026C00004462846984795E807003C3484E807000C
:1026D00005B030BD30B5036885B06D464181D3F893
:1026E0008430014604462846984795E807003C3464
:1026F00084E8070005B030BD00220280428082805D
:10270000C280704780F83610704770B50368044681
:102710001B6B154698472368294620465B6EBDE82B
:102720007040184700207047806C704770477047B2
:10273000704710B54C2104461DF033FD204610BDF6
:1027400010B52C2104461DF02CFD204610BD0B8930
:102750008A89D21A4B89C988591A12B209B20CF067
:1027600035BD000010B5034B0360044609F03CFF83
:10277000204610BD3C31020810B5064B03600446EC
:1027800009F032FF204641F24C011DF00AFD2046BF
:1027900010BD00BF3C31020808B590F826300BB1DF
:1027A000FEF75EFE08BD08B5FEF75AFE08BD000044
:1027B000036870B55E6B124B1B6804468DB22BB973
:1027C000104B114A6C2111481EF028FC1049828DD3
:1027D0000988914203D80F4B0B4A6D21F3E713F898
:1027E00012200D4B1B6853F8220003681B6B98479F
:1027F000291A3346204609B2BDE87040184700BF89
:10280000E435012068280208AA280208E528020801
:10281000E83501202C290208EC35012000224FF078
:10282000FF31C0E900218260704700004FF48071E1
:1028300081840D4901600D4981624FF6FF718185E8
:102840004FF47F01002241634FF0FF31C0E90122C4
:10285000C0E90322C0E90522C0E90722C0E910123D
:1028600002630287C2637047943502083C2F020856
:102870002DE9F04F04468FB0254600260DF07CFA76
:10288000A04BE66345F8403B04F16C0A2846FFF78D
:10289000F9FE04F1980B5046FFF7F4FE5846FFF797
:1028A000F1FE04F1C40304F1F00918460493FFF7A4
:1028B000E9FE484607F086FE04F59C731846079328
:1028C000FEF7FCFD904BC4F838312433C4F8403196
:1028D00004F5A673C4F844611846DFF840820693F5
:1028E0000127FFF7CFFE04F5BC73C4F84C8184F8D0
:1028F000707118460593FFF7C5FEC4F8788104F59A
:10290000D27884F89C714046FFF790FF7F4FC4F85F
:10291000A47104F5F8731846C4F8EC610393FFF74B
:1029200085FFC4F8F07104F50F70C4F838624FF4F5
:10293000616109F04FFE4FF4A073324600933146B7
:102940002846F023271DFFF789FE4FF07F43A3663B
:102950002946384605F0F4F84FF4A0734FF0FF35E0
:10296000324600933146F0235046FFF777FEC4F815
:1029700094505146384605F0E3F8022240F23D13E8
:10298000114600935846ED23FFF768FE604BC4F8EC
:10299000C0304FF0020A5946384605F0D1F8049885
:1029A000CDF800A0A0223146F023FFF757FE742394
:1029B0000499C4F8EC5084F8EA30384605F0C0F8C1
:1029C0000E239A22009348467121FFF747FEF02319
:1029D000C4E947339323C4F824315323C4F8303176
:1029E0004FF43453C4F82C314846C4F828615A21B6
:1029F00007F000FE474BC4F8443149F66103A4F8E0
:102A00004831079BC4F818314FF0030B494638464C
:102A100005F096F80698CDF800B0142306226E2132
:102A2000FFF71CFE0699C4F87451384605F088F883
:102A300014230598CDF800B040F237126E21FFF74D
:102A40000DFE0599C4F8A051384605F079F84046C6
:102A50004B221E21FFF7F5FDD4F8A4212E4BC4F81C
:102A6000D43108AD41462846D2F88420A4F8D86174
:102A7000904795E8070004F5F07989E80700D4F855
:102A8000A42184F8DCA141462846D2F8842090474E
:102A900095E8070089E80700DFF88490CDF83090CA
:102AA0000CA94046ADF834B008F04AFE414638461D
:102AB00005F046F80398E3221E21FFF7C2FD164BEE
:102AC000C4F82032D4F8F0310399D3F88430A4F854
:102AD00024622846984795E8070004F50B7383E8BD
:102AE00007000398CDF830900CA9ADF834A008F099
:102AF00027FE3846039905F023F820460FB0BDE8BD
:102B0000F08F00BF3C310208543302084430020801
:102B100037380CFF0C0C99FF565659FFD430020879
:102B20003C2F02087047000030B5164D2C6814F099
:102B300001048FB0BFF35B8F21D128461DF033FB1A
:102B4000E8B13F230993104B0893104B10491148EB
:102B50000A94CDE9064301220423CDE9033214236C
:102B600000930522CDE90B44CDE901440594FFF71C
:102B700033FD09481EF070FA28461DF020FB054879
:102B80000FB030BD78270020E0440208EC44020872
:102B9000EC4302087C270020252B0008704700002A
:102BA00030B5174D2C6814F001048FB0BFF35B8F64
:102BB00022D128461DF0F7FAF0B13F230993114BBB
:102BC0000893114B114912480A94CDE9064301229A
:102BD0000423CDE90332162300930B221A23CDE9F7
:102BE0000B44CDE901440594FFF7F6FC09481EF0BB
:102BF00033FA28461DF0E3FA05480FB030BD00BF98
:102C0000A8270020E4440208F044020834440208E3
:102C1000AC2700209D2B00087047000030B5164DF2
:102C20002C6814F001048FB0BFF35B8F20D12846CD
:102C30001DF0B9FAE0B13F230993104B0893104BF4
:102C4000104911480A940122CDE906430423CDE935
:102C5000033228230093CDE90B44CDE901440594C8
:102C6000FFF7BAFC09481EF0F7F928461DF0A7FA4D
:102C700005480FB030BD00BFD8270020E844020847
:102C8000F4440208D0440208DC270020192C000874
:102C900000207047002070470EB403B503AB00213D
:102CA00053F8042B01930CF0E5F802B05DF804EB47
:102CB00003B070470CB407B504AB53F8042B019371
:102CC0000CF0D8F803B05DF804EB02B070470000D8
:102CD000436C10B5044673B3038F2BB9184B194AD4
:102CE000C52119481EF09AF9C38E00EB43035B8C93
:102CF0000BB30DF046FF238F012B03D8134B144A5F
:102D0000CB21EEE7E28E531C9BB2092B194688BFFC
:102D1000A3F10A0104EB410140F63F10498C8142C6
:102D200009D10A2B04EB420228BF002304EB430322
:102D3000508C588451842046BDE810400DF024BECC
:102D40006A290208732902081E2A0208682A020852
:102D5000762A02080DF0DFBD10B586B002AC84E81B
:102D600006001A460AAB05930193099B009321467E
:102D7000089B0AF0D1FC06B010BD000038B518BBA6
:102D8000124B13481C681349B4B1226822440260F4
:102D9000626822440A60A26814440F4B00221A8021
:102DA00000F038F8054600F033F80C4B1C600C4B73
:102DB0001D600C4B188007E00B4B03600B4B0B6046
:102DC0000B4B1C68002CE8D138BD00BF1428002034
:102DD0000C2800200828002010280020E4350120BD
:102DE000EC350120E83501200C450208F8440208C2
:102DF00040450208044B1B6853F82100034B1B6835
:102E000003EB4000704700BF082800200C2800207A
:102E100005207047004870471828002010B5FFF7BC
:102E200083FE044C2060FFF7F9FE6060FFF7B8FEF8
:102E3000A06010BD1828002010B5002404600C60AC
:102E400014601C6010BD704710B54FF4AE7104469D
:102E50001DF0A7F9204610BD10B50446D0F8580162
:102E600000F013F82046BDE810400BF039B900001F
:102E700010B50446FFF73AFB014B2360204610BD16
:102E800070310208002202607047704770470438B2
:102E90007047704710B5102104461DF082F9204696
:102EA00010BDA0F10400F5E700228260024A026032
:102EB00018324260C1607047C43102087047000098
:102EC00010B5034B03600446FFF74CFC204610BDD1
:102ED000EC31020810B50446FFF7F2FF204641F23C
:102EE0004C011DF05EF9204610BD000010B50446EF
:102EF000FFF7BEFC014B2360204610BDEC310208F9
:102F0000FFF716BCF02070474FF4A07070472920DF
:102F1000FEF730BE2820FEF72DBE08B5FEF7FEFDF9
:102F2000CA20FEF727FEC320FEF708FE0820FEF7A2
:102F300005FE5020FEF702FECF20FEF71BFE00200C
:102F4000FEF7FCFDC120FEF7F9FD3020FEF7F6FD8F
:102F5000ED20FEF70FFE6420FEF7F0FD0320FEF7E4
:102F6000EDFD1220FEF7EAFD8120FEF7E7FDE820E7
:102F7000FEF700FE8520FEF7E1FD0020FEF7DEFDF6
:102F80007820FEF7DBFDCB20FEF7F4FD3920FEF7BD
:102F9000D5FD2C20FEF7D2FD0020FEF7CFFD34201A
:102FA000FEF7CCFD0220FEF7C9FDF720FEF7E2FD9B
:102FB0002020FEF7C3FDEA20FEF7DCFD0020FEF72F
:102FC000BDFD0020FEF7BAFDB120FEF7D3FD0020C5
:102FD000FEF7B4FD1B20FEF7B1FDB620FEF7CAFDDB
:102FE0000A20FEF7ABFDA220FEF7A8FDC020FEF7E9
:102FF000C1FD1020FEF7A2FDC120FEF7BBFD102091
:10300000FEF79CFDC520FEF7B5FD4520FEF796FDB9
:103010001520FEF793FDC720FEF7ACFD9020FEF7CC
:103020008DFD3620FEF7A6FDC820FEF787FDF220B5
:10303000FEF7A0FD0020FEF781FDB020FEF79AFD0F
:10304000C220FEF77BFDB620FEF794FD0A20FEF7B6
:1030500075FDA720FEF772FD2720FEF76FFD042007
:10306000FEF76CFD2A20FEF785FD0020FEF766FDC9
:103070000020FEF763FD0020FEF760FDEF20FEF765
:103080005DFD2B20FEF776FD0020FEF757FD0020AA
:10309000FEF754FD0120FEF751FD3F20FEF74EFDE7
:1030A000F620FEF767FD0120FEF748FD0020FEF741
:1030B00045FD0620FEF742FD2C20FEF75BFDC820F3
:1030C000FEF7A6FD2620FEF755FD0120FEF736FD92
:1030D000E020FEF74FFD0F20FEF730FD2920FEF720
:1030E0002DFD2420FEF72AFD0C20FEF727FD0E20E3
:1030F000FEF724FD0920FEF721FD4E20FEF71EFD00
:103100007820FEF71BFD3C20FEF718FD0920FEF796
:1031100015FD1320FEF712FD0520FEF70FFD172009
:10312000FEF70CFD1120FEF709FD0020FEF706FD5D
:10313000E120FEF71FFD0020FEF700FD1620FEF740
:10314000FDFC1B20FEF7FAFC0420FEF7F7FC112023
:10315000FEF7F4FC0720FEF7F1FC3120FEF7EEFC51
:103160003320FEF7EBFC4220FEF7E8FC0520FEF7DB
:10317000E5FC0C20FEF7E2FC0A20FEF7DFFC28202D
:10318000FEF7DCFC2F20FEF7D9FC0F20FEF7D6FC63
:103190001120FEF7EFFCC820FEF73AFD2920FEF7CC
:1031A000E9FCBDE808402C20FEF7E4BC08B5FEF7BA
:1031B000B5FC0321D320FEF7F9FC80B208BD10B5A1
:1031C000C4B2022203212046FEF75EFC0A20FEF76D
:1031D000A3FC204600220321FEF756FCBDE8104068
:1031E0000220FEF799BC38B50446E4B2FEF74AFC6B
:1031F00000212046FEF760FC012105462046FEF72F
:103200005BFC40EA052080B238BD10B5C4B2402155
:103210002046FEF751FC030607D54C212046FEF759
:103220004BFC003818BF012010BD01224B21204665
:10323000FEF72AFC204600224B21FEF725FC002049
:10324000F2E773B50423C4B20E461546D7210DEB41
:1032500003022046FEF74AFC019B1BBA1A0DC3F37A
:103260000B23328020462B8001224B21FEF70CFCE1
:1032700000224B212046FEF707FC02B070BD000083
:1032800010B50A4A1378984204460DD05178884206
:103290000AD00BB141B90123D454FEF7F3FB204609
:1032A000BDE81040FFF78BBF10BD00BF24280020F1
:1032B00010B5C4B209212046FEF7FEFB40F0010222
:1032C000D2B220460921BDE81040FEF7DDBB10B5A3
:1032D000C4B209212046FEF7EFFB092100F0FE02EF
:1032E0002046BDE81040FEF7CFBB38B5C4B20D464E
:1032F00020460A21FEF7E0FB40EA0502D2B2204652
:103300000A21BDE83840FEF7BFBB10B50446FEF702
:10331000BAFB20461F21FFF7E8FF2046BDE810401A
:10332000FFF7C6BF38B5C4B20D4620460A21FEF7E6
:10333000C3FB20EA0502D2B220460A21BDE838408C
:10334000FEF7A2BB10B50446FFF7C1FF20461F21C0
:10335000BDE81040FFF7E6BF10B5C0B20C460B2128
:10336000FEF7AAFB204010BD1F21FFF7F5BF0A465C
:10337000C0B20B21FEF788BB1F21FFF7F8BF38B59D
:10338000C4B20D4620461721FEF796FB20EA05023F
:10339000D2B220461721BDE83840FEF775BB70B5A4
:1033A000C4B2064604212046FEF786FB042100F045
:1033B000FB0205462046FEF767FB3046F021FFF78B
:1033C000DEFF05F0F80220460421FEF75DFB4922EE
:1033D00020212046FEF758FB0220FEF79DFB2046E9
:1033E00001222121FEF750FB20469A224121FEF7BF
:1033F0004BFB204601224A21FEF746FB20460122D4
:103400004B21FEF741FB204600224B21FEF73CFBFF
:10341000204601225621FEF737FB20460122582183
:10342000FEF732FB204601224021FEF72DFB20460D
:10343000FF220B21FEF728FBBDE870400220FEF7BB
:103440006BBB0000054BD3F8882042F47002C3F830
:1034500088204FF000629A60704700BF00ED00E0E6
:1034600008B50B4B1A6842F400721A601A6842F4ED
:1034700080621A601A6842F480721A60032000F0B9
:103480002FF80020FEF706FEFEF7D0FB002008BD57
:10349000003C0240034A044B11681B780B44136044
:1034A000704700BF2828002078000020014B1868D2
:1034B000704700BF2828002038B50446FFF7F6FF04
:1034C000631C1CBF054B1B78054618BFE418FFF7AB
:1034D000EDFF431BA342FAD338BD00BF78000020A4
:1034E0000749CA6822F4E0620302120403F4E063AD
:1034F000120C134343F0BF6343F40033CB607047B7
:1035000000ED00E0164B30B5DC68C4F30224C4F1D2
:103510000703251D042B28BF0423062D4FF0FF357C
:103520008CBF033C002405FA03F321EA0303A54002
:1035300022EA0502A340002843EA0203ACBF00F1DF
:103540006040084A4FEA0313B8BF00F00F00DBB237
:10355000AABF00F56140135480F8003330BD00BFAE
:1035600000ED00E014ED00E0002807DB044A41090B
:10357000012300F01F00834042F82130704700BF54
:1035800000E100E010B5044650B1437903F0FF02BA
:1035900013B90271FEF76AFB01236371002010BDAD
:1035A0000120FCE710B5044620B390F8393003F051
:1035B000FF021BB980F83820FEF770FB022384F865
:1035C0003930236861681A6822F440320A431A606D
:1035D0005A6BA16822F007020A435A631A6CE16829
:1035E0006FF30D020A431A6400200123E06384F89C
:1035F000393010BD0120FCE770477047036870B593
:103600005E681D68F207044614D5E90512D51A68EC
:1036100022F480721A60C26B42F00102C26301227E
:103620009A60042380F83930002380F838304369E9
:1036300003B19847B20616D5AB0414D523681A68AF
:1036400022F400521A6020229A60E36B43F00203D6
:10365000E363042384F83930002384F83830636945
:103660000BB120469847300716D5290514D5236895
:103670001A6822F400621A6008229A60E36B43F031
:103680000403E363042384F83930002384F83830DA
:1036900063690BB12046984772070BD56B0509D5B6
:1036A00023681A6822F480621A6004229A60204615
:1036B000FFF7A2FFB00714D5A90512D523681A6831
:1036C00022F400721A6002229A60E36BE363012322
:1036D00084F83930002384F8383023690BB1204650
:1036E0009847F20613D5EB0411D523681A6822F423
:1036F00080521A6010229A60E36BE363012384F81E
:103700003930002384F838302046FFF776FF70BD4B
:10371000F0B590F83820012A03464FF002002BD074
:10372000012283F8382083F8390003EB0112D2E933
:103730000740556A174F44EA0040093C012C9CBFE2
:1037400005F07F4210434FEA01161A6888BF40EA2D
:10375000056091B9516A394001435162012C996960
:10376000916103D8596A21F07F41916201220020C2
:1037700083F8392083F83800F0BDD169394001431E
:10378000D1619919012C896911619CBF25F07F4590
:103790001562EBE7F0FFFC002DE9F74FDFF8BC9175
:1037A0006C4A00230D6801249C4004EA0506AC43E2
:1037B00040F0B7804D68032705F003044FEA430843
:1037C00007FA08FC671E012F6FEA0C0C34D88768D3
:1037D00007EA0C0ECF6807FA08F747EA0E0787607A
:1037E000476827EA060EC5F300179F4047EA0E0711
:1037F0004760C76807EA0C0E8F6807FA08F747EAC0
:103800000E07022CC76019D14FEAD30A00EB8A0ACF
:1038100003F0070BDAF820704FEA8B0B4FF00F0E16
:103820000EFA0BFE27EA0E0E0F6907FA0BF747EAAE
:103830000E07CAF8207001E0032CDAD1076804FAF9
:1038400008F407EA0C073C4315F4403F046068D0D5
:1038500000240194D9F8444044F48044C9F8444019
:10386000D9F8444023F0030707F1804704F480446B
:1038700007F59C37019403F0030C019CD7F808E08E
:103880004FEA8C0C0F2404FA0CF42EEA040E324C8E
:10389000A0424DD004F58064A0424BD004F5806472
:1038A000A04249D004F58064A04247D004F580646A
:1038B000A04245D004F58064A04243D004F5806462
:1038C000A04241D004F58064A0423FD004F580645A
:1038D000A0423DD004F58064A04214BF0A2409240C
:1038E00004FA0CF444EA0E04BC609468F74315F43F
:1038F000801F0CBF3C4034439460D46815F4001F13
:103900000CBF3C403443D460546815F4003F0CBFF6
:103910003C40344354601468ED0354BF3C4034438E
:1039200014600133102B7FF43DAF03B0BDE8F08F7E
:103930000024D5E70124D3E70224D1E70324CFE70D
:103940000424CDE70524CBE70624C9E70724C7E70D
:103950000824C5E7003C0140000002400038024056
:103960000369194214BF0120002070470AB1816128
:1039700070470904FBE7436901EA030221EA0301F6
:1039800041EA02418161704701684B6913F4806329
:103990004FF0000210D06FF480634B61202302636C
:1039A00080F83D3080F83E20036C80F83C2043F0E6
:1039B0000403036401207047184670472DE9F84658
:1039C00006460F4691461D464FEA114A3368BAF142
:1039D000010F0CBF5C699C6927EA0404A4B2B4FA25
:1039E00084F46409A14501D0002025E06A1CEED0D2
:1039F000FFF75CFD089BC01AA84201D8002DE5D155
:103A00003368BAF1010F0CBF5B699B6927EA0303B6
:103A10009BB2B3FA83F35B099945D7D100232022E7
:103A2000336386F83D2086F83E30326C86F83C30B1
:103A300042F0200232640120BDE8F8862DE9F04111
:103A400004460F46164698462568686927EA00002E
:103A500080B2C0B16B695A0517D52B6843F4007367
:103A60002B606FF480636B6120220023236384F852
:103A70003D2084F83E30236C43F00403236400238C
:103A800084F83C300120BDE8F081731CDDD0FFF7E5
:103A90000DFDA0EB0800B04201D8002ED4D1236860
:103AA0005A6927EA020292B2002ACDD000232022CE
:103AB000236384F83D2084F83E30236C1343DDE714
:103AC00070B504460D46164623685B691B0601D592
:103AD00000201EE02046FFF757FFC8B96A1CF3D04C
:103AE000FFF7E4FC801BA84201D8002DECD123682D
:103AF0005B6913F08003E7D12022236384F83D2023
:103B000084F83E30226C84F83C3042F0200222647B
:103B1000012070BD2DE9F0431546026885B0DDE94E
:103B20000C789946136843F4807313600E463B4645
:103B3000CDF8008000224FF001110446FFF73EFF50
:103B4000236838B11B68DB0502D54FF4007323648A
:103B5000032620E006F0FE061E611A4943463A4657
:103B60002046FFF76BFFA8B9236803905A690392B8
:103B70009B690393424639462046039BFFF7A0FF0B
:103B8000064660B1236C042B01BF2268136843F41E
:103B9000007313600126304605B0BDE8F083B9F12B
:103BA000010F236802D1EDB21D61F4E72A0A1A6100
:103BB000394642462046FFF783FF0028E2D12368BA
:103BC000F1E700BF020001002DE9FF479A460368B4
:103BD00015461A6842F480621A601A68DDE90C78AA
:103BE00042F480721A600E463B46CDF800800022F7
:103BF0004FF001110446FFF7E1FE236838B11B685E
:103C0000DB0544BF4FF400732364032021E05FFA17
:103C100086F906F0FE061E612B4943463A462046C9
:103C2000FFF70CFFA0B9236803905A6903929B69C0
:103C30000393424639462046039BFFF741FF58B1A4
:103C4000236C042B01BF2268136843F400731360D4
:103C5000012004B0BDE8F087BAF1010F23681AD142
:103C6000EDB242461D6139462046FFF729FF024664
:103C70000028E5D121680B6843F480730B6020466F
:103C8000CDF800803B464FF00111FFF797FE226808
:103C900060B11368B4E72A0A1A61394642462046E1
:103CA000FFF70EFF0028CBD12368D9E749F00103C5
:103CB0001361054943463A462046FFF7BFFE0038E8
:103CC00018BF0120C5E700BF0200010070B504461F
:103CD0000D46164623685B695B0701D500201EE090
:103CE0002046FFF751FEC8B96A1CF3D0FFF7DEFB90
:103CF000801BA84201D8002DECD123685B6913F02A
:103D00000403E7D12022236384F83D2084F83E3069
:103D1000226C84F83C3042F020022264012070BD05
:103D200070B504460D46164621684B6913F04003F2
:103D300001D0002011E04A69D2060FD56FF01002C1
:103D40004A612022236384F83D2084F83E30236CAE
:103D50002364002384F83C30012070BDFFF7A6FBEC
:103D6000801BA84201D8002DDED123685B6913F0C7
:103D70004003D9D12022236384F83D2084F83E30CB
:103D8000236C1343E4E7000070B5044608B9012032
:103D900070BD90F83D3003F0FF021BB980F83C2065
:103DA000FDF79EFF242384F83D3023681A6822F033
:103DB00001021A601A6842F400421A601A6822F47A
:103DC00000421A6000F0A8FE3F4B65689D4294BF18
:103DD0003E4B3F4B98428CBF00230123002BD6D192
:103DE0002268394E51683B4BB0FBF3F321F03F01A1
:103DF0001943B542516088BF4FF49676116A88BF67
:103E0000734321F03F0184BF4FF47A76B3FBF6F39E
:103E100001330B431362D169431E2B4821F44F41F8
:103E2000854221F0FF0132D86D0040F6FC70B3FBF3
:103E3000F5F30133034242D0C3F30B031943D161BD
:103E4000D4E907301168034321F0C0010B4313602C
:103E50009168D4E9030321F40341034321F0FF01F6
:103E60000B439360D4E90530D168034321F0FF018F
:103E70000B43D360136843F0010313600020202339
:103E8000206484F83D30206384F83E0080E7A06819
:103E900050B905EB4505B3FBF5F30133C3F30B0351
:103EA0007BB143F40043C9E719206843B3FBF0F347
:103EB0000133C3F30B0323B143F44043BEE70423B0
:103EC000BCE70123BAE700BFA08601007F841E0083
:103ED000FF083D0040420F002DE9F7430446994694
:103EE0000C9E0F469046FFF7E1FA94F83D30202BE8
:103EF000054603D0022003B0BDE8F08300903C49A2
:103F0000192301222046FFF759FD0028F2D194F829
:103F10003C30012BEED02068012384F83C3003684C
:103F2000D9075EBF036843F001030360036823F40D
:103F300000630360212384F83D30402384F83E3041
:103F4000002323640A9B6362BDF82C306385638D74
:103F50002385284BE3624246CDE900654B4639464E
:103F60002046FFF7D7FD00282AD00120C3E7FFF73E
:103F7000A7FD40B1236C042B01BF2268136843F4F2
:103F800000731360F1E7636A27681A4612F8011B91
:103F900039616262628D218D013A92B262857A69DD
:103FA000481E80B2520720850AD548B15A783A6136
:103FB00002336362638D013B02399BB221856385C5
:103FC000238D2A4631462046002BD0D1FFF77EFEB6
:103FD0000028CFD12268136843F4007313602023B4
:103FE00084F83D3084F83C0084F83E0083E700BF4D
:103FF000020010000000FFFF2DE9F043044687B0E7
:104000009946109F0D469046FFF750FA94F83D30C0
:10401000202B064604D00225284607B0BDE8F083D1
:1040200000907A49192301222046FFF7C7FC002897
:10403000F1D194F83C30012BEDD02068012384F8B5
:104040003C300368DB075EBF036843F00103036095
:10405000036823F400630360222384F83D30402387
:1040600084F83E30002323640E9B6362BDF83C302D
:104070006385638D2385664BE3622946CDE900762F
:104080004B4642462046FFF79FFD054608B10125F5
:10409000C2E7228D2368B2B902905A6902929A69E6
:1040A0000292029A1A6842F400721A60DFF8648180
:1040B000238D002B2CD1202284F83D2084F83C3025
:1040C00084F83E30A8E7012A0AD11A6822F48062F7
:1040D0001A6003905A6903929A690392039AE1E77E
:1040E000022A0ED11A6822F480621A601A6842F419
:1040F00000621A6004905A6904929B690493049BBD
:10410000D4E705905A6905929B690593059BCDE715
:10411000032B56D8012B15D1324639462046FFF7DE
:10412000FFFD0028B3D123681A69636A1A70636AB5
:1041300001336362238D013B2385638D013B9BB279
:104140006385B5E7022B00963B464FF000024146DF
:10415000204619D1FFF732FC002898D123681A684D
:1041600042F400721A601A69636A1A70626A531C18
:104170006362238D013B2385638D013B9BB2638585
:1041800023681B695370D2E7FFF718FC024600282A
:104190007FF47DAF2368196821F480611960196983
:1041A000636A1970636A01336362238D013B23855F
:1041B000638D013B9BB26385414600963B4620469A
:1041C000C8E7324639462046FFF7AAFD00287FF4AB
:1041D0005EAF23681A69636A1A70628D616A013A78
:1041E00092B24B1C628522686362238D5069013B49
:1041F0009BB2400723857FF55BAF032B02BF13689B
:1042000023F48063136013694B7090E70200100081
:104210000000FFFF0400010010B590F83D30202B96
:10422000DCB216D1242380F83D3003681A6822F0EE
:1042300001021A605A6A22F010025A625A6A114345
:1042400059621A6842F001021A6080F83D4000206D
:1042500010BD0220FCE730B590F83D30202BDCB2D9
:1042600016D10268242380F83D30136823F001033F
:104270001360556A4FF6F0732B400B439BB25362A9
:10428000136843F00103136080F83D40002030BD07
:104290000220FCE70068D1F800C0D2018432831804
:1042A0002DE9F043C6685D684C68D1F8189005F4B4
:1042B00070455D60C5680CF10107C5F30B45C6F399
:1042C0000B4626443D4445EA06455D60C668CD6818
:1042D000C6F30A062E449D6805F470459D60C768C4
:1042E0008D68C7F30A0701353D4445EA06459D60E0
:1042F0001D690E6925F007051D614FF0000E1E6156
:1043000091F832709D6991F83180C3F818E091F806
:10431000305045EA096545EA082545EA07459D61AB
:104320005D6925F0FF055D614D695D61DD6925F41D
:10433000E06525F00705DD61D1E907573D43DD6103
:104340009D6A4D6AC3F828E0072E9D629CBF0E4D02
:10435000AE5DDD6A05F0E025DD6288BF01268D6A6D
:10436000C96AA4EB0C0474437543033444EA05445E
:10437000DC621C6B6FF30A041C631963835843F0FF
:1043800001038350BDE8F0833032020838B504469B
:10439000002863D090F8A13003F0FF021BB980F829
:1043A000A020FDF7F9FC022384F8A13023689A6964
:1043B00022F070429A61D4E901200243E0689969D1
:1043C0000243206902430A439A619A68244960695A
:1043D0000A409A609A6842EA0042A06902439A60E1
:1043E000DA68E0690A40DA60DA6842EA0042206A84
:1043F0000243DA601A69606A0A401A611A6942EA7D
:104400000042A06A02431A615A690A405A615A6915
:10441000E16A42EA0142216B0A435A61DA6A94F87E
:10442000350094F8361002F07F42DA62DD6A94F8C3
:1044300034202A4342EA002242EA0142DA625A6BFD
:1044400042F006025A639A6942F001029A61002022
:104450000123C4F8A40084F8A13038BD0120FCE792
:1044600000F800F070477047036870B59E6B5D6B95
:104470007207044614D5690712D55A6B22F004025C
:104480005A630422DA63D0F8A43043F00103C0F881
:10449000A430002380F8A12080F8A030FFF7E2FFCD
:1044A000B20716D5AB0714D523685A6B22F0020267
:1044B0005A630222DA63D4F8A4301343C4F8A43058
:1044C000042384F8A130002384F8A0302046FFF7AD
:1044D000C9FFF00710D5E9070ED523685A6B22F003
:1044E00001025A630122DA63002384F8A12084F8D0
:1044F000A0302046FDF76EF8320711D52B070FD5F7
:1045000023685A6B22F008025A630822DA630123F7
:1045100084F8A130002384F8A0302046FFF7A3FFE1
:1045200070BD2DE9F04190F8A030012B06460F46F2
:1045300094464FF002001FD04FF0010886F8A0808B
:1045400086F8A10034240D4604FB02640FCD3834F4
:104550000FC40FCD0FC40FCD0FC42B68236030469E
:1045600062463946FFF796FE33680020C3F8248080
:1045700086F8A18086F8A000BDE8F08190F8A02020
:10458000012A03464FF0020012D01A6883F8A100F6
:10459000506B20F00100506306480164516B41F0FC
:1045A000010151630020012283F8A12083F8A000BB
:1045B000704700BF0068014037B500230193184BD6
:1045C000184D1A6C42F080521A641B6C03F0805331
:1045D0000193019B144B01221A64FEF767FF044606
:1045E0006B68DA030BD5104B0E4D01225A64FEF7AF
:1045F0005DFF04466B689B030AD5002006E0FEF7CA
:1046000055FF001BB0F57A7FEAD9032003B030BD17
:10461000FEF74CFF001BB0F57A7FEBD9F5E700BF42
:10462000003802400070004000000E422DE9F341C6
:10463000044640B30368DE0710D423689D075BD4AB
:104640002368190700F19D8023685A0700F1BD8097
:10465000A369002B40F0248100202CE08D4B9A6848
:1046600002F00C02042A07D09A6802F00C02082A11
:104670000BD15B68590208D5864B1B689A03DCD5C1
:104680006368002BD9D1012015E06368814DB3F533
:10469000803F13D12B6843F480332B60FEF706FF75
:1046A0007C4E054633689B03C7D4FEF7FFFE401BD4
:1046B0006428F7D9032002B0BDE8F081B3F5A02F3C
:1046C00004D12B6843F480232B60E3E72A6822F4AB
:1046D00080322A602A6822F480222A60002BDDD1F1
:1046E000FEF7E4FE06462B689F03A6D5FEF7DEFE26
:1046F000801B6428F7D9DDE7664B9A6812F00C0F2F
:1047000007D09A6802F00C02082A11D15B685D029A
:104710000ED4604A1368990702D5E368012BB2D121
:104720001368216923F0F80343EAC103136087E7A4
:10473000E268594BB2B101221A60FEF7B7FE554D3F
:1047400006462B689B0707D52B68226923F0F803E0
:1047500043EAC2032B6073E7FEF7A8FE801B022822
:10476000EFD9A7E71A60FEF7A1FE4A4E0546336867
:104770009F077FF565AFFEF799FE401B0228F6D92B
:1047800098E76269444B82B10122C3F8802EFEF79C
:104790008DFE404E0546736F9B073FF555AFFEF704
:1047A00085FE401B0228F6D984E7C3F8802EFEF769
:1047B0007DFE384E0546736F9F077FF545AFFEF7C8
:1047C00075FE401B0228F6D974E7324B1A6C12F0C2
:1047D000805228D101921A6C42F080521A641B6CEC
:1047E00003F080530193019B01272C4D2B68D805C2
:1047F0001BD5A368274D012B27D12B6F43F0010355
:104800002B67FEF753FE234E054641F28838336F7F
:104810009A0739D5002F3FF41BAF1E4A136C23F0C3
:104820008053136414E70027DFE72B6843F4807399
:104830002B60FEF73BFE06462B68D905D9D4FEF760
:1048400035FE801B0228F7D934E7052B04D12B6FE6
:1048500043F004032B67D0E72A6F22F001022A6796
:104860002A6F22F004022A67002BCAD1FEF71EFE2F
:1048700041F2883806462B6F9B07CBD5FEF716FE14
:10488000801B4045F7D915E7FEF710FE401B404559
:10489000BDD90FE7003802400000474200700040D9
:1048A000374DAA6802F00C02082A3ED0022B354B85
:1048B0004FF000021A662BD1FEF7F8FD06462B6872
:1048C00099011FD4D4E907321343626A43EA821381
:1048D000E26A43EA0263A26A5208013A43EA0243E7
:1048E0006B60284B264D01221A66FEF7DFFD044659
:1048F0002B689A013FF5B0AEFEF7D8FD001B0228E9
:10490000F6D9D7E6FEF7D2FD801B0228D7D9D1E62B
:10491000FEF7CCFD04462B689B017FF59DAEFEF7AC
:10492000C5FD001B0228F6D9C4E6012B3FF4ABAE4F
:104930006B68E26903F4800191427FF4A4AE216ABE
:1049400003F03F028A427FF49EAE616A47F6C0726E
:104950001A40B2EB811F7FF496AEA26A520803F4AC
:104960004031013AB1EB024F7FF48DAEE26A03F0C1
:104970007063B3EB026F14BF012000209BE600BF01
:104980000038024000004742134908B58B6803F025
:104990000C03042B1CD0082B1CD14A684B684968B7
:1049A00013F4800314BF0D480D48C1F3881118BFDC
:1049B000002302F03F02A1FB0001FBF7B9FC064B0C
:1049C0005B68C3F3014301335B00B0FBF3F008BD48
:1049D0000248FCE70248FAE70038024000127A0079
:1049E0000024F4002DE9F0410D46044610B90120E1
:1049F000BDE8F081434B1A6802F00F028A4228D3C7
:104A000021688F072DD4C80740D43E4B1A6802F0A6
:104A10000F02AA4265D8226851076BD4130707D545
:104A2000394A2169936823F4604343EAC1039360E0
:104A3000FFF7AAFF344B354A9B68C3F30313D35CDB
:104A4000D840334B1860334B1868FDF723FB002028
:104A5000CEE7CAB21A701B6803F00F038B42C6D1AF
:104A6000CEE7294B11F0040F1EBF9A6842F4E052C2
:104A70009A600E0742BF9A6842F460429A609A6850
:104A8000A06822F0F00202439A60BCE762681E4B05
:104A9000012A1CD11B6813F4003FA8D01A4EB3683A
:104AA00023F003031343B360FEF700FD41F288389F
:104AB0000746B368626803F00C03B3EB820FA4D01F
:104AC000FEF7F4FCC01B4045F3D9032090E7911E8C
:104AD00001291B6802D813F0007FDEE713F0020FF4
:104AE000DBE7EAB21A701B6803F00F03AB427FF4F6
:104AF0007EAF90E70449E0688B6823F4E0530343FA
:104B00008B608BE7003C02400038024020320208F4
:104B1000740000207C000020044B054A9B68C3F30E
:104B20008223D35C034A1068D840704700380240A3
:104B300018320208740000200F2303600B4B9A68A0
:104B400002F0030242609A6802F0F00282609A6802
:104B500002F4E052C2609B68DB0803F4E053036197
:104B6000034B1B6803F00F030B60704700380240D3
:104B7000003C0240036813F0430FF7B5044640F0D1
:104B80008880236813F00C0F45D08C4B8C4D00228D
:104B90001A67FEF78BFC06462B68990000F1CB8064
:104BA00021684A0715D5D4E90403D5F888201B06E7
:104BB00002F0E04243EA80131343C5F88830D5F889
:104BC0008C30226A23F4F853013A43EA0223C5F8F1
:104BD0008C300B0714D57A4AA369D2F88810206963
:104BE0001B0701F0706143EA80130B43C2F8883061
:104BF000D2F88C30616A23F440330B43C2F88C3016
:104C00006E4B6F4E01221A67FEF750FC0546336863
:104C10009F0040F197802368980634D500230193C4
:104C2000674B684D1A6C42F080521A641B6C03F09B
:104C300080530193019B2B6843F480732B60FEF734
:104C400035FC06462B68D80540F183805C4DA26A8E
:104C50002B6F13F4407340F08380A36A03F4407217
:104C6000B2F5407F564A40F09E80916823F0704034
:104C700021F4F81120F4407001439160116FC3F3E7
:104C80000B030B4313672368DB0600F190800020C1
:104C90004FE04A4B4A4E00229A66FEF707FC054653
:104CA00033681F013FD42168C80741BFD4E90123FD
:104CB0001B0743EA8213C6F884308A0715D5404A99
:104CC000E368D2F8840065681B0600F0E04043EA20
:104CD00085130343C2F88430D2F88C00E36920F0D6
:104CE0001F00013B0343C2F88C304B060AD5E36832
:104CF00062681B0643EA8213A26843EA0273304AE1
:104D0000C2F884302D4B2E4E01229A66FEF7CEFB60
:104D1000054633681F013FF534AFFEF7C7FB401B64
:104D20000228F6D904E0FEF7C1FB401B0228B7D9E0
:104D3000032003B0F0BDFEF7B9FB801B02287FF60D
:104D40002BAFF5E7FEF7B2FB401B02287FF65FAF03
:104D5000EEE7FEF7ABFB801B02287FF673AFE7E7B9
:104D600002F4407293423FF478AF2B6F134A012153
:104D7000C2F8401E23F440730021C2F8401E2B6786
:104D80002B6FD9077FF569AFFEF790FB41F28837AB
:104D900006462B6F9A073FF560AFFEF787FB801B37
:104DA000B842F6D9C4E7916821F4F81165E7064BDB
:104DB00094F82C20C3F8E02169E700BF00004742C7
:104DC00000380240007000400010474238B50D46E0
:104DD0000446C8B190F82C3003F0FF021BB980F8EC
:104DE0002D20FDF7EBF8022384F82C30211D2068DC
:104DF00000F00EFD62682068294600F03FFD0123A7
:104E000084F82C30002038BD0120FCE770B590F804
:104E10002C30022B05460E46D8B212D000F0FB040F
:104E2000012C0FD1022385F82C30286800F05CFD9E
:104E30003368022B06BF052385F82C3085F82C40FB
:104E4000002070BD0120FCE738B590F82C30022B13
:104E50000446D8B20DD094F82C30012BDDB209D124
:104E60000223206884F82C3000F062FD84F82C5076
:104E7000002038BD0120FCE72DE9F3471F46894695
:104E800090460446FEF712FB0A9D3D442D1AFEF79C
:104E90000DFB264B1E68C6F3CB366E438246019649
:104EA0002268936839EA03030CBF012300234345BA
:104EB00001D100202EE07B1CF3D0FEF7F7FAA0EB27
:104EC0000A00A84229D323685A6822F0E0025A60F7
:104ED0006268B2F5827F0AD1A268B2F5004F02D0B3
:104EE000B2F5806F03D11A6822F040021A60A26AFC
:104EF000B2F5005F07D11A6822F400521A601A68EE
:104F000042F400521A60012384F85130002384F8DF
:104F10005030032002B0BDE8F087019A019B002ABF
:104F200003F1FF33019308BF1546B9E77400002071
:104F3000F0B585B00B4600920E46174602210122BD
:104F40000446FFF799FF054628B1636D43F020033F
:104F50006365032515E0124B1868124BB0FBF3F0A4
:104F60004FF47A73584363680390B3F5827F0BD193
:104F7000009733462A4680212046FFF77DFF002810
:104F8000E3D1284605B0F0BD039B002BF9D0039B6D
:104F9000013B039323689B681B06F5D4F1E700BF30
:104FA0007400002000366E0137B50B464168B1F53C
:104FB000827F044608D0009201210022FFF75CFFA7
:104FC000D0B9002003B030BD8168B1F5004F02D0E8
:104FD000B1F5806F07D125682868B1F5806F20F0A2
:104FE0004000286004D00092802100222046E5E79E
:104FF000009201210022F9E7636D43F0200363650D
:105000000320DFE710B50446002855D0436A002B83
:105010004ED14268B2F5827F00D0C3610023A36203
:1050200094F8513003F0FF0223B984F85020204651
:10503000FCF78EFF2168A068A269022384F8513032
:105040000B6823F040030B60636800F4044003F432
:1050500082730343E06800F400600343206900F0BA
:1050600002000343606900F00100034302F4007092
:105070000343E06900F038000343206A00F0800039
:105080000343A06A00F4005003430B60636A120CF0
:1050900003F0100302F004021A434A60CB6923F4C0
:1050A0000063CB6100200123606584F8513010BD9E
:1050B0000023C0E90433B1E70120F8E72DE9F74305
:1050C00004461F460D469046FEF7F0F994F851301D
:1050D000012B8146D8B240F09F80002D74D0B8F1EA
:1050E000000F71D094F85030012B00F0958003230D
:1050F00084F8513000236365C4E91033A4F8368086
:10510000A363A387E387A368266884F85000B3F5F8
:10511000004F2563A4F8348007D1336823F040039F
:105120003360336843F4804333603368E2685B067E
:105130005EBF336843F040033360B2F5006F6368CD
:1051400045D113B1B8F1010F07D135F8023BF36037
:105150002563E38E013B9BB2E386E38E9BB2D3B91A
:105160004A4639462046FFF7E3FE002851D1A3689E
:1051700033B901932368DA6801929B680193019B1C
:10518000012384F85130606D0023C01A84F8503038
:1051900018BF012018E022689368980705D5236B93
:1051A00033F8021BD1602363D3E7FEF77FF9A0EB4E
:1051B0000900B842D1D3791CCFD0012384F85130F3
:1051C000002384F85030032003B0BDE8F08313B10E
:1051D000B8F1010F08D12B783373236B01332363AC
:1051E000E38E013B9BB2E386E38E9BB2002BB7D0EC
:1051F00023689A68920703D5226B12781A73ECE73A
:10520000FEF754F9A0EB0900B842EDD37B1CEBD0BC
:10521000D3E720236365AAE70220D5E72DE9F7430A
:1052200004460D4691461E46DDF82880FEF73EF9FD
:1052300094F851306268012B0746D9B20AD0B2F512
:10524000827F40F0E580A368002B40F0E1800429D4
:1052500040F0DE80002D4BD0B9F1000F48D0002E79
:1052600046D094F85030012B00F0D280012384F80E
:10527000503094F85130C4F83890042B1CBF0523EB
:1052800084F8513000236365C4E910332368E6874E
:10529000E6861968A687490658BF1968256358BF6E
:1052A00041F04001A68658BF1960E168B1F5006F72
:1052B00055D10AB1012E07D135F8022BDA60E38E01
:1052C0002563013B9BB2E3860125E38E9BB28BB93C
:1052D000E38F9BB273B93A4641462046FFF728FE5A
:1052E000002800F0818020236365002384F850307B
:1052F000012031E021688B689A070DD5E38E9BB2BF
:1053000053B145B1236B33F8022BCA602363E38E9C
:10531000013B9BB2E38600258A6812F001020CD0A3
:10532000E38F9BB24BB1A36BC96823F8021BA36345
:10533000E38F013B9BB2E3871546FEF7B7F8C01B2E
:105340004045C2D3B8F1FF3FBFD0012384F85130AC
:10535000002384F85030032003B0BDE8F0830AB185
:10536000012E08D12A781A73236B01332363E38E4D
:10537000013B9BB2E38601252DE0226893689B07E1
:105380000ED5E38E9BB25BB14DB1236B1B781373CB
:10539000236B01332363E38E013B9BB2E38600253D
:1053A0002268916811F001010DD0E38F9BB253B1D7
:1053B000A36BD2681A70A36B0133A363E38F013B25
:1053C0009BB2E3870D46FEF771F8C01B404502D340
:1053D000B8F1FF3FB9D1E38E9BB2002BCDD1E38F63
:1053E0009BB2002BC9D176E7A36833B90193236838
:1053F000DA6801929B680193019B012384F8513084
:10540000606D0023C01A84F8503018BF0120A3E754
:105410000220A1E72DE9F7431E4690F85130012BF9
:10542000044689461746DDB204D00225284603B05B
:10543000BDE8F0834368B3F5827F0BD183684BB935
:10544000042380F85130134600960A46FFF7E6FE23
:105450000546EBE7FEF72AF88046B9F1000FE5D0E4
:10546000002FE3D094F85030012BDED0A268C4F8AE
:1054700038900123002584F85030B2F5004F4FF0EA
:10548000040384F85130C4E9105565652368E78743
:10549000A7872563A586E58607D11A6822F0400212
:1054A0001A601A6822F480421A601A6855065EBFB4
:1054B0001A6842F040021A60E368F3B1E38F9BB2CE
:1054C000FBB123689A68D2073CD5DA68A36B23F84E
:1054D000022BA363E38F013B9BB2E387EEE72368D4
:1054E0009A68D0071ED5A26B1B7B1370A36B013388
:1054F000A363E38F013B9BB2E387E38F9BB2002B57
:10550000EDD1424631462046FFF74EFD18BB012340
:1055100084F85130656D0023ED1A84F8503018BFBF
:10552000012583E7FDF7C2FFA0EB0800B042E4D3FA
:10553000711CE2D0012384F85130002384F85030EC
:10554000032573E7FDF7B2FFA0EB0800B042B5D327
:10555000731CB3D0EEE720236365D8E770470000E3
:1055600090F83D30012B30D1022380F83D300368A4
:10557000DA6842F00102DA60154A93421AD0B3F1B8
:10558000804F17D0A2F57C42934213D002F580627F
:1055900093420FD002F5806293420BD002F578421D
:1055A000934207D002F57052934203D0A2F5943291
:1055B000934204D19A6802F00702062A03D01A68BF
:1055C00042F001021A60002070470120704700BFBE
:1055D000000001407047704770477047036870B51E
:1055E000DD681E69B10704460DD5AA070BD56FF01B
:1055F00002021A61012202779B699B0769D0FFF7BB
:10560000EAFF00232377710710D56A070ED52368B8
:105610006FF004021A61022222779B6913F4407F23
:1056200020465CD0FFF7D7FF0023237733070FD541
:1056300028070DD523686FF008021A61042222772B
:10564000DB699907204650D0FFF7C5FF0023237779
:10565000F20610D5EB060ED523686FF010021A6122
:1056600008222277DB6913F4407F204643D0FFF7FE
:10567000B2FF00232377F00708D5E90706D5236892
:105680006FF001021A612046FCF7C4FA320608D511
:105690002B0606D523686FF080021A61204600F0C1
:1056A000B6F8700608D5690606D523686FF0400283
:1056B0001A612046FFF791FFB20622D5AB0620D52E
:1056C00023686FF0200220461A61BDE8704000F0A8
:1056D0009DB8FFF77FFF2046FFF77EFF91E7FFF7BA
:1056E00079FF2046FFF778FF9EE7FFF773FF20461C
:1056F000FFF772FFAAE7FFF76DFF2046FFF76CFF89
:10570000B7E770BD294A0368904212D0B0F1804FCC
:105710000FD0A2F57C4290420BD002F580629042FD
:1057200007D002F58062904203D002F578429042A1
:1057300008D14A6823F070031343CA6823F4407306
:10574000134316E01A4A9042F7D002F58062904265
:10575000F3D002F580629042EFD0A2F598329042E9
:10576000EBD002F580629042E7D002F58062904271
:10577000E3D04A6923F08003134303608B68C3625C
:105780000B688362094B984203D003F5806398420B
:1057900001D10B690363012343610369DB0742BF46
:1057A000036923F001030361704700BF000001405B
:1057B0000040014010B5044630B390F83D3003F08E
:1057C000FF021BB980F83C20FFF7C8FE02232068C7
:1057D00084F83D30211DFFF795FF012384F8463002
:1057E000002084F83E3084F83F3084F8403084F85C
:1057F000413084F8423084F8433084F8443084F8EF
:10580000453084F83D3010BD0120FCE770477047FB
:105810002DE9F041D1E90738D1E9012CD1E903762E
:10582000D1E90554D1F824E0096843EA080381B9B5
:1058300043EA0E03134343EA0C033B43016833433B
:105840002B4323436FF30E010B4303600020BDE89D
:10585000F081016843EA0E0321F4F8410B43036031
:1058600042EA0C0341683B4333432B4321F4FF429C
:10587000234322F07F0213434360E7E7CB6803F141
:10588000FF3C4B69F0B54C688F680E698D690968FB
:10589000013B1B05013C013F013E013D24013F024C
:1058A00036042D06013943EA0C335AB90B4323431E
:1058B00082683B4333432B4302F0704213438360BF
:1058C0000020F0BD826822F4700222F4704213437B
:1058D000836044EA0703C2680B4333432B4302F05F
:1058E00070421343C360EBE770B504461546026986
:1058F000D1E900300343C8686FF3150243EA40233F
:1059000013438A68013A43EA42132361FDF7CEFD4F
:105910000646A06910F0200003D06B1CF9D00DB929
:10592000032070BDFDF7C2FD801BA842F1D9F7E747
:1059300043696FF34D0343EA41034361002070471D
:1059400008B54FF0E0231B6901F0F0FD012803D0FA
:10595000BDE8084000F0DEBB08BD0000EFF30583A2
:105960002BB9064B186828B901221A6070476FF0EE
:10597000050070474FF0FF30704700BFEC2E00204D
:1059800010B5EFF305845CB9084B1A68012A0AD1F7
:10599000074AD47702221A6001F046FB204610BD68
:1059A0006FF00500FBE74FF0FF30F8E7EC2E00202A
:1059B00000ED00E0F0B587B0144600220B460592DA
:1059C000EFF30582FAB9F0B154B3A56925B1691EA8
:1059D000372902D9002017E018256268D207F9D4C8
:1059E00066699EB1B208D4E9027C216887B1BCF136
:1059F0005F0F08D9246934B12EB1CDE90147009574
:105A000001F0ABFA0590059807B0F0BD8022EAE7F7
:105A1000BCF1000FF7D12469002CF4D10C4601E051
:105A20001825802205A9CDE9005192B2214601F046
:105A3000CCFA01281CBF00230593E4E708B5EFF377
:105A4000058222B908B101F04DFC002008BD6FF0BD
:105A50000500FBE7F7B504460E461546EFF3058251
:105A600042B938B1884205D355B1D5E902372BB1D7
:105A70004F2F22D80024204603B0F0BD002FF9D1CB
:105A8000012C0CD02046314600F07CFD0446002855
:105A9000F0D085B92946204601F09AF8EBE70322B9
:105AA0000021012000F025FD0EE01A4600F048FD1F
:105AB00004460028DED02D68ECE70128F5D103214B
:105AC0000091114600F0C7FC04460028D2D0002EF9
:105AD000DFD000231A46194600F072FD0128D8D005
