:020000040800F2
:10000000000003205D060008392100083B2100089C
:100010003D2100083F2100084121000800000000A8
:1000200000000000000000000000000051940008E3
:100030004321000800000000E1940008758D0008CD
:10004000AD060008AD060008AD060008AD060008C4
:10005000AD060008AD060008AD060008AD060008B4
:10006000AD060008AD060008AD060008AD060008A4
:10007000AD060008AD060008AD060008AD06000894
:10008000AD060008AD060008AD060008AD06000884
:10009000AD060008AD060008AD060008AD06000874
:1000A000AD060008AD060008AD060008AD06000864
:1000B000AD060008AD060008AD060008AD06000854
:1000C000AD060008AD060008AD060008AD06000844
:1000D000AD060008AD060008AD060008AD06000834
:1000E000AD060008AD060008AD060008AD06000824
:1000F000AD060008AD060008AD060008AD06000814
:10010000AD060008AD060008AD060008AD06000803
:10011000AD060008AD06000845210008AD06000840
:10012000AD060008AD060008AD060008AD060008E3
:10013000AD060008AD060008AD060008AD060008D3
:10014000AD060008AD060008AD060008AD060008C3
:10015000AD060008AD060008AD060008AD060008B3
:10016000AD060008AD060008AD060008AD060008A3
:10017000AD060008AD060008AD060008000000004E
:10018000AD060008AD060008AD060008AD06000883
:10019000AD060008AD060008AD060008AD06000873
:0C01A00051210008AD0600085D21000898
:1001B00010B5054C237833B9044B13B10448AFF3A1
:1001C00000800123237010BD800300200000000088
:1001D000F861020808B5034B1BB103490348AFF3AC
:1001E000008008BD0000000084030020F8610208C0
:1001F00001F0FF01102A2BDB10F0070F08D010F8D8
:10020000013B013A8B422DD010F0070F42B3F6D1DB
:10021000F0B441EA012141EA014122F007047FF0F4
:1002200000070023F0E80256083C85EA010586EA4B
:10023000010685FA47F5A3FA87F586FA47F6A5FA87
:1002400087F68EB9EED1F0BC01F0FF0102F0070293
:1002500032B110F8013B013A83EA010313B1F8D13E
:100260000020704701387047002D06BF354603381F
:10027000073815F0010F07D1013015F4807F02BF58
:10028000013015F4C03F0130F0BC0138704700BFA9
:100290007BB972B90029BEBF00204FF0004106E0D3
:1002A00008BF00281CBF6FF000414FF0FF3000F086
:1002B000D3B9ADF1080C6DE904CE002909DB002BA0
:1002C0001ADB00F04DF8DDF804E0DDE9022304B0AC
:1002D0007047404261EB4101002B1BDB00F040F80E
:1002E000DDF804E0DDE9022304B0404261EB4101A6
:1002F000524263EB43037047524263EB430300F007
:100300002FF8DDF804E0DDE9022304B0404261EBA0
:1003100041017047524263EB430300F021F8DDF8DE
:1003200004E0DDE9022304B0524263EB430370476B
:1003300053B94AB9002908BF00281CBF4FF0FF314C
:100340004FF0FF3000F088B9ADF1080C6DE904CE34
:1003500000F006F8DDF804E0DDE9022304B07047A0
:100360002DE9F047089D8E4604468846002B4AD169
:100370008A42174662D9B2FA82F64EB1C6F120031C
:1003800001FA06F820FA03F3B74043EA0808B4403C
:100390004FEA174E1FFA87FCB8FBFEF1230C0EFB49
:1003A000118843EA084301FB0CF29A4209D9FB1871
:1003B00001F1FF3080F0EA809A4240F2E780023992
:1003C0003B449A1AA3B2B2FBFEF00EFB102243EAA2
:1003D000024300FB0CFC9C4509D9FB1800F1FF32DD
:1003E00080F0D6809C4540F2D3803B44023840EAFE
:1003F0000140A3EB0C0300211DB1F3400022C5E92D
:100400000032BDE8F0878B4205D90DB1C5E9000186
:1004100000210846F5E7B3FA83F1002946D1734578
:1004200002D3824200F20581841A6EEB030201209E
:100430009046002DE5D0C5E90048E2E7002A00F02B
:100440009080B2FA82F6002E40F0A4808A1A030C43
:100450004FEA174E80B2BCB20121B2FBFEFC0EFB8C
:100460001C2243EA024304FB0CF29A4207D9FB1810
:100470000CF1FF3802D29A4200F2E080C4469B1A87
:10048000B3FBFEF20EFB123340EA034302FB04F41B
:100490009C4207D9FB1802F1FF3002D29C4200F2C5
:1004A000CA8002461B1B42EA0C40A5E7C1F12006A8
:1004B0008B4022FA06F71F430EFA01F420FA06F3E6
:1004C0002EFA06FE4FEA1749234300FA01F81FFAF5
:1004D00087FCBEFBF9F01C0C09FB10EE44EA0E444D
:1004E00000FB0CFEA64502FA01F209D93C1900F105
:1004F000FF3A80F09C80A64540F2998002383C4447
:10050000A4EB0E041FFA83FEB4FBF9F309FB1344BA
:100510004EEA044403FB0CFCA44508D93C1903F142
:10052000FF3E80F08280A4457FD9023B3C4443EAF1
:100530000040A4EB0C04A0FB02EC64457346E146CA
:1005400062D35FD05DB1B8EB030264EB090404FA37
:1005500006F622FA01F31E43CC40C5E900640021EF
:100560004FE7B1FBF2FC010C41EA0E4180B240EAD8
:1005700001423B4638463C46B846BE462026B1FBC3
:10058000F7F1A2EB080241EA0C4166E7014618E7E1
:1005900010462CE7C6F120022EFA02F3B740B14014
:1005A00020FA02F24FEA174E0A43B3FBFEF8BCB240
:1005B0000EFB1833110C41EA034108FB04F9B0406B
:1005C00089454FEA104380B23ED9791808F1FF3CC3
:1005D00001D289451FD8A1EB0901B1FBFEF909FB46
:1005E00004F80EFB191192B242EA0142424529D2A7
:1005F000BA1809F1FF31C4D24245C2D2A9F10201B1
:100600003A44BEE7F0459DD2BEEB02036CEB070C0B
:100610000138E14696E7A7EB09094944A8F1020C25
:10062000B1FBFEF909FB04F8DBE773467FE75046B0
:1006300066E70846FDE63B44023A33E7ACF1020CBC
:100640003B441CE749469CE7A1EB0901C446B1FBCA
:10065000FEF909FB04F8C4E7704700BFDFF834D0A7
:10066000002103E00C4B5B58435004310B480C4B0A
:1006700042189A42F6D30B4A02E0002342F8043BA8
:10068000094B9A42F9D306F0F7F825F047F801F044
:100690003BF8704700000320EC7B040800000020BA
:1006A0006401002080030020F84B0120FEE7704722
:1006B00008B500F0A5FDBDE8084000F027BD00F03A
:1006C000A1BD704710B50421044623F03BFE20462F
:1006D00010BD000038B50C4B0C4C18800C4B822020
:1006E00019806368984740F6110398420AD1094D72
:1006F00023682C60822098472B688220DB6898470B
:10070000002038BD0120FCE7A60300204C0000209B
:10071000A4030020A80300204FF4A071F020FFF7ED
:10072000D9BF0000F7B52F4D2B6804461B69822006
:1007300098472080002844D02B680DF106025B69A1
:1007400001A982209847BDF80620A2F5B47292B2A2
:100750000A2A38D90B23B2FBF3F2234B1B889A42A7
:1007600001D9013B9AB2BDF80430204840F6B831B7
:100770008B422AD8C3F571630E3301689BB20F25F3
:10078000B3FBF5F31A4D2D88AB4284BF05F1FF355D
:10079000ABB28B421D468EB220D99B1B99B2154E2F
:1007A0003768BBB2BA428CBFD31A9B1A9BB21944AA
:1007B0000529C8BF05600368C8BF3260638033681D
:1007C000A38003B0F0BD0022CDE7C3F56D6308330D
:1007D0009BB20E2B0168D2D800252B46C91A89B2CC
:1007E000DDE700BFA8030020A4030020A003002031
:1007F000A60300209C03002037B568460D4614462A
:10080000FFF790FFBDF8000030B1BDF802302B605B
:10081000BDF804302360012003B030BD032821D887
:10082000DFE800F0020B12190F4B1A68B2FA82F2DD
:10083000520904210D4806F0B3BA0B4B5A68B2FABC
:1008400082F252090821F5E7074B9A68B2FA82F260
:1008500052091021EEE7044BDA68B2FA82F252092B
:100860002021E7E7704700BFAC03002000100240E2
:10087000032821D8DFE800F0020B12190F4B1A6889
:10088000003A18BF012204210D4806F089BA0B4B2B
:100890005A68003A18BF01220821F5E7074B9A6809
:1008A000003A18BF01221021EEE7044BDA68003A43
:1008B00018BF01222021E7E7704700BFAC030020EA
:1008C0000010024003280DD8DFE800F00206080AF5
:1008D0000421054806F069BA0821FAE71021F8E773
:1008E0002021F6E7704700BF0010024008B503283A
:1008F00011D8DFE800F0020A0C0E0421074806F0C8
:1009000049FA431E5842584108BD0821F6E7102114
:10091000F4E72021F2E70020F3E700BF00100240D7
:1009200070B5084D00240126E0B2FFF7DFFF18B1D3
:100930002B68012B18BF2E600134052C05F104052E
:10094000F2D170BDAC030020012380F8781080F84C
:100950007930704700207047034B4164003918BF5D
:1009600001211970704700BFB73E01200020704779
:10097000836B0BB10846184770474FF6FF707047FE
:10098000406803689B6918477047704770470000CC
:1009900010B5044600F044FD23680349D3F88C30B9
:1009A0002046BDE810401847000000D008B5036895
:1009B0000446D3F880309847236820469B6F9847B9
:1009C00000F0ECF8236820461B6F9847292001F0BF
:1009D000D3F800F0E3F8236820461B6F9847F8E748
:1009E00010B504460BF0EEFA23682046D3F8AC307D
:1009F000BDE81040184700F0F7BC00F0FBBC00F069
:100A00002DBD00F0CDBC00F03DBD00F045BD00F0B7
:100A1000D1BC0AF043BD10B57C21044623F092FC02
:100A2000204610BD10B590F8341090F878400C4B6B
:100A30008C421A7809D03AB90A4A0B4914880888B6
:100A400010800C8001221A7010BD002AFCD0054ACB
:100A500005491488088810800C800022F3E700BF45
:100A6000B03E0120AC3E0120AE3E012070B50D46E7
:100A7000194635B9094B0A4A0A4840F2D22124F0F6
:100A80009DFBC0E90F52084B003A18BF01221A70B3
:100A90000368BDE87040D3F88C30184768620208DC
:100AA000A0620208EE620208B63E012008B5094BBA
:100AB0001B888B4203D8084B1B88934205D9074BF0
:100AC000074A08489E2124F079FB074B1980074B01
:100AD0001A8008BDAC3E0120AE3E012033630208FF
:100AE00096630208EE620208B23E0120B43E012085
:100AF000034690F87A0018B1586803681B681847D5
:100B000070470000012108B50022084608F0BCF932
:100B10000A4B186028B90A4B0A4A28210A4824F0CF
:100B20004DFB00220421012008F04DFA074B18600C
:100B300018B9074B034A2C21F0E708BDC003002079
:100B4000D96302082264020851640208BC03002031
:100B50008F640208024B4FF0FF31186808F0DEB9CD
:100B6000C0030020014B186808F004BAC00300203D
:100B7000024B0021186808F0D1B900BFC003002063
:100B8000FFF7F0BF03480449006800231A4608F045
:100B900055BA00BFBC0300200400002013B5084C68
:100BA00000231A4601A9206808F079FA20684FF05E
:100BB000FF33002201A908F072FA02B010BD00BF95
:100BC000BC03002003685B6C184701207047036872
:100BD0009B6A1847FEE740F2EF307047054B036011
:100BE000054B4FF08062C3F88820BFF34F8FBFF3EF
:100BF0006F8F70471874020800E100E010B50446DA
:100C00004FF45A61FFF7EAFF204623F09BFB204692
:100C100010BD000082B0002301930E4B1A6B42F40A
:100C200000021A631A6B02F400020192019A1A6917
:100C300042F400021A611A6922F400021A61064B9A
:100C4000064A1A61064A5A61064B4FF080629A6062
:100C500002B07047003802403C2F0020B50E00085B
:100C6000D50B000800E100E008B50A2809D8DFE844
:100C700000F006100E0808080810101010000220DE
:100C800008BD054B054A0648902124F097FA00203C
:100C9000F6E70120F4E700BFD1640208EC64020823
:100CA0003765020838B50C46887FFFF7DDFFA58A57
:100CB000E28A164B2169586342EA05425A64628B04
:100CC000D963521B1A642568082D0ED19A611A61E6
:100CD0005862207F0E4A42EA0062DA61E2681A62D4
:100CE0000C4A5961D9601A6038BD0022D8611A6176
:100CF000E1680A0A480902F4784200F4FC60024301
:100D0000C1F3C4010A439A63034AECE700B002400E
:100D100009000100012302000123030008B50B288C
:100D20000BD8DFE800F00612100A0A0A0A080808C1
:100D30000808022008BD0520FCE7054B054A0648C7
:100D40006F2124F03BFA0020F4E70120F2E700BF16
:100D5000D164020873650208376502082DE9F04185
:100D600091F81D800C464046FFF7D8FFA77F054647
:100D70003846FFF7D3FF06463846FFF775FFA18ACE
:100D8000628B444B521A1A649A61228B521A1A616E
:100D9000E28A586342EA01425A6421696268D9636F
:100DA000DA602068802828D0227F0FD8202867D0DA
:100DB000402865D004281AD0364B45EA026545F430
:100DC0000035B845DD6161D0334A44E0B0F5807F3D
:100DD00004D0B0F5007FEFD1304800E0304840EA61
:100DE0000262DA61E2681A625E62596132E045EAE3
:100DF000026242F40032DA61F6E7A068021DDA62AC
:100E0000227F45EA026545F40035DD615E62596185
:100E1000017841B1012921D0224B234A23484FF4C4
:100E20008D7124F0CBF9DA69418822F47F420139CF
:100E300022F0100242EA0122DA610121154BDA693F
:100E400042F02002DA61DA699206FCD410229A603C
:100E50000029B9D0164A1A60BDE8F081B2F1FF014D
:100E6000DA69408822F47F4200F1FF3022F010025C
:100E700042EA002242F0100218BF0121DA61DDE7E8
:100E800045EA0262034B42F40032B4E742F2013217
:100E9000E1E700BF00B002400123010009000200A9
:100EA0000A000200BD650208D7650208376502081E
:100EB00001230200024B1B68586803685B691847EE
:100EC000B83E012070B5044625460A4B0C3000267A
:100ED00060602672667245F8203B602229460BF05E
:100EE000C9F904F55A63EE6024359D42FBD12046D2
:100EF00070BD00BF18740208034B1A68D207FCD4F7
:100F000023229A60704700BF00B002407047000083
:100F100030B50F4C2568ED07FCD423250904A560E6
:100F200041F001010225FF2B65636164E0630AD093
:100F30000849656241EA0363E361074B226260612D
:100F4000E060236030BDE561039BA363034BF8E7DA
:100F500000B002400900010001000200010003008E
:100F600030B50E4C2568ED07FCD423251204A5608E
:100F700042F001020225FF2B65636264E063E160D9
:100F800008D01B0643F00213E361054B6562606104
:100F9000236030BD034BE3610123F9E700B0024059
:100FA00001000200020002FF30B50B4C2568ED077E
:100FB000FCD4232512041B06A56043F4003302254C
:100FC00042F0010265636264E063E160E361034B48
:100FD00065626061236030BD00B002400100020024
:100FE0000120704738207047382303FB0100083088
:100FF0007047382303FB0100083070470120704719
:1010000041F67C00704741F67C0303FB0100083089
:10101000704741F67C0303FB010008307047012054
:1010200070471020704700EB01100830704700EB4C
:10103000011008307047084602F016B810B5034B8F
:101040000360044609F07FFF204610BDD0740208FB
:1010500010B50446FFF7F2FF2046402123F072F955
:10106000204610BD10B5034B0360044609F06BFF2A
:10107000204610BD9C74020810B50446FFF7F2FF2D
:10108000204641F6840123F05DF9204610BD0000A2
:1010900010B5034B0360044609F055FF204610BD10
:1010A0006874020810B50446FFF7F2FF20461821C5
:1010B00023F048F9204610BD10B5094B03600446E3
:1010C00000F5C5501030FFF7B9FF04F12C00FFF711
:1010D000C9FF04F11400FFF7DBFF204610BD00BF7D
:1010E0000475020808B50248FFF7E6FF08BD00BF17
:1010F0009412002010B50446FFF7DEFF204641F6AB
:10110000502123F01FF9204610BD00002DE9F341C6
:1011100001F0AEF8054601F0AFF800240146234681
:1011200028462246009414F0B1F8274B274A1A604B
:10113000204604F0CDFD264D264B274A27489A60CD
:1011400014F00CF82B68BFF35B8FDB0735D428460F
:1011500023F0FAF888B3224C224B234F236004F18A
:10116000140000F5C75604F12C086060C4F808802C
:10117000E760266109F0E8FE1C4B6361404609F018
:10118000E3FE1B4BE362384609F0DEFE04F58053B4
:1011900003F50F60174AC3F8B02805F08DF8224612
:1011A000311F304604F0E6FE304601F05DFF124884
:1011B00024F022F8284623F0D3F8104802B0BDE806
:1011C000F041FFF7E5BB00BF1C3F012040040020B9
:1011D0009012002060040020440400200800002039
:1011E0009412002004750208442B00206874020841
:1011F0009C740208D0740208E5100008C4030020A3
:10120000704700000148FFF7D1BB00BFC4030020B6
:1012100070B5244E244C254D254B23603046FFF7F6
:1012200051FE284619F038F9224811F007FD224BEB
:101230002248DC6000224FF48071C3E91212204979
:101240001A86C3E91A121F4999671F4983F8582063
:101250000B60F02101801D485A6601801C4883F80C
:1012600070204FF4A071C3E90422C3E90622C3E948
:101270000822C3E90A22C3E90E22C3E91022C3E906
:101280001422C3E917225A67C3E901650180114896
:10129000018011490A70012283F834200F4A1A6034
:1012A00070BD00BFEC0400208C1200206004002000
:1012B0005862020844040020C4030020AC3E012010
:1012C0000100000100000101B83E0120B23E0120F2
:1012D000AE3E0120B43E0120B03E01204073020822
:1012E0000148FFF77BBC00BFEC04002000207047E2
:1012F00081807047C180704701817047418170478C
:101300007047704770477047704710B4C4880368CF
:10131000121B84885B6D091B12B25DF8044B09B285
:1013200018474FF6FF7383814FF0FF330362136852
:10133000C36110607047002070478B888380012054
:101340007047704780F82610704790F82600704765
:1013500010B50022B1F90840B1F90A1002804280AC
:101360008480C18010BD0022028042808280C280C1
:1013700070470177704780ED080A704780F82410A5
:10138000704780F8251070470120704798307047EB
:101390008C3070478430704770477047704700004A
:1013A000034B902283F85A2383F85823704700BFD9
:1013B00000E100E0094A0A49D3680A48C3F30A0376
:1013C000013B9BB20B801169C1F30A010139018015
:1013D0001364536B43F0010353637047006801408B
:1013E000E62C0020E42C0020014BD3F8AC00704721
:1013F00000680140024B0122C3F8AC105A627047EA
:101400000068014010B52C21044622F09BFF2046C5
:1014100010BD10B5BC21044622F094FF204610BD3B
:1014200070B504460AF08FF823685D6E10F0B2FACA
:1014300001462046A8472368054AD3F8885020462D
:10144000AC460023BDE87040A2F51631604700BFEE
:1014500000B004D00AF05EB80AF068B80AF024B808
:101460000AF085B990F8252012B103685B69184726
:10147000704790F825201AB190F8242002B1186026
:1014800070470000034B4FF080629A604FF080720B
:101490009A60704700E100E0084B4FF08062C3F8AB
:1014A0008820BFF34F8FBFF36F8F4FF08072C3F868
:1014B0008820BFF34F8FBFF36F8F704700E100E0CC
:1014C00070B50023124E8380124B0360336893F88B
:1014D000582005460AB1D86C00B998680368DB6AE1
:1014E00098473368B0FA80F4D86C640930B1036867
:1014F000DB6A9847002808BF44F001042CB9064B6A
:10150000064A07482C2123F059FE284670BD00BF2B
:10151000B83E0120187502081566020873660208B5
:10152000AC66020870B5244E3568BFF35B8F15F0CA
:1015300001053FD1304622F007FF00283AD01F4C6A
:101540001F4B256104F13400C4E90035C4E902559C
:10155000E584A562A58511F0D0FD04F158000CF0DA
:1015600057FF184BA3652046174B40F8843BFFF705
:10157000A7FF164BC4F884302433C4F88C3064239E
:10158000C4E928350023C4F8AC30C4F8B030C4F83E
:10159000B430C4F8B8300E480E4BC4F89050C4F8BC
:1015A0009C50C4F8A850C4F8983023F025FE30466B
:1015B00022F0D6FE014870BDE82C0020EC2C002063
:1015C000A07F020838750208B0750208547F02082F
:1015D0009D130008347F020810B5144C236823B310
:1015E000134B144A1B6C11888B4213D1124B198870
:1015F00006F0DEF9226892F86A30013382F86A3028
:10160000FFF7C0FA20680AF0DDFCBDE810400020BA
:10161000FFF704B906F0CCF9206803681B6A984705
:10162000BDE810400020FFF723B910BDB83E0120EF
:1016300000680140E62C0020E42C002007B5064B92
:10164000ADF806001B68054801220DF1060106F001
:101650004FFF03B05DF804FB0C000020E82D0020D4
:1016600008B5642007F004FCFBE7000030B595B036
:10167000102200210AA823F0A8FF1422002103A8A9
:1016800023F0A3FF00241E4B01941A6C42F08052F9
:101690001A641B6C03F080530193019B194B029455
:1016A0001A6842F440421A601B6803F440430293F4
:1016B0000122029B4FF48033CDE9082302254FF429
:1016C00080030821CDE90E534FF4B473CDE9101314
:1016D00008A804231393129506F0C2F906F086F9C0
:1016E0000F23CDE903354FF4A0504FF48053CDE9DB
:1016F0000603052103A8059406F08EFB15B030BD46
:10170000003802400070004080B59AB005F0C2F881
:10171000FFF7ACFF142200210DA8002423F055FF91
:10172000C04B00941A6BC048C04D42F010021A63BF
:101730001A6B02F010020092009A01941A6B42F0A8
:1017400020021A631A6B02F020020192019A02949D
:101750001A6B42F080021A631A6B02F08002029246
:10176000029A03941A6B42F004021A631A6B02F095
:1017700004020392039A04941A6B42F001021A6362
:101780001A6B02F001020492049A05941A6B42F05B
:1017900002021A631A6B02F002020592059A06947D
:1017A0001A6B42F040021A631A6B02F04002069272
:1017B000069A07941A6B42F008021A631B6B03F037
:1017C0000803079322463C21079B05F0E9FA984855
:1017D0002246042105F0E4FA224696484FF440518F
:1017E00005F0DEFA01264FF003083C238E48CDF8C1
:1017F00040800DA902274FF00409CDE90D360F9462
:1018000005F0E4F98A480F940DA9CDE90D961097DB
:1018100005F0DCF90DA94FF440538648CDE90D36AB
:10182000CDE90F4705F0D2F98348844B036005F0FA
:10183000C3F8834A834B2C62C5E9002328464FF442
:101840008043C5E90434C5E90244C5E9064405F00E
:10185000B5FC1021284605F0F9FE2146284605F082
:1018600014FF7948794984624FF48273C0E9001308
:101870004FF400751823C0E906530A23744DC36260
:10188000C0E90244C0E90444C0E9084406F0D4FDBC
:10189000704B0D974FF0100CC5E900364023C5E999
:1018A00004C34FF4C073C5E906344FF40063C5E9BF
:1018B00008344FF40053AB620DA907232846CDE945
:1018C0000E39CDE910384FF0080AC5E90249CDE9D3
:1018D000127706F095FC4FF6FF7209A92846CDE96C
:1018E0000AA6089409960C9406F0AAFC304604F067
:1018F000FDFF4FF6FF7209A92846CDE9097ACDE927
:101900000B6406F09DFC4FF6FF7209A92846CDE94D
:10191000098ACDE90B9406F093FC4FF40C730893FD
:10192000089B0C934FF6FF7209A92846CDE9099A46
:101930000B9606F085FC40F26A51284606F09EFCA4
:10194000342221460DEB020023F03FFE424D434B73
:101950002C61C5E900340923C5E905361D2340F291
:101960000D1EC5E9073840F24313C5E909E32846CF
:1019700040F2471340F21718C5E90B83C5E902444A
:10198000AC8685F8364005F01BFFFF21F022CDE93B
:1019900012144FF4806905214FF4A073CDE90E2491
:1019A000CDE91491CDE916420DA922462846CDE98C
:1019B00010372B4D18930D94ADF864408DF86640A8
:1019C00005F0C9FF274B2B601B6898472B68264DF5
:1019D000DB689847254B2846C5E90034C5E9027401
:1019E000C5E90A47C5E90C4404F0F6FF314628462C
:1019F00005F0A8F8FEF75CFEFEF759FE07F0C8F9FF
:101A00001B4A1C48214607F0EFF91B4B1B4A186084
:101A100021461B4807F0E8F91A4B186007F0CAF98D
:101A2000FEE700BF0038024000100240E82E002010
:101A300000080240000C02407C2F002000300240D1
:101A4000005C0040A0860100E82D0020005001400D
:101A5000B42D0020400100A0402E0020006801406D
:101A6000A82D0020140000203C2F002000B00240D0
:101A70001876020861160008B02D0020F4750208DF
:101A8000BF060008AC2D0020704770477FB5094B9A
:101A90008DF817201B6802930DF1170201230092A5
:101AA00001930A460146044805F030FC07B05DF892
:101AB00004FB00BF10000020E82E00207FB50023AB
:101AC0008DF81730084B1B6802930A4601230DF16D
:101AD0001701009101930146044805F0A7FC9DF809
:101AE000170007B05DF804FB10000020E82E00206E
:101AF0001FB5084C24680092CDE901340A46012341
:101B00000146054805F092FC003818BF012004B0DA
:101B100010BD00BF10000020E82E002004F0E6BE3B
:101B200010B5064C00222046042105F039F9204664
:101B30000122BDE81040042105F032B9000802403E
:101B400038B50B4D044601220A484FF4005105F008
:101B500027F900220421284605F022F92046FFF744
:101B60006DFD28460122BDE83840042105F018B972
:101B700000080240000C024038B50B4D044600221C
:101B80000A484FF4005105F00BF9002204212846C1
:101B900005F006F92046FFF751FD28460122BDE871
:101BA0003840042105F0FCB800080240000C024057
:101BB000F7B5144E144F05460C463046002204215A
:101BC00005F0EEF800224FF40051384605F0E8F831
:101BD0002846FFF733FD0D4B0D481B68224601A92F
:101BE00006F032FE384601224FF40051019C05F008
:101BF000D7F830460122042105F0D2F8204603B080
:101C0000F0BD00BF00080240000C02400C000020A4
:101C1000E82D002004F06ABE0268034B9A4201D10D
:101C200004F052BE704700BF001000407047000033
:101C300082B00E4B00220092596C41F480415964ED
:101C4000596C01F48041009100990192196C41F0A6
:101C5000805119641B6C03F080530193019B0F2189
:101C60006FF0010002B004F067BE00BF0038024010
:101C70000268094B9A4282B00BD100230193074BB3
:101C80001A6B42F480521A631B6B03F48053019366
:101C9000019B02B0704700BF003002400038024094
:101CA00007B50F4B02689A4216D10022A3F5F04304
:101CB0000192196B41F4000119631B6B03F40003DB
:101CC000019305215A20019B04F036FE5A2003B0EF
:101CD0005DF804EB04F062BE03B05DF804FB00BFE6
:101CE00000B002402DE9F043044689B014220021DF
:101CF00003A823F06AFC2268244B9A4243D1244C67
:101D0000244800250095236B43F004032363236BD1
:101D100003F004030093009B0195236B43F0010340
:101D20002363236B03F001030193019B4FF012091E
:101D30004FF400734FF001080327042603A9CDE9EF
:101D40000339CDE90587079604F040FF4FF480730F
:101D50001148079603A9CDE90339CDE9058704F0B9
:101D600035FF0295236C43F400032364236C03F4D2
:101D700000030293029B236A43F400032362236A55
:101D800023F40003236209B0BDE8F083005C004047
:101D9000003802400008024000000240F0B599B04F
:101DA00004461422002107A823F00FFC30220DEB7B
:101DB0000200002123F009FC22685E4B9A4240F0A9
:101DC000B78008230C93C0231093042312930CA80C
:101DD0004FF40033159306F0E7F808B1FFF726FF3C
:101DE000554B5648002400945A6C42F080625A6465
:101DF0005A6C02F080620092009A01941A6B42F0D1
:101E000020021A631A6B02F020020192019A0294D6
:101E10001A6B42F001021A631A6B02F0010202927D
:101E2000029A03941A6B42F002021A631A6B02F0D0
:101E300002020392039A04941A6B42F040021A635E
:101E40001A6B02F040020492049A05941A6B42F055
:101E500004021A631A6B02F004020592059A0694B2
:101E60001A6B42F008021A631B6B03F00803069317
:101E700002250E26069B0B964FF4806307A9CDE939
:101E80000735CDE9094504F0A1FE41F658032C4879
:101E90000B9607A9CDE907350927CDE9094504F0D7
:101EA00095FE032327480B9707A9CDE90735CDE910
:101EB000094504F08BFE4FF4706322480B9607A986
:101EC000CDE90735CDE9094504F080FE4FF40C63F8
:101ED0001D480B9607A9CDE90735CDE9094504F062
:101EE00075FEC02319480B9607A9CDE90735CDE942
:101EF000094504F06BFE082315480B9607A9CDE9A8
:101F00000735CDE9094504F061FE4FF4A0530E48B2
:101F10000B9707A9CDE90735CDE9094504F056FE31
:101F200058202246052104F007FD582004F036FD14
:101F300019B0F0BD006801400038024000140240B2
:101F40000000024000040240001802400008024065
:101F5000000C024010B5044688B01422002103A8EA
:101F600023F033FB2268144B9A4223D103F56843D4
:101F7000002101915A6C114842F480125A645A6C43
:101F800002F480120192019A02911A6B42F020022F
:101F90001A631B6B03F020030293029B4FF46072E1
:101FA00002230321CDE903230523CDE9061303A969
:101FB00004F00CFE08B010BD0050014000140240B7
:101FC0002DE9F04186B0002303932B4B1C68002CB5
:101FD0004FD14FF00108C3F80080284B00949A6B52
:101FE000274842EA08029A639B6B03EA08030093BE
:101FF000022703260C25009B01A94FF63F03CDE9DC
:102000000137CDE9046504F0E1FD1E48059501A9FD
:10201000CDE90187CDE9034604F0D8FD48F233133A
:102020001948059501A9CDE90137CDE9034604F02A
:10203000CDFD4FF683731548059501A9CDE901370C
:10204000CDE9034604F0C2FD4CF203731048059538
:1020500001A9CDE90137CDE9034604F0B7FD6023BE
:102060000C48059501A9CDE90137CDE9034604F0F7
:10207000ADFD06B0BDE8F081842F0020003802409D
:102080000014024000080240001802400010024004
:10209000000C02400004024070B588B00023029397
:1020A000204B1A6C42F010021A641B6C03F01003F0
:1020B0000293054601A903A8029B05F057FF069B62
:1020C0004BBB05F043FF184E184B336040F2E7332B
:1020D000F360174BB0FBF3F3013B73603046002312
:1020E0003361B360B36106F07FFD044680B93046CA
:1020F00006F050FC044658B9362004F04FFC0F2D72
:102100000DD822462946362004F016FC094B1D60E6
:10211000204608B070BD05F019FF4000D3E7012448
:10212000F6E700BF00380240882F00200010004072
:1021300040420F007C0000207047FEE7FEE7FEE70C
:10214000FEE77047014806F063BC00BF882F0020FF
:10215000014805F0A3BB00BF402E0020014804F059
:1021600067BC00BF3C2F00200120704708B523F05A
:10217000CFFA162303604FF0FF3008BD08B523F0F7
:10218000C7FA16230360FEE770B50D4614460E46E7
:10219000731B9C4201DC204670BDAFF3008006F843
:1021A000010BF5E770B50D4614460E46731B9C42B5
:1021B00001DC204670BD16F8010BAFF30080F5E797
:1021C0004FF0FF3070474FF400534B6000207047D2
:1021D00001207047002070470A4A116808B503467D
:1021E00009B9094911601068694603448B4206D950
:1021F00023F08EFA0C2303604FF0FF3008BD13600C
:10220000FCE700BFD02F0020F84B0120704708B535
:102210000C2924D8DFE801F0070B0F13171F1F1F2D
:102220001F1B1F1F1F0003F09FFD006808BD03F068
:102230009BFD4068FAE703F097FD8068F6E703F03E
:1022400093FDC068F2E703F08FFD0069EEE703F04D
:102250008BFD8069EAE703F087FD4069E6E700202F
:10226000E4E710B50421044622F06CF8204610BDC6
:1022700000487047507602080520704713B50024C7
:1022800051B1036801948DF8034001AA9C680DF1D7
:102290000303A04702B010BD0846FBE7C0897047A2
:1022A000008A7047C088704780887047807A00F045
:1022B0007F007047807AC009704700207047000097
:1022C0009FED010A704700BF000000007047704793
:1022D000704770477047704730B5036885B06D46EA
:1022E0000181D3F88430014604462846984795E892
:1022F00007003C3484E8070005B030BD30B5036802
:1023000085B06D464181D3F88430014604462846A5
:10231000984795E807003C3484E8070005B030BDD5
:102320000022028042808280C280704780F836108E
:10233000704770B5036804461B6B154698472368C1
:10234000294620465B6EBDE8704018470020704764
:10235000806C704770477047704710B5082104467D
:1023600021F0F0FF204610BD10B54C21044621F0AD
:10237000E9FF204610BD10B52C21044621F0E2FFF4
:10238000204610BD0B898A89D21A4B89C988591AEF
:1023900012B209B210F01EBC10B5034B0360044624
:1023A0000DF0FEFD204610BDC477020810B5064BA7
:1023B000036004460DF0F4FD204641F2B85121F0CF
:1023C000C1FF204610BD00BFC477020808B590F8D1
:1023D00026300BB1FFF746F808BD08B5FFF742F805
:1023E00008BD0000036870B55E6B124B1B680446A5
:1023F0008DB22BB9104B114A6C21114822F0DEFE30
:102400001049828D0988914203D80F4B0B4A6D21E8
:10241000F3E713F812200D4B1B6853F822000368F2
:102420001B6B9847291A3346204609B2BDE8704015
:10243000184700BF103F01202367020865670208A4
:10244000A0670208143F0120E7670208183F012037
:1024500010B500F58054D4F8B4350133B42BC4F86A
:10246000B43506D10FF096FA00F04EFE0023C4F802
:10247000B43510BD00224FF0FF31C0E90021826069
:10248000704770B5036804461B6B15469847236870
:10249000294620465B6BBDE87040184770B504467E
:1024A0001D46BDF91060FFF7ECFF23682946204662
:1024B0009B6B9847236831462046DB6BBDE8704034
:1024C00018470000094A02604FF48071002281849D
:1024D000FF21C0E90122C0E90322C0E90522C0E9C9
:1024E000072280F826108262704700BF248202080B
:1024F0004FF4807181840D4901600D4981624FF66E
:10250000FF7181854FF47F01002241634FF0FF315D
:10251000C0E90122C0E90322C0E90522C0E907227F
:10252000C0E9101202630287C263704794810208F7
:10253000BC7602082DE9F04F044691B027464FF0D3
:10254000000B11F01DF9D44BC4F83CB047F8403BE8
:1025500004F16C063846FFF7B5FF04F198083046E1
:10256000FFF7B0FF4046FFF7ADFF04F1C403184684
:102570000593FFF7A7FF04F1F003184606930BF04D
:1025800039FA04F59C7318460993FEF799FFC34B7B
:10259000C4F838312433C4F8403104F5A673184622
:1025A000C4F844B1BE4D08934FF00109FFF78AFF0C
:1025B00004F5BC7304F5D27A1846C4F84C5184F87B
:1025C00070910793FFF77EFFC4F8785184F89C91CF
:1025D0005046FFF78DFF04F5F67318460293FFF798
:1025E00087FF04F50D731846AE4D0393FFF780FF88
:1025F00004F52073C4F834521846C4F87CB204932E
:10260000FFF776FF04F58053C4F88052C4F8C8B2CF
:10261000F025C3F8B4B54FF4965104F53D700DF0B4
:10262000B5FC5A46384600954FF4A073594604F15C
:102630000409FFF733FF4FF07F433946A36648464E
:1026400008F096FC4FF0FF374FF4A0735A4630461F
:1026500000955946FFF722FF3146C4F8947048466A
:1026600008F086FC0222EC231146404600934FF40A
:102670009F73FFF713FF8C4BC4F8C03041464846A8
:1026800008F076FC5A46059800950323A021FFF731
:1026900005FFDC234FF00E080599C4F8EC7084F8B0
:1026A000EA30484608F064FC434672220698CDF8AA
:1026B00000809B21FFF7F2FEC023C4F824314FF4C1
:1026C0003453C4F82C31794BC4F8443149F66103D2
:1026D000A4F84831099B0699C4F81831C4E9475554
:1026E00048462825C4F830B1C4F828B108F040FCA9
:1026F00005236422089800950821FFF7CFFE08996A
:10270000C4F87471484608F033FC05236422079826
:1027100000954FF49A71FFF7C1FE0799C4F8A071B4
:10272000484608F025FC34236D445F225046009350
:1027300074211323FFF7B2FE5146C4F8D471284622
:10274000A4F8D8B10BF062FF95E8070004F5F07625
:1027500086E807004FF00302514684F8DD21284641
:102760000BF054FF95E807004FF0010386E80700DF
:1027700084F8DC31514628460BF048FF95E8070005
:1027800086E8070050464A4EADF83C800EA90E96EA
:102790000CF0E4F96FF0410184F8DA114846514633
:1027A00008F0E6FB342013235F220090BB2102983F
:1027B000DFF818A1FFF772FE0299C4F81C722846D0
:1027C000A4F820B20BF022FF95E8070004F50A7880
:1027D00088E807004FF00302029984F82522284672
:1027E00017460BF013FF95E8070088E807000299E9
:1027F00084F8247228460BF009FF95E8070088E862
:1028000007000EAA0B2311460298ADF83C300E9635
:102810000CF0A4F96FF0410184F8221248460299A5
:1028200008F0A6FB702203983521FFF72AFE214B02
:10283000C4F86432D4F834320399D3F88430A4F85D
:1028400068B22846984795E8070004F51C774FF0D2
:10285000010387E8070084F86C32D4F83432039916
:10286000D3F884302846984795E80700DAF8003016
:1028700087E8070004F533772BB90F4B0F4A602127
:102880000F4822F09BFC0F4B1B88022B20D80E4BCD
:102890000A4A6121F4E700BFC4770208547F0208A6
:1028A0005C770208CC76020837380CFF0C0C99FFD5
:1028B000BC7602085FABDEFF2367020825680208CA
:1028C000A0670208143F0120E7670208103F0120BB
:1028D000DFF8F0800221D8F8000003F035FA364A1C
:1028E00003460A21384612F02BFC0398C4F87C7288
:1028F0000CF014F9D2270D230398ADF83C300EA943
:102900000E960CF02BF9039984F86A72484608F089
:102910002FFB6F220498F321FFF7B3FD274BC4F878
:10292000B032D4F880320499D3F88430A4F8B4B229
:102930002846984795E8070004F52F7B4FF00303DE
:102940008BE8070084F8B832D4F880320499D3F8C1
:1029500084302846984795E80700DAF800308BE87D
:10296000070004F53875002B87D0154B1B88022B08
:102970008DD9D8F80000022103F0E6F90E4A03468B
:102980000A21284612F0DCFB0498C4F8C8520CF067
:10299000C5F80C230498ADF83C300EA90E960CF047
:1029A000DDF84846049984F8B67208F0E1FA20464A
:1029B00011B0BDE8F08F00BF706802085FABDEFFAA
:1029C000143F01201C3F01207047000010B5034B4D
:1029D000036004460DF0E4FA204610BDF8770208C3
:1029E00010B5064B036004460DF0DAFA204641F2BA
:1029F0008C5121F0A7FC204610BD00BFF8770208DB
:102A00002DE9F04F044691B0A346002610F0B8FE21
:102A1000DA4BE6634BF8403B04F16C0A5846FFF78B
:102A200051FD04F198085046FFF74CFD4046FFF772
:102A300049FD04F1C40318460593FFF743FD04F173
:102A4000F003184606930AF0D5FF04F59C73184668
:102A50000993FEF735FDCA4BC4F838312433C4F866
:102A6000403104F5A673C4F844611846C54D089377
:102A70004FF00107FFF726FD04F5BC7304F5D2798A
:102A8000C4F84C5184F8707118460793FFF71AFD8B
:102A9000C4F8785184F89C714846FFF729FDBA4D77
:102AA000C4F8A45104F5F873C4F8EC611846049313
:102AB000FFF71EFD04F50F73C4F8F051C4F8386237
:102AC00018460293FFF714FD04F521731846F0250C
:102AD0000393FFF70DFD04F533704FF496510DF09D
:102AE00055FA32460095314658464FF4A073271DDB
:102AF000FFF7D4FC4FF07F43A3665946384608F0F1
:102B000037FA4FF0FF3B324600954FF4A073314641
:102B10005046FFF7C3FC51463846C4F894B008F05D
:102B200027FA0222EC231146009340464FF49E738D
:102B3000FFF7B4FC954BC4F8C0304146384608F066
:102B400017FA3246059800950323A021FFF7A6FC4B
:102B5000DC23059984F8EA303846C4F8ECB008F074
:102B600007FA0E230698009372229A21FFF796FC2B
:102B7000C023C4F824314FF43453C4F82C31844BAF
:102B8000C4F8443149F66103A4F84831099B069919
:102B9000C4F83061C4E94755C4F82861C4F8183155
:102BA0003846282508F0E4F90898009505236422A2
:102BB0000821FFF773FC0899C4F874B1384608F08F
:102BC000D7F9052307980095642240F23311FFF7E7
:102BD00065FC0799C4F8A0B1384608F0C9F9142279
:102BE0004846BE21FFF74DFC6A4BC4F8D431D4F8F7
:102BF000A431A4F8D8616D4449462846D3F88430FE
:102C0000984795E80700D4F8A43104F5F0784FF020
:102C1000030A88E80700D3F8843084F8DCA1494629
:102C20002846984795E807001A2388E80700DFF848
:102C30006881ADF83C300EA94846CDF838800BF0DD
:102C40008DFF4946384608F093F90498C8227D2143
:102C5000FFF717FC4F4BC4F82032D4F8F031049939
:102C6000A4F824622846D3F88430984795E80700F2
:102C700004F50B794FF0010389E8070084F8283246
:102C8000D4F8F0310499D3F884302846984795E871
:102C90000700192389E807000498ADF83C300EA915
:102CA000CDF838800BF05AFF0499384608F060F9E7
:102CB0003422029800921323B4228C21FFF7EEFBFA
:102CC0000299A4F870622846C4F86CB20BF09EFC1E
:102CD00095E8070004F51E794FF0010389E8070025
:102CE000029984F8743228460BF090FC95E80700AE
:102CF000182389E807000298ADF83C300EA94FF080
:102D0000BE09CDF838800BF029FF029984F8729241
:102D1000384608F02DF93423039800930522132335
:102D2000A521FFF7BBFB0399A4F8B8622846C4F8B5
:102D3000B4B20BF06BFC95E8070004F5307686E83A
:102D40000700039984F8BCA228460BF05FFC95E8C5
:102D50000700172386E807000398ADF83C300EA95A
:102D6000CDF838800BF0FAFE3846039984F8BA9211
:102D700008F0FEF8204611B0BDE8F08FF8770208A1
:102D8000547F02085C770208CC76020837380CFFC3
:102D90000C0C99FF565659FFBC760208F8B5194B32
:102DA000018F1B888B4206462AD9174B1B682BB90B
:102DB000164B174A17486C2122F000FA13F811201D
:102DC000154B1B6853F82250144B186802F0BCFFD7
:102DD0002B6807469B6B284698472B6804469B6CDC
:102DE0003946284698472B6814FB00F45B6A39463D
:102DF00028469847A4B223181BB2A6F84630F8BD5F
:102E00000023FAE7143F0120103F01202367020846
:102E100065670208A0670208183F01201C3F0120D7
:102E20007047704700F598730868496803C3704796
:102E3000704770474160704710B50022B1F90840F3
:102E4000B1F90A10028042808480C18010BD7047B1
:102E500070477047064BC0F84C310023C0F8503122
:102E600000F5A273C0F84801C0F84031704700BFB8
:102E7000353500080123037270477047704770476B
:102E800001464068036810315B6E18470146406890
:102E9000036810311B6E1847704710B4C268416850
:102EA0005410034601EB6200D20748BF0A599B68E1
:102EB0005DF8044B48BFD35818470346406830B10B
:102EC0009A681AB9D86800F001007047012070476D
:102ED00010B50C21044621F035FA204610BD10B57E
:102EE0001021044621F02EFA204610BD10B54FF4F3
:102EF000AE71044621F026FA204610BD10B53821E7
:102F0000044621F01FFA204610BD10B528210446C2
:102F100021F018FA204610BD10B50EF03BFD0368F5
:102F2000BDE81040DB6B184737B50446807A637AFA
:102F30000130C0B29842A07205D901232372002348
:102F4000A37203B030BDB4F90C20002110F0CAFD0B
:102F5000C30707D500284FF6FF73C8BF012313FA34
:102F600080F000B2144BE0811988258B83B213489E
:102F7000B0F90000ADF80600CA1A60682B445B1A6D
:102F800012B2ADF8043003682283ADF800200022AD
:102F90001B69ADF8022069469847A37A012BD0D16E
:102FA000074B1B78002BCCD00EF0F4FC03B0BDE82F
:102FB00030400EF0F5BC00BFAC3E0120AE3E01201B
:102FC000B63E012010B50446D0F8400158B1036860
:102FD000DB68984738B1D4F8400103689B6898478C
:102FE0000023C4F8403110BD044B1B6893F85820EF
:102FF0000AB1D86C00B99868704700BFB83E01208C
:10300000F8B5174604460E460EF0AEFD124B1C6096
:10301000124B2360124B0025C4E95135114BC4E912
:1030200053551868036829469B68C4E94F55C4E99D
:1030300055769847284602F04BFEFFF7D5FF19F06A
:103040007EF8FFF7D1FF19F0F5F8FFF7CDFF19F083
:10305000FDF82046F8BD00BF0C3F0120AC78020807
:1030600094780208B83E0120064BC0F84C3100238A
:10307000C0F8503100F5A273C0F84801C0F84031E3
:10308000704700BF35350008064BC0F84C310023AF
:10309000C0F8503100F5A273C0F84801C0F84031C3
:1030A000704700BFE9330008064BC0F84C310023DD
:1030B000C0F8503100F5A273C0F84801C0F84031A3
:1030C000704700BF65390008064BC0F84C3100233B
:1030D000C0F8503100F5A273C0F84801C0F8403183
:1030E000704700BF9D320008064BC0F84C310023EA
:1030F000C0F8503100F5A273C0F84801C0F8403163
:10310000704700BF29380008064BC0F84C31002337
:10311000C0F8503100F5A273C0F84801C0F8403142
:10312000704700BF51310008064BC0F84C310023F6
:10313000C0F8503100F5A273C0F84801C0F8403122
:10314000704700BFED36000803685B6A184700004F
:103150002DE9F14FD0E9556A0746B06803681B6A4C
:10316000984741F28B53984205D8444B444AA321D7
:10317000444822F023F8706803681B6A98470F28B8
:1031800003D8414B3E4AA421F2E7F06803681B6A6A
:1031900098470B2803D83D4B394AA521E8E70EF0A4
:1031A000F9FBDFF8F09004300EF041FCD9F8000094
:1031B00010B10368DB689847D9F8000010B10368C4
:1031C0001B689847DFF8D080D8F8000010B103687A
:1031D0005B699847D7F83C0110B103685B68984772
:1031E000D8F8000010B103681B689847D7F83C0175
:1031F00010B103689B689847F0680021FFF7A4FFAF
:103200004FF0000B224BC0F804B0044680F808B021
:103210000360B068036859465B6A9847054602F048
:1032200089FE7068036859465B6A984729460646D6
:1032300002F05EFE331DC7F83C61C9F80040C8F8D3
:103240000050CAF800302B68C6F808A02846DB6892
:10325000EE639847336830461B68984721462846F6
:1032600010F03AFC236820461B69984723685B6985
:10327000204601B0BDE8F04F184700BF7368020850
:1032800001690208D9690208206A0208C36A0208B3
:1032900000790208003F0120FC3E01202DE9F14F9A
:1032A000D0E9556A0746B06803681B6A984741F23F
:1032B000F353984205D8444B444AA321444821F093
:1032C0007DFF706803681B6A98470F2803D8414B3D
:1032D0003E4AA421F2E7F06803681B6A98470B286E
:1032E00003D83D4B394AA521E8E70EF053FBDFF840
:1032F000F09004300EF09BFBD9F8000010B1036889
:10330000DB689847D9F8000010B103681B6898473C
:10331000DFF8D080D8F8000010B103685B699847E7
:10332000D7F83C0110B103685B689847D8F80000F3
:1033300010B103681B689847D7F83C0110B10368C7
:103340009B689847F0680021FFF7FEFE4FF0000BE6
:10335000224BC0F804B0044680F808B00360B0689F
:10336000036859465B6A9847054602F099FF706802
:10337000036859465B6A98472946064602F06EFF85
:10338000331DC7F83C61C9F80040C8F80050CAF8BE
:1033900000302B68C6F808A02846DB68EE63984723
:1033A000336830461B6898472146284610F094FB46
:1033B000236820461B69984723685B69204601B053
:1033C000BDE8F04F184700BF73680208666B02083B
:1033D000D9690208206A0208C36A02080079020853
:1033E000003F0120FC3E01202DE9F14FD0E9556A54
:1033F0000746B06803681B6A984741F2CF6398425A
:1034000005D8444B444AA321444821F0D7FE7068B4
:1034100003681B6A98470F2803D8414B3E4AA421F2
:10342000F2E7F06803681B6A98470B2803D83D4B06
:10343000394AA521E8E70EF0ADFADFF8F090043044
:103440000EF0F5FAD9F8000010B10368DB68984770
:10345000D9F8000010B103681B689847DFF8D080E6
:10346000D8F8000010B103685B699847D7F83C01B1
:1034700010B103685B689847D8F8000010B1036882
:103480001B689847D7F83C0110B103689B689847C0
:10349000F0680021FFF758FE4FF0000B224BC0F8F8
:1034A00004B0044680F808B00360B0680368594669
:1034B0005B6A9847054602F027FE70680368594624
:1034C0005B6A98472946064602F0FCFD331DC7F8A3
:1034D0003C61C9F80040C8F80050CAF800302B68B9
:1034E000C6F808A02846DB68EE6398473368304684
:1034F0001B6898472146284610F0EEFA23682046BC
:103500001B69984723685B69204601B0BDE8F04F0E
:10351000184700BF73680208426C0208D9690208A4
:10352000206A0208C36A020800790208003F0120ED
:10353000FC3E01202DE9F14FD0E9556A0746B068FD
:1035400003681B6A984741F67B03984205D8444BB1
:10355000444AA321444821F031FE706803681B6A85
:1035600098470F2803D8414B3E4AA421F2E7F06860
:1035700003681B6A98470B2803D83D4B394AA5219D
:10358000E8E70EF007FADFF8F09004300EF04FFA9B
:10359000D9F8000010B10368DB689847D9F800003B
:1035A00010B103681B689847DFF8D080D8F8000096
:1035B00010B103685B699847D7F83C0110B1036804
:1035C0005B689847D8F8000010B103681B689847FB
:1035D000D7F83C0110B103689B689847F068002158
:1035E000FFF7B2FD4FF0000B224BC0F804B00446C9
:1035F00080F808B00360B068036859465B6A984772
:10360000054602F08DFE7068036859465B6A98476C
:103610002946064602F062FE331DC7F83C61C9F830
:103620000040C8F80050CAF800302B68C6F808A05F
:103630002846DB68EE639847336830461B68984736
:103640002146284610F048FA236820461B6998470F
:1036500023685B69204601B0BDE8F04F184700BF02
:10366000736802081A6D0208D9690208206A020804
:10367000C36A020800790208003F0120FC3E0120D5
:1036800003685B6A18470000002370B5C0E9053382
:10369000C0E90733C0E90933C0E90B334360037263
:1036A0008372C3814FF4807343630C4B03610C4BF3
:1036B0004172B3F900100B4B0B4AB3F90060026082
:1036C00000F11005044681812846FDF715FE2846C5
:1036D0003146FDF713FE204670BD00BF2C7802086E
:1036E000AC3E0120AE3E0120247902082DE9F047CE
:1036F000D0E9556A0746B06803681B6A984741F2EB
:10370000BB53984205D8414B414AA321414821F07F
:1037100055FD706803681B6A98470F2803D83E4B15
:103720003B4AA421F2E7F06803681B6A98473728F0
:1037300003D83A4B364AA521E8E70EF02BF9DFF81B
:10374000E09004300EF073F9D9F8000010B103686E
:10375000DB689847D9F8000010B103681B689847E8
:10376000DFF8C080D8F8000010B103685B699847A3
:10377000D7F83C0110B103685B689847D8F800009F
:1037800010B103681B689847D7F83C0110B1036873
:103790009B689847F0680021FFF772FF14210446E8
:1037A000FFF772FFB068036800215B6A984705461F
:1037B00002F044FB7068036800215B6A9847294661
:1037C000064602F005FB331DC7F83C61C9F800400E
:1037D000C8F80050CAF800302B68C6F808A0284680
:1037E000DB68EE639847336830461B68984721468C
:1037F000284610F071F9236820461B699847236812
:1038000020465B69BDE8F047184700BF73680208AF
:10381000F46D0208D9690208206A0208C36A020826
:10382000003F0120FC3E01202DE9F047D0E9556A18
:103830000746B06803681B6A984741F223639842C1
:1038400005D8414B414AA321414821F0B7FC70689B
:1038500003681B6A98470F2803D83E4B3B4AA421B4
:10386000F2E7F06803681B6A9847372803D83A4B99
:10387000364AA521E8E70EF08DF8DFF8E090043035
:103880000EF0D5F8D9F8000010B10368DB6898474E
:10389000D9F8000010B103681B689847DFF8C080B2
:1038A000D8F8000010B103685B699847D7F83C016D
:1038B00010B103685B689847D8F8000010B103683E
:1038C0001B689847D7F83C0110B103689B6898477C
:1038D000F0680021FFF7D4FE14210446FFF7D4FE60
:1038E000B068036800215B6A9847054602F05CFCFB
:1038F0007068036800215B6A98472946064602F013
:103900001DFC331DC7F83C61C9F80040C8F80050E1
:10391000CAF800302B68C6F808A02846DB68EE63BA
:103920009847336830461B6898472146284610F070
:10393000D3F8236820461B699847236820465B69B3
:10394000BDE8F047184700BF73680208E86E020838
:10395000D9690208206A0208C36A0208003F0120F0
:10396000FC3E01202DE9F047D0E9556A0746B068D2
:1039700003681B6A9847B0F5B85F05D2404B414ACF
:10398000A321414821F01AFC706803681B6A98471C
:103990000F2803D83D4B3B4AA421F2E7F0680368A7
:1039A0001B6A9847372803D8394B364AA521E8E7E0
:1039B0000DF0F0FFDFF8DC9004300EF038F8D9F8A5
:1039C000000010B10368DB689847D9F8000010B117
:1039D00003681B689847DFF8C080D8F8000010B172
:1039E00003685B699847D7F83C0110B103685B68CE
:1039F0009847D8F8000010B103681B689847D7F8BB
:103A00003C0110B103689B689847F0680021FFF7FC
:103A100037FE14210446FFF737FEB0680368002123
:103A20005B6A9847054602F0F3FA70680368002164
:103A30005B6A98472946064602F0B4FA331DC7F878
:103A40003C61C9F80040C8F80050CAF800302B6843
:103A5000C6F808A02846DB68EE639847336830460E
:103A60001B6898472146284610F036F82368204600
:103A70001B699847236820465B69BDE8F0471847F3
:103A800073680208E06F0208D9690208206A020818
:103A9000C36A0208003F0120FC3E0120406A7047D3
:103AA000806A704770478B88C0690A68DB0A50F8E3
:103AB00023001044704710B50446BAB1107B68B1BA
:103AC000537BD27A1B0203F4E0631A43236A03EBAD
:103AD00082031A888A4202D193F9020010BD05D8E8
:103AE000013880B204330028F3D1F7E70020F5E76E
:103AF00010B52C21044620F025FC204610BD000006
:103B000030B58BB00446BDF860500895BDF85C50E8
:103B100007959DF8505006959DF84C5005959DF8D9
:103B2000485004959DF8445003959DF840500295E7
:103B30009DF83C500195BDF8385000950FF09AFB68
:103B4000064B2360159BE361169B2362199B6362FE
:103B50001A9BA36220460BB030BD00BF4879020813
:103B60007047000010B5034B036004460CF018FAD0
:103B7000204610BD187A020810B5064B03600446B3
:103B80000CF00EFA204641F2FC6120F0DBFB2046EF
:103B900010BD00BF187A020810B500F58054D4F8A3
:103BA000F8360133B42BC4F8F83606D10DF0F2FE26
:103BB000FFF76AFA0023C4F8F83610BD0022C0E906
:103BC0000122C0E90322C0E90522C0E907224FF41F
:103BD00080728284014A0260704700BFB079020897
:103BE00038B5262204460D46002121F0EEFC204681
:103BF000FFF7E4FF064B23602B88E384FF23204676
:103C000084F8283029460BF0C3F9204638BD00BFA0
:103C1000F48202082DE9F04F044699B0A046002630
:103C20000FF0AEFDDE4BE66348F8403B04F16C0B51
:103C30004046FEF747FC4FF6FF7516A95846ADF80B
:103C40005850FFF7CDFF04F1980304F1C40918465A
:103C50000A93FEF737FC4846FEF734FC04F1F00304
:103C600018460B93FEF72EFC04F58E7318460C9342
:103C700009F0C0FE04F5B27318461193FDF720FC5D
:103C8000C84BC4F864312433C4F86C3104F5BC73F8
:103C90001846C4F87061C44F10934FF0010AFEF744
:103CA00011FC04F5D2731846C4F8787184F89CA10D
:103CB0000F93FEF707FC84F8C8A104F5E87AC4F86E
:103CC000A4715046FEF714FC04F5067318460493DD
:103CD000FEF70EFC04F518731846B44F0E93FEF76A
:103CE000F1FB04F52573C4F860721846C4F88C62C1
:103CF000A4F890620D93FEF7E5FB04F53273C4F867
:103D000094721846C4F8C062A4F8C462A84F039322
:103D1000FEF7EEFB04F54573C4F8C87216A9184601
:103D2000C4F810630693ADF85850FFF759FF04F537
:103D3000507316A918460793ADF85850FFF750FF77
:103D400004F55B7316A918460893ADF85850FFF7B1
:103D500047FF04F5667318460593FEF7C9FB04F5A3
:103D60007973C4F8987316A91846C4F8E0630993E8
:103D7000ADF85850FFF734FF04F58053F025C3F831
:103D8000F8664FF4965104F587600CF0FFF8324660
:103D9000404600954FF4A0733146271DFEF77EFB89
:103DA0004FF07F43A3664146384607F0E1F8584696
:103DB00032463821FEF765FB4FF00402584616A93B
:103DC000ADF858200BF0E4F8594638464FF0FF3B69
:103DD00007F0CEF84FF4A07332460A9800953146AA
:103DE000FEF75CFB0A99C4F8C0B0384607F0C0F88B
:103DF0000222EC231146484600934FF49E73FEF7CF
:103E00004DFB6C4BC4F8EC304946384607F0B0F82F
:103E100032460B9800950323A021FEF73FFBDC23DD
:103E20000B9984F816313846C4F818B107F0A0F899
:103E30000E2372220C9800939A21FEF72FFBC023C9
:103E4000C4F850314FF43453C4F858315A4BC4F8C5
:103E5000703149F66103A4F87431119B0C99C4F8D0
:103E60004431C4E9525538461425C4F85C61C4F89D
:103E7000546107F07DF805236E22109800951A21F1
:103E8000FEF70CFB1099C4F8A0B1384607F070F8A3
:103E900005236E220F9800954FF49071FEF7FEFAFD
:103EA0000F99C4F8CCB1384607F062F84FF03408E7
:103EB0005E2212AD114613235046CDF80080FEF766
:103EC000EDFA51462846C4F800B2A4F804620AF09C
:103ED0009DFB95E8070004F503794FF0010389E89D
:103EE0000700514684F8083228460AF08FFB95E80F
:103EF0000700324B169389E80700062350464FF01F
:103F0000BE0916A9ADF85C300AF028FE514684F8C7
:103F10000692384607F02CF813235D220498CDF85A
:103F20000080CC21FEF7BAFA0499C4F848B22846BA
:103F3000A4F84C620AF06AFB95E8070004F5157ACC
:103F40004FF003088AE80700049984F85082284655
:103F50000AF05CFB95E80700184B16938AE8070007
:103F600005230498ADF85C3016A90AF0F7FD4FF070
:103F7000780A049984F84E92384606F0F9FF3D22FB
:103F80000E98CDF800A00F230221FEF787FA4FF01C
:103F90003C090B4B0E99C4F88C3284F8869211E0E0
:103FA000187A0208547F02085C7702088C820208A3
:103FB000CC76020837380CFF0C0C99FFBC7602084F
:103FC0003493ADFF3846C4F888B2A4F8908206F066
:103FD000CFFF4A460D98CDF800A00F234FF49771FC
:103FE000FEF75CFA794BC4F8C0320D9984F8BA92A6
:103FF0003846C4F8BCB2A4F8C48206F0B9FF6F22F8
:1040000003982E21FEF73DFA714BC4F8F832D4F82C
:10401000C8320399D3F88430A4F8FC622846984744
:1040200095E8070004F541794FF0010389E807009E
:1040300084F80033D4F8C8320399D3F88430284682
:10404000984795E80700634B1B6889E8070004F56B
:1040500082692BB9604B614A6021614821F0AEF85A
:10406000604B1B88012B03D85F4B5C4A6121F4E74E
:10407000DFF880A10121DAF8000001F065FE5B4A5B
:1040800003460A21484611F05BF80398C4F81093E0
:104090000AF044FD4FF0D209554B039816934FF0A8
:1040A000040216A9ADF85C200AF058FD039984F8C3
:1040B000FE92384606F05CFFE62206983821FEF7AD
:1040C000E0F90698ADF8588016A90AF061FF069944
:1040D000384606F04DFFE5220798DF21FEF7D1F9BB
:1040E0000798ADF8588016A90AF052FF079938468C
:1040F00006F03EFF089832463821FEF7C2F94FF02D
:1041000004020898ADF8582016A90AF041FF089952
:10411000384606F02DFF05986F22F521FEF7B1F91C
:10412000D4F898332A4AD3F884300599C4F8C823C0
:104130002846A4F8CC63984795E8070004F5757302
:1041400083E80700234A84F8D0831368C4F8DC634B
:10415000C4E9F56B04F22445002B3FF47BAF214A00
:104160001388012B80D9DAF80000012101F0ECFD61
:104170001E4A03460A21284610F0E2FF0598C4F8BB
:10418000E0530AF0CBFC1A4B0598169316A9ADF82C
:104190005C800AF0E3FC059984F8CE93384606F07B
:1041A000E7FE09980222DF21FEF76BF94FF00402C7
:1041B0000998ADF8582016A90AF0EAFE3846099980
:1041C00006F0D6FE204619B0BDE8F08F3493ADFF5F
:1041D0005FABDEFF103F012023670208256802085D
:1041E000A0670208143F0120E76702087068020810
:1041F000BC7602081C3F01207047000010B5034B3D
:10420000036004460BF0CCFE204610BD4C7A020839
:1042100010B5064B036004460BF0C2FE204641F287
:10422000D06120F08FF8204610BD00BF4C7A020804
:104230002DE9F04F044699B0A04600260FF0A0FAF1
:10424000DE4BE66348F8403B04F16C094046FEF75C
:1042500039F94FF6FF7516A904F1980A4846ADF8EA
:104260005850FFF7BDFC5046FEF72CF904F1C4038B
:1042700018460A93FEF726F904F1F00318460B934B
:10428000FEF720F904F58E7318460C9309F0B2FB83
:1042900004F5B27318461193FDF712F9C84BC4F830
:1042A00064312433C4F86C3104F5BC73C4F8706114
:1042B0001846C44F10934FF0010BFEF703F904F5B5
:1042C000D273C4F8787184F89CB118460F93FEF746
:1042D000F9F804F5E873C4F8A47184F8C8B1BA4FCA
:1042E000059304F5077B1846FEF702F9C4F8D07170
:1042F000C4F818625846FEF7FBF804F51A73C4F8C0
:104300001C72C4F8646218460393FEF7F1F804F5D2
:104310002C7318460493FEF7EBF804F53E73184629
:10432000AA4F0E93FEF7CEF804F54B73C4F8F8725B
:10433000C4F82463A4F8286318460D93FEF7C2F866
:1043400004F55873C4F82C7316A9C4F85863A4F87C
:104350005C6318460693ADF85850FFF741FC04F52E
:10436000637316A918460793ADF85850FFF738FC49
:1043700004F56E7316A918460893ADF85850FFF768
:104380002FFC04F5797316A918460993ADF8585017
:10439000FFF726FCF02504F582604FF496510BF0F0
:1043A000F5FD32460095314640464FF4A073271D77
:1043B000FEF774F84FF07F43A3664146384606F097
:1043C000D7FD324648463821FEF75BF84FF004022D
:1043D00016A94846ADF858200AF0DAFD4946384695
:1043E0004FF0FF3806F0C4FD324600954FF4A0733D
:1043F00031465046FEF752F851463846C4F8C08060
:1044000006F0B6FD0222EC2311460A9800934FF401
:104410009E73FEF743F86E4B0A99C4F8EC303846A9
:1044200006F0A6FD32460B9800950323A021FEF767
:1044300035F8DC230B9984F816313846C4F8188116
:1044400006F096FD0E230C98009372229A21FEF737
:1044500025F8C023C4F850314FF43453C4F8583110
:104460005C4BC4F8703149F66103A4F87431119BB8
:104470000C99C4F84431C4E9525538461425C4F89F
:104480005C61C4F8546106F073FD10980095052333
:104490006E221D21FEF702F81099C4F8A08138465B
:1044A00006F066FD05230F9800956E2240F21F115D
:1044B000FDF7F4FF0F99C4F8CC81384606F058FD9B
:1044C0002A460598DFF810A1BE21FDF7DAFFD4F8DF
:1044D000D0310599C4F800A212AD2846D3F8843033
:1044E000A4F80462984795E8070004F50379D4F826
:1044F000D03189E807004FF0030184F808122846FC
:104500000599D3F88430984795E8070089E80700B3
:1045100016A8DFF8C890CDF85890122301460598E8
:10452000ADF85C300AF01AFB0599384606F020FD1C
:10453000C82258467D21FDF7A4FFD4F81C32C4F8E8
:104540004CA259462846D3F88430A4F850629847C4
:1045500095E8070004F5167A4FF001038AE8070092
:1045600084F85432D4F81C3259462846D3F88430A3
:10457000984795E807008AE8070016A81123014626
:104580005846ADF85C30CDF858900AF0E7FA594635
:1045900038464FF0340B06F0EBFC0398CDF800B032
:1045A0001323B4228C21FDF779FF0399C4F8988274
:1045B0002846A4F89C620AF029F811E04C7A020817
:1045C000547F02085C770208CC7602088C820208CD
:1045D00037380CFF0C0C99FF565659FFBC76020871
:1045E00095E8070004F5297A4FF001038AE80700EF
:1045F000039984F8A03228460AF008F895E80700E5
:104600001023ADF85C3016AB8AE807001946039812
:10461000CDF858904FF0BE0A0AF0A0FA039984F83A
:104620009EA2384606F0A4FC13230498CDF800B0EF
:104630000522A521FDF732FF0499C4F8E08228463F
:10464000A4F8E46209F0E2FF95E8070004F53B7B7B
:104650008BE807004FF0030184F8E812284604991C
:1046600009F0D4FF95E807008BE807004FF00F0B27
:104670000498CDF8589016A94FF07809ADF85CB0C1
:104680000AF06CFA049984F8E6A2384606F070FC49
:104690000E98CDF800905B463D220221FDF7FEFE0C
:1046A0004FF03C0A334D0E99C4F824534FF00303E6
:1046B000A4F828333846C4F8208384F81EA306F0F3
:1046C00057FC52460D98CDF800905B4640F22F11F2
:1046D000FDF7E4FE4FF00303A4F85C33C4E9D5858D
:1046E0000D9984F852A338461D4606F041FCE62297
:1046F00006983821FDF7C5FE0698ADF8585016A962
:104700000AF046FC0699384606F032FCE522079886
:10471000DF21FDF7B6FE0798ADF8585016A90AF04C
:1047200037FC0799384606F023FC324608983821B2
:10473000FDF7A7FE4FF004050898ADF8585016A9EC
:104740000AF026FC0899384606F012FC0222099865
:10475000DF21FDF796FE0998ADF8585016A90AF02A
:1047600017FC3846099906F003FC204619B0BDE84D
:10477000F08F00BF3493ADFF7047000010B5034BBE
:10478000036004460BF00CFC204610BD807A020842
:1047900010B5064B036004460BF002FC20464FF4B4
:1047A000B1511FF0CFFD204610BD00BF807A020836
:1047B00010B500F58054D4F81C360133B42BC4F87E
:1047C0001C3606D10DF0E6F8FEF77EFC0023C4F897
:1047D0001C3610BD2DE9F04F044695B0A1460026C9
:1047E0000EF0CEFFD74BE66349F8403B4846FDF755
:1047F00069FE04F16C0304F1980A18460693FDF76C
:1048000061FE5046FDF75EFE04F1C40318460793AF
:10481000FDF758FE04F1F0031846089309F0EAF892
:1048200004F59C7318460D93FCF74AFEC64BC4F87A
:1048300038312433C4F8403104F5A6731846C4F85F
:104840004461C24D0C934FF00107FDF73BFE04F5A8
:10485000BC7304F5D2781846C4F84C5184F87071D2
:104860000B93FDF72FFEC4F8785184F89C714046F5
:10487000FDF73EFE04F5F67318460393FDF738FE88
:1048800004F50D731846B24D0493FDF731FE04F59F
:104890002073C4F834521846C4F87C62AD4F0A93B2
:1048A000FDF710FE04F52D73C4F880721846C4F8A5
:1048B000AC62A4F8B0620993FDF704FE04F53A7304
:1048C000C4F8B4721846C4F8E062A4F8E462059330
:1048D000FDF70EFE04F58053C4F8E852C4F83063C7
:1048E000F025C3F81C664FF4965104F557700BF091
:1048F0004DFB3246484600954FF4A0733146271DC4
:10490000FDF7CCFD4FF07F434946A366384606F0DD
:104910002FFB4FF0FF3B4FF4A073324606980095F3
:104920003146FDF7BBFD0699C4F894B0384606F051
:104930001FFB0222EC231146504600934FF49F7355
:10494000FDF7ACFD844BC4F8C0305146384606F044
:104950000FFB3246079800950323A021FDF79EFD2B
:10496000DC23079984F8EA303846C4F8ECB006F046
:10497000FFFA0E237222089800939B21FDF78EFD0B
:10498000C023C4F824314FF43453C4F82C31734B92
:10499000C4F8443149F66103A4F848310D9B0899E5
:1049A000C4F81831C4E9475538462825C4F83061A1
:1049B000C4F8286106F0DCFA052365220C980095FE
:1049C0001321FDF76BFD0C99C4F874B1384606F05D
:1049D000CFFA052364220B9800954FF49571FDF7EB
:1049E0005DFD0B99C4F8A0B1384606F0C1FA342336
:1049F0000EAD5F224046009374211323FDF74EFD58
:104A000041462846C4F8D4B1A4F8D86109F0FEFDA7
:104A100095E8070004F5F0794FF0030A89E80700EC
:104A20004146284684F8DDA109F0F0FD95E807002D
:104A30004FF0010389E80700414684F8DC3128463D
:104A400009F0E4FD95E80700454B129389E807005B
:104A50004FF00A02404612A94FF0BE09ADF84C20B3
:104A60000AF07CF84146384684F8DA9106F080FA7C
:104A70003422132303980092BB215F22FDF70EFD21
:104A80000399C4F81CB22846A4F8206209F0BEFDC0
:104A900095E8070004F50A7888E80700039984F888
:104AA00025A2284609F0B2FD95E8070088E807002E
:104AB000039984F824A2284609F0A8FD95E8070088
:104AC000274B129388E8070009230398ADF84C3070
:104AD00012A90AF043F8039984F82292384606F0A6
:104AE00047FA712204983521FDF7CBFC1D4BC4F821
:104AF0006432D4F834320499D3F88430A4F868626C
:104B00002846984795E8070004F51C784FF0010304
:104B100088E8070084F86C32D4F834320499D3F86A
:104B200084302846984795E807000F4B1B6888E8B3
:104B3000070004F54D78FBB90C4B0D4A60210D4878
:104B400020F03CFB807A0208547F02085C77020860
:104B5000CC7602088C82020837380CFF0C0C99FFC7
:104B6000BC7602085FABDEFF103F0120236702081E
:104B700025680208A0670208534B1B881BB9534BDA
:104B8000534A6121DBE7534B3146186801F0DCF8EA
:104B9000514A03460A21404610F0D2FA0498C4F85C
:104BA0007C8209F0BBFF4FF0D2084C4A0498129265
:104BB000082312A9ADF84C3009F0D0FF049984F80D
:104BC0006A82384606F0D4F978210A233C220A98F2
:104BD00000914FF49B71FDF761FC4FF03C09404997
:104BE000C4F8AC1284F8A6920A99C4F8A8B2384660
:104BF000A4F8B0A206F0BCF978200A233D22009068
:104C000002210998FDF74AFC3549C4F8E01284F8FE
:104C1000DA920999C4F8DCB23846A4F8E4A206F0A6
:104C2000A7F96F220598F321FDF72BFCD4F8E832A1
:104C30002C49D3F88430C4F8181328460599A4F8F1
:104C40001C63984795E80700D4F8E83204F54979E1
:104C500089E80700D3F88430059984F820A3284612
:104C6000984795E8070089E807001F490B6804F595
:104C70005275002B3FF460AF13490B88002B3FF4B3
:104C80007EAF144B3146186801F05EF8124A0346B5
:104C90000A21284610F054FA0598C4F8305309F058
:104CA0003DFF0E4A05981292072312A9ADF84C3029
:104CB00009F054FF3846059984F81E8306F058F928
:104CC000204615B0BDE8F08F143F0120E7670208C9
:104CD000256802081C3F012070680208BC760208A3
:104CE0003493ADFF5FABDEFF103F01207047000043
:104CF00010B5034B036004460BF052F9204610BD7B
:104D0000B47A020810B5064B036004460BF048F96C
:104D1000204641F2F4511FF015FB204610BD00BFA4
:104D2000B47A02082DE9F04F044693B0A34600265A
:104D30000EF026FDDF4BE6634BF8403B04F16C0AB6
:104D40005846FDF7BFFB04F198095046FDF7BAFB42
:104D500004F1C4084846FDF7B5FB4046FDF7B2FB39
:104D600004F1F0031846069308F044FE04F59C7322
:104D700018460B93FCF7A4FBCF4BC4F8383124330F
:104D8000C4F8403104F5A673C4F844611846CB4D0D
:104D90000A934FF00107FDF795FB04F5BC73C4F8C7
:104DA0004C5184F8707118460993FDF78BFB04F59C
:104DB000D273C4F8785184F89C711846C04D04939E
:104DC000FDF796FB04F5F873C4F8A451C4F8EC6140
:104DD00018460593FDF78CFB04F50F73C4F8F051EA
:104DE000C4F8386218460293FDF782FB04F521737C
:104DF00018460393FDF77CFB04F533731846B14D59
:104E00000893FDF75FFB04F54073C4F8CC52C4F877
:104E1000F862A4F8FC6218460793FDF753FBC4F848
:104E20000053C4F82C63F025A4F8306304F54D70EA
:104E30004FF496510BF0AAF8324600953146584689
:104E40004FF4A073271DFDF729FB4FF07F43A366A6
:104E5000594638464FF0FF3B06F08AF83246009537
:104E60004FF4A07331465046FDF718FB51463846C3
:104E7000C4F894B006F07CF80222EC2311460093AB
:104E800048464FF49E73FDF709FB8F4BC4F8C030C2
:104E90004946384606F06CF83246009540460323F2
:104EA000A021FDF7FBFADC2384F8EA3041463846BE
:104EB000C4F8ECB006F05CF80E230698009372225A
:104EC0009A21FDF7EBFAC023C4F824314FF4345390
:104ED000C4F82C317D4BC4F8443149F66103A4F881
:104EE00048310B9B0699C4F83061C4E94755C4F8B2
:104EF0002861C4F818313846282506F039F80A9890
:104F00000095052365221321FDF7C8FA0A99C4F814
:104F100074B1384606F02CF80523099800956522EF
:104F20004FF49471FDF7BAFA0999C4F8A0B1384664
:104F300006F01EF80498DFF898A11422BE21FDF7B0
:104F4000A0FAD4F8A4310499C4F8D4A10CADA4F803
:104F5000D8612846D3F88430984795E80700D4F8FC
:104F6000A4314FF0030804F5F07989E80700D3F87D
:104F70008430049984F8DC812846984795E8070036
:104F8000162389E80700DFF84C910498ADF8443007
:104F900010A9CDF8409009F0E1FD0499384605F0DC
:104FA000E7FF0598C8227D21FDF76BFAD4F8F031B0
:104FB0000599C4F820A2A4F824622846D3F88430C6
:104FC000984795E8070004F50B7A4FF001038AE84B
:104FD000070084F82832D4F8F0310599D3F88430EA
:104FE0002846984795E8070015238AE807000598A2
:104FF000ADF8443010A9CDF8409009F0AFFD059907
:10500000384605F0B5FF3422029800921323B422EB
:105010008C21FDF743FA0299A4F870622846C4F87F
:105020006CB209F0F3FA95E8070004F51E7A4FF028
:1050300001038AE80700029984F87432284609F0CF
:10504000E5FA95E8070014238AE807000298ADF80E
:10505000443010A94FF0BE0ACDF8409009F07EFD13
:10506000029984F872A2384605F082FF342303982F
:10507000009305221323A521FDF710FA0399A4F844
:10508000B8622846C4F8B4B209F0C0FA95E807003F
:1050900004F5307686E80700039984F8BC82284638
:1050A00009F0B4FA95E80700132386E8070003988F
:1050B00012E000BFB47A0208547F02085C7702084D
:1050C000CC7602088C82020837380CFF0C0C99FF52
:1050D000565659FFBC760208ADF8443010A9CDF8F9
:1050E0004090782609F03AFD039984F8BAA2384630
:1050F00005F03EFF4FF03C090898144D00960A2336
:105100003D220221FDF7CAF90899C4F8F4B23846E5
:10511000C4F8F852A4F8FC8284F8F29205F028FF53
:10512000079800960A234A464FF49A71FDF7B6F99C
:105130003846C4E9CAB50799A4F8308384F82693A1
:1051400005F016FF204613B0BDE8F08F3493ADFF95
:1051500070477047704730B4C268446855100346C2
:1051600004EB6200D20748BF62599B6830BC48BF5D
:10517000D35818470346406830B19A681AB9D868BE
:1051800000F0010070470120704710B5102104465F
:105190001FF0D8F8204610BD10B5034B036004463D
:1051A0000AF0FEFE204610BD007B020810B5064B3B
:1051B000036004460AF0F4FE204641F67C011FF02D
:1051C000C1F8204610BD00BF007B020838B500F1D1
:1051D000E003994204460D4603D10CF0DBFBFDF7DA
:1051E000A3FF04F264539D4203D10CF0D3FBFDF7FF
:1051F0007BFF9834A54205D10CF0CCFBBDE83840CC
:10520000FDF752BF38BD000038B504460D46FCF727
:1052100057F9034B23602433E560A360204638BD73
:10522000547F02082DE9F04F0446A5B0A1460025A1
:105230000EF0A6FAE24BE56349F8403B04F16C0A34
:105240004846FDF73FF904F198085046FDF73AF952
:1052500004F1E007404609F0DDFF384609F0DAFFC7
:1052600004F594731846069308F0C4FB04F5B8736C
:10527000294618461193FFF7C7FF04F5C273184675
:10528000079308F0B7FB04F5E67329461846129316
:10529000FFF7BAFF04F5F0731846089308F0AAFB6D
:1052A00004F50A73294618461393FFF7ADFF04F57A
:1052B0000F731846099308F09DFB04F521732946E6
:1052C00018461493FFF7A0FF04F5267318460A93B7
:1052D00008F090FB04F53873294618461593FFF73C
:1052E00093FF04F53D7318460B9308F083FB04F518
:1052F0004F73294618461693FFF786FF04F554733B
:1053000018460C9308F076FB04F566732946184698
:105310001793FFF779FF04F56B7305934FF48073D0
:10532000A4F8D033A74BC4F8AC33A74BC4F8D4339C
:105330004FF0FF314FF47F034FF0FF30C4F8E033FC
:10534000C4E9FB05A4F8D81304F57D70C4E9EC5555
:10535000C4E9EE55C4E9F055C4E9F255C4F8DC538C
:10536000A4F8E453C4F8E8530D9008F043FB294631
:1053700004F23C401890FFF747FF04F58A600E9056
:1053800008F038FB294604F593601990FFF73CFFBD
:1053900004F2AC400F9008F02DFB294604F2F440D3
:1053A0001A90FFF731FF04F5A160109008F022FB7E
:1053B000294604F5AA601B90FFF726FF04F264500B
:1053C000039009F027FF04F58053804AC3F86C2846
:1053D0007F4AC3F87048C3F87428C3F8785804F2B9
:1053E000AC504FF0F00B4FF496510AF0CFFD2A4627
:1053F000CDF800B0294648464FF4A073261DFDF7AE
:105400004DF84FF07F43A3664946304605F0B0FDA6
:105410002A46CDF800B0294650464FF4A073FDF758
:105420003DF86C4BC4F894305146304605F0A0FD71
:10543000404666225521FDF724F821A84FF01D0AA9
:105440004FF0010B22AA01464FF002094046ADF889
:105450008890ADF884B009F0D4FBA4F8D0A0404601
:10546000FDF79CFC4FF0FF30C4F8D80004F5C350A2
:10547000594BC4F8D4300C300490C4F8C0004146F5
:10548000304605F075FD594638463222FCF7F9FFE3
:1054900021A822AA01463846ADF88890ADF884B01C
:1054A00009F0AFFB1E23A4F818313846FDF776FC4F
:1054B0000499494BC4F81C314FF0FF30C4F8200167
:1054C000C4F808113046394605F052FD0698CDF86B
:1054D00000A05346C522CF21FCF7E0FF3F4B1199B6
:1054E000C4F87C314FF434584FF4F0774FF4A0797E
:1054F0004DF21443C4E95577C4F85C91A4F88031A7
:10550000C4F8501130460699C4F86851C4F8605187
:10551000C4F8648105F02CFD0798CDF800A053462F
:10552000C5225B21FCF7BAFF2D4B1299C4F8D83184
:105530004AF23A53C4E96C77C4F8B891A4F8DC3164
:10554000C4F8AC1130460799C4F8C451C4E96F5887
:1055500005F00EFD0898CDF800A05346C522952110
:10556000FCF79CFF1F4B1399C4F834324DF6B95326
:10557000C4E98377C4F81492A4F83832C4F8081246
:1055800030460899C4F82052C4E9865805F0F0FC6A
:105590000998CDF800A05346A822EC21FCF77EFF25
:1055A000114B1499C4F8903248F21663C4E99A7703
:1055B000C4F87092A4F89432C4F86412304615E02E
:1055C000007B020894810208BC760208E87A02088F
:1055D000CD510008EDDCADFF805039FFA583D4FF2D
:1055E000D1A4A1FFCAB4DEFFB7C286FF0999C4F8EF
:1055F0007C52C4E99D5805F0BBFC0A98CDF800A088
:105600005346A8227521FCF749FF994B1599C4F818
:10561000EC324EF67363C4E9B177C4F8CC92A4F8C7
:10562000F032C4F8C01230460A99C4F8D852C4E91E
:10563000B45805F09DFC0B98CDF800A05346A82265
:10564000B221FCF72BFF8B4B1699C4F8483349F66F
:105650003263C4E9C877C4F82893A4F84C33C4F87B
:105660001C1330460B99C4F83453C4E9CB5805F0E9
:105670007FFC0C98CDF800A05346A8223E21FCF7F1
:105680000DFF7D4B1799C4F8A4334EF69243C4E93D
:10569000DF77C4F88493A4F8A833C4F878133046AD
:1056A0000C99C4F89053C4E9E25805F061FC312329
:1056B000059800930A229F235921FCF7EFFE1CAFA7
:1056C0006E4B0599C4F8DC333846A4F8E0B308F013
:1056D0009DFF97E8070004F57A7383E80700684A9E
:1056E000229222AA202311460598ADF88C304FF063
:1056F000500A09F033FA0599304605F039FC534653
:105700000D98CDF800A06FF01D026FF01901FCF7A5
:10571000C5FE4FF0FF324FF4A067C4F848244FF0A5
:10572000FF31189AA4F84C14C4F81C240D99C4F83D
:1057300020743046C4F82474C4F82874C4F834546F
:10574000C4F82C54C4F8308405F012FC53460E986B
:10575000CDF800A06FF01D024FF48771FCF79EFE9C
:1057600048F65D691999474AC4F8A424A4F8A89496
:10577000C4F8781430460E99C4F87C74C4F8807468
:10578000C4F88474C4F89054C4F88854C4F88C8461
:1057900005F0EEFB53460F98CDF800A0BD226FF048
:1057A0001901FCF77BFE374AC4F800251A9A0F99B5
:1057B000A4F80495C4F8D4243046C4F8D874C4F8C6
:1057C000DC74C4F8E074C4F8EC54C4F8E454C4F8CD
:1057D000E88405F0CDFB53461098CDF800A0BD221B
:1057E0004FF48771FCF75AFE4FF0FF32C4F85C2586
:1057F0004FF0FF311B9AA4F86015C4F830251099BA
:10580000C4F834753046C4F83875C4F83C75C4F82B
:105810004855C4F84055C4F8448505F0A9FB0398E1
:105820003222AA21FCF72DFE4FF0020922AA21A95B
:105830000398ADF884B0ADF8889009F0E2F91F2321
:105840000398A4F89C35FDF7A9FA0F4BC4F8A035CE
:105850004FF0FF33C4F8A435049B0399C4F88C358A
:10586000304605F085FB204625B0BDE8F08F00BF2F
:105870009BCFEBFF93C799FF9191EBFF8F5D32FFB9
:10588000BC760208EBCA88FF805039FF70470000E1
:1058900030B5174D2C6814F001048FB0BFF35B8F47
:1058A00022D128461EF050FDF0B13F230993114B41
:1058B0000893114B07930123CDE905430493042377
:1058C000CDE902430F230D49009309221323CDE9AB
:1058D0000B440B480A940194FEF712F909481FF093
:1058E0008BFC28461EF03CFD05480FB030BD00BFC4
:1058F000D42F0020ACA90208C8A9020874A6020887
:10590000D82F00208D5800087047000030B5174D83
:105910002C6814F001048FB0BFF35B8F22D12846AE
:105920001EF012FDF0B13F230993114B0893114B68
:1059300007930123CDE9054304930423CDE90243F2
:105940001223009317230C490C480A941A46CDE9F8
:105950000B440194FEF7D4F809481FF04DFC28468B
:105960001EF0FEFC05480FB030BD00BF0430002023
:10597000B0A90208CCA90208F4A602080830002049
:10598000095900087047000030B5164D2C6814F016
:1059900001048FB0BFF35B8F21D128461EF0D4FCE9
:1059A000E8B13F230993104B0893104B104911485D
:1059B0000A940122CDE906430423CDE903321423DE
:1059C0000093CDE90B441523CDE901440594FEF77E
:1059D00097F809481FF010FC28461EF0C1FC054846
:1059E0000FB030BD34300020B4A90208D0A902089D
:1059F00038A8020838300020855900087047000098
:105A000030B5174D2C6814F001048FB0BFF35B8FD5
:105A100022D128461EF098FCF0B13F230993114B88
:105A20000893114B07930123CDE905430493042305
:105A3000CDE902431C230D4900930B221D23CDE920
:105A40000B440B480A940194FEF75AF809481FF0DA
:105A5000D3FB28461EF084FC05480FB030BD00BFC4
:105A600064300020B8A90208D4A9020848A8020896
:105A700068300020FD5900087047000030B5174D10
:105A80002C6814F001048FB0BFF35B8F22D128463D
:105A90001EF05AFCF0B13F230993114B0893114BB0
:105AA000079301220423CDE90523CDE903321F2307
:105AB0000D4900930C222823CDE90B44CDE9014484
:105AC0000A480A94FEF71CF809481FF095FB28467F
:105AD0001EF046FC05480FB030BD00BF94300020DA
