:020000040800F2
:10000000000003205D060008C5230008C723000880
:10001000C9230008CB230008CD23000800000000FE
:1000200000000000000000000000000001AE000819
:10003000CF2300080000000091AE00081BA70008B5
:10004000AD060008AD060008AD060008AD060008C4
:10005000AD060008AD060008AD060008AD060008B4
:10006000AD060008AD060008AD060008AD060008A4
:10007000AD060008AD060008AD060008AD06000894
:10008000AD060008AD060008AD060008AD06000884
:10009000AD060008AD060008AD060008AD06000874
:1000A000AD060008AD060008AD060008AD06000864
:1000B000AD060008AD060008AD060008AD06000854
:1000C000AD060008AD060008AD060008AD06000844
:1000D000AD060008AD060008AD060008AD06000834
:1000E000AD060008AD060008AD060008AD06000824
:1000F000AD060008AD060008AD060008AD06000814
:10010000AD060008AD060008AD060008AD06000803
:10011000AD060008AD060008D1230008AD060008B2
:10012000AD060008AD060008AD060008AD060008E3
:10013000AD060008AD060008AD060008AD060008D3
:10014000AD060008AD060008AD060008AD060008C3
:10015000AD060008AD060008AD060008AD060008B3
:10016000AD060008AD060008AD060008AD060008A3
:10017000AD060008AD060008AD060008000000004E
:10018000AD060008AD060008AD060008AD06000883
:10019000AD060008AD060008AD060008AD06000873
:0C01A000DD230008AD060008E92300087C
:1001B00010B5054C237833B9044B13B10448AFF3A1
:1001C00000800123237010BD800300200000000088
:1001D000CC7B020808B5034B1BB103490348AFF3BE
:1001E000008008BD0000000084030020CC7B0208D2
:1001F00001F0FF01102A2BDB10F0070F08D010F8D8
:10020000013B013A8B422DD010F0070F42B3F6D1DB
:10021000F0B441EA012141EA014122F007047FF0F4
:1002200000070023F0E80256083C85EA010586EA4B
:10023000010685FA47F5A3FA87F586FA47F6A5FA87
:1002400087F68EB9EED1F0BC01F0FF0102F0070293
:1002500032B110F8013B013A83EA010313B1F8D13E
:100260000020704701387047002D06BF354603381F
:10027000073815F0010F07D1013015F4807F02BF58
:10028000013015F4C03F0130F0BC0138704700BFA9
:100290007BB972B90029BEBF00204FF0004106E0D3
:1002A00008BF00281CBF6FF000414FF0FF3000F086
:1002B000D3B9ADF1080C6DE904CE002909DB002BA0
:1002C0001ADB00F04DF8DDF804E0DDE9022304B0AC
:1002D0007047404261EB4101002B1BDB00F040F80E
:1002E000DDF804E0DDE9022304B0404261EB4101A6
:1002F000524263EB43037047524263EB430300F007
:100300002FF8DDF804E0DDE9022304B0404261EBA0
:1003100041017047524263EB430300F021F8DDF8DE
:1003200004E0DDE9022304B0524263EB430370476B
:1003300053B94AB9002908BF00281CBF4FF0FF314C
:100340004FF0FF3000F088B9ADF1080C6DE904CE34
:1003500000F006F8DDF804E0DDE9022304B07047A0
:100360002DE9F047089D8E4604468846002B4AD169
:100370008A42174662D9B2FA82F64EB1C6F120031C
:1003800001FA06F820FA03F3B74043EA0808B4403C
:100390004FEA174E1FFA87FCB8FBFEF1230C0EFB49
:1003A000118843EA084301FB0CF29A4209D9FB1871
:1003B00001F1FF3080F0EA809A4240F2E780023992
:1003C0003B449A1AA3B2B2FBFEF00EFB102243EAA2
:1003D000024300FB0CFC9C4509D9FB1800F1FF32DD
:1003E00080F0D6809C4540F2D3803B44023840EAFE
:1003F0000140A3EB0C0300211DB1F3400022C5E92D
:100400000032BDE8F0878B4205D90DB1C5E9000186
:1004100000210846F5E7B3FA83F1002946D1734578
:1004200002D3824200F20581841A6EEB030201209E
:100430009046002DE5D0C5E90048E2E7002A00F02B
:100440009080B2FA82F6002E40F0A4808A1A030C43
:100450004FEA174E80B2BCB20121B2FBFEFC0EFB8C
:100460001C2243EA024304FB0CF29A4207D9FB1810
:100470000CF1FF3802D29A4200F2E080C4469B1A87
:10048000B3FBFEF20EFB123340EA034302FB04F41B
:100490009C4207D9FB1802F1FF3002D29C4200F2C5
:1004A000CA8002461B1B42EA0C40A5E7C1F12006A8
:1004B0008B4022FA06F71F430EFA01F420FA06F3E6
:1004C0002EFA06FE4FEA1749234300FA01F81FFAF5
:1004D00087FCBEFBF9F01C0C09FB10EE44EA0E444D
:1004E00000FB0CFEA64502FA01F209D93C1900F105
:1004F000FF3A80F09C80A64540F2998002383C4447
:10050000A4EB0E041FFA83FEB4FBF9F309FB1344BA
:100510004EEA044403FB0CFCA44508D93C1903F142
:10052000FF3E80F08280A4457FD9023B3C4443EAF1
:100530000040A4EB0C04A0FB02EC64457346E146CA
:1005400062D35FD05DB1B8EB030264EB090404FA37
:1005500006F622FA01F31E43CC40C5E900640021EF
:100560004FE7B1FBF2FC010C41EA0E4180B240EAD8
:1005700001423B4638463C46B846BE462026B1FBC3
:10058000F7F1A2EB080241EA0C4166E7014618E7E1
:1005900010462CE7C6F120022EFA02F3B740B14014
:1005A00020FA02F24FEA174E0A43B3FBFEF8BCB240
:1005B0000EFB1833110C41EA034108FB04F9B0406B
:1005C00089454FEA104380B23ED9791808F1FF3CC3
:1005D00001D289451FD8A1EB0901B1FBFEF909FB46
:1005E00004F80EFB191192B242EA0142424529D2A7
:1005F000BA1809F1FF31C4D24245C2D2A9F10201B1
:100600003A44BEE7F0459DD2BEEB02036CEB070C0B
:100610000138E14696E7A7EB09094944A8F1020C25
:10062000B1FBFEF909FB04F8DBE773467FE75046B0
:1006300066E70846FDE63B44023A33E7ACF1020CBC
:100640003B441CE749469CE7A1EB0901C446B1FBCA
:10065000FEF909FB04F8C4E7704700BFDFF834D0A7
:10066000002103E00C4B5B58435004310B480C4B0A
:1006700042189A42F6D30B4A02E0002342F8043BA8
:10068000094B9A42F9D307F0A7F926F031FD01F0A2
:100690003FF9704700000320F4A90408000000207F
:1006A0006401002080030020A04C0120FEE7704779
:1006B00008B500F0A7FDBDE8084000F029BD00F036
:1006C000A3BD704710B50421044625F013FB204656
:1006D00010BD000038B50C4B0C4C18800C4B822020
:1006E00019806368984740F6110398420AD1094D72
:1006F00023682C60822098472B688220DB6898470B
:10070000002038BD0120FCE7A60300204C0000209B
:10071000A4030020A80300204FF4A071F020FFF7ED
:10072000D9BF0000F7B52F4D2B6804461B69822006
:1007300098472080002844D02B680DF106025B69A1
:1007400001A982209847BDF80620A2F5B47292B2A2
:100750000A2A38D90B23B2FBF3F2234B1B889A42A7
:1007600001D9013B9AB2BDF80430204840F6B831B7
:100770008B422AD8C3F571630E3301689BB20F25F3
:10078000B3FBF5F31A4D2D88AB4284BF05F1FF355D
:10079000ABB28B421D468EB220D99B1B99B2154E2F
:1007A0003768BBB2BA428CBFD31A9B1A9BB21944AA
:1007B0000529C8BF05600368C8BF3260638033681D
:1007C000A38003B0F0BD0022CDE7C3F56D6308330D
:1007D0009BB20E2B0168D2D800252B46C91A89B2CC
:1007E000DDE700BFA8030020A4030020A003002031
:1007F000A60300209C03002037B568460D4614462A
:10080000FFF790FFBDF8000040B1BDF802302B604B
:10081000BDF80430C3F5A0732360012003B030BDE0
:10082000032821D8DFE800F0020B12190F4B1A68D9
:10083000B2FA82F2520904210D4807F095BD0B4B24
:100840005A68B2FA82F252090821F5E7074B9A6812
:10085000B2FA82F252091021EEE7044BDA68B2FADA
:1008600082F252092021E7E7704700BFAC03002065
:1008700000100240032821D8DFE800F0020B121913
:100880000F4B1A68003A18BF012204210D4807F0E7
:100890006BBD0B4B5A68003A18BF01220821F5E7DF
:1008A000074B9A68003A18BF01221021EEE7044B6B
:1008B000DA68003A18BF01222021E7E7704700BF3D
:1008C000AC0300200010024003280DD8DFE800F040
:1008D0000206080A0421054807F04BBD0821FAE783
:1008E0001021F8E72021F6E7704700BF0010024012
:1008F00008B5032811D8DFE800F0020A0C0E042125
:10090000074807F02BFD431E5842584108BD0821F7
:10091000F6E71021F4E72021F2E70020F3E700BF1B
:100920000010024070B5084D00240126E0B2FFF728
:10093000DFFF18B12B68012B18BF2E600134052C86
:1009400005F10405F2D170BDAC030020012380F84D
:10095000781080F87930704700207047034B41646D
:10096000003918BF01211970704700BF5F3F012097
:1009700000207047836B0BB10846184770474FF64D
:10098000FF707047406803689B691847704770475D
:100990007047000010B5044600F044FD2368034989
:1009A000D3F88C302046BDE810401847000000D036
:1009B00008B503680446D3F880309847236820467A
:1009C0009B6F984700F0ECF8236820461B6F984710
:1009D000292001F017FA00F0E3F8236820461B6F86
:1009E0009847F8E710B504460CF0C4FF236820468A
:1009F000D3F8AC30BDE81040184700F0F7BC00F069
:100A0000FBBC00F02DBD00F0CDBC00F03DBD00F002
:100A100045BD00F0D1BC0CF019BA10B57C210446DC
:100A200025F068F9204610BD10B590F8341090F804
:100A300078400C4B8C421A7809D03AB90A4A0B49D3
:100A40001488088810800C8001221A7010BD002ABA
:100A5000FCD0054A05491488088810800C800022C3
:100A6000F3E700BF583F0120543F0120563F0120CB
:100A700070B50D46194635B9094B0A4A0A4840F285
:100A8000D22126F073F8C0E90F52084B003A18BF84
:100A900001221A700368BDE87040D3F88C30184703
:100AA0003C7C0208747C0208C27C02085E3F012084
:100AB00008B5094B1B888B4203D8084B1B8893420F
:100AC00005D9074B074A08489E2126F04FF8074BE7
:100AD0001980074B1A8008BD543F0120563F012062
:100AE000077D02086A7D0208C27C02085A3F012085
:100AF0005C3F0120034690F87A0018B158680368FB
:100B00001B68184770470000012108B500220846FD
:100B100009F08CFE0A4B186028B90A4B0A4A2821B2
:100B20000A4826F023F800220421012009F01DFFC5
:100B3000074B186018B9074B034A2C21F0E708BD92
:100B4000C0030020AD7D0208F67D0208257E020864
:100B5000BC030020637E0208024B4FF0FF3118688F
:100B600009F0AEBEC0030020014B186809F0D4BEE6
:100B7000C0030020024B0021186809F0A1BE00BF8D
:100B8000C0030020FFF7F0BF0348044900680023BA
:100B90001A4609F025BF00BFBC0300200400002056
:100BA00013B5084C00231A4601A9206809F049FF33
:100BB00020684FF0FF33002201A909F042FF02B084
:100BC00010BD00BFBC03002003685B6C1847012008
:100BD000704703689B6A1847FEE740F2EF307047A2
:100BE000054B0360054B4FF08062C3F88820BFF3CC
:100BF0004F8FBFF36F8F70470890020800E100E04D
:100C000010B504464FF45A61FFF7EAFF204625F07D
:100C100071F8204610BD000082B0002301930E4BF6
:100C20001A6B42F400021A631A6B02F4000201927A
:100C3000019A1A6942F400021A611A6922F4000248
:100C40001A61064B064A1A61064A5A61064B4FF072
:100C500080629A6002B0704700380240E02F0020A6
:100C6000B90E0008D90B000800E100E008B50A2819
:100C700009D8DFE800F006100E0808080810101068
:100C80001000022008BD054B054A0648902125F0BA
:100C90006DFF0020F6E70120F4E700BFA57E020803
:100CA000C07E02080B7F020838B50C46887FFFF72C
:100CB000DDFFA58AE28A164B2169586342EA0542A4
:100CC0005A64628BD963521B1A642568082D0ED1B1
:100CD0009A611A615862207F0E4A42EA0062DA6124
:100CE000E2681A620C4A5961D9601A6038BD002264
:100CF000D8611A61E1680A0A480902F4784200F4EE
:100D0000FC600243C1F3C4010A439A63034AECE75F
:100D100000B002400900010001230200012303008A
:100D200008B50B280BD8DFE800F00612100A0A0AF3
:100D30000A0808080808022008BD0520FCE7054B42
:100D4000054A06486F2125F011FF0020F4E7012035
:100D5000F2E700BFA57E0208477F02080B7F02086A
:100D60002DE9F04191F81D800C464046FFF7D8FF71
:100D7000A77F05463846FFF7D3FF06463846FFF7FC
:100D800075FFA18A628B444B521A1A649A61228BB6
:100D9000521A1A61E28A586342EA01425A6421698E
:100DA0006268D963DA602068802828D0227F0FD853
:100DB000202867D0402865D004281AD0364B45EA51
:100DC000026545F40035B845DD6161D0334A44E041
:100DD000B0F5807F04D0B0F5007FEFD1304800E05F
:100DE000304840EA0262DA61E2681A625E62596182
:100DF00032E045EA026242F40032DA61F6E7A068C6
:100E0000021DDA62227F45EA026545F40035DD61A4
:100E10005E625961017841B1012921D0224B234AF8
:100E200023484FF48D7125F0A1FEDA69418822F440
:100E30007F42013922F0100242EA0122DA610121E7
:100E4000154BDA6942F02002DA61DA699206FCD4C5
:100E500010229A600029B9D0164A1A60BDE8F081C4
:100E6000B2F1FF01DA69408822F47F4200F1FF30DD
:100E700022F0100242EA002242F0100218BF0121C3
:100E8000DA61DDE745EA0262034B42F40032B4E77F
:100E900042F20132E1E700BF00B00240012301004D
:100EA000090002000A000200917F0208AB7F0208DD
:100EB0000B7F020801230200024B1B68586803687D
:100EC0005B691847603F012070B5044625460A4B10
:100ED0000C30002660602672667245F8203B602266
:100EE00029460CF09FFE04F55A63EE6024359D42BE
:100EF000FBD1204670BD00BF08900208034B1A6862
:100F0000D207FCD423229A60704700BF00B0024091
:100F10007047000030B50F4C2568ED07FCD4232541
:100F20000904A56041F001010225FF2B656361649E
:100F3000E0630AD00849656241EA0363E361074B55
:100F400022626061E060236030BDE561039BA363C2
:100F5000034BF8E700B00240090001000100020065
:100F60000100030030B50E4C2568ED07FCD42325A5
:100F70001204A56042F001020225FF2B6563626442
:100F8000E063E16008D01B0643F00213E361054B08
:100F900065626061236030BD034BE3610123F9E7C3
:100FA00000B0024001000200020002FF30B50B4C0D
:100FB0002568ED07FCD4232512041B06A56043F425
:100FC0000033022542F0010265636264E063E16080
:100FD000E361034B65626061236030BD00B0024095
:100FE000010002000120704738207047382303FBBE
:100FF000010008307047382303FB010008307047B8
:101000000120704741F67C00704741F67C0303FBEA
:1010100001000830704741F67C0303FB01000830F3
:101020007047012070471020704700EB0110083016
:10103000704700EB011008307047084602F0E8BA2C
:1010400010B5034B036004460BF055FC204610BD61
:10105000C090020810B50446FFF7F2FF2046402179
:1010600024F048FE204610BD10B5034B0360044633
:101070000BF041FC204610BD8C90020810B50446D0
:10108000FFF7F2FF204641F6840124F033FE2046AC
:1010900010BD000010B5034B036004460BF02BFCA1
:1010A000204610BD5890020810B50446FFF7F2FF25
:1010B0002046182124F01EFE204610BD10B5094B15
:1010C0000360044600F5C5501030FFF7B9FF04F186
:1010D0002C00FFF7C9FF04F11400FFF7DBFF2046E7
:1010E00010BD00BFF490020808B50248FFF7E6FF04
:1010F00008BD00BF9412002010B50446FFF7DEFFC4
:1011000020464FF4D35124F0F5FD204610BD0000D9
:101110002DE9F34101F0F0F9054601F0F1F9002461
:101120000146234628462246009415F087FD274BAA
:10113000274A1A60204605F0A7FA264D264B274A73
:1011400027489A6015F0E2FC2B68BFF35B8FDB0742
:1011500036D4284624F0D0FD90B3224C224F234BA6
:10116000236007F1540604F1140004F12C086060B8
:10117000C4F80880E76026610BF0BEFB1C4B63617E
:1011800040460BF0B9FB1B4BE36238460BF0B4FB57
:1011900004F5805303F50F60174AC3F8B02806F032
:1011A00017F9224607F14001304605F06FFF30463F
:1011B00002F02EFA114825F0F7FC284624F0A8FD8D
:1011C0000F4802B0BDE8F041FFF7E4BBC43F012087
:1011D00040040020901200206004002044040020FD
:1011E0000800002094120020442B0020F4900208F4
:1011F000589002088C900208C0900208E91000087C
:10120000C4030020704700000148FFF7D1BB00BFB6
:10121000C403002070B5244E244C254D254B23607B
:101220003046FFF751FE28461AF00EFE224813F012
:10123000DDF9224B2248DC6000224FF48071C3E9C3
:10124000121220491A86C3E91A121F4999671F49C9
:1012500083F858200B60F02101801D485A660180F8
:101260001C4883F870204FF4A071C3E90422C3E93D
:101270000622C3E90822C3E90A22C3E90E22C3E910
:101280001022C3E91422C3E917225A67C3E9016592
:1012900001801148018011490A70012283F834202D
:1012A0000F4A1A6070BD00BFEC0400208C120020B1
:1012B000600400202C7C020844040020C4030020A9
:1012C000543F01200100000100000101603F0120A6
:1012D0005A3F0120563F01205C3F0120583F01202A
:1012E000308F02080148FFF77BBC00BFEC040020F0
:1012F0000020704781807047C1807047018170472E
:10130000418170477047704770477047704710B40D
:10131000C4880368121B84885B6D091B12B25DF8D8
:10132000044B09B218474FF6FF7383814FF0FF3328
:1013300003621368C36110607047002070478B8898
:10134000838001207047704780F82610704790F81E
:101350002600704710B50022B1F90840B1F90A1013
:10136000028042808480C18010BD002202804280C1
:101370008280C28070470177704780ED080A70470D
:1013800080F82410704780F82510704701207047BE
:10139000983070478C307047843070477047704782
:1013A00070470000034B902283F85A2383F8582398
:1013B000704700BF00E100E0094A0A49D3680A48C3
:1013C000C3F30A03013B9BB20B801169C1F30A010D
:1013D000013901801364536B43F001035363704779
:1013E00000680140F62C0020F42C0020014BD3F8BB
:1013F000AC00704700680140024B0122C3F8AC10FA
:101400005A6270470068014010B52C21044624F050
:1014100071FC204610BD10B5BC21044624F06AFCC6
:10142000204610BD70B504460BF065FD23685D6E67
:1014300011F088FF01462046A8472368054AD3F8E3
:1014400088502046AC460023BDE87040A2F5163116
:10145000604700BF00B004D00BF034BD0BF03EBDC0
:101460000BF0FABC0BF05BBE90F8252012B10368BC
:101470005B691847704790F825201AB190F824202E
:1014800002B1186070470000034B4FF080629A6011
:101490004FF080729A60704700E100E0084B4FF017
:1014A0008062C3F88820BFF34F8FBFF36F8F4FF078
:1014B0008072C3F88820BFF34F8FBFF36F8F7047E0
:1014C00000E100E070B50023124E8380124B0360F0
:1014D000336893F8582005460AB1D86C00B998686B
:1014E0000368DB6A98473368B0FA80F4D86C640903
:1014F00030B10368DB6A9847002808BF44F0010454
:101500002CB9064B064A07482C2125F02FFB28460C
:1015100070BD00BF603F012008910208E97F02080A
:10152000478002088080020870B5244E3568BFF3FA
:101530005B8F15F001053FD1304624F0DDFB00281C
:101540003AD01F4C1F4B256104F13400C4E900352B
:10155000C4E90255E584A562A58513F0A6FA04F155
:1015600058000EF02DFC184BA3652046174B40F891
:10157000843BFFF7A7FF164BC4F884302433C4F82C
:101580008C306423C4E928350023C4F8AC30C4F897
:10159000B030C4F8B430C4F8B8300E480E4BC4F8BC
:1015A0009050C4F89C50C4F8A850C4F8983025F066
:1015B000FBFA304624F0ACFB014870BDF82C00204B
:1015C000FC2C0020389D020828910208A0910208F6
:1015D000EC9C0208A1130008CC9C020810B5144C26
:1015E000236823B3134B144A1B6C11888B4213D10D
:1015F000124B198807F0C0FC226892F86A30013358
:1016000082F86A30FFF7C0FA20680CF0B3F9BDE841
:1016100010400020FFF704B907F0AEFC2068036813
:101620001B6A9847BDE810400020FFF723B910BDA2
:10163000603F012000680140F62C0020F42C0020BF
:101640002DE9F04FDFF85891534DDFF858A1534F73
:1016500087B01022002102A800244FF0010825F0D5
:101660009EFCC346C9F800400123002C50D106223D
:1016700002A92846CDE90243049206F093FB2846CE
:1016800006F0A0FA4FF0FF31284606F034FB28465A
:1016900006F084FB0646284606F012FBB6F57A7F74
:1016A0004FF001032DD28DF80740386823462246BB
:1016B0000DF1070109F094F90421504606F04EFEA1
:1016C000064660B9BBF1010F09D104238DF807303C
:1016D000024603460DF10701386809F081F9D9F88F
:1016E00000301433B3F5FA7F28BF00234FF00A000F
:1016F00028BF84F00104C9F80030B34609F08AF825
:10170000B2E740F6B8329642D6D98DF80730CCE72A
:101710000522CDE9022302A906232846049306F0F8
:1017200041FB284606F04EFA4FF0FF31284606F0FE
:10173000E2FA284606F032FB0646284606F0C0FAD2
:10174000B6F57A7F16D202238DF807300023386869
:101750001A460DF1070109F043F90821504606F039
:10176000FDFD0346B0B9B8F1010F09D04FF00008F4
:101770005E46B4E740F6B8339E42EED90323E3E772
:1017800005228DF807200DF107010246386809F09F
:1017900027F9EBE78046EBE7102E0020C02D002054
:1017A000B82D00200018024007B5064BADF8060022
:1017B0001B68054801220DF1060108F08DF903B000
:1017C0005DF804FB0C0000208C2E002008B564207E
:1017D00009F020F8FBE7000030B595B01022002199
:1017E0000AA825F0DCFB1422002103A825F0D7FB72
:1017F00000241E4B01941A6C42F080521A641B6C38
:1018000003F080530193019B194B02941A6842F430
:1018100040421A601B6803F4404302930122029B7A
:101820004FF48033CDE9082302254FF480030821CB
:10183000CDE90E534FF4B473CDE9101308A8042377
:101840001393129507F0F0FB07F0B4FB0F23CDE9DB
:1018500003354FF4A0504FF48053CDE90603052122
:1018600003A8059407F0BCFD15B030BD0038024058
:101870000070004082B000230F4A0193516C0F4862
:1018800041F480715164526C836002F48072019261
:10189000019A0B4A0361C0E900230A4A82620122CD
:1018A000037680F82030C362C360C26180F83030B4
:1018B000426102B006F0E0B800380240102E00206D
:1018C000002001400100000F82B000230D4A019367
:1018D000516C0D4841F010015164526C0B49036189
:1018E00002F010020192019AC3614FF4E132C0E9A3
:1018F00000120C22C0E90233C0E9052302B008F04F
:10190000EABD00BF00380240D02D00200010014089
:101910002DE980489BB006F06DF8FFF7ABFFFFF7AD
:101920005BFF142200210DA8002425F038FBC64BD4
:1019300000941A6BC548C64D42F010021A631A6B28
:1019400002F010020092009A01941A6B42F02002F9
:101950001A631A6B02F020020192019A02941A6B28
:1019600042F080021A631A6B02F080020292029A1D
:1019700003941A6B42F004021A631A6B02F0040219
:101980000392039A04941A6B42F001021A631A6BD1
:1019900002F001020492049A05941A6B42F00202CA
:1019A0001A631A6B02F002020592059A06941A6BEA
:1019B00042F040021A631A6B02F040020692069A45
:1019C00007941A6B42F008021A631B6B03F00803BA
:1019D000079322463C21079B06F0C6FC9D48224601
:1019E000042106F0C1FC22469B484FF4405106F00A
:1019F000BBFC01264FF003083C239448CDF84080FF
:101A00000DA902274FF0040ACDE90D360F9406F018
:101A1000C1FB90480F940DA9CDE90DA6109706F0D3
:101A2000B9FB4FF440538C480DA9CDE90D36CDE9F3
:101A30000F4706F0AFFB212388480F940DA9CDE98D
:101A40000D3806F0A7FB0C2385480F960DA94FF023
:101A5000070BCDE90D3406F09DFB0DA94FF4C063D3
:101A60007E48CDF844B0CDE90D37CDE90F4806F0FA
:101A700091FB7C487C4B036006F082FA7B4A7C4BEE
:101A80002C62C5E9002328464FF48043C5E904349D
:101A9000C5E90244C5E9064406F074FE1021284653
:101AA00007F0B8F82146284607F0D3F87148724984
:101AB00084624FF48273C0E900134FF40075182359
:101AC0004FF00A09C0E90653C0E902446B4DC0F863
:101AD0002C90C0E90444C0E9084407F0A1FF684B1A
:101AE00013974FF0100CC5E900364023C5E904C335
:101AF0004FF4C073C5E906344FF40063C5E90834F8
:101B00000DA94FF400532846AB62C5E9024ACDE95E
:101B10000FABCDE90D7BCDE911874FF0080B07F036
:101B200063FE4FF6FF7209A92846CDE90AB608946C
:101B300009960C9407F078FE304605F087FF4FF6C3
:101B4000FF7209A92846CDE9097BCDE90B6407F0AE
:101B50006BFE4FF6FF7209A92846CDE9098BCDE946
:101B60000BA407F061FE4FF40C730893089B0C93D1
:101B70004FF6FF7209A92846CDE909AB0B9607F08D
:101B800053FE40F26A51284607F06CFE342221468B
:101B90000DEB020025F003FA3A4D3B4B2C61C5E9F1
:101BA00000340923C5E905361D2340F20D1EC5E9A1
:101BB000073840F24313C5E909E3284640F24713CA
:101BC00040F21718C5E90B83C5E90244AC8685F8D5
:101BD000364007F0D9F8FF21F022CDE912144FF476
:101BE000806A05214FF4A073CDE90E24CDE914A13C
:101BF000CDE916420DA922462846CDE91037234DDE
:101C000018930D94ADF864408DF8664007F087F99D
:101C10001F4B2B601B6898472B681E4DDB6898474D
:101C20001D4B2846C5E90034C5E90274C5E90A47D9
:101C3000C5E90C4406F0B4F93146284606F066FAC8
:101C4000FEF736FD2AE000BF0038024000100240D7
:101C50008C2F002000080240000C024000000240CF
:101C6000001802402030002000300240005C00409C
:101C7000A08601008C2E002000500140582E00202C
:101C8000400100A0E42E002000680140BC2D00208F
:101C900014000020E02F002000B00240FEF707FDF6
:101CA000FFF712FE08F046FD0F4A3146484608F09D
:101CB0005CFE0E4B0E4A186021460E4808F066FD89
:101CC0000D4B0E4A186021460D4808F05FFD0D4B84
:101CD0000D4A186021460D4808F058FD0C4B18605D
:101CE00008F03AFDFEE700BFE4910208C02D002095
:101CF00044920208CD170008CC2D00202092020843
:101D0000BF060008C82D0020FC91020841160008FB
:101D1000C42D0020704770477FB5094B8DF8172000
:101D20001B6802930DF117020123009201930A46EA
:101D30000146044806F0CEFD07B05DF804FB00BF85
:101D4000100000208C2F00207FB500238DF8173065
:101D5000084B1B6802930A4601230DF117010091FD
:101D600001930146044806F045FE9DF8170007B0B0
:101D70005DF804FB100000208C2F00201FB5084CDC
:101D800024680092CDE901340A4601230146054842
:101D900006F030FE003818BF012004B010BD00BFAF
:101DA000100000208C2F002005F050BE10B5064C0E
:101DB00000222046042106F0D7FA20460122BDE881
:101DC0001040042106F0D0BA0008024038B50B4D8F
:101DD000044601220A484FF4005106F0C5FA0022D9
:101DE0000421284606F0C0FA2046FFF7DDFC28460D
:101DF0000122BDE83840042106F0B6BA00080240CE
:101E0000000C024038B50B4D044600220A484FF43E
:101E1000005106F0A9FA00220421284606F0A4FA8F
:101E20002046FFF7C1FC28460122BDE838400421C6
:101E300006F09ABA00080240000C0240F7B5144EB2
:101E4000144F05460C4630460022042106F08CFA59
:101E500000224FF40051384606F086FA2846FFF774
:101E6000A3FC0D4B0D481B68224601A907F0E0FFBB
:101E7000384601224FF40051019C06F075FA3046B5
:101E80000122042106F070FA204603B0F0BD00BF25
:101E900000080240000C02400C0000208C2E0020A4
:101EA00005F0D4BD0268034B9A4201D105F0BCBDD8
:101EB000704700BF001000407047000082B00E4B1A
:101EC00000220092596C41F480415964596C01F42C
:101ED0008041009100990192196C41F08051196480
:101EE0001B6C03F080530193019B0F216FF00100E5
:101EF00002B006F005B800BF003802400268094B86
:101F00009A4282B00BD100230193074B1A6B42F423
:101F100080521A631B6B03F480530193019B02B040
:101F2000704700BF003002400038024007B50F4B39
:101F300002689A4216D10022A3F5F0430192196B70
:101F400041F4000119631B6B03F4000301930521A5
:101F50005A20019B05F0D4FF5A2003B05DF804EB32
:101F600006F000B803B05DF804FB00BF00B002400B
:101F70002DE9F043044689B01422002103A825F07E
:101F80000EF82268244B9A4243D1244C2448002561
:101F90000095236B43F004032363236B03F00403D6
:101FA0000093009B0195236B43F001032363236B94
:101FB00003F001030193019B4FF012094FF40073EA
:101FC0004FF001080327042603A9CDE90339CDE921
:101FD0000587079606F0DEF84FF4807311480796E0
:101FE00003A9CDE90339CDE9058706F0D3F80295B9
:101FF000236C43F400032364236C03F40003029373
:10200000029B236A43F400032362236A23F4000340
:10201000236209B0BDE8F083005C00400038024054
:102020000008024000000240F0B599B004461422B6
:10203000002107A824F0B3FF30220DEB020000219D
:1020400024F0ADFF22685E4B9A4240F0B78008232F
:102050000C93C0231093042312930CA84FF4003365
:10206000159307F095FA08B1FFF726FF554B564830
:10207000002400945A6C42F080625A645A6C02F058
:1020800080620092009A01941A6B42F020021A6357
:102090001A6B02F020020192019A02941A6B42F02C
:1020A00001021A631A6B02F001020292029A03946F
:1020B0001A6B42F002021A631A6B02F002020392D8
:1020C000039A04941A6B42F040021A631A6B02F0EE
:1020D00040020492049A05941A6B42F004021A63B7
:1020E0001A6B02F004020592059A06941A6B42F0EC
:1020F00008021A631B6B03F00803069302250E26E1
:10210000069B0B964FF4806307A9CDE90735CDE90F
:10211000094506F03FF841F658032C480B9607A9ED
:10212000CDE907350927CDE9094506F033F8032342
:1021300027480B9707A9CDE90735CDE9094506F0F2
:1021400029F84FF4706322480B9607A9CDE90735AB
:10215000CDE9094506F01EF84FF40C631D480B96B7
:1021600007A9CDE90735CDE9094506F013F8C023E5
:1021700019480B9607A9CDE90735CDE9094506F0C1
:1021800009F8082315480B9607A9CDE90735CDE9CD
:10219000094505F0FFFF4FF4A0530E480B9707A920
:1021A000CDE90735CDE9094505F0F4FF5820224671
:1021B000052105F0A5FE582005F0D4FE19B0F0BDAC
:1021C0000068014000380240001402400000024054
:1021D000000402400018024000080240000C0240C7
:1021E00010B5044688B01422002103A824F0D7FEBD
:1021F0002268144B9A4223D103F5684300210191D0
:102200005A6C114842F480125A645A6C02F48012DB
:102210000192019A02911A6B42F020021A631B6B21
:1022200003F020030293029B4FF460720223032108
:10223000CDE903230523CDE9061303A905F0AAFF81
:1022400008B010BD00500140001402402DE9F041DB
:1022500086B0002303932B4B1C68002C4FD14FF00A
:102260000108C3F80080284B00949A6B274842EA83
:1022700008029A639B6B03EA080300930227032674
:102280000C25009B01A94FF63F03CDE90137CDE9AD
:10229000046505F07FFF1E48059501A9CDE901877A
:1022A000CDE9034605F076FF48F23313194805954A
:1022B00001A9CDE90137CDE9034605F06BFF4FF6E3
:1022C00083731548059501A9CDE90137CDE903468A
:1022D00005F060FF4CF203731048059501A9CDE9A4
:1022E0000137CDE9034605F055FF60230C480595FD
:1022F00001A9CDE90137CDE9034605F04BFF06B052
:10230000BDE8F0812830002000380240001402406F
:10231000000802400018024000100240000C024079
:102320000004024070B588B000230293204B1A6C61
:1023300042F010021A641B6C03F01003029305466E
:1023400001A903A8029B07F005F9069B4BBB07F008
:10235000E1F8184E184B336040F2E733F360174B47
:10236000B0FBF3F3013B7360304600233361B3608D
:10237000B36107F02DFF044680B9304607F0FEFD3B
:10238000044658B9362005F0EDFD0F2D0DD8224634
:102390002946362005F0B4FD094B1D60204608B0E3
:1023A00070BD07F0B7F84000D3E70124F6E700BF9F
:1023B000003802402C3000200010004040420F0046
:1023C0007C0000207047FEE7FEE7FEE7FEE770476F
:1023D000014807F011BE00BF2C300020014806F074
:1023E00041BD00BFE42E0020014805F005BE00BF3E
:1023F000E02F00200120704708B524F073FE16235B
:1024000003604FF0FF3008BD08B524F06BFE1623C3
:102410000360FEE770B50D4614460E46731B9C42E2
:1024200001DC204670BDAFF3008006F8010BF5E734
:102430004FF0FF3070474FF400534B60002070475F
:10244000012070470020704710B54FF0FF3314464D
:10245000024892B208F06DF8204610BDD02D002041
:102460000A4A116808B5034609B90949116010689C
:10247000694603448B4206D924F034FE0C230360E2
:102480004FF0FF3008BD1360FCE700BF7430002040
:10249000A04C0120704708B50C2924D8DFE801F0D2
:1024A000070B0F13171F1F1F1F1B1F1F1F0004F0F9
:1024B00037F9006808BD04F033F94068FAE704F022
:1024C0002FF98068F6E704F02BF9C068F2E704F012
:1024D00027F90069EEE704F023F98069EAE704F0E0
:1024E0001FF94069E6E70020E4E710B5042104463F
:1024F00023F000FC204610BD004870477C92020883
:102500000520704713B5002451B1036801948DF87C
:10251000034001AA9C680DF10303A04702B010BD5F
:102520000846FBE7C0897047008A7047C08870473B
:1025300080887047807A00F07F007047807AC009F9
:1025400070470020704700009FED010A704700BFF0
:102550000000000070477047704770477047704731
:1025600030B5036885B06D460181D3F884300146EB
:1025700004462846984795E807003C3484E807005D
:1025800005B030BD30B5036885B06D464181D3F8E4
:102590008430014604462846984795E807003C34B5
:1025A00084E8070005B030BD0022028042808280AE
:1025B000C280704780F83610704770B503680446D3
:1025C0001B6B154698472368294620465B6EBDE87D
:1025D0007040184700207047806C70477047704704
:1025E000704710B50821044623F084FB204610BD37
:1025F00010B54C21044623F07DFB204610BD10B5DC
:102600002C21044623F076FB204610BD0B898A89D5
:10261000D21A4B89C988591A12B209B211F0B2BF45
:1026200010B5034B036004460FF092F9204610BD2D
:10263000F093020810B5064B036004460FF088F9CA
:10264000204641F2B85123F055FB204610BD00BF93
:10265000F093020808B590F826300BB1FEF704FF9E
:1026600008BD08B5FEF700FF08BD0000036870B59F
:102670005E6B124B1B6804468DB22BB9104B114A8E
:102680006C21114824F072FA1049828D0988914218
:1026900003D80F4B0B4A6D21F3E713F812200D4BB3
:1026A0001B6853F8220003681B6B9847291A3346AE
:1026B000204609B2BDE87040184700BFB83F01206E
:1026C00012810208548102088F810208BC3F012058
:1026D000D6810208C03F012010B500F58054D4F81F
:1026E000B4350133B42BC4F8B43506D110F02AFE4A
:1026F00000F0EEFF0023C4F8B43510BD00224FF007
:10270000FF31C0E900218260704770B5036804465C
:102710001B6B154698472368294620465B6BBDE82E
:102720007040184770B504461D46BDF91060FFF7AC
:10273000ECFF2368294620469B6B98472368314667
:102740002046DB6BBDE8704018470000094A026074
:102750004FF4807100228184FF21C0E90122C0E989
:102760000322C0E90522C0E9072280F82610826210
:10277000704700BFBC9F02084FF4807181840D49EF
:1027800001600D4981624FF6FF7181854FF47F0131
:10279000002241634FF0FF31C0E90122C0E903226A
:1027A000C0E90522C0E90722C0E9101202630287CE
:1027B000C26370472C9F0208E89202082DE9F04F8F
:1027C000044691B027464FF0000B12F0B1FCD44BF9
:1027D000C4F83CB047F8403B04F16C063846FFF7BC
:1027E000B5FF04F198083046FFF7B0FF4046FFF709
:1027F000ADFF04F1C40318460593FFF7A7FF04F1EA
:10280000F003184606930CF0CDFD04F59C731846B2
:102810000993FEF757FEC34BC4F838312433C4F88C
:10282000403104F5A6731846C4F844B1BE4D089370
:102830004FF00109FFF78AFF04F5BC7304F5D27A63
:102840001846C4F84C5184F870910793FFF77EFF47
:10285000C4F8785184F89C915046FFF78DFF04F539
:10286000F67318460293FFF787FF04F50D731846B9
:10287000AE4D0393FFF780FF04F52073C4F8345284
:102880001846C4F87CB20493FFF776FF04F5805332
:10289000C4F88052C4F8C8B2F025C3F8B4B54FF4F8
:1028A000965104F53D700FF049F85A4638460095A8
:1028B0004FF4A073594604F10409FFF733FF4FF0BA
:1028C0007F433946A36648460AF02AF84FF0FF379F
:1028D0004FF4A0735A46304600955946FFF722FF41
:1028E0003146C4F8947048460AF01AF80222EC23E4
:1028F0001146404600934FF49F73FFF713FF8C4B34
:10290000C4F8C030414648460AF00AF85A460598CD
:1029100000950323A021FFF705FFDC230599C4F8E8
:10292000EC7084F8EA30484609F0FAFF0E23722270
:10293000069800939B21FFF7F5FEC023C4F82431CD
:102940004FF43453C4F82C317A4BC4F8443149F66F
:102950006103A4F84831099B0699C4F81831C4E909
:10296000475548462825C4F830B1C4F828B109F0C5
:10297000D7FF05236422089800950821FFF7D2FEAF
:102980000899C4F87471484609F0CAFF0523642207
:10299000079800954FF49A71FFF7C4FE4FF0340882
:1029A0000799C4F8A07148466D4409F0B9FF132394
:1029B0005F225046CDF800807421FFF7B3FE5146E8
:1029C000C4F8D4712846A4F8D8B10DF0F7FA95E808
:1029D000070004F5F07686E807004FF00302514641
:1029E00084F8DD2128460DF0E9FA95E807004FF05C
:1029F000010386E80700514684F8DC3128460DF0D3
:102A0000DDFA95E80700152386E8070050464A4E90
:102A1000ADF83C300EA90E960DF078FD6FF0410137
:102A200084F8DA114846514609F07AFF13235F22F1
:102A30000298CDF80080BB21FFF774FE0299C4F81C
:102A40001C722846A4F820B20DF0B8FA95E80700E9
:102A500004F50A7888E807004FF00302029984F829
:102A60002522284617460DF0A9FA95E8070088E8C0
:102A70000700029984F8247228460DF09FFA95E821
:102A8000070088E807000EAA122311460298ADF845
:102A90003C300E960DF03AFD6FF0410184F82212A1
:102AA00048460299DFF8ACA009F03AFF702203987B
:102AB0003521FFF72AFE214BC4F86432D4F83432B2
:102AC0000399D3F88430A4F868B22846984795E86B
:102AD000070004F51C774FF0010387E8070084F82E
:102AE0006C32D4F834320399D3F8843028469847AE
:102AF00095E80700DAF8003087E8070004F5337737
:102B00002BB90F4B0F4A60210F4824F02FF80F4BC1
:102B10001B88092B20D80E4B0A4A6121F4E700BF1D
:102B2000F0930208EC9C020888930208F8920208CD
:102B300037380CFF0C0C99FFE89202085FABDEFF00
:102B400012810208148202088F810208BC3F012012
:102B5000D6810208B83F0120DFF8F0800921D8F8BB
:102B6000000003F0CDFD364A03460A21384613F033
:102B7000BFFF0398C4F87C720DF0A8FCD227142381
:102B80000398ADF83C300EA90E960DF0BFFC0399EA
:102B900084F86A72484609F0C3FE6F220498F32154
:102BA000FFF7B3FD274BC4F8B032D4F88032049954
:102BB000D3F88430A4F8B4B22846984795E80700C3
:102BC00004F52F7B4FF003038BE8070084F8B8323D
:102BD000D4F880320499D3F884302846984795E891
:102BE0000700DAF800308BE8070004F53875002B91
:102BF00087D0154B1B88092B8DD9D8F800000921E7
:102C000003F07EFD0E4A03460A21284613F070FFAA
:102C10000498C4F8C8520DF059FC13230498ADF879
:102C20003C300EA90E960DF071FC4846049984F8CC
:102C3000B67209F075FE204611B0BDE8F08F00BFF6
:102C40005F8202085FABDEFFBC3F0120C43F012072
:102C50007047000010B5034B036004460EF078FE89
:102C6000204610BD2494020810B5064B03600446AC
:102C70000EF06EFE204641F2B45123F03BF82046A0
:102C800010BD00BF249402082DE9F04F044691B016
:102C9000A346002612F04CFA914BE6634BF8403BFA
:102CA00004F16C0A5846FFF751FD04F198095046AB
:102CB000FFF74CFD4846FFF749FD04F1C4031846F1
:102CC0000593FFF743FD04F1F003184606930CF05B
:102CD00069FB04F59C7318460993FEF7F3FB814BDF
:102CE000C4F838312433C4F8403104F5A6731846CB
:102CF000C4F844617C4D08934FF00107FFF726FDAF
:102D000004F5BC7304F5D2781846C4F84C5184F825
:102D100070710793FFF71AFDC4F8785184F89C711D
:102D20004046FFF729FD714DC4F8A45104F5F8732E
:102D30001846C4F8EC610293FFF71EFD04F50F730B
:102D4000C4F8F0511846C4F838620393FFF714FD35
:102D500004F521731846F0250493FFF70DFD4FF499
:102D6000965104F53D700EF0E9FD32465846009547
:102D70004FF4A0733146271DFFF7D4FC4FF07F437B
:102D80005946A366384609F0CBFD4FF0FF3B4FF4A0
:102D9000A0733246504600953146FFF7C3FC5146BA
:102DA0003846C4F894B009F0BBFD0222EC2311466A
:102DB000484600934FF49E73FFF7B4FC4C4BC4F8A5
:102DC000C0304946384609F0ABFD324605980095BB
:102DD0000323A021FFF7A6FCDC23059984F8EA3041
:102DE0003846C4F8ECB009F09BFD0E237222069819
:102DF00000939A21FFF796FCC023C4F824314FF4C6
:102E00003453C4F82C313B4BC4F8443149F66103C8
:102E1000A4F84831099B0699C4F81831C4E947550C
:102E200038462825C4F83061C4F8286109F078FDD7
:102E300005236422089800950821FFF773FC089980
:102E4000C4F874B1384609F06BFD05236422079875
:102E5000009540F23311FFF765FC0799C4F8A0B163
:102E6000384609F05DFD1622B8214046FFF74DFCBB
:102E7000214BC4F8D431D4F8A431A4F8D8616D44FE
:102E8000D3F88430DFF888A041462846984795E873
:102E9000070004F5F0794FF0030389E8070084F890
:102EA000DC31D4F8A4314146D3F884302846984721
:102EB00095E80700DAF8003089E8070004F533796F
:102EC0002BB90E4B0E4A60210E4823F04FFE0E4BDD
:102ED0001B88062B1ED80D4B094A6121F4E700BF61
:102EE00024940208EC9C020888930208F8920208D5
:102EF00037380CFF0C0C99FF565659FF1281020807
:102F0000148202088F810208BC3F0120D68102088A
:102F1000B83F01206A4B0621186803F0F1FB694AAB
:102F200003460A21484613F0E3FD4046C4F8EC91FD
:102F30000DF0CCFADFF89891CDF838902123404677
:102F40000EA9ADF83C300DF0E1FA4146384609F0E3
:102F5000E7FC0298C3227521FFF7D7FBD4F8F031C4
:102F6000594AD3F884300299C4F820222846A4F89C
:102F70002462984795E8070004F50B78D4F8F031FF
:102F800088E807004FF00102D3F88430029984F8F2
:102F900028222846984795E80700DAF8003088E8A4
:102FA000070004F53878002B8BD0484A1388052B8E
:102FB00091D9434B0521186803F0A2FB414A03460F
:102FC0000A21404613F094FD0298C4F838820DF0AF
:102FD0007DFA20230298ADF83C300EA94FF0340A58
:102FE000CDF838900DF092FA0299384609F098FC25
:102FF00013230398CDF800A0B4228C21FFF792FB95
:103000000399A4F870622846C4F86CB20CF0D6FF9D
:1030100095E8070004F51E7888E807004FF00102E4
:10302000039984F8742228460CF0C8FF95E807003D
:103030001F2388E807000398ADF83C300EA94FF035
:10304000BE08CDF838900DF061FA039984F87282C9
:10305000384609F065FC0498CDF800A01323072238
:10306000A521FFF75FFB0499A4F8B8622846C4F8CD
:10307000B4B20CF0A3FF95E8070004F530764FF0EA
:10308000030386E80700049984F8BC3228460CF054
:1030900095FF95E807001E2386E807000498ADF821
:1030A0003C300EA9CDF838900DF030FA384604992E
:1030B00084F8BA8209F034FC204611B0BDE8F08FE4
:1030C000C43F01205F820208565659FFBC3F0120D1
:1030D000E892020870477047704730B4C26844688D
:1030E0005510034604EB6200D20748BF62599B6843
:1030F00030BC48BFD35818470346406830B19A687F
:103100001AB9D86800F0010070470120704710B567
:103110001021044622F0EEFD204610BD10B54FF4FC
:10312000CC71044622F0E6FD204610BD983088425E
:1031300008B505D110F006F9BDE8084000F078BAEE
:1031400008BD0000F8B5194B018F1B888B4206465D
:103150002AD9174B1B682BB9164B174A17486C21F5
:1031600023F004FD13F81120154B1B6853F822506F
:10317000144B186803F0C4FA2B6807469B6B28466B
:1031800098472B6804469B6C3946284698472B681D
:1031900014FB00F45B6A394628469847A4B223180A
:1031A0001BB2A6F84630F8BD0023FAE7BC3F012069
:1031B000B83F012012810208548102088F81020861
:1031C000C03F0120C43F01202DE9F04F04468BB0E1
:1031D000A246002511F0ACFF6B4BE5634AF8403B7B
:1031E00004F16C0B504604F19809FFF7AFFA58460A
:1031F000FFF7ACFA04F1E00648460DF0E3FC304678
:10320000FFF7BAFA04F59678604BC4F8E030C4F8DA
:1032100028514046FFF7B0FA5D4BC4E962345D4B7C
:10322000C4E96435F0232A465046009329464FF4FA
:10323000A073FFF777FA271D4FF07F435146A3662F
:10324000384609F06DFBF0232A465846009329467C
:103250004FF4A073FFF766FA4F4BC4F89430594609
:10326000384609F05DFB4846A4225B21FFF74DFA82
:1032700008AA07A94846ADF81C50ADF820500DF03B
:1032800098F923234846A4F8D030FFF75BFF434A60
:10329000DFF82CA14FF0FF33C4E9352304F5C473E4
:1032A000C4F8C0304946384609F03AFB5D2269212E
:1032B0003046FFF72AFAD4F8E030C4F810A10DF137
:1032C0000809D3F88430A4F8145131464846984789
:1032D00099E8070004F58E7383E80700304B1B68FC
:1032E00004F5BA7B2BB92F4B2F4A60212F4823F0CE
:1032F0003DFC2F4B1B881BB92E4B2B4A6121F5E758
:103300002D4B2946186803F0FBF92C4A03460A2185
:10331000584613F0EDFBC4F828B130460DF0D6F84E
:10332000DFF8A0B0CDF820B0282308A93046ADF8CA
:1033300024300DF0EBF83146384609F0F1FA1C2242
:1033400040465B21FFF7E1F941464846C4F85CA1DD
:10335000A4F860510CF032FE99E8070004F5B4734C
:1033600083E80700222308A94046ADF82430CDF8B1
:1033700020B00DF0CBF83846414609F0D1FA20468E
:103380000BB0BDE8F08F00BF70940208F8920208FD
:10339000589402082D310008EDDCADFFF5F1EDFF8A
:1033A000B83F012012810208148202088F810208AE
:1033B000BC3F0120D6810208C43F01205F82020881
:1033C00069463FFFE89202087047704700F598731E
:1033D0000868496803C37047704770474160704789
:1033E00010B50022B1F90840B1F90A1002804280FC
:1033F0008480C18010BD704770477047064BC0F88D
:103400004C310023C0F8503100F5A273C0F84801D8
:10341000C0F84031704700BF653C000801230372CB
:103420007047704770477047014640680368103125
:103430005B6E184701464068036810311B6E1847E1
:10344000704710B4C26841685410034601EB620033
:10345000D20748BF0A599B685DF8044B48BFD35850
:1034600018470346406830B19A681AB9D86800F026
:10347000010070470120704710B50C21044622F06E
:1034800039FC204610BD10B51021044622F032FC54
:10349000204610BD10B54FF4AE71044622F02AFC50
:1034A000204610BD10B53821044622F023FC2046EA
:1034B00010BD10B52821044622F01CFC204610BD8A
:1034C00010B50FF03FFF0368BDE81040DB6B1847F5
:1034D00037B50446807A637A0130C0B29842A07250
:1034E00005D9012323720023A37203B030BDB4F9C0
:1034F0000C20002111F0CEFFC30707D500284FF69E
:10350000FF73C8BF012313FA80F000B2144BE081AF
:103510001988258B83B21348B0F90000ADF8060076
:10352000CA1A60682B445B1A12B2ADF80430036803
:103530002283ADF8002000221B69ADF80220694605
:103540009847A37A012BD0D1074B1B78002BCCD006
:103550000FF0F8FE03B0BDE830400FF0F9BE00BF39
:10356000543F0120563F01205E3F012010B5044624
:10357000D0F8400158B10368DB68984738B1D4F8F7
:10358000400103689B6898470023C4F8403110BD90
:10359000044B1B6893F858200AB1D86C00B998689E
:1035A000704700BF603F0120F8B5174604460E463D
:1035B0000FF0B2FF124B1C60124B2360124B002520
:1035C000C4E95135114BC4E95355186803682946BD
:1035D0009B68C4E94F55C4E955769847284603F0DF
:1035E00053F8FFF7D5FF1AF082FAFFF7D1FF1AF070
:1035F000F9FAFFF7CDFF1AF001FB2046F8BD00BF36
:10360000B43F0120249502080C950208603F012078
:10361000064BC0F84C310023C0F8503100F5A273BE
:10362000C0F84801C0F84031704700BF653C000851
:10363000064BC0F84C310023C0F8503100F5A2739E
:10364000C0F84801C0F84031704700BFCD410008C4
:10365000064BC0F84C310023C0F8503100F5A2737E
:10366000C0F84801C0F84031704700BF193B00085E
:10367000064BC0F84C310023C0F8503100F5A2735E
:10368000C0F84801C0F84031704700BF95400008BD
:10369000064BC0F84C310023C0F8503100F5A2733E
:1036A000C0F84801C0F84031704700BFCD3900086C
:1036B000064BC0F84C310023C0F8503100F5A2731E
:1036C000C0F84801C0F84031704700BF593F0008BA
:1036D000064BC0F84C310023C0F8503100F5A273FE
:1036E000C0F84801C0F84031704700BF8138000879
:1036F000064BC0F84C310023C0F8503100F5A273DE
:10370000C0F84801C0F84031704700BF1D3E0008B6
:10371000064BC0F84C310023C0F8503100F5A273BD
:10372000C0F84801C0F84031704700BF3937000881
:1037300003685B6A184700002DE9F14FD0E9556A2C
:103740000746B06803681B6A9847B0F5CC7F05D27E
:10375000434B444AA321444823F008FA70680368A5
:103760001B6A98470F2803D8404B3E4AA421F2E732
:10377000F06803681B6A98470B2803D83C4B394A0A
:10378000A521E8E70FF0DEFDDFF8EC9004300FF044
:1037900026FED9F8000010B10368DB689847D9F815
:1037A000000010B103681B689847DFF8D080D8F894
:1037B000000010B103685B699847D7F83C0110B16D
:1037C00003685B689847D8F8000010B103681B686D
:1037D0009847D7F83C0110B103689B689847F06898
:1037E0000021FFF7A5FF4FF0000B224BC0F804B0FB
:1037F000044680F808B00360B068036859465B6A05
:103800009847054603F0F6FB7068036859465B6A03
:1038100098472946064603F0C9FB331DC7F83C61AB
:10382000C9F80040C8F80050CAF800302B68C6F844
:1038300008A02846DB68EE639847336830461B686B
:1038400098472146284611F01FFE236820461B6931
:10385000984723685B69204601B0BDE8F04F1847E0
:1038600062820208F0820208C68302080D84020800
:10387000B084020878950208A83F0120A43F0120E7
:103880002DE9F14FD0E9556A0746B06803681B6A15
:10389000984741F2DB53984205D8444B444AA32150
:1038A000444823F063F9706803681B6A98470F283F
:1038B00003D8414B3E4AA421F2E7F06803681B6A33
:1038C00098470B2803D83D4B394AA521E8E70FF06C
:1038D00039FDDFF8F09004300FF081FDD9F80000D9
:1038E00010B10368DB689847D9F8000010B103688D
:1038F0001B689847DFF8D080D8F8000010B1036843
:103900005B699847D7F83C0110B103685B6898473A
:10391000D8F8000010B103681B689847D7F83C013D
:1039200010B103689B689847F0680021FFF700FF1B
:103930004FF0000B224BC0F804B0044680F808B0EA
:103940000360B068036859465B6A9847054602F011
:10395000E1FF7068036859465B6A98472946064646
:1039600002F0ACFF331DC7F83C61C9F80040C8F84D
:103970000050CAF800302B68C6F808A02846DB685B
:10398000EE639847336830461B68984721462846BF
:1039900011F07AFD236820461B69984723685B690C
:1039A000204601B0BDE8F04F184700BF6282020810
:1039B00053850208C68302080D840208B0840208F9
:1039C00078950208A83F0120A43F01202DE9F14F7E
:1039D000D0E9556A0746B06803681B6A984741F208
:1039E0001B63984205D8444B444AA321444823F022
:1039F000BDF8706803681B6A98470F2803D8414BCD
:103A00003E4AA421F2E7F06803681B6A98470B2836
:103A100003D83D4B394AA521E8E70FF093FCDFF8C6
:103A2000F09004300FF0DBFCD9F8000010B103680F
:103A3000DB689847D9F8000010B103681B68984705
:103A4000DFF8D080D8F8000010B103685B699847B0
:103A5000D7F83C0110B103685B689847D8F80000BC
:103A600010B103681B689847D7F83C0110B1036890
:103A70009B689847F0680021FFF75AFE4FF0000B53
:103A8000224BC0F804B0044680F808B00360B06868
:103A9000036859465B6A9847054603F08DFC7068D9
:103AA000036859465B6A98472946064603F062FC5C
:103AB000331DC7F83C61C9F80040C8F80050CAF887
:103AC00000302B68C6F808A02846DB68EE639847EC
:103AD000336830461B6898472146284611F0D4FCCD
:103AE000236820461B69984723685B69204601B01C
:103AF000BDE8F04F184700BF628202082B8602081B
:103B0000C68302080D840208B08402087895020872
:103B1000A83F0120A43F01202DE9F14FD0E9556ACB
:103B20000746B06803681B6A984741F2F7639842FA
:103B300005D8444B444AA321444823F017F8706841
:103B400003681B6A98470F2803D8414B3E4AA421BB
:103B5000F2E7F06803681B6A98470B2803D83D4BCF
:103B6000394AA521E8E70FF0EDFBDFF8F0900430CB
:103B70000FF035FCD9F8000010B10368DB689847F6
:103B8000D9F8000010B103681B689847DFF8D080AF
:103B9000D8F8000010B103685B699847D7F83C017A
:103BA00010B103685B689847D8F8000010B103684B
:103BB0001B689847D7F83C0110B103689B68984789
:103BC000F0680021FFF7B4FD4FF0000B224BC0F866
:103BD00004B0044680F808B00360B0680368594632
:103BE0005B6A9847054603F01BFB706803685946FB
:103BF0005B6A98472946064603F0F0FA331DC7F87A
:103C00003C61C9F80040C8F80050CAF800302B6881
:103C1000C6F808A02846DB68EE639847336830464C
:103C20001B6898472146284611F02EFC2368204641
:103C30001B69984723685B69204601B0BDE8F04FD7
:103C4000184700BF6282020807870208C68302087D
:103C50000D840208B084020878950208A83F01206C
:103C6000A43F01202DE9F14FD0E9556A0746B0681D
:103C700003681B6A984741F67B03984205D8444B7A
:103C8000444AA321444822F071FF706803681B6A0C
:103C900098470F2803D8414B3E4AA421F2E7F06829
:103CA00003681B6A98470B2803D83D4B394AA52166
:103CB000E8E70FF047FBDFF8F09004300FF08FFBE0
:103CC000D9F8000010B10368DB689847D9F8000004
:103CD00010B103681B689847DFF8D080D8F800005F
:103CE00010B103685B699847D7F83C0110B10368CD
:103CF0005B689847D8F8000010B103681B689847C4
:103D0000D7F83C0110B103689B689847F068002120
:103D1000FFF70EFD4FF0000B224BC0F804B0044635
:103D200080F808B00360B068036859465B6A98473A
:103D3000054603F0A5FB7068036859465B6A98471F
:103D40002946064603F07AFB331DC7F83C61C9F8E3
:103D50000040C8F80050CAF800302B68C6F808A028
:103D60002846DB68EE639847336830461B689847FF
:103D70002146284611F088FB236820461B69984796
:103D800023685B69204601B0BDE8F04F184700BFCB
:103D900062820208DF870208C68302080D840208D7
:103DA000B084020878950208A83F0120A43F0120B2
:103DB00003685B6A18470000002370B5C0E905334B
:103DC000C0E90733C0E90933C0E90B33436003722C
:103DD0008372C3814FF4807343630C4B03610C4BBC
:103DE0004172B3F900100B4B0B4AB3F9006002604B
:103DF00000F11005044681812846FDF77FFA284628
:103E00003146FDF77DFA204670BD00BFA49402083C
:103E1000543F0120563F01209C9502082DE9F047B0
:103E2000D0E9556A0746B06803681B6A984741F2B3
:103E3000BB53984205D8414B414AA321414822F047
:103E400095FE706803681B6A98470F2803D83E4B9D
:103E50003B4AA421F2E7F06803681B6A98473728B9
:103E600003D83A4B364AA521E8E70FF06BFADFF8A2
:103E7000E09004300FF0B3FAD9F8000010B10368F5
:103E8000DB689847D9F8000010B103681B689847B1
:103E9000DFF8C080D8F8000010B103685B6998476C
:103EA000D7F83C0110B103685B689847D8F8000068
:103EB00010B103681B689847D7F83C0110B103683C
:103EC0009B689847F0680021FFF772FF14210446B1
:103ED000FFF772FFB068036800215B6A98470546E8
:103EE00002F08EFC7068036800215B6A98472946DF
:103EF000064602F04FFC331DC7F83C61C9F800408C
:103F0000C8F80050CAF800302B68C6F808A0284648
:103F1000DB68EE639847336830461B689847214654
:103F2000284611F0B1FA236820461B699847236898
:103F300020465B69BDE8F047184700BF628202086F
:103F4000B9880208C68302080D840208B0840208FA
:103F5000A83F0120A43F01202DE9F047D0E9556A90
:103F60000746B06803681B6A984741F2236398428A
:103F700005D8414B414AA321414822F0F7FD706822
:103F800003681B6A98470F2803D83E4B3B4AA4217D
:103F9000F2E7F06803681B6A9847372803D83A4B62
:103FA000364AA521E8E70FF0CDF9DFF8E0900430BC
:103FB0000FF015FAD9F8000010B10368DB689847D4
:103FC000D9F8000010B103681B689847DFF8C0807B
:103FD000D8F8000010B103685B699847D7F83C0136
:103FE00010B103685B689847D8F8000010B1036807
:103FF0001B689847D7F83C0110B103689B68984745
:10400000F0680021FFF7D4FE14210446FFF7D4FE28
:10401000B068036800215B6A9847054603F050F9D1
:104020007068036800215B6A98472946064603F0DA
:1040300011F9331DC7F83C61C9F80040C8F80050B9
:10404000CAF800302B68C6F808A02846DB68EE6383
:104050009847336830461B6898472146284611F038
:1040600013FA236820461B699847236820465B693A
:10407000BDE8F047184700BF62820208AD89020818
:10408000C68302080D840208B0840208A83F0120FC
:10409000A43F01202DE9F047D0E9556A0746B068F2
:1040A00003681B6A9847B0F5B85F05D2404B414A98
:1040B000A321414822F05AFD706803681B6A9847A3
:1040C0000F2803D83D4B3B4AA421F2E7F068036870
:1040D0001B6A9847372803D8394B364AA521E8E7A9
:1040E0000FF030F9DFF8DC9004300FF078F9D9F8F0
:1040F000000010B10368DB689847D9F8000010B1E0
:1041000003681B689847DFF8C080D8F8000010B13A
:1041100003685B699847D7F83C0110B103685B6896
:104120009847D8F8000010B103681B689847D7F883
:104130003C0110B103689B689847F0680021FFF7C5
:1041400037FE14210446FFF737FEB06803680021EC
:104150005B6A9847054602F0E7FF70680368002134
:104160005B6A98472946064602F0A8FF331DC7F848
:104170003C61C9F80040C8F80050CAF800302B680C
:10418000C6F808A02846DB68EE63984733683046D7
:104190001B6898472146284611F076F92368204687
:1041A0001B699847236820465B69BDE8F0471847BC
:1041B00062820208A58A0208C68302080D840208EA
:1041C000B0840208A83F0120A43F01202DE9F04758
:1041D000D0E9556A0746B06803681B6A984741F6FC
:1041E0007B03984205D8414B414AA321414822F024
:1041F000BDFC706803681B6A98470F2803D83E4BC4
:104200003B4AA421F2E7F06803681B6A9847372805
:1042100003D83A4B364AA521E8E70FF093F8DFF8C8
:10422000E09004300FF0DBF8D9F8000010B103681B
:10423000DB689847D9F8000010B103681B689847FD
:10424000DFF8C080D8F8000010B103685B699847B8
:10425000D7F83C0110B103685B689847D8F80000B4
:1042600010B103681B689847D7F83C0110B1036888
:104270009B689847F0680021FFF79AFD14210446D7
:10428000FFF79AFDB068036800215B6A984705460E
:1042900003F0F6F87068036800215B6A98472946C6
:1042A000064603F0CBF8331DC7F83C61C9F800405F
:1042B000C8F80050CAF800302B68C6F808A0284695
:1042C000DB68EE639847336830461B6898472146A1
:1042D000284611F0D9F8236820461B6998472368BF
:1042E00020465B69BDE8F047184700BF62820208BC
:1042F000998B0208C68302080D840208B084020864
:10430000A83F0120A43F0120406A7047806A70479F
:1043100070478B88C0690A68DB0A50F82300104494
:10432000704710B50446BAB1107B68B1537BD27A9E
:104330001B0203F4E0631A43236A03EB82031A8827
:104340008A4202D193F9020010BD05D8013880B22B
:1043500004330028F3D1F7E70020F5E710B52C214E
:10436000044621F0C7FC204610BD000030B58BB0DC
:104370000446BDF860500895BDF85C5007959DF85F
:10438000505006959DF84C5005959DF84850049561
:104390009DF8445003959DF8405002959DF83C507F
:1043A0000195BDF83850009510F03CFC064B236099
:1043B000159BE361169B2362199B63621A9BA362A0
:1043C00020460BB030BD00BFC0950208704700000A
:1043D00010B5034B036004460DF0BAFA204610BD39
:1043E0009096020810B5064B036004460DF0B0FA33
:1043F000204641F2FC6121F07DFC204610BD00BF4B
:104400009096020810B500F58054D4F8F8360133C0
:10441000B42BC4F8F83606D10EF094FFFFF718F964
:104420000023C4F8F83610BD0022C0E90122C0E91B
:104430000322C0E90522C0E907224FF4807282847A
:10444000014A0260704700BF2896020838B526224C
:1044500004460D46002122F0A2FD2046FFF7E4FFAE
:10446000064B23602B88E384FF23204684F8283002
:1044700029460CF065FA204638BD00BF8CA0020822
:104480002DE9F04F044699B0A046002610F050FEEA
:10449000DE4BE66348F8403B04F16C0B4046FEF708
:1044A00055F94FF6FF7516A95846ADF85850FFF765
:1044B000CDFF04F1980304F1C40918460A93FEF7EE
:1044C00045F94846FEF742F904F1F00318460B930C
:1044D000FEF73CF904F58E7318460C930AF062FF60
:1044E00004F5B27318461193FCF7ECFFC84BC4F8FF
:1044F00064312433C4F86C3104F5BC731846C4F835
:104500007061C44F10934FF0010AFEF71FF904F5D4
:10451000D2731846C4F8787184F89CA10F93FEF703
:1045200015F984F8C8A104F5E87AC4F8A4715046D6
:10453000FEF722F904F5067318460493FEF71CF9FA
:1045400004F518731846B44F0E93FEF7FFF804F500
:104550002573C4F860721846C4F88C62A4F890629F
:104560000D93FEF7F3F804F53273C4F8947218460D
:10457000C4F8C062A4F8C462A84F0393FEF7FCF825
:1045800004F54573C4F8C87216A91846C4F8106338
:104590000693ADF85850FFF759FF04F5507316A96C
:1045A00018460793ADF85850FFF750FF04F55B73BA
:1045B00016A918460893ADF85850FFF747FF04F5C1
:1045C000667318460593FEF7D7F804F57973C4F8B7
:1045D000987316A91846C4F8E0630993ADF85850CB
:1045E000FFF734FF04F58053F025C3F8F8664FF465
:1045F000965104F587600DF0A1F9324640460095CA
:104600004FF4A0733146271DFEF78CF84FF07F431F
:10461000A3664146384608F083F9584632463821A9
:10462000FEF773F84FF00402584616A9ADF858206B
:104630000CF086F9594638464FF0FF3B08F070F908
:104640004FF4A07332460A9800953146FEF76AF897
:104650000A99C4F8C0B0384608F062F90222EC2387
:104660001146484600934FF49E73FEF75BF86C4B7F
:10467000C4F8EC304946384608F052F932460B98F7
:1046800000950323A021FEF74DF8DC230B9984F855
:1046900016313846C4F818B108F042F90E237222D8
:1046A0000C9800939A21FEF73DF8C023C4F85031CE
:1046B0004FF43453C4F858315A4BC4F8703149F6AA
:1046C0006103A4F87431119B0C99C4F84431C4E916
:1046D000525538461425C4F85C61C4F8546108F09A
:1046E0001FF905236E22109800951A21FEF71AF87B
:1046F0001099C4F8A0B1384608F012F905236E22CB
:104700000F9800954FF49071FEF70CF80F99C4F8CC
:10471000CCB1384608F004F94FF034085E2212ADEF
:10472000114613235046CDF80080FDF7FBFF51469C
:104730002846C4F800B2A4F804620BF03FFC95E8E8
:10474000070004F503794FF0010389E8070051469B
:1047500084F8083228460BF031FC95E80700324B0C
:10476000169389E807000D2350464FF0BE0916A99D
:10477000ADF85C300BF0CAFE514684F8069238461C
:1047800008F0CEF813235D220498CDF80080CC21E8
:10479000FDF7C8FF0499C4F848B22846A4F84C6253
:1047A0000BF00CFC95E8070004F5157A4FF00308B0
:1047B0008AE80700049984F8508228460BF0FEFB33
:1047C00095E80700184B16938AE807000C23049815
:1047D000ADF85C3016A90BF099FE4FF0780A0499F9
:1047E00084F84E92384608F09BF83D220E98CDF89A
:1047F00000A00F230221FDF795FF4FF03C090B4B62
:104800000E99C4F88C3284F8869211E090960208D2
:10481000EC9C02088893020824A00208F89202087F
:1048200037380CFF0C0C99FFE89202083493ADFF67
:104830003846C4F888B2A4F8908208F071F84A4665
:104840000D98CDF800A00F234FF49771FDF76AFF84
:10485000794BC4F8C0320D9984F8BA923846C4F83E
:10486000BCB2A4F8C48208F05BF86F2203982E2132
:10487000FDF74BFF714BC4F8F832D4F8C8320399F6
:10488000D3F88430A4F8FC622846984795E80700DE
:1048900004F541794FF0010389E8070084F80033FB
:1048A000D4F8C8320399D3F884302846984795E85D
:1048B0000700634B1B6889E8070004F582692BB980
:1048C000604B614A6021614822F050F9604B1B88BF
:1048D000082B03D85F4B5C4A6121F4E7DFF880A125
:1048E0000821DAF8000001F00BFF5B4A03460A21B9
:1048F000484612F0FDF80398C4F810930BF0E6FD5B
:10490000564B0398169316A90B234FF0D209ADF816
:104910005C300BF0FBFD039984F8FE92384607F0FB
:10492000FFFFE62206983821FDF7EFFE0698ADF866
:10493000588016A90CF004F80699384607F0F0FFE5
:10494000E5220798DF21FDF7E0FE0798ADF85880D3
:1049500016A90BF0F5FF0799384607F0E1FF089814
:1049600032463821FDF7D1FE4FF004020898ADF829
:10497000582016A90BF0E4FF0899384607F0D0FF3D
:1049800005986F22F521FDF7C0FED4F898332B4A25
:10499000D3F884300599C4F8C8232846A4F8CC631A
:1049A000984795E8070004F5757383E80700244AE3
:1049B00084F8D0831368C4F8DC63C4E9F56B04F2AF
:1049C0002445002B3FF47CAF214A1388082B81D962
:1049D000DAF80000082101F093FE1F4A03460A217D
:1049E000284612F085F80598C4F8E0530BF06EFDE8
:1049F0001A4B0598169316A90A23ADF85C300BF0F4
:104A000085FD059984F8CE93384607F089FF09980B
:104A10000222DF21FDF779FE4FF004020998ADF87C
:104A2000582016A90BF08CFF3846099907F078FF3B
:104A3000204619B0BDE8F08F3493ADFF5FABDEFFC9
:104A4000B83F012012810208148202088F810208F7
:104A5000BC3F0120D68102085F820208E89202086A
:104A6000C43F01207047000010B5034B03600446AB
:104A70000CF06EFF204610BDC496020810B5064B20
:104A8000036004460CF064FF204641F2F86121F017
:104A900031F9204610BD00BFC49602082DE9F04F41
:104AA000044699B0A046002610F042FBC04BE663D6
:104AB00048F8403B04F16C0B4046FDF747FE4FF6CB
:104AC000FF7516A904F1980A5846ADF85850FFF73B
:104AD000BDFC5046FDF73AFE04F1C40318460A93A4
:104AE000FDF734FE04F1F00318460B93FDF72EFE9C
:104AF00004F58E7318460C930AF054FC04F5B27357
:104B000018461193FCF7DEFCAA4BC4F86431243339
:104B1000C4F86C3104F5BC731846C4F87061A64F34
:104B200010934FF00109FDF711FE04F5D273C4F89C
:104B3000787184F89C9118460F93FDF707FE04F5F1
:104B4000E8731846C4F8A47184F8C8919B4F039386
:104B500004F50779FDF710FEC4F8D071C4F81862A7
:104B60004846FDF709FE04F51A73C4F81C7218468E
:104B7000C4F864620493FDF7FFFD04F52C73184636
:104B80000593FDF7F9FD04F53E7318468C4F0E931F
:104B9000FDF7DCFD04F54B73C4F8F8721846C4F851
:104BA0002463A4F828630D93FDF7D0FD04F5587332
:104BB000C4F82C7316A91846C4F85863A4F85C63AB
:104BC0000693ADF85850FFF741FC04F5637316A93E
:104BD00018460793ADF85850FFF738FC04F56E738C
:104BE00016A918460893ADF85850FFF72FFC04F5A6
:104BF0007973184616A90993ADF85850FFF726FCAB
:104C0000F0254FF4965104F587600CF097FE32467C
:104C1000404600954FF4A0733146271DFDF782FDF5
:104C20004FF07F43A3664146384607F079FE32468F
:104C300058463821FDF769FD4FF00403584616A980
:104C4000ADF858300BF07CFE5946384607F068FE48
:104C50003246504600954FF4A0733146FDF762FD91
:104C60004FF0FF335146C4F8C030384607F058FEC5
:104C70000222EC2311460A9800934FF49E73FDF72D
:104C800051FD504B0A99C4F8EC30384607F048FE05
:104C900032460B9800950323A021FDF743FD4FF00A
:104CA000FF33C4F81831DC230B9984F816313846E9
:104CB00007F036FE0E2372220C9800939A21FDF71E
:104CC00031FDC023C4F850314FF43453C4F8583187
:104CD0003D4BC4F8703149F66103A4F87431119B5F
:104CE0000C99C4F84431C4E9525538461425C4F827
:104CF0005C61C4F8546107F013FE6E2210980095B1
:104D000005231221FDF70EFD4FF0FF331099C4F873
:104D1000A031384607F004FE6E220F980095052357
:104D20004FF49471FDF7FEFC4FF0FF33C4F8CC3123
:104D30000F99384607F0F4FD16220398B821FDF7C5
:104D4000E4FC224BC4F80032D4F8D0310399D3F8F4
:104D50008430A4F8046212AD2846984795E807000D
:104D6000D4F8D03104F503784FF0030A88E807003F
:104D7000D3F88430039984F808A22846984795E828
:104D8000070088E80700DFF85C80D8F8003004F5F9
:104D9000826B2BB90E4B0F4A60210F4821F0E6FEC3
:104DA0000E4B1B88012B1FD80D4B0A4A6121F4E7DB
:104DB000C4960208EC9C020888930208F892020844
:104DC00024A0020837380CFF0C0C99FF565659FFE7
:104DD00012810208148202088F810208BC3F012060
:104DE000D6810208B83F0120A14B0121186801F0CB
:104DF00087FCA04A03460A21584611F079FE039821
:104E0000C4F818B20BF062FB9B4B0398169316A9DB
:104E10001923ADF85C300BF079FB0399384607F0A5
:104E20007FFDC32275214846FDF76FFCD4F81C3284
:104E30009249D3F88430C4F84C1228464946A4F865
:104E40005062984795E8070004F5167BD4F81C32A9
:104E50008BE807004FF00101D3F8843084F8541236
:104E600028464946984795E80700D8F800308BE86F
:104E7000070004F2244B002B8CD081490B88022BB5
:104E800092D97B4A0221106801F03AFC794A034624
:104E90000A21584611F02CFE4846C4F864B20BF0C3
:104EA00015FB16AA744B1693114618234846ADF805
:104EB0005C300BF02BFB494638464FF0340907F0C5
:104EC0002FFD13230498CDF80090B4228C21FDF718
:104ED00029FC4FF0FF320499C4F898222846A4F820
:104EE0009C620BF06BF895E8070004F5297888E8D8
:104EF00007004FF0010184F8A012284604990BF036
:104F00005DF895E807005C4B169388E807001723C7
:104F10000498ADF85C3016A94FF0BE080BF0F6FA15
:104F2000049984F89E82384607F0FAFC132305980A
:104F3000CDF800900722A521FDF7F4FB4FF0FF32DA
:104F40000599C4F8E0222846A4F8E4620BF036F88C
:104F500095E8070004F53B7989E80700059984F88E
:104F6000E8A228460BF02AF895E80700424B169372
:104F700089E8070016230598ADF85C3016A90BF0F8
:104F8000C5FA059984F8E68238464FF0780807F0AC
:104F9000C7FC3C4D0E98CDF800803D220A2302212B
:104FA000FDF7C0FB4FF03C094FF0FF33C4E9C835B3
:104FB0000E99A4F828A3384684F81E9307F0B0FC95
:104FC0004A460D98CDF800800A234FF49A71FDF7F8
:104FD000A9FB4FF0FF33C4E9D5350D99A4F85CA3C4
:104FE000384684F8529307F09BFCE6220698382155
:104FF000FDF78BFB0698ADF858A016A90BF0A0FCA6
:105000000699384607F08CFCE5220798DF21FDF76A
:105010007CFB0798ADF858A016A90BF091FC0799F6
:10502000384607F07DFC324608983821FDF76DFBC5
:105030004FF004050898ADF8585016A90BF080FC05
:105040000899384607F06CFC02220998DF21FDF729
:105050005CFB0998ADF8585016A90BF071FC384666
:10506000099907F05DFC204619B0BDE8F08F00BF3C
:10507000C43F01205F820208E8920208565659FF99
:10508000BC3F01203493ADFF7047000010B5034BC7
:10509000036004460CF05CFC204610BDF896020844
:1050A00010B5064B036004460CF052FC20464FF44A
:1050B000B15120F01FFE204610BD00BFF896020837
:1050C00010B500F58054D4F81C360133B42BC4F865
:1050D0001C3606D10EF036F9FEF7DAFA0023C4F8D2
:1050E0001C3610BD2DE9F04F044695B0A1460026B0
:1050F00010F01EF8D74BE66349F8403B4846FDF7F1
:1051000025FB04F16C0304F1980A18460693FDF799
:105110001DFB5046FDF71AFB04F1C4031846079324
:10512000FDF714FB04F1F003184608930AF03AF96E
:1051300004F59C7318460D93FCF7C4F9C64BC4F8EC
:1051400038312433C4F8403104F5A6731846C4F846
:105150004461C24D0C934FF00107FDF7F7FA04F5D7
:10516000BC7304F5D2781846C4F84C5184F87071B9
:105170000B93FDF7EBFAC4F8785184F89C71404624
:10518000FDF7FAFA04F5F67318460393FDF7F4FAFF
:1051900004F50D731846B24D0493FDF7EDFA04F5CE
:1051A0002073C4F834521846C4F87C62AD4F0A9399
:1051B000FDF7CCFA04F52D73C4F880721846C4F8D4
:1051C000AC62A4F8B0620993FDF7C0FA04F53A7333
:1051D000C4F8B4721846C4F8E062A4F8E462059317
:1051E000FDF7CAFA04F58053C4F8E852C4F83063F6
:1051F000F025C3F81C664FF4965104F557700CF077
:105200009DFB3246484600954FF4A0733146271D5A
:10521000FDF788FA4FF07F434946A366384607F00A
:105220007FFB4FF0FF3B4FF4A0733246069800958A
:105230003146FDF777FA0699C4F894B0384607F07E
:105240006FFB0222EC231146504600934FF49F73EC
:10525000FDF768FA844BC4F8C0305146384607F071
:105260005FFB3246079800950323A021FDF75AFA09
:10527000DC23079984F8EA303846C4F8ECB007F02C
:105280004FFB0E237222089800939B21FDF74AFAE8
:10529000C023C4F824314FF43453C4F82C31734B79
:1052A000C4F8443149F66103A4F848310D9B0899CC
:1052B000C4F81831C4E9475538462825C4F8306188
:1052C000C4F8286107F02CFB052365220C98009593
:1052D0001321FDF727FA0C99C4F874B1384607F08A
:1052E0001FFB052364220B9800954FF49571FDF781
:1052F00019FA0B99C4F8A0B1384607F011FB342312
:105300000EAD5F224046009374211323FDF70AFA85
:1053100041462846C4F8D4B1A4F8D8610AF04EFE3C
:1053200095E8070004F5F0794FF0030A89E80700D3
:105330004146284684F8DDA10AF040FE95E80700C2
:105340004FF0010389E80700414684F8DC31284624
:105350000AF034FE95E80700454B129389E80700F0
:105360001123404612A94FF0BE09ADF84C300BF0A6
:10537000CDF84146384684F8DA9107F0D1FA342264
:10538000132303980092BB215F22FDF7CBF9039909
:10539000C4F81CB22846A4F820620AF00FFE95E873
:1053A000070004F50A7888E80700039984F825A225
:1053B00028460AF003FE95E8070088E807000399ED
:1053C00084F824A228460AF0F9FD95E80700284B46
:1053D000129388E8070010230398ADF84C3012A907
:1053E0000BF094F8039984F82292384607F098FA63
:1053F000712204983521FDF788F91E4BC4F86432F8
:10540000D4F834320499D3F88430A4F8686228467A
:10541000984795E8070004F51C784FF0010388E8E9
:10542000070084F86C32D4F834320499D3F884300D
:105430002846984795E807000F4B1B6888E8070047
:1054400004F54D7803BB0D4B0D4A60210D4821F04A
:105450008DFB00BFF8960208EC9C020888930208B6
:10546000F892020824A0020837380CFF0C0C99FFB0
:10547000E89202085FABDEFFB83F0120128102080C
:10548000148202088F810208544B1B88072B03D813
:10549000534B544A6121D9E7534B0721186801F057
:1054A0002FF9524A03460A21404611F021FB049885
:1054B000C4F87C820BF00AF84FF0D2084C4A0498EA
:1054C00012920F2312A9ADF84C300BF01FF804997B
:1054D00084F86A82384607F023FA78210A233C22AE
:1054E0000A9800914FF49B71FDF71CF94FF03C09AD
:1054F0004049C4F8AC1238460A99C4F8A8B2A4F8D6
:10550000B0A284F8A69207F00BFA78200A233D2275
:10551000009002210998FDF705F93649C4F8E01218
:1055200038460999C4F8DCB2A4F8E4A284F8DA9207
:1055300007F0F6F96F220598F321FDF7E6F8D4F8A5
:10554000E8322D49D3F88430C4F818132846059959
:10555000A4F81C63984795E80700D4F8E83204F5EE
:10556000497686E80700D3F88430059984F820A3AB
:105570002846984795E8070086E807001F490B680A
:1055800004F55275002B3FF45EAF14490B88072BCE
:105590007FF67EAF144B0721186801F0B1F8134A6B
:1055A00003460A21284611F0A3FA0598C4F830539F
:1055B0000AF08CFF0E4A059812924FF00E0312A9C2
:1055C000ADF84C300AF0A2FF3846059984F81E83E6
:1055D00007F0A6F9204615B0BDE8F08FBC3F0120CA
:1055E000D681020814820208C43F01205F820208AB
:1055F000E89202083493ADFF5FABDEFFB83F0120B5
:105600007047000010B5034B036004460CF0A0F98E
:10561000204610BD2C97020810B5064B03600446C7
:105620000CF096F9204641F21C6120F063FB204605
:1056300010BD00BF2C9702082DE9F04F044693B02F
:10564000A34600260FF074FD9C4BE6634BF8403BED
:105650005846FDF77BF804F16C03184604F19809ED
:10566000059304F1C408FDF771F84846FDF76EF89C
:105670004046FDF76BF804F1F0031846069309F075
:1056800091FE04F59C7318460B93FBF71BFF8C4BA4
:10569000C4F838312433C4F8403104F5A6731846F1
:1056A000C4F84461874D0A934FF00107FDF74EF8A7
:1056B00004F5BC7304F5D27A1846C4F84C5184F84A
:1056C00070710993FDF742F8C4F8785184F89C7121
:1056D0005046FDF751F87C4DC4F8A45104F5F87319
:1056E0001846C4F8EC610293FDF746F804F50F7311
:1056F000C4F8F0511846C4F838620393FDF73CF83B
:1057000004F5217318460493FDF736F804F5337356
:1057100018466E4D0893FDF719F804F540731846C6
:10572000C4F8CC52C4F8F862A4F8FC620793FDF701
:105730000DF8C4F800534FF49651F02504F5577056
:10574000C4F82C63A4F830630CF0F8F832465846DD
:1057500000954FF4A0733146FCF7E4FF271D4FF08E
:105760007F435946A366384607F0DAF84FF0FF3B0F
:105770004FF4A0733246059800953146FCF7D2FFEE
:105780000599C4F894B0384607F0CAF80222EC2311
:105790001146484600934FF49E73FCF7C3FF4C4BF1
:1057A000C4F8C0304946384607F0BAF83246404699
:1057B00000950323A021FCF7B5FFDC23414684F8C4
:1057C000EA303846C4F8ECB007F0AAF80E2372228B
:1057D000069800939A21FCF7A5FFC023C4F8243152
:1057E0004FF43453C4F82C313A4BC4F8443149F6E1
:1057F0006103A4F848310B9B0699C4F81831C4E939
:10580000475538462825C4F83061C4F8286107F0A8
:1058100087F8052365220A9800951321FCF782FF7B
:105820000A99C4F874B1384607F07AF8052365225E
:10583000099800954FF49471FCF774FF0999C4F826
:10584000A0B1384607F06CF81622B8215046FCF794
:105850005CFF214BC4F8D431D4F8A431A4F8D8614A
:105860000CADD3F8843051462846984795E8070098
:10587000D4F8A43104F5F0794FF0030889E8070063
:10588000D3F8843084F8DC8151462846984795E85F
:105890000700124B1B6889E8070004F54D792BB906
:1058A0000F4B104A6021104821F060F90F4B1B8804
:1058B000032B1FD80E4B0B4A6121F4E72C970208EB
:1058C000EC9C020888930208F892020824A00208BF
:1058D00037380CFF0C0C99FF565659FFB83F012082
:1058E00012810208148202088F810208BC3F012045
:1058F000D68102087D4B4146186800F001FF7C4AC2
:1059000003460A21484611F0F3F85046C4F8EC91DA
:105910000AF0DCFDDFF8EC91CDF840901D235046F5
:1059200010A9ADF844300AF0F1FD5146384606F0B2
:10593000F7FF0298C3227521FCF7E7FED4F8F03197
:105940006C4AD3F884300299C4F820222846A4F87F
:105950002462984795E8070004F50B7AD4F8F031F3
:105960008AE807004FF00102D3F88430029984F8E6
:1059700028222846984795E807008AE807005E4AEB
:10598000136804F5527A002B8AD05C4A1388042BE2
:1059900090D9564B0421186800F0B2FE544A0346D1
:1059A0000A21504611F0A4F80298C4F838A20AF06F
:1059B0008DFD1C230298ADF8443010A9CDF840901D
:1059C0000AF0A4FD0299384606F0AAFF3423039892
:1059D0000093B42213238C21FCF7A4FE0399A4F8AE
:1059E00070622846C4F86CB20AF0E8FA95E807003D
:1059F00004F51E7A8AE807004FF00102039984F843
:105A0000742228460AF0DAFA95E807001B238AE890
:105A100007000398ADF8443010A94FF0BE0ACDF846
:105A200040900AF073FD039984F872A2384606F09C
:105A300077FF34230498009307221323A521FCF752
:105A400071FE0499A4F8B8622846C4F8B4B20AF00A
:105A5000B5FA95E8070004F5307686E80700049962
:105A600084F8BC8228460AF0A9FA95E807001A23B0
:105A700086E807000498ADF8443010A9CDF84090AE
:105A800078260AF043FD049984F8BAA2384606F055
:105A900047FF4FF03C090898194D00960A233D2214
:105AA0000221FCF73FFE0899C4F8F4B23846C4F866
:105AB000F852A4F8FC8284F8F29206F031FF0798BD
:105AC00000960A234A464FF49A71FCF72BFE38469B
:105AD000C4E9CAB50799A4F8308384F8269306F080
