:020000040800F2
:1000000000000320D50F0008952D0008972D00084B
:10001000992D00089B2D00089D2D00080000000070
:1000200000000000000000000000000081E6000861
:100030009F2D00080000000011E70008A7DF00085E
:1000400025100008251000082510000825100008BC
:1000500025100008251000082510000825100008AC
:10006000251000082510000825100008251000089C
:10007000251000082510000825100008251000088C
:10008000251000082510000825100008251000087C
:10009000251000082510000825100008251000086C
:1000A000251000082510000825100008251000085C
:1000B000251000082510000825100008251000084C
:1000C000251000082510000825100008251000083C
:1000D000251000082510000825100008251000082C
:1000E000251000082510000825100008251000081C
:1000F000251000082510000825100008251000080C
:1001000025100008251000082510000825100008FB
:100110002510000825100008A12D00082510000852
:1001200025100008251000082510000825100008DB
:1001300025100008251000082510000825100008CB
:1001400025100008251000082510000825100008BB
:1001500025100008251000082510000825100008AB
:10016000251000082510000825100008251000089B
:1001700025100008251000082510000800000000C8
:10018000251000082510000825100008251000087B
:10019000251000082510000825100008251000086B
:0C01A000AD2D000825100008B92D000846
:1001B00010B5054C237833B9044B13B10448AFF3A1
:1001C00000800123237010BD800300200000000088
:1001D000C4BD020808B5034B1BB103490348AFF384
:1001E000008008BD0000000084030020C4BD020898
:1001F00001F0FF01102A2BDB10F0070F08D010F8D8
:10020000013B013A8B422DD010F0070F42B3F6D1DB
:10021000F0B441EA012141EA014122F007047FF0F4
:1002200000070023F0E80256083C85EA010586EA4B
:10023000010685FA47F5A3FA87F586FA47F6A5FA87
:1002400087F68EB9EED1F0BC01F0FF0102F0070293
:1002500032B110F8013B013A83EA010313B1F8D13E
:100260000020704701387047002D06BF354603381F
:10027000073815F0010F07D1013015F4807F02BF58
:10028000013015F4C03F0130F0BC0138704700BFA9
:1002900081F0004102E000BF83F0004330B54FEA37
:1002A00041044FEA430594EA050F08BF90EA020FA4
:1002B0001FBF54EA000C55EA020C7FEA645C7FEA37
:1002C000655C00F0E2804FEA5454D4EB5555B8BF5A
:1002D0006D420CDD2C4480EA020281EA030382EACB
:1002E000000083EA010180EA020281EA0303362D5D
:1002F00088BF30BD11F0004F4FEA01314FF4801C30
:100300004CEA113102D0404261EB410113F0004F41
:100310004FEA03334CEA133302D0524263EB4303F8
:1003200094EA050F00F0A780A4F10104D5F1200E96
:100330000DDB02FA0EFC22FA05F2801841F10001F1
:1003400003FA0EF2801843FA05F359410EE0A5F1C5
:1003500020050EF1200E012A03FA0EFC28BF4CF0F6
:10036000020C43FA05F3C01851EBE37101F00045AC
:1003700007D54FF0000EDCF1000C7EEB00006EEBB9
:100380000101B1F5801F1BD3B1F5001F0CD3490843
:100390005FEA30004FEA3C0C04F101044FEA44529A
:1003A00012F5800F80F09A80BCF1004F08BF5FEA21
:1003B000500C50F1000041EB045141EA050130BD01
:1003C0005FEA4C0C404141EB0101013C28BFB1F513
:1003D000801FE9D291F0000F04BF01460020B1FA5E
:1003E00081F308BF2033A3F10B03B3F120020CDA31
:1003F0000C3208DD02F1140CC2F10C0201FA0CF00F
:1004000021FA02F10CE002F11402D8BFC2F1200C73
:1004100001FA02F120FA0CFCDCBF41EA0C01904029
:10042000E41AA2BF01EB0451294330BD6FEA040472
:100430001F3C1CDA0C340EDC04F11404C4F120025D
:1004400020FA04F001FA02F340EA030021FA04F36F
:1004500045EA030130BDC4F10C04C4F1200220FAC6
:1004600002F001FA04F340EA0300294630BD21FA04
:1004700004F0294630BD94F0000F83F4801306BFCA
:1004800081F480110134013D4EE77FEA645C18BFBE
:100490007FEA655C29D094EA050F08BF90EA020F55
:1004A00005D054EA000C04BF1946104630BD91EA4D
:1004B000030F1EBF0021002030BD5FEA545C05D150
:1004C0004000494128BF41F0004130BD14F580048F
:1004D0003CBF01F5801130BD01F0004545F0FE4103
:1004E00041F470014FF0000030BD7FEA645C1ABF38
:1004F000194610467FEA655C1CBF0B46024650EA6F
:10050000013406BF52EA033591EA030F41F400219A
:1005100030BD00BF90F0000F04BF0021704730B520
:100520004FF4806404F132044FF000054FF00001F5
:1005300050E700BF90F0000F04BF0021704730B5B6
:100540004FF4806404F1320410F0004548BF40428B
:100550004FF000013EE700BF42004FEAE2014FEAE0
:1005600031014FEA02701FBF12F07F4393F07F4FBB
:1005700081F06051704732F07F4208BF704793F0BE
:100580007F4F04BF41F40021704730B54FF46074D1
:1005900001F0004521F000411CE700BF50EA0102D4
:1005A00008BF704730B54FF000050AE050EA01027D
:1005B00008BF704730B511F0004502D5404261EBED
:1005C00041014FF4806404F132045FEA915C3FF42E
:1005D000D8AE4FF003025FEADC0C18BF03325FEACB
:1005E000DC0C18BF033202EBDC02C2F1200300FA7C
:1005F00003FC20FA02F001FA03FE40EA0E0021FAA1
:1006000002F11444BDE600BF70B54FF0FF0C4CF48E
:10061000E06C1CEA11541DBF1CEA135594EA0C0F40
:1006200095EA0C0F00F0DEF82C4481EA030621EA7B
:100630004C5123EA4C5350EA013518BF52EA0335B6
:1006400041F4801143F4801338D0A0FB02CE4FF068
:100650000005E1FB02E506F00042E0FB03E54FF098
:100660000006E1FB03569CF0000F18BF4EF0010E90
:10067000A4F1FF04B6F5007F64F5407404D25FEA8C
:100680004E0E6D4146EB060642EAC62141EA55513F
:100690004FEAC52040EA5E504FEACE2EB4F1FD0C81
:1006A00088BFBCF5E06F1ED8BEF1004F08BF5FEAFF
:1006B000500E50F1000041EB045170BD06F00046B1
:1006C00046EA010140EA020081EA0301B4EB5C045E
:1006D000C2BFD4EB0C0541EA045170BD41F4801156
:1006E0004FF0000E013C00F3AB8014F1360FDEBF7B
:1006F000002001F0004170BDC4F10004203C35DA57
:100700000C341BDC04F11404C4F1200500FA05F3D9
:1007100020FA04F001FA05F240EA020001F000427A
:1007200021F0004110EBD37021FA04F642EB0601F0
:100730005EEA430E08BF20EAD37070BDC4F10C041A
:10074000C4F1200500FA04F320FA05F001FA04F2DE
:1007500040EA020001F0004110EBD37041F10001CA
:100760005EEA430E08BF20EAD37070BDC4F12005D5
:1007700000FA05F24EEA020E20FA04F301FA05F23D
:1007800043EA020321FA04F001F0004121FA04F2E5
:1007900020EA020000EBD3705EEA430E08BF20EAB5
:1007A000D37070BD94F0000F0FD101F000464000EF
:1007B00041EB010111F4801F08BF013CF7D041EA71
:1007C000060195F0000F18BF704703F00046520075
:1007D00043EB030313F4801F08BF013DF7D043EA46
:1007E0000603704794EA0C0F0CEA135518BF95EAFC
:1007F0000C0F0CD050EA410618BF52EA4306D1D183
:1008000081EA030101F000414FF0000070BD50EAA1
:10081000410606BF1046194652EA430619D094EA2B
:100820000C0F02D150EA013613D195EA0C0F05D115
:1008300052EA03361CBF104619460AD181EA030169
:1008400001F0004141F0FE4141F470014FF0000021
:1008500070BD41F0FE4141F4780170BD70B54FF0BC
:10086000FF0C4CF4E06C1CEA11541DBF1CEA13553C
:1008700094EA0C0F95EA0C0F00F0A7F8A4EB05041E
:1008800081EA030E52EA03354FEA013100F0888015
:100890004FEA03334FF0805545EA131343EA1263DE
:1008A0004FEA022245EA111545EA10654FEA002693
:1008B0000EF000419D4208BF964244F1FD0404F54C
:1008C000407402D25B084FEA3202B61A65EB0305A8
:1008D0005B084FEA32024FF480104FF4002CB6EB65
:1008E000020E75EB030E22BFB61A754640EA0C00E5
:1008F0005B084FEA3202B6EB020E75EB030E22BF25
:10090000B61A754640EA5C005B084FEA3202B6EB65
:10091000020E75EB030E22BFB61A754640EA9C0024
:100920005B084FEA3202B6EB020E75EB030E22BFF4
:10093000B61A754640EADC0055EA060E18D04FEAB2
:10094000051545EA16754FEA06164FEAC30343EA52
:1009500052734FEAC2025FEA1C1CC0D111F4801F1F
:100960000BD141EA00014FF000004FF0004CB6E718
:1009700011F4801F04BF01430020B4F1FD0C88BFB7
:10098000BCF5E06F3FF6AFAEB5EB030C04BFB6EBC2
:10099000020C5FEA500C50F1000041EB045170BDB5
:1009A0000EF0004E4EEA113114EB5C04C2BFD4EBE2
:1009B0000C0541EA045170BD41F480114FF0000E66
:1009C000013C90E645EA060E8DE60CEA135594EAE2
:1009D0000C0F08BF95EA0C0F3FF43BAF94EA0C0FE5
:1009E0000AD150EA01347FF434AF95EA0C0F7FF45A
:1009F00025AF104619462CE795EA0C0F06D152EAAE
:100A000003353FF4FDAE1046194622E750EA410691
:100A100018BF52EA43067FF4C5AE50EA41047FF4A2
:100A20000DAF52EA43057FF4EBAE12E74FF0FF3C07
:100A300006E000BF4FF0010C02E000BF4FF0010CD8
:100A40004DF804CD4FEA410C7FEA6C5C4FEA430C51
:100A500018BF7FEA6C5C1BD001B050EA410C0CBFA0
:100A600052EA430C91EA030F02BF90EA020F002002
:100A7000704710F1000F91EA030F58BF994208BF69
:100A800090422CBFD8176FEAE37040F00100704726
:100A90004FEA410C7FEA6C5C02D150EA013C07D17D
:100AA0004FEA430C7FEA6C5CD6D152EA033CD3D0C8
:100AB0005DF8040B704700BF8446104662468C46C2
:100AC0001946634600E000BF01B5FFF7B7FF0028F5
:100AD00048BF10F1000F01BD4DF808EDFFF7F4FF1E
:100AE0000CBF012000205DF808FB00BF4DF808EDA9
:100AF000FFF7EAFF34BF012000205DF808FB00BFCC
:100B00004DF808EDFFF7E0FF94BF012000205DF8ED
:100B100008FB00BF4DF808EDFFF7CEFF94BF0120A2
:100B200000205DF808FB00BF4DF808EDFFF7C4FF9B
:100B300034BF012000205DF808FB00BF4FEA410CE4
:100B40007FEA6C5C02D150EA013C0AD14FEA430CC7
:100B50007FEA6C5C02D152EA033C02D14FF0000004
:100B600070474FF0010070474FEA4102B2F1E04395
:100B700024BFB3F5001CDCF1FE5C0DD901F0004C84
:100B80004FEAC0024CEA5070B2F1004F40EB8300D4
:100B900008BF20F00100704711F0804F21D113F100
:100BA0003872BCBF01F00040704741F480114FEA39
:100BB0005252C2F11802C2F1200C10FA0CF320FAC2
:100BC00002F018BF40F001004FEAC1234FEAD323DF
:100BD00003FA0CFC40EA0C0023FA02F34FEA430349
:100BE000CCE77FEA625307D150EA01331EBF4FF0D2
:100BF000FE4040F44000704701F0004040F0FE40ED
:100C000040F40000704700BF7BB972B90029BEBF35
:100C100000204FF0004106E008BF00281CBF6FF025
:100C200000414FF0FF3000F0D3B9ADF1080C6DE991
:100C300004CE002909DB002B1ADB00F04DF8DDF8AB
:100C400004E0DDE9022304B07047404261EB41015A
:100C5000002B1BDB00F040F8DDF804E0DDE90223A7
:100C600004B0404261EB4101524263EB43037047E1
:100C7000524263EB430300F02FF8DDF804E0DDE9B6
:100C8000022304B0404261EB41017047524263EBE2
:100C9000430300F021F8DDF804E0DDE9022304B0AD
:100CA000524263EB4303704753B94AB9002908BF66
:100CB00000281CBF4FF0FF314FF0FF3000F088B923
:100CC000ADF1080C6DE904CE00F006F8DDF804E0A3
:100CD000DDE9022304B070472DE9F047089D8E46F8
:100CE00004468846002B4AD18A42174662D9B2FA96
:100CF00082F64EB1C6F1200301FA06F820FA03F39A
:100D0000B74043EA0808B4404FEA174E1FFA87FC81
:100D1000B8FBFEF1230C0EFB118843EA084301FBEC
:100D20000CF29A4209D9FB1801F1FF3080F0EA80F9
:100D30009A4240F2E78002393B449A1AA3B2B2FBCE
:100D4000FEF00EFB102243EA024300FB0CFC9C4524
:100D500009D9FB1800F1FF3280F0D6809C4540F2A3
:100D6000D3803B44023840EA0140A3EB0C0300214E
:100D70001DB1F3400022C5E90032BDE8F0878B4287
:100D800005D90DB1C5E9000100210846F5E7B3FA20
:100D900083F1002946D1734502D3824200F20581D6
:100DA000841A6EEB030201209046002DE5D0C5E9C0
:100DB0000048E2E7002A00F09080B2FA82F6002EA6
:100DC00040F0A4808A1A030C4FEA174E80B2BCB2DE
:100DD0000121B2FBFEFC0EFB1C2243EA024304FB92
:100DE0000CF29A4207D9FB180CF1FF3802D29A4252
:100DF00000F2E080C4469B1AB3FBFEF20EFB1233F6
:100E000040EA034302FB04F49C4207D9FB1802F1B9
:100E1000FF3002D29C4200F2CA8002461B1B42EA0B
:100E20000C40A5E7C1F120068B4022FA06F71F43CC
:100E30000EFA01F420FA06F32EFA06FE4FEA1749DD
:100E4000234300FA01F81FFA87FCBEFBF9F01C0CE3
:100E500009FB10EE44EA0E4400FB0CFEA64502FA24
:100E600001F209D93C1900F1FF3A80F09C80A645B7
:100E700040F2998002383C44A4EB0E041FFA83FE32
:100E8000B4FBF9F309FB13444EEA044403FB0CFCE6
:100E9000A44508D93C1903F1FF3E80F08280A445A7
:100EA0007FD9023B3C4443EA0040A4EB0C04A0FB86
:100EB00002EC64457346E14662D35FD05DB1B8EBA6
:100EC000030264EB090404FA06F622FA01F31E4356
:100ED000CC40C5E9006400214FE7B1FBF2FC010CF6
:100EE00041EA0E4180B240EA01423B4638463C4668
:100EF000B846BE462026B1FBF7F1A2EB080241EA54
:100F00000C4166E7014618E710462CE7C6F12002BF
:100F10002EFA02F3B740B14020FA02F24FEA174E20
:100F20000A43B3FBFEF8BCB20EFB1833110C41EAC6
:100F3000034108FB04F9B04089454FEA104380B2F1
:100F40003ED9791808F1FF3C01D289451FD8A1EBA1
:100F50000901B1FBFEF909FB04F80EFB191192B26D
:100F600042EA0142424529D2BA1809F1FF31C4D2FE
:100F70004245C2D2A9F102013A44BEE7F0459DD2F2
:100F8000BEEB02036CEB070C0138E14696E7A7EBDA
:100F900009094944A8F1020CB1FBFEF909FB04F868
:100FA000DBE773467FE7504666E70846FDE63B44CD
:100FB000023A33E7ACF1020C3B441CE749469CE79C
:100FC000A1EB0901C446B1FBFEF909FB04F8C4E733
:100FD000704700BFDFF834D0002103E00C4B5B58B2
:100FE000435004310B480C4B42189A42F6D30B4A3B
:100FF00002E0002342F8043B094B9A42F9D30AF07D
:1010000031F92AF071F901F065F970470000032009
:1010100038EC040800000020640100208003002058
:10102000A04C0120FEE7704708B500F0A7FDBDE821
:10103000084000F029BD00F0A3BD704710B50421A1
:10104000044628F051FE204610BD000038B50C4B78
:101050000C4C18800C4B822019806368984740F62E
:10106000110398420AD1094D23682C6082209847C9
:101070002B688220DB689847002038BD0120FCE700
:10108000A60300204C000020A4030020A803002099
:101090004FF4A071F020FFF7D9BF0000F7B52F4D36
:1010A0002B6804461B69822098472080002844D082
:1010B0002B680DF106025B6901A982209847BDF8F3
:1010C0000620A2F5B47292B20A2A38D90B23B2FBD9
:1010D000F3F2234B1B889A4201D9013B9AB2BDF827
:1010E0000430204840F6B8318B422AD8C3F57163EA
:1010F0000E3301689BB20F25B3FBF5F31A4D2D8813
:10110000AB4284BF05F1FF35ABB28B421D468EB2B8
:1011100020D99B1B99B2154E3768BBB2BA428CBF1F
:10112000D31A9B1A9BB219440529C8BF05600368EE
:10113000C8BF326063803368A38003B0F0BD002273
:10114000CDE7C3F56D6308339BB20E2B0168D2D88F
:1011500000252B46C91A89B2DDE700BFA80300208D
:10116000A4030020A0030020A60300209C0300206D
:1011700037B568460D461446FFF790FFBDF80000EE
:1011800040B1BDF802302B60BDF80430C3F5A07348
:101190002360012003B030BD032821D8DFE800F030
:1011A000020B12190F4B1A68B2FA82F2520904218B
:1011B0000D480AF01FBD0B4B5A68B2FA82F2520971
:1011C0000821F5E7074B9A68B2FA82F2520910211A
:1011D000EEE7044BDA68B2FA82F252092021E7E71F
:1011E000704700BFAC03002000100240032821D844
:1011F000DFE800F0020B12190F4B1A68003A18BF13
:10120000012204210D480AF0F5BC0B4B5A68003A44
:1012100018BF01220821F5E7074B9A68003A18BF6A
:1012200001221021EEE7044BDA68003A18BF0122D0
:101230002021E7E7704700BFAC0300200010024008
:1012400003280DD8DFE800F00206080A042105484B
:101250000AF0D5BC0821FAE71021F8E72021F6E7CB
:10126000704700BF0010024008B5032811D8DFE81E
:1012700000F0020A0C0E042107480AF0B5FC431ED8
:101280005842584108BD0821F6E71021F4E7202113
:10129000F2E70020F3E700BF0010024070B5084DF0
:1012A00000240126E0B2FFF7DFFF18B12B68012B05
:1012B00018BF2E600134052C05F10405F2D170BD74
:1012C000AC030020012380F8781080F87930704753
:1012D00000207047034B4164003918BF0121197089
:1012E000704700BF5F3F012000207047836B0BB148
:1012F0000846184770474FF6FF707047406803680C
:101300009B691847704770477047000010B5044646
:1013100000F044FD23680349D3F88C302046BDE833
:1013200010401847000000D008B503680446D3F801
:1013300080309847236820469B6F984700F0ECF870
:10134000236820461B6F9847292001F043FA00F0DC
:10135000E3F8236820461B6F9847F8E710B504466A
:101360000FF048FF23682046D3F8AC30BDE81040AA
:10137000184700F0F7BC00F0FBBC00F02DBD00F0FA
:10138000CDBC00F03DBD00F045BD00F0D1BC0FF07C
:101390009DB910B57C21044628F0A6FC204610BD5E
:1013A00010B590F8341090F878400C4B8C421A78B5
:1013B00009D03AB90A4A0B491488088810800C8071
:1013C00001221A7010BD002AFCD0054A0549148874
:1013D000088810800C800022F3E700BF583F0120EE
:1013E000543F0120563F012070B50D46194635B9CE
:1013F000094B0A4A0A4840F2D22129F0B3FCC0E95D
:101400000F52084B003A18BF01221A700368BDE85A
:101410007040D3F88C30184758BE020890BE0208BE
:10142000DEBE02085E3F012008B5094B1B888B42D7
:1014300003D8084B1B88934205D9074B074A084835
:101440009E2129F08FFC074B1980074B1A8008BD9D
:10145000543F0120563F012023BF020886BF0208E7
:10146000DEBE02085A3F01205C3F0120034690F88F
:101470007A0018B1586803681B6818477047000065
:10148000012108B5002208460CF016FE0A4B186030
:1014900028B90A4B0A4A28210A4829F063FC00228D
:1014A000042101200CF0A7FE074B186018B9074B68
:1014B000034A2C21F0E708BDC0030020C9BF020881
:1014C00012C0020841C00208BC0300207FC002080D
:1014D000024B4FF0FF3118680CF038BEC0030020FB
:1014E000014B18680CF05EBEC0030020024B0021C7
:1014F00018680CF02BBE00BFC0030020FFF7F0BF40
:1015000003480449006800231A460CF0AFBE00BF30
:10151000BC0300200400002013B5084C00231A4629
:1015200001A920680CF0D3FE20684FF0FF330022A1
:1015300001A90CF0CCFE02B010BD00BFBC0300201E
:1015400003685B6C18470120704703689B6A184763
:10155000FEE740F2EF307047054B0360054B4FF05C
:101560008062C3F88820BFF34F8FBFF36F8F70473F
:1015700024D2020800E100E010B504464FF45A619D
:10158000FFF7EAFF204628F0AFFB204610BD000021
:1015900082B0002301930E4B1A6B42F400021A63CF
:1015A0001A6B02F400020192019A1A6942F40002D5
:1015B0001A611A6922F400021A61064B064A1A617E
:1015C000064A5A61064B4FF080629A6002B070473B
:1015D00000380240E02F00203118000851150008A3
:1015E00000E100E008B50A2809D8DFE800F006109D
:1015F0000E080808081010101000022008BD054B46
:10160000054A0648902129F0ADFB0020F6E70120AD
:10161000F4E700BFC1C00208DCC0020827C102080D
:1016200038B50C46887FFFF7DDFFA58AE28A164BA6
:101630002169586342EA05425A64628BD963521B9E
:101640001A642568082D0ED19A611A615862207FAC
:101650000E4A42EA0062DA61E2681A620C4A596193
:10166000D9601A6038BD0022D8611A61E1680A0A9F
:10167000480902F4784200F4FC600243C1F3C4015B
:101680000A439A63034AECE700B0024009000100F4
:10169000012302000123030008B50B280BD8DFE863
:1016A00000F00612100A0A0A0A08080808080220B0
:1016B00008BD0520FCE7054B054A06486F2129F0C7
:1016C00051FB0020F4E70120F2E700BFC1C002088F
:1016D00063C1020827C102082DE9F04191F81D807D
:1016E0000C464046FFF7D8FFA77F05463846FFF770
:1016F000D3FF06463846FFF775FFA18A628B444B3D
:10170000521A1A649A61228B521A1A61E28A586339
:1017100042EA01425A6421696268D963DA6020684A
:10172000802828D0227F0FD8202867D0402865D075
:1017300004281AD0364B45EA026545F40035B84511
:10174000DD6161D0334A44E0B0F5807F04D0B0F56C
:10175000007FEFD1304800E0304840EA0262DA61B1
:10176000E2681A625E62596132E045EA026242F45E
:101770000032DA61F6E7A068021DDA62227F45EAEC
:10178000026545F40035DD615E625961017841B161
:10179000012921D0224B234A23484FF48D7129F08F
:1017A000E1FADA69418822F47F42013922F010021D
:1017B00042EA0122DA610121154BDA6942F0200286
:1017C000DA61DA699206FCD410229A600029B9D055
:1017D000164A1A60BDE8F081B2F1FF01DA6940886B
:1017E00022F47F4200F1FF3022F0100242EA002290
:1017F00042F0100218BF0121DA61DDE745EA02621A
:10180000034B42F40032B4E742F20132E1E700BF99
:1018100000B0024001230100090002000A0002009A
:10182000ADC10208C7C1020827C102080123020096
:10183000024B1B68586803685B691847603F0120CA
:1018400070B5044625460A4B0C30002660602672AF
:10185000667245F8203B602229460FF023FE04F50E
:101860005A63EE6024359D42FBD1204670BD00BF17
:1018700024D20208034B1A68D207FCD423229A60B0
:10188000704700BF00B002407047000030B50F4CF9
:101890002568ED07FCD423250904A56041F001016A
:1018A0000225FF2B65636164E0630AD00849656225
:1018B00041EA0363E361074B22626061E0602360F9
:1018C00030BDE561039BA363034BF8E700B0024022
:1018D00009000100010002000100030030B50E4CB8
:1018E0002568ED07FCD423251204A56042F001020F
:1018F0000225FF2B65636264E063E16008D01B068C
:1019000043F00213E361054B65626061236030BD03
:10191000034BE3610123F9E700B00240010002003C
:10192000020002FF30B50B4C2568ED07FCD42325DF
:1019300012041B06A56043F40033022542F00102A5
:1019400065636264E063E160E361034B656260616B
:10195000236030BD00B0024001000200012070474A
:1019600038207047382303FB0100083070473823C4
:1019700003FB0100083070470120704741F67C00EE
:10198000704741F67C0303FB01000830704741F6C5
:101990007C0303FB010008307047012070471020D2
:1019A000704700EB01100830704700EB0110083061
:1019B0007047084602F0B0BB10B5034B0360044605
:1019C0000EF0D9FB204610BDDCD2020810B504464B
:1019D000FFF7F2FF2046402128F086F9204610BD8F
:1019E00010B5034B036004460EF0C5FB204610BD46
:1019F000A8D2020810B50446FFF7F2FF204641F6D0
:101A0000840128F071F9204610BD000010B5034B89
:101A1000036004460EF0AFFB204610BD74D20208EE
:101A200010B50446FFF7F2FF2046182128F05CF9B4
:101A3000204610BD10B5094B0360044600F5C550A3
:101A40001030FFF7B9FF04F12C00FFF7C9FF04F1D4
:101A50001400FFF7DBFF204610BD00BF10D30208C3
:101A600008B50248FFF7E6FF08BD00BF941200204A
:101A700010B50446FFF7DEFF20464FF4D35128F09F
:101A800033F9204610BD00002DE9F34101F01CFAA6
:101A9000054601F01DFA0024014623462846224649
:101AA000009419F0C5F8274B274A1A60204605F024
:101AB00059FC264D264B274A27489A6019F020F8F2
:101AC0002B68BFF35B8FDB0736D4284628F00EF96E
:101AD00090B3224C224F234B236007F1540604F1AC
:101AE000140004F12C086060C4F80880E7602661E7
:101AF0000EF042FB1C4B636140460EF03DFB1B4B5E
:101B0000E36238460EF038FB04F5805303F50F60AE
:101B1000174AC3F8B02809F0A1F8224607F140019E
:101B2000304606F039FD304602F0F6FA114829F049
:101B300037F9284628F0E6F80F4802B0BDE8F04132
:101B4000FFF7E4BBC43F01204004002090120020B6
:101B500060040020440400200800002094120020AB
:101B6000442B002010D3020874D20208A8D2020825
:101B7000DCD20208611A0008C4030020704700008C
:101B80000148FFF7D1BB00BFC403002070B5244E4D
:101B9000244C254D254B23603046FFF751FE284647
:101BA0001EF04CF9224816F0D9FC224B2248DC608A
:101BB00000224FF48071C3E9121220491A86C3E94A
:101BC0001A121F4999671F4983F858200B60F021AA
:101BD00001801D485A6601801C4883F870204FF42C
:101BE000A071C3E90422C3E90622C3E90822C3E9BC
:101BF0000A22C3E90E22C3E91022C3E91422C3E971
:101C000017225A67C3E90165018011480180114913
:101C10000A70012283F834200F4A1A6070BD00BF99
:101C2000EC0400208C1200206004002048BE020852
:101C300044040020C4030020543F0120010000019F
:101C400000000101603F01205A3F0120563F012062
:101C50005C3F0120583F01204CD102080148FFF7AA
:101C60007BBC00BFEC0400200020704781807047DF
:101C7000C18070470181704741817047704770474C
:101C800070477047704710B4C4880368121B84887B
:101C90005B6D091B12B25DF8044B09B218474FF691
:101CA000FF7383814FF0FF3303621368C3611060D9
:101CB0007047002070478B888380012070477047F1
:101CC00080F82610704790F82600704710B5002263
:101CD000B1F90840B1F90A10028042808480C180C5
:101CE00010BD0022028042808280C280704701774E
:101CF000704780ED080A704780F82410704780F81C
:101D00002510704701207047983070478C3070471D
:101D1000843070477047704770470000034B902233
:101D200083F85A2383F85823704700BF00E100E08E
:101D3000094A0A49D3680A48C3F30A03013B9BB224
:101D40000B801169C1F30A01013901801364536BDF
:101D500043F001035363704700680140F62C0020F4
:101D6000F42C0020014BD3F8AC0070470068014010
:101D7000024B0122C3F8AC105A6270470068014060
:101D800010B52C21044627F0AFFF204610BD10B53A
:101D9000BC21044627F0A8FF204610BD70B50446BC
:101DA0000EF0E9FC23685D6E15F084FA01462046CA
:101DB000A8472368054AD3F888502046AC4600233C
:101DC000BDE87040A2F51631604700BF00B004D0F6
:101DD0000EF0B8BC0EF0C2BC0EF07EBC0EF0DFBD43
:101DE00090F8252012B103685B691847704790F896
:101DF00025201AB190F8242002B118607047000025
:101E0000034B4FF080629A604FF080729A60704787
:101E100000E100E0084B4FF08062C3F88820BFF378
:101E20004F8FBFF36F8F4FF08072C3F88820BFF3DE
:101E30004F8FBFF36F8F704700E100E070B5002354
:101E4000124E8380124B0360336893F85820054686
:101E50000AB1D86C00B998680368DB6A98473368A0
:101E6000B0FA80F4D86C640930B10368DB6A984733
:101E7000002808BF44F001042CB9064B064A074865
:101E80002C2128F06FFF284670BD00BF603F012065
:101E900024D3020805C2020863C202089CC20208D9
:101EA00070B5244E3568BFF35B8F15F001053FD147
:101EB000304627F01BFF00283AD01F4C1F4B2561EE
:101EC00004F13400C4E90035C4E90255E584A56293
:101ED000A58516F0A2FD04F1580011F0B1FB184BD6
:101EE000A3652046174B40F8843BFFF7A7FF164B2E
:101EF000C4F884302433C4F88C306423C4E9283512
:101F00000023C4F8AC30C4F8B030C4F8B430C4F81E
:101F1000B8300E480E4BC4F89050C4F89C50C4F82A
:101F2000A850C4F8983028F03BFF304627F0EAFE6E
:101F3000014870BDF82C0020FC2C002094DE020823
:101F400044D30208BCD3020848DE0208191D000869
:101F500028DE020810B5144C236823B3134B144A2F
:101F60001B6C11888B4213D1124B19880AF04AFC62
:101F7000226892F86A30013382F86A30FFF7C0FABB
:101F800020680FF037F9BDE810400020FFF704B9D2
:101F90000AF038FC206803681B6A9847BDE81040C7
:101FA0000020FFF723B910BD603F01200068014009
:101FB000F62C0020F42C00202DE9F04F664C94E81C
:101FC0000F008FB002AF87E80F0010340023099391
:101FD00094E80F000AAD85E80F000124062655F8A5
:101FE000043B5E480896CDE9063406A9013409F0A1
:101FF0001FFB052CF3D1594BDFF860811B68584C4F
:102000005A68DFF8649142F480725A60DA6A22F406
:102010007002DA62DA6A4FF0010A42F44012DA62C0
:102020005646404609F014FABB4600254FF0FF31F2
:10203000404609F0A6FA404609F0F6FA0135042DAB
:102040004BF8040BF2D1404609F080FA039BB3F53C
:102050007A7F65D200238DF8073020681A460DF18B
:1020600007010CF003F9029BB3F57A7F61D20223DA
:102070008DF80730002320681A460DF107010CF097
:10208000F5F80421484609F0AFFD054658B9012E80
:1020900009D108238DF80730024603460DF10701E8
:1020A00020680CF0E3F8059BB3F57A7F47D2042350
:1020B0008DF80730002320681A460DF107010CF057
:1020C000D5F8049BB3F57A7F3FD206238DF807300D
:1020D000002320681A460DF107010CF0C7F808210B
:1020E000484609F081FD064660B9BAF1010F09D1F1
:1020F00009238DF80730024603460DF107012068D9
:102100000CF0B4F8174A13681433B3F5FA7F28BFFC
:1021100000230A201360B2460BF0C2FF2E4680E770
:1021200040F6B83293429ED901238DF80730002340
:1021300093E740F6B8329342A3D9032398E740F6D9
:10214000B8329342BDD90523B2E740F6B832934284
:10215000C5D90723BAE700BFE0BD0208102E002052
:10216000C02D0020B82D00200018024007B5064BF6
:10217000ADF806001B68054801220DF106010BF0C1
:10218000F1F803B05DF804FB0C0000208C2E002059
:1021900008B564200BF084FFFBE7000030B595B074
:1021A000102200210AA828F0F6FF1422002103A81B
:1021B00028F0F1FF00241E4B01941A6C42F080526B
:1021C0001A641B6C03F080530193019B194B02941A
:1021D0001A6842F440421A601B6803F440430293B9
:1021E0000122029B4FF48033CDE9082302254FF4EE
:1021F00080030821CDE90E534FF4B473CDE91013D9
:1022000008A80423139312950AF054FB0AF018FB54
:102210000F23CDE903354FF4A0504FF48053CDE99F
:102220000603052103A805940AF020FD15B030BD72
:10223000003802400070004082B000230F4A019332
:10224000516C0F4841F480715164526C836002F408
:1022500080720192019A0B4A0361C0E900230A4A85
:1022600082620122037680F82030C362C360C261BB
:1022700080F83030426102B009F044B800380240C2
:10228000102E0020002001400100000F82B000232A
:102290000D4A0193516C0D4841F010015164526C8C
:1022A0000B49036102F010020192019AC3614FF4DD
:1022B000E132C0E900120C22C0E90233C0E9052373
:1022C00002B00BF04EBD00BF00380240D02D002000
:1022D000001001402DE980489BB008F0D1FFFFF7C6
:1022E000ABFFFFF75BFF142200210DA8002428F0AC
:1022F00052FFC54B00941A6BC448C54D42F0100202
:102300001A631A6B02F010020092009A01941A6B81
:1023100042F020021A631A6B02F020020192019A25
:1023200002941A6B42F080021A631A6B02F0800268
:102330000292029A03941A6B42F004021A631A6B17
:1023400002F004020392039A04941A6B42F0010211
:102350001A631A6B02F001020492049A05941A6B34
:1023600042F002021A631A6B02F002020592059A09
:1023700006941A6B42F040021A631A6B02F0400294
:102380000692069A07941A6B42F008021A631B6BB6
:1023900003F00803079322463C21079B09F02AFC1F
:1023A0009C482246042109F025FC22469A484FF415
:1023B000405109F01FFC01264FF003083C239348CD
:1023C000CDF840800DA902274FF0040BCDE90D3662
:1023D0000F9409F025FB8F480F940DA9CDE90DB698
:1023E000109709F01DFB4FF440538B480DA9CDE920
:1023F0000D36CDE90F4709F013FBA12387480F9451
:102400000DA94FF00809CDE90D3809F009FB814805
:102410000F940DA9CDE90D9809F002FB0C2380481B
:102420000F960DA9CDE90D3409F0FAFA4FF4C06307
:102430000DA9CDE90D37794807231193CDE90F4850
:1024400009F0EEFA7748784A026009F0DFF9774B35
:10245000774A2C62C5E9003228464FF48042C5E92C
:102460000424C5E90244C5E9064409F0D1FD102160
:1024700028460AF015F8214628460AF030F86D483B
:102480006D4984624FF48272C0E900124FF4007506
:1024900018224FF00A0AC0E90652C0E90244674D0B
:1024A000C0F82CA0C0E90444C0E908440AF0FEFECC
:1024B000634A0D974FF0100CC5E900264022C5E98C
:1024C00004C24FF4C072C5E906244FF4006207232A
:1024D000C5E908240DA94FF400522846CDE910386B
:1024E000CDE90E3BAA62C5E9024BCDE912770AF0AD
:1024F000C1FD4FF6FF7209A92846CDE90969CDE96A
:102500000B6408940AF0D6FD304608F0E5FE4FF65D
:10251000FF7209A92846CDE90979CDE90B640AF0D3
:10252000C9FD4FF6FF7209A92846CDE90989CDE911
:102530000BB40AF0BFFD4FF40C730893089B0C9387
:102540004FF6FF7209A92846CDE909B90B960AF0A2
:10255000B1FD40F26A5128460AF0CAFD34222146F4
:102560000DEB020028F017FE364D374B2C61C5E904
:1025700000340923C5E905361D2340F20D1EC5E9C7
:10258000073840F24313C5E909E3284640F24713F0
:1025900040F21718C5E90B83C5E90244AC8685F8FB
:1025A00036400AF037F8FF21F022CDE912144FF43B
:1025B000806905214FF4A073CDE90E24CDE9149173
:1025C000CDE916420DA922462846CDE910371F4D08
:1025D00018930D94ADF864408DF866400AF0E5F864
:1025E0001B4B2B601B6898472B681A4DDB6898477C
:1025F000194B2846C5E90034C5E90274C5E90A4704
:10260000C5E90C442AE000BF003802400010024037
:102610008C2F002000080240000C02400000024005
:10262000001802402030002000300240005C0040D2
:10263000A08601008C2E002000500140582E002062
:10264000400100A0E42E002000680140BC2D0020C5
:1026500014000020E02F002000B0024009F0E6F84E
:102660003146284609F098F9FEF7DEFCFEF7DBFC60
:10267000FFF70CFE0BF0A4FC0F4A314650460BF05E
:10268000BAFD0E4B0E4A186021460E480BF0C4FCF2
:102690000D4B0E4A186021460D480BF0BDFC0D4B4A
:1026A0000D4A186021460D480BF0B6FC0C4B186023
:1026B0000BF098FCFEE700BF00D40208C02D0020FC
:1026C00060D4020891210008CC2D00203CD40208DF
:1026D00037100008C82D002018D40208B91F0008C0
:1026E000C42D0020704770477FB5094B8DF8172027
:1026F0001B6802930DF117020123009201930A4611
:102700000146044809F02CFD07B05DF804FB00BF4A
:10271000100000208C2F00207FB500238DF817308B
:10272000084B1B6802930A4601230DF11701009123
:1027300001930146044809F0A3FD9DF8170007B076
:102740005DF804FB100000208C2F00201FB5084C02
:1027500024680092CDE901340A4601230146054868
:1027600009F08EFD003818BF012004B010BD00BF75
:10277000100000208C2F002008F0AEBD10B5064CD4
:1027800000222046042109F035FA20460122BDE846
:102790001040042109F02EBA0008024038B50B4D54
:1027A000044601220A484FF4005109F023FA00229E
:1027B0000421284609F01EFA2046FFF7D7FC2846D8
:1027C0000122BDE83840042109F014BA0008024093
:1027D000000C024038B50B4D044600220A484FF465
:1027E000005109F007FA00220421284609F002FAF4
:1027F0002046FFF7BBFC28460122BDE838400421F3
:1028000009F0F8B900080240000C0240F7B5144E78
:10281000144F05460C4630460022042109F0EAF91F
:1028200000224FF40051384609F0E4F92846FFF73A
:102830009DFC0D4B0D481B68224601A90AF03EFF86
:10284000384601224FF40051019C09F0D3F930467B
:102850000122042109F0CEF9204603B0F0BD00BFEB
:1028600000080240000C02400C0000208C2E0020CA
:1028700008F032BD0268034B9A4201D108F01ABD3C
:10288000704700BF001000407047000082B00E4B40
:1028900000220092596C41F480415964596C01F452
:1028A0008041009100990192196C41F080511964A6
:1028B0001B6C03F080530193019B0F216FF001000B
:1028C00002B008F063BF00BF003802400268094B45
:1028D0009A4282B00BD100230193074B1A6B42F44A
:1028E00080521A631B6B03F480530193019B02B067
:1028F000704700BF003002400038024007B50F4B60
:1029000002689A4216D10022A3F5F0430192196B96
:1029100041F4000119631B6B03F4000301930521CB
:102920005A20019B08F032FF5A2003B05DF804EBF7
:1029300008F05EBF03B05DF804FB00BF00B00240CA
:102940002DE9F043044689B01422002103A828F0A1
:1029500022FC2268244B9A4243D1244C244800256F
:102960000095236B43F004032363236B03F00403FC
:102970000093009B0195236B43F001032363236BBA
:1029800003F001030193019B4FF012094FF4007310
:102990004FF001080327042603A9CDE90339CDE947
:1029A0000587079609F03CF84FF4807311480796A5
:1029B00003A9CDE90339CDE9058709F031F802957E
:1029C000236C43F400032364236C03F40003029399
:1029D000029B236A43F400032362236A23F4000367
:1029E000236209B0BDE8F083005C0040003802407B
:1029F0000008024000000240F0B599B004461422DD
:102A0000002107A828F0C7FB30220DEB02000021AF
:102A100028F0C1FB22685E4B9A4240F0B780082341
:102A20000C93C0231093042312930CA84FF400338B
:102A300015930AF0F3F908B1FFF726FF554B5648F6
:102A4000002400945A6C42F080625A645A6C02F07E
:102A500080620092009A01941A6B42F020021A637D
:102A60001A6B02F020020192019A02941A6B42F052
:102A700001021A631A6B02F001020292029A039495
:102A80001A6B42F002021A631A6B02F002020392FE
:102A9000039A04941A6B42F040021A631A6B02F014
:102AA00040020492049A05941A6B42F004021A63DD
:102AB0001A6B02F004020592059A06941A6B42F012
:102AC00008021A631B6B03F00803069302250E2607
:102AD000069B0B964FF4806307A9CDE90735CDE936
:102AE000094508F09DFF41F658032C480B9607A9AD
:102AF000CDE907350927CDE9094508F091FF032302
:102B000027480B9707A9CDE90735CDE9094508F016
:102B100087FF4FF4706322480B9607A9CDE907356C
:102B2000CDE9094508F07CFF4FF40C631D480B9676
:102B300007A9CDE90735CDE9094508F071FFC023A4
:102B400019480B9607A9CDE90735CDE9094508F0E5
:102B500067FF082315480B9607A9CDE90735CDE98E
:102B6000094508F05DFF4FF4A0530E480B9707A9E5
:102B7000CDE90735CDE9094508F052FF5820224636
:102B8000052108F003FE582008F032FE19B0F0BD10
:102B9000006801400038024000140240000002407A
:102BA000000402400018024000080240000C0240ED
:102BB00010B5044688B01422002103A828F0EBFACF
:102BC0002268144B9A4223D103F5684300210191F6
:102BD0005A6C114842F480125A645A6C02F4801202
:102BE0000192019A02911A6B42F020021A631B6B48
:102BF00003F020030293029B4FF46072022303212F
:102C0000CDE903230523CDE9061303A908F008FF46
:102C100008B010BD00500140001402402DE9F04101
:102C200086B0002303932B4B1C68002C4FD14FF030
:102C30000108C3F80080284B00949A6B274842EAA9
:102C400008029A639B6B03EA08030093022703269A
:102C50000C25009B01A94FF63F03CDE90137CDE9D3
:102C6000046508F0DDFE1E48059501A9CDE9018740
:102C7000CDE9034608F0D4FE48F233131948059510
:102C800001A9CDE90137CDE9034608F0C9FE4FF6A9
:102C900083731548059501A9CDE90137CDE90346B0
:102CA00008F0BEFE4CF203731048059501A9CDE96A
:102CB0000137CDE9034608F0B3FE60230C480595C3
:102CC00001A9CDE90137CDE9034608F0A9FE06B018
:102CD000BDE8F08128300020003802400014024096
:102CE000000802400018024000100240000C0240A0
:102CF0000004024070B588B000230293204B1A6C88
:102D000042F010021A641B6C03F010030293054694
:102D100001A903A8029B0AF063F8069B4BBB0AF0CB
:102D20003FF8184E184B336040F2E733F360174B0F
:102D3000B0FBF3F3013B7360304600233361B360B3
:102D4000B3610AF08BFE044680B930460AF05CFDA0
:102D5000044658B9362008F04BFD0F2D0DD82246F9
:102D60002946362008F012FD094B1D60204608B0A8
:102D700070BD0AF015F84000D3E70124F6E700BF64
:102D8000003802402C3000200010004040420F006C
:102D90007C0000207047FEE7FEE7FEE7FEE7704795
:102DA00001480AF06FBD00BF2C300020014809F037
:102DB0009FBC00BFE42E0020014808F063BD00BFA7
:102DC000E02F00200120704708B528F087FA16236D
:102DD00003604FF0FF3008BD08B528F07FFA1623D6
:102DE0000360FEE770B50D4614460E46731B9C4209
:102DF00001DC204670BDAFF3008006F8010BF5E75B
:102E00004FF0FF3070474FF400534B600020704785
:102E1000012070470020704710B54FF0FF33144673
:102E2000024892B20AF0CBFF204610BDD02D002000
:102E30000A4A116808B5034609B9094911601068C2
:102E4000694603448B4206D928F048FA0C230360F4
:102E50004FF0FF3008BD1360FCE700BF7430002066
:102E6000A04C0120704708B50C2924D8DFE801F0F8
:102E7000070B0F13171F1F1F1F1B1F1F1F0004F01F
:102E8000BDFA006808BD04F0B9FA4068FAE704F03A
:102E9000B5FA8068F6E704F0B1FAC068F2E704F02A
:102EA000ADFA0069EEE704F0A9FA8069EAE704F0F8
:102EB000A5FA4069E6E70020E4E710B504210446DE
:102EC00026F012FF204610BD0048704798D4020833
:102ED0000520704713B5002451B1036801948DF8A3
:102EE000034001AA9C680DF10303A04702B010BD86
:102EF0000846FBE7C0897047008A7047C088704762
:102F000080887047807A00F07F007047807AC0091F
:102F100070470020704700009FED010A704700BF16
:102F20000000000070477047704770477047704757
:102F300030B5036885B06D460181D3F88430014611
:102F400004462846984795E807003C3484E8070083
:102F500005B030BD30B5036885B06D464181D3F80A
:102F60008430014604462846984795E807003C34DB
:102F700084E8070005B030BD0022028042808280D4
:102F8000C280704780F83610704770B503680446F9
:102F90001B6B154698472368294620465B6EBDE8A3
:102FA0007040184700207047806C7047704770472A
:102FB000704710B50821044626F096FE204610BD45
:102FC00010B54C21044626F08FFE204610BD10B5EA
:102FD0002C21044626F088FE204610BD0B898A89E4
:102FE000D21A4B89C988591A12B209B215F082BA9D
:102FF00010B5034B0360044612F062FC204610BD7E
:103000000CD6020810B5064B0360044612F058FCBB
:10301000204641F2B85126F067FE204610BD00BFA1
:103020000CD6020808B590F826300BB1FEF7D8FE92
:1030300008BD08B5FEF7D4FE08BD0000036870B5F2
:103040005E6B124B1B6804468DB22BB9104B114AB4
:103050006C21114827F086FE1049828D0988914223
:1030600003D80F4B0B4A6D21F3E713F812200D4BD9
:103070001B6853F8220003681B6B9847291A3346D4
:10308000204609B2BDE87040184700BFB83F012094
:103090002EC3020870C30208ABC30208BC3F012064
:1030A000F2C30208C03F012010B500F58054D4F8E7
:1030B000B4350133B42BC4F8B43506D114F0FAF8A2
:1030C00001F08AF80023C4F8B43510BD00224FF097
:1030D000FF31C0E900218260704770B50368044683
:1030E0001B6B154698472368294620465B6BBDE855
:1030F0007040184770B504461D46BDF91060FFF7D3
:10310000ECFF2368294620469B6B9847236831468D
:103110002046DB6BBDE8704018470000094A02609A
:103120004FF4807100228184FF21C0E90122C0E9AF
:103130000322C0E90522C0E9072280F82610826236
:10314000704700BFECE102084FF4807181840D49A3
:1031500001600D4981624FF6FF7181854FF47F0157
:10316000002241634FF0FF31C0E90122C0E9032290
:10317000C0E90522C0E90722C0E9101202630287F4
:10318000C26370475CE1020804D502082DE9F04FE4
:10319000044691B027464FF0000B15F0C3FFD44B07
:1031A000C4F83CB047F8403B04F16C063846FFF7E2
:1031B000B5FF04F198083046FFF7B0FF4046FFF72F
:1031C000ADFF04F1C40318460593FFF7A7FF04F110
:1031D000F003184606930FF025FD04F59C7318467E
:1031E0000993FEF72BFEC34BC4F838312433C4F8DF
:1031F000403104F5A6731846C4F844B1BE4D089397
:103200004FF00109FFF78AFF04F5BC7304F5D27A89
:103210001846C4F84C5184F870910793FFF77EFF6D
:10322000C4F8785184F89C915046FFF78DFF04F55F
:10323000F67318460293FFF787FF04F50D731846DF
:10324000AE4D0393FFF780FF04F52073C4F83452AA
:103250001846C4F87CB20493FFF776FF04F5805358
:10326000C4F88052C4F8C8B2F025C3F8B4B54FF41E
:10327000965104F53D7012F019FB5A4638460095F8
:103280004FF4A073594604F10409FFF733FF4FF0E0
:103290007F433946A36648460CF082FF4FF0FF3764
:1032A0004FF4A0735A46304600955946FFF722FF67
:1032B0003146C4F8947048460CF072FF0222EC23A9
:1032C0001146404600934FF49F73FFF713FF8C4B5A
:1032D000C4F8C030414648460CF062FF5A46059893
:1032E00000950323A021FFF705FFDC230599C4F80F
:1032F000EC7084F8EA3048460CF052FF0E2372223C
:10330000069800939B21FFF7F5FEC023C4F82431F3
:103310004FF43453C4F82C317A4BC4F8443149F695
:103320006103A4F84831099B0699C4F81831C4E92F
:10333000475548462825C4F830B1C4F828B10CF0E8
:103340002FFF05236422089800950821FFF7D2FE7D
:103350000899C4F8747148460CF022FF05236422D2
:10336000079800954FF49A71FFF7C4FE4FF03408A8
:103370000799C4F8A07148466D440CF011FF13235F
:103380005F225046CDF800807421FFF7B3FE51460E
:10339000C4F8D4712846A4F8D8B110F0C7FD95E858
:1033A000070004F5F07686E807004FF00302514667
:1033B00084F8DD21284610F0B9FD95E807004FF0AC
:1033C000010386E80700514684F8DC31284610F0F6
:1033D000ADFD95E80700152386E8070050464A4EE4
:1033E000ADF83C300EA90E9611F048F86FF041018F
:1033F00084F8DA11484651460CF0D2FE13235F22BE
:103400000298CDF80080BB21FFF774FE0299C4F842
:103410001C722846A4F820B210F088FD95E8070039
:1034200004F50A7888E807004FF00302029984F84F
:1034300025222846174610F079FD95E8070088E810
:103440000700029984F82472284610F06FFD95E871
:10345000070088E807000EAA122311460298ADF86B
:103460003C300E9611F00AF86FF0410184F82212F8
:1034700048460299DFF8ACA00CF092FE7022039847
:103480003521FFF72AFE214BC4F86432D4F83432D8
:103490000399D3F88430A4F868B22846984795E891
:1034A000070004F51C774FF0010387E8070084F854
:1034B0006C32D4F834320399D3F8843028469847D4
:1034C00095E80700DAF8003087E8070004F533775D
:1034D0002BB90F4B0F4A60210F4827F043FC0F4BCD
:1034E0001B88092B20D80E4B0A4A6121F4E700BF44
:1034F0000CD6020848DE0208A4D5020814D502083A
:1035000037380CFF0C0C99FF04D502085FABDEFFC7
:103510002EC3020830C40208ABC30208BC3F01201E
:10352000F2C30208B83F0120DFF8F0800921D8F883
:10353000000003F053FF364A03460A21384617F0CD
:10354000D1FA0398C4F87C7210F078FFD2271423C4
:103550000398ADF83C300EA90E9610F08FFF03993A
:1035600084F86A7248460CF01BFE6F220498F3211F
:10357000FFF7B3FD274BC4F8B032D4F8803204997A
:10358000D3F88430A4F8B4B22846984795E80700E9
:1035900004F52F7B4FF003038BE8070084F8B83263
:1035A000D4F880320499D3F884302846984795E8B7
:1035B0000700DAF800308BE8070004F53875002BB7
:1035C00087D0154B1B88092B8DD9D8F8000009210D
:1035D00003F004FF0E4A03460A21284617F082FA38
:1035E0000498C4F8C85210F029FF13230498ADF8CA
:1035F0003C300EA90E9610F041FF4846049984F81D
:10360000B6720CF0CDFD204611B0BDE8F08F00BFC2
:103610007BC402085FABDEFFBC3F0120C43F01203A
:103620007047000010B5034B0360044612F048F9E0
:10363000204610BD40D6020810B5064B0360044674
:1036400012F03EF9204641F2BC6126F04DFB2046C7
:1036500010BD00BF40D602082DE9F04F044695B0DA
:103660002546002615F05EFD984BE66345F8403B85
:1036700004F16C0A2846FFF751FD5046FFF74EFD56
:1036800004F1980304F1C40818460793FFF746FDB8
:103690004046FFF743FD04F1F00318468C4F0A93B0
:1036A0004FF00109FFF73AFD04F58E73184604F553
:1036B000A47BC4F8F07084F814910993FFF72EFDF1
:1036C000C4F81C7184F84091824F584604F5CA79B9
:1036D000FFF73AFDC4F84871C4F890614846FFF717
:1036E00033FD04F5F073C4F894711846C4F8DC6136
:1036F0000593FFF729FD04F50A7318460693FFF7B3
:1037000023FD04F51C731846734F08930FF08AFAD3
:1037100004F52E7318460D93FEF790FB07F1240372
:10372000C4F8C03204F53373C4F8B8721846C4F84C
:10373000C462039310F02CF904F54F7318460C93F0
:10374000FEF77CFB07F12403C4F8443304F55473FB
:10375000C4F83C731846C4F84863049310F018F991
:1037600004F5707318460B93FEF768FB07F124030A
:10377000C4F8C073C4F8C8334FF4965104F57F7091
:10378000C4F8CC6312F092F8F02332462846009336
:1037900031464FF4A073FFF7ADFC271D4FF07F4378
:1037A0002946A36638460CF0FBFCF023324650460F
:1037B000009331464FF4A073FFF79CFC4FF0FF33AA
:1037C0005146C4F8943038460CF0EAFC0222EC234F
:1037D0001146079800934FF49E73FFF78BFC3F4B05
:1037E0000799C4F8C03038460CF0DAFCF0233246B2
:1037F00040460093A0210323FFF77CFC4FF0FF33EA
:10380000C4F8EC30DC234146282584F8EA303846F9
:103810000CF0C6FC64220A98009505230821FFF7E6
:1038200069FC4FF0FF330A99C4F8183138460CF0A0
:10383000B7FC642209980095052340F23311FFF785
:1038400059FC4FF0FF33C4F844310999DFF8A8A0C0
:1038500038460CF0A5FC1622B8215846FFF73DFC6F
:103860001F4BC4F87831D4F84831A4F87C610EAD10
:10387000D3F8843059462846984795E8070004F560
:10388000C2784FF0030388E8070084F88031D4F849
:1038900048315946D3F884302846984795E80700C0
:1038A00004F575730793DAF8003088E807002BB940
:1038B0000C4B0D4A60210D4827F054FA0C4B1B8825
:1038C000062B1BD80B4B084A6121F4E740D60208AF
:1038D000A4D5020814D5020848DE020837380CFFC8
:1038E000565659FF2EC3020830C40208ABC3020863
:1038F000BC3F0120F2C30208B83F0120DFF8D882A4
:103900000621D8F8000003F069FDAE4A03460A21FB
:10391000079817F0E7F8079BC4F89031584610F065
:103920008DFDA94B12934FF02102584612A9ADF814
:103930004C2010F0A3FD594638460CF031FCC32250
:1039400075214846FFF7C9FBD4F894319F4AD3F854
:103950008430C4F8C42149462846A4F8C861984771
:1039600095E8070004F5E87BD4F894318BE807006C
:103970004FF00102D3F8843084F8CC214946284620
:10398000984795E80700DAF800308BE8070004F55F
:103990007A7B002B8CD08E4A1388052B92D9D8F8CD
:1039A0000000052103F01AFD864A03460A21584605
:1039B00017F098F84846C4F8DCB110F03FFD4FF01E
:1039C0002008814B1293484612A94FF0340AADF8F3
:1039D0004C8010F053FD494638460CF0E1FB1323B0
:1039E000B4220598CDF800A08C21FFF783FB4FF09F
:1039F000FF31C4F8101228460599A4F8146210F09B
:103A000095FA95E8070004F5077989E807004FF073
:103A10000102059984F81822284610F087FA95E8E3
:103A20000700694B129389E807001F230598ADF83A
:103A30004C3012A94FF0BE0910F020FD059984F812
:103A4000169238460CF0ACFB13230698CDF800A074
:103A50000722A521FFF74EFB4FF0FF320699C4F86D
:103A600058222846A4F85C6210F060FA95E8070036
:103A700004F5197A8AE807004FF00302069984F8E2
:103A80006022284610F052FA95E807004E4B129338
:103A90008AE807001E230698ADF84C3012A910F0F2
:103AA000EDFC069984F85E9238460CF079FB0E2303
:103AB0007222089800939A21FFF71CFBF023C4E9B7
:103AC000A733C023C4F8A4324FF43453C4F8AC3243
:103AD000404BC4F8C43249F66103A4F8C8320D9BC8
:103AE0000899C4F898323846C4F8B062C4F8A8629D
:103AF0000CF056FB132303980093722221230D210F
:103B0000FFF7F8FA4FF0FF33A022C4F84833A4F8C7
:103B10004C330C9BC4F8F4321146039810F04EF865
:103B200003984FF4B4624FF43E6110F052F8D4F8A9
:103B30000833434504D00398C4F808830FF048FFC6
:103B40000398002110F050F85F23039984F8F232B3
:103B500038460CF025FB132304980093722221238E
:103B60004FF48671FFF7C6FA4FF0FF33A022C4F876
:103B7000CC33A4F8D0330B9BC4F8783311460498A7
:103B800010F01CF804984FF4B4624FF43E6110F04A
:103B900020F8D4F88C33202B05D020230498C4F8C7
:103BA0008C330FF015FF0498002110F01DF85F23EF
:103BB0003846049984F876330CF0F2FA204615B0B2
:103BC000BDE8F08F7BC4020804D50208565659FFA1
:103BD000BC3F01200C0C99FFC43F01207047704787
:103BE000704730B4C26844685510034604EB620065
:103BF000D20748BF62599B6830BC48BFD3581847AA
:103C00000346406830B19A681AB9D86800F00100DC
:103C100070470120704710B51021044626F064F863
:103C2000204610BD10B54FF4CC71044626F05CF868
:103C3000204610BD9830884208B505D113F03AFBF4
:103C4000BDE8084000F078BA08BD0000F8B5194B8F
:103C5000018F1B888B4206462AD9174B1B682BB94C
:103C6000164B174A17486C2127F07CF813F81120DF
:103C7000154B1B6853F82250144B186803F0AEFB29
:103C80002B6807469B6B284698472B6804469B6C1D
:103C90003946284698472B6814FB00F45B6A39467E
:103CA00028469847A4B223181BB2A6F84630F8BDA0
:103CB0000023FAE7BC3F0120B83F01202EC30208D1
:103CC00070C30208ABC30208C03F0120C43F0120FB
:103CD0002DE9F04F04468BB0A246002515F022FADC
:103CE0006B4BE5634AF8403B04F16C0B504604F122
:103CF0009809FFF713FA5846FFF710FA04F1E006A7
:103D0000484610F017FF3046FFF71EFA04F5967884
:103D1000604BC4F8E030C4F828514046FFF714FA6D
:103D20005D4BC4E962345D4BC4E96435F0232A4637
:103D30005046009329464FF4A073FFF7DBF9271D87
:103D40004FF07F435146A36638460CF029FAF02322
:103D50002A465846009329464FF4A073FFF7CAF944
:103D60004F4BC4F89430594638460CF019FA48467F
:103D7000A4225B21FFF7B1F908AA07A94846ADF8CC
:103D80001C50ADF8205010F0CCFB23234846A4F87B
:103D9000D030FFF75BFF434ADFF82CA14FF0FF3331
:103DA000C4E9352304F5C473C4F8C0304946384625
:103DB0000CF0F6F95D2269213046FFF78EF9D4F850
:103DC000E030C4F810A10DF10809D3F88430A4F84C
:103DD000145131464846984799E8070004F58E7318
:103DE00083E80700304B1B6804F5BA7B2BB92F4BD7
:103DF0002F4A60212F4826F0B5FF2F4B1B881BB997
:103E00002E4B2B4A6121F5E72D4B2946186803F00C
:103E1000E5FA2C4A03460A21584616F063FEC4F818
:103E200028B1304610F00AFBDFF8A0B0CDF820B082
:103E3000282308A93046ADF8243010F01FFB314686
:103E400038460CF0ADF91C2240465B21FFF745F9DE
:103E500041464846C4F85CA1A4F8605110F066F8E9
:103E600099E8070004F5B47383E80700222308A942
:103E70004046ADF82430CDF820B010F0FFFA3846B7
:103E800041460CF08DF920460BB0BDE8F08F00BF25
:103E90008CD6020814D5020874D60208353C0008F6
:103EA000EDDCADFFF5F1EDFFB83F01202EC30208B8
:103EB00030C40208ABC30208BC3F0120F2C30208B1
:103EC000C43F01207BC4020869463FFF04D50208B5
:103ED0007047704700F598730868496803C37047D6
:103EE000704770474160704710B50022B1F9084033
:103EF000B1F90A10028042808480C18010BD7047F1
:103F000070477047064BC0F84C310023C0F8503161
:103F100000F5A273C0F84801C0F84031704700BFF7
:103F20006D47000801230372704770477047704760
:103F300001464068036810315B6E184701464068CF
:103F4000036810311B6E1847704710B4C26841688F
:103F50005410034601EB6200D20748BF0A599B6820
:103F60005DF8044B48BFD35818470346406830B14A
:103F70009A681AB9D86800F00100704701207047AC
:103F800010B50C21044625F0AFFE204610BD10B53B
:103F90001021044625F0A8FE204610BD10B54FF4B0
:103FA000AE71044625F0A0FE204610BD10B53821A4
:103FB000044625F099FE204610BD10B52821044680
:103FC00025F092FE204610BD10B513F073F903687A
:103FD000BDE81040DB6B184737B50446807A637A3A
:103FE0000130C0B29842A07205D901232372002388
:103FF000A37203B030BDB4F90C20002115F044FACF
:10400000C30707D500284FF6FF73C8BF012313FA73
:1040100080F000B2144BE0811988258B83B21348DD
:10402000B0F90000ADF80600CA1A60682B445B1AAC
:1040300012B2ADF8043003682283ADF800200022EC
:104040001B69ADF8022069469847A37A012BD0D1AD
:10405000074B1B78002BCCD013F02CF903B0BDE834
:10406000304013F02DB900BF543F0120563F0120CE
:104070005E3F012010B50446D0F8400158B10368F6
:10408000DB68984738B1D4F8400103689B689847CB
:104090000023C4F8403110BD044B1B6893F858202E
:1040A0000AB1D86C00B99868704700BF603F012022
:1040B000F8B5174604460E4613F0E6F9124B1C609D
:1040C000124B2360124B0025C4E95135114BC4E952
:1040D00053551868036829469B68C4E94F55C4E9DD
:1040E00055769847284603F03DF9FFF7D5FF1DF0B8
:1040F000F8FCFFF7D1FF1DF06FFDFFF7CDFF1DF0BE
:1041000077FD2046F8BD00BFB43F012040D702082C
:1041100028D70208603F0120064BC0F84C3100232D
:10412000C0F8503100F5A273C0F84801C0F8403122
:10413000704700BF6D470008064BC0F84C310023A4
:10414000C0F8503100F5A273C0F84801C0F8403102
:10415000704700BFD94C0008064BC0F84C31002313
:10416000C0F8503100F5A273C0F84801C0F84031E2
:10417000704700BF21460008064BC0F84C310023B1
:10418000C0F8503100F5A273C0F84801C0F84031C2
:10419000704700BF9D4B0008064BC0F84C31002310
:1041A000C0F8503100F5A273C0F84801C0F84031A2
:1041B000704700BFD5440008064BC0F84C310023BF
:1041C000C0F8503100F5A273C0F84801C0F8403182
:1041D000704700BF614A0008064BC0F84C3100230D
:1041E000C0F8503100F5A273C0F84801C0F8403162
:1041F000704700BF89430008064BC0F84C310023CC
:10420000C0F8503100F5A273C0F84801C0F8403141
:10421000704700BF25490008064BC0F84C31002309
:10422000C0F8503100F5A273C0F84801C0F8403121
:10423000704700BF4142000803685B6A18470000EE
:104240002DE9F14FD0E9556A0746B06803681B6A4B
:104250009847B0F5CC7F05D2434B444AA32144484C
:1042600026F080FD706803681B6A98470F2803D802
:10427000404B3E4AA421F2E7F06803681B6A984766
:104280000B2803D83C4B394AA521E8E713F012F874
:10429000DFF8EC90043013F05AF8D9F8000010B1B0
:1042A0000368DB689847D9F8000010B103681B6801
:1042B0009847DFF8D080D8F8000010B103685B6938
:1042C0009847D7F83C0110B103685B689847D8F865
:1042D000000010B103681B689847D7F83C0110B183
:1042E00003689B689847F0680021FFF7A5FF4FF02F
:1042F000000B224BC0F804B0044680F808B00360FD
:10430000B068036859465B6A9847054604F0F8F8B8
:104310007068036859465B6A98472946064604F068
:10432000CBF8331DC7F83C61C9F80040C8F800500D
:10433000CAF800302B68C6F808A02846DB68EE6390
:104340009847336830461B6898472146284615F041
:1043500095F8236820461B69984723685B692046C7
:1043600001B0BDE8F04F18477EC402080CC5020832
:10437000E2C5020829C60208CCC6020894D7020882
:10438000A83F0120A43F01202DE9F14FD0E9556A53
:104390000746B06803681B6A984741F2FB6398427E
:1043A00005D8444B444AA321444826F0DBFC7068FE
:1043B00003681B6A98470F2803D8414B3E4AA42143
:1043C000F2E7F06803681B6A98470B2803D83D4B57
:1043D000394AA521E8E712F06DFFDFF8F0900430CC
:1043E00012F0B5FFD9F8000010B10368DB689847F8
:1043F000D9F8000010B103681B689847DFF8D08037
:10440000D8F8000010B103685B699847D7F83C0101
:1044100010B103685B689847D8F8000010B10368D2
:104420001B689847D7F83C0110B103689B68984710
:10443000F0680021FFF700FF4FF0000B224BC0F89F
:1044400004B0044680F808B00360B06803685946B9
:104450005B6A9847054603F0C5F8706803685946DB
:104460005B6A98472946064603F090F8331DC7F863
:104470003C61C9F80040C8F80050CAF800302B6809
:10448000C6F808A02846DB68EE63984733683046D4
:104490001B6898472146284614F0F0FF2368204601
:1044A0001B69984723685B69204601B0BDE8F04F5F
:1044B000184700BF7EC402086FC70208E2C50208A1
:1044C00029C60208CCC6020894D70208A83F0120DA
:1044D000A43F01202DE9F14FD0E9556A0746B068A5
:1044E00003681B6A984741F26373984205D8444BAE
:1044F000444AA321444826F035FC706803681B6ACF
:1045000098470F2803D8414B3E4AA421F2E7F068B0
:1045100003681B6A98470B2803D83D4B394AA521ED
:10452000E8E712F0C7FEDFF8F090043012F00FFF5A
:10453000D9F8000010B10368DB689847D9F800008B
:1045400010B103681B689847DFF8D080D8F80000E6
:1045500010B103685B699847D7F83C0110B1036854
:104560005B689847D8F8000010B103681B6898474B
:10457000D7F83C0110B103689B689847F0680021A8
:10458000FFF75AFE4FF0000B224BC0F804B0044670
:1045900080F808B00360B068036859465B6A9847C2
:1045A000054605F0D1FB7068036859465B6A984779
:1045B0002946064605F09CFB331DC7F83C61C9F847
:1045C0000040C8F80050CAF800302B68C6F808A0B0
:1045D0002846DB68EE639847336830461B68984787
:1045E0002146284614F04AFF236820461B69984755
:1045F00023685B69204601B0BDE8F04F184700BF53
:104600007EC4020847C80208E2C5020829C602089B
:10461000CCC6020894D70208A83F0120A43F01207D
:104620002DE9F14FD0E9556A0746B06803681B6A67
:10463000984741F61303984205D8444B444AA321B6
:10464000444826F08FFB706803681B6A98470F2860
:1046500003D8414B3E4AA421F2E7F06803681B6A85
:1046600098470B2803D83D4B394AA521E8E712F0BB
:1046700021FEDFF8F090043012F069FED9F8000056
:1046800010B10368DB689847D9F8000010B10368DF
:104690001B689847DFF8D080D8F8000010B1036895
:1046A0005B699847D7F83C0110B103685B6898478D
:1046B000D8F8000010B103681B689847D7F83C0190
:1046C00010B103689B689847F0680021FFF7B4FDBC
:1046D0004FF0000B224BC0F804B0044680F808B03D
:1046E0000360B068036859465B6A9847054604F062
:1046F00027F87068036859465B6A9847294606465A
:1047000003F0F2FF331DC7F83C61C9F80040C8F858
:104710000050CAF800302B68C6F808A02846DB68AD
:10472000EE639847336830461B6898472146284611
:1047300014F0A4FE236820461B69984723685B6930
:10474000204601B0BDE8F04F184700BF7EC4020804
:1047500023C90208E2C5020829C60208CCC602081D
:1047600094D70208A83F0120A43F01202DE9F14F72
:10477000D0E9556A0746B06803681B6A984741F656
:104780007B03984205D8444B444AA321444826F071
:10479000E9FA706803681B6A98470F2803D8414BF1
:1047A0003E4AA421F2E7F06803681B6A98470B2889
:1047B00003D83D4B394AA521E8E712F07BFDDFF82D
:1047C000F090043012F0C3FDD9F8000010B1036876
:1047D000DB689847D9F8000010B103681B68984758
:1047E000DFF8D080D8F8000010B103685B69984703
:1047F000D7F83C0110B103685B689847D8F800000F
:1048000010B103681B689847D7F83C0110B10368E2
:104810009B689847F0680021FFF70EFD4FF0000BF2
:10482000224BC0F804B0044680F808B00360B068BA
:10483000036859465B6A9847054606F067FA706850
:10484000036859465B6A98472946064606F03CFAD3
:10485000331DC7F83C61C9F80040C8F80050CAF8D9
:1048600000302B68C6F808A02846DB68EE6398473E
:10487000336830461B6898472146284614F0FEFDF1
:10488000236820461B69984723685B69204601B06E
:10489000BDE8F04F184700BF7EC40208FBC90208FC
:1048A000E2C5020829C60208CCC6020894D702084D
:1048B000A83F0120A43F012003685B6A184700005D
:1048C000002370B5C0E90533C0E90733C0E90933F7
:1048D000C0E90B33436003728372C3814FF480736A
:1048E00043630C4B03610C4B4172B3F900100B4B4B
:1048F0000B4AB3F90060026000F1100504468181A3
:104900002846FDF7B7F928463146FDF7B5F92046A8
:1049100070BD00BFC0D60208543F0120563F0120A1
:10492000B8D702082DE9F047D0E9556A0746B068C4
:1049300003681B6A984741F2BB53984205D8414B24
:10494000414AA321414826F00DFA706803681B6AAA
:1049500098470F2803D83E4B3B4AA421F2E7F06862
:1049600003681B6A9847372803D83A4B364AA52173
:10497000E8E712F09FFCDFF8E090043012F0E7FC6B
:10498000D9F8000010B10368DB689847D9F8000037
:1049900010B103681B689847DFF8C080D8F80000A2
:1049A00010B103685B699847D7F83C0110B1036800
:1049B0005B689847D8F8000010B103681B689847F7
:1049C000D7F83C0110B103689B689847F068002154
:1049D000FFF772FF14210446FFF772FFB068036807
:1049E00000215B6A9847054602F072FD7068036813
:1049F00000215B6A98472946064602F033FD331DC5
:104A0000C7F83C61C9F80040C8F80050CAF8003047
:104A10002B68C6F808A02846DB68EE639847336821
:104A200030461B6898472146284614F027FD236826
:104A300020461B699847236820465B69BDE8F0471C
:104A4000184700BF7EC40208D5CA0208E2C50208A2
:104A500029C60208CCC60208A83F0120A43F0120B5
:104A60002DE9F047D0E9556A0746B06803681B6A2C
:104A7000984741F22363984205D8414B414AA3210C
:104A8000414826F06FF9706803681B6A98470F2841
:104A900003D83E4B3B4AA421F2E7F06803681B6A47
:104AA0009847372803D83A4B364AA521E8E712F051
:104AB00001FCDFF8E090043012F049FCD9F8000066
:104AC00010B10368DB689847D9F8000010B103689B
:104AD0001B689847DFF8C080D8F8000010B1036861
:104AE0005B699847D7F83C0110B103685B68984749
:104AF000D8F8000010B103681B689847D7F83C014C
:104B000010B103689B689847F0680021FFF7D4FE56
:104B100014210446FFF7D4FEB068036800215B6AE5
:104B20009847054605F086F87068036800215B6ABF
:104B300098472946064605F047F8331DC7F83C61FB
:104B4000C9F80040C8F80050CAF800302B68C6F811
:104B500008A02846DB68EE639847336830461B6838
:104B600098472146284614F089FC236820461B6993
:104B70009847236820465B69BDE8F047184700BFA7
:104B80007EC40208C9CB0208E2C5020829C6020891
:104B9000CCC60208A83F0120A43F01202DE9F04720
:104BA000D0E9556A0746B06803681B6A984741F226
:104BB000D363984205D8414B414AA321414826F08E
:104BC000D1F8706803681B6A98470F2803D83E4BDA
:104BD0003B4AA421F2E7F06803681B6A984737282C
:104BE00003D83A4B364AA521E8E712F063FBDFF819
:104BF000E090043012F0ABFBD9F8000010B103686C
:104C0000DB689847D9F8000010B103681B68984723
:104C1000DFF8C080D8F8000010B103685B699847DE
:104C2000D7F83C0110B103685B689847D8F80000DA
:104C300010B103681B689847D7F83C0110B10368AE
:104C40009B689847F0680021FFF736FE1421044660
:104C5000FFF736FEB068036800215B6A9847054697
:104C600003F0E8FC7068036800215B6A98472946F6
:104C7000064603F0A9FC331DC7F83C61C9F80040A3
:104C8000C8F80050CAF800302B68C6F808A02846BB
:104C9000DB68EE639847336830461B6898472146C7
:104CA000284614F0EBFB236820461B6998472368CD
:104CB00020465B69BDE8F047184700BF7EC4020884
:104CC000C1CC0208E2C5020829C60208CCC6020807
:104CD000A83F0120A43F01202DE9F047D0E9556A03
:104CE0000746B06803681B6A984741F67B03984201
:104CF00005D8414B414AA321414826F033F870685A
:104D000003681B6A98470F2803D83E4B3B4AA421EF
:104D1000F2E7F06803681B6A9847372803D83A4BD4
:104D2000364AA521E8E712F0C5FADFF8E090043032
:104D300012F00DFBD9F8000010B10368DB6898474A
:104D4000D9F8000010B103681B689847DFF8C080ED
:104D5000D8F8000010B103685B699847D7F83C01A8
:104D600010B103685B689847D8F8000010B1036879
:104D70001B689847D7F83C0110B103689B689847B7
:104D8000F0680021FFF798FD14210446FFF798FD15
:104D9000B068036800215B6A9847054605F0B6FFD6
:104DA0007068036800215B6A98472946064605F04B
:104DB0008BFF331DC7F83C61C9F80040C8F80050AC
:104DC000CAF800302B68C6F808A02846DB68EE63F6
:104DD0009847336830461B6898472146284614F0A8
:104DE0004DFB236820461B699847236820465B6972
:104DF000BDE8F047184700BF7EC40208B5CD0208E1
:104E0000E2C5020829C60208CCC60208A83F012054
:104E1000A43F0120406A7047806A704770478B88C2
:104E2000C0690A68DB0A50F823001044704710B5C7
:104E30000446BAB1107B68B1537BD27A1B0203F4EB
:104E4000E0631A43236A03EB82031A888A4202D181
:104E500093F9020010BD05D8013880B20433002850
:104E6000F3D1F7E70020F5E710B52C21044624F034
:104E70003BFF204610BD000030B58BB00446BDF8A6
:104E800060500895BDF85C5007959DF85050069508
:104E90009DF84C5005959DF8485004959DF8445058
:104EA00003959DF8405002959DF83C500195BDF842
:104EB0003850009513F06EFE064B2360159BE3619E
:104EC000169B2362199B63621A9BA36220460BB058
:104ED00030BD00BFDCD702087047000010B5034B9F
:104EE0000360044610F0ECFC204610BDACD802086C
:104EF00010B5064B0360044610F0E2FC204641F278
:104F0000D06124F0F1FE204610BD00BFACD80208ED
:104F100010B500F58054D4F8CC360133B42BC4F866
:104F2000CC3606D112F0C6F9FFF716F90023C4F803
:104F3000CC3610BD0022C0E90122C0E90322C0E93D
:104F40000522C0E907224FF480728284014A026080
:104F5000704700BF44D8020838B5262204460D46E3
:104F6000002126F018F92046FFF7E4FF064B2360E6
:104F70002B88E384FF23204684F8283029460FF04D
:104F800097FC204638BD00BFBCE202082DE9F04F77
:104F9000044697B0A046002614F0C4F8DF4BE66341
:104FA00048F8403B4046FEF7B9F804F16C03184658
:104FB00004F1980A099304F1C409FEF7AFF85046CA
:104FC000FEF7ACF84846FEF7A9F804F1F0031846DE
:104FD0000A930DF027FE04F59C7318460F93FCF717
:104FE0002DFFCF4BC4F838312433C4F8403104F5D9
:104FF000A6731846C4F84461CA4D0E934FF00107DA
:10500000FEF78CF804F5BC7304F5D27B1846C4F89F
:105010004C5184F870710D93FEF780F8C4F8785104
:1050200084F89C715846FEF78FF804F5F67318461D
:105030000493FEF789F804F50D731846BA4D0C93E6
:10504000FEF76CF804F51A73C4F834521846C4F825
:105050006062A4F864620B93FEF760F804F52773AE
:10506000C4F868521846C4F89462A4F89862AF4D28
:105070000293FEF769F804F53A73C4F89C52184697
:10508000C4F8E4620393FEF75FF804F54D73C4F8C7
:10509000E85214A94FF6FF751846C4F8306305931B
:1050A000ADF85050FFF758FF04F5587314A918468F
:1050B0000693ADF85050FFF74FFF04F5637314A942
:1050C00018460793ADF85050FFF746FF04F56E738E
:1050D00014A918460893ADF85050FFF73DFF04F5AA
:1050E0008053F025C3F8CC664FF4965104F20C407F
:1050F00010F0DCFB3246404600954FF4A073314679
:10510000271DFDF7F7FF4FF07F434146A366384662
:105110000BF046F84FF0FF384FF4A0733246099871
:1051200000953146FDF7E6FF0999C4F894803846AA
:105130000BF036F80222EC231146504600934FF450
:105140009E73FDF7D7FF7A4BC4F8C03051463846FE
:105150000BF026F83246484600950323A021FDF7C0
:10516000C9FFDC234946C4F8EC8084F8EA303846AD
:105170000BF016F80E2372220A9800939A21FDF77D
:10518000B9FFC023C4F824314FF43453C4F82C3190
:10519000684BC4F8443149F66103A4F848310F9BC9
:1051A0000A99C4F81831C4E9475538461425C4F89B
:1051B0003061C4F828610AF0F3FF05236E220E98CF
:1051C00000950721FDF796FF0E99C4F874813846C3
:1051D0000AF0E6FF05236E220D9800954FF49A71B0
:1051E000FDF788FF0D99C4F8A08138460AF0D8FF72
:1051F0004FF034095E2210AD114613235846CDF806
:105200000090FDF777FF5946C4F8D4812846A4F8EA
:10521000D8610EF08BFE95E8070004F5F07A4FF0A8
:1052200001038AE80700594684F8DC3128460EF06D
:105230007DFE95E80700404B14938AE807000D2394
:1052400058466FF0410A14A9ADF854300FF016F922
:10525000594684F8DAA138460AF0A2FF13235D22EA
:105260000498CDF80090CC21FDF744FF0499C4F8D0
:105270001C822846A4F820620EF058FE95E807002C
:1052800004F50A784FF0030B88E80700049984F8C6
:1052900024B228460EF04AFE95E80700264B1493E8
:1052A00088E807000C230498DFF89090DFF89080DE
:1052B000ADF8543014A90FF0E1F8049984F822A253
:1052C00038464FF0780A0AF06BFF02233D220C9813
:1052D000CDF800A03146FDF70DFFC4E997980C9971
:1052E000A4F8646238460AF05BFF02233C220B9864
:1052F000CDF800A04FF49F71FDF7FCFEC4E9A4981F
:105300000B99A4F8986238460AF04AFF6F22029877
:10531000DFF830902E21FDF7E0FE15E0ACD8020852
:1053200048DE0208A4D5020854E2020814D5020897
:1053300037380CFF0C0C99FF04D502086E0B00FFE8
:105340003493ADFFB83F0120744BC4F8CC32D4F88D
:105350009C320299D3F88430A4F8D062284698474A
:1053600095E8070004F536784FF0010388E8070058
:1053700084F8D432D4F89C320299D3F88430284689
:10538000984795E80700D9F8003088E8070004F549
:1053900079782BB9624B634A6021634825F0E2FCBF
:1053A000DFF898A1BAF80030082B03D85F4B5D4AAC
:1053B0006121F2E75E4B0821186802F00FF85D4AA0
:1053C00003460A21404615F08DFB0298C4F8E4829A
:1053D0000FF034F84FF0D2080B23574A0298ADF87B
:1053E000543014A914920FF049F8029984F8D2822B
:1053F00038460AF0D5FE6F220398F521FDF76DFEC1
:10540000D4F8E8324549D3F88430C4F81813284654
:105410000399A4F81C63984795E80700D4F8E8328C
:1054200004F5497686E80700D3F88430039984F8B8
:1054300020B32846984795E80700D9F8003086E859
:10544000070004F57E75002BA4D0BAF80030082BB5
:10545000ACD9374B0821186801F0C0FF354A034624
:105460000A21284615F03EFB0398C4F830530EF08D
:10547000E5FF0A25304A0398149214A9ADF8545058
:105480000EF0FCFF039984F81E8338460AF088FE6C
:105490002A46059840F23911FDF71FFE04260598AB
:1054A000ADF8506014A90FF003FA059938460AF0D8
:1054B00077FEBE22069840F23911FDF70EFE0698DF
:1054C000ADF8506014A90FF0F3F9069938460AF0C8
:1054D00067FE2A4607986FF00101FDF7FEFD079869
:1054E000ADF850B014A90FF0E3F9079938460AF067
:1054F00057FEBE2208986FF00101FDF7EEFD0898F7
:10550000ADF850B014A90FF0D3F9384608990AF055
:1055100047FE204617B0BDE8F08F00BF5FABDEFF4F
:105520002EC3020830C40208ABC30208F2C302084B
:10553000C43F01207BC4020804D50208BC3F0120FF
:105540007047000010B5034B0360044610F0B8F933
:10555000204610BDE0D8020810B5064B0360044693
:1055600010F0AEF9204641F2D47124F0BDFB204684
:1055700010BD00BFE0D802082DE9F04F04469BB0F3
:10558000A246002613F0CEFDB54BE6634AF8403B39
:105590005046FDF7C3FD04F16C0304F1980818466A
:1055A0000A93FDF7BBFD4046FDF7B8FD04F1C403C7
:1055B00018460B93FDF7B2FD04F1F0031846A94F0E
:1055C00010934FF00105FDF7A9FD04F58E73184601
:1055D00004F5A47BC4F8F07084F814510F9304F51B
:1055E000CA79FDF79BFDC4F81C7184F840519E4FA9
:1055F0005846FDF7A9FDC4F84871C4F890614846C3
:10560000FDF7A2FD04F5F073C4F894711846C4F8D0
:10561000DC610493FDF798FD04F50A7318460593C1
:10562000FDF792FD04F51C731846904F0E93FDF79D
:1056300075FD04F52973C4F870721846C4F89C62AD
:10564000A4F8A0620D93FDF769FD04F53673C4F864
:10565000A4721846C4F8D062A4F8D4620C930DF07A
:10566000E1FA04F5487318461393FCF7E7FB804B07
:10567000C4F8203303F1240504F54D734FF6FF778A
:10568000C4F8285318A91846C4F82C630693ADF83B
:105690006070FFF761FC04F5587318A9184607936A
:1056A000ADF86070FFF758FC04F5637318A918464D
:1056B0000893ADF86070FFF74FFC04F56E7318A9FE
:1056C00018460993ADF86070FFF746FC04F579734E
:1056D000184602930EF05CF904F2544318461293F4
:1056E000FCF7ACFBA5F12403C4F8543404F58D6336
:1056F000C4F85C541846C4F8606403930EF048F98B
:1057000004F59B6318461193FCF798FBA5F124035D
:10571000C4F8D834C4F8E0544FF4965104F214504D
:10572000C4F8E46410F0C2F8F02332465046009307
:1057300031464FF4A073FDF7DDFC271D4FF07F438A
:105740005146A36638460AF02BFDF0234FF0FF3A8E
:1057500032460A98009331464FF4A073FDF7CAFC15
:105760000A99C4F894A038460AF01AFD0222EC23E4
:105770001146404600934FF49E73FDF7BBFC3D4B32
:10578000C4F8C030414638460AF00AFDF0233246DC
:105790000B980093A0210323FDF7ACFCDC23142518
:1057A0000B9984F8EA303846C4F8ECA00AF0F8FC0B
:1057B00005236E22109800950721FDF79BFC109998
:1057C000C4F818A138460AF0EBFC05236E220F98A6
:1057D00000954FF49A71FDF78DFC0F99C4F844A120
:1057E00038460AF0DDFC1622B8215846FDF775FC54
:1057F000214BC4F87831D4F84831A4F87C6114AD59
:10580000D3F8843059462846984795E8070004F5B0
:10581000C2784FF0030388E8070084F88031D4F899
:1058200048315946D3F884302846984795E8070010
:1058300088E80700DFF8588004F2EC430A93D8F8B0
:1058400000302BB90D4B0E4A60210E4825F08AFA24
:105850000D4B1B88012B1DD80C4B094A6121F4E725
:10586000E0D80208A4D5020814D5020854E20208C0
:1058700048DE020837380CFF565659FF2EC302087F
:1058800030C40208ABC30208BC3F0120F2C30208C7
:10589000B83F0120C14B0121186801F09FFDC04AAB
:1058A00003460A210A9815F01DF90A99C4F89011C7
:1058B00058460EF0C3FDBB4B18935846192318A940
:1058C000ADF864300EF0DAFD594638460AF068FC4F
:1058D000C32275214846FDF700FCD4F89431B24943
:1058E000D3F88430C4F8C41128464946A4F8C861E6
:1058F000984795E8070004F5E87BD4F894318BE8E5
:1059000007004FF00101D3F8843084F8CC11284609
:105910004946984795E80700D8F800308BE807001B
:1059200004F5A06B002B8DD0A0490B88022B93D9D6
:105930009A4A0221106801F051FD994A03460A2152
:10594000584615F0CFF84846C4F8DCB10EF076FDA5
:1059500018AA944B1893114618234846ADF86430A2
:105960000EF08CFD494638464FF034090AF018FC19
:105970001323B4220498CDF800908C21FDF7BAFBD4
:1059800028460499C4F810A2A4F814620EF0CEFAC6
:1059900095E8070004F5077888E807004FF0010153
:1059A000284684F8181204990EF0C0FA95E807000A
:1059B0007C4B189388E8070017234FF0BE08049823
:1059C000ADF8643018A90EF059FD049984F81682D8
:1059D00038460AF0E5FB132307220598CDF800901E
:1059E000A521FDF787FB28460599C4F858A2A4F81D
:1059F0005C620EF09BFA95E8070004F5197989E8D6
:105A000007004FF003022846059984F860220EF043
:105A10008DFA95E80700634B189389E80700162371
:105A20000598634DADF8643018A90EF027FD4FF0CE
:105A30007809059984F85E823846DFF87C810AF09F
:105A4000AFFB02233C220E98CDF800903146FDF7C3
:105A500051FBC4E9A6850E99A4F8A06238460AF065
:105A60009FFB02233C220D98CDF800904FF49F71CC
:105A7000FDF740FBC4E9B3850D99A4F8D46238461C
:105A80000AF08EFB0E2372220C9800939A21FDF7E8
:105A900031FBF023C4E9C133C023C4F80C334FF405
:105AA0003453C4F81433434BC4F82C3349F6610320
:105AB000A4F83033139BC4F800330C99C4F818636E
:105AC0003846C4F810630AF06BFB0A2206986FF0A0
:105AD0000201FDF702FB4FF003050698ADF8605098
