:020000040800F2
:10000000000003205D060008392100083B2100089C
:100010003D2100083F2100084121000800000000A8
:10002000000000000000000000000000218E000819
:100030004321000800000000B18E00084587000839
:10004000AD060008AD060008AD060008AD060008C4
:10005000AD060008AD060008AD060008AD060008B4
:10006000AD060008AD060008AD060008AD060008A4
:10007000AD060008AD060008AD060008AD06000894
:10008000AD060008AD060008AD060008AD06000884
:10009000AD060008AD060008AD060008AD06000874
:1000A000AD060008AD060008AD060008AD06000864
:1000B000AD060008AD060008AD060008AD06000854
:1000C000AD060008AD060008AD060008AD06000844
:1000D000AD060008AD060008AD060008AD06000834
:1000E000AD060008AD060008AD060008AD06000824
:1000F000AD060008AD060008AD060008AD06000814
:10010000AD060008AD060008AD060008AD06000803
:10011000AD060008AD06000845210008AD06000840
:10012000AD060008AD060008AD060008AD060008E3
:10013000AD060008AD060008AD060008AD060008D3
:10014000AD060008AD060008AD060008AD060008C3
:10015000AD060008AD060008AD060008AD060008B3
:10016000AD060008AD060008AD060008AD060008A3
:10017000AD060008AD060008AD060008000000004E
:10018000AD060008AD060008AD060008AD06000883
:10019000AD060008AD060008AD060008AD06000873
:0C01A00051210008AD0600085D21000898
:1001B00010B5054C237833B9044B13B10448AFF3A1
:1001C00000800123237010BD800300200000000088
:1001D000C854020808B5034B1BB103490348AFF3E9
:1001E000008008BD0000000084030020C8540208FD
:1001F00001F0FF01102A2BDB10F0070F08D010F8D8
:10020000013B013A8B422DD010F0070F42B3F6D1DB
:10021000F0B441EA012141EA014122F007047FF0F4
:1002200000070023F0E80256083C85EA010586EA4B
:10023000010685FA47F5A3FA87F586FA47F6A5FA87
:1002400087F68EB9EED1F0BC01F0FF0102F0070293
:1002500032B110F8013B013A83EA010313B1F8D13E
:100260000020704701387047002D06BF354603381F
:10027000073815F0010F07D1013015F4807F02BF58
:10028000013015F4C03F0130F0BC0138704700BFA9
:100290007BB972B90029BEBF00204FF0004106E0D3
:1002A00008BF00281CBF6FF000414FF0FF3000F086
:1002B000D3B9ADF1080C6DE904CE002909DB002BA0
:1002C0001ADB00F04DF8DDF804E0DDE9022304B0AC
:1002D0007047404261EB4101002B1BDB00F040F80E
:1002E000DDF804E0DDE9022304B0404261EB4101A6
:1002F000524263EB43037047524263EB430300F007
:100300002FF8DDF804E0DDE9022304B0404261EBA0
:1003100041017047524263EB430300F021F8DDF8DE
:1003200004E0DDE9022304B0524263EB430370476B
:1003300053B94AB9002908BF00281CBF4FF0FF314C
:100340004FF0FF3000F088B9ADF1080C6DE904CE34
:1003500000F006F8DDF804E0DDE9022304B07047A0
:100360002DE9F047089D8E4604468846002B4AD169
:100370008A42174662D9B2FA82F64EB1C6F120031C
:1003800001FA06F820FA03F3B74043EA0808B4403C
:100390004FEA174E1FFA87FCB8FBFEF1230C0EFB49
:1003A000118843EA084301FB0CF29A4209D9FB1871
:1003B00001F1FF3080F0EA809A4240F2E780023992
:1003C0003B449A1AA3B2B2FBFEF00EFB102243EAA2
:1003D000024300FB0CFC9C4509D9FB1800F1FF32DD
:1003E00080F0D6809C4540F2D3803B44023840EAFE
:1003F0000140A3EB0C0300211DB1F3400022C5E92D
:100400000032BDE8F0878B4205D90DB1C5E9000186
:1004100000210846F5E7B3FA83F1002946D1734578
:1004200002D3824200F20581841A6EEB030201209E
:100430009046002DE5D0C5E90048E2E7002A00F02B
:100440009080B2FA82F6002E40F0A4808A1A030C43
:100450004FEA174E80B2BCB20121B2FBFEFC0EFB8C
:100460001C2243EA024304FB0CF29A4207D9FB1810
:100470000CF1FF3802D29A4200F2E080C4469B1A87
:10048000B3FBFEF20EFB123340EA034302FB04F41B
:100490009C4207D9FB1802F1FF3002D29C4200F2C5
:1004A000CA8002461B1B42EA0C40A5E7C1F12006A8
:1004B0008B4022FA06F71F430EFA01F420FA06F3E6
:1004C0002EFA06FE4FEA1749234300FA01F81FFAF5
:1004D00087FCBEFBF9F01C0C09FB10EE44EA0E444D
:1004E00000FB0CFEA64502FA01F209D93C1900F105
:1004F000FF3A80F09C80A64540F2998002383C4447
:10050000A4EB0E041FFA83FEB4FBF9F309FB1344BA
:100510004EEA044403FB0CFCA44508D93C1903F142
:10052000FF3E80F08280A4457FD9023B3C4443EAF1
:100530000040A4EB0C04A0FB02EC64457346E146CA
:1005400062D35FD05DB1B8EB030264EB090404FA37
:1005500006F622FA01F31E43CC40C5E900640021EF
:100560004FE7B1FBF2FC010C41EA0E4180B240EAD8
:1005700001423B4638463C46B846BE462026B1FBC3
:10058000F7F1A2EB080241EA0C4166E7014618E7E1
:1005900010462CE7C6F120022EFA02F3B740B14014
:1005A00020FA02F24FEA174E0A43B3FBFEF8BCB240
:1005B0000EFB1833110C41EA034108FB04F9B0406B
:1005C00089454FEA104380B23ED9791808F1FF3CC3
:1005D00001D289451FD8A1EB0901B1FBFEF909FB46
:1005E00004F80EFB191192B242EA0142424529D2A7
:1005F000BA1809F1FF31C4D24245C2D2A9F10201B1
:100600003A44BEE7F0459DD2BEEB02036CEB070C0B
:100610000138E14696E7A7EB09094944A8F1020C25
:10062000B1FBFEF909FB04F8DBE773467FE75046B0
:1006300066E70846FDE63B44023A33E7ACF1020CBC
:100640003B441CE749469CE7A1EB0901C446B1FBCA
:10065000FEF909FB04F8C4E7704700BFDFF834D0A7
:10066000002103E00C4B5B58435004310B480C4B0A
:1006700042189A42F6D30B4A02E0002342F8043BA8
:10068000094B9A42F9D305F0DFFD24F0AFF901F0F0
:100690003BF8704700000320F887040800000020A2
:1006A0006401002080030020F84C0120FEE7704721
:1006B00008B500F0A5FDBDE8084000F027BD00F03A
:1006C000A1BD704710B50421044622F0A3FF2046C7
:1006D00010BD000038B50C4B0C4C18800C4B822020
:1006E00019806368984740F6110398420AD1094D72
:1006F00023682C60822098472B688220DB6898470B
:10070000002038BD0120FCE7A60300204C0000209B
:10071000A4030020A80300204FF4A071F020FFF7ED
:10072000D9BF0000F7B52F4D2B6804461B69822006
:1007300098472080002844D02B680DF106025B69A1
:1007400001A982209847BDF80620A2F5B47292B2A2
:100750000A2A38D90B23B2FBF3F2234B1B889A42A7
:1007600001D9013B9AB2BDF80430204840F6B831B7
:100770008B422AD8C3F571630E3301689BB20F25F3
:10078000B3FBF5F31A4D2D88AB4284BF05F1FF355D
:10079000ABB28B421D468EB220D99B1B99B2154E2F
:1007A0003768BBB2BA428CBFD31A9B1A9BB21944AA
:1007B0000529C8BF05600368C8BF3260638033681D
:1007C000A38003B0F0BD0022CDE7C3F56D6308330D
:1007D0009BB20E2B0168D2D800252B46C91A89B2CC
:1007E000DDE700BFA8030020A4030020A003002031
:1007F000A60300209C03002037B568460D4614462A
:10080000FFF790FFBDF8000030B1BDF802302B605B
:10081000BDF804302360012003B030BD032821D887
:10082000DFE800F0020B12190F4B1A68B2FA82F2DD
:10083000520904210D4805F09BBF0B4B5A68B2FAD0
:1008400082F252090821F5E7074B9A68B2FA82F260
:1008500052091021EEE7044BDA68B2FA82F252092B
:100860002021E7E7704700BFAC03002000100240E2
:10087000032821D8DFE800F0020B12190F4B1A6889
:10088000003A18BF012204210D4805F071BF0B4B3F
:100890005A68003A18BF01220821F5E7074B9A6809
:1008A000003A18BF01221021EEE7044BDA68003A43
:1008B00018BF01222021E7E7704700BFAC030020EA
:1008C0000010024003280DD8DFE800F00206080AF5
:1008D0000421054805F051BF0821FAE71021F8E787
:1008E0002021F6E7704700BF0010024008B503283A
:1008F00011D8DFE800F0020A0C0E0421074805F0C9
:1009000031FF431E5842584108BD0821F6E7102127
:10091000F4E72021F2E70020F3E700BF00100240D7
:1009200070B5084D00240126E0B2FFF7DFFF18B1D3
:100930002B68012B18BF2E600134052C05F104052E
:10094000F2D170BDAC030020012380F8781080F84C
:100950007930704700207047034B4164003918BF5D
:1009600001211970704700BFB73F01200020704778
:10097000836B0BB10846184770474FF6FF707047FE
:10098000406803689B6918477047704770470000CC
:1009900010B5044600F044FD23680349D3F88C30B9
:1009A0002046BDE810401847000000D008B5036895
:1009B0000446D3F880309847236820469B6F9847B9
:1009C00000F0ECF8236820461B6F9847292001F0BF
:1009D000D3F800F0E3F8236820461B6F9847F8E748
:1009E00010B504460AF0D4FF23682046D3F8AC3093
:1009F000BDE81040184700F0F7BC00F0FBBC00F069
:100A00002DBD00F0CDBC00F03DBD00F045BD00F0B7
:100A1000D1BC0AF029BA10B57C21044622F0FAFDB7
:100A2000204610BD10B590F8341090F878400C4B6B
:100A30008C421A7809D03AB90A4A0B4914880888B6
:100A400010800C8001221A7010BD002AFCD0054ACB
:100A500005491488088810800C800022F3E700BF45
:100A6000B03F0120AC3F0120AE3F012070B50D46E4
:100A7000194635B9094B0A4A0A4840F2D22123F0F7
:100A800005FDC0E90F52084B003A18BF01221A7049
:100A90000368BDE87040D3F88C3018473855020819
:100AA00070550208BE550208B63F012008B5094B33
:100AB0001B888B4203D8084B1B88934205D9074BF0
:100AC000074A08489E2123F0E1FC074B1980074B99
:100AD0001A8008BDAC3F0120AE3F0120035602083A
:100AE00066560208BE550208B23F0120B43F0120FD
:100AF000034690F87A0018B1586803681B681847D5
:100B000070470000012108B50022084607F0A4FE46
:100B10000A4B186028B90A4B0A4A28210A4823F0D0
:100B2000B5FC00220421012007F035FF074B1860B7
:100B300018B9074B034A2C21F0E708BDC003002079
:100B4000A9560208F256020821570208BC030020E9
:100B50006D570208024B4FF0FF31186807F0C6BE10
:100B6000C0030020014B186807F0ECBEC003002052
:100B7000024B0021186807F0B9BE00BFC003002077
:100B8000FFF7F0BF03480449006800231A4607F046
:100B90003DBF00BFBC0300200400002013B5084C7B
:100BA00000231A4601A9206807F061FF20684FF072
:100BB000FF33002201A907F05AFF02B010BD00BFA9
:100BC000BC03002003685B6C184701207047036872
:100BD0009B6A1847FEE740F2EF307047054B036011
:100BE000054B4FF08062C3F88820BFF34F8FBFF3EF
:100BF0006F8F70471465020800E100E010B50446ED
:100C00004FF45A61FFF7EAFF204622F003FD204629
:100C100010BD000082B0002301930E4B1A6B42F40A
:100C200000021A631A6B02F400020192019A1A6917
:100C300042F400021A611A6922F400021A61064B9A
:100C4000064A1A61064A5A61064B4FF080629A6062
:100C500002B07047003802403C300020B50E00085A
:100C6000D50B000800E100E008B50A2809D8DFE844
:100C700000F006100E0808080810101010000220DE
:100C800008BD054B054A0648902123F0FFFB0020D4
:100C9000F6E70120F4E700BFAF570208CA57020881
:100CA0001558020838B50C46887FFFF7DDFFA58A86
:100CB000E28A164B2169586342EA05425A64628B04
:100CC000D963521B1A642568082D0ED19A611A61E6
:100CD0005862207F0E4A42EA0062DA61E2681A62D4
:100CE0000C4A5961D9601A6038BD0022D8611A6176
:100CF000E1680A0A480902F4784200F4FC60024301
:100D0000C1F3C4010A439A63034AECE700B002400E
:100D100009000100012302000123030008B50B288C
:100D20000BD8DFE800F00612100A0A0A0A080808C1
:100D30000808022008BD0520FCE7054B054A0648C7
:100D40006F2123F0A3FB0020F4E70120F2E700BFAE
:100D5000AF5702085F580208155802082DE9F04104
:100D600091F81D800C464046FFF7D8FFA77F054647
:100D70003846FFF7D3FF06463846FFF775FFA18ACE
:100D8000628B444B521A1A649A61228B521A1A616E
:100D9000E28A586342EA01425A6421696268D9636F
:100DA000DA602068802828D0227F0FD8202867D0DA
:100DB000402865D004281AD0364B45EA026545F430
:100DC0000035B845DD6161D0334A44E0B0F5807F3D
:100DD00004D0B0F5007FEFD1304800E0304840EA61
:100DE0000262DA61E2681A625E62596132E045EAE3
:100DF000026242F40032DA61F6E7A068021DDA62AC
:100E0000227F45EA026545F40035DD615E62596185
:100E1000017841B1012921D0224B234A23484FF4C4
:100E20008D7123F033FBDA69418822F47F42013966
:100E300022F0100242EA0122DA610121154BDA693F
:100E400042F02002DA61DA699206FCD410229A603C
:100E50000029B9D0164A1A60BDE8F081B2F1FF014D
:100E6000DA69408822F47F4200F1FF3022F010025C
:100E700042EA002242F0100218BF0121DA61DDE7E8
:100E800045EA0262034B42F40032B4E742F2013217
:100E9000E1E700BF00B002400123010009000200A9
:100EA0000A000200A9580208C3580208155802088F
:100EB00001230200024B1B68586803685B691847EE
:100EC000B83F012070B5044625460A4B0C30002679
:100ED00060602672667245F8203B602229460AF05F
:100EE000AFFE04F55A63EE6024359D42FBD12046E7
:100EF00070BD00BF14650208034B1A68D207FCD40A
:100F000023229A60704700BF00B002407047000083
:100F100030B50F4C2568ED07FCD423250904A560E6
:100F200041F001010225FF2B65636164E0630AD093
:100F30000849656241EA0363E361074B226260612D
:100F4000E060236030BDE561039BA363034BF8E7DA
:100F500000B002400900010001000200010003008E
:100F600030B50E4C2568ED07FCD423251204A5608E
:100F700042F001020225FF2B65636264E063E160D9
:100F800008D01B0643F00213E361054B6562606104
:100F9000236030BD034BE3610123F9E700B0024059
:100FA00001000200020002FF30B50B4C2568ED077E
:100FB000FCD4232512041B06A56043F4003302254C
:100FC00042F0010265636264E063E160E361034B48
:100FD00065626061236030BD00B002400100020024
:100FE0000120704738207047382303FB0100083088
:100FF0007047382303FB0100083070470120704719
:1010000041F67C10704741F67C1303FB0100083069
:10101000704741F67C1303FB010008307047012044
:1010200070471020704700EB01100830704700EB4C
:10103000011008307047084602F020BA10B5034B83
:101040000360044609F067FC204610BDCC65020829
:1010500010B50446FFF7F2FF2046402122F0DAFAED
:10106000204610BD10B5034B0360044609F053FC45
:10107000204610BD9865020810B50446FFF7F2FF40
:10108000204641F6841122F0C5FA204610BD00002A
:1010900010B5034B0360044609F03DFC204610BD2B
:1010A0006465020810B50446FFF7F2FF20461821D8
:1010B00022F0B0FA204610BD10B5094B036004467B
:1010C00000F5CD501030FFF7B9FF04F12C00FFF709
:1010D000C9FF04F11400FFF7DBFF204610BD00BF7D
:1010E0000066020808B50248FFF7E6FF08BD00BF2A
:1010F0009412002010B50446FFF7DEFF204641F6AB
:10110000503122F087FA204610BD00002DE9F3414E
:1011100001F0AEF8054601F0AFF800240146234681
:1011200028462246009413F019FA274B274A1A60E2
:10113000204604F065FC264D264B274A27489A6036
:1011400013F074F92B68BFF35B8FDB0735D42846A7
:1011500022F062FA88B3224C224B234F236004F121
:10116000140000F5CF5604F12C086060C4F8088024
:10117000E760266109F0D0FB1C4B6361404609F033
:10118000CBFB1B4BE362384609F0C6FB04F58053EA
:1011900003F51F60174AC3F8B02904F075FD224615
:1011A000311F304604F0EEFC304602F067F9124879
:1011B00023F08AF9284622F03BFA104802B0BDE835
:1011C000F041FFF7E5BB00BF1C40012040040020B8
:1011D0009012002060040020440400200800002039
:1011E0009412002000660208442C00206465020866
:1011F00098650208CC650208E5100008C4030020C9
:10120000704700000148FFF7D1BB00BFC4030020B6
:1012100070B5244E244C254D254B23603046FFF7F6
:1012200051FE284618F0A0FA224811F0EBF9224BA3
:101230002248DC6000224FF48071C3E91212204979
:101240001A86C3E91A121F4999671F4983F8582063
:101250000B60F02101801D485A6601801C4883F80C
:1012600070204FF4A071C3E90422C3E90622C3E948
:101270000822C3E90A22C3E90E22C3E91022C3E906
:101280001422C3E917225A67C3E901650180114896
:10129000018011490A70012283F834200F4A1A6034
:1012A00070BD00BFEC0400208C1200206004002000
:1012B0002855020844040020C4030020AC3F01204C
:1012C0000100000100000101B83F0120B23F0120F0
:1012D000AE3F0120B43F0120B03F01203C64020832
:1012E0000148FFF77BBC00BFEC04002000207047E2
:1012F00081807047C180704701817047418170478C
:101300007047704770477047704710B4C4880368CF
:10131000121B84885B6D091B12B25DF8044B09B285
:1013200018474FF6FF7383814FF0FF330362136852
:10133000C36110607047002070478B888380012054
:101340007047704780F82610704790F82600704765
:1013500010B50022B1F90840B1F90A1002804280AC
:101360008480C18010BD0022028042808280C280C1
:1013700070470177704780ED080A704780F82410A5
:10138000704780F8251070470120704798307047EB
:101390008C3070478430704770477047704700004A
:1013A000034B902283F85A2383F85823704700BFD9
:1013B00000E100E0094A0A49D3680A48C3F30A0376
:1013C000013B9BB20B801169C1F30A010139018015
:1013D0001364536B43F0010353637047006801408B
:1013E000E62D0020E42D0020014BD3F8AC0070471F
:1013F00000680140024B0122C3F8AC105A627047EA
:101400000068014010B52C21044622F003F9204663
:1014100010BD10B5BC21044622F0FCF8204610BDDA
:1014200070B5044609F075FD23685D6E0FF096FFF8
:1014300001462046A8472368054AD3F8885020462D
:10144000AC460023BDE87040A2F51631604700BFEE
:1014500000B004D009F044BD09F04EBD09F00ABD4A
:1014600009F06BBE90F8252012B103685B6918473C
:10147000704790F825201AB190F8242002B1186026
:1014800070470000034B4FF080629A604FF080720B
:101490009A60704700E100E0084B4FF08062C3F8AB
:1014A0008820BFF34F8FBFF36F8F4FF08072C3F868
:1014B0008820BFF34F8FBFF36F8F704700E100E0CC
:1014C00070B50023124E8380124B0360336893F88B
:1014D000582005460AB1D86C00B998680368DB6AE1
:1014E00098473368B0FA80F4D86C640930B1036867
:1014F000DB6A9847002808BF44F001042CB9064B6A
:10150000064A07482C2122F0C1FF284670BD00BFC3
:10151000B83F012014660208015902085F59020809
:101520009859020870B5244E3568BFF35B8F15F0EB
:1015300001053FD1304622F06FF800283AD01F4C09
:101540001F4B256104F13400C4E90035C4E902559C
:10155000E584A562A58511F0B4FA04F158000CF0F9
:101560003BFC184BA3652046174B40F8843BFFF724
:10157000A7FF164BC4F884302433C4F88C3064239E
:10158000C4E928350023C4F8AC30C4F8B030C4F83E
:10159000B430C4F8B8300E480E4BC4F89050C4F8BC
:1015A0009C50C4F8A850C4F8983022F08DFF304603
:1015B00022F03EF8014870BDE82D0020EC2D0020FF
:1015C0001870020834660208AC660208CC6F020884
:1015D0009D130008AC6F020810B5144C236823B3A8
:1015E000134B144A1B6C11888B4213D1124B198870
:1015F00005F0C6FE226892F86A30013382F86A303C
:10160000FFF7C0FA20680AF0C3F9BDE810400020D7
:10161000FFF704B905F0B4FE206803681B6A984719
:10162000BDE810400020FFF723B910BDB83F0120EE
:1016300000680140E62D0020E42D002007B5064B90
:10164000ADF806001B68054801220DF1060106F001
:1016500037FC03B05DF804FB0C000020E82E0020EE
:1016600008B5642007F0ECF8FBE7000030B595B052
:10167000102200210AA823F010F91422002103A847
:1016800023F00BF900241E4B01941A6C42F0805297
:101690001A641B6C03F080530193019B194B029455
:1016A0001A6842F440421A601B6803F440430293F4
:1016B0000122029B4FF48033CDE9082302254FF429
:1016C00080030821CDE90E534FF4B473CDE9101314
:1016D00008A804231393129505F0AAFE05F06EFEE8
:1016E0000F23CDE903354FF4A0504FF48053CDE9DB
:1016F0000603052103A8059406F076F815B030BD61
:10170000003802400070004080B59AB004F0AAFD95
:10171000FFF7ACFF142200210DA8002423F0BDF830
:10172000C04B00941A6BC048C04D42F010021A63BF
:101730001A6B02F010020092009A01941A6B42F0A8
:1017400020021A631A6B02F020020192019A02949D
:101750001A6B42F080021A631A6B02F08002029246
:10176000029A03941A6B42F004021A631A6B02F095
:1017700004020392039A04941A6B42F001021A6362
:101780001A6B02F001020492049A05941A6B42F05B
:1017900002021A631A6B02F002020592059A06947D
:1017A0001A6B42F040021A631A6B02F04002069272
:1017B000069A07941A6B42F008021A631B6B03F037
:1017C0000803079322463C21079B04F0D1FF984869
:1017D0002246042104F0CCFF224696484FF44051A3
:1017E00004F0C6FF01264FF003083C238E48CDF8D5
:1017F00040800DA902274FF00409CDE90D360F9462
:1018000004F0CCFE8A480F940DA9CDE90D961097EF
:1018100004F0C4FE0DA94FF440538648CDE90D36BF
:10182000CDE90F4704F0BAFE8348844B036004F00F
:10183000ABFD834A834B2C62C5E9002328464FF455
:101840008043C5E90434C5E90244C5E9064405F00E
:101850009DF91021284605F0E1FB2146284605F0B8
:10186000FCFB7948794984624FF48273C0E9001324
:101870004FF400751823C0E906530A23744DC36260
:10188000C0E90244C0E90444C0E9084406F0BCFAD7
:10189000704B0D974FF0100CC5E900364023C5E999
:1018A00004C34FF4C073C5E906344FF40063C5E9BF
:1018B00008344FF40053AB620DA907232846CDE945
:1018C0000E39CDE910384FF0080AC5E90249CDE9D3
:1018D000127706F07DF94FF6FF7209A92846CDE987
:1018E0000AA6089409960C9406F092F9304604F082
:1018F000E5FC4FF6FF7209A92846CDE9097ACDE942
:101900000B6406F085F94FF6FF7209A92846CDE968
:10191000098ACDE90B9406F07BF94FF40C73089318
:10192000089B0C934FF6FF7209A92846CDE9099A46
:101930000B9606F06DF940F26A51284606F086F9DA
:10194000342221460DEB020022F0A7FF424D434B0B
:101950002C61C5E900340923C5E905361D2340F291
:101960000D1EC5E9073840F24313C5E909E32846CF
:1019700040F2471340F21718C5E90B83C5E902444A
:10198000AC8685F8364005F003FCFF21F022CDE956
:1019900012144FF4806905214FF4A073CDE90E2491
:1019A000CDE91491CDE916420DA922462846CDE98C
:1019B00010372B4D18930D94ADF864408DF86640A8
:1019C00005F0B1FC274B2B601B6898472B68264D10
:1019D000DB689847254B2846C5E90034C5E9027401
:1019E000C5E90A47C5E90C4404F0DEFC3146284647
:1019F00004F090FDFEF75CFEFEF759FE06F0B0FE27
:101A00001B4A1C48214606F0D7FE1B4B1B4A186098
:101A100021461B4806F0D0FE1A4B186006F0B2FEB5
:101A2000FEE700BF0038024000100240E82F00200F
:101A300000080240000C02407C30002000300240D0
:101A4000005C0040A0860100E82E0020005001400C
:101A5000B42E0020400100A0402F0020006801406B
:101A6000A82E0020140000203C30002000B00240CE
:101A70001467020861160008B02E0020F066020804
:101A8000BF060008AC2E0020704770477FB5094B99
:101A90008DF817201B6802930DF1170201230092A5
:101AA00001930A460146044805F018F907B05DF8AD
:101AB00004FB00BF10000020E82F00207FB50023AA
:101AC0008DF81730084B1B6802930A4601230DF16D
:101AD0001701009101930146044805F08FF99DF824
:101AE000170007B05DF804FB10000020E82F00206D
:101AF0001FB5084C24680092CDE901340A46012341
:101B00000146054805F07AF9003818BF012004B0F5
:101B100010BD00BF10000020E82F002004F0CEBB55
:101B200010B5064C00222046042104F021FE204678
:101B30000122BDE81040042104F01ABE0008024052
:101B400038B50B4D044601220A484FF4005104F009
:101B50000FFE00220421284604F00AFE2046FFF76B
:101B60006DFD28460122BDE83840042104F000BE86
:101B700000080240000C024038B50B4D044600221C
:101B80000A484FF4005104F0F3FD002204212846D6
:101B900004F0EEFD2046FFF751FD28460122BDE886
:101BA0003840042104F0E4BD00080240000C02406B
:101BB000F7B5144E144F05460C463046002204215A
:101BC00004F0D6FD00224FF40051384604F0D0FD59
:101BD0002846FFF733FD0D4B0D481B68224601A92F
:101BE00006F01AFB384601224FF40051019C04F024
:101BF000BFFD30460122042104F0BAFD204603B0A7
:101C0000F0BD00BF00080240000C02400C000020A4
:101C1000E82E002004F052BB0268034B9A4201D127
:101C200004F03ABB704700BF00100040704700004E
:101C300082B00E4B00220092596C41F480415964ED
:101C4000596C01F48041009100990192196C41F0A6
:101C5000805119641B6C03F080530193019B0F2189
:101C60006FF0010002B004F04FBB00BF003802402B
:101C70000268094B9A4282B00BD100230193074BB3
:101C80001A6B42F480521A631B6B03F48053019366
:101C9000019B02B0704700BF003002400038024094
:101CA00007B50F4B02689A4216D10022A3F5F04304
:101CB0000192196B41F4000119631B6B03F40003DB
:101CC000019305215A20019B04F01EFB5A2003B00A
:101CD0005DF804EB04F04ABB03B05DF804FB00BF01
:101CE00000B002402DE9F043044689B014220021DF
:101CF00003A822F0D2FD2268244B9A4243D1244CFF
:101D0000244800250095236B43F004032363236BD1
:101D100003F004030093009B0195236B43F0010340
:101D20002363236B03F001030193019B4FF012091E
:101D30004FF400734FF001080327042603A9CDE9EF
:101D40000339CDE90587079604F028FC4FF480732A
:101D50001148079603A9CDE90339CDE9058704F0B9
:101D60001DFC0295236C43F400032364236C03F4ED
:101D700000030293029B236A43F400032362236A55
:101D800023F40003236209B0BDE8F083005C004047
:101D9000003802400008024000000240F0B599B04F
:101DA00004461422002107A822F077FD30220DEB13
:101DB0000200002122F071FD22685E4B9A4240F041
:101DC000B78008230C93C0231093042312930CA80C
:101DD0004FF40033159305F0CFFD08B1FFF726FF50
:101DE000554B5648002400945A6C42F080625A6465
:101DF0005A6C02F080620092009A01941A6B42F0D1
:101E000020021A631A6B02F020020192019A0294D6
:101E10001A6B42F001021A631A6B02F0010202927D
:101E2000029A03941A6B42F002021A631A6B02F0D0
:101E300002020392039A04941A6B42F040021A635E
:101E40001A6B02F040020492049A05941A6B42F055
:101E500004021A631A6B02F004020592059A0694B2
:101E60001A6B42F008021A631B6B03F00803069317
:101E700002250E26069B0B964FF4806307A9CDE939
:101E80000735CDE9094504F089FB41F658032C4894
:101E90000B9607A9CDE907350927CDE9094504F0D7
:101EA0007DFB032327480B9707A9CDE90735CDE92B
:101EB000094504F073FB4FF4706322480B9607A9A1
:101EC000CDE90735CDE9094504F068FB4FF40C6313
:101ED0001D480B9607A9CDE90735CDE9094504F062
:101EE0005DFBC02319480B9607A9CDE90735CDE95D
:101EF000094504F053FB082315480B9607A9CDE9C3
:101F00000735CDE9094504F049FB4FF4A0530E48CD
:101F10000B9707A9CDE90735CDE9094504F03EFB4C
:101F200058202246052104F0EFF9582004F01EFA4B
:101F300019B0F0BD006801400038024000140240B2
:101F40000000024000040240001802400008024065
:101F5000000C024010B5044688B01422002103A8EA
:101F600022F09BFC2268144B9A4223D103F568436C
:101F7000002101915A6C114842F480125A645A6C43
:101F800002F480120192019A02911A6B42F020022F
:101F90001A631B6B03F020030293029B4FF46072E1
:101FA00002230321CDE903230523CDE9061303A969
:101FB00004F0F4FA08B010BD0050014000140240D3
:101FC0002DE9F04186B0002303932B4B1C68002CB5
:101FD0004FD14FF00108C3F80080284B00949A6B52
:101FE000274842EA08029A639B6B03EA08030093BE
:101FF000022703260C25009B01A94FF63F03CDE9DC
:102000000137CDE9046504F0C9FA1E48059501A918
:10201000CDE90187CDE9034604F0C0FA48F2331355
:102020001948059501A9CDE90137CDE9034604F02A
:10203000B5FA4FF683731548059501A9CDE9013727
:10204000CDE9034604F0AAFA4CF203731048059553
:1020500001A9CDE90137CDE9034604F09FFA6023D9
:102060000C48059501A9CDE90137CDE9034604F0F7
:1020700095FA06B0BDE8F0818430002000380240B7
:102080000014024000080240001802400010024004
:10209000000C02400004024070B588B00023029397
:1020A000204B1A6C42F010021A641B6C03F01003F0
:1020B0000293054601A903A8029B05F03FFC069B7D
:1020C0004BBB05F02BFC184E184B336040F2E73346
:1020D000F360174BB0FBF3F3013B73603046002312
:1020E0003361B360B36106F067FA044680B93046E5
:1020F00006F038F9044658B9362004F037F90F2DA8
:102100000DD822462946362004F0FEF8094B1D6002
:10211000204608B070BD05F001FC4000D3E7012463
:10212000F6E700BF00380240883000200010004071
:1021300040420F007C0000207047FEE7FEE7FEE70C
:10214000FEE77047014806F04BB900BF8830002019
:10215000014805F08BB800BF402F0020014804F073
:102160004FB900BF3C3000200120704708B522F075
:1021700037FC162303604FF0FF3008BD08B522F08E
:102180002FFC16230360FEE770B50D4614460E467D
:10219000731B9C4201DC204670BDAFF3008006F843
:1021A000010BF5E770B50D4614460E46731B9C42B5
:1021B00001DC204670BD16F8010BAFF30080F5E797
:1021C0004FF0FF3070474FF400534B6000207047D2
:1021D00001207047002070470A4A116808B503467D
:1021E00009B9094911601068694603448B4206D950
:1021F00022F0F6FB0C2303604FF0FF3008BD1360A4
:10220000FCE700BFD0300020F84C0120704708B533
:102210000C2924D8DFE801F0070B0F13171F1F1F2D
:102220001F1B1F1F1F0003F037FC006808BD03F0D1
:1022300033FC4068FAE703F02FFC8068F6E703F010
:102240002BFCC068F2E703F027FC0069EEE703F01F
:1022500023FC8069EAE703F01FFC4069E6E7002001
:10226000E4E710B50421044621F0D4F9204610BD5E
:10227000004870474C6702080920704713B50024D6
:1022800051B1036801948DF8034001AA9C680DF1D7
:102290000303A04702B010BD0846FBE7C0897047A2
:1022A000008A7047C088704780887047807A00F045
:1022B0007F007047807AC009704700207047000097
:1022C0009FED010A704700BF00000000806A704760
:1022D00070477047704770477047704730B5036864
:1022E00085B06D460181D3F8843001460446284606
:1022F000984795E807003C3484E8070005B030BDF6
:1023000030B5036885B06D464181D3F8843001460D
:1023100004462846984795E807003C3484E80700BF
:1023200005B030BD0022028042808280C2807047AA
:1023300080F83610704770B5036804461B6B15466D
:1023400098472368294620465B6EBDE870401847D1
:1023500000207047806C7047704770477047704727
:10236000704730B4C26844685510034604EB6200FD
:10237000D20748BF62599B6830BC48BFD358184742
:102380000346406830B19A681AB9D86800F0010075
:1023900070470120704790F82D3080F8603070470A
:1023A00010B50821044621F035F9204610BD10B5BE
:1023B0006421044621F02EF9204610BD10B52C21D1
:1023C000044621F027F9204610BD10B54C210446E3
:1023D00021F020F9204610BD10B51021044621F04F
:1023E00019F9204610BD38B50446002580F8495437
:1023F00000F2244010F050F804F2B44084F8D954AC
:1024000010F04AF804F27C5084F8A15510F044F81A
:1024100004F26C4084F8915410F03EF804F5A36087
:1024200084F83D5510F038F884F8055604F5BC6082
:10243000BDE8384010F030B80B898A89D21A4B8930
:10244000C988591A12B209B210F0A8B8014638303A
:1024500091F82C3013B136310CF07EBA3431FBE7F1
:1024600010B5034B036004460DF07EFA204610BD04
:10247000306A020810B5064B036004460DF074FA8A
:10248000204641F6141121F0C5F8204610BD00BFCA
:10249000306A020800F54C7399422DE9F047044672
:1024A0000D4600F2B44A00F27C5817D1002380F8A0
:1024B000B933012600F565700FF0EEFF04F22440F9
:1024C00084F849640FF0E8FF504684F8D9640FF0AF
:1024D000E3FF84F8A16540460FF0DEFF04F1C4037A
:1024E0009D4204F5A36704F5BC6618D1002384F867
:1024F00001344FF0010904F577700FF0CDFF04F2BD
:102500006C4084F891940FF0C7FF384684F83D95ED
:102510000FF0C2FF84F8059630460FF0BDFFA845C6
:1025200003D10EF01BFF00F0B9FFAE4203D10EF055
:1025300015FF00F0B3FFAA4518D1012384F8B93381
:102540004FF0000904F565700FF0A6FF04F2244077
:1025500084F849940FF0A0FF284684F8D9940FF02E
:102560009BFF84F8A19540460FF096FFAF4219D12A
:10257000012384F80134002504F577700FF08CFFF7
:1025800004F26C4084F891540FF086FF384684F8CA
:102590003D550FF081FF84F805563046BDE8F04701
:1025A0000FF07ABFBDE8F08708B590F826300BB180
:1025B000FEF758FF08BD08B5FEF754FF08BD10B57B
:1025C0000446006B50B10368DB68984730B1206B5C
:1025D000036821469B68BDE81040184710BD0129DB
:1025E00006D1002380F8B93300F565700FF054BFB1
:1025F000022905D1002380F8013400F57770F5E752
:10260000704770B50D7990F82C3004463DB93BB158
:1026100023682046D3F88830BDE8704018477BB166
:10262000B5FA85F35B0984F82C3023682046D3F88B
:102630008C309847236820465B699847002DE7D087
:1026400070BD0000036870B55E6B124B1B680446DA
:102650008DB22BB9104B114A6C21114821F016FF95
:102660001049828D0988914203D80F4B0B4A6D2186
:10267000F3E713F812200D4B1B6853F82200036890
:102680001B6B9847291A3346204609B2BDE87040B3
:10269000184700BF104001200F5A0208515A020883
:1026A0008C5A020814400120D35A02081840012015
:1026B00000224FF0FF31C0E900218260704770B501
:1026C000036804461B6B1546984723682946204635
:1026D0005B6BBDE8704018470B882DE9F04183869D
:1026E0001388B0F90850C38604461046904611F08E
:1026F00049FFB4F90A30074603EBD3734046C3F3EE
:102700004F0611F073FF05EBD575C5F34F0500EBD0
:10271000D07007EBD777A6EB6002A5EB670104F159
:10272000380012B209B2FFF7CAFF23682046D3F877
:102730008C30BDE8F041184770B504461D46BDF920
:102740001060FFF7BCFF2368294620469B6B984723
:10275000236831462046DB6BBDE870401847000017
:102760000022C0E90122C0E90322C0E90522C0E934
:1027700007224FF480728284014A0260704700BFD2
:102780000868020810B526220446002122F085F8C8
:102790002046FFF7E5FF044B2360FF2384F8263033
:1027A0000023A362204610BD9C72020810B52622A9
:1027B0000446002122F071F82046FFF7D1FF0A4BB2
:1027C00023600A4BA3624FF6FF73A3854FF47F0289
:1027D0000023C4E90C3223874FF0FF32C4E91023F1
:1027E000E363204610BD00BF0C7202087068020847
:1027F0004FF47F4373B50546838540F201130021F2
:102800008384174B8162C0E90111C0E90311C0E95B
:102810000511C0E9071145F8383B4FF0FF33044676
:102820002622016343634FF6FF762846ADF8046025
:1028300022F033F82846FFF793FF0A4BA363BDF855
:102840000430A4F85E3001A9284684F860600CF0DA
:1028500083F82046294608F071F8204602B070BD82
:10286000106902086C7302082DE9F04F04469DB010
:10287000A146002510F068FCDD4BE56349F8403BBC
:102880004846FFF77FFF04F16C0304F1980A1846ED
:1028900004F1C4080293FFF775FF5046FFF772FF7B
:1028A0004046FFF7A5FF04F5947318460F93FFF712
:1028B00069FF04F5AA73184610930AF07FFD04F52A
:1028C000CE7318461393FEF7FBFDCA4BC4F89C3138
:1028D0002433C4F8A43104F5D873C4F8A8511846B9
:1028E000C54E12934FF00107FFF74CFF04F5EE734E
:1028F000C4F8B06184F8D47118461193FFF742FF11
:1029000004F50273C4F8DC6184F800721846BB4E0B
:102910000893FFF74BFF04F5157304F5287BC4F803
:1029200008621846C4F850520993FFF73FFFC4F8F5
:102930005462C4F89C525846FFF738FF04F53A73C6
:1029400018460393FFF732FF04F54C7318460A93B9
:10295000FFF74EFF04F5657318460493FFF726FF53
:1029600004F5777318460593FFF720FF04F224431C
:1029700018460693FFF71AFF04F26C4318460793B4
:10298000FFF714FF04F2B44318460B93FFF730FF30
:1029900004F5A36318460C93FFF72AFF04F27C5357
:1029A00018460D93FFF724FF04F5BC6318460E93F9
:1029B000FFF71EFF04F58053914AC3F80429914A9A
:1029C000C3F80849F027C3F80C29C3F8105904F2DA
:1029D00044604FF496510CF0BDFF2A4600972946FB
:1029E00048464FF4A073261DFFF7A6FE4FF07F4325
:1029F000A3664946304607F0A1FF2A460298009791
:102A000029464FF4A073FFF797FE4FF0FF3302996A
:102A1000C4F89430304607F091FF0222EC231146AF
:102A2000009350464FF49F73FFF786FE764BC4F831
:102A3000C0305146304607F081FF4FF0030219A91C
:102A4000ADF86420ADF8682040461AAAFFF744FEAE
:102A5000D4F8C430C4F800516FF0500284F8F1206B
:102A60004046D3F89030DFF8A8A1984704F5C85342
:102A70004FF014090433C4F8F4300293D3224B46C8
:102A80004046CDF80090A521FFF756FE414630465E
:102A900007F054FF2A460F9800970323A021FFF761
:102AA0004BFE4FF0FF336FF02301C4F8503184F830
:102AB0004E1130460F9907F041FF0E2310980093F6
:102AC00072229A21FFF738FEC023C4F888314FF4F0
:102AD0003453C4F890314D4BC4F8A83149F6610322
:102AE000A4F8AC31139B1099C4F87C31C4E9607729
:102AF00030462827C4F89451C4F88C5107F01EFFC3
:102B000012980097642205230821FFF715FE4FF065
:102B1000FF331299C4F8D831304607F00FFF1198EF
:102B20000097642205234FF49A71FFF705FE4FF0DA
:102B3000FF33C4F804321199304607F0FFFE4A46CD
:102B40000898BE21FFF7BBFDD4F808320899C4F8F5
:102B500038A214AF3846D3F88430A4F83C529847D2
:102B600097E8070004F51178D4F8083288E80700E0
:102B70004FF00302D3F88430089984F84022384695
:102B8000984797E8070088E807001AA84FF0070160
:102B9000DFF88080ADF86C1001460898CDF86880A9
:102BA0000BF0C0FC0899304607F0C8FE0998C8220F
:102BB0007D21FFF784FDD4F854320999C4F884A22A
:102BC0003846D3F88430A4F88852984797E807002D
:102BD00004F5247A4FF001038AE8070084F88C3268
:102BE000D4F854320999D3F884303846984713E022
:102BF000306A0208CC6F0208B069020880680208D7
:102C0000186A02089524000837380CFF0C0C99FF4D
:102C1000565659FF7068020897E807000DF1680CD6
:102C20008AE807004FF006006146ADF86C0009988D
:102C3000CDF868800BF076FC0999304607F07EFEEF
:102C40004FF0340C1323CDF800C0B42258468C2129
:102C5000FFF772FD4FF0FF3CC4F8D0C2594638462A
:102C6000A4F8D4520BF0B6F997E8070004F5377AC8
:102C70008AE807004FF0030284F8D9225946384603
:102C80000BF0A8F997E807004FF001038AE8070066
:102C900084F8D832594638460BF09CF997E807007B
:102CA0000DF1680E4FF0050C8AE807004FF0BE0AE0
:102CB00071465846ADF86CC0CDF868800BF032FC18
:102CC0005946304684F8D6A207F038FE4FF0340E4D
:102CD00013230398CDF800E00522A521FFF72CFD72
:102CE0004FF0FF3EC4F818E30399A4F81C5338468C
:102CF0000BF070F997E8070004F5497B8BE80700B3
:102D00004FF00302039984F8202338460BF062F950
:102D100097E807000DF1680E8BE807004FF0040BF1
:102D200071460398CDF86880ADF86CB00BF0FAFBF3
:102D3000039984F81EA3304607F000FE0DF1680EDB
:102D400072460DF1640E71460A98ADF864B0ADF8A4
:102D500068B0FFF7C1FCD4F830330A98C4F86C535C
:102D60006FF0500284F85D23D3F890309847029BAF
:102D7000C4F860330A98CDF800904B4607228B21A7
:102D8000FFF7DAFC0A99304607F0D8FD04985A227A
:102D90003D21FFF794FC4FF0FF320499C4F8C4239F
:102DA0003846A4F8C8530BF015F997E807004FF020
:102DB000010304F5747B8BE8070084F8CC33049995
:102DC00038460BF007F997E807008BE807004FF04B
:102DD0000302ADF86C201AAA11460498CDF8688059
:102DE0000BF0A0FB049984F8CAA3304607F0A6FDB7
:102DF00005985A22E921FFF762FC4FF0FF3205994E
:102E0000C4F80C243846A4F810540BF0E3F897E803
:102E1000070004F5836B8BE807004FF00302059968
:102E200084F8142438460BF0D5F897E807000DF124
:102E3000680E8BE80700022371460598ADF86C30E8
:102E4000CDF868800BF06EFB059984F812A430462B
:102E500007F074FD069845226E21FFF730FC4FF015
:102E6000FF3EC4F854E40699A4F8585438460BF0D1
:102E7000B1F897E8070004F58C6B4FF001038BE87D
:102E80000700069984F85C3438460BF0A3F897E8FD
:102E900007004FF00103ADF86C301AAB8BE8070068
:102EA00019460698CDF868800BF03CFB069984F82B
:102EB0005AA4304607F042FD079845225146FFF7D5
:102EC000FEFB4FF0FF33C4F89C340799A4F8A054DC
:102ED00038460BF07FF897E8070004F5956B8BE810
:102EE00007004FF00302079984F8A42438460BF03A
:102EF00071F897E807001AAB8BE8070019460798A6
:102F0000CDF86880ADF86C500BF00CFB079984F895
:102F1000A2A4304607F012FD19AB0B9808274FF01A
:102F200005081AAA1946ADF86470ADF86880FFF775
:102F3000D3FB029BC4F8E43450224B4611460B9855
:102F4000C4F8F054CDF80090FFF7F6FB0B9930462B
:102F500007F0F4FC19AB0C98ADF864701AAA194686
:102F6000ADF86880FFF7B8FB029BC4F848350C98B1
:102F7000C4F854554B468C22CDF80090DC21FFF765
:102F8000DBFB0C99304607F0D9FC19AB4FF006007B
:102F9000ADF86400ADF868001AAA0D981946FFF75D
:102FA0009BFB029BC4F8AC350D98C4F8B8554B4652
:102FB0008C22CDF800905021FFF7BEFB0D993046D2
:102FC00007F0BCFC4FF007010E98ADF86410ADF8A7
:102FD00068101AAA19A9FFF77FFB029BC4F81036E4
:102FE0000E98C4F81C564B465022CDF80090DC21B8
:102FF000FFF7A2FB30460E9907F0A0FC20461DB05B
:10300000BDE8F08FF8B5194B018F1B888B4206463F
:103010002AD9174B1B682BB9164B174A17486C2136
:1030200021F034FA13F81120154B1B6853F8225085
:10303000144B186802F020FD2B6807469B6B28464E
:1030400098472B6804469B6C3946284698472B685E
:1030500014FB00F45B6A394628469847A4B223184B
:103060001BB2A6F84630F8BD0023FAE71440012051
:10307000104001200F5A0208515A02088C5A0208C7
:10308000184001201C4001207047704700F59873DC
:103090000868496803C370477047704741607047CC
:1030A00010B50022B1F90840B1F90A10028042803F
:1030B0008480C18010BD704770477047064BC0F8D0
:1030C0004C310023C0F8503100F5A273C0F848011C
:1030D000C0F84031704700BF51320008012303722D
:1030E0007047704770477047014640680368103169
:1030F0005B6E184701464068036810311B6E184725
:10310000704710B4C26841685410034601EB620076
:10311000D20748BF0A599B685DF8044B48BFD35893
:1031200018470346406830B19A681AB9D86800F069
:10313000010070470120704710B50C21044620F0B3
:1031400069FA204610BD10B51021044620F062FA3D
:10315000204610BD10B54FF4AE71044620F05AFA67
:10316000204610BD10B53821044620F053FA204601
:1031700010BD10B52821044620F04CFA204610BDA1
:1031800010B50EF0EBF80368BDE81040DB6B184794
:1031900037B50446807A637A0130C0B29842A07293
:1031A00005D9012323720023A37203B030BDB4F903
:1031B0000C20002110F07AF9C30707D500284FF63C
:1031C000FF73C8BF012313FA80F000B2144BE081F3
:1031D0001988258B83B21348B0F90000ADF80600BA
:1031E000CA1A60682B445B1A12B2ADF80430036847
:1031F0002283ADF8002000221B69ADF80220694649
:103200009847A37A012BD0D1074B1B78002BCCD049
:103210000EF0A4F803B0BDE830400EF0A5B800BF32
:10322000AC3F0120AE3F0120B63F012010B504465F
:10323000D0F8400158B10368DB68984738B1D4F83A
:10324000400103689B6898470023C4F8403110BDD3
:103250002DE9F14FD0E9556A0746B06803681B6A4B
:10326000984741F67B03984205D8444B444AA32132
:10327000444821F00BF9706803681B6A98470F28CF
:1032800003D8414B3E4AA421F2E7F06803681B6A69
:1032900098470B2803D83D4B394AA521E8E70EF0A3
:1032A0005DF8DFF8F09004300EF0A5F8D9F80000D2
:1032B00010B10368DB689847D9F8000010B10368C3
:1032C0001B689847DFF8D080D8F8000010B1036879
:1032D0005B699847D7F83C0110B103685B68984771
:1032E000D8F8000010B103681B689847D7F83C0174
:1032F00010B103689B689847F068036800215B6A17
:1033000098474FF0000B224BC0F804B0044680F8F9
:1033100008B00360B068036859465B6A9847054681
:1033200002F0E6FC7068036859465B6A98472946D4
:10333000064602F0BBFC331DC7F83C61C9F80040EB
:10334000C8F80050CAF800302B68C6F808A0284614
:10335000DB68EE639847336830461B689847214620
:10336000284610F09DF8236820461B69984723687B
:103370005B69204601B0BDE8F04F1847115B0208B9
:103380009F5B0208795C0208C05C0208635D02086A
:10339000386B020800400120FC3F0120044B1B68F1
:1033A00093F858200AB1D86C00B99868704700BFEC
:1033B000B83F0120F8B5174604460E460EF0B8F89F
:1033C000124B1C60124B2360124B0025C4E951358F
:1033D000114BC4E953551868036829469B68C4E932
:1033E0004F55C4E955769847284602F009FBFFF788
:1033F000D5FF18F00CF8FFF7D1FF18F083F8FFF7AE
:10340000CDFF18F08BF82046F8BD00BF0C4001201E
:10341000E46A0208CC6A0208B83F0120064BC0F8F3
:103420004C310023C0F8503100F5A273C0F84801B8
:10343000C0F84031704700BFDD380008064BC0F8C7
:103440004C310023C0F8503100F5A273C0F8480198
:10345000C0F84031704700BFA1370008064BC0F8E4
:103460004C310023C0F8503100F5A273C0F8480178
:10347000C0F84031704700BF65360008064BC0F801
:103480004C310023C0F8503100F5A273C0F8480158
:10349000C0F84031704700BF51320008064BC0F8F9
:1034A0004C310023C0F8503100F5A273C0F8480138
:1034B000C0F84031704700BF2935000803685B6AD7
:1034C00018470000002370B5C0E90533C0E9073391
:1034D000C0E90933C0E90B33436003728372C381CF
:1034E0004FF4807343630C4B03610C4B4172B3F98F
:1034F00000100B4B0B4AB3F90060026000F110059D
:10350000044681812846FDF7F7FE28463146FDF73F
:10351000F5FE204670BD00BF646A0208AC3F012082
:10352000AE3F01205C6B02082DE9F047D0E9556AF7
:103530000746B06803681B6A984741F67B039842C8
:1035400005D8414B414AA321414820F09FFF7068B4
:1035500003681B6A98470F2803D83E4B3B4AA421B7
:10356000F2E7F06803681B6A9847372803D83A4B9C
:10357000364AA521E8E70DF0F1FEDFF8E0900430CF
:103580000DF039FFD9F8000010B10368DB689847E7
:10359000D9F8000010B103681B689847DFF8C080B5
:1035A000D8F8000010B103685B699847D7F83C0170
:1035B00010B103685B689847D8F8000010B1036841
:1035C0001B689847D7F83C0110B103689B6898477F
:1035D000F0680021FFF772FF14210446FFF772FF25
:1035E000B068036800215B6A9847054602F080FBDB
:1035F0007068036800215B6A98472946064602F016
:1036000055FB331DC7F83C61C9F80040C8F80050AD
:10361000CAF800302B68C6F808A02846DB68EE63BD
:103620009847336830461B689847214628460FF074
:1036300037FF236820461B699847236820465B694B
:10364000BDE8F047184700BF115B0208065E02089C
:10365000795C0208C05C0208635D0208004001203A
:10366000FC3F01202DE9F047D0E9556A0746B068D4
:1036700003681B6A984741F61313984205D8414BDB
:10368000414AA321414820F001FF706803681B6A8A
:1036900098470F2803D83E4B3B4AA421F2E7F06835
:1036A00003681B6A9847372803D83A4B364AA52146
:1036B000E8E70DF053FEDFF8E09004300DF09BFEDC
:1036C000D9F8000010B10368DB689847D9F800000A
:1036D00010B103681B689847DFF8C080D8F8000075
:1036E00010B103685B699847D7F83C0110B10368D3
:1036F0005B689847D8F8000010B103681B689847CA
:10370000D7F83C0110B103689B689847F068002126
:10371000FFF7D4FE14210446FFF7D4FEB068036817
:1037200000215B6A9847054602F00CFA706803684E
:1037300000215B6A98472946064602F0E1F9331DED
:10374000C7F83C61C9F80040C8F80050CAF800301A
:103750002B68C6F808A02846DB68EE6398473368F4
:1037600030461B689847214628460FF099FE23688B
:1037700020461B699847236820465B69BDE8F047EF
:10378000184700BF115B0208F25E0208795C02086C
:10379000C05C0208635D020800400120FC3F01207C
:1037A0002DE9F047D0E9556A0746B06803681B6AFF
:1037B000984741F61313984205D8414B414AA3213B
:1037C000414820F063FE706803681B6A98470F2821
:1037D00003D83E4B3B4AA421F2E7F06803681B6A1A
:1037E0009847372803D83A4B364AA521E8E70DF029
:1037F000B5FDDFF8E09004300DF0FDFDD9F80000D4
:1038000010B10368DB689847D9F8000010B103686D
:103810001B689847DFF8C080D8F8000010B1036833
:103820005B699847D7F83C0110B103685B6898471B
:10383000D8F8000010B103681B689847D7F83C011E
:1038400010B103689B689847F0680021FFF736FEC7
:1038500014210446FFF736FEB068036800215B6A56
:103860009847054602F004FA7068036800215B6A15
:1038700098472946064602F0D9F9331DC7F83C613E
:10388000C9F80040C8F80050CAF800302B68C6F8E4
:1038900008A02846DB68EE639847336830461B680B
:1038A0009847214628460FF0FBFD236820461B69F8
:1038B0009847236820465B69BDE8F047184700BF7A
:1038C000115B0208E65F0208795C0208C05C02082E
:1038D000635D020800400120FC3F01202DE9F04714
:1038E000D0E9556A0746B06803681B6A984741F6F5
:1038F0007B13984205D8414B414AA321414820F00F
:10390000C5FD706803681B6A98470F2803D83E4BB3
:103910003B4AA421F2E7F06803681B6A98473728FE
:1039200003D83A4B364AA521E8E70DF017FDDFF83A
:10393000E09004300DF05FFDD9F8000010B103688D
:10394000DB689847D9F8000010B103681B689847F6
:10395000DFF8C080D8F8000010B103685B699847B1
:10396000D7F83C0110B103685B689847D8F80000AD
:1039700010B103681B689847D7F83C0110B1036881
:103980009B689847F0680021FFF798FD14210446D2
:10399000FFF798FDB068036800215B6A9847054609
:1039A00002F02AF97068036800215B6A984729468B
:1039B000064602F0FFF8331DC7F83C61C9F8004025
:1039C000C8F80050CAF800302B68C6F808A028468E
:1039D000DB68EE639847336830461B68984721469A
:1039E00028460FF05DFD236820461B699847236831
:1039F00020465B69BDE8F047184700BF115B02082D
:103A0000DE600208795C0208C05C0208635D02089F
:103A100000400120FC3F0120406A7047806A7047E7
:103A200070478B88C0690A68DB0A50F8230010448D
:103A3000704710B50446BAB1107B68B1537BD27A97
:103A40001B0203F4E0631A43236A03EB82031A8820
:103A50008A4202D193F9020010BD05D8013880B224
:103A600004330028F3D1F7E70020F5E710B52C2147
:103A700004461FF0CFFD204610BD000030B58BB0CE
:103A80000446BDF860500895BDF85C5007959DF858
:103A9000505006959DF84C5005959DF8485004955A
:103AA0009DF8445003959DF8405002959DF83C5078
:103AB0000195BDF8385000950FF0C0F8064B236013
:103AC000159BE361169B2362199B63621A9BA36299
:103AD00020460BB030BD00BF806B020870477047B6
:103AE00030B4C26844685510034604EB6200D20744
:103AF00048BF62599B6830BC48BFD358184703463B
:103B0000406830B19A681AB9D86800F0010070476F
:103B10000120704710B5102104461FF07BFD2046A0
:103B200010BD38B50446002580F8B15400F28C4031
:103B30000EF0B2FC04F21C5084F841550EF0ACFCBF
:103B400004F2E45084F809560EF0A6FC04F2D440C6
:103B500084F8F9540EF0A0FC04F5B06084F8A55583
:103B60000EF09AFC84F86D5604F5C960BDE8384043
:103B70000EF092BC10B5034B036004460BF0F4FE4C
:103B8000204610BD006C020810B5064B03600446C9
:103B90000BF0EAFE204641F67C111FF03BFD20466B
:103BA00010BD00BF006C020800F5597399422DE961
:103BB000F04704460D4600F21C5A00F2E45817D1B3
:103BC000002380F82134012600F57F700EF064FC9C
:103BD00004F28C4084F8B1640EF05EFC504684F828
:103BE00041650EF059FC84F8096640460EF054FC1D
:103BF00004F1F8039D4204F5B06704F5C96618D1D5
:103C0000002384F869344FF0010904F244400EF0B7
:103C100043FC04F2D44084F8F9940EF03DFC38469D
:103C200084F8A5950EF038FC84F86D9630460EF0B9
:103C300033FCA84503D10DF091FBFFF72FFCAE42FA
:103C400003D10DF08BFBFFF729FCAA4518D1012306
:103C500084F821344FF0000904F57F700EF01CFC4D
:103C600004F28C4084F8B1940EF016FC284684F8D7
:103C700041950EF011FC84F8099640460EF00CFCBC
:103C8000AF4219D1012384F86934002504F244407D
:103C90000EF002FC04F2D44084F8F9540EF0FCFB60
:103CA000384684F8A5550EF0F7FB84F86D5630467B
:103CB000BDE8F0470EF0F0BBBDE8F087012906D162
:103CC000002380F8213400F57F700EF0E5BB022957
:103CD00005D1002380F8693400F24440F5E77047CD
:103CE0002DE9F04F04469FB0A04600260FF02CFAB5
:103CF000DF4BE66348F8403B04F16C0A4046FEF7B0
:103D000041FD5046FEF73EFD04F19803184602932C
:103D1000FEF738FD04F1C40304F1F809D54D1493FE
:103D20001846FEF72FFDC4F8C450C4F8F060A4F89C
:103D3000F4604846FEF75CFD04F5AE7318460F9339
:103D4000FEF720FD04F5C4731846109309F036FB06
:103D500004F5E87318461593FDF7B2FBC64BC4F89B
:103D6000D0312433C4F8D83104F5F273C4F8DC61DF
:103D70001846C24F13934FF0010BFEF703FD04F5F5
:103D80000473C4F8E47184F808B218461293FEF77D
:103D9000F9FC04F50F73C4F8107284F834B2B84F0C
:103DA000099304F5227B1846FEF700FDC4F83C7227
:103DB000C4F884625846FEF7F9FC04F53573C4F87C
:103DC0008872C4F8D06218460393FEF7EFFC04F53E
:103DD000477318460493FEF7E9FC04F55973184637
:103DE0000A93FEF705FD04F5727318461193FEF76A
:103DF000C9FC04F57F73C4F8C853C4F8F463A4F88D
:103E0000F86318460593FEF7D1FC04F244431846C4
:103E10000693FEF7CBFC04F28C4318460793FEF79B
:103E2000C5FC04F2D44318460893FEF7BFFC04F225
:103E30001C5318460B93FEF7DBFC04F5B0631846E1
:103E40000C93FEF7D5FC04F2E45318460D93FEF7ED
:103E5000CFFC04F5C96318460E93FEF7C9FC04F5C0
:103E60008053884AC3F86C29874AC3F87049F02503
:103E7000C3F87429C3F8786904F2AC604FF4965122
:103E80000BF068FD32460095314640464FF4A07372
:103E9000271DFEF751FC4FF07F43A366414638468D
:103EA00006F04CFD32460095314650464FF4A07363
:103EB000FEF742FC4FF0FF33C4F8943051463846C9
:103EC00006F03CFD0222EC231146029800934FF4C9
:103ED0009F73FEF731FC6D4B0299C4F8C030384631
:103EE00006F02CFD7823149800933C2219234FF4FC
:103EF0009371FEF721FC664BDFF89CA14FF003089D
:103F00004FF0FF324FF03C01C4E93B23A4F8F480AA
:103F100084F8EA103846149906F010FD1BA81CAA74
:103F200001464846ADF86C80ADF87080FEF7D4FBD2
:103F3000D4F8F830C4F834616FF0500084F82501EB
:103F4000D3F890304846984704F5CB524FF0140808
:103F50000C32C4F82821434602924846D322CDF8B9
:103F60000080A521FEF7E8FB4946384606F0E6FC4E
:103F70000F98009503233246A021FEF7DDFB6FF07A
:103F8000230C4FF0FF3284F882C10F99C4F88421CA
:103F9000384606F0D3FC0E231098009372229A2123
:103FA000FEF7CAFBC023C4F8BC314FF43453C4F845
:103FB000C431384B159AC4F8DC3149F66103C4E9C1
:103FC0006D551099A4F8E031C4F8B0213846C4F812
:103FD000C861C4F8C06106F0B1FC1398CDF8008048
:103FE00005236F222321FEF7A7FB4FF0FF32139921
:103FF000C4F80C22384606F0A1FC05231298CDF82F
:1040000000806E224FF48D71FEF796FB4FF0FF3269
:104010001299C4F83822384606F090FC42460998B6
:10402000BE21FEF74CFBD4F83C320999C4F86CA2CF
:1040300016AD2846D3F88430A4F87062984795E806
:10404000070004F51E79D4F83C3289E807004FF0E8
:10405000030184F8741228460999D3F884309847EC
:1040600095E807000DF1700C89E80700282315E09A
:10407000006C020804730208CC6F0208B0690208E1
:1040800080680208E86B0208A93B000837380CFF7B
:104090003493ADFF0C0C99FF565659FFDFF864942A
:1040A0000998ADF874306146CDF870900AF03AFA8C
:1040B0000999384606F042FCC82258467D21FEF791
:1040C000FEFAD4F88832C4F8B8A259462846D3F884
:1040D0008430A4F8BC62984795E8070004F5317A6B
:1040E000D4F888328AE807004FF0010284F8C02231
:1040F00059462846D3F88430984795E807000DF1D3
:10410000700C8AE80700272361465846ADF87430E2
:10411000CDF870900AF006FA594638464FF0340B45
:1041200006F00CFC13230398CDF800B0B4228C21C8
:10413000FEF702FB4FF0FF3CC4F804C30399A4F858
:104140000863284609F046FF95E8070004F5447A1D
:104150008AE807004FF0030184F80D1328460399FD
:1041600009F038FF95E807008AE807004FF00102E0
:10417000039984F80C23284609F02CFF95E80700E2
:104180000DF1700C8AE8070026234FF0BE0A614645
:104190000398ADF87430CDF870900AF0C3F9039924
:1041A00084F80AA3384606F0C9FB13230498CDF817
:1041B00000B00522A521FEF7BFFA4FF0FF3CC4F87E
:1041C0004CC30499A4F85063284609F003FF95E80E
:1041D000070004F5567B8BE807004FF0030184F8D5
:1041E00054132846049909F0F5FE95E807000DF1EF
:1041F000700C8BE80700252361460498ADF87430F5
:10420000CDF870900AF08EF9049984F852A33846DC
:1042100006F094FB0DF1700C62460DF16C0C6146DA
:1042200004230A98ADF86C30ADF87030FEF754FAFC
:10423000D4F86433C4F8A0636FF0500084F891039D
:10424000D3F890300A989847029AC4F894234346CA
:104250000A98CDF8008007228B21FEF76DFA0A99A3
:10426000384606F06BFB782000903C221198192309
:104270000321FEF761FAA24BC4F8F4334FF0FF308C
:104280004FF003034FF03C01A4F8F833C4F8F003F7
:1042900084F8EE133846119906F050FB05985A221F
:1042A0003D21FEF70CFA4FF0FF33C4F82C3405998A
:1042B000A4F83064284609F08DFE95E8070004F55F
:1042C000876B8BE807004FF00102059984F83424CE
:1042D000284609F07FFE95E8070024238BE80700B5
:1042E0000598ADF874301CA9CDF870900AF01AF951
:1042F000059984F832A4384606F020FB06985A2225
:10430000E921FEF7DCF94FF0FF330699C4F8743465
:104310002846A4F8786409F05DFE95E8070004F5E6
:10432000906B4FF003038BE80700069984F87C3408
:10433000284609F04FFE95E8070023238BE8070085
:104340000698ADF874301CA9CDF870900AF0EAF820
:10435000069984F87AA4384606F0F0FA07984522C0
:104360006E21FEF7ACF94FF0FF31C4F8BC142846BB
:104370000799A4F8C06409F02DFE95E8070004F53C
:10438000996B8BE807004FF00102079984F8C42469
:10439000284609F01FFE95E8070011238BE8070067
:1043A0000798ADF874301CA9CDF870900AF0BAF8EF
:1043B000079984F8C2A4384606F0C0FA0898514616
:1043C0004522FEF77CF94FF0FF320899C4F8042526
:1043D0002846A4F8086509F0FDFD95E8070004F5F6
:1043E000A26B4FF003038BE80700089984F80C35A3
:1043F000284609F0EFFD95E8070010238BE8070039
:104400000898ADF874301CA9CDF870900AF08AF8BD
:10441000089984F80AA5384606F090FA4FF0080982
:104420000B98ADF86C9005251CAA1BA9ADF870502F
:10443000FEF752F9029BC4F84C3550224346114610
:104440000B98C4F85865CDF80080FEF775F90B9904
:10445000384606F073FA0C98ADF86C901CAA1BA9AC
:10446000ADF87050FEF738F9029BC4F8B0350C98DF
:10447000C4F8BC6543468C22CDF80080DC21FEF7F1
:104480005BF90C99384606F059FA06230D98ADF8F9
:104490006C301CAA1BA9ADF87030FEF71DF9029B09
:1044A000C4F814360D98C4F8206643468C22CDF823
:1044B00000805021FEF740F90D99384606F03EFA8B
:1044C00007230E98ADF86C301CAA1BA9ADF870300C
:1044D000FEF702F9029BC4F878360E98C4F8846699
:1044E00043465022CDF80080DC21FEF725F93846FE
:1044F0000E9906F023FA20461FB0BDE8F08F00BFEA
:104500003493ADFF706802087047704730B4C268DA
:1045100044685510034604EB6200D20748BF625955
:104520009B6830BC48BFD35818470346406830B139
:104530009A681AB9D86800F00100704701207047E6
:1045400010B5102104461FF065F8204610BD38B59F
:104550000446002580F8495400F224400DF09CFFE9
:1045600004F2B44084F8D9540DF096FF04F27C5064
:1045700084F8A1550DF090FF04F26C4084F891543A
:104580000DF08AFF04F5A36084F83D550DF084FF1B
:1045900084F8055604F5BC60BDE838400DF07CBFDA
:1045A00010B5034B036004460BF0DEF9204610BD46
:1045B0004C6C020810B5064B036004460BF0D4F9AE
:1045C000204641F614111FF025F8204610BD00BF0B
:1045D0004C6C020800F54C7399422DE9F0470446F3
:1045E0000D4600F2B44A00F27C5817D1002380F83F
:1045F000B933012600F565700DF04EFF04F224403A
:1046000084F849640DF048FF504684F8D9640DF0F1
:1046100043FF84F8A16540460DF03EFF04F1C4035A
:104620009D4204F5A36704F5BC6618D1002384F805
:1046300001344FF0010904F577700DF02DFF04F2FD
:104640006C4084F891940DF027FF384684F83D952E
:104650000DF022FF84F8059630460DF01DFFA845A9
:1046600003D10CF07BFEFEF719FFAE4203D10CF034
:1046700075FEFEF713FFAA4518D1012384F8B9335C
:104680004FF0000904F565700DF006FF04F22440B8
:1046900084F849940DF000FF284684F8D9940DF071
:1046A000FBFE84F8A19540460DF0F6FEAF4219D10D
:1046B000012384F80134002504F577700DF0ECFE39
:1046C00004F26C4084F891540DF0E6FE384684F80C
:1046D0003D550DF0E1FE84F805563046BDE8F04743
:1046E0000DF0DABEBDE8F087012906D1002380F87D
:1046F000B93300F565700DF0CFBE022905D1002356
:1047000080F8013400F57770F5E770472DE9F04F38
:1047100004469FB0A14600250EF016FDDF4BE56371
:1047200049F8403B04F16C0B4846FEF72BF804F1C6
:10473000980A5846FEF726F804F1C4085046FEF7DA
:1047400021F84046FEF754F804F594731846119387
:10475000FEF718F804F5AA731846129308F02EFE17
:1047600004F5CE7318461593FCF7AAFECC4BC4F89B
:104770009C312433C4F8A43104F5D873C4F8A8518B
:104780001846C84E14934FF00107FDF7FBFF04F5E0
:10479000EE73C4F8B06184F8D47118461393FDF732
:1047A000F1FF04F50273C4F8DC6184F80072184666
:1047B000BD4E0A93FDF7FAFF04F51573C4F80862BD
:1047C000C4F8505218460B93FDF7F0FF04F5287318
:1047D000C4F85462C4F89C5218460493FDF7E6FFEF
:1047E00004F53A7318460593FDF7E0FF04F54C73A2
:1047F00018460C93FDF7FCFF04F565731846069305
:10480000FDF7D4FF04F5777318460793FDF7CEFF45
:1048100004F2244318460893FDF7C8FF04F26C43E2
:1048200018460993FDF7C2FF04F2B44318460D93EE
:10483000FDF7DEFF04F5A36318460E93FDF7D8FFDE
:1048400004F27C5318460F93FDF7D2FF04F5BC63C6
:1048500018461093FDF7CCFF04F58053934AC3F834
:104860000429934AC3F80849F027C3F80C29C3F870
:10487000105904F244604FF496510BF06BF82A463D
:104880000097294648464FF4A073261DFDF754FFB4
:104890004FF07F43A3664946304606F04FF82A465C
:1048A0000097294658464FF4A073FDF745FF4FF097
:1048B000FF33C4F894305946304606F03FF80222E0
:1048C000EC231146009350464FF49F73FDF734FFDD
:1048D000784BC4F8C0305146304606F02FF84FF000
:1048E00003021BA9ADF86C20ADF8702040461CAA4D
:1048F000FDF7F2FED4F8C430C4F800516FF0500256
:1049000084F8F1204046D3F89030DFF8B0B19847F2
:1049100004F5C8534FF014090433C4F8F43003937A
:10492000D3224B464046CDF80090A521FDF704FF69
:104930004146304606F002F82A46119800970323B4
:10494000A021FDF7F9FE4FF0FF336FF023004FF089
:104950000E081199C4F8503184F84E01304605F024
:10496000EDFF1298CDF80080434672229A21FDF7A0
:10497000E3FEC023C4F888314FF43453C4F89031B7
:104980004D4BC4F8A83149F66103A4F8AC31159B2E
:104990001299C4F87C31C4E9607730462827C4F8FE
:1049A0009451C4F88C5105F0C9FF14980097642203
:1049B00005230721FDF7C0FE4FF0FF331499C4F81B
:1049C000D831304605F0BAFF1398009764220523CA
:1049D00040F23311FDF7B0FE4FF0FF33C4F804325C
:1049E0001399304605F0AAFF4A460A98BE21FDF702
:1049F00066FED4F808320A99C4F838B216AF3846C1
:104A0000D3F88430A4F83C52984797E8070004F59F
:104A1000117AD4F808328AE807004FF003020A99A5
:104A200084F840223846D3F88430984797E8070046
:104A30000F238AE80700DFF888A00A98ADF87430E1
:104A40001CA9CDF870A009F06DFD0A99304605F05B
:104A500075FF0B98C8227D21FDF731FED4F8543242
:104A60000B99C4F884B23846D3F88430A4F888523D
:104A7000984797E8070004F5247B4FF001038BE883
:104A8000070084F88C32D4F854320B99D3F8843070
:104A90003846984797E8070014E000BF4C6C0208BE
:104AA000CC6F0208B069020880680208346C020802
:104AB000D545000837380CFF0C0C99FF565659FFA6
:104AC000706802088BE807000B98ADF874801CA989
:104AD0004FF0340BCDF870A009F024FD0B9930464F
:104AE00005F02CFF13230498CDF800B0B4228C21DC
:104AF000FDF722FE4FF0FF300499C4F8D002A4F86D
:104B0000D452384609F066FA97E8070004F537787A
:104B100088E807004FF00302049984F8D922384648
:104B200009F058FA97E807004FF0010388E80700FA
:104B3000049984F8D832384609F04CFA97E807000F
:104B40000D2388E807004FF0BE080498ADF87430D4
:104B50001CA9CDF870A009F0E5FC049984F8D68270
:104B6000304605F0EBFE13230598CDF800B0052282
:104B7000A521FDF7E1FD4FF0FF300599C4F81803BA
:104B8000A4F81C53384609F025FA97E8070004F505
:104B9000497B8BE807004FF00302059984F8202336
:104BA000384609F017FA97E807000C238BE807004E
:104BB0000598ADF874301CA9CDF870A009F0B2FCCE
:104BC000059984F81E83304605F0B8FE1CA804231E
:104BD00002461BA90C98ADF86C30ADF87030FDF7AB
:104BE0007BFDD4F830330C98C4F86C536FF050014F
:104BF00084F85D13D3F890309847039BC4F8603372
:104C00000C98CDF800904B4607228B21FDF794FDC0
:104C10000C99304605F092FE06985A223D21FDF788
:104C20004EFD4FF0FF31C4F8C41338460699A4F87E
:104C3000C85309F0CFF997E8070004F5747B4FF0EB
:104C400001038BE80700069984F8CC33384609F055
:104C5000C1F997E807000B238BE807000698ADF829
:104C600074301CA9CDF870A009F05CFC069984F89A
:104C7000CA83304605F062FE07985A22E921FDF703
:104C80001EFD4FF0FF31C4F80C1438460799A4F804
:104C9000105409F09FF997E8070004F5836B8BE83F
:104CA00007004FF00302079984F81424384609F0EE
:104CB00091F997E807000A238BE807000798ADF8F9
:104CC00074301CA9CDF870A009F02CFC079984F869
:104CD0001284304605F032FE089845226E21FDF719
:104CE000EEFC4FF0FF31C4F8541438460899A4F88C
:104CF000585409F06FF997E8070004F58C6B4FF0F2
:104D000001038BE80700089984F85C34384609F001
:104D100061F997E8070009238BE807000898ADF8C8
:104D200074301CA9CDF870A009F0FCFB089984F838
:104D30005A84304605F002FE099845224146FDF7A7
:104D4000BEFC4FF0FF33C4F89C340999A4F8A0547A
:104D5000384609F03FF997E8070004F5956B8BE8B2
:104D600007004FF00302099984F8A424384609F09B
:104D700031F997E8070008278BE807000998CDF874
:104D800070A01CA9ADF8747009F0CCFB099984F8E7
:104D9000A284304605F0D2FD4FF005080D98ADF81D
:104DA0006C701CAA1BA9ADF87080FDF795FC039BE5
:104DB000C4F8E43450224B4611460D98C4F8F05420
:104DC000CDF80090FDF7B8FC0D99304605F0B6FD22
:104DD0000E98ADF86C701CAA1BA9ADF87080FDF799
:104DE0007BFC039BC4F848350E98C4F854554B46D9
:104DF0008C22CDF80090DC21FDF79EFC0E99304608
:104E000005F09CFD06230F98ADF86C301CAA1BA979
:104E1000ADF87030FDF760FC039BC4F8AC350F981B
:104E2000C4F8B8554B468C22CDF800905021FDF7C0
:104E300083FC0F99304605F081FD07231098ADF8EB
:104E40006C301CAA1BA9ADF87030FDF745FC039B24
:104E5000C4F810361098C4F81C564B465022CDF8B2
:104E60000090DC21FDF768FC3046109905F066FDE6
:104E700020461FB0BDE8F08F70477047704730B4D0
:104E8000C26844685510034604EB6200D20748BF6D
:104E900062599B6830BC48BFD358184703464068E6
:104EA00030B19A681AB9D86800F001007047012043
:104EB000704710B5102104461EF0ACFB204610BD13
:104EC00010B5034B036004460AF04EFD204610BDAA
:104ED000986C020810B5064B036004460AF044FDC6
:104EE000204641F67C011EF095FB204610BD00BF18
:104EF000986C020838B500F1E003994204460D466B
:104F000003D10CF02BFAFEF7A9FA04F264539D4288
:104F100003D10CF023FAFEF791FA9834A54205D19B
:104F20000CF01CFABDE83840FEF778BA38BD000036
:104F300038B504460D46FCF7C3FA034B236024330F
:104F4000E560A360204638BDCC6F02082DE9F04F24
:104F50000446A5B0A14600250EF0F6F8E24BE56345
:104F600049F8403B04F16C0A4846FDF70BFC04F19C
:104F700098085046FDF706FC04F1E007404609F0AA
:104F80002DFE384609F02AFE04F594731846069360
:104F900008F014FA04F5B873294618461193FFF780
:104FA000C7FF04F5C2731846079308F007FA04F523
:104FB000E673294618461293FFF7BAFF04F5F0731B
:104FC0001846089308F0FAF904F50A7329461846BA
:104FD0001393FFF7ADFF04F50F731846099308F01C
:104FE000EDF904F52173294618461493FFF7A0FF45
:104FF00004F5267318460A9308F0E0F904F53873AF
:10500000294618461593FFF793FF04F53D7318469C
:105010000B9308F0D3F904F54F73294618461693FD
:10502000FFF786FF04F5547318460C9308F0C6F991
:1050300004F56673294618461793FFF779FF04F5C0
:105040006B7305934FF48073A4F8D033A74BC4F867
:10505000AC33A74BC4F8D4334FF0FF314FF47F0388
:105060004FF0FF30C4F8E033C4E9FB05A4F8D813CF
:1050700004F57D70C4E9EC55C4E9EE55C4E9F0557A
:10508000C4E9F255C4F8DC53A4F8E453C4F8E85377
:105090000D9008F093F9294604F23C401890FFF770
:1050A00047FF04F58A600E9008F088F9294604F558
:1050B00093601990FFF73CFF04F2AC400F9008F0AA
:1050C0007DF9294604F2F4401A90FFF731FF04F508
:1050D000A160109008F072F9294604F5AA601B90AF
:1050E000FFF726FF04F26450039009F077FD04F502
:1050F0008053804AC3F86C287F4AC3F87048C3F8CD
:105100007428C3F8785804F2AC504FF0F00B4FF409
:1051100096510AF01FFC2A46CDF800B029464846B1
:105120004FF4A073261DFDF707FB4FF07F43A366E6
:105130004946304605F002FC2A46CDF800B0294623
:1051400050464FF4A073FDF7F7FA6C4BC4F8943057
:105150005146304605F0F2FB404666225521FDF7E8
:10516000AEFA21A84FF0010B22AA01464FF0020926
:105170004046ADF88890ADF884B009F026FA2F23A8
:10518000A4F8D0304046FDF73DFF4FF0FF30C4F8A3
:10519000D80004F5C3505A4BC4F8D4300C300490F6
:1051A000C4F8C0004146304605F0C8FB59463846B1
:1051B0003222FDF784FA21A822AA01463846ADF82A
:1051C0008890ADF884B009F000FA3023A4F81831C3
:1051D0003846FDF717FF0499494BC4F81C314FF0CE
:1051E000FF304FF01D0AC4F82001C4F80811304602
:1051F000394605F0A3FB0698CDF800A05346C5221A
:10520000CF21FDF799FA3F4B1199C4F87C314FF447
:1052100034584FF4F0774FF4A0794DF21443C4E9B9
:105220005577C4F85C91A4F88031C4F85011304629
:105230000699C4F86851C4F86051C4F8648105F057
:105240007DFB0798CDF800A05346C5225B21FDF7F2
:1052500073FA2D4B1299C4F8D8314AF23A53C4E983
:105260006C77C4F8B891A4F8DC31C4F8AC113046BE
:105270000799C4F8C451C4E96F5805F05FFB08985A
:10528000CDF800A05346C5229521FDF755FA1F4BD6
:105290001399C4F834324DF6B953C4E98377C4F88E
:1052A0001492A4F83832C4F8081230460899C4F8A9
:1052B0002052C4E9865805F041FB0998CDF800A0BA
:1052C0005346A822EC21FDF737FA114B1499C4F884
:1052D000903248F21663C4E99A77C4F87092A4F841
:1052E0009432C4F8641215E0986C02080C7202083B
:1052F00070680208806C0208F54E0008EDDCADFF16
:10530000805039FFA583D4FFD1A4A1FFCAB4DEFF2A
:10531000B7C286FF30460999C4F87C52C4E99D584B
:1053200005F00CFB0A98CDF800A05346A822752181
:10533000FDF702FA994B1599C4F8EC324EF67363F7
:10534000C4E9B177C4F8CC92A4F8F032C4F8C01222
:1053500030460A99C4F8D852C4E9B45805F0EEFAB8
:105360000B98CDF800A05346A822B221FDF7E4F92E
:105370008B4B1699C4F8483349F63263C4E9C877B1
:10538000C4F82893A4F84C33C4F81C1330460B9986
:10539000C4F83453C4E9CB5805F0D0FA0C98CDF8D2
:1053A00000A05346A8223E21FDF7C6F97D4B179970
:1053B000C4F8A4334EF69243C4E9DF77C4F884936B
:1053C000A4F8A833C4F8781330460C99C4F8905365
:1053D000C4E9E25805F0B2FA312000900A2205989B
:1053E0009F235921FDF7A8F91CAF6F4B0599C4F80D
:1053F000DC333846A4F8E0B308F0ECFD97E807008A
:1054000004F57A7383E80700684A22924FF032026B
:10541000ADF88C2022AA114605984FF0500909F0EA
:1054200081F80599304605F089FA4B460D98CDF87C
:1054300000906FF01D026FF01901FDF77DF94FF03C
:10544000FF324FF4A067C4F848244FF0FF31189A98
:10545000A4F84C14C4F81C240D99C4F820743046E8
:10546000C4F82474C4F82874C4F83454C4F82C5410
:10547000C4F8308405F062FA4B460E98CDF80090DF
:105480006FF01D024FF48771FDF756F948F65D6A1B
:105490001999474AC4F8A424C4F8781430460E99E0
:1054A000C4F87C74C4F88074C4F88474C4F890544C
:1054B000C4F88854C4F88C84A4F8A8A405F03EFA73
:1054C0004B460F98CDF80090BD226FF01901FDF703
:1054D00033F9374AC4F800251A9A0F99C4F8D4242E
:1054E0003046C4F8D874C4F8DC74C4F8E074C4F866
:1054F000EC54C4F8E454C4F8E884A4F804A505F016
:105500001DFA4B461098CDF80090BD224FF48771DC
:10551000FDF712F94FF0FF32C4F85C254FF0FF3170
:105520001B9AA4F86015C4F830251099C4F8347596
:105530003046C4F83875C4F83C75C4F84855C4F80A
:105540004055C4F8448505F0F9F903983222AA21A0
:10555000FDF7B5F84FF0020921A90398ADF884B022
:1055600022AAADF8889009F030F84FF03102039884
:10557000A4F89C25FDF746FD0E4BC4F8A0354FF06E
:10558000FF33C4F8A435049B0399C4F88C35304626
:1055900005F0D4F9204625B0BDE8F08F9BCFEBFF96
:1055A00093C799FF9191EBFF8F5D32FF70680208FE
:1055B000EBCA88FF805039FF7047000030B5174DA7
:1055C0002C6814F001048FB0BFF35B8F22D1284602
:1055D0001EF022F8F0B13F230993114B0893114BB1
:1055E00007930123CDE9054304930423CDE9024346
:1055F0000F230D4900930E221323CDE90B440B48D2
:105600000A940194FEF73AFA09481EF05DFF284615
:105610001EF00EF805480FB030BD00BFD43000209A
:10562000709B02088C9B0208B0970208D8300020BB
:10563000B95500087047000030B5174D2C6814F0BC
:1056400001048FB0BFF35B8F22D128461DF0E4FF29
:10565000F0B13F230993114B0893114B079301239A
:10566000CDE9054304930423CDE9024312230093BB
:1056700017230C490C480A941A46CDE90B440194AF
:10568000FEF7FCF909481EF01FFF28461DF0D0FF69
:1056900005480FB030BD00BF04310020749B0208E4
:1056A000909B0208749802080831002035560008C3
:1056B0007047000030B5174D2C6814F001048FB00E
:1056C000BFF35B8F22D128461DF0A6FFF0B13F2328
:1056D0000993114B0893114B114912480A94CDE9D3
:1056E000064301220423CDE9033214230093072249
:1056F0001A23CDE90B44CDE901440594FEF7BEF928
:1057000009481EF0E1FE28461DF092FF05480FB043
:1057100030BD00BF34310020789B0208949B020802
:10572000B899020838310020B156000870470000CF
:1057300030B5174D2C6814F001048FB0BFF35B8FA8
:1057400022D128461DF068FFF0B13F230993114B89
:105750000893114B07930123CDE9054304930423D8
:10576000CDE902431C230D4900930A221D23CDE9F4
:105770000B440B480A940194FEF780F909481EF087
:10578000A3FE28461DF054FF05480FB030BD00BFF2
:10579000643100207C9B0208989B02081C9A020836
:1057A000683100202D5700087047000030B5174DB4
:1057B0002C6814F001048FB0BFF35B8F22D1284610
:1057C0001DF02AFFF0B13F230993114B0893114BB1
:1057D000079301220423CDE90523CDE903321F23DA
:1057E0000D4900930C222823CDE90B44CDE9014457
:1057F0000A480A94FEF742F909481EF065FE284659
:105800001DF016FF05480FB030BD00BF94310020D9
:10581000809B02089C9B0208A89A020898310020ED
:10582000A95700087047000030B5164D2C6814F0D9
:1058300001048FB0BFF35B8F20D128461DF0ECFE32
:10584000E0B13F230993104B0893104B10491148C6
:105850000A940122CDE906430423CDE90332112342
:105860000093CDE90B44CDE901440594FEF706F918
:1058700009481EF029FE28461DF0DAFE05480FB043
:1058800030BD00BFC4310020849B0208A09B0208E9
:10589000509B0208C83100202558000870470000BE
:1058A00030B5164D2C6814F001048FB0BFF35B8F38
:1058B00020D128461DF0B0FEE0B13F230993104BE4
:1058C0000893104B104911480A940122CDE9064370
:1058D0000423CDE9033214230093CDE90B44CDE931
:1058E00001440594FEF7CAF809481EF0EDFD28466C
:1058F0001DF09EFE05480FB030BD00BFF431002002
:10590000889B0208A49B0208609B0208F8310020D3
:105910009D58000800207047002070470EB403B562
:1059200003AB002153F8042B01930CF08BFC02B065
:105930005DF804EB03B070470CB407B504AB53F843
:10594000042B01930CF07EFC03B05DF804EB02B075
:1059500070470000436C10B5044673B3038F2BB936
:10596000184B194AC52119481EF090FDC38E00EB53
:1059700043035B8C0BB30EF01EFB238F012B03D86C
:10598000134B144ACB21EEE7E28E531C9BB2092B3A
:10599000194688BFA3F10A0104EB410140F63F100C
:1059A000498C814209D10A2B04EB420228BF002313
:1059B00004EB4303508C588451842046BDE81040CA
:1059C0000EF0FCB9D2610208DB61020886620208AF
:1059D000D0620208DE6202080EF0B7B910B586B0D8
:1059E00002AC84E806001A460AAB05930193099BB2
:1059F00000932146089B0BF04FF806B010BD000045
:105A000038B518BB124B13481C681349B4B122684F
:105A100022440260626822440A60A26814440F4B68
:105A200000221A8000F038F8054600F033F80C4BDD
:105A30001C600C4B1D600C4B188007E00B4B036087
:105A40000B4B0B600B4B1C68002CE8D138BD00BF22
:105A50003032002028320020243200202C32002056
:105A60001040012018400120144001207C9C0208B5
:105A7000A89B0208449D0208044B1B6853F82100B0
:105A8000034B1B6803EB4000704700BF243200202B
:105A900028320020352070470048704734320020FB
:105AA00010B5FFF7C1FE0A4C2060FFF77FFE606073
:105AB000FFF7C2FDA060FFF7FDFDE060FFF738FED5
:105AC0002061FFF7EDFE6061FFF778FDA06110BD7A
:105AD0003432002010B5002404600C6014601C6097
