:020000040800F2
:10000000000003206D0600081D2400081F240008BE
:1000100021240008232400082524000800000000F3
:1000200000000000000000000000000091A7000890
:10003000272400080000000021A80008B7A000083D
:10004000BD060008BD060008BD060008BD06000884
:10005000BD060008BD060008BD060008BD06000874
:10006000BD060008BD060008BD060008BD06000864
:10007000BD060008BD060008BD060008BD06000854
:10008000BD060008BD060008BD060008BD06000844
:10009000BD060008BD060008BD060008BD06000834
:1000A000BD060008BD060008BD060008BD06000824
:1000B000BD060008BD060008BD060008BD06000814
:1000C000BD060008BD060008BD060008BD06000804
:1000D000BD060008BD060008BD060008BD060008F4
:1000E000BD060008BD060008BD060008BD060008E4
:1000F000BD060008BD060008BD060008BD060008D4
:10010000BD060008BD060008BD060008BD060008C3
:10011000BD060008BD06000829240008BD06000829
:10012000BD060008BD060008BD060008BD060008A3
:10013000BD060008BD060008BD060008BD06000893
:10014000BD060008BD060008BD060008BD06000883
:10015000BD060008BD060008BD060008BD06000873
:10016000BD060008BD060008BD060008BD06000863
:10017000BD060008BD060008BD060008000000001E
:10018000BD060008BD060008BD060008BD06000843
:10019000BD060008BD060008BD060008BD06000833
:0C01A00035240008BD06000841240008BA
:1001B00010B5054C237833B9044B13B10448AFF3A1
:1001C00000800123237010BD800300200000000088
:1001D000CC78020808B5034B1BB103490348AFF3C1
:1001E000008008BD0000000084030020CC780208D5
:1001F000034613F8012B002AFBD1181A0138704767
:1002000001F0FF01102A2BDB10F0070F08D010F8C7
:10021000013B013A8B422DD010F0070F42B3F6D1CB
:10022000F0B441EA012141EA014122F007047FF0E4
:1002300000070023F0E80256083C85EA010586EA3B
:10024000010685FA47F5A3FA87F586FA47F6A5FA77
:1002500087F68EB9EED1F0BC01F0FF0102F0070283
:1002600032B110F8013B013A83EA010313B1F8D12E
:100270000020704701387047002D06BF354603380F
:10028000073815F0010F07D1013015F4807F02BF48
:10029000013015F4C03F0130F0BC0138704700BF99
:1002A0007BB972B90029BEBF00204FF0004106E0C3
:1002B00008BF00281CBF6FF000414FF0FF3000F076
:1002C000D3B9ADF1080C6DE904CE002909DB002B90
:1002D0001ADB00F04DF8DDF804E0DDE9022304B09C
:1002E0007047404261EB4101002B1BDB00F040F8FE
:1002F000DDF804E0DDE9022304B0404261EB410196
:10030000524263EB43037047524263EB430300F0F6
:100310002FF8DDF804E0DDE9022304B0404261EB90
:1003200041017047524263EB430300F021F8DDF8CE
:1003300004E0DDE9022304B0524263EB430370475B
:1003400053B94AB9002908BF00281CBF4FF0FF313C
:100350004FF0FF3000F088B9ADF1080C6DE904CE24
:1003600000F006F8DDF804E0DDE9022304B0704790
:100370002DE9F047089D8E4604468846002B4AD159
:100380008A42174662D9B2FA82F64EB1C6F120030C
:1003900001FA06F820FA03F3B74043EA0808B4402C
:1003A0004FEA174E1FFA87FCB8FBFEF1230C0EFB39
:1003B000118843EA084301FB0CF29A4209D9FB1861
:1003C00001F1FF3080F0EA809A4240F2E780023982
:1003D0003B449A1AA3B2B2FBFEF00EFB102243EA92
:1003E000024300FB0CFC9C4509D9FB1800F1FF32CD
:1003F00080F0D6809C4540F2D3803B44023840EAEE
:100400000140A3EB0C0300211DB1F3400022C5E91C
:100410000032BDE8F0878B4205D90DB1C5E9000176
:1004200000210846F5E7B3FA83F1002946D1734568
:1004300002D3824200F20581841A6EEB030201208E
:100440009046002DE5D0C5E90048E2E7002A00F01B
:100450009080B2FA82F6002E40F0A4808A1A030C33
:100460004FEA174E80B2BCB20121B2FBFEFC0EFB7C
:100470001C2243EA024304FB0CF29A4207D9FB1800
:100480000CF1FF3802D29A4200F2E080C4469B1A77
:10049000B3FBFEF20EFB123340EA034302FB04F40B
:1004A0009C4207D9FB1802F1FF3002D29C4200F2B5
:1004B000CA8002461B1B42EA0C40A5E7C1F1200698
:1004C0008B4022FA06F71F430EFA01F420FA06F3D6
:1004D0002EFA06FE4FEA1749234300FA01F81FFAE5
:1004E00087FCBEFBF9F01C0C09FB10EE44EA0E443D
:1004F00000FB0CFEA64502FA01F209D93C1900F1F5
:10050000FF3A80F09C80A64540F2998002383C4436
:10051000A4EB0E041FFA83FEB4FBF9F309FB1344AA
:100520004EEA044403FB0CFCA44508D93C1903F132
:10053000FF3E80F08280A4457FD9023B3C4443EAE1
:100540000040A4EB0C04A0FB02EC64457346E146BA
:1005500062D35FD05DB1B8EB030264EB090404FA27
:1005600006F622FA01F31E43CC40C5E900640021DF
:100570004FE7B1FBF2FC010C41EA0E4180B240EAC8
:1005800001423B4638463C46B846BE462026B1FBB3
:10059000F7F1A2EB080241EA0C4166E7014618E7D1
:1005A00010462CE7C6F120022EFA02F3B740B14004
:1005B00020FA02F24FEA174E0A43B3FBFEF8BCB230
:1005C0000EFB1833110C41EA034108FB04F9B0405B
:1005D00089454FEA104380B23ED9791808F1FF3CB3
:1005E00001D289451FD8A1EB0901B1FBFEF909FB36
:1005F00004F80EFB191192B242EA0142424529D297
:10060000BA1809F1FF31C4D24245C2D2A9F10201A0
:100610003A44BEE7F0459DD2BEEB02036CEB070CFB
:100620000138E14696E7A7EB09094944A8F1020C15
:10063000B1FBFEF909FB04F8DBE773467FE75046A0
:1006400066E70846FDE63B44023A33E7ACF1020CAC
:100650003B441CE749469CE7A1EB0901C446B1FBBA
:10066000FEF909FB04F8C4E7704700BFDFF834D097
:10067000002103E00C4B5B58435004310B480C4BFA
:1006800042189A42F6D30B4A02E0002342F8043B98
:10069000094B9A42F9D306F06DFE26F001FA01F0FB
:1006A00063F9704700000320A097040800000020B1
:1006B0006401002080030020904C0120FEE7704779
:1006C00008B500F0A7FDBDE8084000F029BD00F026
:1006D000A3BD704710B50421044624F0D3FF204683
:1006E00010BD000038B50C4B0C4C18800C4B822010
:1006F00019806368984740F6110398420AD1094D62
:1007000023682C60822098472B688220DB689847FA
:10071000002038BD0120FCE7A60300204C0000208B
:10072000A4030020A80300204FF4A071F020FFF7DD
:10073000D9BF0000F7B52F4D2B6804461B698220F6
:1007400098472080002844D02B680DF106025B6991
:1007500001A982209847BDF80620A2F5B47292B292
:100760000A2A38D90B23B2FBF3F2234B1B889A4297
:1007700001D9013B9AB2BDF80430204840F6B831A7
:100780008B422AD8C3F571630E3301689BB20F25E3
:10079000B3FBF5F31A4D2D88AB4284BF05F1FF354D
:1007A000ABB28B421D468EB220D99B1B99B2154E1F
:1007B0003768BBB2BA428CBFD31A9B1A9BB219449A
:1007C0000529C8BF05600368C8BF3260638033680D
:1007D000A38003B0F0BD0022CDE7C3F56D630833FD
:1007E0009BB20E2B0168D2D800252B46C91A89B2BC
:1007F000DDE700BFA8030020A4030020A003002021
:10080000A60300209C03002037B568460D46144619
:10081000FFF790FFBDF8000040B1BDF802302B603B
:10082000BDF80430C3F5A0732360012003B030BDD0
:10083000032821D8DFE800F0020B12190F4B1A68C9
:10084000B2FA82F2520904210D4807F05BBA0B4B51
:100850005A68B2FA82F252090821F5E7074B9A6802
:10086000B2FA82F252091021EEE7044BDA68B2FACA
:1008700082F252092021E7E7704700BFAC03002055
:1008800000100240032821D8DFE800F0020B121903
:100890000F4B1A68003A18BF012204210D4807F0D7
:1008A00031BA0B4B5A68003A18BF01220821F5E70C
:1008B000074B9A68003A18BF01221021EEE7044B5B
:1008C000DA68003A18BF01222021E7E7704700BF2D
:1008D000AC0300200010024003280DD8DFE800F030
:1008E0000206080A0421054807F011BA0821FAE7B0
:1008F0001021F8E72021F6E7704700BF0010024002
:1009000008B5032811D8DFE800F0020A0C0E042114
:10091000074807F0F1F9431E5842584108BD082125
:10092000F6E71021F4E72021F2E70020F3E700BF0B
:100930000010024070B5084D00240126E0B2FFF718
:10094000DFFF18B12B68012B18BF2E600134052C76
:1009500005F10405F2D170BDAC030020012380F83D
:10096000781080F87930704700207047034B41645D
:10097000003918BF01211970704700BF4F3F012097
:1009800000207047836B0BB10846184770474FF63D
:10099000FF707047406803689B691847704770474D
:1009A0007047000010B5044600F044FD2368034979
:1009B000D3F88C302046BDE810401847000000D026
:1009C00008B503680446D3F880309847236820466A
:1009D0009B6F984700F0ECF8236820461B6F984700
:1009E000292001F03BFA00F0E3F8236820461B6F52
:1009F0009847F8E710B504460CF084FC23682046BD
:100A0000D3F8AC30BDE81040184700F0F7BC00F058
:100A1000FBBC00F02DBD00F0CDBC00F03DBD00F0F2
:100A200045BD00F0D1BC0BF0D9BE10B57C21044609
:100A300024F028FE204610BD10B590F8341090F830
:100A400078400C4B8C421A7809D03AB90A4A0B49C3
:100A50001488088810800C8001221A7010BD002AAA
:100A6000FCD0054A05491488088810800C800022B3
:100A7000F3E700BF483F0120443F0120463F0120EB
:100A800070B50D46194635B9094B0A4A0A4840F275
:100A9000D22125F033FDC0E90F52084B003A18BFB0
:100AA00001221A700368BDE87040D3F88C301847F3
:100AB0003C79020874790208C27902084E3F01208D
:100AC00008B5094B1B888B4203D8084B1B889342FF
:100AD00005D9074B074A08489E2125F00FFD074B13
:100AE0001980074B1A8008BD443F0120463F012072
:100AF000077A02086A7A0208C27902084A3F01208E
:100B00004C3F0120034690F87A0018B158680368FA
:100B10001B68184770470000012108B500220846ED
:100B200009F052FB0A4B186028B90A4B0A4A2821DF
:100B30000A4825F0E3FC00220421012009F0E3FB30
:100B4000074B186018B9074B034A2C21F0E708BD82
:100B5000C0030020AD7A0208F67A0208257B02085D
:100B6000BC030020637B0208024B4FF0FF31186882
:100B700009F074BBC0030020014B186809F09ABB50
:100B8000C0030020024B0021186809F067BB00BFBA
:100B9000C0030020FFF7F0BF0348044900680023AA
:100BA0001A4609F0EBBB00BFBC0300200400002084
:100BB00013B5084C00231A4601A9206809F00FFC60
:100BC00020684FF0FF33002201A909F008FC02B0B1
:100BD00010BD00BFBC03002003685B6C18470120F8
:100BE000704703689B6A1847FEE740F2EF30704792
:100BF000054B0360054B4FF08062C3F88820BFF3BC
:100C00004F8FBFF36F8F70471C8B020800E100E02D
:100C100010B504464FF45A61FFF7EAFF204624F06E
:100C200031FD204610BD000082B0002301930E4B21
:100C30001A6B42F400021A631A6B02F4000201926A
:100C4000019A1A6942F400021A611A6922F4000238
:100C50001A61064B064A1A61064A5A61064B4FF062
:100C600080629A6002B0704700380240D02F0020A6
:100C7000C90E0008E90B000800E100E008B50A28E9
:100C800009D8DFE800F006100E0808080810101058
:100C90001000022008BD054B054A0648902125F0AA
:100CA0002DFC0020F6E70120F4E700BFA57B020839
:100CB000C07B02080B7C020838B50C46887FFFF722
:100CC000DDFFA58AE28A164B2169586342EA054294
:100CD0005A64628BD963521B1A642568082D0ED1A1
:100CE0009A611A615862207F0E4A42EA0062DA6114
:100CF000E2681A620C4A5961D9601A6038BD002254
:100D0000D8611A61E1680A0A480902F4784200F4DD
:100D1000FC600243C1F3C4010A439A63034AECE74F
:100D200000B002400900010001230200012303007A
:100D300008B50B280BD8DFE800F00612100A0A0AE3
:100D40000A0808080808022008BD0520FCE7054B32
:100D5000054A06486F2125F0D1FB0020F4E7012069
:100D6000F2E700BFA57B0208477C02080B7C020863
:100D70002DE9F04191F81D800C464046FFF7D8FF61
:100D8000A77F05463846FFF7D3FF06463846FFF7EC
:100D900075FFA18A628B444B521A1A649A61228BA6
:100DA000521A1A61E28A586342EA01425A6421697E
:100DB0006268D963DA602068802828D0227F0FD843
:100DC000202867D0402865D004281AD0364B45EA41
:100DD000026545F40035B845DD6161D0334A44E031
:100DE000B0F5807F04D0B0F5007FEFD1304800E04F
:100DF000304840EA0262DA61E2681A625E62596172
:100E000032E045EA026242F40032DA61F6E7A068B5
:100E1000021DDA62227F45EA026545F40035DD6194
:100E20005E625961017841B1012921D0224B234AE8
:100E300023484FF48D7125F061FBDA69418822F473
:100E40007F42013922F0100242EA0122DA610121D7
:100E5000154BDA6942F02002DA61DA699206FCD4B5
:100E600010229A600029B9D0164A1A60BDE8F081B4
:100E7000B2F1FF01DA69408822F47F4200F1FF30CD
:100E800022F0100242EA002242F0100218BF0121B3
:100E9000DA61DDE745EA0262034B42F40032B4E76F
:100EA00042F20132E1E700BF00B00240012301003D
:100EB000090002000A000200917C0208AB7C0208D3
:100EC0000B7C020801230200024B1B685868036870
:100ED0005B691847503F012070B5044625460A4B10
:100EE0000C30002660602672667245F8203B602256
:100EF00029460CF05FFB04F55A63EE6024359D42F1
:100F0000FBD1204670BD00BF1C8B0208034B1A6842
:100F1000D207FCD423229A60704700BF00B0024081
:100F20007047000030B50F4C2568ED07FCD4232531
:100F30000904A56041F001010225FF2B656361648E
:100F4000E0630AD00849656241EA0363E361074B45
:100F500022626061E060236030BDE561039BA363B2
:100F6000034BF8E700B00240090001000100020055
:100F70000100030030B50E4C2568ED07FCD4232595
:100F80001204A56042F001020225FF2B6563626432
:100F9000E063E16008D01B0643F00213E361054BF8
:100FA00065626061236030BD034BE3610123F9E7B3
:100FB00000B0024001000200020002FF30B50B4CFD
:100FC0002568ED07FCD4232512041B06A56043F415
:100FD0000033022542F0010265636264E063E16070
:100FE000E361034B65626061236030BD00B0024085
:100FF000010002000120704738207047382303FBAE
:10100000010008307047382303FB010008307047A7
:101010000120704741F67C00704741F67C0303FBDA
:1010200001000830704741F67C0303FB01000830E3
:101030007047012070471020704700EB0110083006
:10104000704700EB011008307047084602F0D6B92F
:1010500010B5034B036004460BF015F9204610BD94
:10106000D48B020810B50446FFF7F2FF204640215A
:1010700024F008FB204610BD10B5034B0360044666
:101080000BF001F9204610BDA08B020810B50446F4
:10109000FFF7F2FF204641F6840124F0F3FA2046E0
:1010A00010BD000010B5034B036004460BF0EBF8D5
:1010B000204610BD6C8B020810B50446FFF7F2FF06
:1010C0002046182124F0DEFA204610BD10B5094B49
:1010D0000360044600F5C5501030FFF7B9FF04F176
:1010E0002C00FFF7C9FF04F11400FFF7DBFF2046D7
:1010F00010BD00BF088C020808B50248FFF7E6FFE4
:1011000008BD00BF9412002010B50446FFF7DEFFB3
:10111000204641F6502124F0B5FA204610BD0000CB
:101120002DE9F34101F016FA054601F017FA002403
:101130000146234628462246009415F047FA274BDD
:10114000274A1A60204605F03FF8264D264B274ACD
:1011500027489A6015F0A2F92B68BFF35B8FDB0775
:1011600035D4284624F090FA88B3224C224B234FE2
:10117000236004F1140000F5C75604F12C086060E8
:10118000C4F80880E76026610BF07EF81C4B6361B1
:1011900040460BF079F81B4BE36238460BF074F8CD
:1011A00004F5805303F50F60174AC3F8B02805F023
:1011B000FBFD2246311F304605F054FC304602F05C
:1011C0001DF9124825F0B8F9284624F069FA1048AC
:1011D00002B0BDE8F041FFF7E5BB00BFB43F01201E
:1011E00040040020901200206004002044040020ED
:1011F0000800002094120020088C0208442B0020D4
:101200006C8B0208A08B0208D48B0208F91000082E
:10121000C4030020704700000148FFF7D1BB00BFA6
:10122000C403002070B5244E244C254D254B23606B
:101230003046FFF751FE28461AF0CEFA224812F047
:101240009DFE224B2248DC6000224FF48071C3E9EE
:10125000121220491A86C3E91A121F4999671F49B9
:1012600083F858200B60F02101801D485A660180E8
:101270001C4883F870204FF4A071C3E90422C3E92D
:101280000622C3E90822C3E90A22C3E90E22C3E900
:101290001022C3E91422C3E917225A67C3E9016582
:1012A00001801148018011490A70012283F834201D
:1012B0000F4A1A6070BD00BFEC0400208C120020A1
:1012C000600400202C79020844040020C40300209C
:1012D000443F01200100000100000101503F0120B6
:1012E0004A3F0120463F01204C3F0120483F01205A
:1012F000448A02080148FFF77BBC00BFEC040020D1
:101300000020704781807047C1807047018170471D
:10131000418170477047704770477047704710B4FD
:10132000C4880368121B84885B6D091B12B25DF8C8
:10133000044B09B218474FF6FF7383814FF0FF3318
:1013400003621368C36110607047002070478B8888
:10135000838001207047704780F82610704790F80E
:101360002600704710B50022B1F90840B1F90A1003
:10137000028042808480C18010BD002202804280B1
:101380008280C28070470177704780ED080A7047FD
:1013900080F82410704780F82510704701207047AE
:1013A000983070478C307047843070477047704772
:1013B00070470000034B902283F85A2383F8582388
:1013C000704700BF00E100E0094A0A49D3680A48B3
:1013D000C3F30A03013B9BB20B801169C1F30A01FD
:1013E000013901801364536B43F001035363704769
:1013F00000680140E62C0020E42C0020014BD3F8CB
:10140000AC00704700680140024B0122C3F8AC10E9
:101410005A6270470068014010B52C21044624F040
:1014200031F9204610BD10B5BC21044624F02AF93C
:10143000204610BD70B504460BF025FA23685D6E9A
:1014400011F048FC01462046A8472368054AD3F816
:1014500088502046AC460023BDE87040A2F5163106
:10146000604700BF00B004D00BF0F4B90BF0FEB938
:101470000BF0BAB90BF01BBB90F8252012B1036832
:101480005B691847704790F825201AB190F824201E
:1014900002B1186070470000034B4FF080629A6001
:1014A0004FF080729A60704700E100E0084B4FF007
:1014B0008062C3F88820BFF34F8FBFF36F8F4FF068
:1014C0008072C3F88820BFF34F8FBFF36F8F7047D0
:1014D00000E100E070B50023124E8380124B0360E0
:1014E000336893F8582005460AB1D86C00B998685B
:1014F0000368DB6A98473368B0FA80F4D86C6409F3
:1015000030B10368DB6A9847002808BF44F0010443
:101510002CB9064B064A07482C2124F0EFFF284639
:1015200070BD00BF503F01201C8C0208E97C0208FE
:10153000477D0208807D020870B5244E3568BFF3F0
:101540005B8F15F001053FD1304624F09DF800284F
:101550003AD01F4C1F4B256104F13400C4E900351B
:10156000C4E90255E584A562A58512F066FF04F181
:1015700058000EF0EDF8184BA3652046174B40F8C5
:10158000843BFFF7A7FF164BC4F884302433C4F81C
:101590008C306423C4E928350023C4F8AC30C4F887
:1015A000B030C4F8B430C4F8B8300E480E4BC4F8AC
:1015B0009050C4F89C50C4F8A850C4F8983024F057
:1015C000BBFF304624F06CF8014870BDE82C0020C9
:1015D000EC2C0020889702083C8C0208B48C02088E
:1015E0003C970208B11300081C97020810B5144C70
:1015F000236823B3134B144A1B6C11888B4213D1FD
:10160000124B198807F086F9226892F86A30013384
:1016100082F86A30FFF7C0FA20680BF073FEBDE86D
:1016200010400020FFF704B907F074F92068036840
:101630001B6A9847BDE810400020FFF723B910BD92
:10164000503F012000680140E62C0020E42C0020DF
:1016500010B50446FEF7CCFD214682B2BDE810402D
:1016600002484FF0FF3308F032BC00BFC02D00200D
:101670002DE9F04F102299B0DFF87CB15B4DDFF817
:101680007C8100210DEB020000244FF0010A4FF491
:10169000006725F05CF9D146CBF8004001970126A0
:1016A000002C4DD1062304A928460693CDE9044613
:1016B00006F046F8284605F053FF4FF0FF31284664
:1016C00005F0E7FF284606F037F80190284605F0B8
:1016D000C5FF019BB3F57A7F2AD28DF80F40D8F869
:1016E0000000234622460DF10F0108F047FE404856
:1016F000042106F001FB064668B9B9F1010F0AD1D1
:1017000004238DF80F30024603460DF10F01D8F87F
:10171000000008F033FEDBF800301433B3F5FA7F35
:1017200054D2CBF800300A2008F042FDB146B6E7AB
:10173000019A40F6B8339A42D9D98DF80F60CEE7B6
:10174000052304A9CDE9043628460623069305F0AF
:10175000F7FF284605F004FF4FF0FF31284605F05B
:1017600098FF284605F0E8FF0746284605F076FF73
:10177000B7F57A7F17D202238DF80F300023D8F8FF
:1017800000001A460DF10F0108F0F8FD1848082175
:1017900006F0B2FA0346B8B9BAF1010F09D04FF01A
:1017A000000A4E46B7E740F6B8339F42EED903230E
:1017B000E2E705228DF80F200DF10F010246D8F85F
:1017C000000008F0DBFDEAE78246EAE70023CBF8F9
:1017D0000030019A07493B4608A825F053F808A8AD
:1017E00084F00104FFF734FF9DE700BF002E0020C6
:1017F00000180240E27D0208A82D0020B02D002034
:1018000007B5064BADF806001B68054801220DF12F
:10181000060107F02FFE03B05DF804FB0C0000206A
:101820007C2E002008B5642008F0C2FCFBE7000015
:1018300030B595B0102200210AA825F088F81422AE
:10184000002103A825F083F800241E4B01941A6C94
:1018500042F080521A641B6C03F080530193019B89
:10186000194B02941A6842F440421A601B6803F450
:10187000404302930122029B4FF48033CDE90823B9
:1018800002254FF480030821CDE90E534FF4B473C1
:10189000CDE9101308A804231393129507F092F8CA
:1018A00007F056F80F23CDE903354FF4A0504FF45D
:1018B0008053CDE90603052103A8059407F05EFADD
:1018C00015B030BD003802400070004082B00023E7
:1018D0000F4A0193516C0F4841F480715164526C6E
:1018E000836002F480720192019A0B4A0361C0E99D
:1018F00000230A4A82620122037680F82030C36204
:10190000C360C26180F83030426102B005F082BD30
:1019100000380240002E0020002001400100000F8E
:1019200082B000230D4A0193516C0D4841F0100123
:101930005164526C0B49036102F010020192019A4A
:10194000C3614FF4E132C0E900120C22C0E9023356
:10195000C0E9052302B008F08CBA00BF003802408D
:10196000C02D0020001001402DE980489BB005F0FB
:101970000FFDFFF7ABFFFFF75BFF142200210DA85F
:10198000002424F0E4FFC64B00941A6BC548C64DF2
:1019900042F010021A631A6B02F010020092009AD1
:1019A00001941A6B42F020021A631A6B02F02002B3
:1019B0000192019A02941A6B42F080021A631A6B28
:1019C00002F080020292029A03941A6B42F004021F
:1019D0001A631A6B02F004020392039A04941A6BBE
:1019E00042F001021A631A6B02F001020492049A97
:1019F00005941A6B42F002021A631A6B02F002029B
:101A00000592059A06941A6B42F040021A631A6B0B
:101A100002F040020692069A07941A6B42F00802FE
:101A20001A631B6B03F00803079322463C21079BB4
:101A300006F068F99D482246042106F063F9224623
:101A40009B484FF4405106F05DF901264FF0030822
:101A50003C239448CDF840800DA902274FF0040A9A
:101A6000CDE90D360F9406F063F890480F940DA958
:101A7000CDE90DA6109706F05BF84FF440538C4863
:101A80000DA9CDE90D36CDE90F4706F051F8212318
:101A900088480F940DA9CDE90D3806F049F80C23BC
:101AA00085480F960DA94FF0070BCDE90D3406F0D0
:101AB0003FF80DA94FF4C0637E48CDF844B0CDE99E
:101AC0000D37CDE90F4806F033F87C487C4B0360B6
:101AD00005F024FF7B4A7C4B2C62C5E90023284695
:101AE0004FF48043C5E90434C5E90244C5E906441E
:101AF00006F016FB1021284606F05AFD214628461E
:101B000006F075FD7148724984624FF48273C0E932
:101B100000134FF4007518234FF00A09C0E906536B
:101B2000C0E902446B4DC0F82C90C0E90444C0E900
:101B3000084407F043FC684B13974FF0100CC5E9BD
:101B400000364023C5E904C34FF4C073C5E9063429
:101B50004FF40063C5E908340DA94FF4005328463B
:101B6000AB62C5E9024ACDE90FABCDE90D7BCDE90A
:101B700011874FF0080B07F005FB4FF6FF7209A91C
:101B80002846CDE90AB6089409960C9407F01AFB8A
:101B9000304605F029FC4FF6FF7209A92846CDE929
:101BA000097BCDE90B6407F00DFB4FF6FF7209A925
:101BB0002846CDE9098BCDE90BA407F003FB4FF4D0
:101BC0000C730893089B0C934FF6FF7209A92846E3
:101BD000CDE909AB0B9607F0F5FA40F26A512846B9
:101BE00007F00EFB342221460DEB020024F0AFFE7D
:101BF0003A4D3B4B2C61C5E900340923C5E9053654
:101C00001D2340F20D1EC5E9073840F24313C5E914
:101C100009E3284640F2471340F21718C5E90B8341
:101C2000C5E90244AC8685F8364006F07BFDFF210D
:101C3000F022CDE912144FF4806A05214FF4A0730D
:101C4000CDE90E24CDE914A1CDE916420DA9224615
:101C50002846CDE91037234D18930D94ADF8644014
:101C60008DF8664006F029FE1F4B2B601B689847D5
:101C70002B681E4DDB6898471D4B2846C5E900348C
:101C8000C5E90274C5E90A47C5E90C4405F056FEEA
:101C90003146284605F008FFFEF712FD2AE000BF96
:101CA00000380240001002407C2F00200008024053
:101CB000000C0240000002400018024010300020DA
:101CC00000300240005C0040A08601007C2E002015
:101CD00000500140482E0020400100A0D42E0020DA
:101CE00000680140AC2D002014000020D02F0020FF
:101CF00000B00240FEF7E3FCFFF712FE08F0E8F93F
:101D00000F4A3146484608F0FEFA0E4B0E4A18605C
:101D100021460E4808F008FA0D4B0E4A186021467D
:101D20000D4808F001FA0D4B0D4A186021460D4888
:101D300008F0FAF90C4B186008F0DCF9FEE700BF78
:101D4000F88C0208B02D0020588D020825180008D4
:101D5000BC2D0020348D0208CF060008B82D0020CD
:101D6000108D020871160008B42D002070477047CE
:101D70007FB5094B8DF817201B6802930DF11702F0
:101D80000123009201930A460146044806F070FAC6
:101D900007B05DF804FB00BF100000207C2F00207E
:101DA0007FB500238DF81730084B1B6802930A4655
:101DB00001230DF11701009101930146044806F03B
:101DC000E7FA9DF8170007B05DF804FB100000204B
:101DD0007C2F00201FB5084C24680092CDE9013407
:101DE0000A4601230146054806F0D2FA003818BF1A
:101DF000012004B010BD00BF100000207C2F002087
:101E000005F0F2BA10B5064C00222046042105F078
:101E100079FF20460122BDE81040042105F072BF81
:101E20000008024038B50B4D044601220A484FF421
:101E3000005105F067FF00220421284605F062FFEB
:101E40002046FFF7DDFC28460122BDE8384004218A
:101E500005F058BF00080240000C024038B50B4D99
:101E6000044600220A484FF4005105F04BFF0022BF
:101E70000421284605F046FF2046FFF7C1FC28460E
:101E80000122BDE83840042105F03CBF00080240B3
:101E9000000C0240F7B5144E144F05460C46304670
:101EA0000022042105F02EFF00224FF40051384695
:101EB00005F028FF2846FFF7A3FC0D4B0D481B68D3
:101EC000224601A907F082FC384601224FF4005156
:101ED000019C05F017FF30460122042105F012FF96
:101EE000204603B0F0BD00BF00080240000C0240D5
:101EF0000C0000207C2E002005F076BA0268034B0F
:101F00009A4201D105F05EBA704700BF0010004050
:101F10007047000082B00E4B00220092596C41F4D1
:101F200080415964596C01F48041009100990192FB
:101F3000196C41F0805119641B6C03F080530193BC
:101F4000019B0F216FF0010002B005F0A7BC00BF9C
:101F5000003802400268094B9A4282B00BD100233C
:101F60000193074B1A6B42F480521A631B6B03F404
:101F700080530193019B02B0704700BF00300240C4
:101F80000038024007B50F4B02689A4216D1002272
:101F9000A3F5F0430192196B41F4000119631B6B27
:101FA00003F40003019305215A20019B05F076FC00
:101FB0005A2003B05DF804EB05F0A2BC03B05DF855
:101FC00004FB00BF00B002402DE9F043044689B095
:101FD0001422002103A824F0BAFC2268244B9A4260
:101FE00043D1244C244800250095236B43F004037F
:101FF0002363236B03F004030093009B0195236B81
:1020000043F001032363236B03F001030193019B5E
:102010004FF012094FF400734FF001080327042614
:1020200003A9CDE90339CDE90587079605F080FDC1
:102030004FF480731148079603A9CDE90339CDE920
:10204000058705F075FD0295236C43F400032364B6
:10205000236C03F400030293029B236A43F40003FE
:102060002362236A23F40003236209B0BDE8F083EE
:10207000005C0040003802400008024000000240BE
:10208000F0B599B004461422002107A824F05FFCA3
:1020900030220DEB0200002124F059FC22685E4B37
:1020A0009A4240F0B78008230C93C0231093042376
:1020B00012930CA84FF40033159306F037FF08B1C4
:1020C000FFF726FF554B5648002400945A6C42F007
:1020D00080625A645A6C02F080620092009A019405
:1020E0001A6B42F020021A631A6B02F0200201926E
:1020F000019A02941A6B42F001021A631A6B02F001
:1021000001020292029A03941A6B42F002021A63CD
:102110001A6B02F002020392039A04941A6B42F0C3
:1021200040021A631A6B02F040020492049A05946A
:102130001A6B42F004021A631A6B02F00402059251
:10214000059A06941A6B42F008021A631B6B03F09F
:102150000803069302250E26069B0B964FF4806318
:1021600007A9CDE90735CDE9094505F0E1FC41F6C0
:1021700058032C480B9607A9CDE907350927CDE967
:10218000094505F0D5FC032327480B9707A9CDE99E
:102190000735CDE9094505F0CBFC4FF470632248C3
:1021A0000B9607A9CDE90735CDE9094505F0C0FC37
:1021B0004FF40C631D480B9607A9CDE90735CDE90F
:1021C000094505F0B5FCC02319480B9607A9CDE9D0
:1021D0000735CDE9094505F0ABFC082315480B96FA
:1021E00007A9CDE90735CDE9094505F0A1FC4FF474
:1021F000A0530E480B9707A9CDE90735CDE909454E
:1022000005F096FC58202246052105F047FB582092
:1022100005F076FB19B0F0BD0068014000380240BF
:102220000014024000000240000402400018024076
:1022300000080240000C024010B5044688B0142289
:10224000002103A824F083FB2268144B9A4223D177
:1022500003F56843002101915A6C114842F4801241
:102260005A645A6C02F480120192019A02911A6B1C
:1022700042F020021A631B6B03F020030293029BBF
:102280004FF4607202230321CDE903230523CDE936
:10229000061303A905F04CFC08B010BD0050014026
:1022A000001402402DE9F04186B0002303932B4B2C
:1022B0001C68002C4FD14FF00108C3F80080284B58
:1022C00000949A6B274842EA08029A639B6B03EAE0
:1022D00008030093022703260C25009B01A94FF653
:1022E0003F03CDE90137CDE9046505F021FC1E4827
:1022F000059501A9CDE90187CDE9034605F018FC54
:1023000048F233131948059501A9CDE90137CDE904
:10231000034605F00DFC4FF683731548059501A99A
:10232000CDE90137CDE9034605F002FC4CF2037319
:102330001048059501A9CDE90137CDE9034605F01F
:10234000F7FB60230C48059501A9CDE90137CDE9DC
:10235000034605F0EDFB06B0BDE8F0811830002023
:1023600000380240001402400008024000180240F9
:1023700000100240000C02400004024070B588B01A
:1023800000230293204B1A6C42F010021A641B6C5B
:1023900003F010030293054601A903A8029B06F06F
:1023A000A7FD069B4BBB06F083FD184E184B336010
:1023B00040F2E733F360174BB0FBF3F3013B73607C
:1023C000304600233361B360B36107F0CFFB0446AE
:1023D00080B9304607F0A0FA044658B9362005F017
:1023E0008FFA0F2D0DD822462946362005F056FAD1
:1023F000094B1D60204608B070BD06F059FD400035
:10240000D3E70124F6E700BF003802401C3000206B
:102410000010004040420F007C0000207047FEE7A3
:10242000FEE7FEE7FEE77047014807F0B3BA00BFDA
:102430001C300020014806F0E3B900BFD42E002074
:10244000014805F0A7BA00BFD02F00200120704737
:1024500008B524F01FFB162303604FF0FF3008BDC2
:1024600008B524F017FB16230360FEE770B50D4690
:1024700014460E46731B9C4201DC204670BDAFF330
:10248000008006F8010BF5E770B50D4614460E46C0
:10249000731B9C4201DC204670BD16F8010BAFF3A4
:1024A0000080F5E74FF0FF3070474FF400534B606A
:1024B0000020704701207047002070470A4A1168C9
:1024C00008B5034609B90949116010686946034413
:1024D0008B4206D924F0DEFA0C2303604FF0FF3064
:1024E00008BD1360FCE700BF64300020904C012061
:1024F000704708B50C2924D8DFE801F0070B0F134B
:10250000171F1F1F1F1B1F1F1F0003F0A9FE0068BE
:1025100008BD03F0A5FE4068FAE703F0A1FE80685D
:10252000F6E703F09DFEC068F2E703F099FE00694C
:10253000EEE703F095FE8069EAE703F091FE40695B
:10254000E6E70020E4E710B50421044623F09AF8FA
:10255000204610BD00487047908D02080520704746
:1025600013B5002451B1036801948DF8034001AA0A
:102570009C680DF10303A04702B010BD0846FBE7BD
:10258000C0897047008A7047C0887047808870474C
:10259000807A00F07F007047807AC0097047002081
:1025A000704700009FED010A704700BF0000000067
:1025B00070477047704770477047704730B5036881
:1025C00085B06D460181D3F8843001460446284623
:1025D000984795E807003C3484E8070005B030BD13
:1025E00030B5036885B06D464181D3F8843001462B
:1025F00004462846984795E807003C3484E80700DD
:1026000005B030BD0022028042808280C2807047C7
:1026100080F83610704770B5036804461B6B15468A
:1026200098472368294620465B6EBDE870401847EE
:1026300000207047806C704770477047704710B536
:102640000821044623F01EF8204610BD10B54C2189
:10265000044623F017F8204610BD10B52C2104467F
:1026600023F010F8204610BD0B898A89D21A4B89B5
:10267000C988591A12B209B211F04CBC10B5034BFB
:10268000036004460EF02CFE204610BD048F0208A5
:1026900010B5064B036004460EF022FE204641F2C0
:1026A000B85122F0EFFF204610BD00BF048F020892
:1026B00008B590F826300BB1FEF7DEFE08BD08B570
:1026C000FEF7DAFE08BD0000036870B55E6B124BC2
:1026D0001B6804468DB22BB9104B114A6C2111486E
:1026E00023F00CFF1049828D0988914203D80F4BCB
:1026F0000B4A6D21F3E713F812200D4B1B6853F8BA
:10270000220003681B6B9847291A3346204609B2FA
:10271000BDE87040184700BFA83F0120297E02088D
:102720006B7E0208A67E0208AC3F0120ED7E020807
:10273000B03F012010B500F58054D4F8B435013312
:10274000B42BC4F8B43506D110F0C4FA00F0A6FEDC
:102750000023C4F8B43510BD00224FF0FF31C0E9AA
:1027600000218260704770B5036804461B6B1546F4
:1027700098472368294620465B6BBDE870401847A0
:1027800070B504461D46BDF91060FFF7ECFF2368E5
:10279000294620469B6B9847236831462046DB6BD1
:1027A000BDE8704018470000094A02604FF480718C
:1027B00000228184FF21C0E90122C0E90322C0E98F
:1027C0000522C0E9072280F826108262704700BF08
:1027D0000C9A02084FF4807181840D4901600D4903
:1027E00081624FF6FF7181854FF47F0100224163C2
:1027F0004FF0FF31C0E90122C0E90322C0E9052200
:10280000C0E90722C0E9101202630287C263704761
:102810007C990208FC8D02082DE9F04F044691B026
:1028200027464FF0000B12F04BF9D44BC4F83CB0E4
:1028300047F8403B04F16C063846FFF7B5FF04F15A
:1028400098083046FFF7B0FF4046FFF7ADFF04F1B0
:10285000C40318460593FFF7A7FF04F1F0031846D9
:1028600006930CF067FA04F59C7318460993FEF77B
:1028700031FEC34BC4F838312433C4F8403104F579
:10288000A6731846C4F844B1BE4D08934FF0010931
:10289000FFF78AFF04F5BC7304F5D27A1846C4F832
:1028A0004C5184F870910793FFF77EFFC4F878517C
:1028B00084F89C915046FFF78DFF04F5F673184697
:1028C0000293FFF787FF04F50D731846AE4D03938F
:1028D000FFF780FF04F52073C4F834521846C4F89B
:1028E0007CB20493FFF776FF04F58053C4F880525E
:1028F000C4F8C8B2F025C3F8B4B54FF4965104F546
:102900003D700EF0E3FC5A46384600954FF4A07334
:10291000594604F10409FFF733FF4FF07F4339466E
:10292000A366484609F0C4FC4FF0FF374FF4A0738C
:102930005A46304600955946FFF722FF3146C4F803
:102940009470484609F0B4FC0222EC23114640463C
:1029500000934FF49F73FFF713FF8C4BC4F8C03004
:102960004146484609F0A4FC5A46059800950323C1
:10297000A021FFF705FFDC230599C4F8EC7084F86B
:10298000EA30484609F094FC0E2372220698009320
:102990009B21FFF7F5FEC023C4F824314FF43453D4
:1029A000C4F82C317A4BC4F8443149F66103A4F8D9
:1029B0004831099B0699C4F81831C4E9475548467F
:1029C0002825C4F830B1C4F828B109F071FC0523FA
:1029D0006422089800950821FFF7D2FE0899C4F8F0
:1029E0007471484609F064FC052364220798009539
:1029F0004FF49A71FFF7C4FE4FF034080799C4F8FA
:102A0000A07148466D4409F053FC13235F225046E1
:102A1000CDF800807421FFF7B3FE5146C4F8D4719D
:102A20002846A4F8D8B10CF091FF95E8070004F50A
:102A3000F07686E807004FF00302514684F8DD2166
:102A400028460CF083FF95E807004FF0010386E865
:102A50000700514684F8DC3128460CF077FF95E8F2
:102A60000700142386E8070050464A4EADF83C3074
:102A70000EA90E960DF012FA6FF0410184F8DA11EA
:102A80004846514609F014FC13235F220298CDF802
:102A90000080BB21FFF774FE0299C4F81C7228461F
:102AA000A4F820B20CF052FF95E8070004F50A786C
:102AB00088E807004FF00302029984F8252228468F
:102AC00017460CF043FF95E8070088E807000299D5
:102AD00084F8247228460CF039FF95E8070088E84E
:102AE00007000EAA112311460298ADF83C300E964D
:102AF0000DF0D4F96FF0410184F822124846029992
:102B0000DFF8ACA009F0D4FB702203983521FFF761
:102B10002AFE214BC4F86432D4F834320399D3F836
:102B20008430A4F868B22846984795E8070004F571
:102B30001C774FF0010387E8070084F86C32D4F863
:102B400034320399D3F884302846984795E8070033
:102B5000DAF8003087E8070004F533772BB90F4B1C
:102B60000F4A60210F4823F0C9FC0F4B1B88082B2C
:102B700020D80E4B0A4A6121F4E700BF048F0208F7
:102B80003C9702089C8E02080C8E020837380CFF16
:102B90000C0C99FFFC8D02085FABDEFF297E02085A
:102BA0002B7F0208A67E0208AC3F0120ED7E0208C2
:102BB000A83F0120DFF8F0800821D8F8000003F0DA
:102BC0003FFB364A03460A21384613F059FC039866
:102BD000C4F87C720DF042F9D22713230398ADF8A4
:102BE0003C300EA90E960DF059F9039984F86A72DB
:102BF000484609F05DFB6F220498F321FFF7B3FD0F
:102C0000274BC4F8B032D4F880320499D3F884301A
:102C1000A4F8B4B22846984795E8070004F52F7B3E
:102C20004FF003038BE8070084F8B832D4F8803201
:102C30000499D3F884302846984795E80700DAF8D5
:102C400000308BE8070004F53875002B87D0154B52
:102C50001B88082B8DD9D8F80000082103F0F0FA62
:102C60000E4A03460A21284613F00AFC0498C4F8C9
:102C7000C8520DF0F3F812230498ADF83C300EA9B9
:102C80000E960DF00BF94846049984F8B67209F0D7
:102C90000FFB204611B0BDE8F08F00BF767F020821
:102CA0005FABDEFFAC3F0120B43F01207047000066
:102CB00010B5034B036004460EF012FB204610BD16
:102CC000388F020810B5064B036004460EF008FB6F
:102CD000204641F2B45122F0D5FC204610BD00BF81
:102CE000388F02082DE9F04F044691B0A346002624
:102CF00011F0E6FE914BE6634BF8403B04F16C0AA1
:102D00005846FFF751FD04F198095046FFF74CFD76
:102D10004846FFF749FD04F1C40318460593FFF741
:102D200043FD04F1F003184606930CF003F804F594
:102D30009C7318460993FEF7CDFB814BC4F83831DC
:102D40002433C4F8403104F5A6731846C4F844612E
:102D50007C4D08934FF00107FFF726FD04F5BC7387
:102D600004F5D2781846C4F84C5184F87071079372
:102D7000FFF71AFDC4F8785184F89C714046FFF7BC
:102D800029FD714DC4F8A45104F5F8731846C4F830
:102D9000EC610293FFF71EFD04F50F73C4F8F051C8
:102DA0001846C4F838620393FFF714FD04F5217345
:102DB0001846F0250493FFF70DFD4FF4965104F5E6
:102DC0003D700EF083FA3246584600954FF4A073DA
:102DD0003146271DFFF7D4FC4FF07F435946A366C9
:102DE000384609F065FA4FF0FF3B4FF4A0733246C6
:102DF000504600953146FFF7C3FC51463846C4F8AB
:102E000094B009F055FA0222EC231146484600938B
:102E10004FF49E73FFF7B4FC4C4BC4F8C0304946E6
:102E2000384609F045FA3246059800950323A0215B
:102E3000FFF7A6FCDC23059984F8EA303846C4F88D
:102E4000ECB009F035FA0E237222069800939A210D
:102E5000FFF796FCC023C4F824314FF43453C4F870
:102E60002C313B4BC4F8443149F66103A4F8483196
:102E7000099B0699C4F81831C4E9475538462825F6
:102E8000C4F83061C4F8286109F012FA05236422FD
:102E9000089800950821FFF773FC0899C4F874B1ED
:102EA000384609F005FA052364220798009540F298
:102EB0003311FFF765FC0799C4F8A0B1384609F053
:102EC000F7F91622B8214046FFF74DFC214BC4F814
:102ED000D431D4F8A431A4F8D8616D44D3F8843047
:102EE000DFF888A041462846984795E8070004F592
:102EF000F0794FF0030389E8070084F8DC31D4F857
:102F0000A4314146D3F884302846984795E8070015
:102F1000DAF8003089E8070004F533792BB90E4B55
:102F20000E4A60210E4823F0E9FA0E4B1B88052B50
:102F30001ED80D4B094A6121F4E700BF388F020803
:102F40003C9702089C8E02080C8E020837380CFF52
:102F50000C0C99FF565659FF297E02082B7F020858
:102F6000A67E0208AC3F0120ED7E0208A83F0120AA
:102F70006A4B0521186803F063F9694A03460A2180
:102F8000484613F07DFA4046C4F8EC910CF066FF19
:102F9000DFF89891CDF83890202340460EA9ADF87F
:102FA0003C300CF07BFF4146384609F081F902982D
:102FB000C3227521FFF7D7FBD4F8F031594AD3F873
:102FC00084300299C4F820222846A4F82462984745
:102FD00095E8070004F50B78D4F8F03188E807008D
:102FE0004FF00102D3F88430029984F82822284651
:102FF000984795E80700DAF8003088E8070004F5FC
:103000003878002B8BD0484A1388042B91D9434B36
:103010000421186803F014F9414A03460A21404686
:1030200013F02EFA0298C4F838820CF017FF1F2311
:103030000298ADF83C300EA94FF0340ACDF8389024
:103040000CF02CFF0299384609F032F9132303984B
:10305000CDF800A0B4228C21FFF792FB0399A4F8CD
:1030600070622846C4F86CB20CF070FC95E807005A
:1030700004F51E7888E807004FF00102039984F8F0
:10308000742228460CF062FC95E807001E2388E8AD
:1030900007000398ADF83C300EA94FF0BE08CDF8FC
:1030A00038900CF0FBFE039984F87282384609F0E0
:1030B000FFF80498CDF800A013230722A521FFF7FD
:1030C0005FFB0499A4F8B8622846C4F8B4B20CF0C7
:1030D0003DFC95E8070004F530764FF0030386E8E1
:1030E0000700049984F8BC3228460CF02FFC95E8C0
:1030F00007001D2386E807000498ADF83C300EA9B0
:10310000CDF838900CF0CAFE3846049984F8BA829B
:1031100009F0CEF8204611B0BDE8F08FB43F012091
:10312000767F0208565659FFAC3F0120FC8D0208FD
:10313000F8B5194B018F1B888B4206462AD9174BCD
:103140001B682BB9164B174A17486C2123F0D6F988
:1031500013F81120154B1B6853F82250144B1868B4
:1031600003F06EF82B6807469B6B284698472B6840
:1031700004469B6C3946284698472B6814FB00F49C
:103180005B6A394628469847A4B223181BB2A6F8B2
:103190004630F8BD0023FAE7AC3F0120A83F0120EC
:1031A000297E02086B7E0208A67E0208B03F01203D
:1031B000B43F01207047704700F59873086849686C
:1031C00003C37047704770474160704710B50022D5
:1031D000B1F90840B1F90A10028042808480C180B0
:1031E00010BD704770477047064BC0F84C31002344
:1031F000C0F8503100F5A273C0F84801C0F8403162
:10320000704700BFC9380008012303727047704738
:103210007047704701464068036810315B6E18477D
:1032200001464068036810311B6E1847704710B4A0
:10323000C26841685410034601EB6200D20748BFE0
:103240000A599B685DF8044B48BFD358184703469A
:10325000406830B19A681AB9D86800F00100704728
:103260000120704710B50C21044622F00BFA2046CD
:1032700010BD10B51021044622F004FA204610BDFE
:1032800010B54FF4AE71044622F0FCF9204610BD93
:1032900010B53821044622F0F5F9204610BD10B5CE
:1032A0002821044622F0EEF9204610BD10B50FF09B
:1032B00011FD0368BDE81040DB6B184737B50446C5
:1032C000807A637A0130C0B29842A07205D9012396
:1032D00023720023A37203B030BDB4F90C20002187
:1032E00011F0A0FDC30707D500284FF6FF73C8BF34
:1032F000012313FA80F000B2144BE0811988258B6A
:1033000083B21348B0F90000ADF80600CA1A60682D
:103310002B445B1A12B2ADF8043003682283ADF877
:10332000002000221B69ADF8022069469847A37A65
:10333000012BD0D1074B1B78002BCCD00FF0CAFC4F
:1033400003B0BDE830400FF0CBBC00BF443F0120CC
:10335000463F01204E3F012010B50446D0F8400101
:1033600058B10368DB68984738B1D4F84001036866
:103370009B6898470023C4F8403110BD044B1B687C
:1033800093F858200AB1D86C00B99868704700BF0C
:10339000503F0120F8B5174604460E460FF084FD55
:1033A000124B1C60124B2360124B0025C4E95135AF
:1033B000114BC4E953551868036829469B68C4E952
:1033C0004F55C4E955769847284602F0FDFEFFF7B1
:1033D000D5FF1AF054F8FFF7D1FF1AF0CBF8FFF73A
:1033E000CDFF1AF0D3F82046F8BD00BFA43F01205E
:1033F000EC8F0208D48F0208503F0120064BC0F822
:103400004C310023C0F8503100F5A273C0F84801D8
:10341000C0F84031704700BFC9380008064BC0F8FB
:103420004C310023C0F8503100F5A273C0F84801B8
:10343000C0F84031704700BF7D370008064BC0F828
:103440004C310023C0F8503100F5A273C0F8480198
:10345000C0F84031704700BFF93C0008064BC0F887
:103460004C310023C0F8503100F5A273C0F8480178
:10347000C0F84031704700BF31360008064BC0F835
:103480004C310023C0F8503100F5A273C0F8480158
:10349000C0F84031704700BFBD3B0008064BC0F884
:1034A0004C310023C0F8503100F5A273C0F8480138
:1034B000C0F84031704700BFE5340008064BC0F843
:1034C0004C310023C0F8503100F5A273C0F8480118
:1034D000C0F84031704700BF813A000803685B6A5A
:1034E000184700002DE9F14FD0E9556A0746B0684A
:1034F00003681B6A984741F2DB53984205D8444B56
:10350000444AA321444822F0F9FF706803681B6A0B
:1035100098470F2803D8414B3E4AA421F2E7F068B0
:1035200003681B6A98470B2803D83D4B394AA521ED
:10353000E8E70FF0CFFBDFF8F09004300FF017FC56
:10354000D9F8000010B10368DB689847D9F800008B
:1035500010B103681B689847DFF8D080D8F80000E6
:1035600010B103685B699847D7F83C0110B1036854
:103570005B689847D8F8000010B103681B6898474B
:10358000D7F83C0110B103689B689847F0680021A8
:10359000FFF7A4FF4FF0000B224BC0F804B0044625
:1035A00080F808B00360B068036859465B6A9847C2
:1035B000054602F041FF7068036859465B6A984708
:1035C0002946064602F016FF331DC7F83C61C9F8CC
:1035D0000040C8F80050CAF800302B68C6F808A0B0
:1035E0002846DB68EE639847336830461B68984787
:1035F0002146284611F010FC236820461B69984795
:1036000023685B69204601B0BDE8F04F184700BF52
:10361000797F020807800208DF80020826810208FD
:10362000C981020840900208983F0120943F012080
:103630002DE9F14FD0E9556A0746B06803681B6A67
:10364000984741F21B63984205D8444B444AA32152
:10365000444822F053FF706803681B6A98470F289C
:1036600003D8414B3E4AA421F2E7F06803681B6A85
:1036700098470B2803D83D4B394AA521E8E70FF0BE
:1036800029FBDFF8F09004300FF071FBD9F800004F
:1036900010B10368DB689847D9F8000010B10368DF
:1036A0001B689847DFF8D080D8F8000010B1036895
:1036B0005B699847D7F83C0110B103685B6898478D
:1036C000D8F8000010B103681B689847D7F83C0190
:1036D00010B103689B689847F0680021FFF7FEFE71
:1036E0004FF0000B224BC0F804B0044680F808B03D
:1036F0000360B068036859465B6A9847054603F063
:1037000047FB7068036859465B6A98472946064636
:1037100003F01CFB331DC7F83C61C9F80040C8F832
:103720000050CAF800302B68C6F808A02846DB68AD
:10373000EE639847336830461B6898472146284611
:1037400011F06AFB236820461B69984723685B6970
:10375000204601B0BDE8F04F184700BF797F02084E
:103760006C820208DF80020826810208C9810208F3
:1037700040900208983F0120943F01202DE9F14F2D
:10378000D0E9556A0746B06803681B6A984741F25A
:10379000F763984205D8444B444AA321444822F099
:1037A000ADFE706803681B6A98470F2803D8414B29
:1037B0003E4AA421F2E7F06803681B6A98470B2889
:1037C00003D83D4B394AA521E8E70FF083FADFF82B
:1037D000F09004300FF0CBFAD9F8000010B1036874
:1037E000DB689847D9F8000010B103681B68984758
:1037F000DFF8D080D8F8000010B103685B69984703
:10380000D7F83C0110B103685B689847D8F800000E
:1038100010B103681B689847D7F83C0110B10368E2
:103820009B689847F0680021FFF758FE4FF0000BA7
:10383000224BC0F804B0044680F808B00360B068BA
:10384000036859465B6A9847054603F0D5F97068E6
:10385000036859465B6A98472946064603F0AAF969
:10386000331DC7F83C61C9F80040C8F80050CAF8D9
:1038700000302B68C6F808A02846DB68EE6398473E
:10388000336830461B6898472146284611F0C4FA31
:10389000236820461B69984723685B69204601B06E
:1038A000BDE8F04F184700BF797F0208488302083F
:1038B000DF80020826810208C981020840900208C0
:1038C000983F0120943F01202DE9F14FD0E9556A3E
:1038D0000746B06803681B6A984741F67B03984225
:1038E00005D8444B444AA321444822F007FE70689F
:1038F00003681B6A98470F2803D8414B3E4AA4210E
:10390000F2E7F06803681B6A98470B2803D83D4B21
:10391000394AA521E8E70FF0DDF9DFF8F09004302F
:103920000FF025FAD9F8000010B10368DB6898475A
:10393000D9F8000010B103681B689847DFF8D08001
:10394000D8F8000010B103685B699847D7F83C01CC
:1039500010B103685B689847D8F8000010B103689D
:103960001B689847D7F83C0110B103689B689847DB
:10397000F0680021FFF7B2FD4FF0000B224BC0F8BA
:1039800004B0044680F808B00360B0680368594684
:103990005B6A9847054603F041FA70680368594628
:1039A0005B6A98472946064603F016FA331DC7F8A6
:1039B0003C61C9F80040C8F80050CAF800302B68D4
:1039C000C6F808A02846DB68EE639847336830469F
:1039D0001B6898472146284611F01EFA23682046A6
:1039E0001B69984723685B69204601B0BDE8F04F2A
:1039F000184700BF797F020820840208DF80020890
:103A000026810208C981020840900208983F0120DF
:103A1000943F012003685B6A18470000002370B5DB
:103A2000C0E90533C0E90733C0E90933C0E90B3306
:103A3000436003728372C3814FF4807343630C4B02
:103A400003610C4B4172B3F900100B4B0B4AB3F9F5
:103A50000060026000F11005044681812846FDF7F0
:103A600055FC28463146FDF753FC204670BD00BF8B
:103A70006C8F0208443F0120463F012064900208F9
:103A80002DE9F047D0E9556A0746B06803681B6A1C
:103A9000984741F2BB53984205D8414B414AA32174
:103AA000414822F02BFD706803681B6A98470F2875
:103AB00003D83E4B3B4AA421F2E7F06803681B6A37
:103AC0009847372803D83A4B364AA521E8E70FF044
:103AD00001F9DFF8E09004300FF049F9D9F800005F
:103AE00010B10368DB689847D9F8000010B103688B
:103AF0001B689847DFF8C080D8F8000010B1036851
:103B00005B699847D7F83C0110B103685B68984738
:103B1000D8F8000010B103681B689847D7F83C013B
:103B200010B103689B689847F0680021FFF772FFA7
:103B300014210446FFF772FFB068036800215B6A36
:103B40009847054602F0FCFB7068036800215B6A39
:103B500098472946064602F0BDFB331DC7F83C6175
:103B6000C9F80040C8F80050CAF800302B68C6F801
:103B700008A02846DB68EE639847336830461B6828
:103B800098472146284611F047F9236820461B69CB
:103B90009847236820465B69BDE8F047184700BF97
:103BA000797F0208FA840208DF8002082681020871
:103BB000C9810208983F0120943F01202DE9F04778
:103BC000D0E9556A0746B06803681B6A984741F216
:103BD0002363984205D8414B414AA321414822F032
:103BE0008DFC706803681B6A98470F2803D83E4B0A
:103BF0003B4AA421F2E7F06803681B6A984737281C
:103C000003D83A4B364AA521E8E70FF063F8DFF80E
:103C1000E09004300FF0ABF8D9F8000010B1036861
:103C2000DB689847D9F8000010B103681B68984713
:103C3000DFF8C080D8F8000010B103685B699847CE
:103C4000D7F83C0110B103685B689847D8F80000CA
:103C500010B103681B689847D7F83C0110B103689E
:103C60009B689847F0680021FFF7D4FE14210446B2
:103C7000FFF7D4FEB068036800215B6A98470546E9
:103C800003F00AF87068036800215B6A98472946C8
:103C9000064602F0CBFF331DC7F83C61C9F800406F
:103CA000C8F80050CAF800302B68C6F808A02846AB
:103CB000DB68EE639847336830461B6898472146B7
:103CC000284611F0A9F8236820461B699847236805
:103CD00020465B69BDE8F047184700BF797F0208BE
:103CE000EE850208DF80020826810208C9810208E9
:103CF000983F0120943F01202DE9F047D0E9556A13
:103D00000746B06803681B6A9847B0F5B85F05D2EC
:103D1000404B414AA321414822F0F0FB7068036800
:103D20001B6A98470F2803D83D4B3B4AA421F2E772
:103D3000F06803681B6A9847372803D8394B364A1E
:103D4000A521E8E70EF0C6FFDFF8DC9004300FF0A5
:103D50000EF8D9F8000010B10368DB689847D9F86D
:103D6000000010B103681B689847DFF8C080D8F8DE
:103D7000000010B103685B699847D7F83C0110B1A7
:103D800003685B689847D8F8000010B103681B68A7
:103D90009847D7F83C0110B103689B689847F068D2
:103DA0000021FFF737FE14210446FFF737FEB06805
:103DB000036800215B6A9847054602F0A1FE70681F
:103DC000036800215B6A98472946064602F062FEB6
:103DD000331DC7F83C61C9F80040C8F80050CAF864
:103DE00000302B68C6F808A02846DB68EE639847C9
:103DF000336830461B6898472146284611F00CF876
:103E0000236820461B699847236820465B69BDE804
:103E1000F0471847797F0208E6860208DF8002082B
:103E200026810208C9810208983F0120943F0120A1
:103E3000406A7047806A704770478B88C0690A681B
:103E4000DB0A50F823001044704710B50446BAB19D
:103E5000107B68B1537BD27A1B0203F4E0631A43F0
:103E6000236A03EB82031A888A4202D193F9020083
:103E700010BD05D8013880B204330028F3D1F7E72C
:103E80000020F5E710B52C21044621F0FBFB20466D
:103E900010BD000030B58BB00446BDF860500895E9
:103EA000BDF85C5007959DF8505006959DF84C5014
:103EB00005959DF8485004959DF8445003959DF84C
:103EC000405002959DF83C500195BDF83850009542
:103ED00010F070FB064B2360159BE361169B236279
:103EE000199B63621A9BA36220460BB030BD00BFD2
:103EF000889002087047000010B5034B0360044629
:103F00000DF0EEF9204610BD5891020810B5064B91
:103F1000036004460DF0E4F9204641F2FC6121F013
:103F2000B1FB204610BD00BF5891020810B500F546
:103F30008054D4F8F8360133B42BC4F8F83606D1DF
:103F40000EF0C8FEFFF76AFA0023C4F8F83610BD79
:103F50000022C0E90122C0E90322C0E90522C0E92C
:103F600007224FF480728284014A0260704700BFCA
:103F7000F090020838B5262204460D46002122F0B2
:103F8000E6FC2046FFF7E4FF064B23602B88E38422
:103F9000FF23204684F8283029460CF099F9204662
:103FA00038BD00BFDC9A02082DE9F04F044699B0F5
:103FB000A046002610F084FDDE4BE66348F8403B47
:103FC00004F16C0B4046FEF7EFFB4FF6FF7516A9A8
:103FD0005846ADF85850FFF7CDFF04F1980304F1AF
:103FE000C40918460A93FEF7DFFB4846FEF7DCFBE0
:103FF00004F1F00318460B93FEF7D6FB04F58E731D
:1040000018460C930AF096FE04F5B2731846119305
:10401000FDF760FAC84BC4F864312433C4F86C313E
:1040200004F5BC731846C4F87061C44F10934FF088
:10403000010AFEF7B9FB04F5D2731846C4F878718B
:1040400084F89CA10F93FEF7AFFB84F8C8A104F598
:10405000E87AC4F8A4715046FEF7BCFB04F5067379
:1040600018460493FEF7B6FB04F518731846B44FD0
:104070000E93FEF799FB04F52573C4F86072184699
:10408000C4F88C62A4F890620D93FEF78DFB04F5E2
:104090003273C4F894721846C4F8C062A4F8C462BB
:1040A000A84F0393FEF796FB04F54573C4F8C87256
:1040B00016A91846C4F810630693ADF85850FFF7D8
:1040C00059FF04F5507316A918460793ADF85850D8
:1040D000FFF750FF04F55B7316A918460893ADF877
:1040E0005850FFF747FF04F5667318460593FEF72F
:1040F00071FB04F57973C4F8987316A91846C4F8CF
:10410000E0630993ADF85850FFF734FF04F580538E
:10411000F025C3F8F8664FF4965104F587600DF06A
:10412000D5F83246404600954FF4A0733146271D1E
:10413000FEF726FB4FF07F43A3664146384608F062
:10414000B7F8584632463821FEF70DFB4FF004020F
:10415000584616A9ADF858200CF0BAF8594638461A
:104160004FF0FF3B08F0A4F84FF4A07332460A98D2
:1041700000953146FEF704FB0A99C4F8C0B03846F2
:1041800008F096F80222EC231146484600934FF4BB
:104190009E73FEF7F5FA6C4BC4F8EC30494638468E
:1041A00008F086F832460B9800950323A021FEF70D
:1041B000E7FADC230B9984F816313846C4F818B1B5
:1041C00008F076F80E2372220C9800939A21FEF7DD
:1041D000D7FAC023C4F850314FF43453C4F85831DF
:1041E0005A4BC4F8703149F66103A4F87431119B3D
:1041F0000C99C4F84431C4E9525538461425C4F822
:104200005C61C4F8546108F053F805236E221098DD
:1042100000951A21FEF7B4FA1099C4F8A0B13846F7
:1042200008F046F805236E220F9800954FF4907120
:10423000FEF7A6FA0F99C4F8CCB1384608F038F862
:104240004FF034085E2212AD114613235046CDF8CC
:104250000080FEF795FA51462846C4F800B2A4F84B
:1042600004620BF073FB95E8070004F503794FF047
:10427000010389E80700514684F8083228460BF00C
:1042800065FB95E80700324B169389E807000C237D
:1042900050464FF0BE0916A9ADF85C300BF0FEFD9C
:1042A000514684F80692384608F002F813235D223E
:1042B0000498CDF80080CC21FEF762FA0499C4F886
:1042C00048B22846A4F84C620BF040FB95E8070082
:1042D00004F5157A4FF003088AE80700049984F87A
:1042E000508228460BF032FB95E80700184B1693D6
:1042F0008AE807000B230498ADF85C3016A90BF090
:10430000CDFD4FF0780A049984F84E92384607F0B4
:10431000CFFF3D220E98CDF800A00F230221FEF71B
:104320002FFA4FF03C090B4B0E99C4F88C3284F8ED
:10433000869211E0589102083C9702089C8E020870
:10434000749A02080C8E020837380CFF0C0C99FF87
:10435000FC8D02083493ADFF3846C4F888B2A4F847
:10436000908207F0A5FF4A460D98CDF800A00F23D4
:104370004FF49771FEF704FA7A4BC4F8C0320D99E6
:1043800084F8BA923846C4F8BCB2A4F8C48207F0E4
:104390008FFF6F2203982E21FEF7E5F9724BC4F8C8
:1043A000F832D4F8C8320399D3F88430A4F8FC6208
:1043B0002846984795E8070004F541794FF0010336
:1043C00089E8070084F80033D4F8C8320399D3F899
:1043D00084302846984795E80700644B1B6889E8B5
:1043E000070004F582692BB9614B624A602162487B
:1043F00022F084F8614B1B88072B03D8604B5D4A81
:104400006121F4E75F4B0721186801F019FF5E4A4C
:1044100003460A21484612F033F80398C4F8109373
:104420000BF01CFD4FF00A0A584A0398169216A981
:104430004FF0D209ADF85CA00BF030FD039984F881
:10444000FE92384607F034FFE62206983821FEF740
:104450008AF90698ADF8588016A90BF039FF06992D
:10446000384607F025FFE5220798DF21FEF77BF9A4
:104470000798ADF8588016A90BF02AFF079938461F
:1044800007F016FF324608983821FEF76CF94FF016
:10449000040116A8ADF85810014608980BF018FF53
:1044A0000899384607F004FF6F220598F521FEF7BA
:1044B0005AF9D4F898332C49D3F88430C4F8C81387
:1044C00028460599A4F8CC63984795E8070004F5B9
:1044D000757383E80700254984F8D0830B68C4F816
:1044E000DC63C4E9F56B04F22445002B3FF47CAF98
:1044F00022490B88072B81D9224B0721186801F02C
:104500009FFE51460346204A284611F0B9FF059800
:10451000C4F8E0530BF0A2FC0923ADF85C3016ABF5
:1045200019461A4A059816920BF0B8FC059984F8BA
:10453000CE93384607F0BCFE02220998DF21FEF731
:1045400012F94FF004010998ADF8581016A90BF0B4
:10455000BFFE3846099907F0ABFE204619B0BDE80A
:10456000F08F00BF3493ADFF5FABDEFFA83F0120AB
:10457000297E02082B7F0208A67E0208AC3F01209C
:10458000ED7E0208B43F0120767F0208FC8D020810
:104590007047000010B5034B036004460CF0A0FE0A
:1045A000204610BD8C91020810B5064B03600446EE
:1045B0000CF096FE204641F2F86121F063F82046A7
:1045C00010BD00BF8C9102082DE9F04F044699B050
:1045D000A046002610F074FAC04BE66348F8403B52
:1045E00004F16C0B4046FEF7DFF84FF6FF7516A995
:1045F00004F1980A5846ADF85850FFF7BBFC5046F6
:10460000FEF7D2F804F1C40318460A93FEF7CCF87B
:1046100004F1F00318460B93FEF7C6F804F58E7309
:1046200018460C930AF086FB04F5B27318461193F2
:10463000FCF750FFAA4BC4F864312433C4F86C3142
:1046400004F5BC731846C4F87061A64F10934FF080
:104650000109FEF7A9F804F5D273C4F8787184F85B
:104660009C9118460F93FEF79FF804F5E8731846DF
:10467000C4F8A47184F8C8919B4F039304F507799B
:10468000FEF7A8F8C4F8D071C4F818624846FEF7DF
:10469000A1F804F51A73C4F81C721846C4F86462D1
:1046A0000493FEF797F804F52C7318460593FEF76C
:1046B00091F804F53E7318468C4F0E93FEF774F88C
:1046C00004F54B73C4F8F8721846C4F82463A4F8D0
:1046D00028630D93FEF768F804F55873C4F82C733B
:1046E00016A91846C4F85863A4F85C630693ADF89D
:1046F0005850FFF73FFC04F5637316A9184607935B
:10470000ADF85850FFF736FC04F56E7316A918463D
:104710000893ADF85850FFF72DFC04F5797318464F
:1047200016A90993ADF85850FFF724FCF0254FF473
:10473000965104F587600CF0C9FD3246404600955D
:104740004FF4A0733146271DFEF71AF84FF07F4350
:10475000A3664146384607F0ABFD3246584638213D
:10476000FEF701F84FF00403584616A9ADF858308B
:104770000BF0AEFD5946384607F09AFD32465046DA
:1047800000954FF4A0733146FDF7FAFF4FF0FF3369
:104790005146C4F8C030384607F08AFD0222EC23A7
:1047A00011460A9800934FF49E73FDF7E9FF504BB2
:1047B0000A99C4F8EC30384607F07AFD32460B9877
:1047C00000950323A021FDF7DBFF4FF0FF33C4F872
:1047D0001831DC230B9984F81631384607F068FD50
:1047E0000E2372220C9800939A21FDF7C9FFC02373
:1047F000C4F850314FF43453C4F858313D4BC4F829
:10480000703149F66103A4F87431119B0C99C4F816
:104810004431C4E9525538461425C4F85C61C4F8E3
:10482000546107F045FD6E22109800950523122172
:10483000FDF7A6FF4FF0FF331099C4F8A0313846BA
:1048400007F036FD6E220F98009505234FF4947102
:10485000FDF796FF4FF0FF33C4F8CC310F9938467F
:1048600007F026FD16220398B821FDF77CFF224BA6
:10487000C4F80032D4F8D0310399D3F88430A4F8C6
:10488000046212AD2846984795E80700D4F8D03165
:1048900004F503784FF0030A88E80700D3F8843062
:1048A000039984F808A22846984795E8070088E805
:1048B0000700DFF85C80D8F8003004F5826B2BB974
:1048C0000E4B0F4A60210F4821F018FE0E4B1B883B
:1048D00003BB0E4B0A4A6121F5E700BF8C91020829
:1048E0003C9702089C8E02080C8E0208749A0208FB
:1048F00037380CFF0C0C99FF565659FF297E0208D9
:104900002B7F0208A67E0208AC3F0120ED7E020844
:10491000A83F0120A14B3146186801F091FCA04A44
:1049200003460A21584611F0ABFD0398C4F818B2AB
:104930000BF094FA9B4B0398169316A91823ADF825
:104940005C300BF0ABFA0399384607F0B1FCC32298
:1049500075214846FDF707FFD4F81C329249D3F879
:104960008430C4F84C1228464946A4F8506298474F
:1049700095E8070004F5167BD4F81C328BE8070095
:104980004FF00101D3F8843084F854122846494688
:10499000984795E80700D8F800308BE8070004F244
:1049A000244B002B8CD081490B88012B91D97B4A59
:1049B0000121106801F044FC794A03460A21584657
:1049C00011F05EFD4846C4F864B20BF047FA16AA2F
:1049D000744B1693114617234846ADF85C300BF024
:1049E0005DFA494638464FF0340907F061FC13235D
:1049F0000498CDF80090B4228C21FDF7C1FE4FF051
:104A0000FF320499C4F898222846A4F89C620AF060
:104A10009DFF95E8070004F5297888E807004FF026
:104A2000010184F8A012284604990AF08FFF95E846
:104A300007005C4B169388E8070016230498ADF82E
:104A40005C3016A94FF0BE080BF028FA049984F8E0
:104A50009E82384607F02CFC13230598CDF8009071
:104A60000722A521FDF78CFE4FF0FF320599C4F80F
:104A7000E0222846A4F8E4620AF068FF95E80700FF
:104A800004F53B7989E80700059984F8E8A22846EF
:104A90000AF05CFF95E80700424B169389E807008F
:104AA00015230598ADF85C3016A90BF0F7F90599B8
:104AB00084F8E68238464FF0780807F0F9FB3C4D61
:104AC0000E98CDF800803D220A230221FDF758FE02
:104AD0004FF03C094FF0FF33C4E9C8350E99A4F8F4
:104AE00028A3384684F81E9307F0E2FB4A460D9847
:104AF000CDF800800A234FF49A71FDF741FE4FF084
:104B0000FF33C4E9D5350D99A4F85CA3384684F881
:104B1000529307F0CDFBE62206983821FDF723FEDD
:104B20000698ADF858A016A90BF0D2FB06993846A6
:104B300007F0BEFBE5220798DF21FDF714FE07987A
:104B4000ADF858A016A90BF0C3FB0799384607F03B
:104B5000AFFB324608983821FDF705FE4FF00405FB
:104B60000898ADF8585016A90BF0B2FB08993846D2
:104B700007F09EFB02220998DF21FDF7F4FD09985A
:104B8000ADF8585016A90BF0A3FB3846099907F069
:104B90008FFB204619B0BDE8F08F00BFB43F012065
:104BA000767F0208FC8D0208565659FFAC3F012063
:104BB0003493ADFF7047000010B5034B036004460B
:104BC0000CF08EFB204610BDC091020810B5064BBC
:104BD000036004460CF084FB20464FF4B15120F0F2
:104BE00051FD204610BD00BFC091020810B500F570
:104BF0008054D4F81C360133B42BC4F81C3606D1CB
:104C00000EF068F8FEF72AFC0023C4F81C3610BD2D
:104C10002DE9F04F044693B0A04600260FF050FF58
:104C2000DF4BE66348F8403B04F16C0A4046FDF771
:104C3000BBFD04F198095046FDF7B6FD4846FDF767
:104C4000B3FD04F1C40318460593FDF7ADFD04F16F
:104C5000F003184606930AF06DF804F59C731846A5
:104C60000B93FCF737FCCF4BC4F838312433C4F82E
:104C7000403104F5A6731846C4F84461CA4D0A933E
:104C80004FF00107FDF790FD04F5BC731846C4F81A
:104C90004C5184F870710993FDF786FD84F89C717E
:104CA00004F5D277C4F878513846FDF793FD04F542
:104CB000F67318460293FDF78DFD04F50D73184643
:104CC000BA4D0393FDF786FD04F52073C4F8345202
:104CD0001846C4F87C62DFF8F4B20893FDF764FD6F
:104CE00004F52D73C4F880B21846C4F8AC62A4F879
:104CF000B0620793FDF758FD04F53A73C4F8B4B2F7
:104D00001846C4F8E062A4F8E4620493FDF762FD7B
:104D100004F58053C4F8E852C4F83063F025C3F8B2
:104D20001C664FF4965104F557700CF0CFFA3246DA
:104D3000404600954FF4A073314604F1040BFDF793
:104D40001FFD4FF07F434146A366584607F0B0FA77
:104D50003246504600954FF4A0733146FDF710FDE2
:104D60004FF0FF335146C4F89430584607F0A0FA8C
:104D70000222EC231146484600934FF49F73FDF73F
:104D8000FFFC8B4BC4F8C0304946584607F090FAF8
:104D90003246059800950323A021FDF7F1FC4FF062
:104DA000FF33C4F8EC30DC23059984F8EA30584628
:104DB0004FF00E0A07F07CFA72220698CDF800A098
:104DC00053469B21FDF7DCFCC023C4F824314FF48B
:104DD0003453C4F82C31774BC4F8443149F661039D
:104DE000A4F848310B9B0699C4F81831C4E947551B
:104DF00058462825C4F83061C4F8286107F058FAED
:104E000065220A98009505231321FDF7B9FC4FF0A0
:104E1000FF330A99C4F87431584607F049FA6422FE
:104E20000998009505234FF49571FDF7A9FC4FF003
:104E3000FF330999C4F8A031584607F039FA3423F2
:104E40005F2238460093742113230CADFDF798FCC4
:104E50004FF0FF33C4F8D43139462846A4F8D8615E
:104E60000AF074FD95E8070004F5F0784FF00309A7
:104E700088E807003946284684F8DD910AF066FD87
:104E800095E807004FF0010388E80700394684F8E9
:104E9000DC3128460AF05AFD95E80700464B10938E
:104EA00088E80700102338464FF0BE0810A9ADF877
:104EB00044300AF0F3FF394684F8DA81584607F0A7
:104EC000F7F93422132302980092BB215F22FDF7E9
:104ED00057FC4FF0FF320299C4F81C222846A4F870
:104EE00020620AF033FD95E8070004F50A7787E8A9
:104EF0000700029984F8259228460AF027FD95E8D4
:104F0000070087E80700029984F8249228460AF0EF
:104F10001DFD95E80700284B109387E807000F2335
:104F20000298ADF8443010A90AF0B8FF029984F84D
:104F30002282584607F0BCF971220398DFF890806E
:104F40003521FDF710FC1D4BC4F86432D4F834321F
:104F50000399D3F88430A4F868622846984795E806
:104F6000070004F51C774FF0010387E8070084F879
:104F70006C32D4F834320399D3F8843028469847F9
:104F800095E80700D8F8003087E8070004F54D776A
:104F900003BB0B4B0B4A60210B4821F0AFFA00BF5B
:104FA000C09102083C9702089C8E02080C8E0208F1
:104FB00037380CFF0C0C99FFFC8D02085FABDEFF4D
:104FC000297E02082B7F0208A67E0208749A020836
:104FD000A83F0120524B1B88062B03D8514B524A45
:104FE0006121D9E7514B0621186801F029F9504A8F
:104FF00003460A21384611F043FA0398C4F87C723C
:105000000AF02CFFD2274B4A0398109210A9ADF852
:1050100044A00AF043FF039984F86A72584607F0E7
:1050200047F978213C22089800910A234FF49B719C
:10503000FDF7A6FB4049A4F8B0924FF0FF334FF0C4
:105040003C0AC4E9AA315846089984F8A6A207F098
:105050002FF978200A233D22009002210798FDF7BE
:105060008FFB3549A4F8E4924FF0FF30C4E9B70153
:1050700084F8DAA20799584607F01AF96F220498C3
:10508000F321FDF770FBD4F8E8322C49D3F88430D3
:10509000C4F8181328460499A4F81C63984795E8A7
:1050A0000700D4F8E83204F5497686E80700D3F81B
:1050B0008430049984F820932846984795E807009F
:1050C000D8F8003086E8070004F55275002B3FF44D
:1050D00060AF13490B88062B80D9144B0621186842
:1050E00001F0AEF8124A03460A21284611F0C8F929
:1050F0000498C4F830530AF0B1FE0E4A0498109296
:105100000D2310A9ADF844300AF0C8FE58460499A2
:1051100084F81E7307F0CCF8204613B0BDE8F08F7A
:10512000AC3F0120ED7E02082B7F0208B43F012036
:10513000767F0208FC8D02083493ADFF5FABDEFF83
:105140007047000010B5034B036004460CF0C8F82C
:10515000204610BDF491020810B5064B03600446CA
:105160000CF0BEF8204641F21C6120F08BFA20467C
:1051700010BD00BFF49102082DE9F04F044693B032
:10518000A34600260FF09CFC9C4BE6634BF8403B8B
:105190005846FDF709FB04F16C03184604F1980921
:1051A000059304F1C408FDF7FFFA4846FDF7FCFA41
:1051B0004046FDF7F9FA04F1F0031846069309F0AA
:1051C000B9FD04F59C7318460B93FCF783F98C4BDF
:1051D000C4F838312433C4F8403104F5A6731846B6
:1051E000C4F84461874D0A934FF00107FDF7DCFADC
:1051F00004F5BC7304F5D27A1846C4F84C5184F80F
:1052000070710993FDF7D0FAC4F8785184F89C7155
:105210005046FDF7DFFA7C4DC4F8A45104F5F8734D
:105220001846C4F8EC610293FDF7D4FA04F50F7345
:10523000C4F8F0511846C4F838620393FDF7CAFA6F
:1052400004F5217318460493FDF7C4FA04F533738B
:1052500018466E4D0893FDF7A7FA04F540731846FB
:10526000C4F8CC52C4F8F862A4F8FC620793FDF7C6
:105270009BFAC4F800534FF49651F02504F557708B
:10528000C4F82C63A4F830630CF020F8324658467A
:1052900000954FF4A0733146FDF772FA271D4FF0C9
:1052A0007F435946A366384607F002F84FF0FF3BAC
:1052B0004FF4A0733246059800953146FDF760FA29
:1052C0000599C4F894B0384606F0F2FF0222EC23A8
:1052D0001146484600934FF49E73FDF751FA4C4B2C
:1052E000C4F8C0304946384606F0E2FF3246404630
:1052F00000950323A021FDF743FADC23414684F8FF
:10530000EA303846C4F8ECB006F0D2FF0E23722221
:10531000069800939A21FDF733FAC023C4F824318C
:105320004FF43453C4F82C313A4BC4F8443149F6A5
:105330006103A4F848310B9B0699C4F81831C4E9FD
:10534000475538462825C4F83061C4F8286106F06E
:10535000AFFF052365220A9800951321FDF710FA87
:105360000A99C4F874B1384606F0A2FF05236522F5
:10537000099800954FF49471FDF702FA0999C4F861
:10538000A0B1384606F094FF1622B8215046FDF72A
:10539000EAF9214BC4F8D431D4F8A431A4F8D86187
:1053A0000CADD3F8843051462846984795E807005D
:1053B000D4F8A43104F5F0794FF0030889E8070028
:1053C000D3F8843084F8DC8151462846984795E824
:1053D0000700124B1B6889E8070004F54D792BB9CB
:1053E0000F4B104A6021104821F088F80F4B1B88A2
:1053F000022B1FD80E4B0B4A6121F4E7F4910208EF
:105400003C9702089C8E02080C8E0208749A0208CF
:1054100037380CFF0C0C99FF565659FFA83F012056
:10542000297E02082B7F0208A67E0208AC3F0120DD
:10543000ED7E02087D4B0221186800F001FF7C4AD6
:1054400003460A21484611F01BF85046C4F8EC9177
:105450000AF004FDDFF8EC91CDF840901C23504693
:1054600010A9ADF844300AF019FD5146384606F04F
:105470001FFF0298C3227521FDF775F9D4F8F031AA
:105480006C4AD3F884300299C4F820222846A4F844
:105490002462984795E8070004F50B7AD4F8F031B8
:1054A0008AE807004FF00102D3F88430029984F8AB
:1054B00028222846984795E807008AE807005E4AB0
:1054C000136804F5527A002B8AD05C4A1388032BA8
:1054D00090D9564B4146186800F0B2FE544A034634
:1054E0000A21504610F0CCFF0298C4F838A20AF006
:1054F000B5FC1B230298ADF8443010A9CDF84090BC
:105500000AF0CCFC0299384606F0D2FE3423039808
:105510000093B42213238C21FDF732F90399A4F8E8
:1055200070622846C4F86CB20AF010FA95E80700D9
:1055300004F51E7A8AE807004FF00102039984F807
:10554000742228460AF002FA95E807001A238AE82E
:1055500007000398ADF8443010A94FF0BE0ACDF80B
:1055600040900AF09BFC039984F872A2384606F03A
:105570009FFE34230498009307221323A521FDF7EF
:10558000FFF80499A4F8B8622846C4F8B4B20AF047
:10559000DDF995E8070004F5307686E80700049900
:1055A00084F8BC8228460AF0D1F995E8070019234F
:1055B00086E807000498ADF8443010A9CDF8409073
:1055C00078260AF06BFC049984F8BAA2384606F0F3
:1055D0006FFE4FF03C090898194D00960A233D22B2
:1055E0000221FDF7CDF80899C4F8F4B23846C4F8A2
:1055F000F852A4F8FC8284F8F29206F059FE07985B
:1056000000960A234A464FF49A71FDF7B9F83846D6
:10561000C4E9CAB50799A4F8308384F8269306F044
:1056200047FE204613B0BDE8F08F00BFB43F012015
:10563000767F0208565659FFA83F0120AC3F012053
:105640003493ADFFFC8D020870477047704730B44B
:10565000C26844685510034604EB6200D20748BF95
:1056600062599B6830BC48BFD3581847034640680E
:1056700030B19A681AB9D86800F00100704701206B
:10568000704710B5102104461FF0FCFF204610BDE6
:1056900010B5034B036004460BF022FE204610BDFC
:1056A0004092020810B5064B036004460BF018FE4A
:1056B000204641F67C011FF0E5FF204610BD00BFEB
:1056C0004092020838B500F1E003994204460D46C5
:1056D00003D10DF0FFFAFDF7F1FE04F264539D4291
:1056E00003D10DF0F7FAFDF7C9FE9834A54205D1B4
:1056F0000DF0F0FABDE83840FDF7A0BE38BD00005F
:1057000038B504460D46FBF7E5FE034B2360243312
:10571000E560A360204638BD3C9702082DE9F04FB4
:105720000446A5B0A14600250FF0CAF9E24BE56397
:1057300049F8403B04F16C0A4846FDF735F804F19E
:1057400098085046FDF730F804F1E00740460AF0AB
:1057500001FF38460AF0FEFE04F5947318460693DE
:1057600009F0E8FA04F5B873294618461193FFF7D3
:10577000C7FF04F5C2731846079309F0DBFA04F576
:10578000E673294618461293FFF7BAFF04F5F07343
:105790001846089309F0CEFA04F50A73294618460C
:1057A0001393FFF7ADFF04F50F731846099309F043
:1057B000C1FA04F52173294618461493FFF7A0FF98
:1057C00004F5267318460A9309F0B4FA04F5387301
:1057D000294618461593FFF793FF04F53D731846C5
:1057E0000B9309F0A7FA04F54F7329461846169350
:1057F000FFF786FF04F5547318460C9309F09AFAE4
:1058000004F56673294618461793FFF779FF04F5E8
:105810006B7305934FF48073A4F8D033A74BC4F88F
:10582000AC33A74BC4F8D4334FF0FF314FF47F03B0
:105830004FF0FF30C4F8E033C4E9FB05A4F8D813F7
:1058400004F57D70C4E9EC55C4E9EE55C4E9F055A2
:10585000C4E9F255C4F8DC53A4F8E453C4F8E8539F
:105860000D9009F067FA294604F23C401890FFF7C2
:1058700047FF04F58A600E9009F05CFA294604F5AA
:1058800093601990FFF73CFF04F2AC400F9009F0D1
:1058900051FA294604F2F4401A90FFF731FF04F55B
:1058A000A160109009F046FA294604F5AA601B9001
:1058B000FFF726FF04F2645003900AF04BFE04F554
:1058C0008053804AC3F86C287F4AC3F87048C3F8F5
:1058D0007428C3F8785804F2AC504FF0F00B4FF432
:1058E00096510BF0F3FC2A46CDF800B02946484605
:1058F0004FF4A073261DFCF743FF4FF07F43A366D0
:105900004946304606F0D4FC2A46CDF800B0294678
:1059100050464FF4A073FCF733FF6C4BC4F894303F
:105920005146304606F0C4FC404666225521FCF73D
:105930001AFF21A84FF0010B22AA01464FF00209DD
:105940004046ADF88890ADF884B00AF0FAFA232307
:10595000A4F8D0304046FDF7EBFB4FF0FF30C4F821
:10596000D80004F5C3505A4BC4F8D4300C3004901E
:10597000C4F8C0004146304606F09AFC5946384605
:105980003222FCF7F0FE21A822AA01463846ADF8E3
:105990008890ADF884B00AF0D4FA2423A4F8183122
:1059A0003846FDF7C5FB0499494BC4F81C314FF04C
:1059B000FF304FF01D0AC4F82001C4F8081130462A
:1059C000394606F075FC0698CDF800A05346C5226E
:1059D000CF21FCF7D5FE3F4B1199C4F87C314FF431
:1059E00034584FF4F0774FF4A0794DF21443C4E9E2
:1059F0005577C4F85C91A4F88031C4F85011304652
:105A00000699C4F86851C4F86051C4F8648106F07E
:105A10004FFC0798CDF800A05346C5225B21FCF748
:105A2000AFFE2D4B1299C4F8D8314AF23A53C4E96B
:105A30006C77C4F8B891A4F8DC31C4F8AC113046E6
:105A40000799C4F8C451C4E96F5806F031FC0898AE
:105A5000CDF800A05346C5229521FCF791FE1F4BBF
:105A60001399C4F834324DF6B953C4E98377C4F8B6
:105A70001492A4F83832C4F8081230460899C4F8D1
:105A80002052C4E9865806F013FC0998CDF800A00E
:105A90005346A822EC21FCF773FE114B1499C4F86D
:105AA000903248F21663C4E99A77C4F87092A4F869
:105AB0009432C4F8641215E0409202087C990208FE
:105AC000FC8D020828920208C5560008EDDCADFFE7
:105AD000805039FFA583D4FFD1A4A1FFCAB4DEFF53
