:020000040800F2
:10000000000003205D060008C5230008C723000880
:10001000C9230008CB230008CD23000800000000FE
:10002000000000000000000000000000F1B4000823
:10003000CF2300080000000081B5000813AE0008BF
:10004000AD060008AD060008AD060008AD060008C4
:10005000AD060008AD060008AD060008AD060008B4
:10006000AD060008AD060008AD060008AD060008A4
:10007000AD060008AD060008AD060008AD06000894
:10008000AD060008AD060008AD060008AD06000884
:10009000AD060008AD060008AD060008AD06000874
:1000A000AD060008AD060008AD060008AD06000864
:1000B000AD060008AD060008AD060008AD06000854
:1000C000AD060008AD060008AD060008AD06000844
:1000D000AD060008AD060008AD060008AD06000834
:1000E000AD060008AD060008AD060008AD06000824
:1000F000AD060008AD060008AD060008AD06000814
:10010000AD060008AD060008AD060008AD06000803
:10011000AD060008AD060008D1230008AD060008B2
:10012000AD060008AD060008AD060008AD060008E3
:10013000AD060008AD060008AD060008AD060008D3
:10014000AD060008AD060008AD060008AD060008C3
:10015000AD060008AD060008AD060008AD060008B3
:10016000AD060008AD060008AD060008AD060008A3
:10017000AD060008AD060008AD060008000000004E
:10018000AD060008AD060008AD060008AD06000883
:10019000AD060008AD060008AD060008AD06000873
:0C01A000DD230008AD060008E92300087C
:1001B00010B5054C237833B9044B13B10448AFF3A1
:1001C00000800123237010BD800300200000000088
:1001D000BC82020808B5034B1BB103490348AFF3C7
:1001E000008008BD0000000084030020BC820208DB
:1001F00001F0FF01102A2BDB10F0070F08D010F8D8
:10020000013B013A8B422DD010F0070F42B3F6D1DB
:10021000F0B441EA012141EA014122F007047FF0F4
:1002200000070023F0E80256083C85EA010586EA4B
:10023000010685FA47F5A3FA87F586FA47F6A5FA87
:1002400087F68EB9EED1F0BC01F0FF0102F0070293
:1002500032B110F8013B013A83EA010313B1F8D13E
:100260000020704701387047002D06BF354603381F
:10027000073815F0010F07D1013015F4807F02BF58
:10028000013015F4C03F0130F0BC0138704700BFA9
:100290007BB972B90029BEBF00204FF0004106E0D3
:1002A00008BF00281CBF6FF000414FF0FF3000F086
:1002B000D3B9ADF1080C6DE904CE002909DB002BA0
:1002C0001ADB00F04DF8DDF804E0DDE9022304B0AC
:1002D0007047404261EB4101002B1BDB00F040F80E
:1002E000DDF804E0DDE9022304B0404261EB4101A6
:1002F000524263EB43037047524263EB430300F007
:100300002FF8DDF804E0DDE9022304B0404261EBA0
:1003100041017047524263EB430300F021F8DDF8DE
:1003200004E0DDE9022304B0524263EB430370476B
:1003300053B94AB9002908BF00281CBF4FF0FF314C
:100340004FF0FF3000F088B9ADF1080C6DE904CE34
:1003500000F006F8DDF804E0DDE9022304B07047A0
:100360002DE9F047089D8E4604468846002B4AD169
:100370008A42174662D9B2FA82F64EB1C6F120031C
:1003800001FA06F820FA03F3B74043EA0808B4403C
:100390004FEA174E1FFA87FCB8FBFEF1230C0EFB49
:1003A000118843EA084301FB0CF29A4209D9FB1871
:1003B00001F1FF3080F0EA809A4240F2E780023992
:1003C0003B449A1AA3B2B2FBFEF00EFB102243EAA2
:1003D000024300FB0CFC9C4509D9FB1800F1FF32DD
:1003E00080F0D6809C4540F2D3803B44023840EAFE
:1003F0000140A3EB0C0300211DB1F3400022C5E92D
:100400000032BDE8F0878B4205D90DB1C5E9000186
:1004100000210846F5E7B3FA83F1002946D1734578
:1004200002D3824200F20581841A6EEB030201209E
:100430009046002DE5D0C5E90048E2E7002A00F02B
:100440009080B2FA82F6002E40F0A4808A1A030C43
:100450004FEA174E80B2BCB20121B2FBFEFC0EFB8C
:100460001C2243EA024304FB0CF29A4207D9FB1810
:100470000CF1FF3802D29A4200F2E080C4469B1A87
:10048000B3FBFEF20EFB123340EA034302FB04F41B
:100490009C4207D9FB1802F1FF3002D29C4200F2C5
:1004A000CA8002461B1B42EA0C40A5E7C1F12006A8
:1004B0008B4022FA06F71F430EFA01F420FA06F3E6
:1004C0002EFA06FE4FEA1749234300FA01F81FFAF5
:1004D00087FCBEFBF9F01C0C09FB10EE44EA0E444D
:1004E00000FB0CFEA64502FA01F209D93C1900F105
:1004F000FF3A80F09C80A64540F2998002383C4447
:10050000A4EB0E041FFA83FEB4FBF9F309FB1344BA
:100510004EEA044403FB0CFCA44508D93C1903F142
:10052000FF3E80F08280A4457FD9023B3C4443EAF1
:100530000040A4EB0C04A0FB02EC64457346E146CA
:1005400062D35FD05DB1B8EB030264EB090404FA37
:1005500006F622FA01F31E43CC40C5E900640021EF
:100560004FE7B1FBF2FC010C41EA0E4180B240EAD8
:1005700001423B4638463C46B846BE462026B1FBC3
:10058000F7F1A2EB080241EA0C4166E7014618E7E1
:1005900010462CE7C6F120022EFA02F3B740B14014
:1005A00020FA02F24FEA174E0A43B3FBFEF8BCB240
:1005B0000EFB1833110C41EA034108FB04F9B0406B
:1005C00089454FEA104380B23ED9791808F1FF3CC3
:1005D00001D289451FD8A1EB0901B1FBFEF909FB46
:1005E00004F80EFB191192B242EA0142424529D2A7
:1005F000BA1809F1FF31C4D24245C2D2A9F10201B1
:100600003A44BEE7F0459DD2BEEB02036CEB070C0B
:100610000138E14696E7A7EB09094944A8F1020C25
:10062000B1FBFEF909FB04F8DBE773467FE75046B0
:1006300066E70846FDE63B44023A33E7ACF1020CBC
:100640003B441CE749469CE7A1EB0901C446B1FBCA
:10065000FEF909FB04F8C4E7704700BFDFF834D0A7
:10066000002103E00C4B5B58435004310B480C4B0A
:1006700042189A42F6D30B4A02E0002342F8043BA8
:10068000094B9A42F9D307F023FD27F0A9F801F0AE
:100690003FF9704700000320E4B004080000002088
:1006A0006401002080030020A04C0120FEE7704779
:1006B00008B500F0A7FDBDE8084000F029BD00F036
:1006C000A3BD704710B50421044625F08BFE2046DB
:1006D00010BD000038B50C4B0C4C18800C4B822020
:1006E00019806368984740F6110398420AD1094D72
:1006F00023682C60822098472B688220DB6898470B
:10070000002038BD0120FCE7A60300204C0000209B
:10071000A4030020A80300204FF4A071F020FFF7ED
:10072000D9BF0000F7B52F4D2B6804461B69822006
:1007300098472080002844D02B680DF106025B69A1
:1007400001A982209847BDF80620A2F5B47292B2A2
:100750000A2A38D90B23B2FBF3F2234B1B889A42A7
:1007600001D9013B9AB2BDF80430204840F6B831B7
:100770008B422AD8C3F571630E3301689BB20F25F3
:10078000B3FBF5F31A4D2D88AB4284BF05F1FF355D
:10079000ABB28B421D468EB220D99B1B99B2154E2F
:1007A0003768BBB2BA428CBFD31A9B1A9BB21944AA
:1007B0000529C8BF05600368C8BF3260638033681D
:1007C000A38003B0F0BD0022CDE7C3F56D6308330D
:1007D0009BB20E2B0168D2D800252B46C91A89B2CC
:1007E000DDE700BFA8030020A4030020A003002031
:1007F000A60300209C03002037B568460D4614462A
:10080000FFF790FFBDF8000040B1BDF802302B604B
:10081000BDF80430C3F5A0732360012003B030BDE0
:10082000032821D8DFE800F0020B12190F4B1A68D9
:10083000B2FA82F2520904210D4808F011B90B4BAB
:100840005A68B2FA82F252090821F5E7074B9A6812
:10085000B2FA82F252091021EEE7044BDA68B2FADA
:1008600082F252092021E7E7704700BFAC03002065
:1008700000100240032821D8DFE800F0020B121913
:100880000F4B1A68003A18BF012204210D4808F0E6
:10089000E7B80B4B5A68003A18BF01220821F5E768
:1008A000074B9A68003A18BF01221021EEE7044B6B
:1008B000DA68003A18BF01222021E7E7704700BF3D
:1008C000AC0300200010024003280DD8DFE800F040
:1008D0000206080A0421054808F0C7B80821FAE70B
:1008E0001021F8E72021F6E7704700BF0010024012
:1008F00008B5032811D8DFE800F0020A0C0E042125
:10090000074808F0A7F8431E5842584108BD08217F
:10091000F6E71021F4E72021F2E70020F3E700BF1B
:100920000010024070B5084D00240126E0B2FFF728
:10093000DFFF18B12B68012B18BF2E600134052C86
:1009400005F10405F2D170BDAC030020012380F84D
:10095000781080F87930704700207047034B41646D
:10096000003918BF01211970704700BF5F3F012097
:1009700000207047836B0BB10846184770474FF64D
:10098000FF707047406803689B691847704770475D
:100990007047000010B5044600F044FD2368034989
:1009A000D3F88C302046BDE810401847000000D036
:1009B00008B503680446D3F880309847236820467A
:1009C0009B6F984700F0ECF8236820461B6F984710
:1009D000292001F017FA00F0E3F8236820461B6F86
:1009E0009847F8E710B504460DF03CFB2368204615
:1009F000D3F8AC30BDE81040184700F0F7BC00F069
:100A0000FBBC00F02DBD00F0CDBC00F03DBD00F002
:100A100045BD00F0D1BC0CF091BD10B57C21044661
:100A200025F0E0FC204610BD10B590F8341090F889
:100A300078400C4B8C421A7809D03AB90A4A0B49D3
:100A40001488088810800C8001221A7010BD002ABA
:100A5000FCD0054A05491488088810800C800022C3
:100A6000F3E700BF583F0120543F0120563F0120CB
:100A700070B50D46194635B9094B0A4A0A4840F285
:100A8000D22126F0EBFBC0E90F52084B003A18BF09
:100A900001221A700368BDE87040D3F88C30184703
:100AA0002C83020864830208B28302085E3F01209F
:100AB00008B5094B1B888B4203D8084B1B8893420F
:100AC00005D9074B074A08489E2126F0C7FB074B6C
:100AD0001980074B1A8008BD543F0120563F012062
:100AE000F78302085A840208B28302085A3F0120A1
:100AF0005C3F0120034690F87A0018B158680368FB
:100B00001B68184770470000012108B500220846FD
:100B10000AF008FA0A4B186028B90A4B0A4A282139
:100B20000A4826F09BFB0022042101200AF099FAD2
:100B3000074B186018B9074B034A2C21F0E708BD92
:100B4000C00300209D840208E6840208158502087F
:100B5000BC03002053850208024B4FF0FF31186898
:100B60000AF02ABAC0030020014B18680AF050BAF4
:100B7000C0030020024B002118680AF01DBA00BF14
:100B8000C0030020FFF7F0BF0348044900680023BA
:100B90001A460AF0A1BA00BFBC03002004000020DE
:100BA00013B5084C00231A4601A920680AF0C5FABB
:100BB00020684FF0FF33002201A90AF0BEFA02B00C
:100BC00010BD00BFBC03002003685B6C1847012008
:100BD000704703689B6A1847FEE740F2EF307047A2
:100BE000054B0360054B4FF08062C3F88820BFF3CC
:100BF0004F8FBFF36F8F7047F896020800E100E057
:100C000010B504464FF45A61FFF7EAFF204625F07D
:100C1000E9FB204610BD000082B0002301930E4B7B
:100C20001A6B42F400021A631A6B02F4000201927A
:100C3000019A1A6942F400021A611A6922F4000248
:100C40001A61064B064A1A61064A5A61064B4FF072
:100C500080629A6002B0704700380240E02F0020A6
:100C6000B90E0008D90B000800E100E008B50A2819
:100C700009D8DFE800F006100E0808080810101068
:100C80001000022008BD054B054A0648902126F0B9
:100C9000E5FA0020F6E70120F4E700BF9585020899
:100CA000B0850208FB85020838B50C46887FFFF73F
:100CB000DDFFA58AE28A164B2169586342EA0542A4
:100CC0005A64628BD963521B1A642568082D0ED1B1
:100CD0009A611A615862207F0E4A42EA0062DA6124
:100CE000E2681A620C4A5961D9601A6038BD002264
:100CF000D8611A61E1680A0A480902F4784200F4EE
:100D0000FC600243C1F3C4010A439A63034AECE75F
:100D100000B002400900010001230200012303008A
:100D200008B50B280BD8DFE800F00612100A0A0AF3
:100D30000A0808080808022008BD0520FCE7054B42
:100D4000054A06486F2126F089FA0020F4E70120C1
:100D5000F2E700BF9585020837860208FB85020886
:100D60002DE9F04191F81D800C464046FFF7D8FF71
:100D7000A77F05463846FFF7D3FF06463846FFF7FC
:100D800075FFA18A628B444B521A1A649A61228BB6
:100D9000521A1A61E28A586342EA01425A6421698E
:100DA0006268D963DA602068802828D0227F0FD853
:100DB000202867D0402865D004281AD0364B45EA51
:100DC000026545F40035B845DD6161D0334A44E041
:100DD000B0F5807F04D0B0F5007FEFD1304800E05F
:100DE000304840EA0262DA61E2681A625E62596182
:100DF00032E045EA026242F40032DA61F6E7A068C6
:100E0000021DDA62227F45EA026545F40035DD61A4
:100E10005E625961017841B1012921D0224B234AF8
:100E200023484FF48D7126F019FADA69418822F4CB
:100E30007F42013922F0100242EA0122DA610121E7
:100E4000154BDA6942F02002DA61DA699206FCD4C5
:100E500010229A600029B9D0164A1A60BDE8F081C4
:100E6000B2F1FF01DA69408822F47F4200F1FF30DD
:100E700022F0100242EA002242F0100218BF0121C3
:100E8000DA61DDE745EA0262034B42F40032B4E77F
:100E900042F20132E1E700BF00B00240012301004D
:100EA000090002000A000200818602089B860208EF
:100EB000FB85020801230200024B1B685868036887
:100EC0005B691847603F012070B5044625460A4B10
:100ED0000C30002660602672667245F8203B602266
:100EE00029460DF017FA04F55A63EE6024359D4249
:100EF000FBD1204670BD00BFF8960208034B1A686C
:100F0000D207FCD423229A60704700BF00B0024091
:100F10007047000030B50F4C2568ED07FCD4232541
:100F20000904A56041F001010225FF2B656361649E
:100F3000E0630AD00849656241EA0363E361074B55
:100F400022626061E060236030BDE561039BA363C2
:100F5000034BF8E700B00240090001000100020065
:100F60000100030030B50E4C2568ED07FCD42325A5
:100F70001204A56042F001020225FF2B6563626442
:100F8000E063E16008D01B0643F00213E361054B08
:100F900065626061236030BD034BE3610123F9E7C3
:100FA00000B0024001000200020002FF30B50B4C0D
:100FB0002568ED07FCD4232512041B06A56043F425
:100FC0000033022542F0010265636264E063E16080
:100FD000E361034B65626061236030BD00B0024095
:100FE000010002000120704738207047382303FBBE
:100FF000010008307047382303FB010008307047B8
:101000000120704741F67C00704741F67C0303FBEA
:1010100001000830704741F67C0303FB01000830F3
:101020007047012070471020704700EB0110083016
:10103000704700EB011008307047084602F0F4BA20
:1010400010B5034B036004460BF0CDFF204610BDE6
:10105000B097020810B50446FFF7F2FF2046402182
:1010600025F0C0F9204610BD10B5034B03600446BF
:101070000BF0B9FF204610BD7C97020810B504465E
:10108000FFF7F2FF204641F6840125F0ABF9204638
:1010900010BD000010B5034B036004460BF0A3FF26
:1010A000204610BD4897020810B50446FFF7F2FF2E
:1010B0002046182125F096F9204610BD10B5094BA1
:1010C0000360044600F5C5501030FFF7B9FF04F186
:1010D0002C00FFF7C9FF04F11400FFF7DBFF2046E7
:1010E00010BD00BFE497020808B50248FFF7E6FF0D
:1010F00008BD00BF9412002010B50446FFF7DEFFC4
:1011000020464FF4D35125F06DF9204610BD000064
:101110002DE9F34101F0F0F9054601F0F1F9002461
:101120000146234628462246009416F0FFF8274B36
:10113000274A1A60204605F0C7FA264D264B274A53
:1011400027489A6016F05AF82B68BFF35B8FDB07CD
:1011500036D4284625F048F990B3224C224F234B31
:10116000236007F1540604F1140004F12C086060B8
:10117000C4F80880E76026610BF036FF1C4B636102
:1011800040460BF031FF1B4BE36238460BF02CFF5F
:1011900004F5805303F50F60174AC3F8B02806F032
:1011A00093FC224607F14001304605F08FFF3046A0
:1011B00002F03AFA114826F06FF8284625F020F997
:1011C0000F4802B0BDE8F041FFF7E4BBC43F012087
:1011D00040040020901200206004002044040020FD
:1011E0000800002094120020442B0020E4970208FD
:1011F000489702087C970208B0970208E910000897
:10120000C4030020704700000148FFF7D1BB00BFB6
:10121000C403002070B5244E244C254D254B23607B
:101220003046FFF751FE28461BF086F9224813F09E
:1012300055FD224B2248DC6000224FF48071C3E947
:10124000121220491A86C3E91A121F4999671F49C9
:1012500083F858200B60F02101801D485A660180F8
:101260001C4883F870204FF4A071C3E90422C3E93D
:101270000622C3E90822C3E90A22C3E90E22C3E910
:101280001022C3E91422C3E917225A67C3E9016592
:1012900001801148018011490A70012283F834202D
:1012A0000F4A1A6070BD00BFEC0400208C120020B1
:1012B000600400201C83020844040020C4030020B2
:1012C000543F01200100000100000101603F0120A6
:1012D0005A3F0120563F01205C3F0120583F01202A
:1012E000209602080148FFF77BBC00BFEC040020F9
:1012F0000020704781807047C1807047018170472E
:10130000418170477047704770477047704710B40D
:10131000C4880368121B84885B6D091B12B25DF8D8
:10132000044B09B218474FF6FF7383814FF0FF3328
:1013300003621368C36110607047002070478B8898
:10134000838001207047704780F82610704790F81E
:101350002600704710B50022B1F90840B1F90A1013
:10136000028042808480C18010BD002202804280C1
:101370008280C28070470177704780ED080A70470D
:1013800080F82410704780F82510704701207047BE
:10139000983070478C307047843070477047704782
:1013A00070470000034B902283F85A2383F8582398
:1013B000704700BF00E100E0094A0A49D3680A48C3
:1013C000C3F30A03013B9BB20B801169C1F30A010D
:1013D000013901801364536B43F001035363704779
:1013E00000680140F62C0020F42C0020014BD3F8BB
:1013F000AC00704700680140024B0122C3F8AC10FA
:101400005A6270470068014010B52C21044624F050
:10141000E9FF204610BD10B5BC21044624F0E2FFD0
:10142000204610BD70B504460CF0DDF823685D6EF3
:1014300012F000FB01462046A8472368054AD3F86E
:1014400088502046AC460023BDE87040A2F5163116
:10145000604700BF00B004D00CF0ACB80CF0B6B8D8
:101460000CF072B80CF0D3B990F8252012B10368D3
:101470005B691847704790F825201AB190F824202E
:1014800002B1186070470000034B4FF080629A6011
:101490004FF080729A60704700E100E0084B4FF017
:1014A0008062C3F88820BFF34F8FBFF36F8F4FF078
:1014B0008072C3F88820BFF34F8FBFF36F8F7047E0
:1014C00000E100E070B50023124E8380124B0360F0
:1014D000336893F8582005460AB1D86C00B998686B
:1014E0000368DB6A98473368B0FA80F4D86C640903
:1014F00030B10368DB6A9847002808BF44F0010454
:101500002CB9064B064A07482C2125F0A7FE284691
:1015100070BD00BF603F0120F8970208D98602081D
:10152000378702087087020870B5244E3568BFF30C
:101530005B8F15F001053FD1304624F055FF0028A0
:101540003AD01F4C1F4B256104F13400C4E900352B
:10155000C4E90255E584A562A58513F01EFE04F1D9
:1015600058000EF0A5FF184BA3652046174B40F816
:10157000843BFFF7A7FF164BC4F884302433C4F82C
:101580008C306423C4E928350023C4F8AC30C4F897
:10159000B030C4F8B430C4F8B8300E480E4BC4F8BC
:1015A0009050C4F89C50C4F8A850C4F8983025F066
:1015B00073FE304624F024FF014870BDF82C002053
:1015C000FC2C002028A40208189802089098020811
:1015D000DCA30208A1130008BCA3020810B5144C38
:1015E000236823B3134B144A1B6C11888B4213D10D
:1015F000124B198808F03CF8226892F86A300133DF
:1016000082F86A30FFF7C0FA20680CF02BFDBDE8C5
:1016100010400020FFF704B908F02AF8206803689A
:101620001B6A9847BDE810400020FFF723B910BDA2
:10163000603F012000680140F62C0020F42C0020BF
:101640002DE9F04FDFF85891534DDFF858A1534F73
:1016500087B01022002102A800244FF0010826F0D4
:1016600016F8C346C9F800400123002C50D10622C9
:1016700002A92846CDE90243049206F00FFF28464E
:1016800006F01CFE4FF0FF31284606F0B0FE28465B
:1016900006F000FF0646284606F08EFEB6F57A7F75
:1016A0004FF001032DD28DF80740386823462246BB
:1016B0000DF1070109F010FD0421504607F0CAF9A9
:1016C000064660B9BBF1010F09D104238DF807303C
:1016D000024603460DF10701386809F0FDFCD9F810
:1016E00000301433B3F5FA7F28BF00234FF00A000F
:1016F00028BF84F00104C9F80030B34609F006FCA5
:10170000B2E740F6B8329642D6D98DF80730CCE72A
:101710000522CDE9022302A906232846049306F0F8
:10172000BDFE284606F0CAFD4FF0FF31284606F000
:101730005EFE284606F0AEFE0646284606F03CFE53
:10174000B6F57A7F16D202238DF807300023386869
:101750001A460DF1070109F0BFFC0821504607F0B9
:1017600079F90346B0B9B8F1010F09D04FF000087C
:101770005E46B4E740F6B8339E42EED90323E3E772
:1017800005228DF807200DF107010246386809F09F
:10179000A3FCEBE78046EBE7102E0020C02D0020D5
:1017A000B82D00200018024007B5064BADF8060022
:1017B0001B68054801220DF1060108F009FD03B080
:1017C0005DF804FB0C0000208C2E002008B564207E
:1017D00009F09CFBFBE7000030B595B0102200211A
:1017E0000AA825F054FF1422002103A825F04FFF7A
:1017F00000241E4B01941A6C42F080521A641B6C38
:1018000003F080530193019B194B02941A6842F430
:1018100040421A601B6803F4404302930122029B7A
:101820004FF48033CDE9082302254FF480030821CB
:10183000CDE90E534FF4B473CDE9101308A8042377
:101840001393129507F06CFF07F030FF0F23CDE9DB
:1018500003354FF4A0504FF48053CDE90603052122
:1018600003A8059408F038F915B030BD00380240DF
:101870000070004082B000230F4A0193516C0F4862
:1018800041F480715164526C836002F48072019261
:10189000019A0B4A0361C0E900230A4A82620122CD
:1018A000037680F82030C362C360C26180F83030B4
:1018B000426102B006F05CBC00380240102E0020ED
:1018C000002001400100000F82B000230D4A019367
:1018D000516C0D4841F010015164526C0B49036189
:1018E00002F010020192019AC3614FF4E132C0E9A3
:1018F00000120C22C0E90233C0E9052302B009F04E
:1019000066B900BF00380240D02D00200010014011
:101910002DE980489BB006F0E9FBFFF7ABFFFFF72E
:101920005BFF142200210DA8002425F0B0FEC64B59
:1019300000941A6BC548C64D42F010021A631A6B28
:1019400002F010020092009A01941A6B42F02002F9
:101950001A631A6B02F020020192019A02941A6B28
:1019600042F080021A631A6B02F080020292029A1D
:1019700003941A6B42F004021A631A6B02F0040219
:101980000392039A04941A6B42F001021A631A6BD1
:1019900002F001020492049A05941A6B42F00202CA
:1019A0001A631A6B02F002020592059A06941A6BEA
:1019B00042F040021A631A6B02F040020692069A45
:1019C00007941A6B42F008021A631B6B03F00803BA
:1019D000079322463C21079B07F042F89D48224688
:1019E000042107F03DF822469B484FF4405107F090
:1019F00037F801264FF003083C239448CDF8408087
:101A00000DA902274FF0040ACDE90D360F9406F018
:101A10003DFF90480F940DA9CDE90DA6109706F053
:101A200035FF4FF440538C480DA9CDE90D36CDE973
:101A30000F4706F02BFF212388480F940DA9CDE90D
:101A40000D3806F023FF0C2385480F960DA94FF0A3
:101A5000070BCDE90D3406F019FF0DA94FF4C06353
:101A60007E48CDF844B0CDE90D37CDE90F4806F0FA
:101A70000DFF7C487C4B036006F0FEFD7B4A7C4BEF
:101A80002C62C5E9002328464FF48043C5E904349D
:101A9000C5E90244C5E9064407F0F0F910212846DB
:101AA00007F034FC2146284607F04FFC7148724984
:101AB00084624FF48273C0E900134FF40075182359
:101AC0004FF00A09C0E90653C0E902446B4DC0F863
:101AD0002C90C0E90444C0E9084408F01DFB684BA1
:101AE00013974FF0100CC5E900364023C5E904C335
:101AF0004FF4C073C5E906344FF40063C5E90834F8
:101B00000DA94FF400532846AB62C5E9024ACDE95E
:101B10000FABCDE90D7BCDE911874FF0080B08F035
:101B2000DFF94FF6FF7209A92846CDE90AB60894F5
:101B300009960C9408F0F4F9304606F003FB4FF6D2
:101B4000FF7209A92846CDE9097BCDE90B6408F0AD
:101B5000E7F94FF6FF7209A92846CDE9098BCDE9CF
:101B60000BA408F0DDF94FF40C730893089B0C9359
:101B70004FF6FF7209A92846CDE909AB0B9608F08C
:101B8000CFF940F26A51284608F0E8F9342221469C
:101B90000DEB020025F07BFD3A4D3B4B2C61C5E976
:101BA00000340923C5E905361D2340F20D1EC5E9A1
:101BB000073840F24313C5E909E3284640F24713CA
:101BC00040F21718C5E90B83C5E90244AC8685F8D5
:101BD000364007F055FCFF21F022CDE912144FF4F6
:101BE000806A05214FF4A073CDE90E24CDE914A13C
:101BF000CDE916420DA922462846CDE91037234DDE
:101C000018930D94ADF864408DF8664007F003FD1D
:101C10001F4B2B601B6898472B681E4DDB6898474D
:101C20001D4B2846C5E90034C5E90274C5E90A47D9
:101C3000C5E90C4406F030FD3146284606F0E2FDC9
:101C4000FEF736FD2AE000BF0038024000100240D7
:101C50008C2F002000080240000C024000000240CF
:101C6000001802402030002000300240005C00409C
:101C7000A08601008C2E002000500140582E00202C
:101C8000400100A0E42E002000680140BC2D00208F
:101C900014000020E02F002000B00240FEF707FDF6
:101CA000FFF712FE09F0C2F80F4A3146484609F024
:101CB000D8F90E4B0E4A186021460E4809F0E2F89A
:101CC0000D4B0E4A186021460D4809F0DBF80D4B0C
:101CD0000D4A186021460D4809F0D4F80C4B1860E5
:101CE00009F0B6F8FEE700BFD4980208C02D002026
:101CF00034990208CD170008CC2D00201099020855
:101D0000BF060008C82D0020EC9802084116000804
:101D1000C42D0020704770477FB5094B8DF8172000
:101D20001B6802930DF117020123009201930A46EA
:101D30000146044807F04AF907B05DF804FB00BF0C
:101D4000100000208C2F00207FB500238DF8173065
:101D5000084B1B6802930A4601230DF117010091FD
:101D600001930146044807F0C1F99DF8170007B038
:101D70005DF804FB100000208C2F00201FB5084CDC
:101D800024680092CDE901340A4601230146054842
:101D900007F0ACF9003818BF012004B010BD00BF37
:101DA000100000208C2F002006F0CCB910B5064C96
:101DB00000222046042106F053FE20460122BDE801
:101DC0001040042106F04CBE0008024038B50B4D0F
:101DD000044601220A484FF4005106F041FE002259
:101DE0000421284606F03CFE2046FFF7DDFC28468D
:101DF0000122BDE83840042106F032BE000802404E
:101E0000000C024038B50B4D044600220A484FF43E
:101E1000005106F025FE00220421284606F020FE8F
:101E20002046FFF7C1FC28460122BDE838400421C6
:101E300006F016BE00080240000C0240F7B5144E32
:101E4000144F05460C4630460022042106F008FED9
:101E500000224FF40051384606F002FE2846FFF7F4
:101E6000A3FC0D4B0D481B68224601A908F05CFB42
:101E7000384601224FF40051019C06F0F1FD304636
:101E80000122042106F0ECFD204603B0F0BD00BFA6
:101E900000080240000C02400C0000208C2E0020A4
:101EA00006F050B90268034B9A4201D106F038B9E6
:101EB000704700BF001000407047000082B00E4B1A
:101EC00000220092596C41F480415964596C01F42C
:101ED0008041009100990192196C41F08051196480
:101EE0001B6C03F080530193019B0F216FF00100E5
:101EF00002B006F081BB00BF003802400268094B07
:101F00009A4282B00BD100230193074B1A6B42F423
:101F100080521A631B6B03F480530193019B02B040
:101F2000704700BF003002400038024007B50F4B39
:101F300002689A4216D10022A3F5F0430192196B70
:101F400041F4000119631B6B03F4000301930521A5
:101F50005A20019B06F050FB5A2003B05DF804EBB9
:101F600006F07CBB03B05DF804FB00BF00B002408C
:101F70002DE9F043044689B01422002103A825F07E
:101F800086FB2268244B9A4243D1244C24480025E6
:101F90000095236B43F004032363236B03F00403D6
:101FA0000093009B0195236B43F001032363236B94
:101FB00003F001030193019B4FF012094FF40073EA
:101FC0004FF001080327042603A9CDE90339CDE921
:101FD0000587079606F05AFC4FF480731148079660
:101FE00003A9CDE90339CDE9058706F04FFC029539
:101FF000236C43F400032364236C03F40003029373
:10200000029B236A43F400032362236A23F4000340
:10201000236209B0BDE8F083005C00400038024054
:102020000008024000000240F0B599B004461422B6
:10203000002107A825F02BFB30220DEB0200002128
:1020400025F025FB22685E4B9A4240F0B7800823BA
:102050000C93C0231093042312930CA84FF4003365
:10206000159307F011FE08B1FFF726FF554B5648B0
:10207000002400945A6C42F080625A645A6C02F058
:1020800080620092009A01941A6B42F020021A6357
:102090001A6B02F020020192019A02941A6B42F02C
:1020A00001021A631A6B02F001020292029A03946F
:1020B0001A6B42F002021A631A6B02F002020392D8
:1020C000039A04941A6B42F040021A631A6B02F0EE
:1020D00040020492049A05941A6B42F004021A63B7
:1020E0001A6B02F004020592059A06941A6B42F0EC
:1020F00008021A631B6B03F00803069302250E26E1
:10210000069B0B964FF4806307A9CDE90735CDE90F
:10211000094506F0BBFB41F658032C480B9607A96E
:10212000CDE907350927CDE9094506F0AFFB0323C3
:1021300027480B9707A9CDE90735CDE9094506F0F2
:10214000A5FB4FF4706322480B9607A9CDE907352C
:10215000CDE9094506F09AFB4FF40C631D480B9638
:1021600007A9CDE90735CDE9094506F08FFBC02366
:1021700019480B9607A9CDE90735CDE9094506F0C1
:1021800085FB082315480B9607A9CDE90735CDE94E
:10219000094506F07BFB4FF4A0530E480B9707A9A7
:1021A000CDE90735CDE9094506F070FB58202246F8
:1021B000052106F021FA582006F050FA19B0F0BDBA
:1021C0000068014000380240001402400000024054
:1021D000000402400018024000080240000C0240C7
:1021E00010B5044688B01422002103A825F04FFA48
:1021F0002268144B9A4223D103F5684300210191D0
:102200005A6C114842F480125A645A6C02F48012DB
:102210000192019A02911A6B42F020021A631B6B21
:1022200003F020030293029B4FF460720223032108
:10223000CDE903230523CDE9061303A906F026FB08
:1022400008B010BD00500140001402402DE9F041DB
:1022500086B0002303932B4B1C68002C4FD14FF00A
:102260000108C3F80080284B00949A6B274842EA83
:1022700008029A639B6B03EA080300930227032674
:102280000C25009B01A94FF63F03CDE90137CDE9AD
:10229000046506F0FBFA1E48059501A9CDE9018702
:1022A000CDE9034606F0F2FA48F2331319480595D2
:1022B00001A9CDE90137CDE9034606F0E7FA4FF66B
:1022C00083731548059501A9CDE90137CDE903468A
:1022D00006F0DCFA4CF203731048059501A9CDE92C
:1022E0000137CDE9034606F0D1FA60230C48059585
:1022F00001A9CDE90137CDE9034606F0C7FA06B0DA
:10230000BDE8F0812830002000380240001402406F
:10231000000802400018024000100240000C024079
:102320000004024070B588B000230293204B1A6C61
:1023300042F010021A641B6C03F01003029305466E
:1023400001A903A8029B07F081FC069B4BBB07F089
:102350005DFC184E184B336040F2E733F360174BC7
:10236000B0FBF3F3013B7360304600233361B3608D
:10237000B36108F0A9FA044680B9304608F07AF94A
:10238000044658B9362006F069F90F2D0DD82246BB
:102390002946362006F030F9094B1D60204608B06A
:1023A00070BD07F033FC4000D3E70124F6E700BF1F
:1023B000003802402C3000200010004040420F0046
:1023C0007C0000207047FEE7FEE7FEE7FEE770476F
:1023D000014808F08DB900BF2C300020014807F0FB
:1023E000BDB800BFE42E0020014806F081B900BF4F
:1023F000E02F00200120704708B525F0EBF91623E7
:1024000003604FF0FF3008BD08B525F0E3F916234F
:102410000360FEE770B50D4614460E46731B9C42E2
:1024200001DC204670BDAFF3008006F8010BF5E734
:102430004FF0FF3070474FF400534B60002070475F
:10244000012070470020704710B54FF0FF3314464D
:10245000024892B208F0E9FB204610BDD02D0020C2
:102460000A4A116808B5034609B90949116010689C
:10247000694603448B4206D925F0ACF90C2303606E
:102480004FF0FF3008BD1360FCE700BF7430002040
:10249000A04C0120704708B50C2924D8DFE801F0D2
:1024A000070B0F13171F1F1F1F1B1F1F1F0004F0F9
:1024B00057F9006808BD04F053F94068FAE704F0E2
:1024C0004FF98068F6E704F04BF9C068F2E704F0D2
:1024D00047F90069EEE704F043F98069EAE704F0A0
:1024E0003FF94069E6E70020E4E710B5042104461F
:1024F00023F078FF204610BD004870476C99020811
:102500000520704713B5002451B1036801948DF87C
:10251000034001AA9C680DF10303A04702B010BD5F
:102520000846FBE7C0897047008A7047C08870473B
:1025300080887047807A00F07F007047807AC009F9
:1025400070470020704700009FED010A704700BFF0
:102550000000000070477047704770477047704731
:1025600030B5036885B06D460181D3F884300146EB
:1025700004462846984795E807003C3484E807005D
:1025800005B030BD30B5036885B06D464181D3F8E4
:102590008430014604462846984795E807003C34B5
:1025A00084E8070005B030BD0022028042808280AE
:1025B000C280704780F83610704770B503680446D3
:1025C0001B6B154698472368294620465B6EBDE87D
:1025D0007040184700207047806C70477047704704
:1025E000704710B50821044623F0FCFE204610BDBC
:1025F00010B54C21044623F0F5FE204610BD10B561
:102600002C21044623F0EEFE204610BD0B898A895A
:10261000D21A4B89C988591A12B209B212F02ABBD0
:1026200010B5034B036004460FF00AFD204610BDB1
:10263000E09A020810B5064B036004460FF000FD57
:10264000204641F2B85123F0CDFE204610BD00BF18
:10265000E09A020808B590F826300BB1FEF704FFA7
:1026600008BD08B5FEF700FF08BD0000036870B59F
:102670005E6B124B1B6804468DB22BB9104B114A8E
:102680006C21114824F0EAFD1049828D098891429D
:1026900003D80F4B0B4A6D21F3E713F812200D4BB3
:1026A0001B6853F8220003681B6B9847291A3346AE
:1026B000204609B2BDE87040184700BFB83F01206E
:1026C00002880208448802087F880208BC3F012073
:1026D000C6880208C03F012010B500F58054D4F828
:1026E000B4350133B42BC4F8B43506D111F0A2F9D6
:1026F00000F0FAFF0023C4F8B43510BD00224FF0FB
:10270000FF31C0E900218260704770B5036804465C
:102710001B6B154698472368294620465B6BBDE82E
:102720007040184770B504461D46BDF91060FFF7AC
:10273000ECFF2368294620469B6B98472368314667
:102740002046DB6BBDE8704018470000094A026074
:102750004FF4807100228184FF21C0E90122C0E989
:102760000322C0E90522C0E9072280F82610826210
:10277000704700BFACA602084FF4807181840D49F8
:1027800001600D4981624FF6FF7181854FF47F0131
:10279000002241634FF0FF31C0E90122C0E903226A
:1027A000C0E90522C0E90722C0E9101202630287CE
:1027B000C26370471CA60208D89902082DE9F04FA1
:1027C000044691B027464FF0000B13F029F8D44B84
:1027D000C4F83CB047F8403B04F16C063846FFF7BC
:1027E000B5FF04F198083046FFF7B0FF4046FFF709
:1027F000ADFF04F1C40318460593FFF7A7FF04F1EA
:10280000F003184606930DF045F904F59C7318463D
:102810000993FEF757FEC34BC4F838312433C4F88C
:10282000403104F5A6731846C4F844B1BE4D089370
:102830004FF00109FFF78AFF04F5BC7304F5D27A63
:102840001846C4F84C5184F870910793FFF77EFF47
:10285000C4F8785184F89C915046FFF78DFF04F539
:10286000F67318460293FFF787FF04F50D731846B9
:10287000AE4D0393FFF780FF04F52073C4F8345284
:102880001846C4F87CB20493FFF776FF04F5805332
:10289000C4F88052C4F8C8B2F025C3F8B4B54FF4F8
:1028A000965104F53D700FF0C1FB5A46384600952D
:1028B0004FF4A073594604F10409FFF733FF4FF0BA
:1028C0007F433946A36648460AF0A2FB4FF0FF3724
:1028D0004FF4A0735A46304600955946FFF722FF41
:1028E0003146C4F8947048460AF092FB0222EC2369
:1028F0001146404600934FF49F73FFF713FF8C4B34
:10290000C4F8C030414648460AF082FB5A46059852
:1029100000950323A021FFF705FFDC230599C4F8E8
:10292000EC7084F8EA3048460AF072FB0E237222FB
:10293000069800939B21FFF7F5FEC023C4F82431CD
:102940004FF43453C4F82C317A4BC4F8443149F66F
:102950006103A4F84831099B0699C4F81831C4E909
:10296000475548462825C4F830B1C4F828B10AF0C4
:102970004FFB05236422089800950821FFF7D2FE3B
:102980000899C4F8747148460AF042FB0523642292
:10299000079800954FF49A71FFF7C4FE4FF0340882
:1029A0000799C4F8A07148466D440AF031FB13231F
:1029B0005F225046CDF800807421FFF7B3FE5146E8
:1029C000C4F8D4712846A4F8D8B10DF06FFE95E88C
:1029D000070004F5F07686E807004FF00302514641
:1029E00084F8DD2128460DF061FE95E807004FF0E0
:1029F000010386E80700514684F8DC3128460DF0D3
:102A000055FE95E80700152386E8070050464A4E14
:102A1000ADF83C300EA90E960EF0F0F86FF04101C3
:102A200084F8DA11484651460AF0F2FA13235F227D
:102A30000298CDF80080BB21FFF774FE0299C4F81C
:102A40001C722846A4F820B20DF030FE95E807006D
:102A500004F50A7888E807004FF00302029984F829
:102A60002522284617460DF021FE95E8070088E844
:102A70000700029984F8247228460DF017FE95E8A5
:102A8000070088E807000EAA122311460298ADF845
:102A90003C300E960EF0B2F86FF0410184F822122D
:102AA00048460299DFF8ACA00AF0B2FA7022039807
:102AB0003521FFF72AFE214BC4F86432D4F83432B2
:102AC0000399D3F88430A4F868B22846984795E86B
:102AD000070004F51C774FF0010387E8070084F82E
:102AE0006C32D4F834320399D3F8843028469847AE
:102AF00095E80700DAF8003087E8070004F5337737
:102B00002BB90F4B0F4A60210F4824F0A7FB0F4B46
:102B10001B88092B20D80E4B0A4A6121F4E700BF1D
:102B2000E09A0208DCA30208789A0208E8990208F1
:102B300037380CFF0C0C99FFD89902085FABDEFF09
:102B400002880208048902087F880208BC3F01202D
:102B5000C6880208B83F0120DFF8F0800921D8F8C4
:102B6000000003F0EDFD364A03460A21384614F012
:102B700037FB0398C4F87C720EF020F8D227142398
:102B80000398ADF83C300EA90E960EF037F8039975
:102B900084F86A7248460AF03BFA6F220498F321DF
:102BA000FFF7B3FD274BC4F8B032D4F88032049954
:102BB000D3F88430A4F8B4B22846984795E80700C3
:102BC00004F52F7B4FF003038BE8070084F8B8323D
:102BD000D4F880320499D3F884302846984795E891
:102BE0000700DAF800308BE8070004F53875002B91
:102BF00087D0154B1B88092B8DD9D8F800000921E7
:102C000003F09EFD0E4A03460A21284614F0E8FA16
:102C10000498C4F8C8520DF0D1FF13230498ADF8FE
:102C20003C300EA90E960DF0E9FF4846049984F851
:102C3000B6720AF0EDF9204611B0BDE8F08F00BF82
:102C40004F8902085FABDEFFBC3F0120C43F01207B
:102C50007047000010B5034B036004460FF0F0F915
:102C6000204610BD149B020810B5064B03600446B5
:102C70000FF0E6F9204641F2B45123F0B3FB2046B1
:102C800010BD00BF149B02082DE9F04F044691B01F
:102C90002546002612F0C4FD834BE66345F8403B11
:102CA0002846FFF753FD04F16C03184604F1980A17
:102CB000059304F1C409FFF749FD5046FFF746FDAF
:102CC0004846FFF743FD04F1F0031846774F089399
:102CD0004FF00108FFF73AFD04F58E731846C4F86B
:102CE000F07084F814810793FFF730FD84F8408179
:102CF00004F5A478C4F81C7140466D4F04F5CA7BF6
:102D0000FFF73AFDC4F84871C4F890615846FFF7E0
:102D100033FD04F5F073C4F894711846C4F8DC610F
:102D20000393FFF729FD04F50A7318460493FFF790
:102D300023FD04F51C73184606930CF0ABFE04F556
:102D40002E7318460993FEF7BDFB5A4BC4F8B832F0
:102D50002433C4F8C0324FF4965104F53D70C4F8E2
:102D6000C4620FF063F9F0233246284600933146DF
:102D70004FF4A073FFF7D6FC271D4FF07F43294681
:102D8000A36638460AF044F9F023324605980093CA
:102D900031464FF4A073FFF7C5FC4FF0FF330599A0
:102DA000C4F8943038460AF033F90222EC23114675
:102DB000504600934FF49E73FFF7B4FC3E4BC4F8AB
:102DC000C030514638460AF023F9F02332464846CF
:102DD0000093A0210323FFF7A5FC4FF0FF33C4F8B5
:102DE000EC30DC234946282584F8EA3038460AF0DE
:102DF0000FF964220898009505230821FFF792FC3B
:102E00004FF0FF330899C4F8183138460AF000F93A
:102E1000642207980095052340F23311FFF782FCE6
:102E20004FF0FF33C4F844310799DFF8A8A03846C3
:102E30000AF0EEF81622B8214046FFF766FC1F4B59
:102E4000C4F87831D4F84831A4F87C616D44D3F8E3
:102E5000843041462846984795E8070004F5C27932
:102E60004FF0030389E8070084F88031D4F8483133
:102E70004146D3F884302846984795E80700DAF8A9
:102E8000003089E8070004F533792BB90C4B0D4A63
:102E900060210D4824F0E2F90C4B1B88062B1BD84F
:102EA0000B4B084A6121F4E7149B0208789A020848
:102EB000E8990208DCA3020837380CFF565659FF80
:102EC00002880208048902087F880208BC3F0120AA
:102ED000C6880208B83F01207E4B0621186803F01F
:102EE0002FFC7D4A03460A21484614F079F94046F2
:102EF000C4F890910DF062FEDFF8EC91CDF83890B7
:102F0000212340460EA9ADF83C300DF077FE414636
:102F100038460AF07DF8C32275215846FFF7F5FBC5
:102F2000D4F894316D4AD3F88430C4F8C42159469A
:102F30002846A4F8C861984795E8070004F5E878A2
:102F4000D4F8943188E807004FF00102D3F88430B8
:102F500084F8CC2159462846984795E80700DAF8C6
:102F6000003088E8070004F53878002B8ED05C4AE2
:102F70001388052B94D9574B0521186803F0E0FB03
:102F8000554A03460A21404614F02AF9C4F8DC8168
:102F900058460DF013FE20230EA95846ADF83C30DC
:102FA0004FF0340ACDF838900DF028FE59463846D7
:102FB0000AF02EF80398CDF800A0B42213238C2138
:102FC000FFF7B0FB4FF0FF33C4F810320399A4F8B9
:102FD000146228460DF06AFB95E8070004F50778AF
:102FE00088E807004FF00102039984F81822284668
:102FF0000DF05CFB95E807001F2388E807000398A5
:10300000ADF83C300EA94FF0BE08CDF838900DF069
:10301000F5FD039984F81682384609F0F9FF049803
:10302000CDF800A007221323A521FFF77BFB4FF06B
:10303000FF330499C4F858322846A4F85C620DF0B6
:1030400035FB95E8070004F5197A4FF003038AE889
:103050000700049984F8603228460DF027FB95E8B4
:1030600007001E238AE807000498ADF83C300EA93B
:10307000CDF838900DF0C2FD049984F85E82384690
:1030800009F0C6FF0E230698009372229A21FFF7DB
:1030900049FBF023C4E9A733C023C4F8A4324FF49A
:1030A0003453C4F8AC320F4BC4F8C43249F6610350
:1030B000A4F8C832099B0699C4F8B0623846C4F82F
:1030C000A862C4F8983209F0A3FF204611B0BDE809
:1030D000F08F00BFC43F01204F890208565659FFA8
:1030E000BC3F01200C0C99FFD8990208704770472B
:1030F000704730B4C26844685510034604EB620060
:10310000D20748BF62599B6830BC48BFD3581847A4
:103110000346406830B19A681AB9D86800F00100D7
:1031200070470120704710B51021044623F05AF96A
:10313000204610BD10B54FF4CC71044623F052F96F
:10314000204610BD9830884208B505D110F072FCB9
:10315000BDE8084000F078BA08BD0000F8B5194B8A
:10316000018F1B888B4206462AD9174B1B682BB947
:10317000164B174A17486C2124F070F813F81120E9
:10318000154B1B6853F82250144B186803F0D8FAFB
:103190002B6807469B6B284698472B6804469B6C18
:1031A0003946284698472B6814FB00F45B6A394679
:1031B00028469847A4B223181BB2A6F84630F8BD9B
:1031C0000023FAE7BC3F0120B83F01200288020833
:1031D000448802087F880208C03F0120C43F0120C4
:1031E0002DE9F04F04468BB0A246002512F018FBE3
:1031F0006B4BE5634AF8403B04F16C0B504604F11D
:103200009809FFF7A3FA5846FFF7A0FA04F1E00681
:1032100048460EF04FF83046FFF7AEFA04F59678C0
:10322000604BC4F8E030C4F828514046FFF7A4FAD8
:103230005D4BC4E962345D4BC4E96435F0232A4632
:103240005046009329464FF4A073FFF76BFA271DF1
:103250004FF07F435146A366384609F0D9FEF0236C
:103260002A465846009329464FF4A073FFF75AFAAE
:103270004F4BC4F894305946384609F0C9FE4846C9
:10328000A4225B21FFF741FA08AA07A94846ADF836
:103290001C50ADF820500DF004FD23234846A4F83F
:1032A000D030FFF75BFF434ADFF82CA14FF0FF332C
:1032B000C4E9352304F5C473C4F8C0304946384620
:1032C00009F0A6FE5D2269213046FFF71EFAD4F808
:1032D000E030C4F810A10DF10809D3F88430A4F847
:1032E000145131464846984799E8070004F58E7313
:1032F00083E80700304B1B6804F5BA7B2BB92F4BD2
:103300002F4A60212F4823F0A9FF2F4B1B881BB9A0
:103310002E4B2B4A6121F5E72D4B2946186803F007
:103320000FFA2C4A03460A21584613F059FFC4F8F5
:1033300028B130460DF042FCDFF8A0B0CDF820B047
:10334000282308A93046ADF824300DF057FC31464B
:10335000384609F05DFE1C2240465B21FFF7D5F997
:1033600041464846C4F85CA1A4F860510DF09EF9AE
:1033700099E8070004F5B47383E80700222308A93D
:103380004046ADF82430CDF820B00DF037FC38467B
:10339000414609F03DFE20460BB0BDE8F08F00BF6E
:1033A000609B0208E8990208489B02084531000822
:1033B000EDDCADFFF5F1EDFFB83F0120028802081A
:1033C000048902087F880208BC3F0120C6880208E1
:1033D000C43F01204F89020869463FFFD89902087F
:1033E0007047704700F598730868496803C37047D1
:1033F000704770474160704710B50022B1F908402E
:10340000B1F90A10028042808480C18010BD7047EB
:1034100070477047064BC0F84C310023C0F850315C
:1034200000F5A273C0F84801C0F84031704700BFF2
:103430007D3C000801230372704770477047704756
:1034400001464068036810315B6E184701464068CA
:10345000036810311B6E1847704710B4C26841688A
:103460005410034601EB6200D20748BF0A599B681B
:103470005DF8044B48BFD35818470346406830B145
:103480009A681AB9D86800F00100704701207047A7
:1034900010B50C21044622F0A5FF204610BD10B542
:1034A0001021044622F09EFF204610BD10B54FF4B7
:1034B000AE71044622F096FF204610BD10B53821AB
:1034C000044622F08FFF204610BD10B52821044687
:1034D00022F088FF204610BD10B510F0ABFA03684B
:1034E000BDE81040DB6B184737B50446807A637A35
:1034F0000130C0B29842A07205D901232372002383
:10350000A37203B030BDB4F90C20002112F03AFBD5
:10351000C30707D500284FF6FF73C8BF012313FA6E
:1035200080F000B2144BE0811988258B83B21348D8
:10353000B0F90000ADF80600CA1A60682B445B1AA7
:1035400012B2ADF8043003682283ADF800200022E7
:103550001B69ADF8022069469847A37A012BD0D1A8
:10356000074B1B78002BCCD010F064FA03B0BDE8F9
:10357000304010F065BA00BF543F0120563F012093
:103580005E3F012010B50446D0F8400158B10368F1
:10359000DB68984738B1D4F8400103689B689847C6
:1035A0000023C4F8403110BD044B1B6893F8582029
:1035B0000AB1D86C00B99868704700BF603F01201D
:1035C000F8B5174604460E4610F01EFB124B1C6061
:1035D000124B2360124B0025C4E95135114BC4E94D
:1035E00053551868036829469B68C4E94F55C4E9D8
:1035F00055769847284603F067F8FFF7D5FF1AF08D
:10360000EEFDFFF7D1FF1AF065FEFFF7CDFF1AF0D0
:103610006DFE2046F8BD00BFB43F0120149C020897
:10362000FC9B0208603F0120064BC0F84C31002390
:10363000C0F8503100F5A273C0F84801C0F840311D
:10364000704700BF7D3C0008064BC0F84C3100239A
:10365000C0F8503100F5A273C0F84801C0F84031FD
:10366000704700BFE5410008064BC0F84C3100230D
:10367000C0F8503100F5A273C0F84801C0F84031DD
:10368000704700BF313B0008064BC0F84C310023A7
:10369000C0F8503100F5A273C0F84801C0F84031BD
:1036A000704700BFAD400008064BC0F84C31002306
:1036B000C0F8503100F5A273C0F84801C0F840319D
:1036C000704700BFE5390008064BC0F84C310023B5
:1036D000C0F8503100F5A273C0F84801C0F840317D
:1036E000704700BF713F0008064BC0F84C31002303
:1036F000C0F8503100F5A273C0F84801C0F840315D
:10370000704700BF99380008064BC0F84C310023C1
:10371000C0F8503100F5A273C0F84801C0F840313C
:10372000704700BF353E0008064BC0F84C310023FF
:10373000C0F8503100F5A273C0F84801C0F840311C
:10374000704700BF5137000803685B6A18470000E4
:103750002DE9F14FD0E9556A0746B06803681B6A46
:103760009847B0F5CC7F05D2434B444AA321444847
:1037700023F074FD706803681B6A98470F2803D80C
:10378000404B3E4AA421F2E7F06803681B6A984761
:103790000B2803D83C4B394AA521E8E710F04AF939
:1037A000DFF8EC90043010F092F9D9F8000010B175
:1037B0000368DB689847D9F8000010B103681B68FC
:1037C0009847DFF8D080D8F8000010B103685B6933
:1037D0009847D7F83C0110B103685B689847D8F860
:1037E000000010B103681B689847D7F83C0110B17E
:1037F00003689B689847F0680021FFF7A5FF4FF02A
:10380000000B224BC0F804B0044680F808B00360F7
:10381000B068036859465B6A9847054603F00AFC9E
:103820007068036859465B6A98472946064603F064
:10383000DDFB331DC7F83C61C9F80040C8F80050F3
:10384000CAF800302B68C6F808A02846DB68EE638B
:103850009847336830461B6898472146284612F03F
:103860008BF9236820461B69984723685B692046CB
:1038700001B0BDE8F04F184752890208E0890208FC
:10388000B68A0208FD8A0208A08B0208689C02081A
:10389000A83F0120A43F01202DE9F14FD0E9556A4E
:1038A0000746B06803681B6A984741F2DB539842A9
:1038B00005D8444B444AA321444823F0CFFC706808
:1038C00003681B6A98470F2803D8414B3E4AA4213E
:1038D000F2E7F06803681B6A98470B2803D83D4B52
:1038E000394AA521E8E710F0A5F8DFF8F090043098
:1038F00010F0EDF8D9F8000010B10368DB689847C4
:10390000D9F8000010B103681B689847DFF8D08031
:10391000D8F8000010B103685B699847D7F83C01FC
:1039200010B103685B689847D8F8000010B10368CD
:103930001B689847D7F83C0110B103689B6898470B
:10394000F0680021FFF700FF4FF0000B224BC0F89A
:1039500004B0044680F808B00360B06803685946B4
:103960005B6A9847054602F0F5FF706803685946A0
:103970005B6A98472946064602F0C0FF331DC7F828
:103980003C61C9F80040C8F80050CAF800302B6804
:10399000C6F808A02846DB68EE63984733683046CF
:1039A0001B6898472146284612F0E6F8236820460F
:1039B0001B69984723685B69204601B0BDE8F04F5A
:1039C000184700BF52890208438C0208B68A0208D1
:1039D000FD8A0208A08B0208689C0208A83F01200B
:1039E000A43F01202DE9F14FD0E9556A0746B068A0
:1039F00003681B6A984741F24363984205D8444BD9
:103A0000444AA321444823F029FC706803681B6AD8
:103A100098470F2803D8414B3E4AA421F2E7F068AB
:103A200003681B6A98470B2803D83D4B394AA521E8
:103A3000E8E70FF0FFFFDFF8F090043010F047F8F0
:103A4000D9F8000010B10368DB689847D9F8000086
:103A500010B103681B689847DFF8D080D8F80000E1
:103A600010B103685B699847D7F83C0110B103684F
:103A70005B689847D8F8000010B103681B68984746
:103A8000D7F83C0110B103689B689847F0680021A3
:103A9000FFF75AFE4FF0000B224BC0F804B004466B
:103AA00080F808B00360B068036859465B6A9847BD
:103AB000054603F0AFFC7068036859465B6A984797
:103AC0002946064603F07AFC331DC7F83C61C9F865
:103AD0000040C8F80050CAF800302B68C6F808A0AB
:103AE0002846DB68EE639847336830461B68984782
:103AF0002146284612F040F8236820461B69984763
:103B000023685B69204601B0BDE8F04F184700BF4D
:103B1000528902081B8D0208B68A0208FD8A020833
:103B2000A08B0208689C0208A83F0120A43F012046
:103B30002DE9F14FD0E9556A0746B06803681B6A62
:103B4000984741F2F763984205D8444B444AA32171
:103B5000444823F083FB706803681B6A98470F286A
:103B600003D8414B3E4AA421F2E7F06803681B6A80
:103B700098470B2803D83D4B394AA521E8E70FF0B9
:103B800059FFDFF8F09004300FF0A1FFD9F80000E2
:103B900010B10368DB689847D9F8000010B10368DA
:103BA0001B689847DFF8D080D8F8000010B1036890
:103BB0005B699847D7F83C0110B103685B68984788
:103BC000D8F8000010B103681B689847D7F83C018B
:103BD00010B103689B689847F0680021FFF7B4FDB7
:103BE0004FF0000B224BC0F804B0044680F808B038
:103BF0000360B068036859465B6A9847054603F05E
:103C00002FFB7068036859465B6A98472946064649
:103C100003F004FB331DC7F83C61C9F80040C8F845
:103C20000050CAF800302B68C6F808A02846DB68A8
:103C3000EE639847336830461B689847214628460C
:103C400011F09AFF236820461B69984723685B6937
:103C5000204601B0BDE8F04F184700BF5289020866
:103C6000F78D0208B68A0208FD8A0208A08B0208B6
:103C7000689C0208A83F0120A43F01202DE9F14FD4
:103C8000D0E9556A0746B06803681B6A984741F651
:103C90007B03984205D8444B444AA321444823F06F
:103CA000DDFA706803681B6A98470F2803D8414BF8
:103CB0003E4AA421F2E7F06803681B6A98470B2884
:103CC00003D83D4B394AA521E8E70FF0B3FEDFF8F2
:103CD000F09004300FF0FBFED9F8000010B103683B
:103CE000DB689847D9F8000010B103681B68984753
:103CF000DFF8D080D8F8000010B103685B699847FE
:103D0000D7F83C0110B103685B689847D8F8000009
:103D100010B103681B689847D7F83C0110B10368DD
:103D20009B689847F0680021FFF70EFD4FF0000BED
:103D3000224BC0F804B0044680F808B00360B068B5
:103D4000036859465B6A9847054603F015FF70689B
:103D5000036859465B6A98472946064603F0EAFE1F
:103D6000331DC7F83C61C9F80040C8F80050CAF8D4
:103D700000302B68C6F808A02846DB68EE63984739
:103D8000336830461B6898472146284611F0F4FEF8
:103D9000236820461B69984723685B69204601B069
:103DA000BDE8F04F184700BF52890208CF8E0208C5
:103DB000B68A0208FD8A0208A08B0208689C0208E5
:103DC000A83F0120A43F012003685B6A1847000058
:103DD000002370B5C0E90533C0E90733C0E90933F2
:103DE000C0E90B33436003728372C3814FF4807365
:103DF00043630C4B03610C4B4172B3F900100B4B46
:103E00000B4AB3F90060026000F11005044681819D
:103E10002846FDF773FA28463146FDF771FA204629
:103E200070BD00BF949B0208543F0120563F012003
:103E30008C9C02082DE9F047D0E9556A0746B06826
:103E400003681B6A984741F2BB53984205D8414B1F
:103E5000414AA321414823F001FA706803681B6AB4
:103E600098470F2803D83E4B3B4AA421F2E7F0685D
:103E700003681B6A9847372803D83A4B364AA5216E
:103E8000E8E70FF0D7FDDFF8E09004300FF01FFEF9
:103E9000D9F8000010B10368DB689847D9F8000032
:103EA00010B103681B689847DFF8C080D8F800009D
:103EB00010B103685B699847D7F83C0110B10368FB
:103EC0005B689847D8F8000010B103681B689847F2
:103ED000D7F83C0110B103689B689847F06800214F
:103EE000FFF772FF14210446FFF772FFB068036802
:103EF00000215B6A9847054602F0A2FC70680368DF
:103F000000215B6A98472946064602F063FC331D90
:103F1000C7F83C61C9F80040C8F80050CAF8003042
:103F20002B68C6F808A02846DB68EE63984733681C
:103F300030461B6898472146284611F01DFE23682D
:103F400020461B699847236820465B69BDE8F04717
:103F5000184700BF52890208A98F0208B68A0208D2
:103F6000FD8A0208A08B0208A83F0120A43F01207F
:103F70002DE9F047D0E9556A0746B06803681B6A27
:103F8000984741F22363984205D8414B414AA32107
:103F9000414823F063F9706803681B6A98470F284B
:103FA00003D83E4B3B4AA421F2E7F06803681B6A42
:103FB0009847372803D83A4B364AA521E8E70FF04F
:103FC00039FDDFF8E09004300FF081FDD9F80000F2
:103FD00010B10368DB689847D9F8000010B1036896
:103FE0001B689847DFF8C080D8F8000010B103685C
:103FF0005B699847D7F83C0110B103685B68984744
:10400000D8F8000010B103681B689847D7F83C0146
:1040100010B103689B689847F0680021FFF7D4FE51
:1040200014210446FFF7D4FEB068036800215B6AE0
:104030009847054603F064F97068036800215B6ADD
:1040400098472946064603F025F9331DC7F83C6119
:10405000C9F80040C8F80050CAF800302B68C6F80C
:1040600008A02846DB68EE639847336830461B6833
:1040700098472146284611F07FFD236820461B699A
:104080009847236820465B69BDE8F047184700BFA2
:10409000528902089D900208B68A0208FD8A020829
:1040A000A08B0208A83F0120A43F01202DE9F04782
:1040B000D0E9556A0746B06803681B6A9847B0F5AF
:1040C000B85F05D2404B414AA321414823F0C6F8CE
:1040D000706803681B6A98470F2803D83D4B3B4A1A
:1040E000A421F2E7F06803681B6A9847372803D8D1
:1040F000394B364AA521E8E70FF09CFCDFF8DC904D
:1041000004300FF0E4FCD9F8000010B10368DB685C
:104110009847D9F8000010B103681B689847DFF88A
:10412000C080D8F8000010B103685B699847D7F8E1
:104130003C0110B103685B689847D8F8000010B1E3
:1041400003681B689847D7F83C0110B103689B6867
:104150009847F0680021FFF737FE14210446FFF767
:1041600037FEB068036800215B6A9847054602F095
:10417000FBFF7068036800215B6A98472946064682
:1041800002F0BCFF331DC7F83C61C9F80040C8F815
:104190000050CAF800302B68C6F808A02846DB6833
:1041A000EE639847336830461B6898472146284697
:1041B00011F0E2FC236820461B69984723682046DB
:1041C0005B69BDE8F04718475289020895910208DB
:1041D000B68A0208FD8A0208A08B0208A83F0120C7
:1041E000A43F01202DE9F047D0E9556A0746B068A1
:1041F00003681B6A984741F67B03984205D8414BF8
:10420000414AA321414823F029F8706803681B6ADA
:1042100098470F2803D83E4B3B4AA421F2E7F068A9
:1042200003681B6A9847372803D83A4B364AA521BA
:10423000E8E70FF0FFFBDFF8E09004300FF047FCF9
:10424000D9F8000010B10368DB689847D9F800007E
:1042500010B103681B689847DFF8C080D8F80000E9
:1042600010B103685B699847D7F83C0110B1036847
:104270005B689847D8F8000010B103681B6898473E
:10428000D7F83C0110B103689B689847F06800219B
:10429000FFF79AFD14210446FFF79AFDB068036802
:1042A00000215B6A9847054603F066FC7068036866
:1042B00000215B6A98472946064603F03BFC331D04
:1042C000C7F83C61C9F80040C8F80050CAF800308F
:1042D0002B68C6F808A02846DB68EE639847336869
:1042E00030461B6898472146284611F045FC236854
:1042F00020461B699847236820465B69BDE8F04764
:10430000184700BF5289020889920208B68A02083B
:10431000FD8A0208A08B0208A83F0120A43F0120CB
:10432000406A7047806A704770478B88C0690A6826
:10433000DB0A50F823001044704710B50446BAB1A8
:10434000107B68B1537BD27A1B0203F4E0631A43FB
:10435000236A03EB82031A888A4202D193F902008E
:1043600010BD05D8013880B204330028F3D1F7E737
:104370000020F5E710B52C21044622F033F8204642
:1043800010BD000030B58BB00446BDF860500895F4
:10439000BDF85C5007959DF8505006959DF84C501F
:1043A00005959DF8485004959DF8445003959DF857
:1043B000405002959DF83C500195BDF8385000954D
:1043C00010F0A8FF064B2360159BE361169B236248
:1043D000199B63621A9BA36220460BB030BD00BFDD
:1043E000B09C02087047000010B5034B0360044600
:1043F0000DF026FE204610BD809D020810B5064B2C
:10440000036004460DF01CFE204641F2FC6121F0E1
:10441000E9FF204610BD00BF809D020810B500F5E1
:104420008054D4F8F8360133B42BC4F8F83606D1EA
:104430000FF000FBFFF718F90023C4F8F83610BDA1
:104440000022C0E90122C0E90322C0E90522C0E937
:1044500007224FF480728284014A0260704700BFD5
:10446000189D020838B5262204460D46002123F087
:104470000EF92046FFF7E4FF064B23602B88E38408
:10448000FF23204684F8283029460CF0D1FD204631
:1044900038BD00BF7CA702082DE9F04F044699B053
:1044A000A046002611F0BCF9DE4BE66348F8403B1D
:1044B00004F16C0B4046FEF749F94FF6FF7516A95B
:1044C0005846ADF85850FFF7CDFF04F1980304F1BA
:1044D000C40918460A93FEF739F94846FEF736F93B
:1044E00004F1F00318460B93FEF730F904F58E73D0
:1044F00018460C930BF0CEFA04F5B27318461193DC
:10450000FCF7E0FFC84BC4F864312433C4F86C31C5
:1045100004F5BC731846C4F87061C44F10934FF093
:10452000010AFEF713F904F5D2731846C4F878713E
:1045300084F89CA10F93FEF709F984F8C8A104F54B
:10454000E87AC4F8A4715046FEF716F904F506732C
:1045500018460493FEF710F904F518731846B44F83
:104560000E93FEF7F3F804F52573C4F8607218464D
:10457000C4F88C62A4F890620D93FEF7E7F804F596
:104580003273C4F894721846C4F8C062A4F8C462C6
:10459000A84F0393FEF7F0F804F54573C4F8C8720A
:1045A00016A91846C4F810630693ADF85850FFF7E3
:1045B00059FF04F5507316A918460793ADF85850E3
:1045C000FFF750FF04F55B7316A918460893ADF882
:1045D0005850FFF747FF04F5667318460593FEF73A
:1045E000CBF804F57973C4F8987316A91846C4F883
:1045F000E0630993ADF85850FFF734FF04F580539A
:10460000F025C3F8F8664FF4965104F587600DF075
:104610000DFD3246404600954FF4A0733146271DEC
:10462000FEF780F84FF07F43A3664146384608F016
:10463000EFFC584632463821FEF767F84FF0040287
:10464000584616A9ADF858200CF0F2FC59463846E9
:104650004FF0FF3B08F0DCFC4FF4A07332460A98A1
:1046600000953146FEF75EF80A99C4F8C0B03846A6
:1046700008F0CEFC0222EC231146484600934FF48A
:104680009E73FEF74FF86C4BC4F8EC304946384641
:1046900008F0BEFC32460B9800950323A021FEF7DC
:1046A00041F8DC230B9984F816313846C4F818B168
:1046B00008F0AEFC0E2372220C9800939A21FEF7AC
:1046C00031F8C023C4F850314FF43453C4F8583192
:1046D0005A4BC4F8703149F66103A4F87431119B48
:1046E0000C99C4F84431C4E9525538461425C4F82D
:1046F0005C61C4F8546108F08BFC05236E221098AD
:1047000000951A21FEF70EF81099C4F8A0B13846AA
:1047100008F07EFC05236E220F9800954FF49071EF
:10472000FEF700F80F99C4F8CCB1384608F070FCD9
:104730004FF034085E2212AD114613235046CDF8D7
:104740000080FDF7EFFF51462846C4F800B2A4F8F8
:1047500004620BF0ABFF95E8070004F503794FF016
:10476000010389E80700514684F8083228460BF017
:104770009DFF95E80700324B169389E807000D234B
:1047800050464FF0BE0916A9ADF85C300CF036FA71
:10479000514684F80692384608F03AFC13235D220D
:1047A0000498CDF80080CC21FDF7BCFF0499C4F833
:1047B00048B22846A4F84C620BF078FF95E8070051
:1047C00004F5157A4FF003088AE80700049984F885
:1047D000508228460BF06AFF95E80700184B1693A5
:1047E0008AE807000C230498ADF85C3016A90CF099
:1047F00005FA4FF0780A049984F84E92384608F08A
:1048000007FC3D220E98CDF800A00F230221FDF7F2
:1048100089FF4FF03C090B4B0E99C4F88C3284F899
:10482000869211E0809D0208DCA30208789A0208B3
:1048300014A70208E899020837380CFF0C0C99FFFE
:10484000D89902083493ADFF3846C4F888B2A4F86A
:10485000908208F0DDFB4A460D98CDF800A00F23AA
:104860004FF49771FDF75EFF794BC4F8C0320D9994
:1048700084F8BA923846C4F8BCB2A4F8C48208F0EE
:10488000C7FB6F2203982E21FDF73FFF714BC4F841
:10489000F832D4F8C8320399D3F88430A4F8FC6213
:1048A0002846984795E8070004F541794FF0010341
:1048B00089E8070084F80033D4F8C8320399D3F8A4
:1048C00084302846984795E80700634B1B6889E8C1
:1048D000070004F582692BB9604B614A6021614889
:1048E00022F0BCFC604B1B88082B03D85F4B5C4A52
:1048F0006121F4E7DFF880A10821DAF8000001F077
:104900001FFF5B4A03460A21484612F069FC0398E0
:10491000C4F810930CF052F9564B0398169316A94D
:104920000B234FF0D209ADF85C300CF067F9039916
:1049300084F8FE92384608F06BFBE6220698382190
:10494000FDF7E3FE0698ADF8588016A90CF070FB51
:104950000699384608F05CFBE5220798DF21FDF751
:10496000D4FE0798ADF8588016A90CF061FB0799A2
:10497000384608F04DFB089832463821FDF7C5FE51
:104980004FF004020898ADF8582016A90CF050FB1F
:104990000899384608F03CFB05986F22F521FDF791
:1049A000B4FED4F898332B4AD3F884300599C4F870
:1049B000C8232846A4F8CC63984795E8070004F577
:1049C000757383E80700244A84F8D0831368C4F819
:1049D000DC63C4E9F56B04F22445002B3FF47CAFA3
:1049E000214A1388082B81D9DAF80000082101F048
:1049F000A7FE1F4A03460A21284612F0F1FB05983C
:104A0000C4F8E0530CF0DAF81A4B0598169316A97F
:104A10000A23ADF85C300CF0F1F8059984F8CE93D8
:104A2000384608F0F5FA09980222DF21FDF76DFEFD
:104A30004FF004020998ADF8582016A90CF0F8FAC6
:104A40003846099908F0E4FA204619B0BDE8F08F1D
:104A50003493ADFF5FABDEFFB83F01200288020850
:104A6000048902087F880208BC3F0120C68802082A
:104A70004F890208D8990208C43F012070470000FE
:104A800010B5034B036004460DF0DAFA204610BD62
:104A9000B49D020810B5064B036004460DF0D0FA31
:104AA000204641F2F86121F09DFC204610BD00BF78
:104AB000B49D02082DE9F04F044699B0A0460026A7
:104AC00010F0AEFEC04BE66348F8403B04F16C0BBF
:104AD0004046FDF73BFE4FF6FF7516A904F1980A14
:104AE0005846ADF85850FFF7BDFC5046FDF72EFE76
:104AF00004F1C40318460A93FDF728FE04F1F003FD
:104B000018460B93FDF722FE04F58E7318460C939E
:104B10000AF0C0FF04F5B27318461193FCF7D2FCFB
:104B2000AA4BC4F864312433C4F86C3104F5BC7367
:104B30001846C4F87061A64F10934FF00109FDF7B5
:104B400005FE04F5D273C4F8787184F89C91184678
:104B50000F93FDF7FBFD04F5E8731846C4F8A47144
:104B600084F8C8919B4F039304F50779FDF704FE81
:104B7000C4F8D071C4F818624846FDF7FDFD04F58D
:104B80001A73C4F81C721846C4F864620493FDF7E3
:104B9000F3FD04F52C7318460593FDF7EDFD04F5C0
:104BA0003E7318468C4F0E93FDF7D0FD04F54B7302
:104BB000C4F8F8721846C4F82463A4F828630D9367
:104BC000FDF7C4FD04F55873C4F82C7316A91846F4
:104BD000C4F85863A4F85C630693ADF85850FFF727
:104BE00041FC04F5637316A918460793ADF85850B5
:104BF000FFF738FC04F56E7316A918460893ADF854
:104C00005850FFF72FFC04F57973184616A909933D
:104C1000ADF85850FFF726FCF0254FF4965104F5F7
:104C200087600DF003FA3246404600954FF4A073BA
:104C30003146271DFDF776FD4FF07F43A3664146C1
:104C4000384608F0E5F9324658463821FDF75DFD53
:104C50004FF00403584616A9ADF858300CF0E8F9A7
:104C60005946384608F0D4F93246504600954FF47C
:104C7000A0733146FDF756FD4FF0FF335146C4F89F
:104C8000C030384608F0C4F90222EC2311460A98D5
:104C900000934FF49E73FDF745FD504B0A99C4F8FD
:104CA000EC30384608F0B4F932460B9800950323EF
:104CB000A021FDF737FD4FF0FF33C4F81831DC2396
:104CC0000B9984F81631384608F0A2F90E237222A7
:104CD0000C9800939A21FDF725FDC023C4F85031AC
:104CE0004FF43453C4F858313D4BC4F8703149F691
:104CF0006103A4F87431119B0C99C4F84431C4E9E0
:104D0000525538461425C4F85C61C4F8546108F063
:104D10007FF96E221098009505231221FDF702FD00
:104D20004FF0FF331099C4F8A031384608F070F9FD
:104D30006E220F98009505234FF49471FDF7F2FC55
:104D40004FF0FF33C4F8CC310F99384608F060F9C2
:104D500016220398B821FDF7D8FC224BC4F8003284
:104D6000D4F8D0310399D3F88430A4F8046212AD9A
:104D70002846984795E80700D4F8D03104F5037821
:104D80004FF0030A88E80700D3F88430039984F8C9
:104D900008A22846984795E8070088E80700DFF84A
:104DA0005C80D8F8003004F5826B2BB90E4B0F4AAB
:104DB00060210F4822F052FA0E4B1B88012B1FD89E
:104DC0000D4B0A4A6121F4E7B49D0208DCA30208F6
:104DD000789A0208E899020814A7020837380CFFED
:104DE0000C0C99FF565659FF0288020804890208E4
:104DF0007F880208BC3F0120C6880208B83F012016
:104E0000A14B0121186801F09BFCA04A03460A212E
:104E1000584612F0E5F90398C4F818B20BF0CEFE2C
:104E20009B4B0398169316A91923ADF85C300BF031
:104E3000E5FE0399384608F0EBF8C3227521484691
:104E4000FDF763FCD4F81C329249D3F88430C4F8DF
:104E50004C1228464946A4F85062984795E8070046
:104E600004F5167BD4F81C328BE807004FF00101E3
:104E7000D3F8843084F8541228464946984795E878
:104E80000700D8F800308BE8070004F2244B002B11
:104E90008CD081490B88022B92D97B4A0221106861
:104EA00001F04EFC794A03460A21584612F098F95F
:104EB0004846C4F864B20BF081FE16AA744B1693F0
:104EC000114618234846ADF85C300BF097FE494672
:104ED00038464FF0340908F09BF813230498CDF8B6
:104EE0000090B4228C21FDF71DFC4FF0FF32049995
:104EF000C4F898222846A4F89C620BF0D7FB95E8EA
:104F0000070004F5297888E807004FF0010184F8CC
:104F1000A012284604990BF0C9FB95E807005C4BEA
:104F2000169388E8070017230498ADF85C3016A99B
:104F30004FF0BE080BF062FE049984F89E8238465A
:104F400008F066F813230598CDF800900722A521F4
:104F5000FDF7E8FB4FF0FF320599C4F8E022284640
:104F6000A4F8E4620BF0A2FB95E8070004F53B7996
:104F700089E80700059984F8E8A228460BF096FB1B
:104F800095E80700424B169389E807001623059819
:104F9000ADF85C3016A90BF031FE059984F8E68275
:104FA00038464FF0780808F033F83C4D0E98CDF8AD
:104FB00000803D220A230221FDF7B4FB4FF03C099B
:104FC0004FF0FF33C4E9C8350E99A4F828A338463A
:104FD00084F81E9308F01CF84A460D98CDF800801E
:104FE0000A234FF49A71FDF79DFB4FF0FF33C4E99C
:104FF000D5350D99A4F85CA3384684F8529308F08F
:1050000007F8E62206983821FDF77FFB0698ADF8F1
:1050100058A016A90CF00CF80699384607F0F8FFCE
:10502000E5220798DF21FDF770FB0798ADF858A03F
:1050300016A90BF0FDFF0799384607F0E9FF324645
:1050400008983821FDF761FB4FF004050898ADF88A
:10505000585016A90BF0ECFF0899384607F0D8FF16
:1050600002220998DF21FDF750FB0998ADF858504E
:1050700016A90BF0DDFF3846099907F0C9FF204655
:1050800019B0BDE8F08F00BFC43F01204F8902086E
:10509000D8990208565659FFBC3F01203493ADFF02
:1050A0007047000010B5034B036004460CF0C8FFC6
:1050B000204610BDE89D020810B5064B036004466B
:1050C0000CF0BEFF20464FF4B15121F08BF9204681
:1050D00010BD00BFE89D020810B500F58054D4F85B
:1050E0001C360133B42BC4F81C3606D10EF0A2FCDA
:1050F000FEF7DAFA0023C4F81C3610BD2DE9F04F94
:10510000044693B0A146002610F08AFBDE4BE6630E
:1051100049F8403B4846FDF719FB04F16C0304F1E4
:10512000980A18460493FDF711FB5046FDF70EFB55
:1051300004F1C40318460593FDF708FB04F1F003DE
:10514000184606930AF0A6FC04F59C7318460B93C8
:10515000FCF7B8F9CD4BC4F838312433C4F84031EA
:1051600004F5A6731846C4F84461C94D0A934FF07C
:105170000107FDF7EBFA04F5BC7304F5D278184685
:10518000C4F84C5184F8707104F5F67B0993FDF76F
:10519000DDFAC4F8785184F89C714046FDF7ECFACA
:1051A0005846FDF7E9FA04F50D731846B94D029318
:1051B000FDF7E2FA04F52073C4F834521846C4F837
:1051C0007C62B54F0893FDF7C1FA04F52D73C4F85E
:1051D00080721846C4F8AC62A4F8B0620793FDF779
:1051E000B5FA04F53A73C4F8B4721846C4F8E0622C
:1051F000A4F8E4620393FDF7BFFA04F58053C4F802
:10520000E852C4F83063F025C3F81C664FF4965199
:1052100004F557700CF00AFF3246484600954FF4EB
:10522000A0733146271DFDF77DFA4FF07F434946B5
:10523000A366384607F0ECFE4FF0FF394FF4A07339
:105240003246049800953146FDF76CFA0499C4F88B
:105250009490384607F0DCFE0222EC2311465046BB
:1052600000934FF49F73FDF75DFA8C4BC4F8C03088
:105270005146384607F0CCFE324605980095032388
:10528000A021FDF74FFADC230599C4F8EC9084F8CF
:10529000EA30384607F0BCFE0E23722206980093CF
:1052A0009B21FDF73FFAC023C4F824314FF4345357
:1052B000C4F82C317A4BC4F8443149F66103A4F8A0
:1052C00048310B9B0699C4F81831C4E94755384654
:1052D0002825C4F83061C4F8286107F099FE052339
:1052E00064220A9800950A21FDF71CFA0A99C4F86D
:1052F0007491384607F08CFE0523642209980095C6
:1053000040F23311FDF70EFA0999C4F8A09138461E
:1053100007F07EFE34230CAD5F22404600937421DB
:105320001323FDF7FFF94146C4F8D4912846A4F8A9
:10533000D8610BF0BBF995E8070004F5F07A8AE82C
:1053400007004FF00302414684F8DD2128460BF0A8
:10535000ADF995E807004FF001038AE807004146E0
:1053600084F8DC3128460BF0A1F995E807004D4B95
:1053700010938AE807001123404610A94FF0BE0A97
:10538000ADF844300BF03AFC4146384684F8DAA1D7
:1053900007F03EFE342113235F2258460091BB21C3
:1053A000FDF7C0F95946C4F81C922846A4F82062BB
:1053B0000BF07CF995E8070004F50A7888E8070007
:1053C0004FF00302594684F82522284691460BF0F7
:1053D0006DF995E8070088E807005946284684F8E3
:1053E00024920BF063F995E807002E4B109388E8A0
:1053F00007001023584610A9ADF844300BF0FEFB0F
:105400005946384684F822A207F002FE712202981B
:10541000DFF8A8B03521FDF778F9234BC4F86432E2
:10542000D4F834320299D3F88430A4F8686228465C
:10543000984795E8070004F51C784FF0010388E8C9
:10544000070084F86C32D4F834320299D3F88430EF
:105450002846984795E80700DBF8003088E8070001
:1054600004F54D782BB9114B114A6021114821F0F8
:10547000F5FEDFF84CA0BAF80030072B22D80E4B0F
:105480000B4A6121F2E700BFE89D0208DCA3020895
:10549000789A0208E899020814A7020837380CFF26
:1054A0000C0C99FFD89902085FABDEFF0288020856
:1054B000048902087F880208C6880208B83F0120D4
:1054C000BC3F0120DFF84C910721D9F8000001F022
:1054D00037F94B4A03460A21404611F081FE0298F3
:1054E000C4F87C820BF06AFB464B0298109310A91B
:1054F0000F234FF0D208ADF844300BF07FFB029938
:1055000084F86A82384607F083FD782202230898DF
:1055100000924FF49F713C22FDF704F93A4A3B494F
:10552000A4F8B062C4E9AA213846089907F070FDD2
:1055300078200223314600903C220798FDF7F2F8CC
:10554000314A3249A4F8E462C4E9B72138460799E0
:1055500007F05EFD03986F22F321FDF7D6F8D4F82B
:10556000E8322B4AD3F884300399C4F8182328462C
:10557000A4F81C63984795E80700D4F8E83204F5CE
:10558000497686E807004FF003022846D3F88430B6
:10559000039984F82023984795E80700DBF800304A
:1055A00086E8070004F55275002B3FF45CAFBAF8AB
:1055B0000030072B7FF663AFD9F80000072101F018
:1055C000BFF80F4A03460A21284611F009FE039846
:1055D000C4F830530BF0F2FA0A4B0398109310A959
:1055E0004FF00E03ADF844300BF008FB384603993A
:1055F00084F81E8307F00CFD204613B0BDE8F08F41
:105600004F890208D89902086E0B00FF3493ADFF52
:105610005FABDEFFC43F01207047000010B5034BB5
:10562000036004460CF00CFD204610BD1C9E0208D1
:1056300010B5064B036004460CF002FD204641F213
:105640001C6120F0CFFE204610BD00BF1C9E02084A
:105650002DE9F04F044693B02546002610F0E0F8FF
:10566000904BE66345F8403B04F16C0A2846FDF791
:105670006DF85046FDF76AF804F1980304F1C40888
:1056800018460593FDF762F84046FDF75FF804F110
:10569000F0031846844F0A934FF00109FDF756F8BE
:1056A00004F58E73184604F5A47BC4F8F07084F8F2
:1056B00014910993FDF74AF8C4F81C7184F84091DD
:1056C0007A4F584604F5CA79FDF756F8C4F8487180
:1056D000C4F890614846FDF74FF804F5F073C4F83C
:1056E00094711846C4F8DC610393FDF745F804F59E
:1056F0000A7318460493FDF73FF804F51C73184627
:105700006B4F0893FDF722F804F52973C4F8707203
:105710001846C4F89C62A4F8A0620793FDF716F837
:1057200004F53673C4F8A4721846C4F8D062A4F81D
:10573000D46206930AF0AEF904F5487318460B9349
:10574000FBF7C0FE5B4BC4F820332433C4F8283386
:105750004FF4965104F55770C4F82C630CF066FCB6
:10576000F02332462846009331464FF4A073FCF7ED
:10577000D9FF271D4FF07F432946A366384607F01F
:1057800047FCF02332465046009331464FF4A07355
:10579000FCF7C8FF4FF0FF335146C4F89430384649
:1057A00007F036FC0222EC231146059800934FF4D3
:1057B0009E73FCF7B7FF404B0599C4F8C0303846DC
:1057C00007F026FCF023324640460093A021032335
:1057D000FCF7A8FF4FF0FF33C4F8EC30DC23414660
:1057E000282584F8EA30384607F012FC65220A982A
:1057F000009505230721FCF795FF4FF0FF330A9929
:10580000C4F81831384607F003FC65220998009562
:1058100005234FF49A71FCF785FF4FF0FF33C4F86E
:1058200044310999384607F0F3FB1622B82158464F
:10583000FCF76BFF214BC4F87831D4F84831A4F859
:105840007C610CADD3F8843059462846984795E8DA
:10585000070004F5C2784FF0030388E8070084F8D6
:105860008031D4F848315946D3F8843028469847D7
:1058700095E8070088E80700DFF85880D8F800307E
:1058800004F54D7A2BB90E4B0E4A60210E4821F0DB
:10589000E5FC0E4B1B88032B1ED80D4B094A6121DA
:1058A000F4E700BF1C9E0208789A0208E8990208F3
:1058B00014A70208DCA3020837380CFF565659FF1C
:1058C00002880208048902087F880208BC3F012080
:1058D000C6880208B83F0120924B0321186800F0E7
:1058E0002FFF914A03460A21504611F079FC584691
:1058F000C4F890A10BF062F9DFF848A2CDF840A0FF
:105900001D23584610A9ADF844300BF077F95946DD
:10591000384607F07DFBC32275214846FCF7F5FEAB
:10592000D4F89431814AD3F88430C4F8C42149466C
:105930002846A4F8C861984795E8070004F5E87B75
:10594000D4F894318BE807004FF00102D3F884308B
:1059500084F8CC2149462846984795E80700D8F8AE
:1059600000308BE8070004F5527B002B8BD0704A87
:105970001388042B91D96B4B0421186800F0E0FECA
:10598000694A03460A21584611F02AFC4846C4F8E1
:10599000DCB10BF013F91C2310A94846ADF84430D4
:1059A000CDF840A00BF02AF9494638464FF03409AB
:1059B00007F02EFB0398CDF80090B42213238C211E
:1059C000FCF7B0FE4FF0FF33C4F810320399A4F88F
:1059D000146228460AF06AFE95E8070004F5077885
:1059E00088E807004FF00102039984F8182228463E
:1059F0000AF05CFE95E807001B2388E8070003987F
:105A0000ADF8443010A94FF0BE08CDF840A00BF01F
:105A1000F5F8039984F81682384607F0F9FA0498E5
:105A2000CDF8009007221323A521FCF77BFE4FF051
:105A3000FF330499C4F858322846A4F85C620AF08F
:105A400035FE95E8070004F519794FF0030389E85E
:105A50000700049984F8603228460AF027FE95E88A
:105A600007001A2389E807000498ADF8443010A90C
:105A7000CDF840A00BF0C2F8049984F85E82384655
:105A80004FF0780807F0C4FA0898CDF800803C225F
:105A900002234FF49F71FCF745FE264D264B0899D3
:105AA000A4F8A062C4E9A653384607F0B1FA0798F3
:105AB000CDF800803C2231460223FCF733FE1F4B19
:105AC0000799C4F8D0323846C4F8CC52A4F8D4624E
:105AD00007F09EFA0E230698009372229A21FCF793
